{
	"LaunchpadFactory/LaunchpadFactory_flattened.sol": {
		"LaunchpadFactory": {
			"abi": [
				{
					"inputs": [
						{
							"internalType": "address",
							"name": "_superAccount",
							"type": "address"
						},
						{
							"internalType": "address",
							"name": "_virtualLock",
							"type": "address"
						},
						{
							"internalType": "address payable",
							"name": "_fundAddress",
							"type": "address"
						},
						{
							"internalType": "address",
							"name": "_implementation",
							"type": "address"
						}
					],
					"stateMutability": "nonpayable",
					"type": "constructor"
				},
				{
					"anonymous": false,
					"inputs": [
						{
							"indexed": true,
							"internalType": "address",
							"name": "launchpad",
							"type": "address"
						}
					],
					"name": "NewLaunchpad",
					"type": "event"
				},
				{
					"anonymous": false,
					"inputs": [
						{
							"indexed": true,
							"internalType": "address",
							"name": "previousOwner",
							"type": "address"
						},
						{
							"indexed": true,
							"internalType": "address",
							"name": "newOwner",
							"type": "address"
						}
					],
					"name": "OwnershipTransferred",
					"type": "event"
				},
				{
					"inputs": [],
					"name": "ZOOM",
					"outputs": [
						{
							"internalType": "uint256",
							"name": "",
							"type": "uint256"
						}
					],
					"stateMutability": "view",
					"type": "function"
				},
				{
					"inputs": [
						{
							"internalType": "uint256",
							"name": "",
							"type": "uint256"
						}
					],
					"name": "allLaunchpads",
					"outputs": [
						{
							"internalType": "contract ILaunchpad",
							"name": "",
							"type": "address"
						}
					],
					"stateMutability": "view",
					"type": "function"
				},
				{
					"inputs": [
						{
							"components": [
								{
									"internalType": "address",
									"name": "feeToken",
									"type": "address"
								},
								{
									"internalType": "uint256",
									"name": "presaleRate",
									"type": "uint256"
								},
								{
									"internalType": "uint256",
									"name": "hardCap",
									"type": "uint256"
								},
								{
									"internalType": "uint256",
									"name": "raisedTokenFeePercent",
									"type": "uint256"
								},
								{
									"internalType": "uint256",
									"name": "raisedFeePercent",
									"type": "uint256"
								},
								{
									"internalType": "uint256",
									"name": "listingPercent",
									"type": "uint256"
								},
								{
									"internalType": "uint256",
									"name": "listingPrice",
									"type": "uint256"
								}
							],
							"internalType": "struct LaunchpadStructs.CalculateTokenInput",
							"name": "input",
							"type": "tuple"
						}
					],
					"name": "calculateTokens",
					"outputs": [
						{
							"internalType": "uint256",
							"name": "",
							"type": "uint256"
						},
						{
							"internalType": "uint256",
							"name": "",
							"type": "uint256"
						}
					],
					"stateMutability": "view",
					"type": "function"
				},
				{
					"inputs": [
						{
							"components": [
								{
									"internalType": "address",
									"name": "icoToken",
									"type": "address"
								},
								{
									"internalType": "address",
									"name": "feeToken",
									"type": "address"
								},
								{
									"internalType": "uint256",
									"name": "softCap",
									"type": "uint256"
								},
								{
									"internalType": "uint256",
									"name": "hardCap",
									"type": "uint256"
								},
								{
									"internalType": "uint256",
									"name": "presaleRate",
									"type": "uint256"
								},
								{
									"internalType": "uint256",
									"name": "minInvest",
									"type": "uint256"
								},
								{
									"internalType": "uint256",
									"name": "maxInvest",
									"type": "uint256"
								},
								{
									"internalType": "uint256",
									"name": "startTime",
									"type": "uint256"
								},
								{
									"internalType": "uint256",
									"name": "endTime",
									"type": "uint256"
								},
								{
									"internalType": "uint256",
									"name": "whitelistPool",
									"type": "uint256"
								},
								{
									"internalType": "uint256",
									"name": "poolType",
									"type": "uint256"
								}
							],
							"internalType": "struct LaunchpadStructs.LaunchpadInfo",
							"name": "info",
							"type": "tuple"
						},
						{
							"components": [
								{
									"internalType": "uint256",
									"name": "firstReleasePercent",
									"type": "uint256"
								},
								{
									"internalType": "uint256",
									"name": "vestingPeriodEachCycle",
									"type": "uint256"
								},
								{
									"internalType": "uint256",
									"name": "tokenReleaseEachCycle",
									"type": "uint256"
								}
							],
							"internalType": "struct LaunchpadStructs.ClaimInfo",
							"name": "claimInfo",
							"type": "tuple"
						},
						{
							"components": [
								{
									"internalType": "bool",
									"name": "manualListing",
									"type": "bool"
								},
								{
									"internalType": "address",
									"name": "routerAddress",
									"type": "address"
								},
								{
									"internalType": "address",
									"name": "factoryAddress",
									"type": "address"
								},
								{
									"internalType": "uint256",
									"name": "listingPrice",
									"type": "uint256"
								},
								{
									"internalType": "uint256",
									"name": "listingPercent",
									"type": "uint256"
								},
								{
									"internalType": "uint256",
									"name": "lpLockTime",
									"type": "uint256"
								}
							],
							"internalType": "struct LaunchpadStructs.DexInfo",
							"name": "dexInfo",
							"type": "tuple"
						},
						{
							"components": [
								{
									"internalType": "uint256",
									"name": "raisedFeePercent",
									"type": "uint256"
								},
								{
									"internalType": "uint256",
									"name": "raisedTokenFeePercent",
									"type": "uint256"
								}
							],
							"internalType": "struct LaunchpadStructs.FeeSystem",
							"name": "feeInfo",
							"type": "tuple"
						},
						{
							"components": [
								{
									"internalType": "string",
									"name": "logoURL",
									"type": "string"
								},
								{
									"internalType": "string",
									"name": "description",
									"type": "string"
								},
								{
									"internalType": "string",
									"name": "websiteURL",
									"type": "string"
								},
								{
									"internalType": "string",
									"name": "facebookURL",
									"type": "string"
								},
								{
									"internalType": "string",
									"name": "twitterURL",
									"type": "string"
								},
								{
									"internalType": "string",
									"name": "githubURL",
									"type": "string"
								},
								{
									"internalType": "string",
									"name": "telegramURL",
									"type": "string"
								},
								{
									"internalType": "string",
									"name": "instagramURL",
									"type": "string"
								},
								{
									"internalType": "string",
									"name": "discordURL",
									"type": "string"
								},
								{
									"internalType": "string",
									"name": "redditURL",
									"type": "string"
								}
							],
							"internalType": "struct LaunchpadStructs.SocialLinks",
							"name": "socialLinks",
							"type": "tuple"
						}
					],
					"name": "deployLaunchpad",
					"outputs": [],
					"stateMutability": "payable",
					"type": "function"
				},
				{
					"inputs": [],
					"name": "flatFee",
					"outputs": [
						{
							"internalType": "uint256",
							"name": "",
							"type": "uint256"
						}
					],
					"stateMutability": "view",
					"type": "function"
				},
				{
					"inputs": [],
					"name": "fundAddress",
					"outputs": [
						{
							"internalType": "address payable",
							"name": "",
							"type": "address"
						}
					],
					"stateMutability": "view",
					"type": "function"
				},
				{
					"inputs": [],
					"name": "implementation",
					"outputs": [
						{
							"internalType": "address",
							"name": "",
							"type": "address"
						}
					],
					"stateMutability": "view",
					"type": "function"
				},
				{
					"inputs": [],
					"name": "owner",
					"outputs": [
						{
							"internalType": "address",
							"name": "",
							"type": "address"
						}
					],
					"stateMutability": "view",
					"type": "function"
				},
				{
					"inputs": [],
					"name": "penaltyFeePercent",
					"outputs": [
						{
							"internalType": "uint256",
							"name": "",
							"type": "uint256"
						}
					],
					"stateMutability": "view",
					"type": "function"
				},
				{
					"inputs": [],
					"name": "renounceOwnership",
					"outputs": [],
					"stateMutability": "nonpayable",
					"type": "function"
				},
				{
					"inputs": [
						{
							"internalType": "uint256",
							"name": "_flatFee",
							"type": "uint256"
						}
					],
					"name": "setFlatFee",
					"outputs": [],
					"stateMutability": "nonpayable",
					"type": "function"
				},
				{
					"inputs": [
						{
							"internalType": "address payable",
							"name": "_fundAddress",
							"type": "address"
						}
					],
					"name": "setFundAddress",
					"outputs": [],
					"stateMutability": "nonpayable",
					"type": "function"
				},
				{
					"inputs": [
						{
							"internalType": "address",
							"name": "_implementation",
							"type": "address"
						}
					],
					"name": "setImplementations",
					"outputs": [],
					"stateMutability": "nonpayable",
					"type": "function"
				},
				{
					"inputs": [
						{
							"internalType": "uint256",
							"name": "_penaltyFeePercent",
							"type": "uint256"
						}
					],
					"name": "setPenalyFeePercent",
					"outputs": [],
					"stateMutability": "nonpayable",
					"type": "function"
				},
				{
					"inputs": [
						{
							"internalType": "address",
							"name": "_superAccount",
							"type": "address"
						}
					],
					"name": "setSuperAccount",
					"outputs": [],
					"stateMutability": "nonpayable",
					"type": "function"
				},
				{
					"inputs": [
						{
							"internalType": "address",
							"name": "_virtualLock",
							"type": "address"
						}
					],
					"name": "setVirtualLock",
					"outputs": [],
					"stateMutability": "nonpayable",
					"type": "function"
				},
				{
					"inputs": [],
					"name": "superAccount",
					"outputs": [
						{
							"internalType": "address",
							"name": "",
							"type": "address"
						}
					],
					"stateMutability": "view",
					"type": "function"
				},
				{
					"inputs": [],
					"name": "totalLaunchpads",
					"outputs": [
						{
							"internalType": "contract ILaunchpad[]",
							"name": "launchpads",
							"type": "address[]"
						}
					],
					"stateMutability": "view",
					"type": "function"
				},
				{
					"inputs": [
						{
							"internalType": "address",
							"name": "_user",
							"type": "address"
						}
					],
					"name": "totalLaunchpadsByUser",
					"outputs": [
						{
							"internalType": "contract ILaunchpad[]",
							"name": "launchpadsByUser",
							"type": "address[]"
						}
					],
					"stateMutability": "view",
					"type": "function"
				},
				{
					"inputs": [
						{
							"internalType": "address",
							"name": "newOwner",
							"type": "address"
						}
					],
					"name": "transferOwnership",
					"outputs": [],
					"stateMutability": "nonpayable",
					"type": "function"
				},
				{
					"inputs": [],
					"name": "virtualLock",
					"outputs": [
						{
							"internalType": "address",
							"name": "",
							"type": "address"
						}
					],
					"stateMutability": "view",
					"type": "function"
				}
			],
			"devdoc": {
				"kind": "dev",
				"methods": {
					"owner()": {
						"details": "Returns the address of the current owner."
					},
					"renounceOwnership()": {
						"details": "Leaves the contract without owner. It will not be possible to call `onlyOwner` functions. Can only be called by the current owner. NOTE: Renouncing ownership will leave the contract without an owner, thereby disabling any functionality that is only available to the owner."
					},
					"transferOwnership(address)": {
						"details": "Transfers ownership of the contract to a new account (`newOwner`). Can only be called by the current owner."
					}
				},
				"version": 1
			},
			"evm": {
				"assembly": "    /* \"LaunchpadFactory/LaunchpadFactory_flattened.sol\":35253:43235  contract LaunchpadFactory is Ownable {... */\n  mstore(0x40, 0x80)\n    /* \"LaunchpadFactory/LaunchpadFactory_flattened.sol\":35531:35535  1000 */\n  0x03e8\n    /* \"LaunchpadFactory/LaunchpadFactory_flattened.sol\":35496:35535  uint256 public penaltyFeePercent = 1000 */\n  0x02\n  sstore\n    /* \"LaunchpadFactory/LaunchpadFactory_flattened.sol\":36204:37086  constructor(... */\n  callvalue\n  dup1\n  iszero\n  tag_1\n  jumpi\n  0x00\n  dup1\n  revert\ntag_1:\n  pop\n  mload(0x40)\n  sub(codesize, bytecodeSize)\n  dup1\n  bytecodeSize\n  dup4\n  codecopy\n  dup2\n  add\n  0x40\n  dup2\n  swap1\n  mstore\n  tag_2\n  swap2\n  tag_3\n  jump\t// in\ntag_2:\n    /* \"LaunchpadFactory/LaunchpadFactory_flattened.sol\":33489:33521  _transferOwnership(_msgSender()) */\n  tag_7\n    /* \"LaunchpadFactory/LaunchpadFactory_flattened.sol\":32436:32446  msg.sender */\n  caller\n    /* \"LaunchpadFactory/LaunchpadFactory_flattened.sol\":33489:33507  _transferOwnership */\n  tag_10\n    /* \"LaunchpadFactory/LaunchpadFactory_flattened.sol\":33489:33521  _transferOwnership(_msgSender()) */\n  jump\t// in\ntag_7:\n  sub(shl(0xa0, 0x01), 0x01)\n    /* \"LaunchpadFactory/LaunchpadFactory_flattened.sol\":36494:36520  _virtualLock != address(0) */\n  dup4\n  and\n  iszero\n  dup1\n  iszero\n  swap1\n    /* \"LaunchpadFactory/LaunchpadFactory_flattened.sol\":36494:36553  _virtualLock != address(0) && _virtualLock != address(this) */\n  tag_12\n  jumpi\n  pop\n  sub(shl(0xa0, 0x01), 0x01)\n    /* \"LaunchpadFactory/LaunchpadFactory_flattened.sol\":36524:36553  _virtualLock != address(this) */\n  dup4\n  and\n    /* \"LaunchpadFactory/LaunchpadFactory_flattened.sol\":36548:36552  this */\n  address\n    /* \"LaunchpadFactory/LaunchpadFactory_flattened.sol\":36524:36553  _virtualLock != address(this) */\n  eq\n  iszero\n    /* \"LaunchpadFactory/LaunchpadFactory_flattened.sol\":36494:36553  _virtualLock != address(0) && _virtualLock != address(this) */\ntag_12:\n    /* \"LaunchpadFactory/LaunchpadFactory_flattened.sol\":36473:36607  require(... */\n  tag_13\n  jumpi\n  mload(0x40)\n  shl(0xe5, 0x461bcd)\n  dup2\n  mstore\n    /* \"#utility.yul\":1019:1021   */\n  0x20\n    /* \"LaunchpadFactory/LaunchpadFactory_flattened.sol\":36473:36607  require(... */\n  0x04\n  dup3\n  add\n    /* \"#utility.yul\":1001:1022   */\n  mstore\n    /* \"#utility.yul\":1058:1060   */\n  0x1c\n    /* \"#utility.yul\":1038:1056   */\n  0x24\n  dup3\n  add\n    /* \"#utility.yul\":1031:1061   */\n  mstore\n    /* \"#utility.yul\":1097:1127   */\n  0x4c61756368706164466163746f72793a207669727475616c4c6f636b00000000\n    /* \"#utility.yul\":1077:1095   */\n  0x44\n  dup3\n  add\n    /* \"#utility.yul\":1070:1128   */\n  mstore\n    /* \"#utility.yul\":1145:1163   */\n  0x64\n  add\n    /* \"LaunchpadFactory/LaunchpadFactory_flattened.sol\":36473:36607  require(... */\ntag_14:\n  mload(0x40)\n  dup1\n  swap2\n  sub\n  swap1\n  revert\ntag_13:\n  sub(shl(0xa0, 0x01), 0x01)\n    /* \"LaunchpadFactory/LaunchpadFactory_flattened.sol\":36638:36665  _superAccount != address(0) */\n  dup5\n  and\n  iszero\n  dup1\n  iszero\n  swap1\n    /* \"LaunchpadFactory/LaunchpadFactory_flattened.sol\":36638:36699  _superAccount != address(0) && _superAccount != address(this) */\n  tag_16\n  jumpi\n  pop\n  sub(shl(0xa0, 0x01), 0x01)\n    /* \"LaunchpadFactory/LaunchpadFactory_flattened.sol\":36669:36699  _superAccount != address(this) */\n  dup5\n  and\n    /* \"LaunchpadFactory/LaunchpadFactory_flattened.sol\":36694:36698  this */\n  address\n    /* \"LaunchpadFactory/LaunchpadFactory_flattened.sol\":36669:36699  _superAccount != address(this) */\n  eq\n  iszero\n    /* \"LaunchpadFactory/LaunchpadFactory_flattened.sol\":36638:36699  _superAccount != address(0) && _superAccount != address(this) */\ntag_16:\n    /* \"LaunchpadFactory/LaunchpadFactory_flattened.sol\":36617:36754  require(... */\n  tag_17\n  jumpi\n  mload(0x40)\n  shl(0xe5, 0x461bcd)\n  dup2\n  mstore\n    /* \"#utility.yul\":1376:1378   */\n  0x20\n    /* \"LaunchpadFactory/LaunchpadFactory_flattened.sol\":36617:36754  require(... */\n  0x04\n  dup3\n  add\n    /* \"#utility.yul\":1358:1379   */\n  mstore\n    /* \"#utility.yul\":1415:1417   */\n  0x1d\n    /* \"#utility.yul\":1395:1413   */\n  0x24\n  dup3\n  add\n    /* \"#utility.yul\":1388:1418   */\n  mstore\n    /* \"#utility.yul\":1454:1485   */\n  0x4c61756368706164466163746f72793a2073757065724163636f756e74000000\n    /* \"#utility.yul\":1434:1452   */\n  0x44\n  dup3\n  add\n    /* \"#utility.yul\":1427:1486   */\n  mstore\n    /* \"#utility.yul\":1503:1521   */\n  0x64\n  add\n    /* \"LaunchpadFactory/LaunchpadFactory_flattened.sol\":36617:36754  require(... */\n  tag_14\n    /* \"#utility.yul\":1174:1527   */\n  jump\n    /* \"LaunchpadFactory/LaunchpadFactory_flattened.sol\":36617:36754  require(... */\ntag_17:\n  sub(shl(0xa0, 0x01), 0x01)\n    /* \"LaunchpadFactory/LaunchpadFactory_flattened.sol\":36785:36811  _fundAddress != address(0) */\n  dup3\n  and\n  iszero\n  dup1\n  iszero\n  swap1\n    /* \"LaunchpadFactory/LaunchpadFactory_flattened.sol\":36785:36844  _fundAddress != address(0) && _fundAddress != address(this) */\n  tag_20\n  jumpi\n  pop\n  sub(shl(0xa0, 0x01), 0x01)\n    /* \"LaunchpadFactory/LaunchpadFactory_flattened.sol\":36815:36844  _fundAddress != address(this) */\n  dup3\n  and\n    /* \"LaunchpadFactory/LaunchpadFactory_flattened.sol\":36839:36843  this */\n  address\n    /* \"LaunchpadFactory/LaunchpadFactory_flattened.sol\":36815:36844  _fundAddress != address(this) */\n  eq\n  iszero\n    /* \"LaunchpadFactory/LaunchpadFactory_flattened.sol\":36785:36844  _fundAddress != address(0) && _fundAddress != address(this) */\ntag_20:\n    /* \"LaunchpadFactory/LaunchpadFactory_flattened.sol\":36764:36898  require(... */\n  tag_21\n  jumpi\n  mload(0x40)\n  shl(0xe5, 0x461bcd)\n  dup2\n  mstore\n    /* \"#utility.yul\":1734:1736   */\n  0x20\n    /* \"LaunchpadFactory/LaunchpadFactory_flattened.sol\":36764:36898  require(... */\n  0x04\n  dup3\n  add\n    /* \"#utility.yul\":1716:1737   */\n  mstore\n    /* \"#utility.yul\":1773:1775   */\n  0x1c\n    /* \"#utility.yul\":1753:1771   */\n  0x24\n  dup3\n  add\n    /* \"#utility.yul\":1746:1776   */\n  mstore\n    /* \"#utility.yul\":1812:1842   */\n  0x4c61756368706164466163746f72793a2066756e644164647265737300000000\n    /* \"#utility.yul\":1792:1810   */\n  0x44\n  dup3\n  add\n    /* \"#utility.yul\":1785:1843   */\n  mstore\n    /* \"#utility.yul\":1860:1878   */\n  0x64\n  add\n    /* \"LaunchpadFactory/LaunchpadFactory_flattened.sol\":36764:36898  require(... */\n  tag_14\n    /* \"#utility.yul\":1532:1884   */\n  jump\n    /* \"LaunchpadFactory/LaunchpadFactory_flattened.sol\":36764:36898  require(... */\ntag_21:\n    /* \"LaunchpadFactory/LaunchpadFactory_flattened.sol\":36937:36949  superAccount */\n  0x03\n    /* \"LaunchpadFactory/LaunchpadFactory_flattened.sol\":36937:36965  superAccount = _superAccount */\n  dup1\n  sload\n  not(sub(shl(0xa0, 0x01), 0x01))\n  swap1\n  dup2\n  and\n  sub(shl(0xa0, 0x01), 0x01)\n  swap7\n  dup8\n  and\n  or\n  swap1\n  swap2\n  sstore\n    /* \"LaunchpadFactory/LaunchpadFactory_flattened.sol\":36975:36986  fundAddress */\n  0x05\n    /* \"LaunchpadFactory/LaunchpadFactory_flattened.sol\":36975:37001  fundAddress = _fundAddress */\n  dup1\n  sload\n  dup3\n  and\n  swap4\n  dup7\n  and\n  swap4\n  swap1\n  swap4\n  or\n  swap1\n  swap3\n  sstore\n    /* \"LaunchpadFactory/LaunchpadFactory_flattened.sol\":37011:37022  virtualLock */\n  0x04\n    /* \"LaunchpadFactory/LaunchpadFactory_flattened.sol\":37011:37037  virtualLock = _virtualLock */\n  dup1\n  sload\n  dup4\n  and\n  swap4\n  dup6\n  and\n  swap4\n  swap1\n  swap4\n  or\n  swap1\n  swap3\n  sstore\n    /* \"LaunchpadFactory/LaunchpadFactory_flattened.sol\":37047:37061  implementation */\n  0x06\n    /* \"LaunchpadFactory/LaunchpadFactory_flattened.sol\":37047:37079  implementation = _implementation */\n  dup1\n  sload\n  swap1\n  swap2\n  and\n  swap2\n  swap1\n  swap3\n  and\n  or\n  swap1\n  sstore\n    /* \"LaunchpadFactory/LaunchpadFactory_flattened.sol\":35253:43235  contract LaunchpadFactory is Ownable {... */\n  jump(tag_28)\n    /* \"LaunchpadFactory/LaunchpadFactory_flattened.sol\":34979:35166  function _transferOwnership(address newOwner) internal virtual {... */\ntag_10:\n    /* \"LaunchpadFactory/LaunchpadFactory_flattened.sol\":35052:35068  address oldOwner */\n  0x00\n    /* \"LaunchpadFactory/LaunchpadFactory_flattened.sol\":35071:35077  _owner */\n  dup1\n  sload\n  sub(shl(0xa0, 0x01), 0x01)\n    /* \"LaunchpadFactory/LaunchpadFactory_flattened.sol\":35087:35104  _owner = newOwner */\n  dup4\n  dup2\n  and\n  not(sub(shl(0xa0, 0x01), 0x01))\n  dup4\n  and\n  dup2\n  or\n  dup5\n  sstore\n    /* \"LaunchpadFactory/LaunchpadFactory_flattened.sol\":35119:35159  OwnershipTransferred(oldOwner, newOwner) */\n  mload(0x40)\n    /* \"LaunchpadFactory/LaunchpadFactory_flattened.sol\":35071:35077  _owner */\n  swap2\n  swap1\n  swap3\n  and\n  swap3\n  dup4\n  swap2\n    /* \"LaunchpadFactory/LaunchpadFactory_flattened.sol\":35119:35159  OwnershipTransferred(oldOwner, newOwner) */\n  0x8be0079c531659141344cd1fd0a4f28419497f9722a3daafe3b4186f6b6457e0\n  swap2\n    /* \"LaunchpadFactory/LaunchpadFactory_flattened.sol\":35052:35068  address oldOwner */\n  swap1\n    /* \"LaunchpadFactory/LaunchpadFactory_flattened.sol\":35119:35159  OwnershipTransferred(oldOwner, newOwner) */\n  log3\n    /* \"LaunchpadFactory/LaunchpadFactory_flattened.sol\":35042:35166  {... */\n  pop\n    /* \"LaunchpadFactory/LaunchpadFactory_flattened.sol\":34979:35166  function _transferOwnership(address newOwner) internal virtual {... */\n  pop\n  jump\t// out\n    /* \"#utility.yul\":14:145   */\ntag_27:\n  sub(shl(0xa0, 0x01), 0x01)\n    /* \"#utility.yul\":89:120   */\n  dup2\n  and\n    /* \"#utility.yul\":79:121   */\n  dup2\n  eq\n    /* \"#utility.yul\":69:139   */\n  tag_30\n  jumpi\n    /* \"#utility.yul\":135:136   */\n  0x00\n    /* \"#utility.yul\":132:133   */\n  dup1\n    /* \"#utility.yul\":125:137   */\n  revert\n    /* \"#utility.yul\":69:139   */\ntag_30:\n    /* \"#utility.yul\":14:145   */\n  pop\n  jump\t// out\n    /* \"#utility.yul\":150:812   */\ntag_3:\n    /* \"#utility.yul\":255:261   */\n  0x00\n    /* \"#utility.yul\":263:269   */\n  dup1\n    /* \"#utility.yul\":271:277   */\n  0x00\n    /* \"#utility.yul\":279:285   */\n  dup1\n    /* \"#utility.yul\":332:335   */\n  0x80\n    /* \"#utility.yul\":320:329   */\n  dup6\n    /* \"#utility.yul\":311:318   */\n  dup8\n    /* \"#utility.yul\":307:330   */\n  sub\n    /* \"#utility.yul\":303:336   */\n  slt\n    /* \"#utility.yul\":300:353   */\n  iszero\n  tag_32\n  jumpi\n    /* \"#utility.yul\":349:350   */\n  0x00\n    /* \"#utility.yul\":346:347   */\n  dup1\n    /* \"#utility.yul\":339:351   */\n  revert\n    /* \"#utility.yul\":300:353   */\ntag_32:\n    /* \"#utility.yul\":381:390   */\n  dup5\n    /* \"#utility.yul\":375:391   */\n  mload\n    /* \"#utility.yul\":400:431   */\n  tag_33\n    /* \"#utility.yul\":425:430   */\n  dup2\n    /* \"#utility.yul\":400:431   */\n  tag_27\n  jump\t// in\ntag_33:\n    /* \"#utility.yul\":500:502   */\n  0x20\n    /* \"#utility.yul\":485:503   */\n  dup7\n  add\n    /* \"#utility.yul\":479:504   */\n  mload\n    /* \"#utility.yul\":450:455   */\n  swap1\n  swap5\n  pop\n    /* \"#utility.yul\":513:546   */\n  tag_34\n    /* \"#utility.yul\":479:504   */\n  dup2\n    /* \"#utility.yul\":513:546   */\n  tag_27\n  jump\t// in\ntag_34:\n    /* \"#utility.yul\":617:619   */\n  0x40\n    /* \"#utility.yul\":602:620   */\n  dup7\n  add\n    /* \"#utility.yul\":596:621   */\n  mload\n    /* \"#utility.yul\":565:572   */\n  swap1\n  swap4\n  pop\n    /* \"#utility.yul\":630:663   */\n  tag_35\n    /* \"#utility.yul\":596:621   */\n  dup2\n    /* \"#utility.yul\":630:663   */\n  tag_27\n  jump\t// in\ntag_35:\n    /* \"#utility.yul\":734:736   */\n  0x60\n    /* \"#utility.yul\":719:737   */\n  dup7\n  add\n    /* \"#utility.yul\":713:738   */\n  mload\n    /* \"#utility.yul\":682:689   */\n  swap1\n  swap3\n  pop\n    /* \"#utility.yul\":747:780   */\n  tag_36\n    /* \"#utility.yul\":713:738   */\n  dup2\n    /* \"#utility.yul\":747:780   */\n  tag_27\n  jump\t// in\ntag_36:\n    /* \"#utility.yul\":150:812   */\n  swap4\n  swap7\n  swap3\n  swap6\n  pop\n  swap1\n  swap4\n  pop\n  pop\n  jump\t// out\n    /* \"#utility.yul\":1532:1884   */\ntag_28:\n    /* \"LaunchpadFactory/LaunchpadFactory_flattened.sol\":35253:43235  contract LaunchpadFactory is Ownable {... */\n  dataSize(sub_0)\n  dup1\n  dataOffset(sub_0)\n  0x00\n  codecopy\n  0x00\n  return\nstop\n\nsub_0: assembly {\n        /* \"LaunchpadFactory/LaunchpadFactory_flattened.sol\":35253:43235  contract LaunchpadFactory is Ownable {... */\n      mstore(0x40, 0x80)\n      jumpi(tag_1, lt(calldatasize, 0x04))\n      shr(0xe0, calldataload(0x00))\n      dup1\n      0x85dc3004\n      gt\n      tag_23\n      jumpi\n      dup1\n      0xa96df743\n      gt\n      tag_24\n      jumpi\n      dup1\n      0xa96df743\n      eq\n      tag_17\n      jumpi\n      dup1\n      0xb6b7913e\n      eq\n      tag_18\n      jumpi\n      dup1\n      0xc06ca1dd\n      eq\n      tag_19\n      jumpi\n      dup1\n      0xd9eb5947\n      eq\n      tag_20\n      jumpi\n      dup1\n      0xe82bef29\n      eq\n      tag_21\n      jumpi\n      dup1\n      0xf2fde38b\n      eq\n      tag_22\n      jumpi\n      0x00\n      dup1\n      revert\n    tag_24:\n      dup1\n      0x85dc3004\n      eq\n      tag_12\n      jumpi\n      dup1\n      0x892f78fa\n      eq\n      tag_13\n      jumpi\n      dup1\n      0x8a9b66cc\n      eq\n      tag_14\n      jumpi\n      dup1\n      0x8da5cb5b\n      eq\n      tag_15\n      jumpi\n      dup1\n      0x9352dace\n      eq\n      tag_16\n      jumpi\n      0x00\n      dup1\n      revert\n    tag_23:\n      dup1\n      0x5a416a36\n      gt\n      tag_25\n      jumpi\n      dup1\n      0x5a416a36\n      eq\n      tag_7\n      jumpi\n      dup1\n      0x5c60da1b\n      eq\n      tag_8\n      jumpi\n      dup1\n      0x640f82f3\n      eq\n      tag_9\n      jumpi\n      dup1\n      0x6de944dc\n      eq\n      tag_10\n      jumpi\n      dup1\n      0x715018a6\n      eq\n      tag_11\n      jumpi\n      0x00\n      dup1\n      revert\n    tag_25:\n      dup1\n      0x23fa495a\n      eq\n      tag_2\n      jumpi\n      dup1\n      0x49a1f14b\n      eq\n      tag_3\n      jumpi\n      dup1\n      0x51ae878f\n      eq\n      tag_4\n      jumpi\n      dup1\n      0x53aca078\n      eq\n      tag_5\n      jumpi\n      dup1\n      0x58e5bc88\n      eq\n      tag_6\n      jumpi\n    tag_1:\n      0x00\n      dup1\n      revert\n        /* \"LaunchpadFactory/LaunchpadFactory_flattened.sol\":37542:37632  function setFlatFee(uint256 _flatFee) public onlyOwner {... */\n    tag_2:\n      callvalue\n      dup1\n      iszero\n      tag_26\n      jumpi\n      0x00\n      dup1\n      revert\n    tag_26:\n      pop\n      tag_27\n      tag_28\n      calldatasize\n      0x04\n      tag_29\n      jump\t// in\n    tag_28:\n      tag_30\n      jump\t// in\n    tag_27:\n      stop\n        /* \"LaunchpadFactory/LaunchpadFactory_flattened.sol\":39492:42820  function deployLaunchpad(... */\n    tag_3:\n      tag_27\n      tag_32\n      calldatasize\n      0x04\n      tag_33\n      jump\t// in\n    tag_32:\n      tag_34\n      jump\t// in\n        /* \"LaunchpadFactory/LaunchpadFactory_flattened.sol\":37638:37799  function setPenalyFeePercent(uint256 _penaltyFeePercent) public onlyOwner {... */\n    tag_4:\n      callvalue\n      dup1\n      iszero\n      tag_35\n      jumpi\n      0x00\n      dup1\n      revert\n    tag_35:\n      pop\n      tag_27\n      tag_37\n      calldatasize\n      0x04\n      tag_29\n      jump\t// in\n    tag_37:\n      tag_38\n      jump\t// in\n        /* \"LaunchpadFactory/LaunchpadFactory_flattened.sol\":35940:35973  ILaunchpad[] public allLaunchpads */\n    tag_5:\n      callvalue\n      dup1\n      iszero\n      tag_39\n      jumpi\n      0x00\n      dup1\n      revert\n    tag_39:\n      pop\n      tag_40\n      tag_41\n      calldatasize\n      0x04\n      tag_29\n      jump\t// in\n    tag_41:\n      tag_42\n      jump\t// in\n    tag_40:\n      mload(0x40)\n      sub(shl(0xa0, 0x01), 0x01)\n        /* \"#utility.yul\":7911:7943   */\n      swap1\n      swap2\n      and\n        /* \"#utility.yul\":7893:7944   */\n      dup2\n      mstore\n        /* \"#utility.yul\":7881:7883   */\n      0x20\n        /* \"#utility.yul\":7866:7884   */\n      add\n        /* \"LaunchpadFactory/LaunchpadFactory_flattened.sol\":35940:35973  ILaunchpad[] public allLaunchpads */\n    tag_43:\n      mload(0x40)\n      dup1\n      swap2\n      sub\n      swap1\n      return\n        /* \"LaunchpadFactory/LaunchpadFactory_flattened.sol\":35367:35403  uint256 public constant ZOOM = 10000 */\n    tag_6:\n      callvalue\n      dup1\n      iszero\n      tag_45\n      jumpi\n      0x00\n      dup1\n      revert\n    tag_45:\n      pop\n      tag_46\n        /* \"LaunchpadFactory/LaunchpadFactory_flattened.sol\":35398:35403  10000 */\n      0x2710\n        /* \"LaunchpadFactory/LaunchpadFactory_flattened.sol\":35367:35403  uint256 public constant ZOOM = 10000 */\n      dup2\n      jump\n    tag_46:\n      mload(0x40)\n        /* \"#utility.yul\":8101:8126   */\n      swap1\n      dup2\n      mstore\n        /* \"#utility.yul\":8089:8091   */\n      0x20\n        /* \"#utility.yul\":8074:8092   */\n      add\n        /* \"LaunchpadFactory/LaunchpadFactory_flattened.sol\":35367:35403  uint256 public constant ZOOM = 10000 */\n      tag_43\n        /* \"#utility.yul\":7955:8132   */\n      jump\n        /* \"LaunchpadFactory/LaunchpadFactory_flattened.sol\":37310:37416  function setVirtualLock(address _virtualLock) public onlyOwner {... */\n    tag_7:\n      callvalue\n      dup1\n      iszero\n      tag_50\n      jumpi\n      0x00\n      dup1\n      revert\n    tag_50:\n      pop\n      tag_27\n      tag_52\n      calldatasize\n      0x04\n      tag_53\n      jump\t// in\n    tag_52:\n      tag_54\n      jump\t// in\n        /* \"LaunchpadFactory/LaunchpadFactory_flattened.sol\":35827:35856  address public implementation */\n    tag_8:\n      callvalue\n      dup1\n      iszero\n      tag_55\n      jumpi\n      0x00\n      dup1\n      revert\n    tag_55:\n      pop\n      sload(0x06)\n      tag_40\n      swap1\n      sub(shl(0xa0, 0x01), 0x01)\n      and\n      dup2\n      jump\n        /* \"LaunchpadFactory/LaunchpadFactory_flattened.sol\":35704:35730  address public virtualLock */\n    tag_9:\n      callvalue\n      dup1\n      iszero\n      tag_60\n      jumpi\n      0x00\n      dup1\n      revert\n    tag_60:\n      pop\n      sload(0x04)\n      tag_40\n      swap1\n      sub(shl(0xa0, 0x01), 0x01)\n      and\n      dup2\n      jump\n        /* \"LaunchpadFactory/LaunchpadFactory_flattened.sol\":43080:43232  function totalLaunchpadsByUser(address _user) external view returns (ILaunchpad[] memory launchpadsByUser){... */\n    tag_10:\n      callvalue\n      dup1\n      iszero\n      tag_64\n      jumpi\n      0x00\n      dup1\n      revert\n    tag_64:\n      pop\n      tag_65\n      tag_66\n      calldatasize\n      0x04\n      tag_53\n      jump\t// in\n    tag_66:\n      tag_67\n      jump\t// in\n    tag_65:\n      mload(0x40)\n      tag_43\n      swap2\n      swap1\n      tag_69\n      jump\t// in\n        /* \"LaunchpadFactory/LaunchpadFactory_flattened.sol\":34377:34478  function renounceOwnership() public virtual onlyOwner {... */\n    tag_11:\n      callvalue\n      dup1\n      iszero\n      tag_70\n      jumpi\n      0x00\n      dup1\n      revert\n    tag_70:\n      pop\n      tag_27\n      tag_72\n      jump\t// in\n        /* \"LaunchpadFactory/LaunchpadFactory_flattened.sol\":37422:37536  function setFundAddress(address payable _fundAddress) public onlyOwner {... */\n    tag_12:\n      callvalue\n      dup1\n      iszero\n      tag_73\n      jumpi\n      0x00\n      dup1\n      revert\n    tag_73:\n      pop\n      tag_27\n      tag_75\n      calldatasize\n      0x04\n      tag_53\n      jump\t// in\n    tag_75:\n      tag_77\n      jump\t// in\n        /* \"LaunchpadFactory/LaunchpadFactory_flattened.sol\":37194:37304  function setSuperAccount(address _superAccount) public onlyOwner {... */\n    tag_13:\n      callvalue\n      dup1\n      iszero\n      tag_78\n      jumpi\n      0x00\n      dup1\n      revert\n    tag_78:\n      pop\n      tag_27\n      tag_80\n      calldatasize\n      0x04\n      tag_53\n      jump\t// in\n    tag_80:\n      tag_81\n      jump\t// in\n        /* \"LaunchpadFactory/LaunchpadFactory_flattened.sol\":35496:35535  uint256 public penaltyFeePercent = 1000 */\n    tag_14:\n      callvalue\n      dup1\n      iszero\n      tag_82\n      jumpi\n      0x00\n      dup1\n      revert\n    tag_82:\n      pop\n      tag_46\n      sload(0x02)\n      dup2\n      jump\n        /* \"LaunchpadFactory/LaunchpadFactory_flattened.sol\":33754:33839  function owner() public view virtual returns (address) {... */\n    tag_15:\n      callvalue\n      dup1\n      iszero\n      tag_86\n      jumpi\n      0x00\n      dup1\n      revert\n    tag_86:\n      pop\n        /* \"LaunchpadFactory/LaunchpadFactory_flattened.sol\":33800:33807  address */\n      0x00\n        /* \"LaunchpadFactory/LaunchpadFactory_flattened.sol\":33826:33832  _owner */\n      sload\n      sub(shl(0xa0, 0x01), 0x01)\n      and\n        /* \"LaunchpadFactory/LaunchpadFactory_flattened.sol\":33754:33839  function owner() public view virtual returns (address) {... */\n      jump(tag_40)\n        /* \"LaunchpadFactory/LaunchpadFactory_flattened.sol\":37805:37924  function setImplementations(address _implementation) public onlyOwner {... */\n    tag_16:\n      callvalue\n      dup1\n      iszero\n      tag_90\n      jumpi\n      0x00\n      dup1\n      revert\n    tag_90:\n      pop\n      tag_27\n      tag_92\n      calldatasize\n      0x04\n      tag_53\n      jump\t// in\n    tag_92:\n      tag_93\n      jump\t// in\n        /* \"LaunchpadFactory/LaunchpadFactory_flattened.sol\":38382:39382  function calculateTokens(... */\n    tag_17:\n      callvalue\n      dup1\n      iszero\n      tag_94\n      jumpi\n      0x00\n      dup1\n      revert\n    tag_94:\n      pop\n      tag_95\n      tag_96\n      calldatasize\n      0x04\n      tag_97\n      jump\t// in\n    tag_96:\n      tag_98\n      jump\t// in\n    tag_95:\n      0x40\n      dup1\n      mload\n        /* \"#utility.yul\":10746:10771   */\n      swap3\n      dup4\n      mstore\n        /* \"#utility.yul\":10802:10804   */\n      0x20\n        /* \"#utility.yul\":10787:10805   */\n      dup4\n      add\n        /* \"#utility.yul\":10780:10814   */\n      swap2\n      swap1\n      swap2\n      mstore\n        /* \"#utility.yul\":10719:10737   */\n      add\n        /* \"LaunchpadFactory/LaunchpadFactory_flattened.sol\":38382:39382  function calculateTokens(... */\n      tag_43\n        /* \"#utility.yul\":10572:10820   */\n      jump\n        /* \"LaunchpadFactory/LaunchpadFactory_flattened.sol\":35671:35698  address public superAccount */\n    tag_18:\n      callvalue\n      dup1\n      iszero\n      tag_101\n      jumpi\n      0x00\n      dup1\n      revert\n    tag_101:\n      pop\n      sload(0x03)\n      tag_40\n      swap1\n      sub(shl(0xa0, 0x01), 0x01)\n      and\n      dup2\n      jump\n        /* \"LaunchpadFactory/LaunchpadFactory_flattened.sol\":42878:42996  function totalLaunchpads() external view returns (ILaunchpad[] memory launchpads){... */\n    tag_19:\n      callvalue\n      dup1\n      iszero\n      tag_105\n      jumpi\n      0x00\n      dup1\n      revert\n    tag_105:\n      pop\n      tag_65\n      tag_107\n      jump\t// in\n        /* \"LaunchpadFactory/LaunchpadFactory_flattened.sol\":35410:35432  uint256 public flatFee */\n    tag_20:\n      callvalue\n      dup1\n      iszero\n      tag_109\n      jumpi\n      0x00\n      dup1\n      revert\n    tag_109:\n      pop\n      tag_46\n      sload(0x01)\n      dup2\n      jump\n        /* \"LaunchpadFactory/LaunchpadFactory_flattened.sol\":35736:35770  address payable public fundAddress */\n    tag_21:\n      callvalue\n      dup1\n      iszero\n      tag_113\n      jumpi\n      0x00\n      dup1\n      revert\n    tag_113:\n      pop\n      sload(0x05)\n      tag_40\n      swap1\n      sub(shl(0xa0, 0x01), 0x01)\n      and\n      dup2\n      jump\n        /* \"LaunchpadFactory/LaunchpadFactory_flattened.sol\":34627:34825  function transferOwnership(address newOwner) public virtual onlyOwner {... */\n    tag_22:\n      callvalue\n      dup1\n      iszero\n      tag_118\n      jumpi\n      0x00\n      dup1\n      revert\n    tag_118:\n      pop\n      tag_27\n      tag_120\n      calldatasize\n      0x04\n      tag_53\n      jump\t// in\n    tag_120:\n      tag_121\n      jump\t// in\n        /* \"LaunchpadFactory/LaunchpadFactory_flattened.sol\":37542:37632  function setFlatFee(uint256 _flatFee) public onlyOwner {... */\n    tag_30:\n        /* \"LaunchpadFactory/LaunchpadFactory_flattened.sol\":33647:33660  _checkOwner() */\n      tag_123\n        /* \"LaunchpadFactory/LaunchpadFactory_flattened.sol\":33647:33658  _checkOwner */\n      tag_124\n        /* \"LaunchpadFactory/LaunchpadFactory_flattened.sol\":33647:33660  _checkOwner() */\n      jump\t// in\n    tag_123:\n        /* \"LaunchpadFactory/LaunchpadFactory_flattened.sol\":37607:37614  flatFee */\n      0x01\n        /* \"LaunchpadFactory/LaunchpadFactory_flattened.sol\":37607:37625  flatFee = _flatFee */\n      sstore\n        /* \"LaunchpadFactory/LaunchpadFactory_flattened.sol\":37542:37632  function setFlatFee(uint256 _flatFee) public onlyOwner {... */\n      jump\t// out\n        /* \"LaunchpadFactory/LaunchpadFactory_flattened.sol\":39492:42820  function deployLaunchpad(... */\n    tag_34:\n        /* \"LaunchpadFactory/LaunchpadFactory_flattened.sol\":39944:39956  superAccount */\n      and(sub(shl(0xa0, 0x01), 0x01), sload(0x03))\n        /* \"LaunchpadFactory/LaunchpadFactory_flattened.sol\":39944:39970  superAccount != address(0) */\n      iszero\n      dup1\n      iszero\n      swap1\n        /* \"LaunchpadFactory/LaunchpadFactory_flattened.sol\":39944:40015  superAccount != address(0) &&... */\n      tag_127\n      jumpi\n      pop\n        /* \"LaunchpadFactory/LaunchpadFactory_flattened.sol\":39990:40001  fundAddress */\n      and(sub(shl(0xa0, 0x01), 0x01), sload(0x05))\n        /* \"LaunchpadFactory/LaunchpadFactory_flattened.sol\":39990:40015  fundAddress != address(0) */\n      iszero\n      iszero\n        /* \"LaunchpadFactory/LaunchpadFactory_flattened.sol\":39944:40015  superAccount != address(0) &&... */\n    tag_127:\n        /* \"LaunchpadFactory/LaunchpadFactory_flattened.sol\":39880:40087  require(... */\n      tag_128\n      jumpi\n      mload(0x40)\n      shl(0xe5, 0x461bcd)\n      dup2\n      mstore\n        /* \"#utility.yul\":11251:11253   */\n      0x20\n        /* \"LaunchpadFactory/LaunchpadFactory_flattened.sol\":39880:40087  require(... */\n      0x04\n      dup3\n      add\n        /* \"#utility.yul\":11233:11254   */\n      mstore\n        /* \"#utility.yul\":11290:11292   */\n      0x2e\n        /* \"#utility.yul\":11270:11288   */\n      0x24\n      dup3\n      add\n        /* \"#utility.yul\":11263:11293   */\n      mstore\n        /* \"#utility.yul\":11329:11363   */\n      0x4c61756368706164466163746f72793a2043616e206e6f742063726561746520\n        /* \"#utility.yul\":11309:11327   */\n      0x44\n      dup3\n      add\n        /* \"#utility.yul\":11302:11364   */\n      mstore\n      shl(0x90, 0x6c61756e6368706164206e6f7721)\n        /* \"#utility.yul\":11380:11398   */\n      0x64\n      dup3\n      add\n        /* \"#utility.yul\":11373:11417   */\n      mstore\n        /* \"#utility.yul\":11434:11453   */\n      0x84\n      add\n        /* \"LaunchpadFactory/LaunchpadFactory_flattened.sol\":39880:40087  require(... */\n    tag_129:\n      mload(0x40)\n      dup1\n      swap2\n      sub\n      swap1\n      revert\n    tag_128:\n        /* \"LaunchpadFactory/LaunchpadFactory_flattened.sol\":40118:40125  flatFee */\n      sload(0x01)\n        /* \"LaunchpadFactory/LaunchpadFactory_flattened.sol\":40105:40114  msg.value */\n      callvalue\n        /* \"LaunchpadFactory/LaunchpadFactory_flattened.sol\":40105:40125  msg.value >= flatFee */\n      lt\n      iszero\n        /* \"LaunchpadFactory/LaunchpadFactory_flattened.sol\":40097:40162  require(msg.value >= flatFee, \"LauchpadFactory: Not enough fee!\") */\n      tag_131\n      jumpi\n      mload(0x40)\n      shl(0xe5, 0x461bcd)\n      dup2\n      mstore\n        /* \"#utility.yul\":11666:11668   */\n      0x20\n        /* \"LaunchpadFactory/LaunchpadFactory_flattened.sol\":40097:40162  require(msg.value >= flatFee, \"LauchpadFactory: Not enough fee!\") */\n      0x04\n      dup3\n      add\n        /* \"#utility.yul\":11648:11669   */\n      dup2\n      swap1\n      mstore\n        /* \"#utility.yul\":11685:11703   */\n      0x24\n      dup3\n      add\n        /* \"#utility.yul\":11678:11708   */\n      mstore\n        /* \"#utility.yul\":11744:11778   */\n      0x4c61756368706164466163746f72793a204e6f7420656e6f7567682066656521\n        /* \"#utility.yul\":11724:11742   */\n      0x44\n      dup3\n      add\n        /* \"#utility.yul\":11717:11779   */\n      mstore\n        /* \"#utility.yul\":11796:11814   */\n      0x64\n      add\n        /* \"LaunchpadFactory/LaunchpadFactory_flattened.sol\":40097:40162  require(msg.value >= flatFee, \"LauchpadFactory: Not enough fee!\") */\n      tag_129\n        /* \"#utility.yul\":11464:11820   */\n      jump\n        /* \"LaunchpadFactory/LaunchpadFactory_flattened.sol\":40097:40162  require(msg.value >= flatFee, \"LauchpadFactory: Not enough fee!\") */\n    tag_131:\n        /* \"LaunchpadFactory/LaunchpadFactory_flattened.sol\":40309:40362  LaunchpadStructs.SettingAccount memory settingAccount */\n      0x00\n        /* \"LaunchpadFactory/LaunchpadFactory_flattened.sol\":40365:40577  LaunchpadStructs... */\n      mload(0x40)\n      dup1\n      0x80\n      add\n      0x40\n      mstore\n      dup1\n        /* \"LaunchpadFactory/LaunchpadFactory_flattened.sol\":40427:40439  _msgSender() */\n      tag_134\n        /* \"LaunchpadFactory/LaunchpadFactory_flattened.sol\":32436:32446  msg.sender */\n      caller\n      swap1\n        /* \"LaunchpadFactory/LaunchpadFactory_flattened.sol\":32357:32453  function _msgSender() internal view virtual returns (address) {... */\n      jump\n        /* \"LaunchpadFactory/LaunchpadFactory_flattened.sol\":40427:40439  _msgSender() */\n    tag_134:\n      sub(shl(0xa0, 0x01), 0x01)\n        /* \"LaunchpadFactory/LaunchpadFactory_flattened.sol\":40365:40577  LaunchpadStructs... */\n      swap1\n      dup2\n      and\n      dup3\n      mstore\n        /* \"LaunchpadFactory/LaunchpadFactory_flattened.sol\":40484:40496  superAccount */\n      sload(0x03)\n      dup2\n      and\n        /* \"LaunchpadFactory/LaunchpadFactory_flattened.sol\":40365:40577  LaunchpadStructs... */\n      0x20\n      dup1\n      dup5\n      add\n      swap2\n      swap1\n      swap2\n      mstore\n        /* \"LaunchpadFactory/LaunchpadFactory_flattened.sol\":40522:40533  fundAddress */\n      sload(0x05)\n      dup3\n      and\n        /* \"LaunchpadFactory/LaunchpadFactory_flattened.sol\":40365:40577  LaunchpadStructs... */\n      0x40\n      dup5\n      add\n      mstore\n        /* \"LaunchpadFactory/LaunchpadFactory_flattened.sol\":40552:40563  virtualLock */\n      sload(0x04)\n      dup3\n      and\n        /* \"LaunchpadFactory/LaunchpadFactory_flattened.sol\":40365:40577  LaunchpadStructs... */\n      0x60\n      swap1\n      swap4\n      add\n      swap3\n      swap1\n      swap3\n      mstore\n        /* \"LaunchpadFactory/LaunchpadFactory_flattened.sol\":40627:40640  info.icoToken */\n      dup9\n      mload\n        /* \"LaunchpadFactory/LaunchpadFactory_flattened.sol\":40694:40707  info.feeToken */\n      swap2\n      dup10\n      add\n      mload\n        /* \"LaunchpadFactory/LaunchpadFactory_flattened.sol\":40309:40577  LaunchpadStructs.SettingAccount memory settingAccount = LaunchpadStructs... */\n      swap3\n      swap4\n      pop\n        /* \"LaunchpadFactory/LaunchpadFactory_flattened.sol\":40627:40640  info.icoToken */\n      swap1\n      swap2\n        /* \"LaunchpadFactory/LaunchpadFactory_flattened.sol\":40678:40680  18 */\n      0x12\n      swap2\n        /* \"LaunchpadFactory/LaunchpadFactory_flattened.sol\":40694:40721  info.feeToken != address(0) */\n      and\n      iszero\n        /* \"LaunchpadFactory/LaunchpadFactory_flattened.sol\":40690:40806  if (info.feeToken != address(0)) {... */\n      tag_136\n      jumpi\n        /* \"LaunchpadFactory/LaunchpadFactory_flattened.sol\":40770:40774  info */\n      dup8\n        /* \"LaunchpadFactory/LaunchpadFactory_flattened.sol\":40770:40783  info.feeToken */\n      0x20\n      add\n      mload\n      sub(shl(0xa0, 0x01), 0x01)\n        /* \"LaunchpadFactory/LaunchpadFactory_flattened.sol\":40756:40793  IVirtualERC20(info.feeToken).decimals */\n      and\n      0x313ce567\n        /* \"LaunchpadFactory/LaunchpadFactory_flattened.sol\":40756:40795  IVirtualERC20(info.feeToken).decimals() */\n      mload(0x40)\n      dup2\n      0xffffffff\n      and\n      0xe0\n      shl\n      dup2\n      mstore\n      0x04\n      add\n      0x20\n      mload(0x40)\n      dup1\n      dup4\n      sub\n      dup2\n      dup7\n      gas\n      staticcall\n      iszero\n      dup1\n      iszero\n      tag_138\n      jumpi\n      returndatasize\n      0x00\n      dup1\n      returndatacopy\n      revert(0x00, returndatasize)\n    tag_138:\n      pop\n      pop\n      pop\n      pop\n      mload(0x40)\n      returndatasize\n      not(0x1f)\n      0x1f\n      dup3\n      add\n      and\n      dup3\n      add\n      dup1\n      0x40\n      mstore\n      pop\n      dup2\n      add\n      swap1\n      tag_139\n      swap2\n      swap1\n      tag_140\n      jump\t// in\n    tag_139:\n        /* \"LaunchpadFactory/LaunchpadFactory_flattened.sol\":40737:40795  feeTokenDecimals = IVirtualERC20(info.feeToken).decimals() */\n      0xff\n      and\n      swap1\n      pop\n        /* \"LaunchpadFactory/LaunchpadFactory_flattened.sol\":40690:40806  if (info.feeToken != address(0)) {... */\n    tag_136:\n        /* \"LaunchpadFactory/LaunchpadFactory_flattened.sol\":40868:41193  LaunchpadStructs... */\n      0x40\n      dup1\n      mload\n      0xe0\n      dup2\n      add\n      dup3\n      mstore\n        /* \"LaunchpadFactory/LaunchpadFactory_flattened.sol\":40935:40948  info.feeToken */\n      0x20\n      dup1\n      dup12\n      add\n      mload\n      sub(shl(0xa0, 0x01), 0x01)\n        /* \"LaunchpadFactory/LaunchpadFactory_flattened.sol\":40868:41193  LaunchpadStructs... */\n      and\n      dup3\n      mstore\n        /* \"LaunchpadFactory/LaunchpadFactory_flattened.sol\":40966:40982  info.presaleRate */\n      0x80\n      dup1\n      dup13\n      add\n      mload\n        /* \"LaunchpadFactory/LaunchpadFactory_flattened.sol\":40868:41193  LaunchpadStructs... */\n      dup3\n      dup5\n      add\n      mstore\n      0x60\n        /* \"LaunchpadFactory/LaunchpadFactory_flattened.sol\":41000:41012  info.hardCap */\n      dup1\n      dup14\n      add\n      mload\n        /* \"LaunchpadFactory/LaunchpadFactory_flattened.sol\":40868:41193  LaunchpadStructs... */\n      swap5\n      dup5\n      add\n      swap5\n      swap1\n      swap5\n      mstore\n        /* \"LaunchpadFactory/LaunchpadFactory_flattened.sol\":41030:41059  feeInfo.raisedTokenFeePercent */\n      swap1\n      dup9\n      add\n      mload\n        /* \"LaunchpadFactory/LaunchpadFactory_flattened.sol\":40868:41193  LaunchpadStructs... */\n      dup4\n      dup4\n      add\n      mstore\n        /* \"LaunchpadFactory/LaunchpadFactory_flattened.sol\":41077:41101  feeInfo.raisedFeePercent */\n      dup8\n      mload\n        /* \"LaunchpadFactory/LaunchpadFactory_flattened.sol\":40868:41193  LaunchpadStructs... */\n      dup2\n      dup4\n      add\n      mstore\n        /* \"LaunchpadFactory/LaunchpadFactory_flattened.sol\":41119:41141  dexInfo.listingPercent */\n      dup9\n      add\n      mload\n        /* \"LaunchpadFactory/LaunchpadFactory_flattened.sol\":40868:41193  LaunchpadStructs... */\n      0xa0\n      dup3\n      add\n      mstore\n        /* \"LaunchpadFactory/LaunchpadFactory_flattened.sol\":41159:41179  dexInfo.listingPrice */\n      swap1\n      dup8\n      add\n      mload\n        /* \"LaunchpadFactory/LaunchpadFactory_flattened.sol\":40868:41193  LaunchpadStructs... */\n      0xc0\n      dup3\n      add\n      mstore\n        /* \"LaunchpadFactory/LaunchpadFactory_flattened.sol\":40816:40865  LaunchpadStructs.CalculateTokenInput memory input */\n      0x00\n      dup1\n        /* \"LaunchpadFactory/LaunchpadFactory_flattened.sol\":41280:41302  calculateTokens(input) */\n      tag_141\n        /* \"LaunchpadFactory/LaunchpadFactory_flattened.sol\":40868:41193  LaunchpadStructs... */\n      dup4\n        /* \"LaunchpadFactory/LaunchpadFactory_flattened.sol\":41280:41295  calculateTokens */\n      tag_98\n        /* \"LaunchpadFactory/LaunchpadFactory_flattened.sol\":41280:41302  calculateTokens(input) */\n      jump\t// in\n    tag_141:\n        /* \"LaunchpadFactory/LaunchpadFactory_flattened.sol\":41378:41392  implementation */\n      sload(0x06)\n        /* \"LaunchpadFactory/LaunchpadFactory_flattened.sol\":41257:41302  (totalTokens, maxLP) = calculateTokens(input) */\n      swap2\n      swap4\n      pop\n      swap2\n      pop\n        /* \"LaunchpadFactory/LaunchpadFactory_flattened.sol\":41345:41362  address launchpad */\n      0x00\n      swap1\n        /* \"LaunchpadFactory/LaunchpadFactory_flattened.sol\":41365:41393  Clones.clone(implementation) */\n      tag_142\n      swap1\n      sub(shl(0xa0, 0x01), 0x01)\n        /* \"LaunchpadFactory/LaunchpadFactory_flattened.sol\":41378:41392  implementation */\n      and\n        /* \"LaunchpadFactory/LaunchpadFactory_flattened.sol\":41365:41377  Clones.clone */\n      tag_143\n        /* \"LaunchpadFactory/LaunchpadFactory_flattened.sol\":41365:41393  Clones.clone(implementation) */\n      jump\t// in\n    tag_142:\n        /* \"LaunchpadFactory/LaunchpadFactory_flattened.sol\":41345:41393  address launchpad = Clones.clone(implementation) */\n      swap1\n      pop\n        /* \"LaunchpadFactory/LaunchpadFactory_flattened.sol\":41462:41471  launchpad */\n      dup1\n      sub(shl(0xa0, 0x01), 0x01)\n        /* \"LaunchpadFactory/LaunchpadFactory_flattened.sol\":41451:41483  ILaunchpad(launchpad).initialize */\n      and\n      0x57801e6f\n        /* \"LaunchpadFactory/LaunchpadFactory_flattened.sol\":41497:41501  info */\n      dup14\n        /* \"LaunchpadFactory/LaunchpadFactory_flattened.sol\":41515:41524  claimInfo */\n      dup14\n        /* \"LaunchpadFactory/LaunchpadFactory_flattened.sol\":41570:41577  dexInfo */\n      dup14\n        /* \"LaunchpadFactory/LaunchpadFactory_flattened.sol\":41591:41598  feeInfo */\n      dup14\n        /* \"LaunchpadFactory/LaunchpadFactory_flattened.sol\":41612:41626  settingAccount */\n      dup13\n        /* \"LaunchpadFactory/LaunchpadFactory_flattened.sol\":41640:41651  socialLinks */\n      dup15\n        /* \"LaunchpadFactory/LaunchpadFactory_flattened.sol\":41665:41670  maxLP */\n      dup10\n        /* \"LaunchpadFactory/LaunchpadFactory_flattened.sol\":41684:41701  penaltyFeePercent */\n      sload(0x02)\n        /* \"LaunchpadFactory/LaunchpadFactory_flattened.sol\":41451:41711  ILaunchpad(launchpad).initialize(... */\n      mload(0x40)\n      dup10\n      0xffffffff\n      and\n      0xe0\n      shl\n      dup2\n      mstore\n      0x04\n      add\n      tag_144\n      swap9\n      swap8\n      swap7\n      swap6\n      swap5\n      swap4\n      swap3\n      swap2\n      swap1\n      tag_145\n      jump\t// in\n    tag_144:\n      0x00\n      mload(0x40)\n      dup1\n      dup4\n      sub\n      dup2\n      0x00\n      dup8\n      dup1\n      extcodesize\n      iszero\n      dup1\n      iszero\n      tag_146\n      jumpi\n      0x00\n      dup1\n      revert\n    tag_146:\n      pop\n      gas\n      call\n      iszero\n      dup1\n      iszero\n      tag_148\n      jumpi\n      returndatasize\n      0x00\n      dup1\n      returndatacopy\n      revert(0x00, returndatasize)\n    tag_148:\n      pop\n      pop\n      pop\n      pop\n        /* \"LaunchpadFactory/LaunchpadFactory_flattened.sol\":41865:41866  0 */\n      0x00\n        /* \"LaunchpadFactory/LaunchpadFactory_flattened.sol\":41853:41862  msg.value */\n      callvalue\n        /* \"LaunchpadFactory/LaunchpadFactory_flattened.sol\":41853:41866  msg.value > 0 */\n      gt\n        /* \"LaunchpadFactory/LaunchpadFactory_flattened.sol\":41849:41933  if (msg.value > 0) {... */\n      iszero\n      tag_149\n      jumpi\n        /* \"LaunchpadFactory/LaunchpadFactory_flattened.sol\":41890:41901  fundAddress */\n      sload(0x05)\n        /* \"LaunchpadFactory/LaunchpadFactory_flattened.sol\":41882:41922  payable(fundAddress).transfer(msg.value) */\n      mload(0x40)\n      sub(shl(0xa0, 0x01), 0x01)\n        /* \"LaunchpadFactory/LaunchpadFactory_flattened.sol\":41890:41901  fundAddress */\n      swap1\n      swap2\n      and\n      swap1\n        /* \"LaunchpadFactory/LaunchpadFactory_flattened.sol\":41912:41921  msg.value */\n      callvalue\n        /* \"LaunchpadFactory/LaunchpadFactory_flattened.sol\":41882:41922  payable(fundAddress).transfer(msg.value) */\n      dup1\n      iszero\n      0x08fc\n      mul\n      swap2\n        /* \"LaunchpadFactory/LaunchpadFactory_flattened.sol\":41890:41901  fundAddress */\n      0x00\n        /* \"LaunchpadFactory/LaunchpadFactory_flattened.sol\":41882:41922  payable(fundAddress).transfer(msg.value) */\n      dup2\n        /* \"LaunchpadFactory/LaunchpadFactory_flattened.sol\":41890:41901  fundAddress */\n      dup2\n        /* \"LaunchpadFactory/LaunchpadFactory_flattened.sol\":41882:41922  payable(fundAddress).transfer(msg.value) */\n      dup2\n        /* \"LaunchpadFactory/LaunchpadFactory_flattened.sol\":41912:41921  msg.value */\n      dup6\n        /* \"LaunchpadFactory/LaunchpadFactory_flattened.sol\":41890:41901  fundAddress */\n      dup9\n        /* \"LaunchpadFactory/LaunchpadFactory_flattened.sol\":41882:41922  payable(fundAddress).transfer(msg.value) */\n      dup9\n      call\n      swap4\n      pop\n      pop\n      pop\n      pop\n      iszero\n      dup1\n      iszero\n      tag_151\n      jumpi\n      returndatasize\n      0x00\n      dup1\n      returndatacopy\n      revert(0x00, returndatasize)\n    tag_151:\n      pop\n        /* \"LaunchpadFactory/LaunchpadFactory_flattened.sol\":41849:41933  if (msg.value > 0) {... */\n    tag_149:\n        /* \"LaunchpadFactory/LaunchpadFactory_flattened.sol\":41947:41962  totalTokens > 0 */\n      dup3\n      iszero\n        /* \"LaunchpadFactory/LaunchpadFactory_flattened.sol\":41943:42647  if (totalTokens > 0) {... */\n      tag_152\n      jumpi\n        /* \"LaunchpadFactory/LaunchpadFactory_flattened.sol\":42008:42021  info.icoToken */\n      dup12\n      mload\n        /* \"LaunchpadFactory/LaunchpadFactory_flattened.sol\":42103:42114  totalTokens */\n      dup4\n      sub(shl(0xa0, 0x01), 0x01)\n        /* \"LaunchpadFactory/LaunchpadFactory_flattened.sol\":42062:42085  icoTokenErc20.balanceOf */\n      dup3\n      and\n      0x70a08231\n        /* \"LaunchpadFactory/LaunchpadFactory_flattened.sol\":32436:32446  msg.sender */\n      caller\n        /* \"LaunchpadFactory/LaunchpadFactory_flattened.sol\":42062:42099  icoTokenErc20.balanceOf(_msgSender()) */\n      mload(0x40)\n      not(sub(shl(0xe0, 0x01), 0x01))\n      0xe0\n      dup5\n      swap1\n      shl\n      and\n      dup2\n      mstore\n      sub(shl(0xa0, 0x01), 0x01)\n        /* \"#utility.yul\":7911:7943   */\n      swap1\n      swap2\n      and\n        /* \"LaunchpadFactory/LaunchpadFactory_flattened.sol\":42062:42099  icoTokenErc20.balanceOf(_msgSender()) */\n      0x04\n      dup3\n      add\n        /* \"#utility.yul\":7893:7944   */\n      mstore\n        /* \"#utility.yul\":7866:7884   */\n      0x24\n      add\n        /* \"LaunchpadFactory/LaunchpadFactory_flattened.sol\":42062:42099  icoTokenErc20.balanceOf(_msgSender()) */\n      0x20\n      mload(0x40)\n      dup1\n      dup4\n      sub\n      dup2\n      dup7\n      gas\n      staticcall\n      iszero\n      dup1\n      iszero\n      tag_156\n      jumpi\n      returndatasize\n      0x00\n      dup1\n      returndatacopy\n      revert(0x00, returndatasize)\n    tag_156:\n      pop\n      pop\n      pop\n      pop\n      mload(0x40)\n      returndatasize\n      not(0x1f)\n      0x1f\n      dup3\n      add\n      and\n      dup3\n      add\n      dup1\n      0x40\n      mstore\n      pop\n      dup2\n      add\n      swap1\n      tag_157\n      swap2\n      swap1\n      tag_158\n      jump\t// in\n    tag_157:\n        /* \"LaunchpadFactory/LaunchpadFactory_flattened.sol\":42062:42114  icoTokenErc20.balanceOf(_msgSender()) >= totalTokens */\n      lt\n      iszero\n        /* \"LaunchpadFactory/LaunchpadFactory_flattened.sol\":42037:42185  require(... */\n      tag_159\n      jumpi\n      mload(0x40)\n      shl(0xe5, 0x461bcd)\n      dup2\n      mstore\n        /* \"#utility.yul\":17807:17809   */\n      0x20\n        /* \"LaunchpadFactory/LaunchpadFactory_flattened.sol\":42037:42185  require(... */\n      0x04\n      dup3\n      add\n        /* \"#utility.yul\":17789:17810   */\n      mstore\n        /* \"#utility.yul\":17846:17848   */\n      0x25\n        /* \"#utility.yul\":17826:17844   */\n      0x24\n      dup3\n      add\n        /* \"#utility.yul\":17819:17849   */\n      mstore\n        /* \"#utility.yul\":17885:17919   */\n      0x4c61756368706164466163746f72793a20496e73756666696369656e74204261\n        /* \"#utility.yul\":17865:17883   */\n      0x44\n      dup3\n      add\n        /* \"#utility.yul\":17858:17920   */\n      mstore\n      shl(0xd8, 0x6c616e6365)\n        /* \"#utility.yul\":17936:17954   */\n      0x64\n      dup3\n      add\n        /* \"#utility.yul\":17929:17964   */\n      mstore\n        /* \"#utility.yul\":17981:18000   */\n      0x84\n      add\n        /* \"LaunchpadFactory/LaunchpadFactory_flattened.sol\":42037:42185  require(... */\n      tag_129\n        /* \"#utility.yul\":17605:18006   */\n      jump\n        /* \"LaunchpadFactory/LaunchpadFactory_flattened.sol\":42037:42185  require(... */\n    tag_159:\n        /* \"LaunchpadFactory/LaunchpadFactory_flattened.sol\":42300:42311  totalTokens */\n      dup4\n      sub(shl(0xa0, 0x01), 0x01)\n        /* \"LaunchpadFactory/LaunchpadFactory_flattened.sol\":42224:42247  icoTokenErc20.allowance */\n      dup3\n      and\n      0xdd62ed3e\n        /* \"LaunchpadFactory/LaunchpadFactory_flattened.sol\":32436:32446  msg.sender */\n      caller\n        /* \"LaunchpadFactory/LaunchpadFactory_flattened.sol\":42224:42276  icoTokenErc20.allowance(_msgSender(), address(this)) */\n      mload(0x40)\n      not(sub(shl(0xe0, 0x01), 0x01))\n      0xe0\n      dup5\n      swap1\n      shl\n      and\n      dup2\n      mstore\n      sub(shl(0xa0, 0x01), 0x01)\n        /* \"#utility.yul\":18241:18256   */\n      swap1\n      swap2\n      and\n        /* \"LaunchpadFactory/LaunchpadFactory_flattened.sol\":42224:42276  icoTokenErc20.allowance(_msgSender(), address(this)) */\n      0x04\n      dup3\n      add\n        /* \"#utility.yul\":18223:18257   */\n      mstore\n        /* \"LaunchpadFactory/LaunchpadFactory_flattened.sol\":42270:42274  this */\n      address\n        /* \"#utility.yul\":18273:18291   */\n      0x24\n      dup3\n      add\n        /* \"#utility.yul\":18266:18309   */\n      mstore\n        /* \"#utility.yul\":18158:18176   */\n      0x44\n      add\n        /* \"LaunchpadFactory/LaunchpadFactory_flattened.sol\":42224:42276  icoTokenErc20.allowance(_msgSender(), address(this)) */\n      0x20\n      mload(0x40)\n      dup1\n      dup4\n      sub\n      dup2\n      dup7\n      gas\n      staticcall\n      iszero\n      dup1\n      iszero\n      tag_166\n      jumpi\n      returndatasize\n      0x00\n      dup1\n      returndatacopy\n      revert(0x00, returndatasize)\n    tag_166:\n      pop\n      pop\n      pop\n      pop\n      mload(0x40)\n      returndatasize\n      not(0x1f)\n      0x1f\n      dup3\n      add\n      and\n      dup3\n      add\n      dup1\n      0x40\n      mstore\n      pop\n      dup2\n      add\n      swap1\n      tag_167\n      swap2\n      swap1\n      tag_158\n      jump\t// in\n    tag_167:\n        /* \"LaunchpadFactory/LaunchpadFactory_flattened.sol\":42224:42311  icoTokenErc20.allowance(_msgSender(), address(this)) >=... */\n      lt\n      iszero\n        /* \"LaunchpadFactory/LaunchpadFactory_flattened.sol\":42199:42384  require(... */\n      tag_168\n      jumpi\n      mload(0x40)\n      shl(0xe5, 0x461bcd)\n      dup2\n      mstore\n        /* \"#utility.yul\":18522:18524   */\n      0x20\n        /* \"LaunchpadFactory/LaunchpadFactory_flattened.sol\":42199:42384  require(... */\n      0x04\n      dup3\n      add\n        /* \"#utility.yul\":18504:18525   */\n      mstore\n        /* \"#utility.yul\":18561:18563   */\n      0x27\n        /* \"#utility.yul\":18541:18559   */\n      0x24\n      dup3\n      add\n        /* \"#utility.yul\":18534:18564   */\n      mstore\n        /* \"#utility.yul\":18600:18634   */\n      0x4c61756368706164466163746f72793a20496e73756666696369656e7420416c\n        /* \"#utility.yul\":18580:18598   */\n      0x44\n      dup3\n      add\n        /* \"#utility.yul\":18573:18635   */\n      mstore\n      shl(0xc8, 0x6c6f77616e6365)\n        /* \"#utility.yul\":18651:18669   */\n      0x64\n      dup3\n      add\n        /* \"#utility.yul\":18644:18681   */\n      mstore\n        /* \"#utility.yul\":18698:18717   */\n      0x84\n      add\n        /* \"LaunchpadFactory/LaunchpadFactory_flattened.sol\":42199:42384  require(... */\n      tag_129\n        /* \"#utility.yul\":18320:18723   */\n      jump\n        /* \"LaunchpadFactory/LaunchpadFactory_flattened.sol\":42199:42384  require(... */\n    tag_168:\n      sub(shl(0xa0, 0x01), 0x01)\n        /* \"LaunchpadFactory/LaunchpadFactory_flattened.sol\":42424:42445  icoToken.transferFrom */\n      dup8\n      and\n      0x23b872dd\n        /* \"LaunchpadFactory/LaunchpadFactory_flattened.sol\":32436:32446  msg.sender */\n      caller\n        /* \"LaunchpadFactory/LaunchpadFactory_flattened.sol\":42424:42570  icoToken.transferFrom(... */\n      mload(0x40)\n      not(sub(shl(0xe0, 0x01), 0x01))\n      0xe0\n      dup5\n      swap1\n      shl\n      and\n      dup2\n      mstore\n      sub(shl(0xa0, 0x01), 0x01)\n        /* \"#utility.yul\":18986:19001   */\n      swap2\n      dup3\n      and\n        /* \"LaunchpadFactory/LaunchpadFactory_flattened.sol\":42424:42570  icoToken.transferFrom(... */\n      0x04\n      dup3\n      add\n        /* \"#utility.yul\":18968:19002   */\n      mstore\n        /* \"#utility.yul\":19038:19053   */\n      swap1\n      dup6\n      and\n        /* \"#utility.yul\":19018:19036   */\n      0x24\n      dup3\n      add\n        /* \"#utility.yul\":19011:19054   */\n      mstore\n        /* \"#utility.yul\":19070:19088   */\n      0x44\n      dup2\n      add\n        /* \"#utility.yul\":19063:19097   */\n      dup8\n      swap1\n      mstore\n        /* \"#utility.yul\":18903:18921   */\n      0x64\n      add\n        /* \"LaunchpadFactory/LaunchpadFactory_flattened.sol\":42424:42570  icoToken.transferFrom(... */\n      0x20\n      mload(0x40)\n      dup1\n      dup4\n      sub\n      dup2\n      0x00\n      dup8\n      gas\n      call\n      iszero\n      dup1\n      iszero\n      tag_175\n      jumpi\n      returndatasize\n      0x00\n      dup1\n      returndatacopy\n      revert(0x00, returndatasize)\n    tag_175:\n      pop\n      pop\n      pop\n      pop\n      mload(0x40)\n      returndatasize\n      not(0x1f)\n      0x1f\n      dup3\n      add\n      and\n      dup3\n      add\n      dup1\n      0x40\n      mstore\n      pop\n      dup2\n      add\n      swap1\n      tag_176\n      swap2\n      swap1\n      tag_177\n      jump\t// in\n    tag_176:\n        /* \"LaunchpadFactory/LaunchpadFactory_flattened.sol\":42399:42636  require(... */\n      tag_178\n      jumpi\n      mload(0x40)\n      shl(0xe5, 0x461bcd)\n      dup2\n      mstore\n        /* \"#utility.yul\":19560:19562   */\n      0x20\n        /* \"LaunchpadFactory/LaunchpadFactory_flattened.sol\":42399:42636  require(... */\n      0x04\n      dup3\n      add\n        /* \"#utility.yul\":19542:19563   */\n      dup2\n      swap1\n      mstore\n        /* \"#utility.yul\":19579:19597   */\n      0x24\n      dup3\n      add\n        /* \"#utility.yul\":19572:19602   */\n      mstore\n        /* \"#utility.yul\":19638:19672   */\n      0x4c61756368706164466163746f72793a207472616e73666572206661696c6564\n        /* \"#utility.yul\":19618:19636   */\n      0x44\n      dup3\n      add\n        /* \"#utility.yul\":19611:19673   */\n      mstore\n        /* \"#utility.yul\":19690:19708   */\n      0x64\n      add\n        /* \"LaunchpadFactory/LaunchpadFactory_flattened.sol\":42399:42636  require(... */\n      tag_129\n        /* \"#utility.yul\":19358:19714   */\n      jump\n        /* \"LaunchpadFactory/LaunchpadFactory_flattened.sol\":42399:42636  require(... */\n    tag_178:\n        /* \"LaunchpadFactory/LaunchpadFactory_flattened.sol\":41964:42647  {... */\n      pop\n        /* \"LaunchpadFactory/LaunchpadFactory_flattened.sol\":41943:42647  if (totalTokens > 0) {... */\n    tag_152:\n        /* \"LaunchpadFactory/LaunchpadFactory_flattened.sol\":42657:42670  allLaunchpads */\n      0x07\n        /* \"LaunchpadFactory/LaunchpadFactory_flattened.sol\":42657:42698  allLaunchpads.push(ILaunchpad(launchpad)) */\n      dup1\n      sload\n      0x01\n      dup2\n      dup2\n      add\n      swap1\n      swap3\n      sstore\n      0xa66cc928b5edb82af9bd49922954155ab7b0942694bea4ce44661d9a8736c688\n      add\n      dup1\n      sload\n      sub(shl(0xa0, 0x01), 0x01)\n      dup5\n      and\n      not(sub(shl(0xa0, 0x01), 0x01))\n      swap2\n      dup3\n      and\n      dup2\n      or\n      swap1\n      swap3\n      sstore\n        /* \"LaunchpadFactory/LaunchpadFactory_flattened.sol\":42725:42735  msg.sender */\n      caller\n      0x00\n        /* \"LaunchpadFactory/LaunchpadFactory_flattened.sol\":42709:42736  allLaunchpadsOf[msg.sender] */\n      swap1\n      dup2\n      mstore\n        /* \"LaunchpadFactory/LaunchpadFactory_flattened.sol\":42709:42724  allLaunchpadsOf */\n      0x08\n        /* \"LaunchpadFactory/LaunchpadFactory_flattened.sol\":42657:42698  allLaunchpads.push(ILaunchpad(launchpad)) */\n      0x20\n        /* \"LaunchpadFactory/LaunchpadFactory_flattened.sol\":42709:42736  allLaunchpadsOf[msg.sender] */\n      swap1\n      dup2\n      mstore\n      0x40\n      dup1\n      dup4\n      keccak256\n        /* \"LaunchpadFactory/LaunchpadFactory_flattened.sol\":42709:42764  allLaunchpadsOf[msg.sender].push(ILaunchpad(launchpad)) */\n      dup1\n      sload\n      swap7\n      dup8\n      add\n      dup2\n      sstore\n      dup4\n      mstore\n      swap1\n      dup3\n      keccak256\n      swap1\n      swap5\n      add\n      dup1\n      sload\n      swap1\n      swap3\n      and\n      dup4\n      or\n      swap1\n      swap2\n      sstore\n        /* \"LaunchpadFactory/LaunchpadFactory_flattened.sol\":42781:42813  NewLaunchpad(address(launchpad)) */\n      swap2\n      mload\n        /* \"LaunchpadFactory/LaunchpadFactory_flattened.sol\":42657:42698  allLaunchpads.push(ILaunchpad(launchpad)) */\n      swap1\n      swap2\n        /* \"LaunchpadFactory/LaunchpadFactory_flattened.sol\":42781:42813  NewLaunchpad(address(launchpad)) */\n      0xda2d0d8f4060e08dd20f6fb6ad959f9920958220cc60733db44068db43a02601\n      swap2\n      log2\n        /* \"LaunchpadFactory/LaunchpadFactory_flattened.sol\":39870:42820  {... */\n      pop\n      pop\n      pop\n      pop\n      pop\n      pop\n      pop\n        /* \"LaunchpadFactory/LaunchpadFactory_flattened.sol\":39492:42820  function deployLaunchpad(... */\n      pop\n      pop\n      pop\n      pop\n      pop\n      jump\t// out\n        /* \"LaunchpadFactory/LaunchpadFactory_flattened.sol\":37638:37799  function setPenalyFeePercent(uint256 _penaltyFeePercent) public onlyOwner {... */\n    tag_38:\n        /* \"LaunchpadFactory/LaunchpadFactory_flattened.sol\":33647:33660  _checkOwner() */\n      tag_184\n        /* \"LaunchpadFactory/LaunchpadFactory_flattened.sol\":33647:33658  _checkOwner */\n      tag_124\n        /* \"LaunchpadFactory/LaunchpadFactory_flattened.sol\":33647:33660  _checkOwner() */\n      jump\t// in\n    tag_184:\n        /* \"LaunchpadFactory/LaunchpadFactory_flattened.sol\":37742:37768  (_penaltyFeePercent) * 100 */\n      tag_186\n        /* \"LaunchpadFactory/LaunchpadFactory_flattened.sol\":37743:37761  _penaltyFeePercent */\n      dup2\n        /* \"LaunchpadFactory/LaunchpadFactory_flattened.sol\":37765:37768  100 */\n      0x64\n        /* \"LaunchpadFactory/LaunchpadFactory_flattened.sol\":37742:37768  (_penaltyFeePercent) * 100 */\n      tag_187\n      jump\t// in\n    tag_186:\n        /* \"LaunchpadFactory/LaunchpadFactory_flattened.sol\":37722:37739  penaltyFeePercent */\n      0x02\n        /* \"LaunchpadFactory/LaunchpadFactory_flattened.sol\":37722:37768  penaltyFeePercent = (_penaltyFeePercent) * 100 */\n      sstore\n      pop\n        /* \"LaunchpadFactory/LaunchpadFactory_flattened.sol\":37638:37799  function setPenalyFeePercent(uint256 _penaltyFeePercent) public onlyOwner {... */\n      jump\t// out\n        /* \"LaunchpadFactory/LaunchpadFactory_flattened.sol\":35940:35973  ILaunchpad[] public allLaunchpads */\n    tag_42:\n      0x07\n      dup2\n      dup2\n      sload\n      dup2\n      lt\n      tag_188\n      jumpi\n      0x00\n      dup1\n      revert\n    tag_188:\n      0x00\n      swap2\n      dup3\n      mstore\n      0x20\n      swap1\n      swap2\n      keccak256\n      add\n      sload\n      sub(shl(0xa0, 0x01), 0x01)\n      and\n      swap1\n      pop\n      dup2\n      jump\t// out\n        /* \"LaunchpadFactory/LaunchpadFactory_flattened.sol\":37310:37416  function setVirtualLock(address _virtualLock) public onlyOwner {... */\n    tag_54:\n        /* \"LaunchpadFactory/LaunchpadFactory_flattened.sol\":33647:33660  _checkOwner() */\n      tag_191\n        /* \"LaunchpadFactory/LaunchpadFactory_flattened.sol\":33647:33658  _checkOwner */\n      tag_124\n        /* \"LaunchpadFactory/LaunchpadFactory_flattened.sol\":33647:33660  _checkOwner() */\n      jump\t// in\n    tag_191:\n        /* \"LaunchpadFactory/LaunchpadFactory_flattened.sol\":37383:37394  virtualLock */\n      0x04\n        /* \"LaunchpadFactory/LaunchpadFactory_flattened.sol\":37383:37409  virtualLock = _virtualLock */\n      dup1\n      sload\n      not(sub(shl(0xa0, 0x01), 0x01))\n      and\n      sub(shl(0xa0, 0x01), 0x01)\n      swap3\n      swap1\n      swap3\n      and\n      swap2\n      swap1\n      swap2\n      or\n      swap1\n      sstore\n        /* \"LaunchpadFactory/LaunchpadFactory_flattened.sol\":37310:37416  function setVirtualLock(address _virtualLock) public onlyOwner {... */\n      jump\t// out\n        /* \"LaunchpadFactory/LaunchpadFactory_flattened.sol\":43080:43232  function totalLaunchpadsByUser(address _user) external view returns (ILaunchpad[] memory launchpadsByUser){... */\n    tag_67:\n      sub(shl(0xa0, 0x01), 0x01)\n        /* \"LaunchpadFactory/LaunchpadFactory_flattened.sol\":43203:43225  allLaunchpadsOf[_user] */\n      dup2\n      and\n      0x00\n      swap1\n      dup2\n      mstore\n        /* \"LaunchpadFactory/LaunchpadFactory_flattened.sol\":43203:43218  allLaunchpadsOf */\n      0x08\n        /* \"LaunchpadFactory/LaunchpadFactory_flattened.sol\":43203:43225  allLaunchpadsOf[_user] */\n      0x20\n      swap1\n      dup2\n      mstore\n      0x40\n      swap2\n      dup3\n      swap1\n      keccak256\n        /* \"LaunchpadFactory/LaunchpadFactory_flattened.sol\":43196:43225  return allLaunchpadsOf[_user] */\n      dup1\n      sload\n      dup4\n      mload\n      dup2\n      dup5\n      mul\n      dup2\n      add\n      dup5\n      add\n      swap1\n      swap5\n      mstore\n      dup1\n      dup5\n      mstore\n        /* \"LaunchpadFactory/LaunchpadFactory_flattened.sol\":43149:43185  ILaunchpad[] memory launchpadsByUser */\n      0x60\n      swap4\n        /* \"LaunchpadFactory/LaunchpadFactory_flattened.sol\":43196:43225  return allLaunchpadsOf[_user] */\n      swap3\n      dup4\n      add\n        /* \"LaunchpadFactory/LaunchpadFactory_flattened.sol\":43203:43225  allLaunchpadsOf[_user] */\n      dup3\n        /* \"LaunchpadFactory/LaunchpadFactory_flattened.sol\":43196:43225  return allLaunchpadsOf[_user] */\n      dup3\n      dup1\n      iszero\n      tag_194\n      jumpi\n      0x20\n      mul\n      dup3\n      add\n      swap2\n      swap1\n      0x00\n      mstore\n      keccak256(0x00, 0x20)\n      swap1\n    tag_195:\n      dup2\n      sload\n      sub(shl(0xa0, 0x01), 0x01)\n      and\n      dup2\n      mstore\n      0x01\n      swap1\n      swap2\n      add\n      swap1\n      0x20\n      add\n      dup1\n      dup4\n      gt\n      tag_195\n      jumpi\n    tag_194:\n      pop\n      pop\n      pop\n      pop\n      pop\n      swap1\n      pop\n        /* \"LaunchpadFactory/LaunchpadFactory_flattened.sol\":43080:43232  function totalLaunchpadsByUser(address _user) external view returns (ILaunchpad[] memory launchpadsByUser){... */\n      swap2\n      swap1\n      pop\n      jump\t// out\n        /* \"LaunchpadFactory/LaunchpadFactory_flattened.sol\":34377:34478  function renounceOwnership() public virtual onlyOwner {... */\n    tag_72:\n        /* \"LaunchpadFactory/LaunchpadFactory_flattened.sol\":33647:33660  _checkOwner() */\n      tag_197\n        /* \"LaunchpadFactory/LaunchpadFactory_flattened.sol\":33647:33658  _checkOwner */\n      tag_124\n        /* \"LaunchpadFactory/LaunchpadFactory_flattened.sol\":33647:33660  _checkOwner() */\n      jump\t// in\n    tag_197:\n        /* \"LaunchpadFactory/LaunchpadFactory_flattened.sol\":34441:34471  _transferOwnership(address(0)) */\n      tag_199\n        /* \"LaunchpadFactory/LaunchpadFactory_flattened.sol\":34468:34469  0 */\n      0x00\n        /* \"LaunchpadFactory/LaunchpadFactory_flattened.sol\":34441:34459  _transferOwnership */\n      tag_200\n        /* \"LaunchpadFactory/LaunchpadFactory_flattened.sol\":34441:34471  _transferOwnership(address(0)) */\n      jump\t// in\n    tag_199:\n        /* \"LaunchpadFactory/LaunchpadFactory_flattened.sol\":34377:34478  function renounceOwnership() public virtual onlyOwner {... */\n      jump\t// out\n        /* \"LaunchpadFactory/LaunchpadFactory_flattened.sol\":37422:37536  function setFundAddress(address payable _fundAddress) public onlyOwner {... */\n    tag_77:\n        /* \"LaunchpadFactory/LaunchpadFactory_flattened.sol\":33647:33660  _checkOwner() */\n      tag_202\n        /* \"LaunchpadFactory/LaunchpadFactory_flattened.sol\":33647:33658  _checkOwner */\n      tag_124\n        /* \"LaunchpadFactory/LaunchpadFactory_flattened.sol\":33647:33660  _checkOwner() */\n      jump\t// in\n    tag_202:\n        /* \"LaunchpadFactory/LaunchpadFactory_flattened.sol\":37503:37514  fundAddress */\n      0x05\n        /* \"LaunchpadFactory/LaunchpadFactory_flattened.sol\":37503:37529  fundAddress = _fundAddress */\n      dup1\n      sload\n      not(sub(shl(0xa0, 0x01), 0x01))\n      and\n      sub(shl(0xa0, 0x01), 0x01)\n      swap3\n      swap1\n      swap3\n      and\n      swap2\n      swap1\n      swap2\n      or\n      swap1\n      sstore\n        /* \"LaunchpadFactory/LaunchpadFactory_flattened.sol\":37422:37536  function setFundAddress(address payable _fundAddress) public onlyOwner {... */\n      jump\t// out\n        /* \"LaunchpadFactory/LaunchpadFactory_flattened.sol\":37194:37304  function setSuperAccount(address _superAccount) public onlyOwner {... */\n    tag_81:\n        /* \"LaunchpadFactory/LaunchpadFactory_flattened.sol\":33647:33660  _checkOwner() */\n      tag_205\n        /* \"LaunchpadFactory/LaunchpadFactory_flattened.sol\":33647:33658  _checkOwner */\n      tag_124\n        /* \"LaunchpadFactory/LaunchpadFactory_flattened.sol\":33647:33660  _checkOwner() */\n      jump\t// in\n    tag_205:\n        /* \"LaunchpadFactory/LaunchpadFactory_flattened.sol\":37269:37281  superAccount */\n      0x03\n        /* \"LaunchpadFactory/LaunchpadFactory_flattened.sol\":37269:37297  superAccount = _superAccount */\n      dup1\n      sload\n      not(sub(shl(0xa0, 0x01), 0x01))\n      and\n      sub(shl(0xa0, 0x01), 0x01)\n      swap3\n      swap1\n      swap3\n      and\n      swap2\n      swap1\n      swap2\n      or\n      swap1\n      sstore\n        /* \"LaunchpadFactory/LaunchpadFactory_flattened.sol\":37194:37304  function setSuperAccount(address _superAccount) public onlyOwner {... */\n      jump\t// out\n        /* \"LaunchpadFactory/LaunchpadFactory_flattened.sol\":37805:37924  function setImplementations(address _implementation) public onlyOwner {... */\n    tag_93:\n        /* \"LaunchpadFactory/LaunchpadFactory_flattened.sol\":33647:33660  _checkOwner() */\n      tag_209\n        /* \"LaunchpadFactory/LaunchpadFactory_flattened.sol\":33647:33658  _checkOwner */\n      tag_124\n        /* \"LaunchpadFactory/LaunchpadFactory_flattened.sol\":33647:33660  _checkOwner() */\n      jump\t// in\n    tag_209:\n        /* \"LaunchpadFactory/LaunchpadFactory_flattened.sol\":37885:37899  implementation */\n      0x06\n        /* \"LaunchpadFactory/LaunchpadFactory_flattened.sol\":37885:37917  implementation = _implementation */\n      dup1\n      sload\n      not(sub(shl(0xa0, 0x01), 0x01))\n      and\n      sub(shl(0xa0, 0x01), 0x01)\n      swap3\n      swap1\n      swap3\n      and\n      swap2\n      swap1\n      swap2\n      or\n      swap1\n      sstore\n        /* \"LaunchpadFactory/LaunchpadFactory_flattened.sol\":37805:37924  function setImplementations(address _implementation) public onlyOwner {... */\n      jump\t// out\n        /* \"LaunchpadFactory/LaunchpadFactory_flattened.sol\":38382:39382  function calculateTokens(... */\n    tag_98:\n        /* \"LaunchpadFactory/LaunchpadFactory_flattened.sol\":38564:38578  input.feeToken */\n      dup1\n      mload\n        /* \"LaunchpadFactory/LaunchpadFactory_flattened.sol\":38493:38500  uint256 */\n      0x00\n      swap1\n      dup2\n      swap1\n        /* \"LaunchpadFactory/LaunchpadFactory_flattened.sol\":38548:38550  18 */\n      0x12\n      swap1\n      sub(shl(0xa0, 0x01), 0x01)\n        /* \"LaunchpadFactory/LaunchpadFactory_flattened.sol\":38564:38592  input.feeToken != address(0) */\n      and\n      iszero\n        /* \"LaunchpadFactory/LaunchpadFactory_flattened.sol\":38560:38678  if (input.feeToken != address(0)) {... */\n      tag_212\n      jumpi\n        /* \"LaunchpadFactory/LaunchpadFactory_flattened.sol\":38641:38646  input */\n      dup4\n        /* \"LaunchpadFactory/LaunchpadFactory_flattened.sol\":38641:38655  input.feeToken */\n      0x00\n      add\n      mload\n      sub(shl(0xa0, 0x01), 0x01)\n        /* \"LaunchpadFactory/LaunchpadFactory_flattened.sol\":38627:38665  IVirtualERC20(input.feeToken).decimals */\n      and\n      0x313ce567\n        /* \"LaunchpadFactory/LaunchpadFactory_flattened.sol\":38627:38667  IVirtualERC20(input.feeToken).decimals() */\n      mload(0x40)\n      dup2\n      0xffffffff\n      and\n      0xe0\n      shl\n      dup2\n      mstore\n      0x04\n      add\n      0x20\n      mload(0x40)\n      dup1\n      dup4\n      sub\n      dup2\n      dup7\n      gas\n      staticcall\n      iszero\n      dup1\n      iszero\n      tag_214\n      jumpi\n      returndatasize\n      0x00\n      dup1\n      returndatacopy\n      revert(0x00, returndatasize)\n    tag_214:\n      pop\n      pop\n      pop\n      pop\n      mload(0x40)\n      returndatasize\n      not(0x1f)\n      0x1f\n      dup3\n      add\n      and\n      dup3\n      add\n      dup1\n      0x40\n      mstore\n      pop\n      dup2\n      add\n      swap1\n      tag_215\n      swap2\n      swap1\n      tag_140\n      jump\t// in\n    tag_215:\n        /* \"LaunchpadFactory/LaunchpadFactory_flattened.sol\":38608:38667  feeTokenDecimals = IVirtualERC20(input.feeToken).decimals() */\n      0xff\n      and\n      swap1\n      pop\n        /* \"LaunchpadFactory/LaunchpadFactory_flattened.sol\":38560:38678  if (input.feeToken != address(0)) {... */\n    tag_212:\n        /* \"LaunchpadFactory/LaunchpadFactory_flattened.sol\":38688:38714  uint256 totalPresaleTokens */\n      0x00\n        /* \"LaunchpadFactory/LaunchpadFactory_flattened.sol\":38717:38785  (input.presaleRate.mul((input.hardCap))).div(10 ** feeTokenDecimals) */\n      tag_216\n        /* \"LaunchpadFactory/LaunchpadFactory_flattened.sol\":38762:38784  10 ** feeTokenDecimals */\n      tag_217\n        /* \"LaunchpadFactory/LaunchpadFactory_flattened.sol\":38768:38784  feeTokenDecimals */\n      dup4\n        /* \"LaunchpadFactory/LaunchpadFactory_flattened.sol\":38762:38764  10 */\n      0x0a\n        /* \"LaunchpadFactory/LaunchpadFactory_flattened.sol\":38762:38784  10 ** feeTokenDecimals */\n      tag_218\n      jump\t// in\n    tag_217:\n        /* \"LaunchpadFactory/LaunchpadFactory_flattened.sol\":38741:38754  input.hardCap */\n      0x40\n      dup8\n      add\n      mload\n        /* \"LaunchpadFactory/LaunchpadFactory_flattened.sol\":38718:38735  input.presaleRate */\n      0x20\n      dup9\n      add\n      mload\n        /* \"LaunchpadFactory/LaunchpadFactory_flattened.sol\":38718:38756  input.presaleRate.mul((input.hardCap)) */\n      tag_219\n      swap2\n        /* \"LaunchpadFactory/LaunchpadFactory_flattened.sol\":38718:38739  input.presaleRate.mul */\n      tag_220\n        /* \"LaunchpadFactory/LaunchpadFactory_flattened.sol\":38718:38756  input.presaleRate.mul((input.hardCap)) */\n      jump\t// in\n    tag_219:\n        /* \"LaunchpadFactory/LaunchpadFactory_flattened.sol\":38717:38761  (input.presaleRate.mul((input.hardCap))).div */\n      swap1\n      tag_221\n        /* \"LaunchpadFactory/LaunchpadFactory_flattened.sol\":38717:38785  (input.presaleRate.mul((input.hardCap))).div(10 ** feeTokenDecimals) */\n      jump\t// in\n    tag_216:\n        /* \"LaunchpadFactory/LaunchpadFactory_flattened.sol\":38688:38785  uint256 totalPresaleTokens = (input.presaleRate.mul((input.hardCap))).div(10 ** feeTokenDecimals) */\n      swap1\n      pop\n        /* \"LaunchpadFactory/LaunchpadFactory_flattened.sol\":38796:38818  uint256 totalFeeTokens */\n      0x00\n        /* \"LaunchpadFactory/LaunchpadFactory_flattened.sol\":38821:38884  (totalPresaleTokens.mul(input.raisedTokenFeePercent)).div(ZOOM) */\n      tag_222\n        /* \"LaunchpadFactory/LaunchpadFactory_flattened.sol\":35398:35403  10000 */\n      0x2710\n        /* \"LaunchpadFactory/LaunchpadFactory_flattened.sol\":38822:38873  totalPresaleTokens.mul(input.raisedTokenFeePercent) */\n      tag_219\n        /* \"LaunchpadFactory/LaunchpadFactory_flattened.sol\":38845:38850  input */\n      dup9\n        /* \"LaunchpadFactory/LaunchpadFactory_flattened.sol\":38845:38872  input.raisedTokenFeePercent */\n      0x60\n      add\n      mload\n        /* \"LaunchpadFactory/LaunchpadFactory_flattened.sol\":38822:38840  totalPresaleTokens */\n      dup6\n        /* \"LaunchpadFactory/LaunchpadFactory_flattened.sol\":38822:38844  totalPresaleTokens.mul */\n      tag_220\n      swap1\n        /* \"LaunchpadFactory/LaunchpadFactory_flattened.sol\":38822:38873  totalPresaleTokens.mul(input.raisedTokenFeePercent) */\n      swap2\n      swap1\n      0xffffffff\n      and\n      jump\t// in\n        /* \"LaunchpadFactory/LaunchpadFactory_flattened.sol\":38821:38884  (totalPresaleTokens.mul(input.raisedTokenFeePercent)).div(ZOOM) */\n    tag_222:\n        /* \"LaunchpadFactory/LaunchpadFactory_flattened.sol\":38796:38884  uint256 totalFeeTokens = (totalPresaleTokens.mul(input.raisedTokenFeePercent)).div(ZOOM) */\n      swap1\n      pop\n        /* \"LaunchpadFactory/LaunchpadFactory_flattened.sol\":38895:38917  uint256 totalRaisedFee */\n      0x00\n        /* \"LaunchpadFactory/LaunchpadFactory_flattened.sol\":38920:38973  (input.hardCap.mul(input.raisedFeePercent)).div(ZOOM) */\n      tag_224\n        /* \"LaunchpadFactory/LaunchpadFactory_flattened.sol\":35398:35403  10000 */\n      0x2710\n        /* \"LaunchpadFactory/LaunchpadFactory_flattened.sol\":38921:38962  input.hardCap.mul(input.raisedFeePercent) */\n      tag_219\n        /* \"LaunchpadFactory/LaunchpadFactory_flattened.sol\":38939:38944  input */\n      dup10\n        /* \"LaunchpadFactory/LaunchpadFactory_flattened.sol\":38939:38961  input.raisedFeePercent */\n      0x80\n      add\n      mload\n        /* \"LaunchpadFactory/LaunchpadFactory_flattened.sol\":38921:38926  input */\n      dup11\n        /* \"LaunchpadFactory/LaunchpadFactory_flattened.sol\":38921:38934  input.hardCap */\n      0x40\n      add\n      mload\n        /* \"LaunchpadFactory/LaunchpadFactory_flattened.sol\":38921:38938  input.hardCap.mul */\n      tag_220\n      swap1\n        /* \"LaunchpadFactory/LaunchpadFactory_flattened.sol\":38921:38962  input.hardCap.mul(input.raisedFeePercent) */\n      swap2\n      swap1\n      0xffffffff\n      and\n      jump\t// in\n        /* \"LaunchpadFactory/LaunchpadFactory_flattened.sol\":38920:38973  (input.hardCap.mul(input.raisedFeePercent)).div(ZOOM) */\n    tag_224:\n        /* \"LaunchpadFactory/LaunchpadFactory_flattened.sol\":38895:38973  uint256 totalRaisedFee = (input.hardCap.mul(input.raisedFeePercent)).div(ZOOM) */\n      swap1\n      pop\n        /* \"LaunchpadFactory/LaunchpadFactory_flattened.sol\":38983:38997  uint256 netCap */\n      0x00\n        /* \"LaunchpadFactory/LaunchpadFactory_flattened.sol\":39000:39033  input.hardCap.sub(totalRaisedFee) */\n      tag_226\n        /* \"LaunchpadFactory/LaunchpadFactory_flattened.sol\":39018:39032  totalRaisedFee */\n      dup3\n        /* \"LaunchpadFactory/LaunchpadFactory_flattened.sol\":39000:39005  input */\n      dup10\n        /* \"LaunchpadFactory/LaunchpadFactory_flattened.sol\":39000:39013  input.hardCap */\n      0x40\n      add\n      mload\n        /* \"LaunchpadFactory/LaunchpadFactory_flattened.sol\":39000:39017  input.hardCap.sub */\n      tag_227\n      swap1\n        /* \"LaunchpadFactory/LaunchpadFactory_flattened.sol\":39000:39033  input.hardCap.sub(totalRaisedFee) */\n      swap2\n      swap1\n      0xffffffff\n      and\n      jump\t// in\n    tag_226:\n        /* \"LaunchpadFactory/LaunchpadFactory_flattened.sol\":38983:39033  uint256 netCap = input.hardCap.sub(totalRaisedFee) */\n      swap1\n      pop\n        /* \"LaunchpadFactory/LaunchpadFactory_flattened.sol\":39043:39072  uint256 totalFeeTokensToAddLP */\n      0x00\n        /* \"LaunchpadFactory/LaunchpadFactory_flattened.sol\":39075:39119  (netCap.mul(input.listingPercent)).div(ZOOM) */\n      tag_228\n        /* \"LaunchpadFactory/LaunchpadFactory_flattened.sol\":35398:35403  10000 */\n      0x2710\n        /* \"LaunchpadFactory/LaunchpadFactory_flattened.sol\":39076:39108  netCap.mul(input.listingPercent) */\n      tag_219\n        /* \"LaunchpadFactory/LaunchpadFactory_flattened.sol\":39087:39092  input */\n      dup12\n        /* \"LaunchpadFactory/LaunchpadFactory_flattened.sol\":39087:39107  input.listingPercent */\n      0xa0\n      add\n      mload\n        /* \"LaunchpadFactory/LaunchpadFactory_flattened.sol\":39076:39082  netCap */\n      dup6\n        /* \"LaunchpadFactory/LaunchpadFactory_flattened.sol\":39076:39086  netCap.mul */\n      tag_220\n      swap1\n        /* \"LaunchpadFactory/LaunchpadFactory_flattened.sol\":39076:39108  netCap.mul(input.listingPercent) */\n      swap2\n      swap1\n      0xffffffff\n      and\n      jump\t// in\n        /* \"LaunchpadFactory/LaunchpadFactory_flattened.sol\":39075:39119  (netCap.mul(input.listingPercent)).div(ZOOM) */\n    tag_228:\n        /* \"LaunchpadFactory/LaunchpadFactory_flattened.sol\":39043:39119  uint256 totalFeeTokensToAddLP = (netCap.mul(input.listingPercent)).div(ZOOM) */\n      swap1\n      pop\n        /* \"LaunchpadFactory/LaunchpadFactory_flattened.sol\":39130:39158  uint256 totalLiquidityTokens */\n      0x00\n        /* \"LaunchpadFactory/LaunchpadFactory_flattened.sol\":39161:39236  (totalFeeTokensToAddLP.mul(input.listingPrice)).div(10 ** feeTokenDecimals) */\n      tag_230\n        /* \"LaunchpadFactory/LaunchpadFactory_flattened.sol\":39213:39235  10 ** feeTokenDecimals */\n      tag_231\n        /* \"LaunchpadFactory/LaunchpadFactory_flattened.sol\":39219:39235  feeTokenDecimals */\n      dup9\n        /* \"LaunchpadFactory/LaunchpadFactory_flattened.sol\":39213:39215  10 */\n      0x0a\n        /* \"LaunchpadFactory/LaunchpadFactory_flattened.sol\":39213:39235  10 ** feeTokenDecimals */\n      tag_218\n      jump\t// in\n    tag_231:\n        /* \"LaunchpadFactory/LaunchpadFactory_flattened.sol\":39188:39206  input.listingPrice */\n      0xc0\n      dup13\n      add\n      mload\n        /* \"LaunchpadFactory/LaunchpadFactory_flattened.sol\":39162:39207  totalFeeTokensToAddLP.mul(input.listingPrice) */\n      tag_219\n      swap1\n        /* \"LaunchpadFactory/LaunchpadFactory_flattened.sol\":39162:39183  totalFeeTokensToAddLP */\n      dup6\n      swap1\n        /* \"LaunchpadFactory/LaunchpadFactory_flattened.sol\":39162:39187  totalFeeTokensToAddLP.mul */\n      tag_220\n        /* \"LaunchpadFactory/LaunchpadFactory_flattened.sol\":39162:39207  totalFeeTokensToAddLP.mul(input.listingPrice) */\n      jump\t// in\n        /* \"LaunchpadFactory/LaunchpadFactory_flattened.sol\":39161:39236  (totalFeeTokensToAddLP.mul(input.listingPrice)).div(10 ** feeTokenDecimals) */\n    tag_230:\n        /* \"LaunchpadFactory/LaunchpadFactory_flattened.sol\":39130:39236  uint256 totalLiquidityTokens = (totalFeeTokensToAddLP.mul(input.listingPrice)).div(10 ** feeTokenDecimals) */\n      swap1\n      pop\n        /* \"LaunchpadFactory/LaunchpadFactory_flattened.sol\":39247:39261  uint256 result */\n      0x00\n        /* \"LaunchpadFactory/LaunchpadFactory_flattened.sol\":39264:39328  totalPresaleTokens.add(totalFeeTokens).add(totalLiquidityTokens) */\n      tag_233\n        /* \"LaunchpadFactory/LaunchpadFactory_flattened.sol\":39130:39236  uint256 totalLiquidityTokens = (totalFeeTokensToAddLP.mul(input.listingPrice)).div(10 ** feeTokenDecimals) */\n      dup3\n        /* \"LaunchpadFactory/LaunchpadFactory_flattened.sol\":39264:39302  totalPresaleTokens.add(totalFeeTokens) */\n      tag_234\n        /* \"LaunchpadFactory/LaunchpadFactory_flattened.sol\":39264:39282  totalPresaleTokens */\n      dup10\n        /* \"LaunchpadFactory/LaunchpadFactory_flattened.sol\":39287:39301  totalFeeTokens */\n      dup10\n        /* \"LaunchpadFactory/LaunchpadFactory_flattened.sol\":39264:39286  totalPresaleTokens.add */\n      tag_235\n        /* \"LaunchpadFactory/LaunchpadFactory_flattened.sol\":39264:39302  totalPresaleTokens.add(totalFeeTokens) */\n      jump\t// in\n    tag_234:\n        /* \"LaunchpadFactory/LaunchpadFactory_flattened.sol\":39264:39306  totalPresaleTokens.add(totalFeeTokens).add */\n      swap1\n      tag_235\n        /* \"LaunchpadFactory/LaunchpadFactory_flattened.sol\":39264:39328  totalPresaleTokens.add(totalFeeTokens).add(totalLiquidityTokens) */\n      jump\t// in\n    tag_233:\n        /* \"LaunchpadFactory/LaunchpadFactory_flattened.sol\":39247:39328  uint256 result = totalPresaleTokens.add(totalFeeTokens).add(totalLiquidityTokens) */\n      swap12\n        /* \"LaunchpadFactory/LaunchpadFactory_flattened.sol\":39354:39374  totalLiquidityTokens */\n      swap2\n      swap11\n      pop\n        /* \"LaunchpadFactory/LaunchpadFactory_flattened.sol\":38382:39382  function calculateTokens(... */\n      swap1\n      swap9\n      pop\n      pop\n      pop\n      pop\n      pop\n      pop\n      pop\n      pop\n      pop\n      jump\t// out\n        /* \"LaunchpadFactory/LaunchpadFactory_flattened.sol\":42878:42996  function totalLaunchpads() external view returns (ILaunchpad[] memory launchpads){... */\n    tag_107:\n        /* \"LaunchpadFactory/LaunchpadFactory_flattened.sol\":42928:42958  ILaunchpad[] memory launchpads */\n      0x60\n        /* \"LaunchpadFactory/LaunchpadFactory_flattened.sol\":42976:42989  allLaunchpads */\n      0x07\n        /* \"LaunchpadFactory/LaunchpadFactory_flattened.sol\":42969:42989  return allLaunchpads */\n      dup1\n      sload\n      dup1\n      0x20\n      mul\n      0x20\n      add\n      mload(0x40)\n      swap1\n      dup2\n      add\n      0x40\n      mstore\n      dup1\n      swap3\n      swap2\n      swap1\n      dup2\n      dup2\n      mstore\n      0x20\n      add\n      dup3\n      dup1\n      sload\n      dup1\n      iszero\n      tag_237\n      jumpi\n      0x20\n      mul\n      dup3\n      add\n      swap2\n      swap1\n      0x00\n      mstore\n      keccak256(0x00, 0x20)\n      swap1\n    tag_238:\n      dup2\n      sload\n      sub(shl(0xa0, 0x01), 0x01)\n      and\n      dup2\n      mstore\n      0x01\n      swap1\n      swap2\n      add\n      swap1\n      0x20\n      add\n      dup1\n      dup4\n      gt\n      tag_238\n      jumpi\n    tag_237:\n      pop\n      pop\n      pop\n      pop\n      pop\n      swap1\n      pop\n        /* \"LaunchpadFactory/LaunchpadFactory_flattened.sol\":42878:42996  function totalLaunchpads() external view returns (ILaunchpad[] memory launchpads){... */\n      swap1\n      jump\t// out\n        /* \"LaunchpadFactory/LaunchpadFactory_flattened.sol\":34627:34825  function transferOwnership(address newOwner) public virtual onlyOwner {... */\n    tag_121:\n        /* \"LaunchpadFactory/LaunchpadFactory_flattened.sol\":33647:33660  _checkOwner() */\n      tag_240\n        /* \"LaunchpadFactory/LaunchpadFactory_flattened.sol\":33647:33658  _checkOwner */\n      tag_124\n        /* \"LaunchpadFactory/LaunchpadFactory_flattened.sol\":33647:33660  _checkOwner() */\n      jump\t// in\n    tag_240:\n      sub(shl(0xa0, 0x01), 0x01)\n        /* \"LaunchpadFactory/LaunchpadFactory_flattened.sol\":34715:34737  newOwner != address(0) */\n      dup2\n      and\n        /* \"LaunchpadFactory/LaunchpadFactory_flattened.sol\":34707:34780  require(newOwner != address(0), \"Ownable: new owner is the zero address\") */\n      tag_242\n      jumpi\n      mload(0x40)\n      shl(0xe5, 0x461bcd)\n      dup2\n      mstore\n        /* \"#utility.yul\":21600:21602   */\n      0x20\n        /* \"LaunchpadFactory/LaunchpadFactory_flattened.sol\":34707:34780  require(newOwner != address(0), \"Ownable: new owner is the zero address\") */\n      0x04\n      dup3\n      add\n        /* \"#utility.yul\":21582:21603   */\n      mstore\n        /* \"#utility.yul\":21639:21641   */\n      0x26\n        /* \"#utility.yul\":21619:21637   */\n      0x24\n      dup3\n      add\n        /* \"#utility.yul\":21612:21642   */\n      mstore\n        /* \"#utility.yul\":21678:21712   */\n      0x4f776e61626c653a206e6577206f776e657220697320746865207a65726f2061\n        /* \"#utility.yul\":21658:21676   */\n      0x44\n      dup3\n      add\n        /* \"#utility.yul\":21651:21713   */\n      mstore\n      shl(0xd0, 0x646472657373)\n        /* \"#utility.yul\":21729:21747   */\n      0x64\n      dup3\n      add\n        /* \"#utility.yul\":21722:21758   */\n      mstore\n        /* \"#utility.yul\":21775:21794   */\n      0x84\n      add\n        /* \"LaunchpadFactory/LaunchpadFactory_flattened.sol\":34707:34780  require(newOwner != address(0), \"Ownable: new owner is the zero address\") */\n      tag_129\n        /* \"#utility.yul\":21398:21800   */\n      jump\n        /* \"LaunchpadFactory/LaunchpadFactory_flattened.sol\":34707:34780  require(newOwner != address(0), \"Ownable: new owner is the zero address\") */\n    tag_242:\n        /* \"LaunchpadFactory/LaunchpadFactory_flattened.sol\":34790:34818  _transferOwnership(newOwner) */\n      tag_245\n        /* \"LaunchpadFactory/LaunchpadFactory_flattened.sol\":34809:34817  newOwner */\n      dup2\n        /* \"LaunchpadFactory/LaunchpadFactory_flattened.sol\":34790:34808  _transferOwnership */\n      tag_200\n        /* \"LaunchpadFactory/LaunchpadFactory_flattened.sol\":34790:34818  _transferOwnership(newOwner) */\n      jump\t// in\n    tag_245:\n        /* \"LaunchpadFactory/LaunchpadFactory_flattened.sol\":34627:34825  function transferOwnership(address newOwner) public virtual onlyOwner {... */\n      pop\n      jump\t// out\n        /* \"LaunchpadFactory/LaunchpadFactory_flattened.sol\":33912:34042  function _checkOwner() internal view virtual {... */\n    tag_124:\n        /* \"LaunchpadFactory/LaunchpadFactory_flattened.sol\":33800:33807  address */\n      0x00\n        /* \"LaunchpadFactory/LaunchpadFactory_flattened.sol\":33826:33832  _owner */\n      sload\n      sub(shl(0xa0, 0x01), 0x01)\n      and\n        /* \"LaunchpadFactory/LaunchpadFactory_flattened.sol\":32436:32446  msg.sender */\n      caller\n        /* \"LaunchpadFactory/LaunchpadFactory_flattened.sol\":33975:33998  owner() == _msgSender() */\n      eq\n        /* \"LaunchpadFactory/LaunchpadFactory_flattened.sol\":33967:34035  require(owner() == _msgSender(), \"Ownable: caller is not the owner\") */\n      tag_199\n      jumpi\n      mload(0x40)\n      shl(0xe5, 0x461bcd)\n      dup2\n      mstore\n        /* \"#utility.yul\":22007:22009   */\n      0x20\n        /* \"LaunchpadFactory/LaunchpadFactory_flattened.sol\":33967:34035  require(owner() == _msgSender(), \"Ownable: caller is not the owner\") */\n      0x04\n      dup3\n      add\n        /* \"#utility.yul\":21989:22010   */\n      dup2\n      swap1\n      mstore\n        /* \"#utility.yul\":22026:22044   */\n      0x24\n      dup3\n      add\n        /* \"#utility.yul\":22019:22049   */\n      mstore\n        /* \"#utility.yul\":22085:22119   */\n      0x4f776e61626c653a2063616c6c6572206973206e6f7420746865206f776e6572\n        /* \"#utility.yul\":22065:22083   */\n      0x44\n      dup3\n      add\n        /* \"#utility.yul\":22058:22120   */\n      mstore\n        /* \"#utility.yul\":22137:22155   */\n      0x64\n      add\n        /* \"LaunchpadFactory/LaunchpadFactory_flattened.sol\":33967:34035  require(owner() == _msgSender(), \"Ownable: caller is not the owner\") */\n      tag_129\n        /* \"#utility.yul\":21805:22161   */\n      jump\n        /* \"LaunchpadFactory/LaunchpadFactory_flattened.sol\":9608:10367  function clone(address implementation) internal returns (address instance) {... */\n    tag_143:\n        /* \"LaunchpadFactory/LaunchpadFactory_flattened.sol\":9665:9681  address instance */\n      0x00\n        /* \"LaunchpadFactory/LaunchpadFactory_flattened.sol\":9997:10045  0x3d602d80600a3d3981f3363d3d373d3d3d363d73000000 */\n      0x3d602d80600a3d3981f3363d3d373d3d3d363d73000000\n        /* \"LaunchpadFactory/LaunchpadFactory_flattened.sol\":9979:9993  implementation */\n      dup3\n        /* \"LaunchpadFactory/LaunchpadFactory_flattened.sol\":9973:9977  0x60 */\n      0x60\n        /* \"LaunchpadFactory/LaunchpadFactory_flattened.sol\":9969:9994  shl(0x60, implementation) */\n      shl\n        /* \"LaunchpadFactory/LaunchpadFactory_flattened.sol\":9963:9967  0xe8 */\n      0xe8\n        /* \"LaunchpadFactory/LaunchpadFactory_flattened.sol\":9959:9995  shr(0xe8, shl(0x60, implementation)) */\n      shr\n        /* \"LaunchpadFactory/LaunchpadFactory_flattened.sol\":9956:10046  or(shr(0xe8, shl(0x60, implementation)), 0x3d602d80600a3d3981f3363d3d373d3d3d363d73000000) */\n      or\n        /* \"LaunchpadFactory/LaunchpadFactory_flattened.sol\":9950:9954  0x00 */\n      0x00\n        /* \"LaunchpadFactory/LaunchpadFactory_flattened.sol\":9943:10047  mstore(0x00, or(shr(0xe8, shl(0x60, implementation)), 0x3d602d80600a3d3981f3363d3d373d3d3d363d73000000)) */\n      mstore\n        /* \"LaunchpadFactory/LaunchpadFactory_flattened.sol\":10204:10236  0x5af43d82803e903d91602b57fd5bf3 */\n      0x5af43d82803e903d91602b57fd5bf3\n        /* \"LaunchpadFactory/LaunchpadFactory_flattened.sol\":10187:10201  implementation */\n      dup3\n        /* \"LaunchpadFactory/LaunchpadFactory_flattened.sol\":10181:10185  0x78 */\n      0x78\n        /* \"LaunchpadFactory/LaunchpadFactory_flattened.sol\":10177:10202  shl(0x78, implementation) */\n      shl\n        /* \"LaunchpadFactory/LaunchpadFactory_flattened.sol\":10174:10237  or(shl(0x78, implementation), 0x5af43d82803e903d91602b57fd5bf3) */\n      or\n        /* \"LaunchpadFactory/LaunchpadFactory_flattened.sol\":10168:10172  0x20 */\n      0x20\n        /* \"LaunchpadFactory/LaunchpadFactory_flattened.sol\":10161:10238  mstore(0x20, or(shl(0x78, implementation), 0x5af43d82803e903d91602b57fd5bf3)) */\n      mstore\n        /* \"LaunchpadFactory/LaunchpadFactory_flattened.sol\":10279:10283  0x37 */\n      0x37\n        /* \"LaunchpadFactory/LaunchpadFactory_flattened.sol\":10273:10277  0x09 */\n      0x09\n        /* \"LaunchpadFactory/LaunchpadFactory_flattened.sol\":10270:10271  0 */\n      0x00\n        /* \"LaunchpadFactory/LaunchpadFactory_flattened.sol\":10263:10284  create(0, 0x09, 0x37) */\n      create\n        /* \"LaunchpadFactory/LaunchpadFactory_flattened.sol\":10251:10284  instance := create(0, 0x09, 0x37) */\n      swap1\n      pop\n      sub(shl(0xa0, 0x01), 0x01)\n        /* \"LaunchpadFactory/LaunchpadFactory_flattened.sol\":10311:10333  instance != address(0) */\n      dup2\n      and\n        /* \"LaunchpadFactory/LaunchpadFactory_flattened.sol\":10303:10360  require(instance != address(0), \"ERC1167: create failed\") */\n      tag_254\n      jumpi\n      mload(0x40)\n      shl(0xe5, 0x461bcd)\n      dup2\n      mstore\n        /* \"#utility.yul\":22368:22370   */\n      0x20\n        /* \"LaunchpadFactory/LaunchpadFactory_flattened.sol\":10303:10360  require(instance != address(0), \"ERC1167: create failed\") */\n      0x04\n      dup3\n      add\n        /* \"#utility.yul\":22350:22371   */\n      mstore\n        /* \"#utility.yul\":22407:22409   */\n      0x16\n        /* \"#utility.yul\":22387:22405   */\n      0x24\n      dup3\n      add\n        /* \"#utility.yul\":22380:22410   */\n      mstore\n      shl(0x52, 0x115490cc4c4d8dce8818dc99585d194819985a5b1959)\n        /* \"#utility.yul\":22426:22444   */\n      0x44\n      dup3\n      add\n        /* \"#utility.yul\":22419:22471   */\n      mstore\n        /* \"#utility.yul\":22488:22506   */\n      0x64\n      add\n        /* \"LaunchpadFactory/LaunchpadFactory_flattened.sol\":10303:10360  require(instance != address(0), \"ERC1167: create failed\") */\n      tag_129\n        /* \"#utility.yul\":22166:22512   */\n      jump\n        /* \"LaunchpadFactory/LaunchpadFactory_flattened.sol\":10303:10360  require(instance != address(0), \"ERC1167: create failed\") */\n    tag_254:\n        /* \"LaunchpadFactory/LaunchpadFactory_flattened.sol\":9608:10367  function clone(address implementation) internal returns (address instance) {... */\n      swap2\n      swap1\n      pop\n      jump\t// out\n        /* \"LaunchpadFactory/LaunchpadFactory_flattened.sol\":34979:35166  function _transferOwnership(address newOwner) internal virtual {... */\n    tag_200:\n        /* \"LaunchpadFactory/LaunchpadFactory_flattened.sol\":35052:35068  address oldOwner */\n      0x00\n        /* \"LaunchpadFactory/LaunchpadFactory_flattened.sol\":35071:35077  _owner */\n      dup1\n      sload\n      sub(shl(0xa0, 0x01), 0x01)\n        /* \"LaunchpadFactory/LaunchpadFactory_flattened.sol\":35087:35104  _owner = newOwner */\n      dup4\n      dup2\n      and\n      not(sub(shl(0xa0, 0x01), 0x01))\n      dup4\n      and\n      dup2\n      or\n      dup5\n      sstore\n        /* \"LaunchpadFactory/LaunchpadFactory_flattened.sol\":35119:35159  OwnershipTransferred(oldOwner, newOwner) */\n      mload(0x40)\n        /* \"LaunchpadFactory/LaunchpadFactory_flattened.sol\":35071:35077  _owner */\n      swap2\n      swap1\n      swap3\n      and\n      swap3\n      dup4\n      swap2\n        /* \"LaunchpadFactory/LaunchpadFactory_flattened.sol\":35119:35159  OwnershipTransferred(oldOwner, newOwner) */\n      0x8be0079c531659141344cd1fd0a4f28419497f9722a3daafe3b4186f6b6457e0\n      swap2\n        /* \"LaunchpadFactory/LaunchpadFactory_flattened.sol\":35052:35068  address oldOwner */\n      swap1\n        /* \"LaunchpadFactory/LaunchpadFactory_flattened.sol\":35119:35159  OwnershipTransferred(oldOwner, newOwner) */\n      log3\n        /* \"LaunchpadFactory/LaunchpadFactory_flattened.sol\":35042:35166  {... */\n      pop\n        /* \"LaunchpadFactory/LaunchpadFactory_flattened.sol\":34979:35166  function _transferOwnership(address newOwner) internal virtual {... */\n      pop\n      jump\t// out\n        /* \"LaunchpadFactory/LaunchpadFactory_flattened.sol\":19081:19177  function mul(uint256 a, uint256 b) internal pure returns (uint256) {... */\n    tag_220:\n        /* \"LaunchpadFactory/LaunchpadFactory_flattened.sol\":19139:19146  uint256 */\n      0x00\n        /* \"LaunchpadFactory/LaunchpadFactory_flattened.sol\":19165:19170  a * b */\n      tag_259\n        /* \"LaunchpadFactory/LaunchpadFactory_flattened.sol\":19169:19170  b */\n      dup3\n        /* \"LaunchpadFactory/LaunchpadFactory_flattened.sol\":19165:19166  a */\n      dup5\n        /* \"LaunchpadFactory/LaunchpadFactory_flattened.sol\":19165:19170  a * b */\n      tag_187\n      jump\t// in\n    tag_259:\n        /* \"LaunchpadFactory/LaunchpadFactory_flattened.sol\":19158:19170  return a * b */\n      swap1\n      pop\n        /* \"LaunchpadFactory/LaunchpadFactory_flattened.sol\":19081:19177  function mul(uint256 a, uint256 b) internal pure returns (uint256) {... */\n    tag_258:\n      swap3\n      swap2\n      pop\n      pop\n      jump\t// out\n        /* \"LaunchpadFactory/LaunchpadFactory_flattened.sol\":19466:19562  function div(uint256 a, uint256 b) internal pure returns (uint256) {... */\n    tag_221:\n        /* \"LaunchpadFactory/LaunchpadFactory_flattened.sol\":19524:19531  uint256 */\n      0x00\n        /* \"LaunchpadFactory/LaunchpadFactory_flattened.sol\":19550:19555  a / b */\n      tag_259\n        /* \"LaunchpadFactory/LaunchpadFactory_flattened.sol\":19554:19555  b */\n      dup3\n        /* \"LaunchpadFactory/LaunchpadFactory_flattened.sol\":19550:19551  a */\n      dup5\n        /* \"LaunchpadFactory/LaunchpadFactory_flattened.sol\":19550:19555  a / b */\n      tag_262\n      jump\t// in\n        /* \"LaunchpadFactory/LaunchpadFactory_flattened.sol\":18738:18834  function sub(uint256 a, uint256 b) internal pure returns (uint256) {... */\n    tag_227:\n        /* \"LaunchpadFactory/LaunchpadFactory_flattened.sol\":18796:18803  uint256 */\n      0x00\n        /* \"LaunchpadFactory/LaunchpadFactory_flattened.sol\":18822:18827  a - b */\n      tag_259\n        /* \"LaunchpadFactory/LaunchpadFactory_flattened.sol\":18826:18827  b */\n      dup3\n        /* \"LaunchpadFactory/LaunchpadFactory_flattened.sol\":18822:18823  a */\n      dup5\n        /* \"LaunchpadFactory/LaunchpadFactory_flattened.sol\":18822:18827  a - b */\n      tag_265\n      jump\t// in\n        /* \"LaunchpadFactory/LaunchpadFactory_flattened.sol\":18371:18467  function add(uint256 a, uint256 b) internal pure returns (uint256) {... */\n    tag_235:\n        /* \"LaunchpadFactory/LaunchpadFactory_flattened.sol\":18429:18436  uint256 */\n      0x00\n        /* \"LaunchpadFactory/LaunchpadFactory_flattened.sol\":18455:18460  a + b */\n      tag_259\n        /* \"LaunchpadFactory/LaunchpadFactory_flattened.sol\":18459:18460  b */\n      dup3\n        /* \"LaunchpadFactory/LaunchpadFactory_flattened.sol\":18455:18456  a */\n      dup5\n        /* \"LaunchpadFactory/LaunchpadFactory_flattened.sol\":18455:18460  a + b */\n      tag_268\n      jump\t// in\n        /* \"#utility.yul\":14:194   */\n    tag_29:\n        /* \"#utility.yul\":73:79   */\n      0x00\n        /* \"#utility.yul\":126:128   */\n      0x20\n        /* \"#utility.yul\":114:123   */\n      dup3\n        /* \"#utility.yul\":105:112   */\n      dup5\n        /* \"#utility.yul\":101:124   */\n      sub\n        /* \"#utility.yul\":97:129   */\n      slt\n        /* \"#utility.yul\":94:146   */\n      iszero\n      tag_292\n      jumpi\n        /* \"#utility.yul\":142:143   */\n      0x00\n        /* \"#utility.yul\":139:140   */\n      dup1\n        /* \"#utility.yul\":132:144   */\n      revert\n        /* \"#utility.yul\":94:146   */\n    tag_292:\n      pop\n        /* \"#utility.yul\":165:188   */\n      calldataload\n      swap2\n        /* \"#utility.yul\":14:194   */\n      swap1\n      pop\n      jump\t// out\n        /* \"#utility.yul\":199:326   */\n    tag_269:\n        /* \"#utility.yul\":260:270   */\n      0x4e487b71\n        /* \"#utility.yul\":255:258   */\n      0xe0\n        /* \"#utility.yul\":251:271   */\n      shl\n        /* \"#utility.yul\":248:249   */\n      0x00\n        /* \"#utility.yul\":241:272   */\n      mstore\n        /* \"#utility.yul\":291:295   */\n      0x41\n        /* \"#utility.yul\":288:289   */\n      0x04\n        /* \"#utility.yul\":281:296   */\n      mstore\n        /* \"#utility.yul\":315:319   */\n      0x24\n        /* \"#utility.yul\":312:313   */\n      0x00\n        /* \"#utility.yul\":305:320   */\n      revert\n        /* \"#utility.yul\":331:586   */\n    tag_270:\n        /* \"#utility.yul\":403:405   */\n      0x40\n        /* \"#utility.yul\":397:406   */\n      mload\n        /* \"#utility.yul\":445:451   */\n      0x0140\n        /* \"#utility.yul\":433:452   */\n      dup2\n      add\n        /* \"#utility.yul\":482:500   */\n      0xffffffffffffffff\n        /* \"#utility.yul\":467:501   */\n      dup2\n      gt\n        /* \"#utility.yul\":503:525   */\n      dup3\n      dup3\n      lt\n        /* \"#utility.yul\":464:526   */\n      or\n        /* \"#utility.yul\":461:549   */\n      iszero\n      tag_296\n      jumpi\n        /* \"#utility.yul\":529:547   */\n      tag_296\n      tag_269\n      jump\t// in\n    tag_296:\n        /* \"#utility.yul\":565:567   */\n      0x40\n        /* \"#utility.yul\":558:580   */\n      mstore\n        /* \"#utility.yul\":331:586   */\n      swap1\n      jump\t// out\n        /* \"#utility.yul\":591:841   */\n    tag_271:\n        /* \"#utility.yul\":658:660   */\n      0x40\n        /* \"#utility.yul\":652:661   */\n      mload\n        /* \"#utility.yul\":700:706   */\n      0x0160\n        /* \"#utility.yul\":688:707   */\n      dup2\n      add\n        /* \"#utility.yul\":737:755   */\n      0xffffffffffffffff\n        /* \"#utility.yul\":722:756   */\n      dup2\n      gt\n        /* \"#utility.yul\":758:780   */\n      dup3\n      dup3\n      lt\n        /* \"#utility.yul\":719:781   */\n      or\n        /* \"#utility.yul\":716:804   */\n      iszero\n      tag_296\n      jumpi\n        /* \"#utility.yul\":784:802   */\n      tag_296\n      tag_269\n      jump\t// in\n        /* \"#utility.yul\":846:977   */\n    tag_272:\n      sub(shl(0xa0, 0x01), 0x01)\n        /* \"#utility.yul\":921:952   */\n      dup2\n      and\n        /* \"#utility.yul\":911:953   */\n      dup2\n      eq\n        /* \"#utility.yul\":901:971   */\n      tag_245\n      jumpi\n        /* \"#utility.yul\":967:968   */\n      0x00\n        /* \"#utility.yul\":964:965   */\n      dup1\n        /* \"#utility.yul\":957:969   */\n      revert\n        /* \"#utility.yul\":982:1116   */\n    tag_273:\n        /* \"#utility.yul\":1050:1070   */\n      dup1\n      calldataload\n        /* \"#utility.yul\":1079:1110   */\n      tag_254\n        /* \"#utility.yul\":1050:1070   */\n      dup2\n        /* \"#utility.yul\":1079:1110   */\n      tag_272\n      jump\t// in\n        /* \"#utility.yul\":1121:1661   */\n    tag_274:\n        /* \"#utility.yul\":1177:1182   */\n      0x00\n        /* \"#utility.yul\":1225:1229   */\n      0x60\n        /* \"#utility.yul\":1213:1222   */\n      dup3\n        /* \"#utility.yul\":1208:1211   */\n      dup5\n        /* \"#utility.yul\":1204:1223   */\n      sub\n        /* \"#utility.yul\":1200:1230   */\n      slt\n        /* \"#utility.yul\":1197:1247   */\n      iszero\n      tag_305\n      jumpi\n        /* \"#utility.yul\":1243:1244   */\n      0x00\n        /* \"#utility.yul\":1240:1241   */\n      dup1\n        /* \"#utility.yul\":1233:1245   */\n      revert\n        /* \"#utility.yul\":1197:1247   */\n    tag_305:\n        /* \"#utility.yul\":1276:1278   */\n      0x40\n        /* \"#utility.yul\":1270:1279   */\n      mload\n        /* \"#utility.yul\":1318:1322   */\n      0x60\n        /* \"#utility.yul\":1310:1316   */\n      dup2\n        /* \"#utility.yul\":1306:1323   */\n      add\n        /* \"#utility.yul\":1389:1395   */\n      dup2\n        /* \"#utility.yul\":1377:1387   */\n      dup2\n        /* \"#utility.yul\":1374:1396   */\n      lt\n        /* \"#utility.yul\":1353:1371   */\n      0xffffffffffffffff\n        /* \"#utility.yul\":1341:1351   */\n      dup3\n        /* \"#utility.yul\":1338:1372   */\n      gt\n        /* \"#utility.yul\":1335:1397   */\n      or\n        /* \"#utility.yul\":1332:1420   */\n      iszero\n      tag_307\n      jumpi\n        /* \"#utility.yul\":1400:1418   */\n      tag_307\n      tag_269\n      jump\t// in\n    tag_307:\n        /* \"#utility.yul\":1440:1450   */\n      dup1\n        /* \"#utility.yul\":1436:1438   */\n      0x40\n        /* \"#utility.yul\":1429:1451   */\n      mstore\n      pop\n        /* \"#utility.yul\":1469:1475   */\n      dup1\n        /* \"#utility.yul\":1460:1475   */\n      swap2\n      pop\n        /* \"#utility.yul\":1512:1521   */\n      dup3\n        /* \"#utility.yul\":1499:1522   */\n      calldataload\n        /* \"#utility.yul\":1491:1497   */\n      dup2\n        /* \"#utility.yul\":1484:1523   */\n      mstore\n        /* \"#utility.yul\":1584:1586   */\n      0x20\n        /* \"#utility.yul\":1573:1582   */\n      dup4\n        /* \"#utility.yul\":1569:1587   */\n      add\n        /* \"#utility.yul\":1556:1588   */\n      calldataload\n        /* \"#utility.yul\":1551:1553   */\n      0x20\n        /* \"#utility.yul\":1543:1549   */\n      dup3\n        /* \"#utility.yul\":1539:1554   */\n      add\n        /* \"#utility.yul\":1532:1589   */\n      mstore\n        /* \"#utility.yul\":1650:1652   */\n      0x40\n        /* \"#utility.yul\":1639:1648   */\n      dup4\n        /* \"#utility.yul\":1635:1653   */\n      add\n        /* \"#utility.yul\":1622:1654   */\n      calldataload\n        /* \"#utility.yul\":1617:1619   */\n      0x40\n        /* \"#utility.yul\":1609:1615   */\n      dup3\n        /* \"#utility.yul\":1605:1620   */\n      add\n        /* \"#utility.yul\":1598:1655   */\n      mstore\n      pop\n        /* \"#utility.yul\":1121:1661   */\n      swap3\n      swap2\n      pop\n      pop\n      jump\t// out\n        /* \"#utility.yul\":1666:1784   */\n    tag_275:\n        /* \"#utility.yul\":1752:1757   */\n      dup1\n        /* \"#utility.yul\":1745:1758   */\n      iszero\n        /* \"#utility.yul\":1738:1759   */\n      iszero\n        /* \"#utility.yul\":1731:1736   */\n      dup2\n        /* \"#utility.yul\":1728:1760   */\n      eq\n        /* \"#utility.yul\":1718:1778   */\n      tag_245\n      jumpi\n        /* \"#utility.yul\":1774:1775   */\n      0x00\n        /* \"#utility.yul\":1771:1772   */\n      dup1\n        /* \"#utility.yul\":1764:1776   */\n      revert\n        /* \"#utility.yul\":1789:2745   */\n    tag_276:\n        /* \"#utility.yul\":1843:1848   */\n      0x00\n        /* \"#utility.yul\":1891:1895   */\n      0xc0\n        /* \"#utility.yul\":1879:1888   */\n      dup3\n        /* \"#utility.yul\":1874:1877   */\n      dup5\n        /* \"#utility.yul\":1870:1889   */\n      sub\n        /* \"#utility.yul\":1866:1896   */\n      slt\n        /* \"#utility.yul\":1863:1913   */\n      iszero\n      tag_311\n      jumpi\n        /* \"#utility.yul\":1909:1910   */\n      0x00\n        /* \"#utility.yul\":1906:1907   */\n      dup1\n        /* \"#utility.yul\":1899:1911   */\n      revert\n        /* \"#utility.yul\":1863:1913   */\n    tag_311:\n        /* \"#utility.yul\":1942:1944   */\n      0x40\n        /* \"#utility.yul\":1936:1945   */\n      mload\n        /* \"#utility.yul\":1984:1988   */\n      0xc0\n        /* \"#utility.yul\":1976:1982   */\n      dup2\n        /* \"#utility.yul\":1972:1989   */\n      add\n        /* \"#utility.yul\":2055:2061   */\n      dup2\n        /* \"#utility.yul\":2043:2053   */\n      dup2\n        /* \"#utility.yul\":2040:2062   */\n      lt\n        /* \"#utility.yul\":2019:2037   */\n      0xffffffffffffffff\n        /* \"#utility.yul\":2007:2017   */\n      dup3\n        /* \"#utility.yul\":2004:2038   */\n      gt\n        /* \"#utility.yul\":2001:2063   */\n      or\n        /* \"#utility.yul\":1998:2086   */\n      iszero\n      tag_313\n      jumpi\n        /* \"#utility.yul\":2066:2084   */\n      tag_313\n      tag_269\n      jump\t// in\n    tag_313:\n        /* \"#utility.yul\":2102:2104   */\n      0x40\n        /* \"#utility.yul\":2095:2117   */\n      mstore\n        /* \"#utility.yul\":2135:2141   */\n      swap1\n      pop\n      dup1\n        /* \"#utility.yul\":2165:2188   */\n      dup3\n      calldataload\n        /* \"#utility.yul\":2197:2227   */\n      tag_314\n        /* \"#utility.yul\":2165:2188   */\n      dup2\n        /* \"#utility.yul\":2197:2227   */\n      tag_275\n      jump\t// in\n    tag_314:\n        /* \"#utility.yul\":2236:2259   */\n      dup2\n      mstore\n        /* \"#utility.yul\":2311:2313   */\n      0x20\n        /* \"#utility.yul\":2296:2314   */\n      dup4\n      add\n        /* \"#utility.yul\":2283:2315   */\n      calldataload\n        /* \"#utility.yul\":2324:2357   */\n      tag_315\n        /* \"#utility.yul\":2283:2315   */\n      dup2\n        /* \"#utility.yul\":2324:2357   */\n      tag_272\n      jump\t// in\n    tag_315:\n        /* \"#utility.yul\":2385:2387   */\n      0x20\n        /* \"#utility.yul\":2373:2388   */\n      dup3\n      add\n        /* \"#utility.yul\":2366:2398   */\n      mstore\n        /* \"#utility.yul\":2450:2452   */\n      0x40\n        /* \"#utility.yul\":2435:2453   */\n      dup4\n      add\n        /* \"#utility.yul\":2422:2454   */\n      calldataload\n        /* \"#utility.yul\":2463:2496   */\n      tag_316\n        /* \"#utility.yul\":2422:2454   */\n      dup2\n        /* \"#utility.yul\":2463:2496   */\n      tag_272\n      jump\t// in\n    tag_316:\n        /* \"#utility.yul\":2529:2536   */\n      dup1\n        /* \"#utility.yul\":2524:2526   */\n      0x40\n        /* \"#utility.yul\":2516:2522   */\n      dup4\n        /* \"#utility.yul\":2512:2527   */\n      add\n        /* \"#utility.yul\":2505:2537   */\n      mstore\n      pop\n        /* \"#utility.yul\":2598:2600   */\n      0x60\n        /* \"#utility.yul\":2587:2596   */\n      dup4\n        /* \"#utility.yul\":2583:2601   */\n      add\n        /* \"#utility.yul\":2570:2602   */\n      calldataload\n        /* \"#utility.yul\":2565:2567   */\n      0x60\n        /* \"#utility.yul\":2557:2563   */\n      dup3\n        /* \"#utility.yul\":2553:2568   */\n      add\n        /* \"#utility.yul\":2546:2603   */\n      mstore\n        /* \"#utility.yul\":2665:2668   */\n      0x80\n        /* \"#utility.yul\":2654:2663   */\n      dup4\n        /* \"#utility.yul\":2650:2669   */\n      add\n        /* \"#utility.yul\":2637:2670   */\n      calldataload\n        /* \"#utility.yul\":2631:2634   */\n      0x80\n        /* \"#utility.yul\":2623:2629   */\n      dup3\n        /* \"#utility.yul\":2619:2635   */\n      add\n        /* \"#utility.yul\":2612:2671   */\n      mstore\n        /* \"#utility.yul\":2733:2736   */\n      0xa0\n        /* \"#utility.yul\":2722:2731   */\n      dup4\n        /* \"#utility.yul\":2718:2737   */\n      add\n        /* \"#utility.yul\":2705:2738   */\n      calldataload\n        /* \"#utility.yul\":2699:2702   */\n      0xa0\n        /* \"#utility.yul\":2691:2697   */\n      dup3\n        /* \"#utility.yul\":2687:2703   */\n      add\n        /* \"#utility.yul\":2680:2739   */\n      mstore\n      pop\n        /* \"#utility.yul\":1789:2745   */\n      swap3\n      swap2\n      pop\n      pop\n      jump\t// out\n        /* \"#utility.yul\":2750:3228   */\n    tag_277:\n        /* \"#utility.yul\":2806:2811   */\n      0x00\n        /* \"#utility.yul\":2854:2858   */\n      0x40\n        /* \"#utility.yul\":2842:2851   */\n      dup3\n        /* \"#utility.yul\":2837:2840   */\n      dup5\n        /* \"#utility.yul\":2833:2852   */\n      sub\n        /* \"#utility.yul\":2829:2859   */\n      slt\n        /* \"#utility.yul\":2826:2876   */\n      iszero\n      tag_318\n      jumpi\n        /* \"#utility.yul\":2872:2873   */\n      0x00\n        /* \"#utility.yul\":2869:2870   */\n      dup1\n        /* \"#utility.yul\":2862:2874   */\n      revert\n        /* \"#utility.yul\":2826:2876   */\n    tag_318:\n        /* \"#utility.yul\":2905:2909   */\n      0x40\n        /* \"#utility.yul\":2899:2910   */\n      mload\n        /* \"#utility.yul\":2949:2953   */\n      0x40\n        /* \"#utility.yul\":2941:2947   */\n      dup2\n        /* \"#utility.yul\":2937:2954   */\n      add\n        /* \"#utility.yul\":3020:3026   */\n      dup2\n        /* \"#utility.yul\":3008:3018   */\n      dup2\n        /* \"#utility.yul\":3005:3027   */\n      lt\n        /* \"#utility.yul\":2984:3002   */\n      0xffffffffffffffff\n        /* \"#utility.yul\":2972:2982   */\n      dup3\n        /* \"#utility.yul\":2969:3003   */\n      gt\n        /* \"#utility.yul\":2966:3028   */\n      or\n        /* \"#utility.yul\":2963:3051   */\n      iszero\n      tag_320\n      jumpi\n        /* \"#utility.yul\":3031:3049   */\n      tag_320\n      tag_269\n      jump\t// in\n    tag_320:\n        /* \"#utility.yul\":3067:3071   */\n      0x40\n        /* \"#utility.yul\":3060:3084   */\n      mstore\n        /* \"#utility.yul\":3132:3155   */\n      dup3\n      calldataload\n        /* \"#utility.yul\":3117:3156   */\n      dup2\n      mstore\n        /* \"#utility.yul\":3217:3219   */\n      0x20\n        /* \"#utility.yul\":3202:3220   */\n      swap3\n      dup4\n      add\n        /* \"#utility.yul\":3189:3221   */\n      calldataload\n        /* \"#utility.yul\":3172:3187   */\n      swap3\n      dup2\n      add\n        /* \"#utility.yul\":3165:3222   */\n      swap3\n      swap1\n      swap3\n      mstore\n      pop\n        /* \"#utility.yul\":3102:3108   */\n      swap2\n        /* \"#utility.yul\":2750:3228   */\n      swap1\n      pop\n      jump\t// out\n        /* \"#utility.yul\":3233:3952   */\n    tag_278:\n        /* \"#utility.yul\":3276:3281   */\n      0x00\n        /* \"#utility.yul\":3329:3332   */\n      dup3\n        /* \"#utility.yul\":3322:3326   */\n      0x1f\n        /* \"#utility.yul\":3314:3320   */\n      dup4\n        /* \"#utility.yul\":3310:3327   */\n      add\n        /* \"#utility.yul\":3306:3333   */\n      slt\n        /* \"#utility.yul\":3296:3351   */\n      tag_322\n      jumpi\n        /* \"#utility.yul\":3347:3348   */\n      0x00\n        /* \"#utility.yul\":3344:3345   */\n      dup1\n        /* \"#utility.yul\":3337:3349   */\n      revert\n        /* \"#utility.yul\":3296:3351   */\n    tag_322:\n        /* \"#utility.yul\":3383:3389   */\n      dup2\n        /* \"#utility.yul\":3370:3390   */\n      calldataload\n        /* \"#utility.yul\":3409:3427   */\n      0xffffffffffffffff\n        /* \"#utility.yul\":3446:3448   */\n      dup1\n        /* \"#utility.yul\":3442:3444   */\n      dup3\n        /* \"#utility.yul\":3439:3449   */\n      gt\n        /* \"#utility.yul\":3436:3472   */\n      iszero\n      tag_324\n      jumpi\n        /* \"#utility.yul\":3452:3470   */\n      tag_324\n      tag_269\n      jump\t// in\n    tag_324:\n        /* \"#utility.yul\":3527:3529   */\n      0x40\n        /* \"#utility.yul\":3521:3530   */\n      mload\n        /* \"#utility.yul\":3495:3497   */\n      0x1f\n        /* \"#utility.yul\":3581:3594   */\n      dup4\n      add\n      not(0x1f)\n        /* \"#utility.yul\":3577:3599   */\n      swap1\n      dup2\n      and\n        /* \"#utility.yul\":3601:3603   */\n      0x3f\n        /* \"#utility.yul\":3573:3604   */\n      add\n        /* \"#utility.yul\":3569:3609   */\n      and\n        /* \"#utility.yul\":3557:3610   */\n      dup2\n      add\n      swap1\n        /* \"#utility.yul\":3625:3643   */\n      dup3\n      dup3\n      gt\n        /* \"#utility.yul\":3645:3667   */\n      dup2\n      dup4\n      lt\n        /* \"#utility.yul\":3622:3668   */\n      or\n        /* \"#utility.yul\":3619:3691   */\n      iszero\n      tag_326\n      jumpi\n        /* \"#utility.yul\":3671:3689   */\n      tag_326\n      tag_269\n      jump\t// in\n    tag_326:\n        /* \"#utility.yul\":3711:3721   */\n      dup2\n        /* \"#utility.yul\":3707:3709   */\n      0x40\n        /* \"#utility.yul\":3700:3722   */\n      mstore\n        /* \"#utility.yul\":3746:3748   */\n      dup4\n        /* \"#utility.yul\":3738:3744   */\n      dup2\n        /* \"#utility.yul\":3731:3749   */\n      mstore\n        /* \"#utility.yul\":3792:3795   */\n      dup7\n        /* \"#utility.yul\":3785:3789   */\n      0x20\n        /* \"#utility.yul\":3780:3782   */\n      dup6\n        /* \"#utility.yul\":3772:3778   */\n      dup9\n        /* \"#utility.yul\":3768:3783   */\n      add\n        /* \"#utility.yul\":3764:3790   */\n      add\n        /* \"#utility.yul\":3761:3796   */\n      gt\n        /* \"#utility.yul\":3758:3813   */\n      iszero\n      tag_327\n      jumpi\n        /* \"#utility.yul\":3809:3810   */\n      0x00\n        /* \"#utility.yul\":3806:3807   */\n      dup1\n        /* \"#utility.yul\":3799:3811   */\n      revert\n        /* \"#utility.yul\":3758:3813   */\n    tag_327:\n        /* \"#utility.yul\":3873:3875   */\n      dup4\n        /* \"#utility.yul\":3866:3870   */\n      0x20\n        /* \"#utility.yul\":3858:3864   */\n      dup8\n        /* \"#utility.yul\":3854:3871   */\n      add\n        /* \"#utility.yul\":3847:3851   */\n      0x20\n        /* \"#utility.yul\":3839:3845   */\n      dup4\n        /* \"#utility.yul\":3835:3852   */\n      add\n        /* \"#utility.yul\":3822:3876   */\n      calldatacopy\n        /* \"#utility.yul\":3920:3921   */\n      0x00\n        /* \"#utility.yul\":3913:3917   */\n      0x20\n        /* \"#utility.yul\":3908:3910   */\n      dup6\n        /* \"#utility.yul\":3900:3906   */\n      dup4\n        /* \"#utility.yul\":3896:3911   */\n      add\n        /* \"#utility.yul\":3892:3918   */\n      add\n        /* \"#utility.yul\":3885:3922   */\n      mstore\n        /* \"#utility.yul\":3940:3946   */\n      dup1\n        /* \"#utility.yul\":3931:3946   */\n      swap5\n      pop\n      pop\n      pop\n      pop\n      pop\n        /* \"#utility.yul\":3233:3952   */\n      swap3\n      swap2\n      pop\n      pop\n      jump\t// out\n        /* \"#utility.yul\":3957:6028   */\n    tag_279:\n        /* \"#utility.yul\":4015:4020   */\n      0x00\n        /* \"#utility.yul\":4063:4069   */\n      0x0140\n        /* \"#utility.yul\":4051:4060   */\n      dup3\n        /* \"#utility.yul\":4046:4049   */\n      dup5\n        /* \"#utility.yul\":4042:4061   */\n      sub\n        /* \"#utility.yul\":4038:4070   */\n      slt\n        /* \"#utility.yul\":4035:4087   */\n      iszero\n      tag_329\n      jumpi\n        /* \"#utility.yul\":4083:4084   */\n      0x00\n        /* \"#utility.yul\":4080:4081   */\n      dup1\n        /* \"#utility.yul\":4073:4085   */\n      revert\n        /* \"#utility.yul\":4035:4087   */\n    tag_329:\n        /* \"#utility.yul\":4105:4127   */\n      tag_330\n      tag_270\n      jump\t// in\n    tag_330:\n        /* \"#utility.yul\":4096:4127   */\n      swap1\n      pop\n        /* \"#utility.yul\":4163:4172   */\n      dup2\n        /* \"#utility.yul\":4150:4173   */\n      calldataload\n        /* \"#utility.yul\":4192:4210   */\n      0xffffffffffffffff\n        /* \"#utility.yul\":4233:4235   */\n      dup1\n        /* \"#utility.yul\":4225:4231   */\n      dup3\n        /* \"#utility.yul\":4222:4236   */\n      gt\n        /* \"#utility.yul\":4219:4253   */\n      iszero\n      tag_331\n      jumpi\n        /* \"#utility.yul\":4249:4250   */\n      0x00\n        /* \"#utility.yul\":4246:4247   */\n      dup1\n        /* \"#utility.yul\":4239:4251   */\n      revert\n        /* \"#utility.yul\":4219:4253   */\n    tag_331:\n        /* \"#utility.yul\":4276:4322   */\n      tag_332\n        /* \"#utility.yul\":4318:4321   */\n      dup6\n        /* \"#utility.yul\":4309:4315   */\n      dup4\n        /* \"#utility.yul\":4298:4307   */\n      dup7\n        /* \"#utility.yul\":4294:4316   */\n      add\n        /* \"#utility.yul\":4276:4322   */\n      tag_278\n      jump\t// in\n    tag_332:\n        /* \"#utility.yul\":4269:4274   */\n      dup4\n        /* \"#utility.yul\":4262:4323   */\n      mstore\n        /* \"#utility.yul\":4376:4378   */\n      0x20\n        /* \"#utility.yul\":4365:4374   */\n      dup5\n        /* \"#utility.yul\":4361:4379   */\n      add\n        /* \"#utility.yul\":4348:4380   */\n      calldataload\n        /* \"#utility.yul\":4332:4380   */\n      swap2\n      pop\n        /* \"#utility.yul\":4405:4407   */\n      dup1\n        /* \"#utility.yul\":4395:4403   */\n      dup3\n        /* \"#utility.yul\":4392:4408   */\n      gt\n        /* \"#utility.yul\":4389:4425   */\n      iszero\n      tag_333\n      jumpi\n        /* \"#utility.yul\":4421:4422   */\n      0x00\n        /* \"#utility.yul\":4418:4419   */\n      dup1\n        /* \"#utility.yul\":4411:4423   */\n      revert\n        /* \"#utility.yul\":4389:4425   */\n    tag_333:\n        /* \"#utility.yul\":4457:4505   */\n      tag_334\n        /* \"#utility.yul\":4501:4504   */\n      dup6\n        /* \"#utility.yul\":4490:4498   */\n      dup4\n        /* \"#utility.yul\":4479:4488   */\n      dup7\n        /* \"#utility.yul\":4475:4499   */\n      add\n        /* \"#utility.yul\":4457:4505   */\n      tag_278\n      jump\t// in\n    tag_334:\n        /* \"#utility.yul\":4452:4454   */\n      0x20\n        /* \"#utility.yul\":4445:4450   */\n      dup5\n        /* \"#utility.yul\":4441:4455   */\n      add\n        /* \"#utility.yul\":4434:4506   */\n      mstore\n        /* \"#utility.yul\":4559:4561   */\n      0x40\n        /* \"#utility.yul\":4548:4557   */\n      dup5\n        /* \"#utility.yul\":4544:4562   */\n      add\n        /* \"#utility.yul\":4531:4563   */\n      calldataload\n        /* \"#utility.yul\":4515:4563   */\n      swap2\n      pop\n        /* \"#utility.yul\":4588:4590   */\n      dup1\n        /* \"#utility.yul\":4578:4586   */\n      dup3\n        /* \"#utility.yul\":4575:4591   */\n      gt\n        /* \"#utility.yul\":4572:4608   */\n      iszero\n      tag_335\n      jumpi\n        /* \"#utility.yul\":4604:4605   */\n      0x00\n        /* \"#utility.yul\":4601:4602   */\n      dup1\n        /* \"#utility.yul\":4594:4606   */\n      revert\n        /* \"#utility.yul\":4572:4608   */\n    tag_335:\n        /* \"#utility.yul\":4640:4688   */\n      tag_336\n        /* \"#utility.yul\":4684:4687   */\n      dup6\n        /* \"#utility.yul\":4673:4681   */\n      dup4\n        /* \"#utility.yul\":4662:4671   */\n      dup7\n        /* \"#utility.yul\":4658:4682   */\n      add\n        /* \"#utility.yul\":4640:4688   */\n      tag_278\n      jump\t// in\n    tag_336:\n        /* \"#utility.yul\":4635:4637   */\n      0x40\n        /* \"#utility.yul\":4628:4633   */\n      dup5\n        /* \"#utility.yul\":4624:4638   */\n      add\n        /* \"#utility.yul\":4617:4689   */\n      mstore\n        /* \"#utility.yul\":4742:4744   */\n      0x60\n        /* \"#utility.yul\":4731:4740   */\n      dup5\n        /* \"#utility.yul\":4727:4745   */\n      add\n        /* \"#utility.yul\":4714:4746   */\n      calldataload\n        /* \"#utility.yul\":4698:4746   */\n      swap2\n      pop\n        /* \"#utility.yul\":4771:4773   */\n      dup1\n        /* \"#utility.yul\":4761:4769   */\n      dup3\n        /* \"#utility.yul\":4758:4774   */\n      gt\n        /* \"#utility.yul\":4755:4791   */\n      iszero\n      tag_337\n      jumpi\n        /* \"#utility.yul\":4787:4788   */\n      0x00\n        /* \"#utility.yul\":4784:4785   */\n      dup1\n        /* \"#utility.yul\":4777:4789   */\n      revert\n        /* \"#utility.yul\":4755:4791   */\n    tag_337:\n        /* \"#utility.yul\":4823:4871   */\n      tag_338\n        /* \"#utility.yul\":4867:4870   */\n      dup6\n        /* \"#utility.yul\":4856:4864   */\n      dup4\n        /* \"#utility.yul\":4845:4854   */\n      dup7\n        /* \"#utility.yul\":4841:4865   */\n      add\n        /* \"#utility.yul\":4823:4871   */\n      tag_278\n      jump\t// in\n    tag_338:\n        /* \"#utility.yul\":4818:4820   */\n      0x60\n        /* \"#utility.yul\":4811:4816   */\n      dup5\n        /* \"#utility.yul\":4807:4821   */\n      add\n        /* \"#utility.yul\":4800:4872   */\n      mstore\n        /* \"#utility.yul\":4925:4928   */\n      0x80\n        /* \"#utility.yul\":4914:4923   */\n      dup5\n        /* \"#utility.yul\":4910:4929   */\n      add\n        /* \"#utility.yul\":4897:4930   */\n      calldataload\n        /* \"#utility.yul\":4881:4930   */\n      swap2\n      pop\n        /* \"#utility.yul\":4955:4957   */\n      dup1\n        /* \"#utility.yul\":4945:4953   */\n      dup3\n        /* \"#utility.yul\":4942:4958   */\n      gt\n        /* \"#utility.yul\":4939:4975   */\n      iszero\n      tag_339\n      jumpi\n        /* \"#utility.yul\":4971:4972   */\n      0x00\n        /* \"#utility.yul\":4968:4969   */\n      dup1\n        /* \"#utility.yul\":4961:4973   */\n      revert\n        /* \"#utility.yul\":4939:4975   */\n    tag_339:\n        /* \"#utility.yul\":5008:5056   */\n      tag_340\n        /* \"#utility.yul\":5052:5055   */\n      dup6\n        /* \"#utility.yul\":5041:5049   */\n      dup4\n        /* \"#utility.yul\":5030:5039   */\n      dup7\n        /* \"#utility.yul\":5026:5050   */\n      add\n        /* \"#utility.yul\":5008:5056   */\n      tag_278\n      jump\t// in\n    tag_340:\n        /* \"#utility.yul\":5002:5005   */\n      0x80\n        /* \"#utility.yul\":4995:5000   */\n      dup5\n        /* \"#utility.yul\":4991:5006   */\n      add\n        /* \"#utility.yul\":4984:5057   */\n      mstore\n        /* \"#utility.yul\":5110:5113   */\n      0xa0\n        /* \"#utility.yul\":5099:5108   */\n      dup5\n        /* \"#utility.yul\":5095:5114   */\n      add\n        /* \"#utility.yul\":5082:5115   */\n      calldataload\n        /* \"#utility.yul\":5066:5115   */\n      swap2\n      pop\n        /* \"#utility.yul\":5140:5142   */\n      dup1\n        /* \"#utility.yul\":5130:5138   */\n      dup3\n        /* \"#utility.yul\":5127:5143   */\n      gt\n        /* \"#utility.yul\":5124:5160   */\n      iszero\n      tag_341\n      jumpi\n        /* \"#utility.yul\":5156:5157   */\n      0x00\n        /* \"#utility.yul\":5153:5154   */\n      dup1\n        /* \"#utility.yul\":5146:5158   */\n      revert\n        /* \"#utility.yul\":5124:5160   */\n    tag_341:\n        /* \"#utility.yul\":5193:5241   */\n      tag_342\n        /* \"#utility.yul\":5237:5240   */\n      dup6\n        /* \"#utility.yul\":5226:5234   */\n      dup4\n        /* \"#utility.yul\":5215:5224   */\n      dup7\n        /* \"#utility.yul\":5211:5235   */\n      add\n        /* \"#utility.yul\":5193:5241   */\n      tag_278\n      jump\t// in\n    tag_342:\n        /* \"#utility.yul\":5187:5190   */\n      0xa0\n        /* \"#utility.yul\":5180:5185   */\n      dup5\n        /* \"#utility.yul\":5176:5191   */\n      add\n        /* \"#utility.yul\":5169:5242   */\n      mstore\n        /* \"#utility.yul\":5295:5298   */\n      0xc0\n        /* \"#utility.yul\":5284:5293   */\n      dup5\n        /* \"#utility.yul\":5280:5299   */\n      add\n        /* \"#utility.yul\":5267:5300   */\n      calldataload\n        /* \"#utility.yul\":5251:5300   */\n      swap2\n      pop\n        /* \"#utility.yul\":5325:5327   */\n      dup1\n        /* \"#utility.yul\":5315:5323   */\n      dup3\n        /* \"#utility.yul\":5312:5328   */\n      gt\n        /* \"#utility.yul\":5309:5345   */\n      iszero\n      tag_343\n      jumpi\n        /* \"#utility.yul\":5341:5342   */\n      0x00\n        /* \"#utility.yul\":5338:5339   */\n      dup1\n        /* \"#utility.yul\":5331:5343   */\n      revert\n        /* \"#utility.yul\":5309:5345   */\n    tag_343:\n        /* \"#utility.yul\":5378:5426   */\n      tag_344\n        /* \"#utility.yul\":5422:5425   */\n      dup6\n        /* \"#utility.yul\":5411:5419   */\n      dup4\n        /* \"#utility.yul\":5400:5409   */\n      dup7\n        /* \"#utility.yul\":5396:5420   */\n      add\n        /* \"#utility.yul\":5378:5426   */\n      tag_278\n      jump\t// in\n    tag_344:\n        /* \"#utility.yul\":5372:5375   */\n      0xc0\n        /* \"#utility.yul\":5365:5370   */\n      dup5\n        /* \"#utility.yul\":5361:5376   */\n      add\n        /* \"#utility.yul\":5354:5427   */\n      mstore\n        /* \"#utility.yul\":5480:5483   */\n      0xe0\n        /* \"#utility.yul\":5469:5478   */\n      dup5\n        /* \"#utility.yul\":5465:5484   */\n      add\n        /* \"#utility.yul\":5452:5485   */\n      calldataload\n        /* \"#utility.yul\":5436:5485   */\n      swap2\n      pop\n        /* \"#utility.yul\":5510:5512   */\n      dup1\n        /* \"#utility.yul\":5500:5508   */\n      dup3\n        /* \"#utility.yul\":5497:5513   */\n      gt\n        /* \"#utility.yul\":5494:5530   */\n      iszero\n      tag_345\n      jumpi\n        /* \"#utility.yul\":5526:5527   */\n      0x00\n        /* \"#utility.yul\":5523:5524   */\n      dup1\n        /* \"#utility.yul\":5516:5528   */\n      revert\n        /* \"#utility.yul\":5494:5530   */\n    tag_345:\n        /* \"#utility.yul\":5563:5611   */\n      tag_346\n        /* \"#utility.yul\":5607:5610   */\n      dup6\n        /* \"#utility.yul\":5596:5604   */\n      dup4\n        /* \"#utility.yul\":5585:5594   */\n      dup7\n        /* \"#utility.yul\":5581:5605   */\n      add\n        /* \"#utility.yul\":5563:5611   */\n      tag_278\n      jump\t// in\n    tag_346:\n        /* \"#utility.yul\":5557:5560   */\n      0xe0\n        /* \"#utility.yul\":5550:5555   */\n      dup5\n        /* \"#utility.yul\":5546:5561   */\n      add\n        /* \"#utility.yul\":5539:5612   */\n      mstore\n        /* \"#utility.yul\":5631:5634   */\n      0x0100\n        /* \"#utility.yul\":5621:5634   */\n      swap2\n      pop\n        /* \"#utility.yul\":5687:5689   */\n      dup2\n        /* \"#utility.yul\":5676:5685   */\n      dup5\n        /* \"#utility.yul\":5672:5690   */\n      add\n        /* \"#utility.yul\":5659:5691   */\n      calldataload\n        /* \"#utility.yul\":5716:5718   */\n      dup2\n        /* \"#utility.yul\":5706:5714   */\n      dup2\n        /* \"#utility.yul\":5703:5719   */\n      gt\n        /* \"#utility.yul\":5700:5736   */\n      iszero\n      tag_347\n      jumpi\n        /* \"#utility.yul\":5732:5733   */\n      0x00\n        /* \"#utility.yul\":5729:5730   */\n      dup1\n        /* \"#utility.yul\":5722:5734   */\n      revert\n        /* \"#utility.yul\":5700:5736   */\n    tag_347:\n        /* \"#utility.yul\":5768:5816   */\n      tag_348\n        /* \"#utility.yul\":5812:5815   */\n      dup7\n        /* \"#utility.yul\":5801:5809   */\n      dup3\n        /* \"#utility.yul\":5790:5799   */\n      dup8\n        /* \"#utility.yul\":5786:5810   */\n      add\n        /* \"#utility.yul\":5768:5816   */\n      tag_278\n      jump\t// in\n    tag_348:\n        /* \"#utility.yul\":5763:5765   */\n      dup4\n        /* \"#utility.yul\":5756:5761   */\n      dup6\n        /* \"#utility.yul\":5752:5766   */\n      add\n        /* \"#utility.yul\":5745:5817   */\n      mstore\n      pop\n        /* \"#utility.yul\":5836:5839   */\n      0x0120\n        /* \"#utility.yul\":5826:5839   */\n      swap2\n      pop\n        /* \"#utility.yul\":5892:5894   */\n      dup2\n        /* \"#utility.yul\":5881:5890   */\n      dup5\n        /* \"#utility.yul\":5877:5895   */\n      add\n        /* \"#utility.yul\":5864:5896   */\n      calldataload\n        /* \"#utility.yul\":5921:5923   */\n      dup2\n        /* \"#utility.yul\":5911:5919   */\n      dup2\n        /* \"#utility.yul\":5908:5924   */\n      gt\n        /* \"#utility.yul\":5905:5941   */\n      iszero\n      tag_349\n      jumpi\n        /* \"#utility.yul\":5937:5938   */\n      0x00\n        /* \"#utility.yul\":5934:5935   */\n      dup1\n        /* \"#utility.yul\":5927:5939   */\n      revert\n        /* \"#utility.yul\":5905:5941   */\n    tag_349:\n        /* \"#utility.yul\":5973:6021   */\n      tag_350\n        /* \"#utility.yul\":6017:6020   */\n      dup7\n        /* \"#utility.yul\":6006:6014   */\n      dup3\n        /* \"#utility.yul\":5995:6004   */\n      dup8\n        /* \"#utility.yul\":5991:6015   */\n      add\n        /* \"#utility.yul\":5973:6021   */\n      tag_278\n      jump\t// in\n    tag_350:\n        /* \"#utility.yul\":5968:5970   */\n      dup4\n        /* \"#utility.yul\":5961:5966   */\n      dup6\n        /* \"#utility.yul\":5957:5971   */\n      add\n        /* \"#utility.yul\":5950:6022   */\n      mstore\n      pop\n      pop\n      pop\n        /* \"#utility.yul\":3957:6028   */\n      swap3\n      swap2\n      pop\n      pop\n      jump\t// out\n        /* \"#utility.yul\":6033:7724   */\n    tag_33:\n        /* \"#utility.yul\":6259:6265   */\n      0x00\n        /* \"#utility.yul\":6267:6273   */\n      dup1\n        /* \"#utility.yul\":6275:6281   */\n      0x00\n        /* \"#utility.yul\":6283:6289   */\n      dup1\n        /* \"#utility.yul\":6291:6297   */\n      0x00\n        /* \"#utility.yul\":6335:6344   */\n      dup6\n        /* \"#utility.yul\":6326:6333   */\n      dup8\n        /* \"#utility.yul\":6322:6345   */\n      sub\n        /* \"#utility.yul\":6365:6368   */\n      0x02e0\n        /* \"#utility.yul\":6361:6363   */\n      dup2\n        /* \"#utility.yul\":6357:6369   */\n      slt\n        /* \"#utility.yul\":6354:6386   */\n      iszero\n      tag_352\n      jumpi\n        /* \"#utility.yul\":6382:6383   */\n      0x00\n        /* \"#utility.yul\":6379:6380   */\n      dup1\n        /* \"#utility.yul\":6372:6384   */\n      revert\n        /* \"#utility.yul\":6354:6386   */\n    tag_352:\n        /* \"#utility.yul\":6405:6411   */\n      0x0160\n        /* \"#utility.yul\":6431:6433   */\n      dup1\n        /* \"#utility.yul\":6427:6429   */\n      dup3\n        /* \"#utility.yul\":6423:6434   */\n      slt\n        /* \"#utility.yul\":6420:6451   */\n      iszero\n      tag_353\n      jumpi\n        /* \"#utility.yul\":6447:6448   */\n      0x00\n        /* \"#utility.yul\":6444:6445   */\n      dup1\n        /* \"#utility.yul\":6437:6449   */\n      revert\n        /* \"#utility.yul\":6420:6451   */\n    tag_353:\n        /* \"#utility.yul\":6473:6490   */\n      tag_354\n      tag_271\n      jump\t// in\n    tag_354:\n        /* \"#utility.yul\":6460:6490   */\n      swap2\n      pop\n        /* \"#utility.yul\":6513:6542   */\n      tag_355\n        /* \"#utility.yul\":6532:6541   */\n      dup9\n        /* \"#utility.yul\":6513:6542   */\n      tag_273\n      jump\t// in\n    tag_355:\n        /* \"#utility.yul\":6506:6511   */\n      dup3\n        /* \"#utility.yul\":6499:6543   */\n      mstore\n        /* \"#utility.yul\":6575:6613   */\n      tag_356\n        /* \"#utility.yul\":6609:6611   */\n      0x20\n        /* \"#utility.yul\":6598:6607   */\n      dup10\n        /* \"#utility.yul\":6594:6612   */\n      add\n        /* \"#utility.yul\":6575:6613   */\n      tag_273\n      jump\t// in\n    tag_356:\n        /* \"#utility.yul\":6570:6572   */\n      0x20\n        /* \"#utility.yul\":6563:6568   */\n      dup4\n        /* \"#utility.yul\":6559:6573   */\n      add\n        /* \"#utility.yul\":6552:6614   */\n      mstore\n        /* \"#utility.yul\":6674:6676   */\n      0x40\n        /* \"#utility.yul\":6663:6672   */\n      dup9\n        /* \"#utility.yul\":6659:6677   */\n      add\n        /* \"#utility.yul\":6646:6678   */\n      calldataload\n        /* \"#utility.yul\":6641:6643   */\n      0x40\n        /* \"#utility.yul\":6634:6639   */\n      dup4\n        /* \"#utility.yul\":6630:6644   */\n      add\n        /* \"#utility.yul\":6623:6679   */\n      mstore\n        /* \"#utility.yul\":6739:6741   */\n      0x60\n        /* \"#utility.yul\":6728:6737   */\n      dup9\n        /* \"#utility.yul\":6724:6742   */\n      add\n        /* \"#utility.yul\":6711:6743   */\n      calldataload\n        /* \"#utility.yul\":6706:6708   */\n      0x60\n        /* \"#utility.yul\":6699:6704   */\n      dup4\n        /* \"#utility.yul\":6695:6709   */\n      add\n        /* \"#utility.yul\":6688:6744   */\n      mstore\n        /* \"#utility.yul\":6805:6808   */\n      0x80\n        /* \"#utility.yul\":6794:6803   */\n      dup9\n        /* \"#utility.yul\":6790:6809   */\n      add\n        /* \"#utility.yul\":6777:6810   */\n      calldataload\n        /* \"#utility.yul\":6771:6774   */\n      0x80\n        /* \"#utility.yul\":6764:6769   */\n      dup4\n        /* \"#utility.yul\":6760:6775   */\n      add\n        /* \"#utility.yul\":6753:6811   */\n      mstore\n        /* \"#utility.yul\":6872:6875   */\n      0xa0\n        /* \"#utility.yul\":6861:6870   */\n      dup9\n        /* \"#utility.yul\":6857:6876   */\n      add\n        /* \"#utility.yul\":6844:6877   */\n      calldataload\n        /* \"#utility.yul\":6838:6841   */\n      0xa0\n        /* \"#utility.yul\":6831:6836   */\n      dup4\n        /* \"#utility.yul\":6827:6842   */\n      add\n        /* \"#utility.yul\":6820:6878   */\n      mstore\n        /* \"#utility.yul\":6939:6942   */\n      0xc0\n        /* \"#utility.yul\":6928:6937   */\n      dup9\n        /* \"#utility.yul\":6924:6943   */\n      add\n        /* \"#utility.yul\":6911:6944   */\n      calldataload\n        /* \"#utility.yul\":6905:6908   */\n      0xc0\n        /* \"#utility.yul\":6898:6903   */\n      dup4\n        /* \"#utility.yul\":6894:6909   */\n      add\n        /* \"#utility.yul\":6887:6945   */\n      mstore\n        /* \"#utility.yul\":7006:7009   */\n      0xe0\n        /* \"#utility.yul\":6995:7004   */\n      dup9\n        /* \"#utility.yul\":6991:7010   */\n      add\n        /* \"#utility.yul\":6978:7011   */\n      calldataload\n        /* \"#utility.yul\":6972:6975   */\n      0xe0\n        /* \"#utility.yul\":6965:6970   */\n      dup4\n        /* \"#utility.yul\":6961:6976   */\n      add\n        /* \"#utility.yul\":6954:7012   */\n      mstore\n        /* \"#utility.yul\":7031:7034   */\n      0x0100\n        /* \"#utility.yul\":7094:7096   */\n      dup1\n        /* \"#utility.yul\":7083:7092   */\n      dup10\n        /* \"#utility.yul\":7079:7097   */\n      add\n        /* \"#utility.yul\":7066:7098   */\n      calldataload\n        /* \"#utility.yul\":7061:7063   */\n      dup2\n        /* \"#utility.yul\":7054:7059   */\n      dup5\n        /* \"#utility.yul\":7050:7064   */\n      add\n        /* \"#utility.yul\":7043:7099   */\n      mstore\n      pop\n        /* \"#utility.yul\":7118:7121   */\n      0x0120\n        /* \"#utility.yul\":7181:7183   */\n      dup1\n        /* \"#utility.yul\":7170:7179   */\n      dup10\n        /* \"#utility.yul\":7166:7184   */\n      add\n        /* \"#utility.yul\":7153:7185   */\n      calldataload\n        /* \"#utility.yul\":7148:7150   */\n      dup2\n        /* \"#utility.yul\":7141:7146   */\n      dup5\n        /* \"#utility.yul\":7137:7151   */\n      add\n        /* \"#utility.yul\":7130:7186   */\n      mstore\n      pop\n        /* \"#utility.yul\":7205:7208   */\n      0x0140\n        /* \"#utility.yul\":7268:7270   */\n      dup1\n        /* \"#utility.yul\":7257:7266   */\n      dup10\n        /* \"#utility.yul\":7253:7271   */\n      add\n        /* \"#utility.yul\":7240:7272   */\n      calldataload\n        /* \"#utility.yul\":7235:7237   */\n      dup2\n        /* \"#utility.yul\":7228:7233   */\n      dup5\n        /* \"#utility.yul\":7224:7238   */\n      add\n        /* \"#utility.yul\":7217:7273   */\n      mstore\n      pop\n        /* \"#utility.yul\":7292:7297   */\n      dup2\n        /* \"#utility.yul\":7282:7297   */\n      swap7\n      pop\n        /* \"#utility.yul\":7316:7372   */\n      tag_357\n        /* \"#utility.yul\":7364:7371   */\n      dup10\n        /* \"#utility.yul\":7359:7361   */\n      dup3\n        /* \"#utility.yul\":7348:7357   */\n      dup11\n        /* \"#utility.yul\":7344:7362   */\n      add\n        /* \"#utility.yul\":7316:7372   */\n      tag_274\n      jump\t// in\n    tag_357:\n        /* \"#utility.yul\":7306:7372   */\n      swap6\n      pop\n      pop\n      pop\n        /* \"#utility.yul\":7391:7446   */\n      tag_358\n        /* \"#utility.yul\":7438:7445   */\n      dup8\n        /* \"#utility.yul\":7432:7435   */\n      0x01c0\n        /* \"#utility.yul\":7421:7430   */\n      dup9\n        /* \"#utility.yul\":7417:7436   */\n      add\n        /* \"#utility.yul\":7391:7446   */\n      tag_276\n      jump\t// in\n    tag_358:\n        /* \"#utility.yul\":7381:7446   */\n      swap3\n      pop\n        /* \"#utility.yul\":7465:7522   */\n      tag_359\n        /* \"#utility.yul\":7514:7521   */\n      dup8\n        /* \"#utility.yul\":7508:7511   */\n      0x0280\n        /* \"#utility.yul\":7497:7506   */\n      dup9\n        /* \"#utility.yul\":7493:7512   */\n      add\n        /* \"#utility.yul\":7465:7522   */\n      tag_277\n      jump\t// in\n    tag_359:\n        /* \"#utility.yul\":7455:7522   */\n      swap2\n      pop\n        /* \"#utility.yul\":7573:7576   */\n      0x02c0\n        /* \"#utility.yul\":7562:7571   */\n      dup7\n        /* \"#utility.yul\":7558:7577   */\n      add\n        /* \"#utility.yul\":7545:7578   */\n      calldataload\n        /* \"#utility.yul\":7601:7619   */\n      0xffffffffffffffff\n        /* \"#utility.yul\":7593:7599   */\n      dup2\n        /* \"#utility.yul\":7590:7620   */\n      gt\n        /* \"#utility.yul\":7587:7637   */\n      iszero\n      tag_360\n      jumpi\n        /* \"#utility.yul\":7633:7634   */\n      0x00\n        /* \"#utility.yul\":7630:7631   */\n      dup1\n        /* \"#utility.yul\":7623:7635   */\n      revert\n        /* \"#utility.yul\":7587:7637   */\n    tag_360:\n        /* \"#utility.yul\":7656:7718   */\n      tag_361\n        /* \"#utility.yul\":7710:7717   */\n      dup9\n        /* \"#utility.yul\":7701:7707   */\n      dup3\n        /* \"#utility.yul\":7690:7699   */\n      dup10\n        /* \"#utility.yul\":7686:7708   */\n      add\n        /* \"#utility.yul\":7656:7718   */\n      tag_279\n      jump\t// in\n    tag_361:\n        /* \"#utility.yul\":7646:7718   */\n      swap2\n      pop\n      pop\n        /* \"#utility.yul\":6033:7724   */\n      swap3\n      swap6\n      pop\n      swap3\n      swap6\n      swap1\n      swap4\n      pop\n      jump\t// out\n        /* \"#utility.yul\":8137:8384   */\n    tag_53:\n        /* \"#utility.yul\":8196:8202   */\n      0x00\n        /* \"#utility.yul\":8249:8251   */\n      0x20\n        /* \"#utility.yul\":8237:8246   */\n      dup3\n        /* \"#utility.yul\":8228:8235   */\n      dup5\n        /* \"#utility.yul\":8224:8247   */\n      sub\n        /* \"#utility.yul\":8220:8252   */\n      slt\n        /* \"#utility.yul\":8217:8269   */\n      iszero\n      tag_365\n      jumpi\n        /* \"#utility.yul\":8265:8266   */\n      0x00\n        /* \"#utility.yul\":8262:8263   */\n      dup1\n        /* \"#utility.yul\":8255:8267   */\n      revert\n        /* \"#utility.yul\":8217:8269   */\n    tag_365:\n        /* \"#utility.yul\":8304:8313   */\n      dup2\n        /* \"#utility.yul\":8291:8314   */\n      calldataload\n        /* \"#utility.yul\":8323:8354   */\n      tag_366\n        /* \"#utility.yul\":8348:8353   */\n      dup2\n        /* \"#utility.yul\":8323:8354   */\n      tag_272\n      jump\t// in\n    tag_366:\n        /* \"#utility.yul\":8373:8378   */\n      swap4\n        /* \"#utility.yul\":8137:8384   */\n      swap3\n      pop\n      pop\n      pop\n      jump\t// out\n        /* \"#utility.yul\":8706:9382   */\n    tag_69:\n        /* \"#utility.yul\":8895:8897   */\n      0x20\n        /* \"#utility.yul\":8947:8968   */\n      dup1\n      dup3\n      mstore\n        /* \"#utility.yul\":9017:9030   */\n      dup3\n      mload\n        /* \"#utility.yul\":8920:8938   */\n      dup3\n      dup3\n      add\n        /* \"#utility.yul\":9039:9061   */\n      dup2\n      swap1\n      mstore\n        /* \"#utility.yul\":8866:8870   */\n      0x00\n      swap2\n        /* \"#utility.yul\":8895:8897   */\n      swap1\n        /* \"#utility.yul\":9118:9133   */\n      dup5\n      dup3\n      add\n      swap1\n        /* \"#utility.yul\":9092:9094   */\n      0x40\n        /* \"#utility.yul\":9077:9095   */\n      dup6\n      add\n      swap1\n        /* \"#utility.yul\":8866:8870   */\n      dup5\n        /* \"#utility.yul\":9161:9356   */\n    tag_370:\n        /* \"#utility.yul\":9175:9181   */\n      dup2\n        /* \"#utility.yul\":9172:9173   */\n      dup2\n        /* \"#utility.yul\":9169:9182   */\n      lt\n        /* \"#utility.yul\":9161:9356   */\n      iszero\n      tag_372\n      jumpi\n        /* \"#utility.yul\":9240:9253   */\n      dup4\n      mload\n      sub(shl(0xa0, 0x01), 0x01)\n        /* \"#utility.yul\":9236:9275   */\n      and\n        /* \"#utility.yul\":9224:9276   */\n      dup4\n      mstore\n        /* \"#utility.yul\":9331:9346   */\n      swap3\n      dup5\n      add\n      swap3\n        /* \"#utility.yul\":9296:9308   */\n      swap2\n      dup5\n      add\n      swap2\n        /* \"#utility.yul\":9272:9273   */\n      0x01\n        /* \"#utility.yul\":9190:9199   */\n      add\n        /* \"#utility.yul\":9161:9356   */\n      jump(tag_370)\n    tag_372:\n      pop\n        /* \"#utility.yul\":9373:9376   */\n      swap1\n      swap7\n        /* \"#utility.yul\":8706:9382   */\n      swap6\n      pop\n      pop\n      pop\n      pop\n      pop\n      pop\n      jump\t// out\n        /* \"#utility.yul\":9647:10567   */\n    tag_97:\n        /* \"#utility.yul\":9742:9748   */\n      0x00\n        /* \"#utility.yul\":9795:9798   */\n      0xe0\n        /* \"#utility.yul\":9783:9792   */\n      dup3\n        /* \"#utility.yul\":9774:9781   */\n      dup5\n        /* \"#utility.yul\":9770:9793   */\n      sub\n        /* \"#utility.yul\":9766:9799   */\n      slt\n        /* \"#utility.yul\":9763:9816   */\n      iszero\n      tag_377\n      jumpi\n        /* \"#utility.yul\":9812:9813   */\n      0x00\n        /* \"#utility.yul\":9809:9810   */\n      dup1\n        /* \"#utility.yul\":9802:9814   */\n      revert\n        /* \"#utility.yul\":9763:9816   */\n    tag_377:\n        /* \"#utility.yul\":9845:9847   */\n      0x40\n        /* \"#utility.yul\":9839:9848   */\n      mload\n        /* \"#utility.yul\":9887:9890   */\n      0xe0\n        /* \"#utility.yul\":9879:9885   */\n      dup2\n        /* \"#utility.yul\":9875:9891   */\n      add\n        /* \"#utility.yul\":9957:9963   */\n      dup2\n        /* \"#utility.yul\":9945:9955   */\n      dup2\n        /* \"#utility.yul\":9942:9964   */\n      lt\n        /* \"#utility.yul\":9921:9939   */\n      0xffffffffffffffff\n        /* \"#utility.yul\":9909:9919   */\n      dup3\n        /* \"#utility.yul\":9906:9940   */\n      gt\n        /* \"#utility.yul\":9903:9965   */\n      or\n        /* \"#utility.yul\":9900:9988   */\n      iszero\n      tag_379\n      jumpi\n        /* \"#utility.yul\":9968:9986   */\n      tag_379\n      tag_269\n      jump\t// in\n    tag_379:\n        /* \"#utility.yul\":10004:10006   */\n      0x40\n        /* \"#utility.yul\":9997:10019   */\n      mstore\n        /* \"#utility.yul\":10041:10064   */\n      dup3\n      calldataload\n        /* \"#utility.yul\":10073:10104   */\n      tag_380\n        /* \"#utility.yul\":10041:10064   */\n      dup2\n        /* \"#utility.yul\":10073:10104   */\n      tag_272\n      jump\t// in\n    tag_380:\n        /* \"#utility.yul\":10128:10133   */\n      dup1\n        /* \"#utility.yul\":10120:10126   */\n      dup3\n        /* \"#utility.yul\":10113:10134   */\n      mstore\n      pop\n        /* \"#utility.yul\":10195:10197   */\n      0x20\n        /* \"#utility.yul\":10184:10193   */\n      dup4\n        /* \"#utility.yul\":10180:10198   */\n      add\n        /* \"#utility.yul\":10167:10199   */\n      calldataload\n        /* \"#utility.yul\":10162:10164   */\n      0x20\n        /* \"#utility.yul\":10154:10160   */\n      dup3\n        /* \"#utility.yul\":10150:10165   */\n      add\n        /* \"#utility.yul\":10143:10200   */\n      mstore\n        /* \"#utility.yul\":10261:10263   */\n      0x40\n        /* \"#utility.yul\":10250:10259   */\n      dup4\n        /* \"#utility.yul\":10246:10264   */\n      add\n        /* \"#utility.yul\":10233:10265   */\n      calldataload\n        /* \"#utility.yul\":10228:10230   */\n      0x40\n        /* \"#utility.yul\":10220:10226   */\n      dup3\n        /* \"#utility.yul\":10216:10231   */\n      add\n        /* \"#utility.yul\":10209:10266   */\n      mstore\n        /* \"#utility.yul\":10327:10329   */\n      0x60\n        /* \"#utility.yul\":10316:10325   */\n      dup4\n        /* \"#utility.yul\":10312:10330   */\n      add\n        /* \"#utility.yul\":10299:10331   */\n      calldataload\n        /* \"#utility.yul\":10294:10296   */\n      0x60\n        /* \"#utility.yul\":10286:10292   */\n      dup3\n        /* \"#utility.yul\":10282:10297   */\n      add\n        /* \"#utility.yul\":10275:10332   */\n      mstore\n        /* \"#utility.yul\":10394:10397   */\n      0x80\n        /* \"#utility.yul\":10383:10392   */\n      dup4\n        /* \"#utility.yul\":10379:10398   */\n      add\n        /* \"#utility.yul\":10366:10399   */\n      calldataload\n        /* \"#utility.yul\":10360:10363   */\n      0x80\n        /* \"#utility.yul\":10352:10358   */\n      dup3\n        /* \"#utility.yul\":10348:10364   */\n      add\n        /* \"#utility.yul\":10341:10400   */\n      mstore\n        /* \"#utility.yul\":10462:10465   */\n      0xa0\n        /* \"#utility.yul\":10451:10460   */\n      dup4\n        /* \"#utility.yul\":10447:10466   */\n      add\n        /* \"#utility.yul\":10434:10467   */\n      calldataload\n        /* \"#utility.yul\":10428:10431   */\n      0xa0\n        /* \"#utility.yul\":10420:10426   */\n      dup3\n        /* \"#utility.yul\":10416:10432   */\n      add\n        /* \"#utility.yul\":10409:10468   */\n      mstore\n        /* \"#utility.yul\":10530:10533   */\n      0xc0\n        /* \"#utility.yul\":10519:10528   */\n      dup4\n        /* \"#utility.yul\":10515:10534   */\n      add\n        /* \"#utility.yul\":10502:10535   */\n      calldataload\n        /* \"#utility.yul\":10496:10499   */\n      0xc0\n        /* \"#utility.yul\":10488:10494   */\n      dup3\n        /* \"#utility.yul\":10484:10500   */\n      add\n        /* \"#utility.yul\":10477:10536   */\n      mstore\n        /* \"#utility.yul\":10555:10561   */\n      dup1\n        /* \"#utility.yul\":10545:10561   */\n      swap2\n      pop\n      pop\n        /* \"#utility.yul\":9647:10567   */\n      swap3\n      swap2\n      pop\n      pop\n      jump\t// out\n        /* \"#utility.yul\":11825:12098   */\n    tag_140:\n        /* \"#utility.yul\":11893:11899   */\n      0x00\n        /* \"#utility.yul\":11946:11948   */\n      0x20\n        /* \"#utility.yul\":11934:11943   */\n      dup3\n        /* \"#utility.yul\":11925:11932   */\n      dup5\n        /* \"#utility.yul\":11921:11944   */\n      sub\n        /* \"#utility.yul\":11917:11949   */\n      slt\n        /* \"#utility.yul\":11914:11966   */\n      iszero\n      tag_386\n      jumpi\n        /* \"#utility.yul\":11962:11963   */\n      0x00\n        /* \"#utility.yul\":11959:11960   */\n      dup1\n        /* \"#utility.yul\":11952:11964   */\n      revert\n        /* \"#utility.yul\":11914:11966   */\n    tag_386:\n        /* \"#utility.yul\":11994:12003   */\n      dup2\n        /* \"#utility.yul\":11988:12004   */\n      mload\n        /* \"#utility.yul\":12044:12048   */\n      0xff\n        /* \"#utility.yul\":12037:12042   */\n      dup2\n        /* \"#utility.yul\":12033:12049   */\n      and\n        /* \"#utility.yul\":12026:12031   */\n      dup2\n        /* \"#utility.yul\":12023:12050   */\n      eq\n        /* \"#utility.yul\":12013:12068   */\n      tag_366\n      jumpi\n        /* \"#utility.yul\":12064:12065   */\n      0x00\n        /* \"#utility.yul\":12061:12062   */\n      dup1\n        /* \"#utility.yul\":12054:12066   */\n      revert\n        /* \"#utility.yul\":13305:13728   */\n    tag_285:\n        /* \"#utility.yul\":13347:13350   */\n      0x00\n        /* \"#utility.yul\":13385:13390   */\n      dup2\n        /* \"#utility.yul\":13379:13391   */\n      mload\n        /* \"#utility.yul\":13412:13418   */\n      dup1\n        /* \"#utility.yul\":13407:13410   */\n      dup5\n        /* \"#utility.yul\":13400:13419   */\n      mstore\n        /* \"#utility.yul\":13437:13438   */\n      0x00\n        /* \"#utility.yul\":13447:13609   */\n    tag_393:\n        /* \"#utility.yul\":13461:13467   */\n      dup2\n        /* \"#utility.yul\":13458:13459   */\n      dup2\n        /* \"#utility.yul\":13455:13468   */\n      lt\n        /* \"#utility.yul\":13447:13609   */\n      iszero\n      tag_395\n      jumpi\n        /* \"#utility.yul\":13523:13527   */\n      0x20\n        /* \"#utility.yul\":13579:13592   */\n      dup2\n      dup6\n      add\n        /* \"#utility.yul\":13575:13597   */\n      dup2\n      add\n        /* \"#utility.yul\":13569:13598   */\n      mload\n        /* \"#utility.yul\":13551:13562   */\n      dup7\n      dup4\n      add\n        /* \"#utility.yul\":13547:13567   */\n      dup3\n      add\n        /* \"#utility.yul\":13540:13599   */\n      mstore\n        /* \"#utility.yul\":13476:13488   */\n      add\n        /* \"#utility.yul\":13447:13609   */\n      jump(tag_393)\n    tag_395:\n        /* \"#utility.yul\":13451:13454   */\n      pop\n        /* \"#utility.yul\":13654:13655   */\n      0x00\n        /* \"#utility.yul\":13647:13651   */\n      0x20\n        /* \"#utility.yul\":13638:13644   */\n      dup3\n        /* \"#utility.yul\":13633:13636   */\n      dup7\n        /* \"#utility.yul\":13629:13645   */\n      add\n        /* \"#utility.yul\":13625:13652   */\n      add\n        /* \"#utility.yul\":13618:13656   */\n      mstore\n        /* \"#utility.yul\":13717:13721   */\n      0x20\n        /* \"#utility.yul\":13710:13712   */\n      0x1f\n        /* \"#utility.yul\":13706:13713   */\n      not\n        /* \"#utility.yul\":13701:13703   */\n      0x1f\n        /* \"#utility.yul\":13693:13699   */\n      dup4\n        /* \"#utility.yul\":13689:13704   */\n      add\n        /* \"#utility.yul\":13685:13714   */\n      and\n        /* \"#utility.yul\":13680:13683   */\n      dup6\n        /* \"#utility.yul\":13676:13715   */\n      add\n        /* \"#utility.yul\":13672:13722   */\n      add\n        /* \"#utility.yul\":13665:13722   */\n      swap2\n      pop\n      pop\n        /* \"#utility.yul\":13305:13728   */\n      swap3\n      swap2\n      pop\n      pop\n      jump\t// out\n        /* \"#utility.yul\":13733:15492   */\n    tag_286:\n        /* \"#utility.yul\":13787:13790   */\n      0x00\n        /* \"#utility.yul\":13815:13821   */\n      0x0140\n        /* \"#utility.yul\":13856:13861   */\n      dup3\n        /* \"#utility.yul\":13850:13862   */\n      mload\n        /* \"#utility.yul\":13883:13885   */\n      dup2\n        /* \"#utility.yul\":13878:13881   */\n      dup6\n        /* \"#utility.yul\":13871:13886   */\n      mstore\n        /* \"#utility.yul\":13907:13952   */\n      tag_397\n        /* \"#utility.yul\":13948:13950   */\n      dup3\n        /* \"#utility.yul\":13943:13946   */\n      dup7\n        /* \"#utility.yul\":13939:13951   */\n      add\n        /* \"#utility.yul\":13925:13937   */\n      dup3\n        /* \"#utility.yul\":13907:13952   */\n      tag_285\n      jump\t// in\n    tag_397:\n        /* \"#utility.yul\":13895:13952   */\n      swap2\n      pop\n      pop\n        /* \"#utility.yul\":14000:14004   */\n      0x20\n        /* \"#utility.yul\":13993:13998   */\n      dup4\n        /* \"#utility.yul\":13989:14005   */\n      add\n        /* \"#utility.yul\":13983:14006   */\n      mload\n        /* \"#utility.yul\":14048:14051   */\n      dup5\n        /* \"#utility.yul\":14042:14046   */\n      dup3\n        /* \"#utility.yul\":14038:14052   */\n      sub\n        /* \"#utility.yul\":14031:14035   */\n      0x20\n        /* \"#utility.yul\":14026:14029   */\n      dup7\n        /* \"#utility.yul\":14022:14036   */\n      add\n        /* \"#utility.yul\":14015:14053   */\n      mstore\n        /* \"#utility.yul\":14076:14115   */\n      tag_398\n        /* \"#utility.yul\":14110:14114   */\n      dup3\n        /* \"#utility.yul\":14094:14108   */\n      dup3\n        /* \"#utility.yul\":14076:14115   */\n      tag_285\n      jump\t// in\n    tag_398:\n        /* \"#utility.yul\":14062:14115   */\n      swap2\n      pop\n      pop\n        /* \"#utility.yul\":14163:14167   */\n      0x40\n        /* \"#utility.yul\":14156:14161   */\n      dup4\n        /* \"#utility.yul\":14152:14168   */\n      add\n        /* \"#utility.yul\":14146:14169   */\n      mload\n        /* \"#utility.yul\":14213:14216   */\n      dup5\n        /* \"#utility.yul\":14205:14211   */\n      dup3\n        /* \"#utility.yul\":14201:14217   */\n      sub\n        /* \"#utility.yul\":14194:14198   */\n      0x40\n        /* \"#utility.yul\":14189:14192   */\n      dup7\n        /* \"#utility.yul\":14185:14199   */\n      add\n        /* \"#utility.yul\":14178:14218   */\n      mstore\n        /* \"#utility.yul\":14241:14282   */\n      tag_399\n        /* \"#utility.yul\":14275:14281   */\n      dup3\n        /* \"#utility.yul\":14259:14273   */\n      dup3\n        /* \"#utility.yul\":14241:14282   */\n      tag_285\n      jump\t// in\n    tag_399:\n        /* \"#utility.yul\":14227:14282   */\n      swap2\n      pop\n      pop\n        /* \"#utility.yul\":14330:14334   */\n      0x60\n        /* \"#utility.yul\":14323:14328   */\n      dup4\n        /* \"#utility.yul\":14319:14335   */\n      add\n        /* \"#utility.yul\":14313:14336   */\n      mload\n        /* \"#utility.yul\":14380:14383   */\n      dup5\n        /* \"#utility.yul\":14372:14378   */\n      dup3\n        /* \"#utility.yul\":14368:14384   */\n      sub\n        /* \"#utility.yul\":14361:14365   */\n      0x60\n        /* \"#utility.yul\":14356:14359   */\n      dup7\n        /* \"#utility.yul\":14352:14366   */\n      add\n        /* \"#utility.yul\":14345:14385   */\n      mstore\n        /* \"#utility.yul\":14408:14449   */\n      tag_400\n        /* \"#utility.yul\":14442:14448   */\n      dup3\n        /* \"#utility.yul\":14426:14440   */\n      dup3\n        /* \"#utility.yul\":14408:14449   */\n      tag_285\n      jump\t// in\n    tag_400:\n        /* \"#utility.yul\":14394:14449   */\n      swap2\n      pop\n      pop\n        /* \"#utility.yul\":14497:14501   */\n      0x80\n        /* \"#utility.yul\":14490:14495   */\n      dup4\n        /* \"#utility.yul\":14486:14502   */\n      add\n        /* \"#utility.yul\":14480:14503   */\n      mload\n        /* \"#utility.yul\":14547:14550   */\n      dup5\n        /* \"#utility.yul\":14539:14545   */\n      dup3\n        /* \"#utility.yul\":14535:14551   */\n      sub\n        /* \"#utility.yul\":14528:14532   */\n      0x80\n        /* \"#utility.yul\":14523:14526   */\n      dup7\n        /* \"#utility.yul\":14519:14533   */\n      add\n        /* \"#utility.yul\":14512:14552   */\n      mstore\n        /* \"#utility.yul\":14575:14616   */\n      tag_401\n        /* \"#utility.yul\":14609:14615   */\n      dup3\n        /* \"#utility.yul\":14593:14607   */\n      dup3\n        /* \"#utility.yul\":14575:14616   */\n      tag_285\n      jump\t// in\n    tag_401:\n        /* \"#utility.yul\":14561:14616   */\n      swap2\n      pop\n      pop\n        /* \"#utility.yul\":14664:14668   */\n      0xa0\n        /* \"#utility.yul\":14657:14662   */\n      dup4\n        /* \"#utility.yul\":14653:14669   */\n      add\n        /* \"#utility.yul\":14647:14670   */\n      mload\n        /* \"#utility.yul\":14714:14717   */\n      dup5\n        /* \"#utility.yul\":14706:14712   */\n      dup3\n        /* \"#utility.yul\":14702:14718   */\n      sub\n        /* \"#utility.yul\":14695:14699   */\n      0xa0\n        /* \"#utility.yul\":14690:14693   */\n      dup7\n        /* \"#utility.yul\":14686:14700   */\n      add\n        /* \"#utility.yul\":14679:14719   */\n      mstore\n        /* \"#utility.yul\":14742:14783   */\n      tag_402\n        /* \"#utility.yul\":14776:14782   */\n      dup3\n        /* \"#utility.yul\":14760:14774   */\n      dup3\n        /* \"#utility.yul\":14742:14783   */\n      tag_285\n      jump\t// in\n    tag_402:\n        /* \"#utility.yul\":14728:14783   */\n      swap2\n      pop\n      pop\n        /* \"#utility.yul\":14831:14835   */\n      0xc0\n        /* \"#utility.yul\":14824:14829   */\n      dup4\n        /* \"#utility.yul\":14820:14836   */\n      add\n        /* \"#utility.yul\":14814:14837   */\n      mload\n        /* \"#utility.yul\":14881:14884   */\n      dup5\n        /* \"#utility.yul\":14873:14879   */\n      dup3\n        /* \"#utility.yul\":14869:14885   */\n      sub\n        /* \"#utility.yul\":14862:14866   */\n      0xc0\n        /* \"#utility.yul\":14857:14860   */\n      dup7\n        /* \"#utility.yul\":14853:14867   */\n      add\n        /* \"#utility.yul\":14846:14886   */\n      mstore\n        /* \"#utility.yul\":14909:14950   */\n      tag_403\n        /* \"#utility.yul\":14943:14949   */\n      dup3\n        /* \"#utility.yul\":14927:14941   */\n      dup3\n        /* \"#utility.yul\":14909:14950   */\n      tag_285\n      jump\t// in\n    tag_403:\n        /* \"#utility.yul\":14895:14950   */\n      swap2\n      pop\n      pop\n        /* \"#utility.yul\":14998:15002   */\n      0xe0\n        /* \"#utility.yul\":14991:14996   */\n      dup4\n        /* \"#utility.yul\":14987:15003   */\n      add\n        /* \"#utility.yul\":14981:15004   */\n      mload\n        /* \"#utility.yul\":15048:15051   */\n      dup5\n        /* \"#utility.yul\":15040:15046   */\n      dup3\n        /* \"#utility.yul\":15036:15052   */\n      sub\n        /* \"#utility.yul\":15029:15033   */\n      0xe0\n        /* \"#utility.yul\":15024:15027   */\n      dup7\n        /* \"#utility.yul\":15020:15034   */\n      add\n        /* \"#utility.yul\":15013:15053   */\n      mstore\n        /* \"#utility.yul\":15076:15117   */\n      tag_404\n        /* \"#utility.yul\":15110:15116   */\n      dup3\n        /* \"#utility.yul\":15094:15108   */\n      dup3\n        /* \"#utility.yul\":15076:15117   */\n      tag_285\n      jump\t// in\n    tag_404:\n        /* \"#utility.yul\":15062:15117   */\n      swap2\n      pop\n      pop\n        /* \"#utility.yul\":15136:15142   */\n      0x0100\n        /* \"#utility.yul\":15190:15192   */\n      dup1\n        /* \"#utility.yul\":15183:15188   */\n      dup5\n        /* \"#utility.yul\":15179:15193   */\n      add\n        /* \"#utility.yul\":15173:15194   */\n      mload\n        /* \"#utility.yul\":15236:15239   */\n      dup6\n        /* \"#utility.yul\":15228:15234   */\n      dup4\n        /* \"#utility.yul\":15224:15240   */\n      sub\n        /* \"#utility.yul\":15219:15221   */\n      dup3\n        /* \"#utility.yul\":15214:15217   */\n      dup8\n        /* \"#utility.yul\":15210:15222   */\n      add\n        /* \"#utility.yul\":15203:15241   */\n      mstore\n        /* \"#utility.yul\":15264:15305   */\n      tag_405\n        /* \"#utility.yul\":15298:15304   */\n      dup4\n        /* \"#utility.yul\":15282:15296   */\n      dup3\n        /* \"#utility.yul\":15264:15305   */\n      tag_285\n      jump\t// in\n    tag_405:\n        /* \"#utility.yul\":15250:15305   */\n      swap3\n      pop\n      pop\n      pop\n        /* \"#utility.yul\":15324:15330   */\n      0x0120\n        /* \"#utility.yul\":15378:15380   */\n      dup1\n        /* \"#utility.yul\":15371:15376   */\n      dup5\n        /* \"#utility.yul\":15367:15381   */\n      add\n        /* \"#utility.yul\":15361:15382   */\n      mload\n        /* \"#utility.yul\":15424:15427   */\n      dup6\n        /* \"#utility.yul\":15416:15422   */\n      dup4\n        /* \"#utility.yul\":15412:15428   */\n      sub\n        /* \"#utility.yul\":15407:15409   */\n      dup3\n        /* \"#utility.yul\":15402:15405   */\n      dup8\n        /* \"#utility.yul\":15398:15410   */\n      add\n        /* \"#utility.yul\":15391:15429   */\n      mstore\n        /* \"#utility.yul\":15445:15486   */\n      tag_406\n        /* \"#utility.yul\":15479:15485   */\n      dup4\n        /* \"#utility.yul\":15463:15477   */\n      dup3\n        /* \"#utility.yul\":15445:15486   */\n      tag_285\n      jump\t// in\n    tag_406:\n        /* \"#utility.yul\":15438:15486   */\n      swap7\n        /* \"#utility.yul\":13733:15492   */\n      swap6\n      pop\n      pop\n      pop\n      pop\n      pop\n      pop\n      jump\t// out\n        /* \"#utility.yul\":15497:17411   */\n    tag_145:\n        /* \"#utility.yul\":16169:16182   */\n      dup9\n      mload\n      sub(shl(0xa0, 0x01), 0x01)\n        /* \"#utility.yul\":8455:8486   */\n      and\n        /* \"#utility.yul\":8443:8487   */\n      dup2\n      mstore\n        /* \"#utility.yul\":16109:16113   */\n      0x00\n        /* \"#utility.yul\":16138:16141   */\n      0x03a0\n        /* \"#utility.yul\":16241:16245   */\n      0x20\n        /* \"#utility.yul\":16233:16239   */\n      dup12\n        /* \"#utility.yul\":16229:16246   */\n      add\n        /* \"#utility.yul\":16223:16247   */\n      mload\n        /* \"#utility.yul\":16256:16310   */\n      tag_409\n        /* \"#utility.yul\":16304:16308   */\n      0x20\n        /* \"#utility.yul\":16293:16302   */\n      dup6\n        /* \"#utility.yul\":16289:16309   */\n      add\n        /* \"#utility.yul\":16275:16287   */\n      dup3\n      sub(shl(0xa0, 0x01), 0x01)\n        /* \"#utility.yul\":8455:8486   */\n      and\n        /* \"#utility.yul\":8443:8487   */\n      swap1\n      mstore\n        /* \"#utility.yul\":8389:8493   */\n      jump\n        /* \"#utility.yul\":16256:16310   */\n    tag_409:\n      pop\n        /* \"#utility.yul\":16366:16370   */\n      0x40\n        /* \"#utility.yul\":16354:16371   */\n      dup12\n      dup2\n      add\n        /* \"#utility.yul\":16348:16372   */\n      mload\n        /* \"#utility.yul\":16326:16346   */\n      dup5\n      dup3\n      add\n        /* \"#utility.yul\":16319:16373   */\n      mstore\n        /* \"#utility.yul\":16429:16433   */\n      0x60\n        /* \"#utility.yul\":16417:16434   */\n      dup1\n      dup14\n      add\n        /* \"#utility.yul\":16411:16435   */\n      mload\n        /* \"#utility.yul\":16389:16409   */\n      swap1\n      dup6\n      add\n        /* \"#utility.yul\":16382:16436   */\n      mstore\n        /* \"#utility.yul\":16492:16496   */\n      0x80\n        /* \"#utility.yul\":16480:16497   */\n      dup1\n      dup14\n      add\n        /* \"#utility.yul\":16474:16498   */\n      mload\n        /* \"#utility.yul\":16452:16472   */\n      swap1\n      dup6\n      add\n        /* \"#utility.yul\":16445:16499   */\n      mstore\n        /* \"#utility.yul\":16555:16559   */\n      0xa0\n        /* \"#utility.yul\":16543:16560   */\n      dup1\n      dup14\n      add\n        /* \"#utility.yul\":16537:16561   */\n      mload\n        /* \"#utility.yul\":16515:16535   */\n      swap1\n      dup6\n      add\n        /* \"#utility.yul\":16508:16562   */\n      mstore\n        /* \"#utility.yul\":16618:16622   */\n      0xc0\n        /* \"#utility.yul\":16606:16623   */\n      dup1\n      dup14\n      add\n        /* \"#utility.yul\":16600:16624   */\n      mload\n        /* \"#utility.yul\":16578:16598   */\n      swap1\n      dup6\n      add\n        /* \"#utility.yul\":16571:16625   */\n      mstore\n        /* \"#utility.yul\":16681:16685   */\n      0xe0\n        /* \"#utility.yul\":16669:16686   */\n      dup1\n      dup14\n      add\n        /* \"#utility.yul\":16663:16687   */\n      mload\n        /* \"#utility.yul\":16641:16661   */\n      swap1\n      dup6\n      add\n        /* \"#utility.yul\":16634:16688   */\n      mstore\n        /* \"#utility.yul\":16707:16713   */\n      0x0100\n        /* \"#utility.yul\":16755:16770   */\n      dup1\n      dup14\n      add\n        /* \"#utility.yul\":16749:16771   */\n      mload\n        /* \"#utility.yul\":16729:16747   */\n      swap1\n      dup6\n      add\n        /* \"#utility.yul\":16722:16772   */\n      mstore\n        /* \"#utility.yul\":16791:16797   */\n      0x0120\n        /* \"#utility.yul\":16839:16854   */\n      dup1\n      dup14\n      add\n        /* \"#utility.yul\":16833:16855   */\n      mload\n        /* \"#utility.yul\":16813:16831   */\n      swap1\n      dup6\n      add\n        /* \"#utility.yul\":16806:16856   */\n      mstore\n        /* \"#utility.yul\":16875:16881   */\n      0x0140\n        /* \"#utility.yul\":16923:16938   */\n      dup1\n      dup14\n      add\n        /* \"#utility.yul\":16917:16939   */\n      mload\n        /* \"#utility.yul\":16897:16915   */\n      swap1\n      dup6\n      add\n        /* \"#utility.yul\":16890:16940   */\n      mstore\n        /* \"#utility.yul\":12178:12190   */\n      dup11\n      mload\n        /* \"#utility.yul\":17000:17003   */\n      0x0160\n        /* \"#utility.yul\":16985:17004   */\n      dup6\n      add\n        /* \"#utility.yul\":12166:12191   */\n      mstore\n        /* \"#utility.yul\":12240:12244   */\n      0x20\n        /* \"#utility.yul\":12229:12245   */\n      dup12\n      add\n        /* \"#utility.yul\":12223:12246   */\n      mload\n        /* \"#utility.yul\":12207:12221   */\n      0x0180\n      dup6\n      add\n        /* \"#utility.yul\":12200:12247   */\n      mstore\n        /* \"#utility.yul\":12285:12301   */\n      dup11\n      add\n        /* \"#utility.yul\":12279:12302   */\n      mload\n        /* \"#utility.yul\":12263:12277   */\n      0x01a0\n      dup5\n      add\n        /* \"#utility.yul\":12256:12303   */\n      mstore\n        /* \"#utility.yul\":12401:12413   */\n      dup9\n      mload\n        /* \"#utility.yul\":12394:12414   */\n      iszero\n        /* \"#utility.yul\":12387:12415   */\n      iszero\n        /* \"#utility.yul\":17063:17066   */\n      0x01c0\n        /* \"#utility.yul\":17048:17067   */\n      dup5\n      add\n        /* \"#utility.yul\":12375:12416   */\n      mstore\n        /* \"#utility.yul\":12462:12466   */\n      0x20\n        /* \"#utility.yul\":12451:12467   */\n      dup10\n      add\n        /* \"#utility.yul\":12445:12468   */\n      mload\n      sub(shl(0xa0, 0x01), 0x01)\n        /* \"#utility.yul\":12538:12559   */\n      swap1\n      dup2\n      and\n        /* \"#utility.yul\":12522:12536   */\n      0x01e0\n      dup6\n      add\n        /* \"#utility.yul\":12515:12560   */\n      mstore\n        /* \"#utility.yul\":12613:12617   */\n      0x40\n        /* \"#utility.yul\":12602:12618   */\n      dup11\n      add\n        /* \"#utility.yul\":12596:12619   */\n      mload\n        /* \"#utility.yul\":12592:12624   */\n      and\n        /* \"#utility.yul\":12576:12590   */\n      0x0200\n      dup5\n      add\n        /* \"#utility.yul\":12569:12625   */\n      mstore\n        /* \"#utility.yul\":12674:12678   */\n      0x60\n        /* \"#utility.yul\":12663:12679   */\n      dup10\n      add\n        /* \"#utility.yul\":12657:12680   */\n      mload\n        /* \"#utility.yul\":12641:12655   */\n      0x0220\n      dup5\n      add\n        /* \"#utility.yul\":12634:12681   */\n      mstore\n        /* \"#utility.yul\":12730:12734   */\n      0x80\n        /* \"#utility.yul\":12719:12735   */\n      dup10\n      add\n        /* \"#utility.yul\":12713:12736   */\n      mload\n        /* \"#utility.yul\":12697:12711   */\n      0x0240\n      dup5\n      add\n        /* \"#utility.yul\":12690:12737   */\n      mstore\n        /* \"#utility.yul\":12495:12498   */\n      0xa0\n        /* \"#utility.yul\":12775:12791   */\n      dup10\n      add\n        /* \"#utility.yul\":12769:12792   */\n      mload\n        /* \"#utility.yul\":12753:12767   */\n      0x0260\n      dup5\n      add\n        /* \"#utility.yul\":12746:12793   */\n      mstore\n        /* \"#utility.yul\":12879:12891   */\n      dup8\n      mload\n        /* \"#utility.yul\":17128:17131   */\n      0x0280\n        /* \"#utility.yul\":17113:17132   */\n      dup5\n      add\n        /* \"#utility.yul\":12867:12892   */\n      mstore\n        /* \"#utility.yul\":12941:12945   */\n      0x20\n        /* \"#utility.yul\":12930:12946   */\n      dup9\n      add\n        /* \"#utility.yul\":12924:12947   */\n      mload\n        /* \"#utility.yul\":12908:12922   */\n      0x02a0\n      dup5\n      add\n        /* \"#utility.yul\":12901:12948   */\n      mstore\n        /* \"#utility.yul\":13081:13093   */\n      dup7\n      mload\n      sub(shl(0xa0, 0x01), 0x01)\n        /* \"#utility.yul\":13077:13098   */\n      swap1\n      dup2\n      and\n        /* \"#utility.yul\":17198:17201   */\n      0x02c0\n        /* \"#utility.yul\":17183:17202   */\n      dup6\n      add\n        /* \"#utility.yul\":13065:13099   */\n      mstore\n        /* \"#utility.yul\":13152:13156   */\n      0x20\n        /* \"#utility.yul\":13141:13157   */\n      dup9\n      add\n        /* \"#utility.yul\":13135:13158   */\n      mload\n        /* \"#utility.yul\":13131:13163   */\n      dup2\n      and\n        /* \"#utility.yul\":13115:13129   */\n      0x02e0\n      dup6\n      add\n        /* \"#utility.yul\":13108:13164   */\n      mstore\n        /* \"#utility.yul\":13217:13221   */\n      0x40\n        /* \"#utility.yul\":13206:13222   */\n      dup9\n      add\n        /* \"#utility.yul\":13200:13223   */\n      mload\n        /* \"#utility.yul\":13196:13228   */\n      dup2\n      and\n        /* \"#utility.yul\":13180:13194   */\n      0x0300\n      dup6\n      add\n        /* \"#utility.yul\":13173:13229   */\n      mstore\n        /* \"#utility.yul\":13282:13286   */\n      0x60\n        /* \"#utility.yul\":13271:13287   */\n      dup9\n      add\n        /* \"#utility.yul\":13265:13288   */\n      mload\n        /* \"#utility.yul\":13261:13293   */\n      and\n        /* \"#utility.yul\":13245:13259   */\n      0x0320\n      dup5\n      add\n        /* \"#utility.yul\":13238:13294   */\n      mstore\n        /* \"#utility.yul\":17240:17242   */\n      dup1\n        /* \"#utility.yul\":17234:17237   */\n      0x0340\n        /* \"#utility.yul\":17223:17232   */\n      dup5\n        /* \"#utility.yul\":17219:17238   */\n      add\n        /* \"#utility.yul\":17212:17243   */\n      mstore\n        /* \"#utility.yul\":17260:17317   */\n      tag_414\n        /* \"#utility.yul\":17313:17315   */\n      dup2\n        /* \"#utility.yul\":17302:17311   */\n      dup5\n        /* \"#utility.yul\":17298:17316   */\n      add\n        /* \"#utility.yul\":17290:17296   */\n      dup8\n        /* \"#utility.yul\":17260:17317   */\n      tag_286\n      jump\t// in\n    tag_414:\n        /* \"#utility.yul\":17348:17351   */\n      0x0360\n        /* \"#utility.yul\":17333:17352   */\n      dup5\n      add\n        /* \"#utility.yul\":17326:17361   */\n      swap6\n      swap1\n      swap6\n      mstore\n      pop\n      pop\n        /* \"#utility.yul\":17392:17395   */\n      0x0380\n        /* \"#utility.yul\":17377:17396   */\n      add\n        /* \"#utility.yul\":17370:17405   */\n      mstore\n        /* \"#utility.yul\":17252:17317   */\n      swap7\n        /* \"#utility.yul\":15497:17411   */\n      swap6\n      pop\n      pop\n      pop\n      pop\n      pop\n      pop\n      jump\t// out\n        /* \"#utility.yul\":17416:17600   */\n    tag_158:\n        /* \"#utility.yul\":17486:17492   */\n      0x00\n        /* \"#utility.yul\":17539:17541   */\n      0x20\n        /* \"#utility.yul\":17527:17536   */\n      dup3\n        /* \"#utility.yul\":17518:17525   */\n      dup5\n        /* \"#utility.yul\":17514:17537   */\n      sub\n        /* \"#utility.yul\":17510:17542   */\n      slt\n        /* \"#utility.yul\":17507:17559   */\n      iszero\n      tag_416\n      jumpi\n        /* \"#utility.yul\":17555:17556   */\n      0x00\n        /* \"#utility.yul\":17552:17553   */\n      dup1\n        /* \"#utility.yul\":17545:17557   */\n      revert\n        /* \"#utility.yul\":17507:17559   */\n    tag_416:\n      pop\n        /* \"#utility.yul\":17578:17594   */\n      mload\n      swap2\n        /* \"#utility.yul\":17416:17600   */\n      swap1\n      pop\n      jump\t// out\n        /* \"#utility.yul\":19108:19353   */\n    tag_177:\n        /* \"#utility.yul\":19175:19181   */\n      0x00\n        /* \"#utility.yul\":19228:19230   */\n      0x20\n        /* \"#utility.yul\":19216:19225   */\n      dup3\n        /* \"#utility.yul\":19207:19214   */\n      dup5\n        /* \"#utility.yul\":19203:19226   */\n      sub\n        /* \"#utility.yul\":19199:19231   */\n      slt\n        /* \"#utility.yul\":19196:19248   */\n      iszero\n      tag_422\n      jumpi\n        /* \"#utility.yul\":19244:19245   */\n      0x00\n        /* \"#utility.yul\":19241:19242   */\n      dup1\n        /* \"#utility.yul\":19234:19246   */\n      revert\n        /* \"#utility.yul\":19196:19248   */\n    tag_422:\n        /* \"#utility.yul\":19276:19285   */\n      dup2\n        /* \"#utility.yul\":19270:19286   */\n      mload\n        /* \"#utility.yul\":19295:19323   */\n      tag_366\n        /* \"#utility.yul\":19317:19322   */\n      dup2\n        /* \"#utility.yul\":19295:19323   */\n      tag_275\n      jump\t// in\n        /* \"#utility.yul\":19719:19846   */\n    tag_287:\n        /* \"#utility.yul\":19780:19790   */\n      0x4e487b71\n        /* \"#utility.yul\":19775:19778   */\n      0xe0\n        /* \"#utility.yul\":19771:19791   */\n      shl\n        /* \"#utility.yul\":19768:19769   */\n      0x00\n        /* \"#utility.yul\":19761:19792   */\n      mstore\n        /* \"#utility.yul\":19811:19815   */\n      0x11\n        /* \"#utility.yul\":19808:19809   */\n      0x04\n        /* \"#utility.yul\":19801:19816   */\n      mstore\n        /* \"#utility.yul\":19835:19839   */\n      0x24\n        /* \"#utility.yul\":19832:19833   */\n      0x00\n        /* \"#utility.yul\":19825:19840   */\n      revert\n        /* \"#utility.yul\":19851:20019   */\n    tag_187:\n        /* \"#utility.yul\":19924:19933   */\n      dup1\n      dup3\n      mul\n        /* \"#utility.yul\":19955:19964   */\n      dup2\n      iszero\n        /* \"#utility.yul\":19972:19987   */\n      dup3\n      dup3\n      div\n        /* \"#utility.yul\":19966:19988   */\n      dup5\n      eq\n        /* \"#utility.yul\":19952:19989   */\n      or\n        /* \"#utility.yul\":19942:20013   */\n      tag_258\n      jumpi\n        /* \"#utility.yul\":19993:20011   */\n      tag_258\n      tag_287\n      jump\t// in\n        /* \"#utility.yul\":20024:20446   */\n    tag_288:\n        /* \"#utility.yul\":20113:20114   */\n      0x01\n        /* \"#utility.yul\":20156:20161   */\n      dup2\n        /* \"#utility.yul\":20113:20114   */\n      dup2\n        /* \"#utility.yul\":20170:20440   */\n    tag_430:\n        /* \"#utility.yul\":20191:20198   */\n      dup1\n        /* \"#utility.yul\":20181:20189   */\n      dup6\n        /* \"#utility.yul\":20178:20199   */\n      gt\n        /* \"#utility.yul\":20170:20440   */\n      iszero\n      tag_432\n      jumpi\n        /* \"#utility.yul\":20250:20254   */\n      dup2\n        /* \"#utility.yul\":20246:20247   */\n      0x00\n        /* \"#utility.yul\":20242:20248   */\n      not\n        /* \"#utility.yul\":20238:20255   */\n      div\n        /* \"#utility.yul\":20232:20236   */\n      dup3\n        /* \"#utility.yul\":20229:20256   */\n      gt\n        /* \"#utility.yul\":20226:20279   */\n      iszero\n      tag_434\n      jumpi\n        /* \"#utility.yul\":20259:20277   */\n      tag_434\n      tag_287\n      jump\t// in\n    tag_434:\n        /* \"#utility.yul\":20309:20316   */\n      dup1\n        /* \"#utility.yul\":20299:20307   */\n      dup6\n        /* \"#utility.yul\":20295:20317   */\n      and\n        /* \"#utility.yul\":20292:20347   */\n      iszero\n      tag_435\n      jumpi\n        /* \"#utility.yul\":20329:20345   */\n      swap2\n      dup2\n      mul\n      swap2\n        /* \"#utility.yul\":20292:20347   */\n    tag_435:\n        /* \"#utility.yul\":20408:20430   */\n      swap4\n      dup5\n      shr\n      swap4\n        /* \"#utility.yul\":20368:20383   */\n      swap1\n      dup1\n      mul\n      swap1\n        /* \"#utility.yul\":20170:20440   */\n      jump(tag_430)\n    tag_432:\n        /* \"#utility.yul\":20174:20177   */\n      pop\n        /* \"#utility.yul\":20024:20446   */\n      swap3\n      pop\n      swap3\n      swap1\n      pop\n      jump\t// out\n        /* \"#utility.yul\":20451:21257   */\n    tag_289:\n        /* \"#utility.yul\":20500:20505   */\n      0x00\n        /* \"#utility.yul\":20530:20538   */\n      dup3\n        /* \"#utility.yul\":20520:20600   */\n      tag_437\n      jumpi\n      pop\n        /* \"#utility.yul\":20571:20572   */\n      0x01\n        /* \"#utility.yul\":20585:20590   */\n      jump(tag_258)\n        /* \"#utility.yul\":20520:20600   */\n    tag_437:\n        /* \"#utility.yul\":20619:20623   */\n      dup2\n        /* \"#utility.yul\":20609:20685   */\n      tag_438\n      jumpi\n      pop\n        /* \"#utility.yul\":20656:20657   */\n      0x00\n        /* \"#utility.yul\":20670:20675   */\n      jump(tag_258)\n        /* \"#utility.yul\":20609:20685   */\n    tag_438:\n        /* \"#utility.yul\":20701:20705   */\n      dup2\n        /* \"#utility.yul\":20719:20720   */\n      0x01\n        /* \"#utility.yul\":20714:20773   */\n      dup2\n      eq\n      tag_440\n      jumpi\n        /* \"#utility.yul\":20787:20788   */\n      0x02\n        /* \"#utility.yul\":20782:20912   */\n      dup2\n      eq\n      tag_441\n      jumpi\n        /* \"#utility.yul\":20694:20912   */\n      jump(tag_439)\n        /* \"#utility.yul\":20714:20773   */\n    tag_440:\n        /* \"#utility.yul\":20744:20745   */\n      0x01\n        /* \"#utility.yul\":20735:20745   */\n      swap2\n      pop\n        /* \"#utility.yul\":20758:20763   */\n      pop\n      jump(tag_258)\n        /* \"#utility.yul\":20782:20912   */\n    tag_441:\n        /* \"#utility.yul\":20819:20822   */\n      0xff\n        /* \"#utility.yul\":20809:20817   */\n      dup5\n        /* \"#utility.yul\":20806:20823   */\n      gt\n        /* \"#utility.yul\":20803:20846   */\n      iszero\n      tag_443\n      jumpi\n        /* \"#utility.yul\":20826:20844   */\n      tag_443\n      tag_287\n      jump\t// in\n    tag_443:\n      pop\n      pop\n        /* \"#utility.yul\":20882:20883   */\n      0x01\n        /* \"#utility.yul\":20868:20884   */\n      dup3\n      shl\n        /* \"#utility.yul\":20897:20902   */\n      jump(tag_258)\n        /* \"#utility.yul\":20694:20912   */\n    tag_439:\n      pop\n        /* \"#utility.yul\":20996:20998   */\n      0x20\n        /* \"#utility.yul\":20986:20994   */\n      dup4\n        /* \"#utility.yul\":20983:20999   */\n      lt\n        /* \"#utility.yul\":20977:20980   */\n      0x0133\n        /* \"#utility.yul\":20971:20975   */\n      dup4\n        /* \"#utility.yul\":20968:20981   */\n      lt\n        /* \"#utility.yul\":20964:21000   */\n      and\n        /* \"#utility.yul\":20958:20960   */\n      0x4e\n        /* \"#utility.yul\":20948:20956   */\n      dup5\n        /* \"#utility.yul\":20945:20961   */\n      lt\n        /* \"#utility.yul\":20940:20942   */\n      0x0b\n        /* \"#utility.yul\":20934:20938   */\n      dup5\n        /* \"#utility.yul\":20931:20943   */\n      lt\n        /* \"#utility.yul\":20927:20962   */\n      and\n        /* \"#utility.yul\":20924:21001   */\n      or\n        /* \"#utility.yul\":20921:21080   */\n      iszero\n      tag_444\n      jumpi\n      pop\n        /* \"#utility.yul\":21033:21052   */\n      dup2\n      dup2\n      exp\n        /* \"#utility.yul\":21065:21070   */\n      jump(tag_258)\n        /* \"#utility.yul\":20921:21080   */\n    tag_444:\n        /* \"#utility.yul\":21112:21146   */\n      tag_445\n        /* \"#utility.yul\":21137:21145   */\n      dup4\n        /* \"#utility.yul\":21131:21135   */\n      dup4\n        /* \"#utility.yul\":21112:21146   */\n      tag_288\n      jump\t// in\n    tag_445:\n        /* \"#utility.yul\":21182:21188   */\n      dup1\n        /* \"#utility.yul\":21178:21179   */\n      0x00\n        /* \"#utility.yul\":21174:21180   */\n      not\n        /* \"#utility.yul\":21170:21189   */\n      div\n        /* \"#utility.yul\":21161:21168   */\n      dup3\n        /* \"#utility.yul\":21158:21190   */\n      gt\n        /* \"#utility.yul\":21155:21213   */\n      iszero\n      tag_447\n      jumpi\n        /* \"#utility.yul\":21193:21211   */\n      tag_447\n      tag_287\n      jump\t// in\n    tag_447:\n        /* \"#utility.yul\":21231:21251   */\n      mul\n      swap4\n        /* \"#utility.yul\":20451:21257   */\n      swap3\n      pop\n      pop\n      pop\n      jump\t// out\n        /* \"#utility.yul\":21262:21393   */\n    tag_218:\n        /* \"#utility.yul\":21322:21327   */\n      0x00\n        /* \"#utility.yul\":21351:21387   */\n      tag_259\n        /* \"#utility.yul\":21378:21386   */\n      dup4\n        /* \"#utility.yul\":21372:21376   */\n      dup4\n        /* \"#utility.yul\":21351:21387   */\n      tag_289\n      jump\t// in\n        /* \"#utility.yul\":22517:22734   */\n    tag_262:\n        /* \"#utility.yul\":22557:22558   */\n      0x00\n        /* \"#utility.yul\":22583:22584   */\n      dup3\n        /* \"#utility.yul\":22573:22705   */\n      tag_454\n      jumpi\n        /* \"#utility.yul\":22627:22637   */\n      0x4e487b71\n        /* \"#utility.yul\":22622:22625   */\n      0xe0\n        /* \"#utility.yul\":22618:22638   */\n      shl\n        /* \"#utility.yul\":22615:22616   */\n      0x00\n        /* \"#utility.yul\":22608:22639   */\n      mstore\n        /* \"#utility.yul\":22662:22666   */\n      0x12\n        /* \"#utility.yul\":22659:22660   */\n      0x04\n        /* \"#utility.yul\":22652:22667   */\n      mstore\n        /* \"#utility.yul\":22690:22694   */\n      0x24\n        /* \"#utility.yul\":22687:22688   */\n      0x00\n        /* \"#utility.yul\":22680:22695   */\n      revert\n        /* \"#utility.yul\":22573:22705   */\n    tag_454:\n      pop\n        /* \"#utility.yul\":22719:22728   */\n      div\n      swap1\n        /* \"#utility.yul\":22517:22734   */\n      jump\t// out\n        /* \"#utility.yul\":22739:22867   */\n    tag_265:\n        /* \"#utility.yul\":22806:22815   */\n      dup2\n      dup2\n      sub\n        /* \"#utility.yul\":22827:22838   */\n      dup2\n      dup2\n      gt\n        /* \"#utility.yul\":22824:22861   */\n      iszero\n      tag_258\n      jumpi\n        /* \"#utility.yul\":22841:22859   */\n      tag_258\n      tag_287\n      jump\t// in\n        /* \"#utility.yul\":22872:22997   */\n    tag_268:\n        /* \"#utility.yul\":22937:22946   */\n      dup1\n      dup3\n      add\n        /* \"#utility.yul\":22958:22968   */\n      dup1\n      dup3\n      gt\n        /* \"#utility.yul\":22955:22991   */\n      iszero\n      tag_258\n      jumpi\n        /* \"#utility.yul\":22971:22989   */\n      tag_258\n      tag_287\n      jump\t// in\n\n    auxdata: 0xa26469706673582212202a2c02c12eb85c8b18bdbe222a7579d0b6689e949db8357b0bb83b1c157c2d7d64736f6c63430008120033\n}\n",
				"bytecode": {
					"linkReferences": {},
					"object": "60806040526103e86002553480156200001757600080fd5b5060405162001ce738038062001ce78339810160408190526200003a9162000255565b6200004533620001ec565b6001600160a01b038316158015906200006757506001600160a01b0383163014155b620000b95760405162461bcd60e51b815260206004820152601c60248201527f4c61756368706164466163746f72793a207669727475616c4c6f636b0000000060448201526064015b60405180910390fd5b6001600160a01b03841615801590620000db57506001600160a01b0384163014155b620001295760405162461bcd60e51b815260206004820152601d60248201527f4c61756368706164466163746f72793a2073757065724163636f756e740000006044820152606401620000b0565b6001600160a01b038216158015906200014b57506001600160a01b0382163014155b620001995760405162461bcd60e51b815260206004820152601c60248201527f4c61756368706164466163746f72793a2066756e6441646472657373000000006044820152606401620000b0565b600380546001600160a01b03199081166001600160a01b039687161790915560058054821693861693909317909255600480548316938516939093179092556006805490911691909216179055620002bd565b600080546001600160a01b038381166001600160a01b0319831681178455604051919092169283917f8be0079c531659141344cd1fd0a4f28419497f9722a3daafe3b4186f6b6457e09190a35050565b6001600160a01b03811681146200025257600080fd5b50565b600080600080608085870312156200026c57600080fd5b845162000279816200023c565b60208601519094506200028c816200023c565b60408601519093506200029f816200023c565b6060860151909250620002b2816200023c565b939692955090935050565b611a1a80620002cd6000396000f3fe60806040526004361061012a5760003560e01c806385dc3004116100ab578063a96df7431161006f578063a96df7431461031b578063b6b7913e14610350578063c06ca1dd14610370578063d9eb594714610385578063e82bef291461039b578063f2fde38b146103bb57600080fd5b806385dc300414610287578063892f78fa146102a75780638a9b66cc146102c75780638da5cb5b146102dd5780639352dace146102fb57600080fd5b80635a416a36116100f25780635a416a36146101e55780635c60da1b14610205578063640f82f3146102255780636de944dc14610245578063715018a61461027257600080fd5b806323fa495a1461012f57806349a1f14b1461015157806351ae878f1461016457806353aca0781461018457806358e5bc88146101c1575b600080fd5b34801561013b57600080fd5b5061014f61014a366004610f3e565b6103db565b005b61014f61015f366004611352565b6103e8565b34801561017057600080fd5b5061014f61017f366004610f3e565b6109f7565b34801561019057600080fd5b506101a461019f366004610f3e565b610a10565b6040516001600160a01b0390911681526020015b60405180910390f35b3480156101cd57600080fd5b506101d761271081565b6040519081526020016101b8565b3480156101f157600080fd5b5061014f610200366004611469565b610a3a565b34801561021157600080fd5b506006546101a4906001600160a01b031681565b34801561023157600080fd5b506004546101a4906001600160a01b031681565b34801561025157600080fd5b50610265610260366004611469565b610a64565b6040516101b8919061148d565b34801561027e57600080fd5b5061014f610ada565b34801561029357600080fd5b5061014f6102a2366004611469565b610aee565b3480156102b357600080fd5b5061014f6102c2366004611469565b610b18565b3480156102d357600080fd5b506101d760025481565b3480156102e957600080fd5b506000546001600160a01b03166101a4565b34801561030757600080fd5b5061014f610316366004611469565b610b42565b34801561032757600080fd5b5061033b6103363660046114da565b610b6c565b604080519283526020830191909152016101b8565b34801561035c57600080fd5b506003546101a4906001600160a01b031681565b34801561037c57600080fd5b50610265610ce6565b34801561039157600080fd5b506101d760015481565b3480156103a757600080fd5b506005546101a4906001600160a01b031681565b3480156103c757600080fd5b5061014f6103d6366004611469565b610d48565b6103e3610dc1565b600155565b6003546001600160a01b03161580159061040c57506005546001600160a01b031615155b6104745760405162461bcd60e51b815260206004820152602e60248201527f4c61756368706164466163746f72793a2043616e206e6f74206372656174652060448201526d6c61756e6368706164206e6f772160901b60648201526084015b60405180910390fd5b6001543410156104c65760405162461bcd60e51b815260206004820181905260248201527f4c61756368706164466163746f72793a204e6f7420656e6f7567682066656521604482015260640161046b565b600060405180608001604052806104da3390565b6001600160a01b03908116825260035481166020808401919091526005548216604084015260045482166060909301929092528851918901519293509091601291161561058d5787602001516001600160a01b031663313ce5676040518163ffffffff1660e01b8152600401602060405180830381865afa158015610563573d6000803e3d6000fd5b505050506040513d601f19601f820116820180604052508101906105879190611567565b60ff1690505b6040805160e0810182526020808b01516001600160a01b031682526080808c0151828401526060808d015194840194909452908801518383015287518183015288015160a08201529087015160c08201526000806105ea83610b6c565b6006549193509150600090610607906001600160a01b0316610e1b565b9050806001600160a01b03166357801e6f8d8d8d8d8c8e896002546040518963ffffffff1660e01b81526004016106459897969594939291906116dd565b600060405180830381600087803b15801561065f57600080fd5b505af1158015610673573d6000803e3d6000fd5b5050505060003411156106bb576005546040516001600160a01b03909116903480156108fc02916000818181858888f193505050501580156106b9573d6000803e3d6000fd5b505b821561094c578b51836001600160a01b0382166370a08231336040516001600160e01b031960e084901b1681526001600160a01b039091166004820152602401602060405180830381865afa158015610718573d6000803e3d6000fd5b505050506040513d601f19601f8201168201806040525081019061073c9190611849565b10156107985760405162461bcd60e51b815260206004820152602560248201527f4c61756368706164466163746f72793a20496e73756666696369656e742042616044820152646c616e636560d81b606482015260840161046b565b836001600160a01b03821663dd62ed3e336040516001600160e01b031960e084901b1681526001600160a01b039091166004820152306024820152604401602060405180830381865afa1580156107f3573d6000803e3d6000fd5b505050506040513d601f19601f820116820180604052508101906108179190611849565b10156108755760405162461bcd60e51b815260206004820152602760248201527f4c61756368706164466163746f72793a20496e73756666696369656e7420416c6044820152666c6f77616e636560c81b606482015260840161046b565b6001600160a01b0387166323b872dd336040516001600160e01b031960e084901b1681526001600160a01b0391821660048201529085166024820152604481018790526064016020604051808303816000875af11580156108da573d6000803e3d6000fd5b505050506040513d601f19601f820116820180604052508101906108fe9190611862565b61094a5760405162461bcd60e51b815260206004820181905260248201527f4c61756368706164466163746f72793a207472616e73666572206661696c6564604482015260640161046b565b505b6007805460018181019092557fa66cc928b5edb82af9bd49922954155ab7b0942694bea4ce44661d9a8736c6880180546001600160a01b0384166001600160a01b0319918216811790925533600090815260086020908152604080832080549687018155835290822090940180549092168317909155915190917fda2d0d8f4060e08dd20f6fb6ad959f9920958220cc60733db44068db43a0260191a2505050505050505050505050565b6109ff610dc1565b610a0a816064611895565b60025550565b60078181548110610a2057600080fd5b6000918252602090912001546001600160a01b0316905081565b610a42610dc1565b600480546001600160a01b0319166001600160a01b0392909216919091179055565b6001600160a01b038116600090815260086020908152604091829020805483518184028101840190945280845260609392830182828015610ace57602002820191906000526020600020905b81546001600160a01b03168152600190910190602001808311610ab0575b50505050509050919050565b610ae2610dc1565b610aec6000610eb5565b565b610af6610dc1565b600580546001600160a01b0319166001600160a01b0392909216919091179055565b610b20610dc1565b600380546001600160a01b0319166001600160a01b0392909216919091179055565b610b4a610dc1565b600680546001600160a01b0319166001600160a01b0392909216919091179055565b805160009081906012906001600160a01b031615610bf05783600001516001600160a01b031663313ce5676040518163ffffffff1660e01b8152600401602060405180830381865afa158015610bc6573d6000803e3d6000fd5b505050506040513d601f19601f82011682018060405250810190610bea9190611567565b60ff1690505b6000610c19610c0083600a611990565b60408701516020880151610c1391610f05565b90610f1a565b90506000610c3a612710610c13886060015185610f0590919063ffffffff16565b90506000610c5f612710610c1389608001518a60400151610f0590919063ffffffff16565b90506000610c7a828960400151610f2690919063ffffffff16565b90506000610c9b612710610c138b60a0015185610f0590919063ffffffff16565b90506000610cbd610cad88600a611990565b60c08c0151610c13908590610f05565b90506000610cd582610ccf8989610f32565b90610f32565b9b919a509098505050505050505050565b60606007805480602002602001604051908101604052809291908181526020018280548015610d3e57602002820191906000526020600020905b81546001600160a01b03168152600190910190602001808311610d20575b5050505050905090565b610d50610dc1565b6001600160a01b038116610db55760405162461bcd60e51b815260206004820152602660248201527f4f776e61626c653a206e6577206f776e657220697320746865207a65726f206160448201526564647265737360d01b606482015260840161046b565b610dbe81610eb5565b50565b6000546001600160a01b03163314610aec5760405162461bcd60e51b815260206004820181905260248201527f4f776e61626c653a2063616c6c6572206973206e6f7420746865206f776e6572604482015260640161046b565b6000763d602d80600a3d3981f3363d3d373d3d3d363d730000008260601b60e81c176000526e5af43d82803e903d91602b57fd5bf38260781b17602052603760096000f090506001600160a01b038116610eb05760405162461bcd60e51b8152602060048201526016602482015275115490cc4c4d8dce8818dc99585d194819985a5b195960521b604482015260640161046b565b919050565b600080546001600160a01b038381166001600160a01b0319831681178455604051919092169283917f8be0079c531659141344cd1fd0a4f28419497f9722a3daafe3b4186f6b6457e09190a35050565b6000610f118284611895565b90505b92915050565b6000610f11828461199c565b6000610f1182846119be565b6000610f1182846119d1565b600060208284031215610f5057600080fd5b5035919050565b634e487b7160e01b600052604160045260246000fd5b604051610140810167ffffffffffffffff81118282101715610f9157610f91610f57565b60405290565b604051610160810167ffffffffffffffff81118282101715610f9157610f91610f57565b6001600160a01b0381168114610dbe57600080fd5b8035610eb081610fbb565b600060608284031215610fed57600080fd5b6040516060810181811067ffffffffffffffff8211171561101057611010610f57565b80604052508091508235815260208301356020820152604083013560408201525092915050565b8015158114610dbe57600080fd5b600060c0828403121561105757600080fd5b60405160c0810181811067ffffffffffffffff8211171561107a5761107a610f57565b604052905080823561108b81611037565b8152602083013561109b81610fbb565b602082015260408301356110ae81610fbb565b80604083015250606083013560608201526080830135608082015260a083013560a08201525092915050565b6000604082840312156110ec57600080fd5b6040516040810181811067ffffffffffffffff8211171561110f5761110f610f57565b604052823581526020928301359281019290925250919050565b600082601f83011261113a57600080fd5b813567ffffffffffffffff8082111561115557611155610f57565b604051601f8301601f19908116603f0116810190828211818310171561117d5761117d610f57565b8160405283815286602085880101111561119657600080fd5b836020870160208301376000602085830101528094505050505092915050565b600061014082840312156111c957600080fd5b6111d1610f6d565b9050813567ffffffffffffffff808211156111eb57600080fd5b6111f785838601611129565b8352602084013591508082111561120d57600080fd5b61121985838601611129565b6020840152604084013591508082111561123257600080fd5b61123e85838601611129565b6040840152606084013591508082111561125757600080fd5b61126385838601611129565b6060840152608084013591508082111561127c57600080fd5b61128885838601611129565b608084015260a08401359150808211156112a157600080fd5b6112ad85838601611129565b60a084015260c08401359150808211156112c657600080fd5b6112d285838601611129565b60c084015260e08401359150808211156112eb57600080fd5b6112f785838601611129565b60e08401526101009150818401358181111561131257600080fd5b61131e86828701611129565b83850152506101209150818401358181111561133957600080fd5b61134586828701611129565b8385015250505092915050565b60008060008060008587036102e081121561136c57600080fd5b6101608082121561137c57600080fd5b611384610f97565b915061138f88610fd0565b825261139d60208901610fd0565b602083015260408801356040830152606088013560608301526080880135608083015260a088013560a083015260c088013560c083015260e088013560e083015261010080890135818401525061012080890135818401525061014080890135818401525081965061141189828a01610fdb565b95505050611423876101c08801611045565b92506114338761028088016110da565b91506102c086013567ffffffffffffffff81111561145057600080fd5b61145c888289016111b6565b9150509295509295909350565b60006020828403121561147b57600080fd5b813561148681610fbb565b9392505050565b6020808252825182820181905260009190848201906040850190845b818110156114ce5783516001600160a01b0316835292840192918401916001016114a9565b50909695505050505050565b600060e082840312156114ec57600080fd5b60405160e0810181811067ffffffffffffffff8211171561150f5761150f610f57565b604052823561151d81610fbb565b808252506020830135602082015260408301356040820152606083013560608201526080830135608082015260a083013560a082015260c083013560c08201528091505092915050565b60006020828403121561157957600080fd5b815160ff8116811461148657600080fd5b6000815180845260005b818110156115b057602081850181015186830182015201611594565b506000602082860101526020601f19601f83011685010191505092915050565b600061014082518185526115e68286018261158a565b91505060208301518482036020860152611600828261158a565b9150506040830151848203604086015261161a828261158a565b91505060608301518482036060860152611634828261158a565b9150506080830151848203608086015261164e828261158a565b91505060a083015184820360a0860152611668828261158a565b91505060c083015184820360c0860152611682828261158a565b91505060e083015184820360e086015261169c828261158a565b91505061010080840151858303828701526116b7838261158a565b9250505061012080840151858303828701526116d3838261158a565b9695505050505050565b88516001600160a01b0316815260006103a060208b015161170960208501826001600160a01b03169052565b5060408b810151848201526060808d0151908501526080808d01519085015260a0808d01519085015260c0808d01519085015260e0808d015190850152610100808d015190850152610120808d015190850152610140808d0151908501528a5161016085015260208b01516101808501528a01516101a0840152885115156101c084015260208901516001600160a01b039081166101e085015260408a0151166102008401526060890151610220840152608089015161024084015260a0890151610260840152875161028084015260208801516102a084015286516001600160a01b039081166102c0850152602088015181166102e0850152604088015181166103008501526060880151166103208401528061034084015261182f818401876115d0565b610360840195909552505061038001529695505050505050565b60006020828403121561185b57600080fd5b5051919050565b60006020828403121561187457600080fd5b815161148681611037565b634e487b7160e01b600052601160045260246000fd5b8082028115828204841417610f1457610f1461187f565b600181815b808511156118e75781600019048211156118cd576118cd61187f565b808516156118da57918102915b93841c93908002906118b1565b509250929050565b6000826118fe57506001610f14565b8161190b57506000610f14565b8160018114611921576002811461192b57611947565b6001915050610f14565b60ff84111561193c5761193c61187f565b50506001821b610f14565b5060208310610133831016604e8410600b841016171561196a575081810a610f14565b61197483836118ac565b80600019048211156119885761198861187f565b029392505050565b6000610f1183836118ef565b6000826119b957634e487b7160e01b600052601260045260246000fd5b500490565b81810381811115610f1457610f1461187f565b80820180821115610f1457610f1461187f56fea26469706673582212202a2c02c12eb85c8b18bdbe222a7579d0b6689e949db8357b0bb83b1c157c2d7d64736f6c63430008120033",
					"opcodes": "PUSH1 0x80 PUSH1 0x40 MSTORE PUSH2 0x3E8 PUSH1 0x2 SSTORE CALLVALUE DUP1 ISZERO PUSH3 0x17 JUMPI PUSH1 0x0 DUP1 REVERT JUMPDEST POP PUSH1 0x40 MLOAD PUSH3 0x1CE7 CODESIZE SUB DUP1 PUSH3 0x1CE7 DUP4 CODECOPY DUP2 ADD PUSH1 0x40 DUP2 SWAP1 MSTORE PUSH3 0x3A SWAP2 PUSH3 0x255 JUMP JUMPDEST PUSH3 0x45 CALLER PUSH3 0x1EC JUMP JUMPDEST PUSH1 0x1 PUSH1 0x1 PUSH1 0xA0 SHL SUB DUP4 AND ISZERO DUP1 ISZERO SWAP1 PUSH3 0x67 JUMPI POP PUSH1 0x1 PUSH1 0x1 PUSH1 0xA0 SHL SUB DUP4 AND ADDRESS EQ ISZERO JUMPDEST PUSH3 0xB9 JUMPI PUSH1 0x40 MLOAD PUSH3 0x461BCD PUSH1 0xE5 SHL DUP2 MSTORE PUSH1 0x20 PUSH1 0x4 DUP3 ADD MSTORE PUSH1 0x1C PUSH1 0x24 DUP3 ADD MSTORE PUSH32 0x4C61756368706164466163746F72793A207669727475616C4C6F636B00000000 PUSH1 0x44 DUP3 ADD MSTORE PUSH1 0x64 ADD JUMPDEST PUSH1 0x40 MLOAD DUP1 SWAP2 SUB SWAP1 REVERT JUMPDEST PUSH1 0x1 PUSH1 0x1 PUSH1 0xA0 SHL SUB DUP5 AND ISZERO DUP1 ISZERO SWAP1 PUSH3 0xDB JUMPI POP PUSH1 0x1 PUSH1 0x1 PUSH1 0xA0 SHL SUB DUP5 AND ADDRESS EQ ISZERO JUMPDEST PUSH3 0x129 JUMPI PUSH1 0x40 MLOAD PUSH3 0x461BCD PUSH1 0xE5 SHL DUP2 MSTORE PUSH1 0x20 PUSH1 0x4 DUP3 ADD MSTORE PUSH1 0x1D PUSH1 0x24 DUP3 ADD MSTORE PUSH32 0x4C61756368706164466163746F72793A2073757065724163636F756E74000000 PUSH1 0x44 DUP3 ADD MSTORE PUSH1 0x64 ADD PUSH3 0xB0 JUMP JUMPDEST PUSH1 0x1 PUSH1 0x1 PUSH1 0xA0 SHL SUB DUP3 AND ISZERO DUP1 ISZERO SWAP1 PUSH3 0x14B JUMPI POP PUSH1 0x1 PUSH1 0x1 PUSH1 0xA0 SHL SUB DUP3 AND ADDRESS EQ ISZERO JUMPDEST PUSH3 0x199 JUMPI PUSH1 0x40 MLOAD PUSH3 0x461BCD PUSH1 0xE5 SHL DUP2 MSTORE PUSH1 0x20 PUSH1 0x4 DUP3 ADD MSTORE PUSH1 0x1C PUSH1 0x24 DUP3 ADD MSTORE PUSH32 0x4C61756368706164466163746F72793A2066756E644164647265737300000000 PUSH1 0x44 DUP3 ADD MSTORE PUSH1 0x64 ADD PUSH3 0xB0 JUMP JUMPDEST PUSH1 0x3 DUP1 SLOAD PUSH1 0x1 PUSH1 0x1 PUSH1 0xA0 SHL SUB NOT SWAP1 DUP2 AND PUSH1 0x1 PUSH1 0x1 PUSH1 0xA0 SHL SUB SWAP7 DUP8 AND OR SWAP1 SWAP2 SSTORE PUSH1 0x5 DUP1 SLOAD DUP3 AND SWAP4 DUP7 AND SWAP4 SWAP1 SWAP4 OR SWAP1 SWAP3 SSTORE PUSH1 0x4 DUP1 SLOAD DUP4 AND SWAP4 DUP6 AND SWAP4 SWAP1 SWAP4 OR SWAP1 SWAP3 SSTORE PUSH1 0x6 DUP1 SLOAD SWAP1 SWAP2 AND SWAP2 SWAP1 SWAP3 AND OR SWAP1 SSTORE PUSH3 0x2BD JUMP JUMPDEST PUSH1 0x0 DUP1 SLOAD PUSH1 0x1 PUSH1 0x1 PUSH1 0xA0 SHL SUB DUP4 DUP2 AND PUSH1 0x1 PUSH1 0x1 PUSH1 0xA0 SHL SUB NOT DUP4 AND DUP2 OR DUP5 SSTORE PUSH1 0x40 MLOAD SWAP2 SWAP1 SWAP3 AND SWAP3 DUP4 SWAP2 PUSH32 0x8BE0079C531659141344CD1FD0A4F28419497F9722A3DAAFE3B4186F6B6457E0 SWAP2 SWAP1 LOG3 POP POP JUMP JUMPDEST PUSH1 0x1 PUSH1 0x1 PUSH1 0xA0 SHL SUB DUP2 AND DUP2 EQ PUSH3 0x252 JUMPI PUSH1 0x0 DUP1 REVERT JUMPDEST POP JUMP JUMPDEST PUSH1 0x0 DUP1 PUSH1 0x0 DUP1 PUSH1 0x80 DUP6 DUP8 SUB SLT ISZERO PUSH3 0x26C JUMPI PUSH1 0x0 DUP1 REVERT JUMPDEST DUP5 MLOAD PUSH3 0x279 DUP2 PUSH3 0x23C JUMP JUMPDEST PUSH1 0x20 DUP7 ADD MLOAD SWAP1 SWAP5 POP PUSH3 0x28C DUP2 PUSH3 0x23C JUMP JUMPDEST PUSH1 0x40 DUP7 ADD MLOAD SWAP1 SWAP4 POP PUSH3 0x29F DUP2 PUSH3 0x23C JUMP JUMPDEST PUSH1 0x60 DUP7 ADD MLOAD SWAP1 SWAP3 POP PUSH3 0x2B2 DUP2 PUSH3 0x23C JUMP JUMPDEST SWAP4 SWAP7 SWAP3 SWAP6 POP SWAP1 SWAP4 POP POP JUMP JUMPDEST PUSH2 0x1A1A DUP1 PUSH3 0x2CD PUSH1 0x0 CODECOPY PUSH1 0x0 RETURN INVALID PUSH1 0x80 PUSH1 0x40 MSTORE PUSH1 0x4 CALLDATASIZE LT PUSH2 0x12A JUMPI PUSH1 0x0 CALLDATALOAD PUSH1 0xE0 SHR DUP1 PUSH4 0x85DC3004 GT PUSH2 0xAB JUMPI DUP1 PUSH4 0xA96DF743 GT PUSH2 0x6F JUMPI DUP1 PUSH4 0xA96DF743 EQ PUSH2 0x31B JUMPI DUP1 PUSH4 0xB6B7913E EQ PUSH2 0x350 JUMPI DUP1 PUSH4 0xC06CA1DD EQ PUSH2 0x370 JUMPI DUP1 PUSH4 0xD9EB5947 EQ PUSH2 0x385 JUMPI DUP1 PUSH4 0xE82BEF29 EQ PUSH2 0x39B JUMPI DUP1 PUSH4 0xF2FDE38B EQ PUSH2 0x3BB JUMPI PUSH1 0x0 DUP1 REVERT JUMPDEST DUP1 PUSH4 0x85DC3004 EQ PUSH2 0x287 JUMPI DUP1 PUSH4 0x892F78FA EQ PUSH2 0x2A7 JUMPI DUP1 PUSH4 0x8A9B66CC EQ PUSH2 0x2C7 JUMPI DUP1 PUSH4 0x8DA5CB5B EQ PUSH2 0x2DD JUMPI DUP1 PUSH4 0x9352DACE EQ PUSH2 0x2FB JUMPI PUSH1 0x0 DUP1 REVERT JUMPDEST DUP1 PUSH4 0x5A416A36 GT PUSH2 0xF2 JUMPI DUP1 PUSH4 0x5A416A36 EQ PUSH2 0x1E5 JUMPI DUP1 PUSH4 0x5C60DA1B EQ PUSH2 0x205 JUMPI DUP1 PUSH4 0x640F82F3 EQ PUSH2 0x225 JUMPI DUP1 PUSH4 0x6DE944DC EQ PUSH2 0x245 JUMPI DUP1 PUSH4 0x715018A6 EQ PUSH2 0x272 JUMPI PUSH1 0x0 DUP1 REVERT JUMPDEST DUP1 PUSH4 0x23FA495A EQ PUSH2 0x12F JUMPI DUP1 PUSH4 0x49A1F14B EQ PUSH2 0x151 JUMPI DUP1 PUSH4 0x51AE878F EQ PUSH2 0x164 JUMPI DUP1 PUSH4 0x53ACA078 EQ PUSH2 0x184 JUMPI DUP1 PUSH4 0x58E5BC88 EQ PUSH2 0x1C1 JUMPI JUMPDEST PUSH1 0x0 DUP1 REVERT JUMPDEST CALLVALUE DUP1 ISZERO PUSH2 0x13B JUMPI PUSH1 0x0 DUP1 REVERT JUMPDEST POP PUSH2 0x14F PUSH2 0x14A CALLDATASIZE PUSH1 0x4 PUSH2 0xF3E JUMP JUMPDEST PUSH2 0x3DB JUMP JUMPDEST STOP JUMPDEST PUSH2 0x14F PUSH2 0x15F CALLDATASIZE PUSH1 0x4 PUSH2 0x1352 JUMP JUMPDEST PUSH2 0x3E8 JUMP JUMPDEST CALLVALUE DUP1 ISZERO PUSH2 0x170 JUMPI PUSH1 0x0 DUP1 REVERT JUMPDEST POP PUSH2 0x14F PUSH2 0x17F CALLDATASIZE PUSH1 0x4 PUSH2 0xF3E JUMP JUMPDEST PUSH2 0x9F7 JUMP JUMPDEST CALLVALUE DUP1 ISZERO PUSH2 0x190 JUMPI PUSH1 0x0 DUP1 REVERT JUMPDEST POP PUSH2 0x1A4 PUSH2 0x19F CALLDATASIZE PUSH1 0x4 PUSH2 0xF3E JUMP JUMPDEST PUSH2 0xA10 JUMP JUMPDEST PUSH1 0x40 MLOAD PUSH1 0x1 PUSH1 0x1 PUSH1 0xA0 SHL SUB SWAP1 SWAP2 AND DUP2 MSTORE PUSH1 0x20 ADD JUMPDEST PUSH1 0x40 MLOAD DUP1 SWAP2 SUB SWAP1 RETURN JUMPDEST CALLVALUE DUP1 ISZERO PUSH2 0x1CD JUMPI PUSH1 0x0 DUP1 REVERT JUMPDEST POP PUSH2 0x1D7 PUSH2 0x2710 DUP2 JUMP JUMPDEST PUSH1 0x40 MLOAD SWAP1 DUP2 MSTORE PUSH1 0x20 ADD PUSH2 0x1B8 JUMP JUMPDEST CALLVALUE DUP1 ISZERO PUSH2 0x1F1 JUMPI PUSH1 0x0 DUP1 REVERT JUMPDEST POP PUSH2 0x14F PUSH2 0x200 CALLDATASIZE PUSH1 0x4 PUSH2 0x1469 JUMP JUMPDEST PUSH2 0xA3A JUMP JUMPDEST CALLVALUE DUP1 ISZERO PUSH2 0x211 JUMPI PUSH1 0x0 DUP1 REVERT JUMPDEST POP PUSH1 0x6 SLOAD PUSH2 0x1A4 SWAP1 PUSH1 0x1 PUSH1 0x1 PUSH1 0xA0 SHL SUB AND DUP2 JUMP JUMPDEST CALLVALUE DUP1 ISZERO PUSH2 0x231 JUMPI PUSH1 0x0 DUP1 REVERT JUMPDEST POP PUSH1 0x4 SLOAD PUSH2 0x1A4 SWAP1 PUSH1 0x1 PUSH1 0x1 PUSH1 0xA0 SHL SUB AND DUP2 JUMP JUMPDEST CALLVALUE DUP1 ISZERO PUSH2 0x251 JUMPI PUSH1 0x0 DUP1 REVERT JUMPDEST POP PUSH2 0x265 PUSH2 0x260 CALLDATASIZE PUSH1 0x4 PUSH2 0x1469 JUMP JUMPDEST PUSH2 0xA64 JUMP JUMPDEST PUSH1 0x40 MLOAD PUSH2 0x1B8 SWAP2 SWAP1 PUSH2 0x148D JUMP JUMPDEST CALLVALUE DUP1 ISZERO PUSH2 0x27E JUMPI PUSH1 0x0 DUP1 REVERT JUMPDEST POP PUSH2 0x14F PUSH2 0xADA JUMP JUMPDEST CALLVALUE DUP1 ISZERO PUSH2 0x293 JUMPI PUSH1 0x0 DUP1 REVERT JUMPDEST POP PUSH2 0x14F PUSH2 0x2A2 CALLDATASIZE PUSH1 0x4 PUSH2 0x1469 JUMP JUMPDEST PUSH2 0xAEE JUMP JUMPDEST CALLVALUE DUP1 ISZERO PUSH2 0x2B3 JUMPI PUSH1 0x0 DUP1 REVERT JUMPDEST POP PUSH2 0x14F PUSH2 0x2C2 CALLDATASIZE PUSH1 0x4 PUSH2 0x1469 JUMP JUMPDEST PUSH2 0xB18 JUMP JUMPDEST CALLVALUE DUP1 ISZERO PUSH2 0x2D3 JUMPI PUSH1 0x0 DUP1 REVERT JUMPDEST POP PUSH2 0x1D7 PUSH1 0x2 SLOAD DUP2 JUMP JUMPDEST CALLVALUE DUP1 ISZERO PUSH2 0x2E9 JUMPI PUSH1 0x0 DUP1 REVERT JUMPDEST POP PUSH1 0x0 SLOAD PUSH1 0x1 PUSH1 0x1 PUSH1 0xA0 SHL SUB AND PUSH2 0x1A4 JUMP JUMPDEST CALLVALUE DUP1 ISZERO PUSH2 0x307 JUMPI PUSH1 0x0 DUP1 REVERT JUMPDEST POP PUSH2 0x14F PUSH2 0x316 CALLDATASIZE PUSH1 0x4 PUSH2 0x1469 JUMP JUMPDEST PUSH2 0xB42 JUMP JUMPDEST CALLVALUE DUP1 ISZERO PUSH2 0x327 JUMPI PUSH1 0x0 DUP1 REVERT JUMPDEST POP PUSH2 0x33B PUSH2 0x336 CALLDATASIZE PUSH1 0x4 PUSH2 0x14DA JUMP JUMPDEST PUSH2 0xB6C JUMP JUMPDEST PUSH1 0x40 DUP1 MLOAD SWAP3 DUP4 MSTORE PUSH1 0x20 DUP4 ADD SWAP2 SWAP1 SWAP2 MSTORE ADD PUSH2 0x1B8 JUMP JUMPDEST CALLVALUE DUP1 ISZERO PUSH2 0x35C JUMPI PUSH1 0x0 DUP1 REVERT JUMPDEST POP PUSH1 0x3 SLOAD PUSH2 0x1A4 SWAP1 PUSH1 0x1 PUSH1 0x1 PUSH1 0xA0 SHL SUB AND DUP2 JUMP JUMPDEST CALLVALUE DUP1 ISZERO PUSH2 0x37C JUMPI PUSH1 0x0 DUP1 REVERT JUMPDEST POP PUSH2 0x265 PUSH2 0xCE6 JUMP JUMPDEST CALLVALUE DUP1 ISZERO PUSH2 0x391 JUMPI PUSH1 0x0 DUP1 REVERT JUMPDEST POP PUSH2 0x1D7 PUSH1 0x1 SLOAD DUP2 JUMP JUMPDEST CALLVALUE DUP1 ISZERO PUSH2 0x3A7 JUMPI PUSH1 0x0 DUP1 REVERT JUMPDEST POP PUSH1 0x5 SLOAD PUSH2 0x1A4 SWAP1 PUSH1 0x1 PUSH1 0x1 PUSH1 0xA0 SHL SUB AND DUP2 JUMP JUMPDEST CALLVALUE DUP1 ISZERO PUSH2 0x3C7 JUMPI PUSH1 0x0 DUP1 REVERT JUMPDEST POP PUSH2 0x14F PUSH2 0x3D6 CALLDATASIZE PUSH1 0x4 PUSH2 0x1469 JUMP JUMPDEST PUSH2 0xD48 JUMP JUMPDEST PUSH2 0x3E3 PUSH2 0xDC1 JUMP JUMPDEST PUSH1 0x1 SSTORE JUMP JUMPDEST PUSH1 0x3 SLOAD PUSH1 0x1 PUSH1 0x1 PUSH1 0xA0 SHL SUB AND ISZERO DUP1 ISZERO SWAP1 PUSH2 0x40C JUMPI POP PUSH1 0x5 SLOAD PUSH1 0x1 PUSH1 0x1 PUSH1 0xA0 SHL SUB AND ISZERO ISZERO JUMPDEST PUSH2 0x474 JUMPI PUSH1 0x40 MLOAD PUSH3 0x461BCD PUSH1 0xE5 SHL DUP2 MSTORE PUSH1 0x20 PUSH1 0x4 DUP3 ADD MSTORE PUSH1 0x2E PUSH1 0x24 DUP3 ADD MSTORE PUSH32 0x4C61756368706164466163746F72793A2043616E206E6F742063726561746520 PUSH1 0x44 DUP3 ADD MSTORE PUSH14 0x6C61756E6368706164206E6F7721 PUSH1 0x90 SHL PUSH1 0x64 DUP3 ADD MSTORE PUSH1 0x84 ADD JUMPDEST PUSH1 0x40 MLOAD DUP1 SWAP2 SUB SWAP1 REVERT JUMPDEST PUSH1 0x1 SLOAD CALLVALUE LT ISZERO PUSH2 0x4C6 JUMPI PUSH1 0x40 MLOAD PUSH3 0x461BCD PUSH1 0xE5 SHL DUP2 MSTORE PUSH1 0x20 PUSH1 0x4 DUP3 ADD DUP2 SWAP1 MSTORE PUSH1 0x24 DUP3 ADD MSTORE PUSH32 0x4C61756368706164466163746F72793A204E6F7420656E6F7567682066656521 PUSH1 0x44 DUP3 ADD MSTORE PUSH1 0x64 ADD PUSH2 0x46B JUMP JUMPDEST PUSH1 0x0 PUSH1 0x40 MLOAD DUP1 PUSH1 0x80 ADD PUSH1 0x40 MSTORE DUP1 PUSH2 0x4DA CALLER SWAP1 JUMP JUMPDEST PUSH1 0x1 PUSH1 0x1 PUSH1 0xA0 SHL SUB SWAP1 DUP2 AND DUP3 MSTORE PUSH1 0x3 SLOAD DUP2 AND PUSH1 0x20 DUP1 DUP5 ADD SWAP2 SWAP1 SWAP2 MSTORE PUSH1 0x5 SLOAD DUP3 AND PUSH1 0x40 DUP5 ADD MSTORE PUSH1 0x4 SLOAD DUP3 AND PUSH1 0x60 SWAP1 SWAP4 ADD SWAP3 SWAP1 SWAP3 MSTORE DUP9 MLOAD SWAP2 DUP10 ADD MLOAD SWAP3 SWAP4 POP SWAP1 SWAP2 PUSH1 0x12 SWAP2 AND ISZERO PUSH2 0x58D JUMPI DUP8 PUSH1 0x20 ADD MLOAD PUSH1 0x1 PUSH1 0x1 PUSH1 0xA0 SHL SUB AND PUSH4 0x313CE567 PUSH1 0x40 MLOAD DUP2 PUSH4 0xFFFFFFFF AND PUSH1 0xE0 SHL DUP2 MSTORE PUSH1 0x4 ADD PUSH1 0x20 PUSH1 0x40 MLOAD DUP1 DUP4 SUB DUP2 DUP7 GAS STATICCALL ISZERO DUP1 ISZERO PUSH2 0x563 JUMPI RETURNDATASIZE PUSH1 0x0 DUP1 RETURNDATACOPY RETURNDATASIZE PUSH1 0x0 REVERT JUMPDEST POP POP POP POP PUSH1 0x40 MLOAD RETURNDATASIZE PUSH1 0x1F NOT PUSH1 0x1F DUP3 ADD AND DUP3 ADD DUP1 PUSH1 0x40 MSTORE POP DUP2 ADD SWAP1 PUSH2 0x587 SWAP2 SWAP1 PUSH2 0x1567 JUMP JUMPDEST PUSH1 0xFF AND SWAP1 POP JUMPDEST PUSH1 0x40 DUP1 MLOAD PUSH1 0xE0 DUP2 ADD DUP3 MSTORE PUSH1 0x20 DUP1 DUP12 ADD MLOAD PUSH1 0x1 PUSH1 0x1 PUSH1 0xA0 SHL SUB AND DUP3 MSTORE PUSH1 0x80 DUP1 DUP13 ADD MLOAD DUP3 DUP5 ADD MSTORE PUSH1 0x60 DUP1 DUP14 ADD MLOAD SWAP5 DUP5 ADD SWAP5 SWAP1 SWAP5 MSTORE SWAP1 DUP9 ADD MLOAD DUP4 DUP4 ADD MSTORE DUP8 MLOAD DUP2 DUP4 ADD MSTORE DUP9 ADD MLOAD PUSH1 0xA0 DUP3 ADD MSTORE SWAP1 DUP8 ADD MLOAD PUSH1 0xC0 DUP3 ADD MSTORE PUSH1 0x0 DUP1 PUSH2 0x5EA DUP4 PUSH2 0xB6C JUMP JUMPDEST PUSH1 0x6 SLOAD SWAP2 SWAP4 POP SWAP2 POP PUSH1 0x0 SWAP1 PUSH2 0x607 SWAP1 PUSH1 0x1 PUSH1 0x1 PUSH1 0xA0 SHL SUB AND PUSH2 0xE1B JUMP JUMPDEST SWAP1 POP DUP1 PUSH1 0x1 PUSH1 0x1 PUSH1 0xA0 SHL SUB AND PUSH4 0x57801E6F DUP14 DUP14 DUP14 DUP14 DUP13 DUP15 DUP10 PUSH1 0x2 SLOAD PUSH1 0x40 MLOAD DUP10 PUSH4 0xFFFFFFFF AND PUSH1 0xE0 SHL DUP2 MSTORE PUSH1 0x4 ADD PUSH2 0x645 SWAP9 SWAP8 SWAP7 SWAP6 SWAP5 SWAP4 SWAP3 SWAP2 SWAP1 PUSH2 0x16DD JUMP JUMPDEST PUSH1 0x0 PUSH1 0x40 MLOAD DUP1 DUP4 SUB DUP2 PUSH1 0x0 DUP8 DUP1 EXTCODESIZE ISZERO DUP1 ISZERO PUSH2 0x65F JUMPI PUSH1 0x0 DUP1 REVERT JUMPDEST POP GAS CALL ISZERO DUP1 ISZERO PUSH2 0x673 JUMPI RETURNDATASIZE PUSH1 0x0 DUP1 RETURNDATACOPY RETURNDATASIZE PUSH1 0x0 REVERT JUMPDEST POP POP POP POP PUSH1 0x0 CALLVALUE GT ISZERO PUSH2 0x6BB JUMPI PUSH1 0x5 SLOAD PUSH1 0x40 MLOAD PUSH1 0x1 PUSH1 0x1 PUSH1 0xA0 SHL SUB SWAP1 SWAP2 AND SWAP1 CALLVALUE DUP1 ISZERO PUSH2 0x8FC MUL SWAP2 PUSH1 0x0 DUP2 DUP2 DUP2 DUP6 DUP9 DUP9 CALL SWAP4 POP POP POP POP ISZERO DUP1 ISZERO PUSH2 0x6B9 JUMPI RETURNDATASIZE PUSH1 0x0 DUP1 RETURNDATACOPY RETURNDATASIZE PUSH1 0x0 REVERT JUMPDEST POP JUMPDEST DUP3 ISZERO PUSH2 0x94C JUMPI DUP12 MLOAD DUP4 PUSH1 0x1 PUSH1 0x1 PUSH1 0xA0 SHL SUB DUP3 AND PUSH4 0x70A08231 CALLER PUSH1 0x40 MLOAD PUSH1 0x1 PUSH1 0x1 PUSH1 0xE0 SHL SUB NOT PUSH1 0xE0 DUP5 SWAP1 SHL AND DUP2 MSTORE PUSH1 0x1 PUSH1 0x1 PUSH1 0xA0 SHL SUB SWAP1 SWAP2 AND PUSH1 0x4 DUP3 ADD MSTORE PUSH1 0x24 ADD PUSH1 0x20 PUSH1 0x40 MLOAD DUP1 DUP4 SUB DUP2 DUP7 GAS STATICCALL ISZERO DUP1 ISZERO PUSH2 0x718 JUMPI RETURNDATASIZE PUSH1 0x0 DUP1 RETURNDATACOPY RETURNDATASIZE PUSH1 0x0 REVERT JUMPDEST POP POP POP POP PUSH1 0x40 MLOAD RETURNDATASIZE PUSH1 0x1F NOT PUSH1 0x1F DUP3 ADD AND DUP3 ADD DUP1 PUSH1 0x40 MSTORE POP DUP2 ADD SWAP1 PUSH2 0x73C SWAP2 SWAP1 PUSH2 0x1849 JUMP JUMPDEST LT ISZERO PUSH2 0x798 JUMPI PUSH1 0x40 MLOAD PUSH3 0x461BCD PUSH1 0xE5 SHL DUP2 MSTORE PUSH1 0x20 PUSH1 0x4 DUP3 ADD MSTORE PUSH1 0x25 PUSH1 0x24 DUP3 ADD MSTORE PUSH32 0x4C61756368706164466163746F72793A20496E73756666696369656E74204261 PUSH1 0x44 DUP3 ADD MSTORE PUSH5 0x6C616E6365 PUSH1 0xD8 SHL PUSH1 0x64 DUP3 ADD MSTORE PUSH1 0x84 ADD PUSH2 0x46B JUMP JUMPDEST DUP4 PUSH1 0x1 PUSH1 0x1 PUSH1 0xA0 SHL SUB DUP3 AND PUSH4 0xDD62ED3E CALLER PUSH1 0x40 MLOAD PUSH1 0x1 PUSH1 0x1 PUSH1 0xE0 SHL SUB NOT PUSH1 0xE0 DUP5 SWAP1 SHL AND DUP2 MSTORE PUSH1 0x1 PUSH1 0x1 PUSH1 0xA0 SHL SUB SWAP1 SWAP2 AND PUSH1 0x4 DUP3 ADD MSTORE ADDRESS PUSH1 0x24 DUP3 ADD MSTORE PUSH1 0x44 ADD PUSH1 0x20 PUSH1 0x40 MLOAD DUP1 DUP4 SUB DUP2 DUP7 GAS STATICCALL ISZERO DUP1 ISZERO PUSH2 0x7F3 JUMPI RETURNDATASIZE PUSH1 0x0 DUP1 RETURNDATACOPY RETURNDATASIZE PUSH1 0x0 REVERT JUMPDEST POP POP POP POP PUSH1 0x40 MLOAD RETURNDATASIZE PUSH1 0x1F NOT PUSH1 0x1F DUP3 ADD AND DUP3 ADD DUP1 PUSH1 0x40 MSTORE POP DUP2 ADD SWAP1 PUSH2 0x817 SWAP2 SWAP1 PUSH2 0x1849 JUMP JUMPDEST LT ISZERO PUSH2 0x875 JUMPI PUSH1 0x40 MLOAD PUSH3 0x461BCD PUSH1 0xE5 SHL DUP2 MSTORE PUSH1 0x20 PUSH1 0x4 DUP3 ADD MSTORE PUSH1 0x27 PUSH1 0x24 DUP3 ADD MSTORE PUSH32 0x4C61756368706164466163746F72793A20496E73756666696369656E7420416C PUSH1 0x44 DUP3 ADD MSTORE PUSH7 0x6C6F77616E6365 PUSH1 0xC8 SHL PUSH1 0x64 DUP3 ADD MSTORE PUSH1 0x84 ADD PUSH2 0x46B JUMP JUMPDEST PUSH1 0x1 PUSH1 0x1 PUSH1 0xA0 SHL SUB DUP8 AND PUSH4 0x23B872DD CALLER PUSH1 0x40 MLOAD PUSH1 0x1 PUSH1 0x1 PUSH1 0xE0 SHL SUB NOT PUSH1 0xE0 DUP5 SWAP1 SHL AND DUP2 MSTORE PUSH1 0x1 PUSH1 0x1 PUSH1 0xA0 SHL SUB SWAP2 DUP3 AND PUSH1 0x4 DUP3 ADD MSTORE SWAP1 DUP6 AND PUSH1 0x24 DUP3 ADD MSTORE PUSH1 0x44 DUP2 ADD DUP8 SWAP1 MSTORE PUSH1 0x64 ADD PUSH1 0x20 PUSH1 0x40 MLOAD DUP1 DUP4 SUB DUP2 PUSH1 0x0 DUP8 GAS CALL ISZERO DUP1 ISZERO PUSH2 0x8DA JUMPI RETURNDATASIZE PUSH1 0x0 DUP1 RETURNDATACOPY RETURNDATASIZE PUSH1 0x0 REVERT JUMPDEST POP POP POP POP PUSH1 0x40 MLOAD RETURNDATASIZE PUSH1 0x1F NOT PUSH1 0x1F DUP3 ADD AND DUP3 ADD DUP1 PUSH1 0x40 MSTORE POP DUP2 ADD SWAP1 PUSH2 0x8FE SWAP2 SWAP1 PUSH2 0x1862 JUMP JUMPDEST PUSH2 0x94A JUMPI PUSH1 0x40 MLOAD PUSH3 0x461BCD PUSH1 0xE5 SHL DUP2 MSTORE PUSH1 0x20 PUSH1 0x4 DUP3 ADD DUP2 SWAP1 MSTORE PUSH1 0x24 DUP3 ADD MSTORE PUSH32 0x4C61756368706164466163746F72793A207472616E73666572206661696C6564 PUSH1 0x44 DUP3 ADD MSTORE PUSH1 0x64 ADD PUSH2 0x46B JUMP JUMPDEST POP JUMPDEST PUSH1 0x7 DUP1 SLOAD PUSH1 0x1 DUP2 DUP2 ADD SWAP1 SWAP3 SSTORE PUSH32 0xA66CC928B5EDB82AF9BD49922954155AB7B0942694BEA4CE44661D9A8736C688 ADD DUP1 SLOAD PUSH1 0x1 PUSH1 0x1 PUSH1 0xA0 SHL SUB DUP5 AND PUSH1 0x1 PUSH1 0x1 PUSH1 0xA0 SHL SUB NOT SWAP2 DUP3 AND DUP2 OR SWAP1 SWAP3 SSTORE CALLER PUSH1 0x0 SWAP1 DUP2 MSTORE PUSH1 0x8 PUSH1 0x20 SWAP1 DUP2 MSTORE PUSH1 0x40 DUP1 DUP4 KECCAK256 DUP1 SLOAD SWAP7 DUP8 ADD DUP2 SSTORE DUP4 MSTORE SWAP1 DUP3 KECCAK256 SWAP1 SWAP5 ADD DUP1 SLOAD SWAP1 SWAP3 AND DUP4 OR SWAP1 SWAP2 SSTORE SWAP2 MLOAD SWAP1 SWAP2 PUSH32 0xDA2D0D8F4060E08DD20F6FB6AD959F9920958220CC60733DB44068DB43A02601 SWAP2 LOG2 POP POP POP POP POP POP POP POP POP POP POP POP JUMP JUMPDEST PUSH2 0x9FF PUSH2 0xDC1 JUMP JUMPDEST PUSH2 0xA0A DUP2 PUSH1 0x64 PUSH2 0x1895 JUMP JUMPDEST PUSH1 0x2 SSTORE POP JUMP JUMPDEST PUSH1 0x7 DUP2 DUP2 SLOAD DUP2 LT PUSH2 0xA20 JUMPI PUSH1 0x0 DUP1 REVERT JUMPDEST PUSH1 0x0 SWAP2 DUP3 MSTORE PUSH1 0x20 SWAP1 SWAP2 KECCAK256 ADD SLOAD PUSH1 0x1 PUSH1 0x1 PUSH1 0xA0 SHL SUB AND SWAP1 POP DUP2 JUMP JUMPDEST PUSH2 0xA42 PUSH2 0xDC1 JUMP JUMPDEST PUSH1 0x4 DUP1 SLOAD PUSH1 0x1 PUSH1 0x1 PUSH1 0xA0 SHL SUB NOT AND PUSH1 0x1 PUSH1 0x1 PUSH1 0xA0 SHL SUB SWAP3 SWAP1 SWAP3 AND SWAP2 SWAP1 SWAP2 OR SWAP1 SSTORE JUMP JUMPDEST PUSH1 0x1 PUSH1 0x1 PUSH1 0xA0 SHL SUB DUP2 AND PUSH1 0x0 SWAP1 DUP2 MSTORE PUSH1 0x8 PUSH1 0x20 SWAP1 DUP2 MSTORE PUSH1 0x40 SWAP2 DUP3 SWAP1 KECCAK256 DUP1 SLOAD DUP4 MLOAD DUP2 DUP5 MUL DUP2 ADD DUP5 ADD SWAP1 SWAP5 MSTORE DUP1 DUP5 MSTORE PUSH1 0x60 SWAP4 SWAP3 DUP4 ADD DUP3 DUP3 DUP1 ISZERO PUSH2 0xACE JUMPI PUSH1 0x20 MUL DUP3 ADD SWAP2 SWAP1 PUSH1 0x0 MSTORE PUSH1 0x20 PUSH1 0x0 KECCAK256 SWAP1 JUMPDEST DUP2 SLOAD PUSH1 0x1 PUSH1 0x1 PUSH1 0xA0 SHL SUB AND DUP2 MSTORE PUSH1 0x1 SWAP1 SWAP2 ADD SWAP1 PUSH1 0x20 ADD DUP1 DUP4 GT PUSH2 0xAB0 JUMPI JUMPDEST POP POP POP POP POP SWAP1 POP SWAP2 SWAP1 POP JUMP JUMPDEST PUSH2 0xAE2 PUSH2 0xDC1 JUMP JUMPDEST PUSH2 0xAEC PUSH1 0x0 PUSH2 0xEB5 JUMP JUMPDEST JUMP JUMPDEST PUSH2 0xAF6 PUSH2 0xDC1 JUMP JUMPDEST PUSH1 0x5 DUP1 SLOAD PUSH1 0x1 PUSH1 0x1 PUSH1 0xA0 SHL SUB NOT AND PUSH1 0x1 PUSH1 0x1 PUSH1 0xA0 SHL SUB SWAP3 SWAP1 SWAP3 AND SWAP2 SWAP1 SWAP2 OR SWAP1 SSTORE JUMP JUMPDEST PUSH2 0xB20 PUSH2 0xDC1 JUMP JUMPDEST PUSH1 0x3 DUP1 SLOAD PUSH1 0x1 PUSH1 0x1 PUSH1 0xA0 SHL SUB NOT AND PUSH1 0x1 PUSH1 0x1 PUSH1 0xA0 SHL SUB SWAP3 SWAP1 SWAP3 AND SWAP2 SWAP1 SWAP2 OR SWAP1 SSTORE JUMP JUMPDEST PUSH2 0xB4A PUSH2 0xDC1 JUMP JUMPDEST PUSH1 0x6 DUP1 SLOAD PUSH1 0x1 PUSH1 0x1 PUSH1 0xA0 SHL SUB NOT AND PUSH1 0x1 PUSH1 0x1 PUSH1 0xA0 SHL SUB SWAP3 SWAP1 SWAP3 AND SWAP2 SWAP1 SWAP2 OR SWAP1 SSTORE JUMP JUMPDEST DUP1 MLOAD PUSH1 0x0 SWAP1 DUP2 SWAP1 PUSH1 0x12 SWAP1 PUSH1 0x1 PUSH1 0x1 PUSH1 0xA0 SHL SUB AND ISZERO PUSH2 0xBF0 JUMPI DUP4 PUSH1 0x0 ADD MLOAD PUSH1 0x1 PUSH1 0x1 PUSH1 0xA0 SHL SUB AND PUSH4 0x313CE567 PUSH1 0x40 MLOAD DUP2 PUSH4 0xFFFFFFFF AND PUSH1 0xE0 SHL DUP2 MSTORE PUSH1 0x4 ADD PUSH1 0x20 PUSH1 0x40 MLOAD DUP1 DUP4 SUB DUP2 DUP7 GAS STATICCALL ISZERO DUP1 ISZERO PUSH2 0xBC6 JUMPI RETURNDATASIZE PUSH1 0x0 DUP1 RETURNDATACOPY RETURNDATASIZE PUSH1 0x0 REVERT JUMPDEST POP POP POP POP PUSH1 0x40 MLOAD RETURNDATASIZE PUSH1 0x1F NOT PUSH1 0x1F DUP3 ADD AND DUP3 ADD DUP1 PUSH1 0x40 MSTORE POP DUP2 ADD SWAP1 PUSH2 0xBEA SWAP2 SWAP1 PUSH2 0x1567 JUMP JUMPDEST PUSH1 0xFF AND SWAP1 POP JUMPDEST PUSH1 0x0 PUSH2 0xC19 PUSH2 0xC00 DUP4 PUSH1 0xA PUSH2 0x1990 JUMP JUMPDEST PUSH1 0x40 DUP8 ADD MLOAD PUSH1 0x20 DUP9 ADD MLOAD PUSH2 0xC13 SWAP2 PUSH2 0xF05 JUMP JUMPDEST SWAP1 PUSH2 0xF1A JUMP JUMPDEST SWAP1 POP PUSH1 0x0 PUSH2 0xC3A PUSH2 0x2710 PUSH2 0xC13 DUP9 PUSH1 0x60 ADD MLOAD DUP6 PUSH2 0xF05 SWAP1 SWAP2 SWAP1 PUSH4 0xFFFFFFFF AND JUMP JUMPDEST SWAP1 POP PUSH1 0x0 PUSH2 0xC5F PUSH2 0x2710 PUSH2 0xC13 DUP10 PUSH1 0x80 ADD MLOAD DUP11 PUSH1 0x40 ADD MLOAD PUSH2 0xF05 SWAP1 SWAP2 SWAP1 PUSH4 0xFFFFFFFF AND JUMP JUMPDEST SWAP1 POP PUSH1 0x0 PUSH2 0xC7A DUP3 DUP10 PUSH1 0x40 ADD MLOAD PUSH2 0xF26 SWAP1 SWAP2 SWAP1 PUSH4 0xFFFFFFFF AND JUMP JUMPDEST SWAP1 POP PUSH1 0x0 PUSH2 0xC9B PUSH2 0x2710 PUSH2 0xC13 DUP12 PUSH1 0xA0 ADD MLOAD DUP6 PUSH2 0xF05 SWAP1 SWAP2 SWAP1 PUSH4 0xFFFFFFFF AND JUMP JUMPDEST SWAP1 POP PUSH1 0x0 PUSH2 0xCBD PUSH2 0xCAD DUP9 PUSH1 0xA PUSH2 0x1990 JUMP JUMPDEST PUSH1 0xC0 DUP13 ADD MLOAD PUSH2 0xC13 SWAP1 DUP6 SWAP1 PUSH2 0xF05 JUMP JUMPDEST SWAP1 POP PUSH1 0x0 PUSH2 0xCD5 DUP3 PUSH2 0xCCF DUP10 DUP10 PUSH2 0xF32 JUMP JUMPDEST SWAP1 PUSH2 0xF32 JUMP JUMPDEST SWAP12 SWAP2 SWAP11 POP SWAP1 SWAP9 POP POP POP POP POP POP POP POP POP JUMP JUMPDEST PUSH1 0x60 PUSH1 0x7 DUP1 SLOAD DUP1 PUSH1 0x20 MUL PUSH1 0x20 ADD PUSH1 0x40 MLOAD SWAP1 DUP2 ADD PUSH1 0x40 MSTORE DUP1 SWAP3 SWAP2 SWAP1 DUP2 DUP2 MSTORE PUSH1 0x20 ADD DUP3 DUP1 SLOAD DUP1 ISZERO PUSH2 0xD3E JUMPI PUSH1 0x20 MUL DUP3 ADD SWAP2 SWAP1 PUSH1 0x0 MSTORE PUSH1 0x20 PUSH1 0x0 KECCAK256 SWAP1 JUMPDEST DUP2 SLOAD PUSH1 0x1 PUSH1 0x1 PUSH1 0xA0 SHL SUB AND DUP2 MSTORE PUSH1 0x1 SWAP1 SWAP2 ADD SWAP1 PUSH1 0x20 ADD DUP1 DUP4 GT PUSH2 0xD20 JUMPI JUMPDEST POP POP POP POP POP SWAP1 POP SWAP1 JUMP JUMPDEST PUSH2 0xD50 PUSH2 0xDC1 JUMP JUMPDEST PUSH1 0x1 PUSH1 0x1 PUSH1 0xA0 SHL SUB DUP2 AND PUSH2 0xDB5 JUMPI PUSH1 0x40 MLOAD PUSH3 0x461BCD PUSH1 0xE5 SHL DUP2 MSTORE PUSH1 0x20 PUSH1 0x4 DUP3 ADD MSTORE PUSH1 0x26 PUSH1 0x24 DUP3 ADD MSTORE PUSH32 0x4F776E61626C653A206E6577206F776E657220697320746865207A65726F2061 PUSH1 0x44 DUP3 ADD MSTORE PUSH6 0x646472657373 PUSH1 0xD0 SHL PUSH1 0x64 DUP3 ADD MSTORE PUSH1 0x84 ADD PUSH2 0x46B JUMP JUMPDEST PUSH2 0xDBE DUP2 PUSH2 0xEB5 JUMP JUMPDEST POP JUMP JUMPDEST PUSH1 0x0 SLOAD PUSH1 0x1 PUSH1 0x1 PUSH1 0xA0 SHL SUB AND CALLER EQ PUSH2 0xAEC JUMPI PUSH1 0x40 MLOAD PUSH3 0x461BCD PUSH1 0xE5 SHL DUP2 MSTORE PUSH1 0x20 PUSH1 0x4 DUP3 ADD DUP2 SWAP1 MSTORE PUSH1 0x24 DUP3 ADD MSTORE PUSH32 0x4F776E61626C653A2063616C6C6572206973206E6F7420746865206F776E6572 PUSH1 0x44 DUP3 ADD MSTORE PUSH1 0x64 ADD PUSH2 0x46B JUMP JUMPDEST PUSH1 0x0 PUSH23 0x3D602D80600A3D3981F3363D3D373D3D3D363D73000000 DUP3 PUSH1 0x60 SHL PUSH1 0xE8 SHR OR PUSH1 0x0 MSTORE PUSH15 0x5AF43D82803E903D91602B57FD5BF3 DUP3 PUSH1 0x78 SHL OR PUSH1 0x20 MSTORE PUSH1 0x37 PUSH1 0x9 PUSH1 0x0 CREATE SWAP1 POP PUSH1 0x1 PUSH1 0x1 PUSH1 0xA0 SHL SUB DUP2 AND PUSH2 0xEB0 JUMPI PUSH1 0x40 MLOAD PUSH3 0x461BCD PUSH1 0xE5 SHL DUP2 MSTORE PUSH1 0x20 PUSH1 0x4 DUP3 ADD MSTORE PUSH1 0x16 PUSH1 0x24 DUP3 ADD MSTORE PUSH22 0x115490CC4C4D8DCE8818DC99585D194819985A5B1959 PUSH1 0x52 SHL PUSH1 0x44 DUP3 ADD MSTORE PUSH1 0x64 ADD PUSH2 0x46B JUMP JUMPDEST SWAP2 SWAP1 POP JUMP JUMPDEST PUSH1 0x0 DUP1 SLOAD PUSH1 0x1 PUSH1 0x1 PUSH1 0xA0 SHL SUB DUP4 DUP2 AND PUSH1 0x1 PUSH1 0x1 PUSH1 0xA0 SHL SUB NOT DUP4 AND DUP2 OR DUP5 SSTORE PUSH1 0x40 MLOAD SWAP2 SWAP1 SWAP3 AND SWAP3 DUP4 SWAP2 PUSH32 0x8BE0079C531659141344CD1FD0A4F28419497F9722A3DAAFE3B4186F6B6457E0 SWAP2 SWAP1 LOG3 POP POP JUMP JUMPDEST PUSH1 0x0 PUSH2 0xF11 DUP3 DUP5 PUSH2 0x1895 JUMP JUMPDEST SWAP1 POP JUMPDEST SWAP3 SWAP2 POP POP JUMP JUMPDEST PUSH1 0x0 PUSH2 0xF11 DUP3 DUP5 PUSH2 0x199C JUMP JUMPDEST PUSH1 0x0 PUSH2 0xF11 DUP3 DUP5 PUSH2 0x19BE JUMP JUMPDEST PUSH1 0x0 PUSH2 0xF11 DUP3 DUP5 PUSH2 0x19D1 JUMP JUMPDEST PUSH1 0x0 PUSH1 0x20 DUP3 DUP5 SUB SLT ISZERO PUSH2 0xF50 JUMPI PUSH1 0x0 DUP1 REVERT JUMPDEST POP CALLDATALOAD SWAP2 SWAP1 POP JUMP JUMPDEST PUSH4 0x4E487B71 PUSH1 0xE0 SHL PUSH1 0x0 MSTORE PUSH1 0x41 PUSH1 0x4 MSTORE PUSH1 0x24 PUSH1 0x0 REVERT JUMPDEST PUSH1 0x40 MLOAD PUSH2 0x140 DUP2 ADD PUSH8 0xFFFFFFFFFFFFFFFF DUP2 GT DUP3 DUP3 LT OR ISZERO PUSH2 0xF91 JUMPI PUSH2 0xF91 PUSH2 0xF57 JUMP JUMPDEST PUSH1 0x40 MSTORE SWAP1 JUMP JUMPDEST PUSH1 0x40 MLOAD PUSH2 0x160 DUP2 ADD PUSH8 0xFFFFFFFFFFFFFFFF DUP2 GT DUP3 DUP3 LT OR ISZERO PUSH2 0xF91 JUMPI PUSH2 0xF91 PUSH2 0xF57 JUMP JUMPDEST PUSH1 0x1 PUSH1 0x1 PUSH1 0xA0 SHL SUB DUP2 AND DUP2 EQ PUSH2 0xDBE JUMPI PUSH1 0x0 DUP1 REVERT JUMPDEST DUP1 CALLDATALOAD PUSH2 0xEB0 DUP2 PUSH2 0xFBB JUMP JUMPDEST PUSH1 0x0 PUSH1 0x60 DUP3 DUP5 SUB SLT ISZERO PUSH2 0xFED JUMPI PUSH1 0x0 DUP1 REVERT JUMPDEST PUSH1 0x40 MLOAD PUSH1 0x60 DUP2 ADD DUP2 DUP2 LT PUSH8 0xFFFFFFFFFFFFFFFF DUP3 GT OR ISZERO PUSH2 0x1010 JUMPI PUSH2 0x1010 PUSH2 0xF57 JUMP JUMPDEST DUP1 PUSH1 0x40 MSTORE POP DUP1 SWAP2 POP DUP3 CALLDATALOAD DUP2 MSTORE PUSH1 0x20 DUP4 ADD CALLDATALOAD PUSH1 0x20 DUP3 ADD MSTORE PUSH1 0x40 DUP4 ADD CALLDATALOAD PUSH1 0x40 DUP3 ADD MSTORE POP SWAP3 SWAP2 POP POP JUMP JUMPDEST DUP1 ISZERO ISZERO DUP2 EQ PUSH2 0xDBE JUMPI PUSH1 0x0 DUP1 REVERT JUMPDEST PUSH1 0x0 PUSH1 0xC0 DUP3 DUP5 SUB SLT ISZERO PUSH2 0x1057 JUMPI PUSH1 0x0 DUP1 REVERT JUMPDEST PUSH1 0x40 MLOAD PUSH1 0xC0 DUP2 ADD DUP2 DUP2 LT PUSH8 0xFFFFFFFFFFFFFFFF DUP3 GT OR ISZERO PUSH2 0x107A JUMPI PUSH2 0x107A PUSH2 0xF57 JUMP JUMPDEST PUSH1 0x40 MSTORE SWAP1 POP DUP1 DUP3 CALLDATALOAD PUSH2 0x108B DUP2 PUSH2 0x1037 JUMP JUMPDEST DUP2 MSTORE PUSH1 0x20 DUP4 ADD CALLDATALOAD PUSH2 0x109B DUP2 PUSH2 0xFBB JUMP JUMPDEST PUSH1 0x20 DUP3 ADD MSTORE PUSH1 0x40 DUP4 ADD CALLDATALOAD PUSH2 0x10AE DUP2 PUSH2 0xFBB JUMP JUMPDEST DUP1 PUSH1 0x40 DUP4 ADD MSTORE POP PUSH1 0x60 DUP4 ADD CALLDATALOAD PUSH1 0x60 DUP3 ADD MSTORE PUSH1 0x80 DUP4 ADD CALLDATALOAD PUSH1 0x80 DUP3 ADD MSTORE PUSH1 0xA0 DUP4 ADD CALLDATALOAD PUSH1 0xA0 DUP3 ADD MSTORE POP SWAP3 SWAP2 POP POP JUMP JUMPDEST PUSH1 0x0 PUSH1 0x40 DUP3 DUP5 SUB SLT ISZERO PUSH2 0x10EC JUMPI PUSH1 0x0 DUP1 REVERT JUMPDEST PUSH1 0x40 MLOAD PUSH1 0x40 DUP2 ADD DUP2 DUP2 LT PUSH8 0xFFFFFFFFFFFFFFFF DUP3 GT OR ISZERO PUSH2 0x110F JUMPI PUSH2 0x110F PUSH2 0xF57 JUMP JUMPDEST PUSH1 0x40 MSTORE DUP3 CALLDATALOAD DUP2 MSTORE PUSH1 0x20 SWAP3 DUP4 ADD CALLDATALOAD SWAP3 DUP2 ADD SWAP3 SWAP1 SWAP3 MSTORE POP SWAP2 SWAP1 POP JUMP JUMPDEST PUSH1 0x0 DUP3 PUSH1 0x1F DUP4 ADD SLT PUSH2 0x113A JUMPI PUSH1 0x0 DUP1 REVERT JUMPDEST DUP2 CALLDATALOAD PUSH8 0xFFFFFFFFFFFFFFFF DUP1 DUP3 GT ISZERO PUSH2 0x1155 JUMPI PUSH2 0x1155 PUSH2 0xF57 JUMP JUMPDEST PUSH1 0x40 MLOAD PUSH1 0x1F DUP4 ADD PUSH1 0x1F NOT SWAP1 DUP2 AND PUSH1 0x3F ADD AND DUP2 ADD SWAP1 DUP3 DUP3 GT DUP2 DUP4 LT OR ISZERO PUSH2 0x117D JUMPI PUSH2 0x117D PUSH2 0xF57 JUMP JUMPDEST DUP2 PUSH1 0x40 MSTORE DUP4 DUP2 MSTORE DUP7 PUSH1 0x20 DUP6 DUP9 ADD ADD GT ISZERO PUSH2 0x1196 JUMPI PUSH1 0x0 DUP1 REVERT JUMPDEST DUP4 PUSH1 0x20 DUP8 ADD PUSH1 0x20 DUP4 ADD CALLDATACOPY PUSH1 0x0 PUSH1 0x20 DUP6 DUP4 ADD ADD MSTORE DUP1 SWAP5 POP POP POP POP POP SWAP3 SWAP2 POP POP JUMP JUMPDEST PUSH1 0x0 PUSH2 0x140 DUP3 DUP5 SUB SLT ISZERO PUSH2 0x11C9 JUMPI PUSH1 0x0 DUP1 REVERT JUMPDEST PUSH2 0x11D1 PUSH2 0xF6D JUMP JUMPDEST SWAP1 POP DUP2 CALLDATALOAD PUSH8 0xFFFFFFFFFFFFFFFF DUP1 DUP3 GT ISZERO PUSH2 0x11EB JUMPI PUSH1 0x0 DUP1 REVERT JUMPDEST PUSH2 0x11F7 DUP6 DUP4 DUP7 ADD PUSH2 0x1129 JUMP JUMPDEST DUP4 MSTORE PUSH1 0x20 DUP5 ADD CALLDATALOAD SWAP2 POP DUP1 DUP3 GT ISZERO PUSH2 0x120D JUMPI PUSH1 0x0 DUP1 REVERT JUMPDEST PUSH2 0x1219 DUP6 DUP4 DUP7 ADD PUSH2 0x1129 JUMP JUMPDEST PUSH1 0x20 DUP5 ADD MSTORE PUSH1 0x40 DUP5 ADD CALLDATALOAD SWAP2 POP DUP1 DUP3 GT ISZERO PUSH2 0x1232 JUMPI PUSH1 0x0 DUP1 REVERT JUMPDEST PUSH2 0x123E DUP6 DUP4 DUP7 ADD PUSH2 0x1129 JUMP JUMPDEST PUSH1 0x40 DUP5 ADD MSTORE PUSH1 0x60 DUP5 ADD CALLDATALOAD SWAP2 POP DUP1 DUP3 GT ISZERO PUSH2 0x1257 JUMPI PUSH1 0x0 DUP1 REVERT JUMPDEST PUSH2 0x1263 DUP6 DUP4 DUP7 ADD PUSH2 0x1129 JUMP JUMPDEST PUSH1 0x60 DUP5 ADD MSTORE PUSH1 0x80 DUP5 ADD CALLDATALOAD SWAP2 POP DUP1 DUP3 GT ISZERO PUSH2 0x127C JUMPI PUSH1 0x0 DUP1 REVERT JUMPDEST PUSH2 0x1288 DUP6 DUP4 DUP7 ADD PUSH2 0x1129 JUMP JUMPDEST PUSH1 0x80 DUP5 ADD MSTORE PUSH1 0xA0 DUP5 ADD CALLDATALOAD SWAP2 POP DUP1 DUP3 GT ISZERO PUSH2 0x12A1 JUMPI PUSH1 0x0 DUP1 REVERT JUMPDEST PUSH2 0x12AD DUP6 DUP4 DUP7 ADD PUSH2 0x1129 JUMP JUMPDEST PUSH1 0xA0 DUP5 ADD MSTORE PUSH1 0xC0 DUP5 ADD CALLDATALOAD SWAP2 POP DUP1 DUP3 GT ISZERO PUSH2 0x12C6 JUMPI PUSH1 0x0 DUP1 REVERT JUMPDEST PUSH2 0x12D2 DUP6 DUP4 DUP7 ADD PUSH2 0x1129 JUMP JUMPDEST PUSH1 0xC0 DUP5 ADD MSTORE PUSH1 0xE0 DUP5 ADD CALLDATALOAD SWAP2 POP DUP1 DUP3 GT ISZERO PUSH2 0x12EB JUMPI PUSH1 0x0 DUP1 REVERT JUMPDEST PUSH2 0x12F7 DUP6 DUP4 DUP7 ADD PUSH2 0x1129 JUMP JUMPDEST PUSH1 0xE0 DUP5 ADD MSTORE PUSH2 0x100 SWAP2 POP DUP2 DUP5 ADD CALLDATALOAD DUP2 DUP2 GT ISZERO PUSH2 0x1312 JUMPI PUSH1 0x0 DUP1 REVERT JUMPDEST PUSH2 0x131E DUP7 DUP3 DUP8 ADD PUSH2 0x1129 JUMP JUMPDEST DUP4 DUP6 ADD MSTORE POP PUSH2 0x120 SWAP2 POP DUP2 DUP5 ADD CALLDATALOAD DUP2 DUP2 GT ISZERO PUSH2 0x1339 JUMPI PUSH1 0x0 DUP1 REVERT JUMPDEST PUSH2 0x1345 DUP7 DUP3 DUP8 ADD PUSH2 0x1129 JUMP JUMPDEST DUP4 DUP6 ADD MSTORE POP POP POP SWAP3 SWAP2 POP POP JUMP JUMPDEST PUSH1 0x0 DUP1 PUSH1 0x0 DUP1 PUSH1 0x0 DUP6 DUP8 SUB PUSH2 0x2E0 DUP2 SLT ISZERO PUSH2 0x136C JUMPI PUSH1 0x0 DUP1 REVERT JUMPDEST PUSH2 0x160 DUP1 DUP3 SLT ISZERO PUSH2 0x137C JUMPI PUSH1 0x0 DUP1 REVERT JUMPDEST PUSH2 0x1384 PUSH2 0xF97 JUMP JUMPDEST SWAP2 POP PUSH2 0x138F DUP9 PUSH2 0xFD0 JUMP JUMPDEST DUP3 MSTORE PUSH2 0x139D PUSH1 0x20 DUP10 ADD PUSH2 0xFD0 JUMP JUMPDEST PUSH1 0x20 DUP4 ADD MSTORE PUSH1 0x40 DUP9 ADD CALLDATALOAD PUSH1 0x40 DUP4 ADD MSTORE PUSH1 0x60 DUP9 ADD CALLDATALOAD PUSH1 0x60 DUP4 ADD MSTORE PUSH1 0x80 DUP9 ADD CALLDATALOAD PUSH1 0x80 DUP4 ADD MSTORE PUSH1 0xA0 DUP9 ADD CALLDATALOAD PUSH1 0xA0 DUP4 ADD MSTORE PUSH1 0xC0 DUP9 ADD CALLDATALOAD PUSH1 0xC0 DUP4 ADD MSTORE PUSH1 0xE0 DUP9 ADD CALLDATALOAD PUSH1 0xE0 DUP4 ADD MSTORE PUSH2 0x100 DUP1 DUP10 ADD CALLDATALOAD DUP2 DUP5 ADD MSTORE POP PUSH2 0x120 DUP1 DUP10 ADD CALLDATALOAD DUP2 DUP5 ADD MSTORE POP PUSH2 0x140 DUP1 DUP10 ADD CALLDATALOAD DUP2 DUP5 ADD MSTORE POP DUP2 SWAP7 POP PUSH2 0x1411 DUP10 DUP3 DUP11 ADD PUSH2 0xFDB JUMP JUMPDEST SWAP6 POP POP POP PUSH2 0x1423 DUP8 PUSH2 0x1C0 DUP9 ADD PUSH2 0x1045 JUMP JUMPDEST SWAP3 POP PUSH2 0x1433 DUP8 PUSH2 0x280 DUP9 ADD PUSH2 0x10DA JUMP JUMPDEST SWAP2 POP PUSH2 0x2C0 DUP7 ADD CALLDATALOAD PUSH8 0xFFFFFFFFFFFFFFFF DUP2 GT ISZERO PUSH2 0x1450 JUMPI PUSH1 0x0 DUP1 REVERT JUMPDEST PUSH2 0x145C DUP9 DUP3 DUP10 ADD PUSH2 0x11B6 JUMP JUMPDEST SWAP2 POP POP SWAP3 SWAP6 POP SWAP3 SWAP6 SWAP1 SWAP4 POP JUMP JUMPDEST PUSH1 0x0 PUSH1 0x20 DUP3 DUP5 SUB SLT ISZERO PUSH2 0x147B JUMPI PUSH1 0x0 DUP1 REVERT JUMPDEST DUP2 CALLDATALOAD PUSH2 0x1486 DUP2 PUSH2 0xFBB JUMP JUMPDEST SWAP4 SWAP3 POP POP POP JUMP JUMPDEST PUSH1 0x20 DUP1 DUP3 MSTORE DUP3 MLOAD DUP3 DUP3 ADD DUP2 SWAP1 MSTORE PUSH1 0x0 SWAP2 SWAP1 DUP5 DUP3 ADD SWAP1 PUSH1 0x40 DUP6 ADD SWAP1 DUP5 JUMPDEST DUP2 DUP2 LT ISZERO PUSH2 0x14CE JUMPI DUP4 MLOAD PUSH1 0x1 PUSH1 0x1 PUSH1 0xA0 SHL SUB AND DUP4 MSTORE SWAP3 DUP5 ADD SWAP3 SWAP2 DUP5 ADD SWAP2 PUSH1 0x1 ADD PUSH2 0x14A9 JUMP JUMPDEST POP SWAP1 SWAP7 SWAP6 POP POP POP POP POP POP JUMP JUMPDEST PUSH1 0x0 PUSH1 0xE0 DUP3 DUP5 SUB SLT ISZERO PUSH2 0x14EC JUMPI PUSH1 0x0 DUP1 REVERT JUMPDEST PUSH1 0x40 MLOAD PUSH1 0xE0 DUP2 ADD DUP2 DUP2 LT PUSH8 0xFFFFFFFFFFFFFFFF DUP3 GT OR ISZERO PUSH2 0x150F JUMPI PUSH2 0x150F PUSH2 0xF57 JUMP JUMPDEST PUSH1 0x40 MSTORE DUP3 CALLDATALOAD PUSH2 0x151D DUP2 PUSH2 0xFBB JUMP JUMPDEST DUP1 DUP3 MSTORE POP PUSH1 0x20 DUP4 ADD CALLDATALOAD PUSH1 0x20 DUP3 ADD MSTORE PUSH1 0x40 DUP4 ADD CALLDATALOAD PUSH1 0x40 DUP3 ADD MSTORE PUSH1 0x60 DUP4 ADD CALLDATALOAD PUSH1 0x60 DUP3 ADD MSTORE PUSH1 0x80 DUP4 ADD CALLDATALOAD PUSH1 0x80 DUP3 ADD MSTORE PUSH1 0xA0 DUP4 ADD CALLDATALOAD PUSH1 0xA0 DUP3 ADD MSTORE PUSH1 0xC0 DUP4 ADD CALLDATALOAD PUSH1 0xC0 DUP3 ADD MSTORE DUP1 SWAP2 POP POP SWAP3 SWAP2 POP POP JUMP JUMPDEST PUSH1 0x0 PUSH1 0x20 DUP3 DUP5 SUB SLT ISZERO PUSH2 0x1579 JUMPI PUSH1 0x0 DUP1 REVERT JUMPDEST DUP2 MLOAD PUSH1 0xFF DUP2 AND DUP2 EQ PUSH2 0x1486 JUMPI PUSH1 0x0 DUP1 REVERT JUMPDEST PUSH1 0x0 DUP2 MLOAD DUP1 DUP5 MSTORE PUSH1 0x0 JUMPDEST DUP2 DUP2 LT ISZERO PUSH2 0x15B0 JUMPI PUSH1 0x20 DUP2 DUP6 ADD DUP2 ADD MLOAD DUP7 DUP4 ADD DUP3 ADD MSTORE ADD PUSH2 0x1594 JUMP JUMPDEST POP PUSH1 0x0 PUSH1 0x20 DUP3 DUP7 ADD ADD MSTORE PUSH1 0x20 PUSH1 0x1F NOT PUSH1 0x1F DUP4 ADD AND DUP6 ADD ADD SWAP2 POP POP SWAP3 SWAP2 POP POP JUMP JUMPDEST PUSH1 0x0 PUSH2 0x140 DUP3 MLOAD DUP2 DUP6 MSTORE PUSH2 0x15E6 DUP3 DUP7 ADD DUP3 PUSH2 0x158A JUMP JUMPDEST SWAP2 POP POP PUSH1 0x20 DUP4 ADD MLOAD DUP5 DUP3 SUB PUSH1 0x20 DUP7 ADD MSTORE PUSH2 0x1600 DUP3 DUP3 PUSH2 0x158A JUMP JUMPDEST SWAP2 POP POP PUSH1 0x40 DUP4 ADD MLOAD DUP5 DUP3 SUB PUSH1 0x40 DUP7 ADD MSTORE PUSH2 0x161A DUP3 DUP3 PUSH2 0x158A JUMP JUMPDEST SWAP2 POP POP PUSH1 0x60 DUP4 ADD MLOAD DUP5 DUP3 SUB PUSH1 0x60 DUP7 ADD MSTORE PUSH2 0x1634 DUP3 DUP3 PUSH2 0x158A JUMP JUMPDEST SWAP2 POP POP PUSH1 0x80 DUP4 ADD MLOAD DUP5 DUP3 SUB PUSH1 0x80 DUP7 ADD MSTORE PUSH2 0x164E DUP3 DUP3 PUSH2 0x158A JUMP JUMPDEST SWAP2 POP POP PUSH1 0xA0 DUP4 ADD MLOAD DUP5 DUP3 SUB PUSH1 0xA0 DUP7 ADD MSTORE PUSH2 0x1668 DUP3 DUP3 PUSH2 0x158A JUMP JUMPDEST SWAP2 POP POP PUSH1 0xC0 DUP4 ADD MLOAD DUP5 DUP3 SUB PUSH1 0xC0 DUP7 ADD MSTORE PUSH2 0x1682 DUP3 DUP3 PUSH2 0x158A JUMP JUMPDEST SWAP2 POP POP PUSH1 0xE0 DUP4 ADD MLOAD DUP5 DUP3 SUB PUSH1 0xE0 DUP7 ADD MSTORE PUSH2 0x169C DUP3 DUP3 PUSH2 0x158A JUMP JUMPDEST SWAP2 POP POP PUSH2 0x100 DUP1 DUP5 ADD MLOAD DUP6 DUP4 SUB DUP3 DUP8 ADD MSTORE PUSH2 0x16B7 DUP4 DUP3 PUSH2 0x158A JUMP JUMPDEST SWAP3 POP POP POP PUSH2 0x120 DUP1 DUP5 ADD MLOAD DUP6 DUP4 SUB DUP3 DUP8 ADD MSTORE PUSH2 0x16D3 DUP4 DUP3 PUSH2 0x158A JUMP JUMPDEST SWAP7 SWAP6 POP POP POP POP POP POP JUMP JUMPDEST DUP9 MLOAD PUSH1 0x1 PUSH1 0x1 PUSH1 0xA0 SHL SUB AND DUP2 MSTORE PUSH1 0x0 PUSH2 0x3A0 PUSH1 0x20 DUP12 ADD MLOAD PUSH2 0x1709 PUSH1 0x20 DUP6 ADD DUP3 PUSH1 0x1 PUSH1 0x1 PUSH1 0xA0 SHL SUB AND SWAP1 MSTORE JUMP JUMPDEST POP PUSH1 0x40 DUP12 DUP2 ADD MLOAD DUP5 DUP3 ADD MSTORE PUSH1 0x60 DUP1 DUP14 ADD MLOAD SWAP1 DUP6 ADD MSTORE PUSH1 0x80 DUP1 DUP14 ADD MLOAD SWAP1 DUP6 ADD MSTORE PUSH1 0xA0 DUP1 DUP14 ADD MLOAD SWAP1 DUP6 ADD MSTORE PUSH1 0xC0 DUP1 DUP14 ADD MLOAD SWAP1 DUP6 ADD MSTORE PUSH1 0xE0 DUP1 DUP14 ADD MLOAD SWAP1 DUP6 ADD MSTORE PUSH2 0x100 DUP1 DUP14 ADD MLOAD SWAP1 DUP6 ADD MSTORE PUSH2 0x120 DUP1 DUP14 ADD MLOAD SWAP1 DUP6 ADD MSTORE PUSH2 0x140 DUP1 DUP14 ADD MLOAD SWAP1 DUP6 ADD MSTORE DUP11 MLOAD PUSH2 0x160 DUP6 ADD MSTORE PUSH1 0x20 DUP12 ADD MLOAD PUSH2 0x180 DUP6 ADD MSTORE DUP11 ADD MLOAD PUSH2 0x1A0 DUP5 ADD MSTORE DUP9 MLOAD ISZERO ISZERO PUSH2 0x1C0 DUP5 ADD MSTORE PUSH1 0x20 DUP10 ADD MLOAD PUSH1 0x1 PUSH1 0x1 PUSH1 0xA0 SHL SUB SWAP1 DUP2 AND PUSH2 0x1E0 DUP6 ADD MSTORE PUSH1 0x40 DUP11 ADD MLOAD AND PUSH2 0x200 DUP5 ADD MSTORE PUSH1 0x60 DUP10 ADD MLOAD PUSH2 0x220 DUP5 ADD MSTORE PUSH1 0x80 DUP10 ADD MLOAD PUSH2 0x240 DUP5 ADD MSTORE PUSH1 0xA0 DUP10 ADD MLOAD PUSH2 0x260 DUP5 ADD MSTORE DUP8 MLOAD PUSH2 0x280 DUP5 ADD MSTORE PUSH1 0x20 DUP9 ADD MLOAD PUSH2 0x2A0 DUP5 ADD MSTORE DUP7 MLOAD PUSH1 0x1 PUSH1 0x1 PUSH1 0xA0 SHL SUB SWAP1 DUP2 AND PUSH2 0x2C0 DUP6 ADD MSTORE PUSH1 0x20 DUP9 ADD MLOAD DUP2 AND PUSH2 0x2E0 DUP6 ADD MSTORE PUSH1 0x40 DUP9 ADD MLOAD DUP2 AND PUSH2 0x300 DUP6 ADD MSTORE PUSH1 0x60 DUP9 ADD MLOAD AND PUSH2 0x320 DUP5 ADD MSTORE DUP1 PUSH2 0x340 DUP5 ADD MSTORE PUSH2 0x182F DUP2 DUP5 ADD DUP8 PUSH2 0x15D0 JUMP JUMPDEST PUSH2 0x360 DUP5 ADD SWAP6 SWAP1 SWAP6 MSTORE POP POP PUSH2 0x380 ADD MSTORE SWAP7 SWAP6 POP POP POP POP POP POP JUMP JUMPDEST PUSH1 0x0 PUSH1 0x20 DUP3 DUP5 SUB SLT ISZERO PUSH2 0x185B JUMPI PUSH1 0x0 DUP1 REVERT JUMPDEST POP MLOAD SWAP2 SWAP1 POP JUMP JUMPDEST PUSH1 0x0 PUSH1 0x20 DUP3 DUP5 SUB SLT ISZERO PUSH2 0x1874 JUMPI PUSH1 0x0 DUP1 REVERT JUMPDEST DUP2 MLOAD PUSH2 0x1486 DUP2 PUSH2 0x1037 JUMP JUMPDEST PUSH4 0x4E487B71 PUSH1 0xE0 SHL PUSH1 0x0 MSTORE PUSH1 0x11 PUSH1 0x4 MSTORE PUSH1 0x24 PUSH1 0x0 REVERT JUMPDEST DUP1 DUP3 MUL DUP2 ISZERO DUP3 DUP3 DIV DUP5 EQ OR PUSH2 0xF14 JUMPI PUSH2 0xF14 PUSH2 0x187F JUMP JUMPDEST PUSH1 0x1 DUP2 DUP2 JUMPDEST DUP1 DUP6 GT ISZERO PUSH2 0x18E7 JUMPI DUP2 PUSH1 0x0 NOT DIV DUP3 GT ISZERO PUSH2 0x18CD JUMPI PUSH2 0x18CD PUSH2 0x187F JUMP JUMPDEST DUP1 DUP6 AND ISZERO PUSH2 0x18DA JUMPI SWAP2 DUP2 MUL SWAP2 JUMPDEST SWAP4 DUP5 SHR SWAP4 SWAP1 DUP1 MUL SWAP1 PUSH2 0x18B1 JUMP JUMPDEST POP SWAP3 POP SWAP3 SWAP1 POP JUMP JUMPDEST PUSH1 0x0 DUP3 PUSH2 0x18FE JUMPI POP PUSH1 0x1 PUSH2 0xF14 JUMP JUMPDEST DUP2 PUSH2 0x190B JUMPI POP PUSH1 0x0 PUSH2 0xF14 JUMP JUMPDEST DUP2 PUSH1 0x1 DUP2 EQ PUSH2 0x1921 JUMPI PUSH1 0x2 DUP2 EQ PUSH2 0x192B JUMPI PUSH2 0x1947 JUMP JUMPDEST PUSH1 0x1 SWAP2 POP POP PUSH2 0xF14 JUMP JUMPDEST PUSH1 0xFF DUP5 GT ISZERO PUSH2 0x193C JUMPI PUSH2 0x193C PUSH2 0x187F JUMP JUMPDEST POP POP PUSH1 0x1 DUP3 SHL PUSH2 0xF14 JUMP JUMPDEST POP PUSH1 0x20 DUP4 LT PUSH2 0x133 DUP4 LT AND PUSH1 0x4E DUP5 LT PUSH1 0xB DUP5 LT AND OR ISZERO PUSH2 0x196A JUMPI POP DUP2 DUP2 EXP PUSH2 0xF14 JUMP JUMPDEST PUSH2 0x1974 DUP4 DUP4 PUSH2 0x18AC JUMP JUMPDEST DUP1 PUSH1 0x0 NOT DIV DUP3 GT ISZERO PUSH2 0x1988 JUMPI PUSH2 0x1988 PUSH2 0x187F JUMP JUMPDEST MUL SWAP4 SWAP3 POP POP POP JUMP JUMPDEST PUSH1 0x0 PUSH2 0xF11 DUP4 DUP4 PUSH2 0x18EF JUMP JUMPDEST PUSH1 0x0 DUP3 PUSH2 0x19B9 JUMPI PUSH4 0x4E487B71 PUSH1 0xE0 SHL PUSH1 0x0 MSTORE PUSH1 0x12 PUSH1 0x4 MSTORE PUSH1 0x24 PUSH1 0x0 REVERT JUMPDEST POP DIV SWAP1 JUMP JUMPDEST DUP2 DUP2 SUB DUP2 DUP2 GT ISZERO PUSH2 0xF14 JUMPI PUSH2 0xF14 PUSH2 0x187F JUMP JUMPDEST DUP1 DUP3 ADD DUP1 DUP3 GT ISZERO PUSH2 0xF14 JUMPI PUSH2 0xF14 PUSH2 0x187F JUMP INVALID LOG2 PUSH5 0x6970667358 0x22 SLT KECCAK256 0x2A 0x2C MUL 0xC1 0x2E 0xB8 0x5C DUP12 XOR 0xBD 0xBE 0x22 0x2A PUSH22 0x79D0B6689E949DB8357B0BB83B1C157C2D7D64736F6C PUSH4 0x43000812 STOP CALLER "
				},
				"gasEstimates": {
					"creation": {
						"codeDepositCost": "1336400",
						"executionCost": "infinite",
						"totalCost": "infinite"
					},
					"external": {
						"ZOOM()": "307",
						"allLaunchpads(uint256)": "4693",
						"calculateTokens((address,uint256,uint256,uint256,uint256,uint256,uint256))": "infinite",
						"deployLaunchpad((address,address,uint256,uint256,uint256,uint256,uint256,uint256,uint256,uint256,uint256),(uint256,uint256,uint256),(bool,address,address,uint256,uint256,uint256),(uint256,uint256),(string,string,string,string,string,string,string,string,string,string))": "infinite",
						"flatFee()": "2383",
						"fundAddress()": "2436",
						"implementation()": "2371",
						"owner()": "2409",
						"penaltyFeePercent()": "2362",
						"renounceOwnership()": "infinite",
						"setFlatFee(uint256)": "24512",
						"setFundAddress(address)": "26752",
						"setImplementations(address)": "26840",
						"setPenalyFeePercent(uint256)": "24649",
						"setSuperAccount(address)": "26774",
						"setVirtualLock(address)": "26752",
						"superAccount()": "2370",
						"totalLaunchpads()": "infinite",
						"totalLaunchpadsByUser(address)": "infinite",
						"transferOwnership(address)": "infinite",
						"virtualLock()": "2393"
					}
				},
				"methodIdentifiers": {
					"ZOOM()": "58e5bc88",
					"allLaunchpads(uint256)": "53aca078",
					"calculateTokens((address,uint256,uint256,uint256,uint256,uint256,uint256))": "a96df743",
					"deployLaunchpad((address,address,uint256,uint256,uint256,uint256,uint256,uint256,uint256,uint256,uint256),(uint256,uint256,uint256),(bool,address,address,uint256,uint256,uint256),(uint256,uint256),(string,string,string,string,string,string,string,string,string,string))": "49a1f14b",
					"flatFee()": "d9eb5947",
					"fundAddress()": "e82bef29",
					"implementation()": "5c60da1b",
					"owner()": "8da5cb5b",
					"penaltyFeePercent()": "8a9b66cc",
					"renounceOwnership()": "715018a6",
					"setFlatFee(uint256)": "23fa495a",
					"setFundAddress(address)": "85dc3004",
					"setImplementations(address)": "9352dace",
					"setPenalyFeePercent(uint256)": "51ae878f",
					"setSuperAccount(address)": "892f78fa",
					"setVirtualLock(address)": "5a416a36",
					"superAccount()": "b6b7913e",
					"totalLaunchpads()": "c06ca1dd",
					"totalLaunchpadsByUser(address)": "6de944dc",
					"transferOwnership(address)": "f2fde38b",
					"virtualLock()": "640f82f3"
				}
			},
			"storageLayout": {
				"storage": [
					{
						"astId": 1046,
						"contract": "LaunchpadFactory/LaunchpadFactory_flattened.sol:LaunchpadFactory",
						"label": "_owner",
						"offset": 0,
						"slot": "0",
						"type": "t_address"
					},
					{
						"astId": 1165,
						"contract": "LaunchpadFactory/LaunchpadFactory_flattened.sol:LaunchpadFactory",
						"label": "flatFee",
						"offset": 0,
						"slot": "1",
						"type": "t_uint256"
					},
					{
						"astId": 1168,
						"contract": "LaunchpadFactory/LaunchpadFactory_flattened.sol:LaunchpadFactory",
						"label": "penaltyFeePercent",
						"offset": 0,
						"slot": "2",
						"type": "t_uint256"
					},
					{
						"astId": 1170,
						"contract": "LaunchpadFactory/LaunchpadFactory_flattened.sol:LaunchpadFactory",
						"label": "superAccount",
						"offset": 0,
						"slot": "3",
						"type": "t_address"
					},
					{
						"astId": 1172,
						"contract": "LaunchpadFactory/LaunchpadFactory_flattened.sol:LaunchpadFactory",
						"label": "virtualLock",
						"offset": 0,
						"slot": "4",
						"type": "t_address"
					},
					{
						"astId": 1174,
						"contract": "LaunchpadFactory/LaunchpadFactory_flattened.sol:LaunchpadFactory",
						"label": "fundAddress",
						"offset": 0,
						"slot": "5",
						"type": "t_address_payable"
					},
					{
						"astId": 1176,
						"contract": "LaunchpadFactory/LaunchpadFactory_flattened.sol:LaunchpadFactory",
						"label": "implementation",
						"offset": 0,
						"slot": "6",
						"type": "t_address"
					},
					{
						"astId": 1180,
						"contract": "LaunchpadFactory/LaunchpadFactory_flattened.sol:LaunchpadFactory",
						"label": "allLaunchpads",
						"offset": 0,
						"slot": "7",
						"type": "t_array(t_contract(ILaunchpad)214)dyn_storage"
					},
					{
						"astId": 1186,
						"contract": "LaunchpadFactory/LaunchpadFactory_flattened.sol:LaunchpadFactory",
						"label": "allLaunchpadsOf",
						"offset": 0,
						"slot": "8",
						"type": "t_mapping(t_address,t_array(t_contract(ILaunchpad)214)dyn_storage)"
					}
				],
				"types": {
					"t_address": {
						"encoding": "inplace",
						"label": "address",
						"numberOfBytes": "20"
					},
					"t_address_payable": {
						"encoding": "inplace",
						"label": "address payable",
						"numberOfBytes": "20"
					},
					"t_array(t_contract(ILaunchpad)214)dyn_storage": {
						"base": "t_contract(ILaunchpad)214",
						"encoding": "dynamic_array",
						"label": "contract ILaunchpad[]",
						"numberOfBytes": "32"
					},
					"t_contract(ILaunchpad)214": {
						"encoding": "inplace",
						"label": "contract ILaunchpad",
						"numberOfBytes": "20"
					},
					"t_mapping(t_address,t_array(t_contract(ILaunchpad)214)dyn_storage)": {
						"encoding": "mapping",
						"key": "t_address",
						"label": "mapping(address => contract ILaunchpad[])",
						"numberOfBytes": "32",
						"value": "t_array(t_contract(ILaunchpad)214)dyn_storage"
					},
					"t_uint256": {
						"encoding": "inplace",
						"label": "uint256",
						"numberOfBytes": "32"
					}
				}
			},
			"userdoc": {
				"kind": "user",
				"methods": {},
				"version": 1
			}
		}
	}
}