{
	"LaunchpadFactory/LaunchpadFactory.sol": {
		"LaunchpadFactory": {
			"abi": [
				{
					"inputs": [
						{
							"internalType": "address",
							"name": "_superAccount",
							"type": "address"
						},
						{
							"internalType": "address",
							"name": "_virtualLock",
							"type": "address"
						},
						{
							"internalType": "address payable",
							"name": "_fundAddress",
							"type": "address"
						},
						{
							"internalType": "address",
							"name": "_implementation",
							"type": "address"
						}
					],
					"stateMutability": "nonpayable",
					"type": "constructor"
				},
				{
					"anonymous": false,
					"inputs": [
						{
							"indexed": true,
							"internalType": "address",
							"name": "launchpad",
							"type": "address"
						}
					],
					"name": "NewLaunchpad",
					"type": "event"
				},
				{
					"anonymous": false,
					"inputs": [
						{
							"indexed": true,
							"internalType": "address",
							"name": "previousOwner",
							"type": "address"
						},
						{
							"indexed": true,
							"internalType": "address",
							"name": "newOwner",
							"type": "address"
						}
					],
					"name": "OwnershipTransferred",
					"type": "event"
				},
				{
					"inputs": [],
					"name": "ZOOM",
					"outputs": [
						{
							"internalType": "uint256",
							"name": "",
							"type": "uint256"
						}
					],
					"stateMutability": "view",
					"type": "function"
				},
				{
					"inputs": [
						{
							"internalType": "uint256",
							"name": "",
							"type": "uint256"
						}
					],
					"name": "allLaunchpads",
					"outputs": [
						{
							"internalType": "contract ILaunchpad",
							"name": "",
							"type": "address"
						}
					],
					"stateMutability": "view",
					"type": "function"
				},
				{
					"inputs": [
						{
							"components": [
								{
									"internalType": "address",
									"name": "feeToken",
									"type": "address"
								},
								{
									"internalType": "uint256",
									"name": "presaleRate",
									"type": "uint256"
								},
								{
									"internalType": "uint256",
									"name": "hardCap",
									"type": "uint256"
								},
								{
									"internalType": "uint256",
									"name": "raisedTokenFeePercent",
									"type": "uint256"
								},
								{
									"internalType": "uint256",
									"name": "raisedFeePercent",
									"type": "uint256"
								},
								{
									"internalType": "uint256",
									"name": "listingPercent",
									"type": "uint256"
								},
								{
									"internalType": "uint256",
									"name": "listingPrice",
									"type": "uint256"
								}
							],
							"internalType": "struct LaunchpadStructs.CalculateTokenInput",
							"name": "input",
							"type": "tuple"
						}
					],
					"name": "calculateTokens",
					"outputs": [
						{
							"internalType": "uint256",
							"name": "",
							"type": "uint256"
						},
						{
							"internalType": "uint256",
							"name": "",
							"type": "uint256"
						}
					],
					"stateMutability": "view",
					"type": "function"
				},
				{
					"inputs": [
						{
							"components": [
								{
									"internalType": "address",
									"name": "icoToken",
									"type": "address"
								},
								{
									"internalType": "address",
									"name": "feeToken",
									"type": "address"
								},
								{
									"internalType": "uint256",
									"name": "softCap",
									"type": "uint256"
								},
								{
									"internalType": "uint256",
									"name": "hardCap",
									"type": "uint256"
								},
								{
									"internalType": "uint256",
									"name": "presaleRate",
									"type": "uint256"
								},
								{
									"internalType": "uint256",
									"name": "minInvest",
									"type": "uint256"
								},
								{
									"internalType": "uint256",
									"name": "maxInvest",
									"type": "uint256"
								},
								{
									"internalType": "uint256",
									"name": "startTime",
									"type": "uint256"
								},
								{
									"internalType": "uint256",
									"name": "endTime",
									"type": "uint256"
								},
								{
									"internalType": "uint256",
									"name": "whitelistPool",
									"type": "uint256"
								},
								{
									"internalType": "uint256",
									"name": "poolType",
									"type": "uint256"
								}
							],
							"internalType": "struct LaunchpadStructs.LaunchpadInfo",
							"name": "info",
							"type": "tuple"
						},
						{
							"components": [
								{
									"internalType": "uint256",
									"name": "firstReleasePercent",
									"type": "uint256"
								},
								{
									"internalType": "uint256",
									"name": "vestingPeriodEachCycle",
									"type": "uint256"
								},
								{
									"internalType": "uint256",
									"name": "tokenReleaseEachCycle",
									"type": "uint256"
								}
							],
							"internalType": "struct LaunchpadStructs.ClaimInfo",
							"name": "claimInfo",
							"type": "tuple"
						},
						{
							"components": [
								{
									"internalType": "bool",
									"name": "manualListing",
									"type": "bool"
								},
								{
									"internalType": "address",
									"name": "routerAddress",
									"type": "address"
								},
								{
									"internalType": "address",
									"name": "factoryAddress",
									"type": "address"
								},
								{
									"internalType": "uint256",
									"name": "listingPrice",
									"type": "uint256"
								},
								{
									"internalType": "uint256",
									"name": "listingPercent",
									"type": "uint256"
								},
								{
									"internalType": "uint256",
									"name": "lpLockTime",
									"type": "uint256"
								}
							],
							"internalType": "struct LaunchpadStructs.DexInfo",
							"name": "dexInfo",
							"type": "tuple"
						},
						{
							"components": [
								{
									"internalType": "uint256",
									"name": "raisedFeePercent",
									"type": "uint256"
								},
								{
									"internalType": "uint256",
									"name": "raisedTokenFeePercent",
									"type": "uint256"
								}
							],
							"internalType": "struct LaunchpadStructs.FeeSystem",
							"name": "feeInfo",
							"type": "tuple"
						},
						{
							"components": [
								{
									"internalType": "string",
									"name": "logoURL",
									"type": "string"
								},
								{
									"internalType": "string",
									"name": "description",
									"type": "string"
								},
								{
									"internalType": "string",
									"name": "websiteURL",
									"type": "string"
								},
								{
									"internalType": "string",
									"name": "facebookURL",
									"type": "string"
								},
								{
									"internalType": "string",
									"name": "twitterURL",
									"type": "string"
								},
								{
									"internalType": "string",
									"name": "githubURL",
									"type": "string"
								},
								{
									"internalType": "string",
									"name": "telegramURL",
									"type": "string"
								},
								{
									"internalType": "string",
									"name": "instagramURL",
									"type": "string"
								},
								{
									"internalType": "string",
									"name": "discordURL",
									"type": "string"
								},
								{
									"internalType": "string",
									"name": "redditURL",
									"type": "string"
								}
							],
							"internalType": "struct LaunchpadStructs.SocialLinks",
							"name": "socialLinks",
							"type": "tuple"
						}
					],
					"name": "deployLaunchpad",
					"outputs": [],
					"stateMutability": "payable",
					"type": "function"
				},
				{
					"inputs": [],
					"name": "flatFee",
					"outputs": [
						{
							"internalType": "uint256",
							"name": "",
							"type": "uint256"
						}
					],
					"stateMutability": "view",
					"type": "function"
				},
				{
					"inputs": [],
					"name": "fundAddress",
					"outputs": [
						{
							"internalType": "address payable",
							"name": "",
							"type": "address"
						}
					],
					"stateMutability": "view",
					"type": "function"
				},
				{
					"inputs": [],
					"name": "implementation",
					"outputs": [
						{
							"internalType": "address",
							"name": "",
							"type": "address"
						}
					],
					"stateMutability": "view",
					"type": "function"
				},
				{
					"inputs": [],
					"name": "owner",
					"outputs": [
						{
							"internalType": "address",
							"name": "",
							"type": "address"
						}
					],
					"stateMutability": "view",
					"type": "function"
				},
				{
					"inputs": [],
					"name": "penaltyFeePercent",
					"outputs": [
						{
							"internalType": "uint256",
							"name": "",
							"type": "uint256"
						}
					],
					"stateMutability": "view",
					"type": "function"
				},
				{
					"inputs": [],
					"name": "renounceOwnership",
					"outputs": [],
					"stateMutability": "nonpayable",
					"type": "function"
				},
				{
					"inputs": [
						{
							"internalType": "uint256",
							"name": "_flatFee",
							"type": "uint256"
						}
					],
					"name": "setFlatFee",
					"outputs": [],
					"stateMutability": "nonpayable",
					"type": "function"
				},
				{
					"inputs": [
						{
							"internalType": "address payable",
							"name": "_fundAddress",
							"type": "address"
						}
					],
					"name": "setFundAddress",
					"outputs": [],
					"stateMutability": "nonpayable",
					"type": "function"
				},
				{
					"inputs": [
						{
							"internalType": "address",
							"name": "_implementation",
							"type": "address"
						}
					],
					"name": "setImplementations",
					"outputs": [],
					"stateMutability": "nonpayable",
					"type": "function"
				},
				{
					"inputs": [
						{
							"internalType": "uint256",
							"name": "_penaltyFeePercent",
							"type": "uint256"
						}
					],
					"name": "setPenalyFeePercent",
					"outputs": [],
					"stateMutability": "nonpayable",
					"type": "function"
				},
				{
					"inputs": [
						{
							"internalType": "address",
							"name": "_superAccount",
							"type": "address"
						}
					],
					"name": "setSuperAccount",
					"outputs": [],
					"stateMutability": "nonpayable",
					"type": "function"
				},
				{
					"inputs": [
						{
							"internalType": "address",
							"name": "_virtualLock",
							"type": "address"
						}
					],
					"name": "setVirtualLock",
					"outputs": [],
					"stateMutability": "nonpayable",
					"type": "function"
				},
				{
					"inputs": [],
					"name": "superAccount",
					"outputs": [
						{
							"internalType": "address",
							"name": "",
							"type": "address"
						}
					],
					"stateMutability": "view",
					"type": "function"
				},
				{
					"inputs": [],
					"name": "totalLaunchpads",
					"outputs": [
						{
							"internalType": "contract ILaunchpad[]",
							"name": "launchpads",
							"type": "address[]"
						}
					],
					"stateMutability": "view",
					"type": "function"
				},
				{
					"inputs": [
						{
							"internalType": "address",
							"name": "_user",
							"type": "address"
						}
					],
					"name": "totalLaunchpadsByUser",
					"outputs": [
						{
							"internalType": "contract ILaunchpad[]",
							"name": "launchpadsByUser",
							"type": "address[]"
						}
					],
					"stateMutability": "view",
					"type": "function"
				},
				{
					"inputs": [
						{
							"internalType": "address",
							"name": "newOwner",
							"type": "address"
						}
					],
					"name": "transferOwnership",
					"outputs": [],
					"stateMutability": "nonpayable",
					"type": "function"
				},
				{
					"inputs": [],
					"name": "virtualLock",
					"outputs": [
						{
							"internalType": "address",
							"name": "",
							"type": "address"
						}
					],
					"stateMutability": "view",
					"type": "function"
				}
			],
			"devdoc": {
				"kind": "dev",
				"methods": {
					"owner()": {
						"details": "Returns the address of the current owner."
					},
					"renounceOwnership()": {
						"details": "Leaves the contract without owner. It will not be possible to call `onlyOwner` functions. Can only be called by the current owner. NOTE: Renouncing ownership will leave the contract without an owner, thereby disabling any functionality that is only available to the owner."
					},
					"transferOwnership(address)": {
						"details": "Transfers ownership of the contract to a new account (`newOwner`). Can only be called by the current owner."
					}
				},
				"version": 1
			},
			"evm": {
				"assembly": "    /* \"LaunchpadFactory/LaunchpadFactory.sol\":437:8637  contract LaunchpadFactory is Ownable {... */\n  mstore(0x40, 0x80)\n    /* \"LaunchpadFactory/LaunchpadFactory.sol\":721:725  1000 */\n  0x03e8\n    /* \"LaunchpadFactory/LaunchpadFactory.sol\":686:725  uint256 public penaltyFeePercent = 1000 */\n  0x02\n  sstore\n    /* \"LaunchpadFactory/LaunchpadFactory.sol\":1406:2313  constructor(... */\n  callvalue\n  dup1\n  iszero\n  tag_1\n  jumpi\n  0x00\n  dup1\n  revert\ntag_1:\n  pop\n  mload(0x40)\n  sub(codesize, bytecodeSize)\n  dup1\n  bytecodeSize\n  dup4\n  codecopy\n  dup2\n  add\n  0x40\n  dup2\n  swap1\n  mstore\n  tag_2\n  swap2\n  tag_3\n  jump\t// in\ntag_2:\n    /* \"@openzeppelin/contracts/access/Ownable.sol\":936:968  _transferOwnership(_msgSender()) */\n  tag_7\n    /* \"@openzeppelin/contracts/utils/Context.sol\":719:729  msg.sender */\n  caller\n    /* \"@openzeppelin/contracts/access/Ownable.sol\":936:954  _transferOwnership */\n  tag_10\n    /* \"@openzeppelin/contracts/access/Ownable.sol\":936:968  _transferOwnership(_msgSender()) */\n  jump\t// in\ntag_7:\n  sub(shl(0xa0, 0x01), 0x01)\n    /* \"LaunchpadFactory/LaunchpadFactory.sol\":1705:1731  _virtualLock != address(0) */\n  dup4\n  and\n  iszero\n  dup1\n  iszero\n  swap1\n    /* \"LaunchpadFactory/LaunchpadFactory.sol\":1705:1764  _virtualLock != address(0) && _virtualLock != address(this) */\n  tag_12\n  jumpi\n  pop\n  sub(shl(0xa0, 0x01), 0x01)\n    /* \"LaunchpadFactory/LaunchpadFactory.sol\":1735:1764  _virtualLock != address(this) */\n  dup4\n  and\n    /* \"LaunchpadFactory/LaunchpadFactory.sol\":1759:1763  this */\n  address\n    /* \"LaunchpadFactory/LaunchpadFactory.sol\":1735:1764  _virtualLock != address(this) */\n  eq\n  iszero\n    /* \"LaunchpadFactory/LaunchpadFactory.sol\":1705:1764  _virtualLock != address(0) && _virtualLock != address(this) */\ntag_12:\n    /* \"LaunchpadFactory/LaunchpadFactory.sol\":1683:1820  require(... */\n  tag_13\n  jumpi\n  mload(0x40)\n  shl(0xe5, 0x461bcd)\n  dup2\n  mstore\n    /* \"#utility.yul\":1019:1021   */\n  0x20\n    /* \"LaunchpadFactory/LaunchpadFactory.sol\":1683:1820  require(... */\n  0x04\n  dup3\n  add\n    /* \"#utility.yul\":1001:1022   */\n  mstore\n    /* \"#utility.yul\":1058:1060   */\n  0x1c\n    /* \"#utility.yul\":1038:1056   */\n  0x24\n  dup3\n  add\n    /* \"#utility.yul\":1031:1061   */\n  mstore\n    /* \"#utility.yul\":1097:1127   */\n  0x4c61756368706164466163746f72793a207669727475616c4c6f636b00000000\n    /* \"#utility.yul\":1077:1095   */\n  0x44\n  dup3\n  add\n    /* \"#utility.yul\":1070:1128   */\n  mstore\n    /* \"#utility.yul\":1145:1163   */\n  0x64\n  add\n    /* \"LaunchpadFactory/LaunchpadFactory.sol\":1683:1820  require(... */\ntag_14:\n  mload(0x40)\n  dup1\n  swap2\n  sub\n  swap1\n  revert\ntag_13:\n  sub(shl(0xa0, 0x01), 0x01)\n    /* \"LaunchpadFactory/LaunchpadFactory.sol\":1853:1880  _superAccount != address(0) */\n  dup5\n  and\n  iszero\n  dup1\n  iszero\n  swap1\n    /* \"LaunchpadFactory/LaunchpadFactory.sol\":1853:1914  _superAccount != address(0) && _superAccount != address(this) */\n  tag_16\n  jumpi\n  pop\n  sub(shl(0xa0, 0x01), 0x01)\n    /* \"LaunchpadFactory/LaunchpadFactory.sol\":1884:1914  _superAccount != address(this) */\n  dup5\n  and\n    /* \"LaunchpadFactory/LaunchpadFactory.sol\":1909:1913  this */\n  address\n    /* \"LaunchpadFactory/LaunchpadFactory.sol\":1884:1914  _superAccount != address(this) */\n  eq\n  iszero\n    /* \"LaunchpadFactory/LaunchpadFactory.sol\":1853:1914  _superAccount != address(0) && _superAccount != address(this) */\ntag_16:\n    /* \"LaunchpadFactory/LaunchpadFactory.sol\":1831:1971  require(... */\n  tag_17\n  jumpi\n  mload(0x40)\n  shl(0xe5, 0x461bcd)\n  dup2\n  mstore\n    /* \"#utility.yul\":1376:1378   */\n  0x20\n    /* \"LaunchpadFactory/LaunchpadFactory.sol\":1831:1971  require(... */\n  0x04\n  dup3\n  add\n    /* \"#utility.yul\":1358:1379   */\n  mstore\n    /* \"#utility.yul\":1415:1417   */\n  0x1d\n    /* \"#utility.yul\":1395:1413   */\n  0x24\n  dup3\n  add\n    /* \"#utility.yul\":1388:1418   */\n  mstore\n    /* \"#utility.yul\":1454:1485   */\n  0x4c61756368706164466163746f72793a2073757065724163636f756e74000000\n    /* \"#utility.yul\":1434:1452   */\n  0x44\n  dup3\n  add\n    /* \"#utility.yul\":1427:1486   */\n  mstore\n    /* \"#utility.yul\":1503:1521   */\n  0x64\n  add\n    /* \"LaunchpadFactory/LaunchpadFactory.sol\":1831:1971  require(... */\n  tag_14\n    /* \"#utility.yul\":1174:1527   */\n  jump\n    /* \"LaunchpadFactory/LaunchpadFactory.sol\":1831:1971  require(... */\ntag_17:\n  sub(shl(0xa0, 0x01), 0x01)\n    /* \"LaunchpadFactory/LaunchpadFactory.sol\":2004:2030  _fundAddress != address(0) */\n  dup3\n  and\n  iszero\n  dup1\n  iszero\n  swap1\n    /* \"LaunchpadFactory/LaunchpadFactory.sol\":2004:2063  _fundAddress != address(0) && _fundAddress != address(this) */\n  tag_20\n  jumpi\n  pop\n  sub(shl(0xa0, 0x01), 0x01)\n    /* \"LaunchpadFactory/LaunchpadFactory.sol\":2034:2063  _fundAddress != address(this) */\n  dup3\n  and\n    /* \"LaunchpadFactory/LaunchpadFactory.sol\":2058:2062  this */\n  address\n    /* \"LaunchpadFactory/LaunchpadFactory.sol\":2034:2063  _fundAddress != address(this) */\n  eq\n  iszero\n    /* \"LaunchpadFactory/LaunchpadFactory.sol\":2004:2063  _fundAddress != address(0) && _fundAddress != address(this) */\ntag_20:\n    /* \"LaunchpadFactory/LaunchpadFactory.sol\":1982:2119  require(... */\n  tag_21\n  jumpi\n  mload(0x40)\n  shl(0xe5, 0x461bcd)\n  dup2\n  mstore\n    /* \"#utility.yul\":1734:1736   */\n  0x20\n    /* \"LaunchpadFactory/LaunchpadFactory.sol\":1982:2119  require(... */\n  0x04\n  dup3\n  add\n    /* \"#utility.yul\":1716:1737   */\n  mstore\n    /* \"#utility.yul\":1773:1775   */\n  0x1c\n    /* \"#utility.yul\":1753:1771   */\n  0x24\n  dup3\n  add\n    /* \"#utility.yul\":1746:1776   */\n  mstore\n    /* \"#utility.yul\":1812:1842   */\n  0x4c61756368706164466163746f72793a2066756e644164647265737300000000\n    /* \"#utility.yul\":1792:1810   */\n  0x44\n  dup3\n  add\n    /* \"#utility.yul\":1785:1843   */\n  mstore\n    /* \"#utility.yul\":1860:1878   */\n  0x64\n  add\n    /* \"LaunchpadFactory/LaunchpadFactory.sol\":1982:2119  require(... */\n  tag_14\n    /* \"#utility.yul\":1532:1884   */\n  jump\n    /* \"LaunchpadFactory/LaunchpadFactory.sol\":1982:2119  require(... */\ntag_21:\n    /* \"LaunchpadFactory/LaunchpadFactory.sol\":2160:2172  superAccount */\n  0x03\n    /* \"LaunchpadFactory/LaunchpadFactory.sol\":2160:2188  superAccount = _superAccount */\n  dup1\n  sload\n  not(sub(shl(0xa0, 0x01), 0x01))\n  swap1\n  dup2\n  and\n  sub(shl(0xa0, 0x01), 0x01)\n  swap7\n  dup8\n  and\n  or\n  swap1\n  swap2\n  sstore\n    /* \"LaunchpadFactory/LaunchpadFactory.sol\":2199:2210  fundAddress */\n  0x05\n    /* \"LaunchpadFactory/LaunchpadFactory.sol\":2199:2225  fundAddress = _fundAddress */\n  dup1\n  sload\n  dup3\n  and\n  swap4\n  dup7\n  and\n  swap4\n  swap1\n  swap4\n  or\n  swap1\n  swap3\n  sstore\n    /* \"LaunchpadFactory/LaunchpadFactory.sol\":2236:2247  virtualLock */\n  0x04\n    /* \"LaunchpadFactory/LaunchpadFactory.sol\":2236:2262  virtualLock = _virtualLock */\n  dup1\n  sload\n  dup4\n  and\n  swap4\n  dup6\n  and\n  swap4\n  swap1\n  swap4\n  or\n  swap1\n  swap3\n  sstore\n    /* \"LaunchpadFactory/LaunchpadFactory.sol\":2273:2287  implementation */\n  0x06\n    /* \"LaunchpadFactory/LaunchpadFactory.sol\":2273:2305  implementation = _implementation */\n  dup1\n  sload\n  swap1\n  swap2\n  and\n  swap2\n  swap1\n  swap3\n  and\n  or\n  swap1\n  sstore\n    /* \"LaunchpadFactory/LaunchpadFactory.sol\":437:8637  contract LaunchpadFactory is Ownable {... */\n  jump(tag_28)\n    /* \"@openzeppelin/contracts/access/Ownable.sol\":2426:2613  function _transferOwnership(address newOwner) internal virtual {... */\ntag_10:\n    /* \"@openzeppelin/contracts/access/Ownable.sol\":2499:2515  address oldOwner */\n  0x00\n    /* \"@openzeppelin/contracts/access/Ownable.sol\":2518:2524  _owner */\n  dup1\n  sload\n  sub(shl(0xa0, 0x01), 0x01)\n    /* \"@openzeppelin/contracts/access/Ownable.sol\":2534:2551  _owner = newOwner */\n  dup4\n  dup2\n  and\n  not(sub(shl(0xa0, 0x01), 0x01))\n  dup4\n  and\n  dup2\n  or\n  dup5\n  sstore\n    /* \"@openzeppelin/contracts/access/Ownable.sol\":2566:2606  OwnershipTransferred(oldOwner, newOwner) */\n  mload(0x40)\n    /* \"@openzeppelin/contracts/access/Ownable.sol\":2518:2524  _owner */\n  swap2\n  swap1\n  swap3\n  and\n  swap3\n  dup4\n  swap2\n    /* \"@openzeppelin/contracts/access/Ownable.sol\":2566:2606  OwnershipTransferred(oldOwner, newOwner) */\n  0x8be0079c531659141344cd1fd0a4f28419497f9722a3daafe3b4186f6b6457e0\n  swap2\n    /* \"@openzeppelin/contracts/access/Ownable.sol\":2499:2515  address oldOwner */\n  swap1\n    /* \"@openzeppelin/contracts/access/Ownable.sol\":2566:2606  OwnershipTransferred(oldOwner, newOwner) */\n  log3\n    /* \"@openzeppelin/contracts/access/Ownable.sol\":2489:2613  {... */\n  pop\n    /* \"@openzeppelin/contracts/access/Ownable.sol\":2426:2613  function _transferOwnership(address newOwner) internal virtual {... */\n  pop\n  jump\t// out\n    /* \"#utility.yul\":14:145   */\ntag_27:\n  sub(shl(0xa0, 0x01), 0x01)\n    /* \"#utility.yul\":89:120   */\n  dup2\n  and\n    /* \"#utility.yul\":79:121   */\n  dup2\n  eq\n    /* \"#utility.yul\":69:139   */\n  tag_30\n  jumpi\n    /* \"#utility.yul\":135:136   */\n  0x00\n    /* \"#utility.yul\":132:133   */\n  dup1\n    /* \"#utility.yul\":125:137   */\n  revert\n    /* \"#utility.yul\":69:139   */\ntag_30:\n    /* \"#utility.yul\":14:145   */\n  pop\n  jump\t// out\n    /* \"#utility.yul\":150:812   */\ntag_3:\n    /* \"#utility.yul\":255:261   */\n  0x00\n    /* \"#utility.yul\":263:269   */\n  dup1\n    /* \"#utility.yul\":271:277   */\n  0x00\n    /* \"#utility.yul\":279:285   */\n  dup1\n    /* \"#utility.yul\":332:335   */\n  0x80\n    /* \"#utility.yul\":320:329   */\n  dup6\n    /* \"#utility.yul\":311:318   */\n  dup8\n    /* \"#utility.yul\":307:330   */\n  sub\n    /* \"#utility.yul\":303:336   */\n  slt\n    /* \"#utility.yul\":300:353   */\n  iszero\n  tag_32\n  jumpi\n    /* \"#utility.yul\":349:350   */\n  0x00\n    /* \"#utility.yul\":346:347   */\n  dup1\n    /* \"#utility.yul\":339:351   */\n  revert\n    /* \"#utility.yul\":300:353   */\ntag_32:\n    /* \"#utility.yul\":381:390   */\n  dup5\n    /* \"#utility.yul\":375:391   */\n  mload\n    /* \"#utility.yul\":400:431   */\n  tag_33\n    /* \"#utility.yul\":425:430   */\n  dup2\n    /* \"#utility.yul\":400:431   */\n  tag_27\n  jump\t// in\ntag_33:\n    /* \"#utility.yul\":500:502   */\n  0x20\n    /* \"#utility.yul\":485:503   */\n  dup7\n  add\n    /* \"#utility.yul\":479:504   */\n  mload\n    /* \"#utility.yul\":450:455   */\n  swap1\n  swap5\n  pop\n    /* \"#utility.yul\":513:546   */\n  tag_34\n    /* \"#utility.yul\":479:504   */\n  dup2\n    /* \"#utility.yul\":513:546   */\n  tag_27\n  jump\t// in\ntag_34:\n    /* \"#utility.yul\":617:619   */\n  0x40\n    /* \"#utility.yul\":602:620   */\n  dup7\n  add\n    /* \"#utility.yul\":596:621   */\n  mload\n    /* \"#utility.yul\":565:572   */\n  swap1\n  swap4\n  pop\n    /* \"#utility.yul\":630:663   */\n  tag_35\n    /* \"#utility.yul\":596:621   */\n  dup2\n    /* \"#utility.yul\":630:663   */\n  tag_27\n  jump\t// in\ntag_35:\n    /* \"#utility.yul\":734:736   */\n  0x60\n    /* \"#utility.yul\":719:737   */\n  dup7\n  add\n    /* \"#utility.yul\":713:738   */\n  mload\n    /* \"#utility.yul\":682:689   */\n  swap1\n  swap3\n  pop\n    /* \"#utility.yul\":747:780   */\n  tag_36\n    /* \"#utility.yul\":713:738   */\n  dup2\n    /* \"#utility.yul\":747:780   */\n  tag_27\n  jump\t// in\ntag_36:\n    /* \"#utility.yul\":150:812   */\n  swap4\n  swap7\n  swap3\n  swap6\n  pop\n  swap1\n  swap4\n  pop\n  pop\n  jump\t// out\n    /* \"#utility.yul\":1532:1884   */\ntag_28:\n    /* \"LaunchpadFactory/LaunchpadFactory.sol\":437:8637  contract LaunchpadFactory is Ownable {... */\n  dataSize(sub_0)\n  dup1\n  dataOffset(sub_0)\n  0x00\n  codecopy\n  0x00\n  return\nstop\n\nsub_0: assembly {\n        /* \"LaunchpadFactory/LaunchpadFactory.sol\":437:8637  contract LaunchpadFactory is Ownable {... */\n      mstore(0x40, 0x80)\n      jumpi(tag_1, lt(calldatasize, 0x04))\n      shr(0xe0, calldataload(0x00))\n      dup1\n      0x85dc3004\n      gt\n      tag_23\n      jumpi\n      dup1\n      0xa96df743\n      gt\n      tag_24\n      jumpi\n      dup1\n      0xa96df743\n      eq\n      tag_17\n      jumpi\n      dup1\n      0xb6b7913e\n      eq\n      tag_18\n      jumpi\n      dup1\n      0xc06ca1dd\n      eq\n      tag_19\n      jumpi\n      dup1\n      0xd9eb5947\n      eq\n      tag_20\n      jumpi\n      dup1\n      0xe82bef29\n      eq\n      tag_21\n      jumpi\n      dup1\n      0xf2fde38b\n      eq\n      tag_22\n      jumpi\n      0x00\n      dup1\n      revert\n    tag_24:\n      dup1\n      0x85dc3004\n      eq\n      tag_12\n      jumpi\n      dup1\n      0x892f78fa\n      eq\n      tag_13\n      jumpi\n      dup1\n      0x8a9b66cc\n      eq\n      tag_14\n      jumpi\n      dup1\n      0x8da5cb5b\n      eq\n      tag_15\n      jumpi\n      dup1\n      0x9352dace\n      eq\n      tag_16\n      jumpi\n      0x00\n      dup1\n      revert\n    tag_23:\n      dup1\n      0x5a416a36\n      gt\n      tag_25\n      jumpi\n      dup1\n      0x5a416a36\n      eq\n      tag_7\n      jumpi\n      dup1\n      0x5c60da1b\n      eq\n      tag_8\n      jumpi\n      dup1\n      0x640f82f3\n      eq\n      tag_9\n      jumpi\n      dup1\n      0x6de944dc\n      eq\n      tag_10\n      jumpi\n      dup1\n      0x715018a6\n      eq\n      tag_11\n      jumpi\n      0x00\n      dup1\n      revert\n    tag_25:\n      dup1\n      0x23fa495a\n      eq\n      tag_2\n      jumpi\n      dup1\n      0x49a1f14b\n      eq\n      tag_3\n      jumpi\n      dup1\n      0x51ae878f\n      eq\n      tag_4\n      jumpi\n      dup1\n      0x53aca078\n      eq\n      tag_5\n      jumpi\n      dup1\n      0x58e5bc88\n      eq\n      tag_6\n      jumpi\n    tag_1:\n      0x00\n      dup1\n      revert\n        /* \"LaunchpadFactory/LaunchpadFactory.sol\":2788:2880  function setFlatFee(uint256 _flatFee) public onlyOwner {... */\n    tag_2:\n      callvalue\n      dup1\n      iszero\n      tag_26\n      jumpi\n      0x00\n      dup1\n      revert\n    tag_26:\n      pop\n      tag_27\n      tag_28\n      calldatasize\n      0x04\n      tag_29\n      jump\t// in\n    tag_28:\n      tag_30\n      jump\t// in\n    tag_27:\n      stop\n        /* \"LaunchpadFactory/LaunchpadFactory.sol\":4782:8210  function deployLaunchpad(... */\n    tag_3:\n      tag_27\n      tag_32\n      calldatasize\n      0x04\n      tag_33\n      jump\t// in\n    tag_32:\n      tag_34\n      jump\t// in\n        /* \"LaunchpadFactory/LaunchpadFactory.sol\":2888:3051  function setPenalyFeePercent(uint256 _penaltyFeePercent) public onlyOwner {... */\n    tag_4:\n      callvalue\n      dup1\n      iszero\n      tag_35\n      jumpi\n      0x00\n      dup1\n      revert\n    tag_35:\n      pop\n      tag_27\n      tag_37\n      calldatasize\n      0x04\n      tag_29\n      jump\t// in\n    tag_37:\n      tag_38\n      jump\t// in\n        /* \"LaunchpadFactory/LaunchpadFactory.sol\":1137:1170  ILaunchpad[] public allLaunchpads */\n    tag_5:\n      callvalue\n      dup1\n      iszero\n      tag_39\n      jumpi\n      0x00\n      dup1\n      revert\n    tag_39:\n      pop\n      tag_40\n      tag_41\n      calldatasize\n      0x04\n      tag_29\n      jump\t// in\n    tag_41:\n      tag_42\n      jump\t// in\n    tag_40:\n      mload(0x40)\n      sub(shl(0xa0, 0x01), 0x01)\n        /* \"#utility.yul\":7920:7952   */\n      swap1\n      swap2\n      and\n        /* \"#utility.yul\":7902:7953   */\n      dup2\n      mstore\n        /* \"#utility.yul\":7890:7892   */\n      0x20\n        /* \"#utility.yul\":7875:7893   */\n      add\n        /* \"LaunchpadFactory/LaunchpadFactory.sol\":1137:1170  ILaunchpad[] public allLaunchpads */\n    tag_43:\n      mload(0x40)\n      dup1\n      swap2\n      sub\n      swap1\n      return\n        /* \"LaunchpadFactory/LaunchpadFactory.sol\":554:590  uint256 public constant ZOOM = 10000 */\n    tag_6:\n      callvalue\n      dup1\n      iszero\n      tag_45\n      jumpi\n      0x00\n      dup1\n      revert\n    tag_45:\n      pop\n      tag_46\n        /* \"LaunchpadFactory/LaunchpadFactory.sol\":585:590  10000 */\n      0x2710\n        /* \"LaunchpadFactory/LaunchpadFactory.sol\":554:590  uint256 public constant ZOOM = 10000 */\n      dup2\n      jump\n    tag_46:\n      mload(0x40)\n        /* \"#utility.yul\":8110:8135   */\n      swap1\n      dup2\n      mstore\n        /* \"#utility.yul\":8098:8100   */\n      0x20\n        /* \"#utility.yul\":8083:8101   */\n      add\n        /* \"LaunchpadFactory/LaunchpadFactory.sol\":554:590  uint256 public constant ZOOM = 10000 */\n      tag_43\n        /* \"#utility.yul\":7964:8141   */\n      jump\n        /* \"LaunchpadFactory/LaunchpadFactory.sol\":2548:2656  function setVirtualLock(address _virtualLock) public onlyOwner {... */\n    tag_7:\n      callvalue\n      dup1\n      iszero\n      tag_50\n      jumpi\n      0x00\n      dup1\n      revert\n    tag_50:\n      pop\n      tag_27\n      tag_52\n      calldatasize\n      0x04\n      tag_53\n      jump\t// in\n    tag_52:\n      tag_54\n      jump\t// in\n        /* \"LaunchpadFactory/LaunchpadFactory.sol\":1022:1051  address public implementation */\n    tag_8:\n      callvalue\n      dup1\n      iszero\n      tag_55\n      jumpi\n      0x00\n      dup1\n      revert\n    tag_55:\n      pop\n      sload(0x06)\n      tag_40\n      swap1\n      sub(shl(0xa0, 0x01), 0x01)\n      and\n      dup2\n      jump\n        /* \"LaunchpadFactory/LaunchpadFactory.sol\":897:923  address public virtualLock */\n    tag_9:\n      callvalue\n      dup1\n      iszero\n      tag_60\n      jumpi\n      0x00\n      dup1\n      revert\n    tag_60:\n      pop\n      sload(0x04)\n      tag_40\n      swap1\n      sub(shl(0xa0, 0x01), 0x01)\n      and\n      dup2\n      jump\n        /* \"LaunchpadFactory/LaunchpadFactory.sol\":8478:8632  function totalLaunchpadsByUser(address _user) external view returns (ILaunchpad[] memory launchpadsByUser){... */\n    tag_10:\n      callvalue\n      dup1\n      iszero\n      tag_64\n      jumpi\n      0x00\n      dup1\n      revert\n    tag_64:\n      pop\n      tag_65\n      tag_66\n      calldatasize\n      0x04\n      tag_53\n      jump\t// in\n    tag_66:\n      tag_67\n      jump\t// in\n    tag_65:\n      mload(0x40)\n      tag_43\n      swap2\n      swap1\n      tag_69\n      jump\t// in\n        /* \"@openzeppelin/contracts/access/Ownable.sol\":1824:1925  function renounceOwnership() public virtual onlyOwner {... */\n    tag_11:\n      callvalue\n      dup1\n      iszero\n      tag_70\n      jumpi\n      0x00\n      dup1\n      revert\n    tag_70:\n      pop\n      tag_27\n      tag_72\n      jump\t// in\n        /* \"LaunchpadFactory/LaunchpadFactory.sol\":2664:2780  function setFundAddress(address payable _fundAddress) public onlyOwner {... */\n    tag_12:\n      callvalue\n      dup1\n      iszero\n      tag_73\n      jumpi\n      0x00\n      dup1\n      revert\n    tag_73:\n      pop\n      tag_27\n      tag_75\n      calldatasize\n      0x04\n      tag_53\n      jump\t// in\n    tag_75:\n      tag_77\n      jump\t// in\n        /* \"LaunchpadFactory/LaunchpadFactory.sol\":2428:2540  function setSuperAccount(address _superAccount) public onlyOwner {... */\n    tag_13:\n      callvalue\n      dup1\n      iszero\n      tag_78\n      jumpi\n      0x00\n      dup1\n      revert\n    tag_78:\n      pop\n      tag_27\n      tag_80\n      calldatasize\n      0x04\n      tag_53\n      jump\t// in\n    tag_80:\n      tag_81\n      jump\t// in\n        /* \"LaunchpadFactory/LaunchpadFactory.sol\":686:725  uint256 public penaltyFeePercent = 1000 */\n    tag_14:\n      callvalue\n      dup1\n      iszero\n      tag_82\n      jumpi\n      0x00\n      dup1\n      revert\n    tag_82:\n      pop\n      tag_46\n      sload(0x02)\n      dup2\n      jump\n        /* \"@openzeppelin/contracts/access/Ownable.sol\":1201:1286  function owner() public view virtual returns (address) {... */\n    tag_15:\n      callvalue\n      dup1\n      iszero\n      tag_86\n      jumpi\n      0x00\n      dup1\n      revert\n    tag_86:\n      pop\n        /* \"@openzeppelin/contracts/access/Ownable.sol\":1247:1254  address */\n      0x00\n        /* \"@openzeppelin/contracts/access/Ownable.sol\":1273:1279  _owner */\n      sload\n      sub(shl(0xa0, 0x01), 0x01)\n      and\n        /* \"@openzeppelin/contracts/access/Ownable.sol\":1201:1286  function owner() public view virtual returns (address) {... */\n      jump(tag_40)\n        /* \"LaunchpadFactory/LaunchpadFactory.sol\":3059:3180  function setImplementations(address _implementation) public onlyOwner {... */\n    tag_16:\n      callvalue\n      dup1\n      iszero\n      tag_90\n      jumpi\n      0x00\n      dup1\n      revert\n    tag_90:\n      pop\n      tag_27\n      tag_92\n      calldatasize\n      0x04\n      tag_53\n      jump\t// in\n    tag_92:\n      tag_93\n      jump\t// in\n        /* \"LaunchpadFactory/LaunchpadFactory.sol\":3649:4669  function calculateTokens(... */\n    tag_17:\n      callvalue\n      dup1\n      iszero\n      tag_94\n      jumpi\n      0x00\n      dup1\n      revert\n    tag_94:\n      pop\n      tag_95\n      tag_96\n      calldatasize\n      0x04\n      tag_97\n      jump\t// in\n    tag_96:\n      tag_98\n      jump\t// in\n    tag_95:\n      0x40\n      dup1\n      mload\n        /* \"#utility.yul\":10757:10782   */\n      swap3\n      dup4\n      mstore\n        /* \"#utility.yul\":10813:10815   */\n      0x20\n        /* \"#utility.yul\":10798:10816   */\n      dup4\n      add\n        /* \"#utility.yul\":10791:10825   */\n      swap2\n      swap1\n      swap2\n      mstore\n        /* \"#utility.yul\":10730:10748   */\n      add\n        /* \"LaunchpadFactory/LaunchpadFactory.sol\":3649:4669  function calculateTokens(... */\n      tag_43\n        /* \"#utility.yul\":10583:10831   */\n      jump\n        /* \"LaunchpadFactory/LaunchpadFactory.sol\":863:890  address public superAccount */\n    tag_18:\n      callvalue\n      dup1\n      iszero\n      tag_101\n      jumpi\n      0x00\n      dup1\n      revert\n    tag_101:\n      pop\n      sload(0x03)\n      tag_40\n      swap1\n      sub(shl(0xa0, 0x01), 0x01)\n      and\n      dup2\n      jump\n        /* \"LaunchpadFactory/LaunchpadFactory.sol\":8271:8391  function totalLaunchpads() external view returns (ILaunchpad[] memory launchpads){... */\n    tag_19:\n      callvalue\n      dup1\n      iszero\n      tag_105\n      jumpi\n      0x00\n      dup1\n      revert\n    tag_105:\n      pop\n      tag_65\n      tag_107\n      jump\t// in\n        /* \"LaunchpadFactory/LaunchpadFactory.sol\":599:621  uint256 public flatFee */\n    tag_20:\n      callvalue\n      dup1\n      iszero\n      tag_109\n      jumpi\n      0x00\n      dup1\n      revert\n    tag_109:\n      pop\n      tag_46\n      sload(0x01)\n      dup2\n      jump\n        /* \"LaunchpadFactory/LaunchpadFactory.sol\":930:964  address payable public fundAddress */\n    tag_21:\n      callvalue\n      dup1\n      iszero\n      tag_113\n      jumpi\n      0x00\n      dup1\n      revert\n    tag_113:\n      pop\n      sload(0x05)\n      tag_40\n      swap1\n      sub(shl(0xa0, 0x01), 0x01)\n      and\n      dup2\n      jump\n        /* \"@openzeppelin/contracts/access/Ownable.sol\":2074:2272  function transferOwnership(address newOwner) public virtual onlyOwner {... */\n    tag_22:\n      callvalue\n      dup1\n      iszero\n      tag_118\n      jumpi\n      0x00\n      dup1\n      revert\n    tag_118:\n      pop\n      tag_27\n      tag_120\n      calldatasize\n      0x04\n      tag_53\n      jump\t// in\n    tag_120:\n      tag_121\n      jump\t// in\n        /* \"LaunchpadFactory/LaunchpadFactory.sol\":2788:2880  function setFlatFee(uint256 _flatFee) public onlyOwner {... */\n    tag_30:\n        /* \"@openzeppelin/contracts/access/Ownable.sol\":1094:1107  _checkOwner() */\n      tag_123\n        /* \"@openzeppelin/contracts/access/Ownable.sol\":1094:1105  _checkOwner */\n      tag_124\n        /* \"@openzeppelin/contracts/access/Ownable.sol\":1094:1107  _checkOwner() */\n      jump\t// in\n    tag_123:\n        /* \"LaunchpadFactory/LaunchpadFactory.sol\":2854:2861  flatFee */\n      0x01\n        /* \"LaunchpadFactory/LaunchpadFactory.sol\":2854:2872  flatFee = _flatFee */\n      sstore\n        /* \"LaunchpadFactory/LaunchpadFactory.sol\":2788:2880  function setFlatFee(uint256 _flatFee) public onlyOwner {... */\n      jump\t// out\n        /* \"LaunchpadFactory/LaunchpadFactory.sol\":4782:8210  function deployLaunchpad(... */\n    tag_34:\n        /* \"LaunchpadFactory/LaunchpadFactory.sol\":5244:5256  superAccount */\n      and(sub(shl(0xa0, 0x01), 0x01), sload(0x03))\n        /* \"LaunchpadFactory/LaunchpadFactory.sol\":5244:5270  superAccount != address(0) */\n      iszero\n      dup1\n      iszero\n      swap1\n        /* \"LaunchpadFactory/LaunchpadFactory.sol\":5244:5316  superAccount != address(0) &&... */\n      tag_127\n      jumpi\n      pop\n        /* \"LaunchpadFactory/LaunchpadFactory.sol\":5291:5302  fundAddress */\n      and(sub(shl(0xa0, 0x01), 0x01), sload(0x05))\n        /* \"LaunchpadFactory/LaunchpadFactory.sol\":5291:5316  fundAddress != address(0) */\n      iszero\n      iszero\n        /* \"LaunchpadFactory/LaunchpadFactory.sol\":5244:5316  superAccount != address(0) &&... */\n    tag_127:\n        /* \"LaunchpadFactory/LaunchpadFactory.sol\":5178:5390  require(... */\n      tag_128\n      jumpi\n      mload(0x40)\n      shl(0xe5, 0x461bcd)\n      dup2\n      mstore\n        /* \"#utility.yul\":11262:11264   */\n      0x20\n        /* \"LaunchpadFactory/LaunchpadFactory.sol\":5178:5390  require(... */\n      0x04\n      dup3\n      add\n        /* \"#utility.yul\":11244:11265   */\n      mstore\n        /* \"#utility.yul\":11301:11303   */\n      0x2e\n        /* \"#utility.yul\":11281:11299   */\n      0x24\n      dup3\n      add\n        /* \"#utility.yul\":11274:11304   */\n      mstore\n        /* \"#utility.yul\":11340:11374   */\n      0x4c61756368706164466163746f72793a2043616e206e6f742063726561746520\n        /* \"#utility.yul\":11320:11338   */\n      0x44\n      dup3\n      add\n        /* \"#utility.yul\":11313:11375   */\n      mstore\n      shl(0x90, 0x6c61756e6368706164206e6f7721)\n        /* \"#utility.yul\":11391:11409   */\n      0x64\n      dup3\n      add\n        /* \"#utility.yul\":11384:11428   */\n      mstore\n        /* \"#utility.yul\":11445:11464   */\n      0x84\n      add\n        /* \"LaunchpadFactory/LaunchpadFactory.sol\":5178:5390  require(... */\n    tag_129:\n      mload(0x40)\n      dup1\n      swap2\n      sub\n      swap1\n      revert\n    tag_128:\n        /* \"LaunchpadFactory/LaunchpadFactory.sol\":5422:5429  flatFee */\n      sload(0x01)\n        /* \"LaunchpadFactory/LaunchpadFactory.sol\":5409:5418  msg.value */\n      callvalue\n        /* \"LaunchpadFactory/LaunchpadFactory.sol\":5409:5429  msg.value >= flatFee */\n      lt\n      iszero\n        /* \"LaunchpadFactory/LaunchpadFactory.sol\":5401:5466  require(msg.value >= flatFee, \"LauchpadFactory: Not enough fee!\") */\n      tag_131\n      jumpi\n      mload(0x40)\n      shl(0xe5, 0x461bcd)\n      dup2\n      mstore\n        /* \"#utility.yul\":11677:11679   */\n      0x20\n        /* \"LaunchpadFactory/LaunchpadFactory.sol\":5401:5466  require(msg.value >= flatFee, \"LauchpadFactory: Not enough fee!\") */\n      0x04\n      dup3\n      add\n        /* \"#utility.yul\":11659:11680   */\n      dup2\n      swap1\n      mstore\n        /* \"#utility.yul\":11696:11714   */\n      0x24\n      dup3\n      add\n        /* \"#utility.yul\":11689:11719   */\n      mstore\n        /* \"#utility.yul\":11755:11789   */\n      0x4c61756368706164466163746f72793a204e6f7420656e6f7567682066656521\n        /* \"#utility.yul\":11735:11753   */\n      0x44\n      dup3\n      add\n        /* \"#utility.yul\":11728:11790   */\n      mstore\n        /* \"#utility.yul\":11807:11825   */\n      0x64\n      add\n        /* \"LaunchpadFactory/LaunchpadFactory.sol\":5401:5466  require(msg.value >= flatFee, \"LauchpadFactory: Not enough fee!\") */\n      tag_129\n        /* \"#utility.yul\":11475:11831   */\n      jump\n        /* \"LaunchpadFactory/LaunchpadFactory.sol\":5401:5466  require(msg.value >= flatFee, \"LauchpadFactory: Not enough fee!\") */\n    tag_131:\n        /* \"LaunchpadFactory/LaunchpadFactory.sol\":5620:5673  LaunchpadStructs.SettingAccount memory settingAccount */\n      0x00\n        /* \"LaunchpadFactory/LaunchpadFactory.sol\":5676:5895  LaunchpadStructs... */\n      mload(0x40)\n      dup1\n      0x80\n      add\n      0x40\n      mstore\n      dup1\n        /* \"LaunchpadFactory/LaunchpadFactory.sol\":5740:5752  _msgSender() */\n      tag_134\n        /* \"@openzeppelin/contracts/utils/Context.sol\":719:729  msg.sender */\n      caller\n      swap1\n        /* \"@openzeppelin/contracts/utils/Context.sol\":640:736  function _msgSender() internal view virtual returns (address) {... */\n      jump\n        /* \"LaunchpadFactory/LaunchpadFactory.sol\":5740:5752  _msgSender() */\n    tag_134:\n      sub(shl(0xa0, 0x01), 0x01)\n        /* \"LaunchpadFactory/LaunchpadFactory.sol\":5676:5895  LaunchpadStructs... */\n      swap1\n      dup2\n      and\n      dup3\n      mstore\n        /* \"LaunchpadFactory/LaunchpadFactory.sol\":5799:5811  superAccount */\n      sload(0x03)\n      dup2\n      and\n        /* \"LaunchpadFactory/LaunchpadFactory.sol\":5676:5895  LaunchpadStructs... */\n      0x20\n      dup1\n      dup5\n      add\n      swap2\n      swap1\n      swap2\n      mstore\n        /* \"LaunchpadFactory/LaunchpadFactory.sol\":5838:5849  fundAddress */\n      sload(0x05)\n      dup3\n      and\n        /* \"LaunchpadFactory/LaunchpadFactory.sol\":5676:5895  LaunchpadStructs... */\n      0x40\n      dup5\n      add\n      mstore\n        /* \"LaunchpadFactory/LaunchpadFactory.sol\":5869:5880  virtualLock */\n      sload(0x04)\n      dup3\n      and\n        /* \"LaunchpadFactory/LaunchpadFactory.sol\":5676:5895  LaunchpadStructs... */\n      0x60\n      swap1\n      swap4\n      add\n      swap3\n      swap1\n      swap3\n      mstore\n        /* \"LaunchpadFactory/LaunchpadFactory.sol\":5947:5960  info.icoToken */\n      dup9\n      mload\n        /* \"LaunchpadFactory/LaunchpadFactory.sol\":6016:6029  info.feeToken */\n      swap2\n      dup10\n      add\n      mload\n        /* \"LaunchpadFactory/LaunchpadFactory.sol\":5620:5895  LaunchpadStructs.SettingAccount memory settingAccount = LaunchpadStructs... */\n      swap3\n      swap4\n      pop\n        /* \"LaunchpadFactory/LaunchpadFactory.sol\":5947:5960  info.icoToken */\n      swap1\n      swap2\n        /* \"LaunchpadFactory/LaunchpadFactory.sol\":5999:6001  18 */\n      0x12\n      swap2\n        /* \"LaunchpadFactory/LaunchpadFactory.sol\":6016:6043  info.feeToken != address(0) */\n      and\n      iszero\n        /* \"LaunchpadFactory/LaunchpadFactory.sol\":6012:6130  if (info.feeToken != address(0)) {... */\n      tag_136\n      jumpi\n        /* \"LaunchpadFactory/LaunchpadFactory.sol\":6093:6097  info */\n      dup8\n        /* \"LaunchpadFactory/LaunchpadFactory.sol\":6093:6106  info.feeToken */\n      0x20\n      add\n      mload\n      sub(shl(0xa0, 0x01), 0x01)\n        /* \"LaunchpadFactory/LaunchpadFactory.sol\":6079:6116  IVirtualERC20(info.feeToken).decimals */\n      and\n      0x313ce567\n        /* \"LaunchpadFactory/LaunchpadFactory.sol\":6079:6118  IVirtualERC20(info.feeToken).decimals() */\n      mload(0x40)\n      dup2\n      0xffffffff\n      and\n      0xe0\n      shl\n      dup2\n      mstore\n      0x04\n      add\n      0x20\n      mload(0x40)\n      dup1\n      dup4\n      sub\n      dup2\n      dup7\n      gas\n      staticcall\n      iszero\n      dup1\n      iszero\n      tag_138\n      jumpi\n      returndatasize\n      0x00\n      dup1\n      returndatacopy\n      revert(0x00, returndatasize)\n    tag_138:\n      pop\n      pop\n      pop\n      pop\n      mload(0x40)\n      returndatasize\n      not(0x1f)\n      0x1f\n      dup3\n      add\n      and\n      dup3\n      add\n      dup1\n      0x40\n      mstore\n      pop\n      dup2\n      add\n      swap1\n      tag_139\n      swap2\n      swap1\n      tag_140\n      jump\t// in\n    tag_139:\n        /* \"LaunchpadFactory/LaunchpadFactory.sol\":6060:6118  feeTokenDecimals = IVirtualERC20(info.feeToken).decimals() */\n      0xff\n      and\n      swap1\n      pop\n        /* \"LaunchpadFactory/LaunchpadFactory.sol\":6012:6130  if (info.feeToken != address(0)) {... */\n    tag_136:\n        /* \"LaunchpadFactory/LaunchpadFactory.sol\":6194:6528  LaunchpadStructs... */\n      0x40\n      dup1\n      mload\n      0xe0\n      dup2\n      add\n      dup3\n      mstore\n        /* \"LaunchpadFactory/LaunchpadFactory.sol\":6263:6276  info.feeToken */\n      0x20\n      dup1\n      dup12\n      add\n      mload\n      sub(shl(0xa0, 0x01), 0x01)\n        /* \"LaunchpadFactory/LaunchpadFactory.sol\":6194:6528  LaunchpadStructs... */\n      and\n      dup3\n      mstore\n        /* \"LaunchpadFactory/LaunchpadFactory.sol\":6295:6311  info.presaleRate */\n      0x80\n      dup1\n      dup13\n      add\n      mload\n        /* \"LaunchpadFactory/LaunchpadFactory.sol\":6194:6528  LaunchpadStructs... */\n      dup3\n      dup5\n      add\n      mstore\n      0x60\n        /* \"LaunchpadFactory/LaunchpadFactory.sol\":6330:6342  info.hardCap */\n      dup1\n      dup14\n      add\n      mload\n        /* \"LaunchpadFactory/LaunchpadFactory.sol\":6194:6528  LaunchpadStructs... */\n      swap5\n      dup5\n      add\n      swap5\n      swap1\n      swap5\n      mstore\n        /* \"LaunchpadFactory/LaunchpadFactory.sol\":6361:6390  feeInfo.raisedTokenFeePercent */\n      swap1\n      dup9\n      add\n      mload\n        /* \"LaunchpadFactory/LaunchpadFactory.sol\":6194:6528  LaunchpadStructs... */\n      dup4\n      dup4\n      add\n      mstore\n        /* \"LaunchpadFactory/LaunchpadFactory.sol\":6409:6433  feeInfo.raisedFeePercent */\n      dup8\n      mload\n        /* \"LaunchpadFactory/LaunchpadFactory.sol\":6194:6528  LaunchpadStructs... */\n      dup2\n      dup4\n      add\n      mstore\n        /* \"LaunchpadFactory/LaunchpadFactory.sol\":6452:6474  dexInfo.listingPercent */\n      dup9\n      add\n      mload\n        /* \"LaunchpadFactory/LaunchpadFactory.sol\":6194:6528  LaunchpadStructs... */\n      0xa0\n      dup3\n      add\n      mstore\n        /* \"LaunchpadFactory/LaunchpadFactory.sol\":6493:6513  dexInfo.listingPrice */\n      swap1\n      dup8\n      add\n      mload\n        /* \"LaunchpadFactory/LaunchpadFactory.sol\":6194:6528  LaunchpadStructs... */\n      0xc0\n      dup3\n      add\n      mstore\n        /* \"LaunchpadFactory/LaunchpadFactory.sol\":6142:6191  LaunchpadStructs.CalculateTokenInput memory input */\n      0x00\n      dup1\n        /* \"LaunchpadFactory/LaunchpadFactory.sol\":6620:6642  calculateTokens(input) */\n      tag_141\n        /* \"LaunchpadFactory/LaunchpadFactory.sol\":6194:6528  LaunchpadStructs... */\n      dup4\n        /* \"LaunchpadFactory/LaunchpadFactory.sol\":6620:6635  calculateTokens */\n      tag_98\n        /* \"LaunchpadFactory/LaunchpadFactory.sol\":6620:6642  calculateTokens(input) */\n      jump\t// in\n    tag_141:\n        /* \"LaunchpadFactory/LaunchpadFactory.sol\":6721:6735  implementation */\n      sload(0x06)\n        /* \"LaunchpadFactory/LaunchpadFactory.sol\":6597:6642  (totalTokens, maxLP) = calculateTokens(input) */\n      swap2\n      swap4\n      pop\n      swap2\n      pop\n        /* \"LaunchpadFactory/LaunchpadFactory.sol\":6688:6705  address launchpad */\n      0x00\n      swap1\n        /* \"LaunchpadFactory/LaunchpadFactory.sol\":6708:6736  Clones.clone(implementation) */\n      tag_142\n      swap1\n      sub(shl(0xa0, 0x01), 0x01)\n        /* \"LaunchpadFactory/LaunchpadFactory.sol\":6721:6735  implementation */\n      and\n        /* \"LaunchpadFactory/LaunchpadFactory.sol\":6708:6720  Clones.clone */\n      tag_143\n        /* \"LaunchpadFactory/LaunchpadFactory.sol\":6708:6736  Clones.clone(implementation) */\n      jump\t// in\n    tag_142:\n        /* \"LaunchpadFactory/LaunchpadFactory.sol\":6688:6736  address launchpad = Clones.clone(implementation) */\n      swap1\n      pop\n        /* \"LaunchpadFactory/LaunchpadFactory.sol\":6807:6816  launchpad */\n      dup1\n      sub(shl(0xa0, 0x01), 0x01)\n        /* \"LaunchpadFactory/LaunchpadFactory.sol\":6796:6828  ILaunchpad(launchpad).initialize */\n      and\n      0x57801e6f\n        /* \"LaunchpadFactory/LaunchpadFactory.sol\":6843:6847  info */\n      dup14\n        /* \"LaunchpadFactory/LaunchpadFactory.sol\":6862:6871  claimInfo */\n      dup14\n        /* \"LaunchpadFactory/LaunchpadFactory.sol\":6919:6926  dexInfo */\n      dup14\n        /* \"LaunchpadFactory/LaunchpadFactory.sol\":6941:6948  feeInfo */\n      dup14\n        /* \"LaunchpadFactory/LaunchpadFactory.sol\":6963:6977  settingAccount */\n      dup13\n        /* \"LaunchpadFactory/LaunchpadFactory.sol\":6992:7003  socialLinks */\n      dup15\n        /* \"LaunchpadFactory/LaunchpadFactory.sol\":7018:7023  maxLP */\n      dup10\n        /* \"LaunchpadFactory/LaunchpadFactory.sol\":7038:7055  penaltyFeePercent */\n      sload(0x02)\n        /* \"LaunchpadFactory/LaunchpadFactory.sol\":6796:7066  ILaunchpad(launchpad).initialize(... */\n      mload(0x40)\n      dup10\n      0xffffffff\n      and\n      0xe0\n      shl\n      dup2\n      mstore\n      0x04\n      add\n      tag_144\n      swap9\n      swap8\n      swap7\n      swap6\n      swap5\n      swap4\n      swap3\n      swap2\n      swap1\n      tag_145\n      jump\t// in\n    tag_144:\n      0x00\n      mload(0x40)\n      dup1\n      dup4\n      sub\n      dup2\n      0x00\n      dup8\n      dup1\n      extcodesize\n      iszero\n      dup1\n      iszero\n      tag_146\n      jumpi\n      0x00\n      dup1\n      revert\n    tag_146:\n      pop\n      gas\n      call\n      iszero\n      dup1\n      iszero\n      tag_148\n      jumpi\n      returndatasize\n      0x00\n      dup1\n      returndatacopy\n      revert(0x00, returndatasize)\n    tag_148:\n      pop\n      pop\n      pop\n      pop\n        /* \"LaunchpadFactory/LaunchpadFactory.sol\":7223:7224  0 */\n      0x00\n        /* \"LaunchpadFactory/LaunchpadFactory.sol\":7211:7220  msg.value */\n      callvalue\n        /* \"LaunchpadFactory/LaunchpadFactory.sol\":7211:7224  msg.value > 0 */\n      gt\n        /* \"LaunchpadFactory/LaunchpadFactory.sol\":7207:7293  if (msg.value > 0) {... */\n      iszero\n      tag_149\n      jumpi\n        /* \"LaunchpadFactory/LaunchpadFactory.sol\":7249:7260  fundAddress */\n      sload(0x05)\n        /* \"LaunchpadFactory/LaunchpadFactory.sol\":7241:7281  payable(fundAddress).transfer(msg.value) */\n      mload(0x40)\n      sub(shl(0xa0, 0x01), 0x01)\n        /* \"LaunchpadFactory/LaunchpadFactory.sol\":7249:7260  fundAddress */\n      swap1\n      swap2\n      and\n      swap1\n        /* \"LaunchpadFactory/LaunchpadFactory.sol\":7271:7280  msg.value */\n      callvalue\n        /* \"LaunchpadFactory/LaunchpadFactory.sol\":7241:7281  payable(fundAddress).transfer(msg.value) */\n      dup1\n      iszero\n      0x08fc\n      mul\n      swap2\n        /* \"LaunchpadFactory/LaunchpadFactory.sol\":7249:7260  fundAddress */\n      0x00\n        /* \"LaunchpadFactory/LaunchpadFactory.sol\":7241:7281  payable(fundAddress).transfer(msg.value) */\n      dup2\n        /* \"LaunchpadFactory/LaunchpadFactory.sol\":7249:7260  fundAddress */\n      dup2\n        /* \"LaunchpadFactory/LaunchpadFactory.sol\":7241:7281  payable(fundAddress).transfer(msg.value) */\n      dup2\n        /* \"LaunchpadFactory/LaunchpadFactory.sol\":7271:7280  msg.value */\n      dup6\n        /* \"LaunchpadFactory/LaunchpadFactory.sol\":7249:7260  fundAddress */\n      dup9\n        /* \"LaunchpadFactory/LaunchpadFactory.sol\":7241:7281  payable(fundAddress).transfer(msg.value) */\n      dup9\n      call\n      swap4\n      pop\n      pop\n      pop\n      pop\n      iszero\n      dup1\n      iszero\n      tag_151\n      jumpi\n      returndatasize\n      0x00\n      dup1\n      returndatacopy\n      revert(0x00, returndatasize)\n    tag_151:\n      pop\n        /* \"LaunchpadFactory/LaunchpadFactory.sol\":7207:7293  if (msg.value > 0) {... */\n    tag_149:\n        /* \"LaunchpadFactory/LaunchpadFactory.sol\":7309:7324  totalTokens > 0 */\n      dup3\n      iszero\n        /* \"LaunchpadFactory/LaunchpadFactory.sol\":7305:8030  if (totalTokens > 0) {... */\n      tag_152\n      jumpi\n        /* \"LaunchpadFactory/LaunchpadFactory.sol\":7371:7384  info.icoToken */\n      dup12\n      mload\n        /* \"LaunchpadFactory/LaunchpadFactory.sol\":7469:7480  totalTokens */\n      dup4\n      sub(shl(0xa0, 0x01), 0x01)\n        /* \"LaunchpadFactory/LaunchpadFactory.sol\":7428:7451  icoTokenErc20.balanceOf */\n      dup3\n      and\n      0x70a08231\n        /* \"@openzeppelin/contracts/utils/Context.sol\":719:729  msg.sender */\n      caller\n        /* \"LaunchpadFactory/LaunchpadFactory.sol\":7428:7465  icoTokenErc20.balanceOf(_msgSender()) */\n      mload(0x40)\n      not(sub(shl(0xe0, 0x01), 0x01))\n      0xe0\n      dup5\n      swap1\n      shl\n      and\n      dup2\n      mstore\n      sub(shl(0xa0, 0x01), 0x01)\n        /* \"#utility.yul\":7920:7952   */\n      swap1\n      swap2\n      and\n        /* \"LaunchpadFactory/LaunchpadFactory.sol\":7428:7465  icoTokenErc20.balanceOf(_msgSender()) */\n      0x04\n      dup3\n      add\n        /* \"#utility.yul\":7902:7953   */\n      mstore\n        /* \"#utility.yul\":7875:7893   */\n      0x24\n      add\n        /* \"LaunchpadFactory/LaunchpadFactory.sol\":7428:7465  icoTokenErc20.balanceOf(_msgSender()) */\n      0x20\n      mload(0x40)\n      dup1\n      dup4\n      sub\n      dup2\n      dup7\n      gas\n      staticcall\n      iszero\n      dup1\n      iszero\n      tag_156\n      jumpi\n      returndatasize\n      0x00\n      dup1\n      returndatacopy\n      revert(0x00, returndatasize)\n    tag_156:\n      pop\n      pop\n      pop\n      pop\n      mload(0x40)\n      returndatasize\n      not(0x1f)\n      0x1f\n      dup3\n      add\n      and\n      dup3\n      add\n      dup1\n      0x40\n      mstore\n      pop\n      dup2\n      add\n      swap1\n      tag_157\n      swap2\n      swap1\n      tag_158\n      jump\t// in\n    tag_157:\n        /* \"LaunchpadFactory/LaunchpadFactory.sol\":7428:7480  icoTokenErc20.balanceOf(_msgSender()) >= totalTokens */\n      lt\n      iszero\n        /* \"LaunchpadFactory/LaunchpadFactory.sol\":7402:7553  require(... */\n      tag_159\n      jumpi\n      mload(0x40)\n      shl(0xe5, 0x461bcd)\n      dup2\n      mstore\n        /* \"#utility.yul\":17836:17838   */\n      0x20\n        /* \"LaunchpadFactory/LaunchpadFactory.sol\":7402:7553  require(... */\n      0x04\n      dup3\n      add\n        /* \"#utility.yul\":17818:17839   */\n      mstore\n        /* \"#utility.yul\":17875:17877   */\n      0x25\n        /* \"#utility.yul\":17855:17873   */\n      0x24\n      dup3\n      add\n        /* \"#utility.yul\":17848:17878   */\n      mstore\n        /* \"#utility.yul\":17914:17948   */\n      0x4c61756368706164466163746f72793a20496e73756666696369656e74204261\n        /* \"#utility.yul\":17894:17912   */\n      0x44\n      dup3\n      add\n        /* \"#utility.yul\":17887:17949   */\n      mstore\n      shl(0xd8, 0x6c616e6365)\n        /* \"#utility.yul\":17965:17983   */\n      0x64\n      dup3\n      add\n        /* \"#utility.yul\":17958:17993   */\n      mstore\n        /* \"#utility.yul\":18010:18029   */\n      0x84\n      add\n        /* \"LaunchpadFactory/LaunchpadFactory.sol\":7402:7553  require(... */\n      tag_129\n        /* \"#utility.yul\":17634:18035   */\n      jump\n        /* \"LaunchpadFactory/LaunchpadFactory.sol\":7402:7553  require(... */\n    tag_159:\n        /* \"LaunchpadFactory/LaunchpadFactory.sol\":7671:7682  totalTokens */\n      dup4\n      sub(shl(0xa0, 0x01), 0x01)\n        /* \"LaunchpadFactory/LaunchpadFactory.sol\":7594:7617  icoTokenErc20.allowance */\n      dup3\n      and\n      0xdd62ed3e\n        /* \"@openzeppelin/contracts/utils/Context.sol\":719:729  msg.sender */\n      caller\n        /* \"LaunchpadFactory/LaunchpadFactory.sol\":7594:7646  icoTokenErc20.allowance(_msgSender(), address(this)) */\n      mload(0x40)\n      not(sub(shl(0xe0, 0x01), 0x01))\n      0xe0\n      dup5\n      swap1\n      shl\n      and\n      dup2\n      mstore\n      sub(shl(0xa0, 0x01), 0x01)\n        /* \"#utility.yul\":18270:18285   */\n      swap1\n      swap2\n      and\n        /* \"LaunchpadFactory/LaunchpadFactory.sol\":7594:7646  icoTokenErc20.allowance(_msgSender(), address(this)) */\n      0x04\n      dup3\n      add\n        /* \"#utility.yul\":18252:18286   */\n      mstore\n        /* \"LaunchpadFactory/LaunchpadFactory.sol\":7640:7644  this */\n      address\n        /* \"#utility.yul\":18302:18320   */\n      0x24\n      dup3\n      add\n        /* \"#utility.yul\":18295:18338   */\n      mstore\n        /* \"#utility.yul\":18187:18205   */\n      0x44\n      add\n        /* \"LaunchpadFactory/LaunchpadFactory.sol\":7594:7646  icoTokenErc20.allowance(_msgSender(), address(this)) */\n      0x20\n      mload(0x40)\n      dup1\n      dup4\n      sub\n      dup2\n      dup7\n      gas\n      staticcall\n      iszero\n      dup1\n      iszero\n      tag_166\n      jumpi\n      returndatasize\n      0x00\n      dup1\n      returndatacopy\n      revert(0x00, returndatasize)\n    tag_166:\n      pop\n      pop\n      pop\n      pop\n      mload(0x40)\n      returndatasize\n      not(0x1f)\n      0x1f\n      dup3\n      add\n      and\n      dup3\n      add\n      dup1\n      0x40\n      mstore\n      pop\n      dup2\n      add\n      swap1\n      tag_167\n      swap2\n      swap1\n      tag_158\n      jump\t// in\n    tag_167:\n        /* \"LaunchpadFactory/LaunchpadFactory.sol\":7594:7682  icoTokenErc20.allowance(_msgSender(), address(this)) >=... */\n      lt\n      iszero\n        /* \"LaunchpadFactory/LaunchpadFactory.sol\":7568:7757  require(... */\n      tag_168\n      jumpi\n      mload(0x40)\n      shl(0xe5, 0x461bcd)\n      dup2\n      mstore\n        /* \"#utility.yul\":18551:18553   */\n      0x20\n        /* \"LaunchpadFactory/LaunchpadFactory.sol\":7568:7757  require(... */\n      0x04\n      dup3\n      add\n        /* \"#utility.yul\":18533:18554   */\n      mstore\n        /* \"#utility.yul\":18590:18592   */\n      0x27\n        /* \"#utility.yul\":18570:18588   */\n      0x24\n      dup3\n      add\n        /* \"#utility.yul\":18563:18593   */\n      mstore\n        /* \"#utility.yul\":18629:18663   */\n      0x4c61756368706164466163746f72793a20496e73756666696369656e7420416c\n        /* \"#utility.yul\":18609:18627   */\n      0x44\n      dup3\n      add\n        /* \"#utility.yul\":18602:18664   */\n      mstore\n      shl(0xc8, 0x6c6f77616e6365)\n        /* \"#utility.yul\":18680:18698   */\n      0x64\n      dup3\n      add\n        /* \"#utility.yul\":18673:18710   */\n      mstore\n        /* \"#utility.yul\":18727:18746   */\n      0x84\n      add\n        /* \"LaunchpadFactory/LaunchpadFactory.sol\":7568:7757  require(... */\n      tag_129\n        /* \"#utility.yul\":18349:18752   */\n      jump\n        /* \"LaunchpadFactory/LaunchpadFactory.sol\":7568:7757  require(... */\n    tag_168:\n      sub(shl(0xa0, 0x01), 0x01)\n        /* \"LaunchpadFactory/LaunchpadFactory.sol\":7800:7821  icoToken.transferFrom */\n      dup8\n      and\n      0x23b872dd\n        /* \"@openzeppelin/contracts/utils/Context.sol\":719:729  msg.sender */\n      caller\n        /* \"LaunchpadFactory/LaunchpadFactory.sol\":7800:7950  icoToken.transferFrom(... */\n      mload(0x40)\n      not(sub(shl(0xe0, 0x01), 0x01))\n      0xe0\n      dup5\n      swap1\n      shl\n      and\n      dup2\n      mstore\n      sub(shl(0xa0, 0x01), 0x01)\n        /* \"#utility.yul\":19015:19030   */\n      swap2\n      dup3\n      and\n        /* \"LaunchpadFactory/LaunchpadFactory.sol\":7800:7950  icoToken.transferFrom(... */\n      0x04\n      dup3\n      add\n        /* \"#utility.yul\":18997:19031   */\n      mstore\n        /* \"#utility.yul\":19067:19082   */\n      swap1\n      dup6\n      and\n        /* \"#utility.yul\":19047:19065   */\n      0x24\n      dup3\n      add\n        /* \"#utility.yul\":19040:19083   */\n      mstore\n        /* \"#utility.yul\":19099:19117   */\n      0x44\n      dup2\n      add\n        /* \"#utility.yul\":19092:19126   */\n      dup8\n      swap1\n      mstore\n        /* \"#utility.yul\":18932:18950   */\n      0x64\n      add\n        /* \"LaunchpadFactory/LaunchpadFactory.sol\":7800:7950  icoToken.transferFrom(... */\n      0x20\n      mload(0x40)\n      dup1\n      dup4\n      sub\n      dup2\n      0x00\n      dup8\n      gas\n      call\n      iszero\n      dup1\n      iszero\n      tag_175\n      jumpi\n      returndatasize\n      0x00\n      dup1\n      returndatacopy\n      revert(0x00, returndatasize)\n    tag_175:\n      pop\n      pop\n      pop\n      pop\n      mload(0x40)\n      returndatasize\n      not(0x1f)\n      0x1f\n      dup3\n      add\n      and\n      dup3\n      add\n      dup1\n      0x40\n      mstore\n      pop\n      dup2\n      add\n      swap1\n      tag_176\n      swap2\n      swap1\n      tag_177\n      jump\t// in\n    tag_176:\n        /* \"LaunchpadFactory/LaunchpadFactory.sol\":7774:8018  require(... */\n      tag_178\n      jumpi\n      mload(0x40)\n      shl(0xe5, 0x461bcd)\n      dup2\n      mstore\n        /* \"#utility.yul\":19589:19591   */\n      0x20\n        /* \"LaunchpadFactory/LaunchpadFactory.sol\":7774:8018  require(... */\n      0x04\n      dup3\n      add\n        /* \"#utility.yul\":19571:19592   */\n      dup2\n      swap1\n      mstore\n        /* \"#utility.yul\":19608:19626   */\n      0x24\n      dup3\n      add\n        /* \"#utility.yul\":19601:19631   */\n      mstore\n        /* \"#utility.yul\":19667:19701   */\n      0x4c61756368706164466163746f72793a207472616e73666572206661696c6564\n        /* \"#utility.yul\":19647:19665   */\n      0x44\n      dup3\n      add\n        /* \"#utility.yul\":19640:19702   */\n      mstore\n        /* \"#utility.yul\":19719:19737   */\n      0x64\n      add\n        /* \"LaunchpadFactory/LaunchpadFactory.sol\":7774:8018  require(... */\n      tag_129\n        /* \"#utility.yul\":19387:19743   */\n      jump\n        /* \"LaunchpadFactory/LaunchpadFactory.sol\":7774:8018  require(... */\n    tag_178:\n        /* \"LaunchpadFactory/LaunchpadFactory.sol\":7326:8030  {... */\n      pop\n        /* \"LaunchpadFactory/LaunchpadFactory.sol\":7305:8030  if (totalTokens > 0) {... */\n    tag_152:\n        /* \"LaunchpadFactory/LaunchpadFactory.sol\":8042:8055  allLaunchpads */\n      0x07\n        /* \"LaunchpadFactory/LaunchpadFactory.sol\":8042:8083  allLaunchpads.push(ILaunchpad(launchpad)) */\n      dup1\n      sload\n      0x01\n      dup2\n      dup2\n      add\n      swap1\n      swap3\n      sstore\n      0xa66cc928b5edb82af9bd49922954155ab7b0942694bea4ce44661d9a8736c688\n      add\n      dup1\n      sload\n      sub(shl(0xa0, 0x01), 0x01)\n      dup5\n      and\n      not(sub(shl(0xa0, 0x01), 0x01))\n      swap2\n      dup3\n      and\n      dup2\n      or\n      swap1\n      swap3\n      sstore\n        /* \"LaunchpadFactory/LaunchpadFactory.sol\":8111:8121  msg.sender */\n      caller\n      0x00\n        /* \"LaunchpadFactory/LaunchpadFactory.sol\":8095:8122  allLaunchpadsOf[msg.sender] */\n      swap1\n      dup2\n      mstore\n        /* \"LaunchpadFactory/LaunchpadFactory.sol\":8095:8110  allLaunchpadsOf */\n      0x08\n        /* \"LaunchpadFactory/LaunchpadFactory.sol\":8042:8083  allLaunchpads.push(ILaunchpad(launchpad)) */\n      0x20\n        /* \"LaunchpadFactory/LaunchpadFactory.sol\":8095:8122  allLaunchpadsOf[msg.sender] */\n      swap1\n      dup2\n      mstore\n      0x40\n      dup1\n      dup4\n      keccak256\n        /* \"LaunchpadFactory/LaunchpadFactory.sol\":8095:8150  allLaunchpadsOf[msg.sender].push(ILaunchpad(launchpad)) */\n      dup1\n      sload\n      swap7\n      dup8\n      add\n      dup2\n      sstore\n      dup4\n      mstore\n      swap1\n      dup3\n      keccak256\n      swap1\n      swap5\n      add\n      dup1\n      sload\n      swap1\n      swap3\n      and\n      dup4\n      or\n      swap1\n      swap2\n      sstore\n        /* \"LaunchpadFactory/LaunchpadFactory.sol\":8170:8202  NewLaunchpad(address(launchpad)) */\n      swap2\n      mload\n        /* \"LaunchpadFactory/LaunchpadFactory.sol\":8042:8083  allLaunchpads.push(ILaunchpad(launchpad)) */\n      swap1\n      swap2\n        /* \"LaunchpadFactory/LaunchpadFactory.sol\":8170:8202  NewLaunchpad(address(launchpad)) */\n      0xda2d0d8f4060e08dd20f6fb6ad959f9920958220cc60733db44068db43a02601\n      swap2\n      log2\n        /* \"LaunchpadFactory/LaunchpadFactory.sol\":5167:8210  {... */\n      pop\n      pop\n      pop\n      pop\n      pop\n      pop\n      pop\n        /* \"LaunchpadFactory/LaunchpadFactory.sol\":4782:8210  function deployLaunchpad(... */\n      pop\n      pop\n      pop\n      pop\n      pop\n      jump\t// out\n        /* \"LaunchpadFactory/LaunchpadFactory.sol\":2888:3051  function setPenalyFeePercent(uint256 _penaltyFeePercent) public onlyOwner {... */\n    tag_38:\n        /* \"@openzeppelin/contracts/access/Ownable.sol\":1094:1107  _checkOwner() */\n      tag_184\n        /* \"@openzeppelin/contracts/access/Ownable.sol\":1094:1105  _checkOwner */\n      tag_124\n        /* \"@openzeppelin/contracts/access/Ownable.sol\":1094:1107  _checkOwner() */\n      jump\t// in\n    tag_184:\n        /* \"LaunchpadFactory/LaunchpadFactory.sol\":2993:3019  (_penaltyFeePercent) * 100 */\n      tag_186\n        /* \"LaunchpadFactory/LaunchpadFactory.sol\":2994:3012  _penaltyFeePercent */\n      dup2\n        /* \"LaunchpadFactory/LaunchpadFactory.sol\":3016:3019  100 */\n      0x64\n        /* \"LaunchpadFactory/LaunchpadFactory.sol\":2993:3019  (_penaltyFeePercent) * 100 */\n      tag_187\n      jump\t// in\n    tag_186:\n        /* \"LaunchpadFactory/LaunchpadFactory.sol\":2973:2990  penaltyFeePercent */\n      0x02\n        /* \"LaunchpadFactory/LaunchpadFactory.sol\":2973:3019  penaltyFeePercent = (_penaltyFeePercent) * 100 */\n      sstore\n      pop\n        /* \"LaunchpadFactory/LaunchpadFactory.sol\":2888:3051  function setPenalyFeePercent(uint256 _penaltyFeePercent) public onlyOwner {... */\n      jump\t// out\n        /* \"LaunchpadFactory/LaunchpadFactory.sol\":1137:1170  ILaunchpad[] public allLaunchpads */\n    tag_42:\n      0x07\n      dup2\n      dup2\n      sload\n      dup2\n      lt\n      tag_188\n      jumpi\n      0x00\n      dup1\n      revert\n    tag_188:\n      0x00\n      swap2\n      dup3\n      mstore\n      0x20\n      swap1\n      swap2\n      keccak256\n      add\n      sload\n      sub(shl(0xa0, 0x01), 0x01)\n      and\n      swap1\n      pop\n      dup2\n      jump\t// out\n        /* \"LaunchpadFactory/LaunchpadFactory.sol\":2548:2656  function setVirtualLock(address _virtualLock) public onlyOwner {... */\n    tag_54:\n        /* \"@openzeppelin/contracts/access/Ownable.sol\":1094:1107  _checkOwner() */\n      tag_191\n        /* \"@openzeppelin/contracts/access/Ownable.sol\":1094:1105  _checkOwner */\n      tag_124\n        /* \"@openzeppelin/contracts/access/Ownable.sol\":1094:1107  _checkOwner() */\n      jump\t// in\n    tag_191:\n        /* \"LaunchpadFactory/LaunchpadFactory.sol\":2622:2633  virtualLock */\n      0x04\n        /* \"LaunchpadFactory/LaunchpadFactory.sol\":2622:2648  virtualLock = _virtualLock */\n      dup1\n      sload\n      not(sub(shl(0xa0, 0x01), 0x01))\n      and\n      sub(shl(0xa0, 0x01), 0x01)\n      swap3\n      swap1\n      swap3\n      and\n      swap2\n      swap1\n      swap2\n      or\n      swap1\n      sstore\n        /* \"LaunchpadFactory/LaunchpadFactory.sol\":2548:2656  function setVirtualLock(address _virtualLock) public onlyOwner {... */\n      jump\t// out\n        /* \"LaunchpadFactory/LaunchpadFactory.sol\":8478:8632  function totalLaunchpadsByUser(address _user) external view returns (ILaunchpad[] memory launchpadsByUser){... */\n    tag_67:\n      sub(shl(0xa0, 0x01), 0x01)\n        /* \"LaunchpadFactory/LaunchpadFactory.sol\":8602:8624  allLaunchpadsOf[_user] */\n      dup2\n      and\n      0x00\n      swap1\n      dup2\n      mstore\n        /* \"LaunchpadFactory/LaunchpadFactory.sol\":8602:8617  allLaunchpadsOf */\n      0x08\n        /* \"LaunchpadFactory/LaunchpadFactory.sol\":8602:8624  allLaunchpadsOf[_user] */\n      0x20\n      swap1\n      dup2\n      mstore\n      0x40\n      swap2\n      dup3\n      swap1\n      keccak256\n        /* \"LaunchpadFactory/LaunchpadFactory.sol\":8595:8624  return allLaunchpadsOf[_user] */\n      dup1\n      sload\n      dup4\n      mload\n      dup2\n      dup5\n      mul\n      dup2\n      add\n      dup5\n      add\n      swap1\n      swap5\n      mstore\n      dup1\n      dup5\n      mstore\n        /* \"LaunchpadFactory/LaunchpadFactory.sol\":8547:8583  ILaunchpad[] memory launchpadsByUser */\n      0x60\n      swap4\n        /* \"LaunchpadFactory/LaunchpadFactory.sol\":8595:8624  return allLaunchpadsOf[_user] */\n      swap3\n      dup4\n      add\n        /* \"LaunchpadFactory/LaunchpadFactory.sol\":8602:8624  allLaunchpadsOf[_user] */\n      dup3\n        /* \"LaunchpadFactory/LaunchpadFactory.sol\":8595:8624  return allLaunchpadsOf[_user] */\n      dup3\n      dup1\n      iszero\n      tag_194\n      jumpi\n      0x20\n      mul\n      dup3\n      add\n      swap2\n      swap1\n      0x00\n      mstore\n      keccak256(0x00, 0x20)\n      swap1\n    tag_195:\n      dup2\n      sload\n      sub(shl(0xa0, 0x01), 0x01)\n      and\n      dup2\n      mstore\n      0x01\n      swap1\n      swap2\n      add\n      swap1\n      0x20\n      add\n      dup1\n      dup4\n      gt\n      tag_195\n      jumpi\n    tag_194:\n      pop\n      pop\n      pop\n      pop\n      pop\n      swap1\n      pop\n        /* \"LaunchpadFactory/LaunchpadFactory.sol\":8478:8632  function totalLaunchpadsByUser(address _user) external view returns (ILaunchpad[] memory launchpadsByUser){... */\n      swap2\n      swap1\n      pop\n      jump\t// out\n        /* \"@openzeppelin/contracts/access/Ownable.sol\":1824:1925  function renounceOwnership() public virtual onlyOwner {... */\n    tag_72:\n        /* \"@openzeppelin/contracts/access/Ownable.sol\":1094:1107  _checkOwner() */\n      tag_197\n        /* \"@openzeppelin/contracts/access/Ownable.sol\":1094:1105  _checkOwner */\n      tag_124\n        /* \"@openzeppelin/contracts/access/Ownable.sol\":1094:1107  _checkOwner() */\n      jump\t// in\n    tag_197:\n        /* \"@openzeppelin/contracts/access/Ownable.sol\":1888:1918  _transferOwnership(address(0)) */\n      tag_199\n        /* \"@openzeppelin/contracts/access/Ownable.sol\":1915:1916  0 */\n      0x00\n        /* \"@openzeppelin/contracts/access/Ownable.sol\":1888:1906  _transferOwnership */\n      tag_200\n        /* \"@openzeppelin/contracts/access/Ownable.sol\":1888:1918  _transferOwnership(address(0)) */\n      jump\t// in\n    tag_199:\n        /* \"@openzeppelin/contracts/access/Ownable.sol\":1824:1925  function renounceOwnership() public virtual onlyOwner {... */\n      jump\t// out\n        /* \"LaunchpadFactory/LaunchpadFactory.sol\":2664:2780  function setFundAddress(address payable _fundAddress) public onlyOwner {... */\n    tag_77:\n        /* \"@openzeppelin/contracts/access/Ownable.sol\":1094:1107  _checkOwner() */\n      tag_202\n        /* \"@openzeppelin/contracts/access/Ownable.sol\":1094:1105  _checkOwner */\n      tag_124\n        /* \"@openzeppelin/contracts/access/Ownable.sol\":1094:1107  _checkOwner() */\n      jump\t// in\n    tag_202:\n        /* \"LaunchpadFactory/LaunchpadFactory.sol\":2746:2757  fundAddress */\n      0x05\n        /* \"LaunchpadFactory/LaunchpadFactory.sol\":2746:2772  fundAddress = _fundAddress */\n      dup1\n      sload\n      not(sub(shl(0xa0, 0x01), 0x01))\n      and\n      sub(shl(0xa0, 0x01), 0x01)\n      swap3\n      swap1\n      swap3\n      and\n      swap2\n      swap1\n      swap2\n      or\n      swap1\n      sstore\n        /* \"LaunchpadFactory/LaunchpadFactory.sol\":2664:2780  function setFundAddress(address payable _fundAddress) public onlyOwner {... */\n      jump\t// out\n        /* \"LaunchpadFactory/LaunchpadFactory.sol\":2428:2540  function setSuperAccount(address _superAccount) public onlyOwner {... */\n    tag_81:\n        /* \"@openzeppelin/contracts/access/Ownable.sol\":1094:1107  _checkOwner() */\n      tag_205\n        /* \"@openzeppelin/contracts/access/Ownable.sol\":1094:1105  _checkOwner */\n      tag_124\n        /* \"@openzeppelin/contracts/access/Ownable.sol\":1094:1107  _checkOwner() */\n      jump\t// in\n    tag_205:\n        /* \"LaunchpadFactory/LaunchpadFactory.sol\":2504:2516  superAccount */\n      0x03\n        /* \"LaunchpadFactory/LaunchpadFactory.sol\":2504:2532  superAccount = _superAccount */\n      dup1\n      sload\n      not(sub(shl(0xa0, 0x01), 0x01))\n      and\n      sub(shl(0xa0, 0x01), 0x01)\n      swap3\n      swap1\n      swap3\n      and\n      swap2\n      swap1\n      swap2\n      or\n      swap1\n      sstore\n        /* \"LaunchpadFactory/LaunchpadFactory.sol\":2428:2540  function setSuperAccount(address _superAccount) public onlyOwner {... */\n      jump\t// out\n        /* \"LaunchpadFactory/LaunchpadFactory.sol\":3059:3180  function setImplementations(address _implementation) public onlyOwner {... */\n    tag_93:\n        /* \"@openzeppelin/contracts/access/Ownable.sol\":1094:1107  _checkOwner() */\n      tag_209\n        /* \"@openzeppelin/contracts/access/Ownable.sol\":1094:1105  _checkOwner */\n      tag_124\n        /* \"@openzeppelin/contracts/access/Ownable.sol\":1094:1107  _checkOwner() */\n      jump\t// in\n    tag_209:\n        /* \"LaunchpadFactory/LaunchpadFactory.sol\":3140:3154  implementation */\n      0x06\n        /* \"LaunchpadFactory/LaunchpadFactory.sol\":3140:3172  implementation = _implementation */\n      dup1\n      sload\n      not(sub(shl(0xa0, 0x01), 0x01))\n      and\n      sub(shl(0xa0, 0x01), 0x01)\n      swap3\n      swap1\n      swap3\n      and\n      swap2\n      swap1\n      swap2\n      or\n      swap1\n      sstore\n        /* \"LaunchpadFactory/LaunchpadFactory.sol\":3059:3180  function setImplementations(address _implementation) public onlyOwner {... */\n      jump\t// out\n        /* \"LaunchpadFactory/LaunchpadFactory.sol\":3649:4669  function calculateTokens(... */\n    tag_98:\n        /* \"LaunchpadFactory/LaunchpadFactory.sol\":3835:3849  input.feeToken */\n      dup1\n      mload\n        /* \"LaunchpadFactory/LaunchpadFactory.sol\":3762:3769  uint256 */\n      0x00\n      swap1\n      dup2\n      swap1\n        /* \"LaunchpadFactory/LaunchpadFactory.sol\":3818:3820  18 */\n      0x12\n      swap1\n      sub(shl(0xa0, 0x01), 0x01)\n        /* \"LaunchpadFactory/LaunchpadFactory.sol\":3835:3863  input.feeToken != address(0) */\n      and\n      iszero\n        /* \"LaunchpadFactory/LaunchpadFactory.sol\":3831:3951  if (input.feeToken != address(0)) {... */\n      tag_212\n      jumpi\n        /* \"LaunchpadFactory/LaunchpadFactory.sol\":3913:3918  input */\n      dup4\n        /* \"LaunchpadFactory/LaunchpadFactory.sol\":3913:3927  input.feeToken */\n      0x00\n      add\n      mload\n      sub(shl(0xa0, 0x01), 0x01)\n        /* \"LaunchpadFactory/LaunchpadFactory.sol\":3899:3937  IVirtualERC20(input.feeToken).decimals */\n      and\n      0x313ce567\n        /* \"LaunchpadFactory/LaunchpadFactory.sol\":3899:3939  IVirtualERC20(input.feeToken).decimals() */\n      mload(0x40)\n      dup2\n      0xffffffff\n      and\n      0xe0\n      shl\n      dup2\n      mstore\n      0x04\n      add\n      0x20\n      mload(0x40)\n      dup1\n      dup4\n      sub\n      dup2\n      dup7\n      gas\n      staticcall\n      iszero\n      dup1\n      iszero\n      tag_214\n      jumpi\n      returndatasize\n      0x00\n      dup1\n      returndatacopy\n      revert(0x00, returndatasize)\n    tag_214:\n      pop\n      pop\n      pop\n      pop\n      mload(0x40)\n      returndatasize\n      not(0x1f)\n      0x1f\n      dup3\n      add\n      and\n      dup3\n      add\n      dup1\n      0x40\n      mstore\n      pop\n      dup2\n      add\n      swap1\n      tag_215\n      swap2\n      swap1\n      tag_140\n      jump\t// in\n    tag_215:\n        /* \"LaunchpadFactory/LaunchpadFactory.sol\":3880:3939  feeTokenDecimals = IVirtualERC20(input.feeToken).decimals() */\n      0xff\n      and\n      swap1\n      pop\n        /* \"LaunchpadFactory/LaunchpadFactory.sol\":3831:3951  if (input.feeToken != address(0)) {... */\n    tag_212:\n        /* \"LaunchpadFactory/LaunchpadFactory.sol\":3963:3989  uint256 totalPresaleTokens */\n      0x00\n        /* \"LaunchpadFactory/LaunchpadFactory.sol\":3992:4060  (input.presaleRate.mul((input.hardCap))).div(10 ** feeTokenDecimals) */\n      tag_216\n        /* \"LaunchpadFactory/LaunchpadFactory.sol\":4037:4059  10 ** feeTokenDecimals */\n      tag_217\n        /* \"LaunchpadFactory/LaunchpadFactory.sol\":4043:4059  feeTokenDecimals */\n      dup4\n        /* \"LaunchpadFactory/LaunchpadFactory.sol\":4037:4039  10 */\n      0x0a\n        /* \"LaunchpadFactory/LaunchpadFactory.sol\":4037:4059  10 ** feeTokenDecimals */\n      tag_218\n      jump\t// in\n    tag_217:\n        /* \"LaunchpadFactory/LaunchpadFactory.sol\":4016:4029  input.hardCap */\n      0x40\n      dup8\n      add\n      mload\n        /* \"LaunchpadFactory/LaunchpadFactory.sol\":3993:4010  input.presaleRate */\n      0x20\n      dup9\n      add\n      mload\n        /* \"LaunchpadFactory/LaunchpadFactory.sol\":3993:4031  input.presaleRate.mul((input.hardCap)) */\n      tag_219\n      swap2\n        /* \"LaunchpadFactory/LaunchpadFactory.sol\":3993:4014  input.presaleRate.mul */\n      tag_220\n        /* \"LaunchpadFactory/LaunchpadFactory.sol\":3993:4031  input.presaleRate.mul((input.hardCap)) */\n      jump\t// in\n    tag_219:\n        /* \"LaunchpadFactory/LaunchpadFactory.sol\":3992:4036  (input.presaleRate.mul((input.hardCap))).div */\n      swap1\n      tag_221\n        /* \"LaunchpadFactory/LaunchpadFactory.sol\":3992:4060  (input.presaleRate.mul((input.hardCap))).div(10 ** feeTokenDecimals) */\n      jump\t// in\n    tag_216:\n        /* \"LaunchpadFactory/LaunchpadFactory.sol\":3963:4060  uint256 totalPresaleTokens = (input.presaleRate.mul((input.hardCap))).div(10 ** feeTokenDecimals) */\n      swap1\n      pop\n        /* \"LaunchpadFactory/LaunchpadFactory.sol\":4073:4095  uint256 totalFeeTokens */\n      0x00\n        /* \"LaunchpadFactory/LaunchpadFactory.sol\":4098:4161  (totalPresaleTokens.mul(input.raisedTokenFeePercent)).div(ZOOM) */\n      tag_222\n        /* \"LaunchpadFactory/LaunchpadFactory.sol\":585:590  10000 */\n      0x2710\n        /* \"LaunchpadFactory/LaunchpadFactory.sol\":4099:4150  totalPresaleTokens.mul(input.raisedTokenFeePercent) */\n      tag_219\n        /* \"LaunchpadFactory/LaunchpadFactory.sol\":4122:4127  input */\n      dup9\n        /* \"LaunchpadFactory/LaunchpadFactory.sol\":4122:4149  input.raisedTokenFeePercent */\n      0x60\n      add\n      mload\n        /* \"LaunchpadFactory/LaunchpadFactory.sol\":4099:4117  totalPresaleTokens */\n      dup6\n        /* \"LaunchpadFactory/LaunchpadFactory.sol\":4099:4121  totalPresaleTokens.mul */\n      tag_220\n      swap1\n        /* \"LaunchpadFactory/LaunchpadFactory.sol\":4099:4150  totalPresaleTokens.mul(input.raisedTokenFeePercent) */\n      swap2\n      swap1\n      0xffffffff\n      and\n      jump\t// in\n        /* \"LaunchpadFactory/LaunchpadFactory.sol\":4098:4161  (totalPresaleTokens.mul(input.raisedTokenFeePercent)).div(ZOOM) */\n    tag_222:\n        /* \"LaunchpadFactory/LaunchpadFactory.sol\":4073:4161  uint256 totalFeeTokens = (totalPresaleTokens.mul(input.raisedTokenFeePercent)).div(ZOOM) */\n      swap1\n      pop\n        /* \"LaunchpadFactory/LaunchpadFactory.sol\":4174:4196  uint256 totalRaisedFee */\n      0x00\n        /* \"LaunchpadFactory/LaunchpadFactory.sol\":4199:4252  (input.hardCap.mul(input.raisedFeePercent)).div(ZOOM) */\n      tag_224\n        /* \"LaunchpadFactory/LaunchpadFactory.sol\":585:590  10000 */\n      0x2710\n        /* \"LaunchpadFactory/LaunchpadFactory.sol\":4200:4241  input.hardCap.mul(input.raisedFeePercent) */\n      tag_219\n        /* \"LaunchpadFactory/LaunchpadFactory.sol\":4218:4223  input */\n      dup10\n        /* \"LaunchpadFactory/LaunchpadFactory.sol\":4218:4240  input.raisedFeePercent */\n      0x80\n      add\n      mload\n        /* \"LaunchpadFactory/LaunchpadFactory.sol\":4200:4205  input */\n      dup11\n        /* \"LaunchpadFactory/LaunchpadFactory.sol\":4200:4213  input.hardCap */\n      0x40\n      add\n      mload\n        /* \"LaunchpadFactory/LaunchpadFactory.sol\":4200:4217  input.hardCap.mul */\n      tag_220\n      swap1\n        /* \"LaunchpadFactory/LaunchpadFactory.sol\":4200:4241  input.hardCap.mul(input.raisedFeePercent) */\n      swap2\n      swap1\n      0xffffffff\n      and\n      jump\t// in\n        /* \"LaunchpadFactory/LaunchpadFactory.sol\":4199:4252  (input.hardCap.mul(input.raisedFeePercent)).div(ZOOM) */\n    tag_224:\n        /* \"LaunchpadFactory/LaunchpadFactory.sol\":4174:4252  uint256 totalRaisedFee = (input.hardCap.mul(input.raisedFeePercent)).div(ZOOM) */\n      swap1\n      pop\n        /* \"LaunchpadFactory/LaunchpadFactory.sol\":4263:4277  uint256 netCap */\n      0x00\n        /* \"LaunchpadFactory/LaunchpadFactory.sol\":4280:4313  input.hardCap.sub(totalRaisedFee) */\n      tag_226\n        /* \"LaunchpadFactory/LaunchpadFactory.sol\":4298:4312  totalRaisedFee */\n      dup3\n        /* \"LaunchpadFactory/LaunchpadFactory.sol\":4280:4285  input */\n      dup10\n        /* \"LaunchpadFactory/LaunchpadFactory.sol\":4280:4293  input.hardCap */\n      0x40\n      add\n      mload\n        /* \"LaunchpadFactory/LaunchpadFactory.sol\":4280:4297  input.hardCap.sub */\n      tag_227\n      swap1\n        /* \"LaunchpadFactory/LaunchpadFactory.sol\":4280:4313  input.hardCap.sub(totalRaisedFee) */\n      swap2\n      swap1\n      0xffffffff\n      and\n      jump\t// in\n    tag_226:\n        /* \"LaunchpadFactory/LaunchpadFactory.sol\":4263:4313  uint256 netCap = input.hardCap.sub(totalRaisedFee) */\n      swap1\n      pop\n        /* \"LaunchpadFactory/LaunchpadFactory.sol\":4324:4353  uint256 totalFeeTokensToAddLP */\n      0x00\n        /* \"LaunchpadFactory/LaunchpadFactory.sol\":4356:4400  (netCap.mul(input.listingPercent)).div(ZOOM) */\n      tag_228\n        /* \"LaunchpadFactory/LaunchpadFactory.sol\":585:590  10000 */\n      0x2710\n        /* \"LaunchpadFactory/LaunchpadFactory.sol\":4357:4389  netCap.mul(input.listingPercent) */\n      tag_219\n        /* \"LaunchpadFactory/LaunchpadFactory.sol\":4368:4373  input */\n      dup12\n        /* \"LaunchpadFactory/LaunchpadFactory.sol\":4368:4388  input.listingPercent */\n      0xa0\n      add\n      mload\n        /* \"LaunchpadFactory/LaunchpadFactory.sol\":4357:4363  netCap */\n      dup6\n        /* \"LaunchpadFactory/LaunchpadFactory.sol\":4357:4367  netCap.mul */\n      tag_220\n      swap1\n        /* \"LaunchpadFactory/LaunchpadFactory.sol\":4357:4389  netCap.mul(input.listingPercent) */\n      swap2\n      swap1\n      0xffffffff\n      and\n      jump\t// in\n        /* \"LaunchpadFactory/LaunchpadFactory.sol\":4356:4400  (netCap.mul(input.listingPercent)).div(ZOOM) */\n    tag_228:\n        /* \"LaunchpadFactory/LaunchpadFactory.sol\":4324:4400  uint256 totalFeeTokensToAddLP = (netCap.mul(input.listingPercent)).div(ZOOM) */\n      swap1\n      pop\n        /* \"LaunchpadFactory/LaunchpadFactory.sol\":4413:4441  uint256 totalLiquidityTokens */\n      0x00\n        /* \"LaunchpadFactory/LaunchpadFactory.sol\":4444:4519  (totalFeeTokensToAddLP.mul(input.listingPrice)).div(10 ** feeTokenDecimals) */\n      tag_230\n        /* \"LaunchpadFactory/LaunchpadFactory.sol\":4496:4518  10 ** feeTokenDecimals */\n      tag_231\n        /* \"LaunchpadFactory/LaunchpadFactory.sol\":4502:4518  feeTokenDecimals */\n      dup9\n        /* \"LaunchpadFactory/LaunchpadFactory.sol\":4496:4498  10 */\n      0x0a\n        /* \"LaunchpadFactory/LaunchpadFactory.sol\":4496:4518  10 ** feeTokenDecimals */\n      tag_218\n      jump\t// in\n    tag_231:\n        /* \"LaunchpadFactory/LaunchpadFactory.sol\":4471:4489  input.listingPrice */\n      0xc0\n      dup13\n      add\n      mload\n        /* \"LaunchpadFactory/LaunchpadFactory.sol\":4445:4490  totalFeeTokensToAddLP.mul(input.listingPrice) */\n      tag_219\n      swap1\n        /* \"LaunchpadFactory/LaunchpadFactory.sol\":4445:4466  totalFeeTokensToAddLP */\n      dup6\n      swap1\n        /* \"LaunchpadFactory/LaunchpadFactory.sol\":4445:4470  totalFeeTokensToAddLP.mul */\n      tag_220\n        /* \"LaunchpadFactory/LaunchpadFactory.sol\":4445:4490  totalFeeTokensToAddLP.mul(input.listingPrice) */\n      jump\t// in\n        /* \"LaunchpadFactory/LaunchpadFactory.sol\":4444:4519  (totalFeeTokensToAddLP.mul(input.listingPrice)).div(10 ** feeTokenDecimals) */\n    tag_230:\n        /* \"LaunchpadFactory/LaunchpadFactory.sol\":4413:4519  uint256 totalLiquidityTokens = (totalFeeTokensToAddLP.mul(input.listingPrice)).div(10 ** feeTokenDecimals) */\n      swap1\n      pop\n        /* \"LaunchpadFactory/LaunchpadFactory.sol\":4532:4546  uint256 result */\n      0x00\n        /* \"LaunchpadFactory/LaunchpadFactory.sol\":4549:4613  totalPresaleTokens.add(totalFeeTokens).add(totalLiquidityTokens) */\n      tag_233\n        /* \"LaunchpadFactory/LaunchpadFactory.sol\":4413:4519  uint256 totalLiquidityTokens = (totalFeeTokensToAddLP.mul(input.listingPrice)).div(10 ** feeTokenDecimals) */\n      dup3\n        /* \"LaunchpadFactory/LaunchpadFactory.sol\":4549:4587  totalPresaleTokens.add(totalFeeTokens) */\n      tag_234\n        /* \"LaunchpadFactory/LaunchpadFactory.sol\":4549:4567  totalPresaleTokens */\n      dup10\n        /* \"LaunchpadFactory/LaunchpadFactory.sol\":4572:4586  totalFeeTokens */\n      dup10\n        /* \"LaunchpadFactory/LaunchpadFactory.sol\":4549:4571  totalPresaleTokens.add */\n      tag_235\n        /* \"LaunchpadFactory/LaunchpadFactory.sol\":4549:4587  totalPresaleTokens.add(totalFeeTokens) */\n      jump\t// in\n    tag_234:\n        /* \"LaunchpadFactory/LaunchpadFactory.sol\":4549:4591  totalPresaleTokens.add(totalFeeTokens).add */\n      swap1\n      tag_235\n        /* \"LaunchpadFactory/LaunchpadFactory.sol\":4549:4613  totalPresaleTokens.add(totalFeeTokens).add(totalLiquidityTokens) */\n      jump\t// in\n    tag_233:\n        /* \"LaunchpadFactory/LaunchpadFactory.sol\":4532:4613  uint256 result = totalPresaleTokens.add(totalFeeTokens).add(totalLiquidityTokens) */\n      swap12\n        /* \"LaunchpadFactory/LaunchpadFactory.sol\":4640:4660  totalLiquidityTokens */\n      swap2\n      swap11\n      pop\n        /* \"LaunchpadFactory/LaunchpadFactory.sol\":3649:4669  function calculateTokens(... */\n      swap1\n      swap9\n      pop\n      pop\n      pop\n      pop\n      pop\n      pop\n      pop\n      pop\n      pop\n      jump\t// out\n        /* \"LaunchpadFactory/LaunchpadFactory.sol\":8271:8391  function totalLaunchpads() external view returns (ILaunchpad[] memory launchpads){... */\n    tag_107:\n        /* \"LaunchpadFactory/LaunchpadFactory.sol\":8321:8351  ILaunchpad[] memory launchpads */\n      0x60\n        /* \"LaunchpadFactory/LaunchpadFactory.sol\":8370:8383  allLaunchpads */\n      0x07\n        /* \"LaunchpadFactory/LaunchpadFactory.sol\":8363:8383  return allLaunchpads */\n      dup1\n      sload\n      dup1\n      0x20\n      mul\n      0x20\n      add\n      mload(0x40)\n      swap1\n      dup2\n      add\n      0x40\n      mstore\n      dup1\n      swap3\n      swap2\n      swap1\n      dup2\n      dup2\n      mstore\n      0x20\n      add\n      dup3\n      dup1\n      sload\n      dup1\n      iszero\n      tag_237\n      jumpi\n      0x20\n      mul\n      dup3\n      add\n      swap2\n      swap1\n      0x00\n      mstore\n      keccak256(0x00, 0x20)\n      swap1\n    tag_238:\n      dup2\n      sload\n      sub(shl(0xa0, 0x01), 0x01)\n      and\n      dup2\n      mstore\n      0x01\n      swap1\n      swap2\n      add\n      swap1\n      0x20\n      add\n      dup1\n      dup4\n      gt\n      tag_238\n      jumpi\n    tag_237:\n      pop\n      pop\n      pop\n      pop\n      pop\n      swap1\n      pop\n        /* \"LaunchpadFactory/LaunchpadFactory.sol\":8271:8391  function totalLaunchpads() external view returns (ILaunchpad[] memory launchpads){... */\n      swap1\n      jump\t// out\n        /* \"@openzeppelin/contracts/access/Ownable.sol\":2074:2272  function transferOwnership(address newOwner) public virtual onlyOwner {... */\n    tag_121:\n        /* \"@openzeppelin/contracts/access/Ownable.sol\":1094:1107  _checkOwner() */\n      tag_240\n        /* \"@openzeppelin/contracts/access/Ownable.sol\":1094:1105  _checkOwner */\n      tag_124\n        /* \"@openzeppelin/contracts/access/Ownable.sol\":1094:1107  _checkOwner() */\n      jump\t// in\n    tag_240:\n      sub(shl(0xa0, 0x01), 0x01)\n        /* \"@openzeppelin/contracts/access/Ownable.sol\":2162:2184  newOwner != address(0) */\n      dup2\n      and\n        /* \"@openzeppelin/contracts/access/Ownable.sol\":2154:2227  require(newOwner != address(0), \"Ownable: new owner is the zero address\") */\n      tag_242\n      jumpi\n      mload(0x40)\n      shl(0xe5, 0x461bcd)\n      dup2\n      mstore\n        /* \"#utility.yul\":21629:21631   */\n      0x20\n        /* \"@openzeppelin/contracts/access/Ownable.sol\":2154:2227  require(newOwner != address(0), \"Ownable: new owner is the zero address\") */\n      0x04\n      dup3\n      add\n        /* \"#utility.yul\":21611:21632   */\n      mstore\n        /* \"#utility.yul\":21668:21670   */\n      0x26\n        /* \"#utility.yul\":21648:21666   */\n      0x24\n      dup3\n      add\n        /* \"#utility.yul\":21641:21671   */\n      mstore\n        /* \"#utility.yul\":21707:21741   */\n      0x4f776e61626c653a206e6577206f776e657220697320746865207a65726f2061\n        /* \"#utility.yul\":21687:21705   */\n      0x44\n      dup3\n      add\n        /* \"#utility.yul\":21680:21742   */\n      mstore\n      shl(0xd0, 0x646472657373)\n        /* \"#utility.yul\":21758:21776   */\n      0x64\n      dup3\n      add\n        /* \"#utility.yul\":21751:21787   */\n      mstore\n        /* \"#utility.yul\":21804:21823   */\n      0x84\n      add\n        /* \"@openzeppelin/contracts/access/Ownable.sol\":2154:2227  require(newOwner != address(0), \"Ownable: new owner is the zero address\") */\n      tag_129\n        /* \"#utility.yul\":21427:21829   */\n      jump\n        /* \"@openzeppelin/contracts/access/Ownable.sol\":2154:2227  require(newOwner != address(0), \"Ownable: new owner is the zero address\") */\n    tag_242:\n        /* \"@openzeppelin/contracts/access/Ownable.sol\":2237:2265  _transferOwnership(newOwner) */\n      tag_245\n        /* \"@openzeppelin/contracts/access/Ownable.sol\":2256:2264  newOwner */\n      dup2\n        /* \"@openzeppelin/contracts/access/Ownable.sol\":2237:2255  _transferOwnership */\n      tag_200\n        /* \"@openzeppelin/contracts/access/Ownable.sol\":2237:2265  _transferOwnership(newOwner) */\n      jump\t// in\n    tag_245:\n        /* \"@openzeppelin/contracts/access/Ownable.sol\":2074:2272  function transferOwnership(address newOwner) public virtual onlyOwner {... */\n      pop\n      jump\t// out\n        /* \"@openzeppelin/contracts/access/Ownable.sol\":1359:1489  function _checkOwner() internal view virtual {... */\n    tag_124:\n        /* \"@openzeppelin/contracts/access/Ownable.sol\":1247:1254  address */\n      0x00\n        /* \"@openzeppelin/contracts/access/Ownable.sol\":1273:1279  _owner */\n      sload\n      sub(shl(0xa0, 0x01), 0x01)\n      and\n        /* \"@openzeppelin/contracts/utils/Context.sol\":719:729  msg.sender */\n      caller\n        /* \"@openzeppelin/contracts/access/Ownable.sol\":1422:1445  owner() == _msgSender() */\n      eq\n        /* \"@openzeppelin/contracts/access/Ownable.sol\":1414:1482  require(owner() == _msgSender(), \"Ownable: caller is not the owner\") */\n      tag_199\n      jumpi\n      mload(0x40)\n      shl(0xe5, 0x461bcd)\n      dup2\n      mstore\n        /* \"#utility.yul\":22036:22038   */\n      0x20\n        /* \"@openzeppelin/contracts/access/Ownable.sol\":1414:1482  require(owner() == _msgSender(), \"Ownable: caller is not the owner\") */\n      0x04\n      dup3\n      add\n        /* \"#utility.yul\":22018:22039   */\n      dup2\n      swap1\n      mstore\n        /* \"#utility.yul\":22055:22073   */\n      0x24\n      dup3\n      add\n        /* \"#utility.yul\":22048:22078   */\n      mstore\n        /* \"#utility.yul\":22114:22148   */\n      0x4f776e61626c653a2063616c6c6572206973206e6f7420746865206f776e6572\n        /* \"#utility.yul\":22094:22112   */\n      0x44\n      dup3\n      add\n        /* \"#utility.yul\":22087:22149   */\n      mstore\n        /* \"#utility.yul\":22166:22184   */\n      0x64\n      add\n        /* \"@openzeppelin/contracts/access/Ownable.sol\":1414:1482  require(owner() == _msgSender(), \"Ownable: caller is not the owner\") */\n      tag_129\n        /* \"#utility.yul\":21834:22190   */\n      jump\n        /* \"LaunchpadFactory/Clones.sol\":997:1767  function clone(address implementation) internal returns (address instance) {... */\n    tag_143:\n        /* \"LaunchpadFactory/Clones.sol\":1054:1070  address instance */\n      0x00\n        /* \"LaunchpadFactory/Clones.sol\":1391:1439  0x3d602d80600a3d3981f3363d3d373d3d3d363d73000000 */\n      0x3d602d80600a3d3981f3363d3d373d3d3d363d73000000\n        /* \"LaunchpadFactory/Clones.sol\":1373:1387  implementation */\n      dup3\n        /* \"LaunchpadFactory/Clones.sol\":1367:1371  0x60 */\n      0x60\n        /* \"LaunchpadFactory/Clones.sol\":1363:1388  shl(0x60, implementation) */\n      shl\n        /* \"LaunchpadFactory/Clones.sol\":1357:1361  0xe8 */\n      0xe8\n        /* \"LaunchpadFactory/Clones.sol\":1353:1389  shr(0xe8, shl(0x60, implementation)) */\n      shr\n        /* \"LaunchpadFactory/Clones.sol\":1350:1440  or(shr(0xe8, shl(0x60, implementation)), 0x3d602d80600a3d3981f3363d3d373d3d3d363d73000000) */\n      or\n        /* \"LaunchpadFactory/Clones.sol\":1344:1348  0x00 */\n      0x00\n        /* \"LaunchpadFactory/Clones.sol\":1337:1441  mstore(0x00, or(shr(0xe8, shl(0x60, implementation)), 0x3d602d80600a3d3981f3363d3d373d3d3d363d73000000)) */\n      mstore\n        /* \"LaunchpadFactory/Clones.sol\":1600:1632  0x5af43d82803e903d91602b57fd5bf3 */\n      0x5af43d82803e903d91602b57fd5bf3\n        /* \"LaunchpadFactory/Clones.sol\":1583:1597  implementation */\n      dup3\n        /* \"LaunchpadFactory/Clones.sol\":1577:1581  0x78 */\n      0x78\n        /* \"LaunchpadFactory/Clones.sol\":1573:1598  shl(0x78, implementation) */\n      shl\n        /* \"LaunchpadFactory/Clones.sol\":1570:1633  or(shl(0x78, implementation), 0x5af43d82803e903d91602b57fd5bf3) */\n      or\n        /* \"LaunchpadFactory/Clones.sol\":1564:1568  0x20 */\n      0x20\n        /* \"LaunchpadFactory/Clones.sol\":1557:1634  mstore(0x20, or(shl(0x78, implementation), 0x5af43d82803e903d91602b57fd5bf3)) */\n      mstore\n        /* \"LaunchpadFactory/Clones.sol\":1676:1680  0x37 */\n      0x37\n        /* \"LaunchpadFactory/Clones.sol\":1670:1674  0x09 */\n      0x09\n        /* \"LaunchpadFactory/Clones.sol\":1667:1668  0 */\n      0x00\n        /* \"LaunchpadFactory/Clones.sol\":1660:1681  create(0, 0x09, 0x37) */\n      create\n        /* \"LaunchpadFactory/Clones.sol\":1648:1681  instance := create(0, 0x09, 0x37) */\n      swap1\n      pop\n      sub(shl(0xa0, 0x01), 0x01)\n        /* \"LaunchpadFactory/Clones.sol\":1710:1732  instance != address(0) */\n      dup2\n      and\n        /* \"LaunchpadFactory/Clones.sol\":1702:1759  require(instance != address(0), \"ERC1167: create failed\") */\n      tag_254\n      jumpi\n      mload(0x40)\n      shl(0xe5, 0x461bcd)\n      dup2\n      mstore\n        /* \"#utility.yul\":22397:22399   */\n      0x20\n        /* \"LaunchpadFactory/Clones.sol\":1702:1759  require(instance != address(0), \"ERC1167: create failed\") */\n      0x04\n      dup3\n      add\n        /* \"#utility.yul\":22379:22400   */\n      mstore\n        /* \"#utility.yul\":22436:22438   */\n      0x16\n        /* \"#utility.yul\":22416:22434   */\n      0x24\n      dup3\n      add\n        /* \"#utility.yul\":22409:22439   */\n      mstore\n      shl(0x52, 0x115490cc4c4d8dce8818dc99585d194819985a5b1959)\n        /* \"#utility.yul\":22455:22473   */\n      0x44\n      dup3\n      add\n        /* \"#utility.yul\":22448:22500   */\n      mstore\n        /* \"#utility.yul\":22517:22535   */\n      0x64\n      add\n        /* \"LaunchpadFactory/Clones.sol\":1702:1759  require(instance != address(0), \"ERC1167: create failed\") */\n      tag_129\n        /* \"#utility.yul\":22195:22541   */\n      jump\n        /* \"LaunchpadFactory/Clones.sol\":1702:1759  require(instance != address(0), \"ERC1167: create failed\") */\n    tag_254:\n        /* \"LaunchpadFactory/Clones.sol\":997:1767  function clone(address implementation) internal returns (address instance) {... */\n      swap2\n      swap1\n      pop\n      jump\t// out\n        /* \"@openzeppelin/contracts/access/Ownable.sol\":2426:2613  function _transferOwnership(address newOwner) internal virtual {... */\n    tag_200:\n        /* \"@openzeppelin/contracts/access/Ownable.sol\":2499:2515  address oldOwner */\n      0x00\n        /* \"@openzeppelin/contracts/access/Ownable.sol\":2518:2524  _owner */\n      dup1\n      sload\n      sub(shl(0xa0, 0x01), 0x01)\n        /* \"@openzeppelin/contracts/access/Ownable.sol\":2534:2551  _owner = newOwner */\n      dup4\n      dup2\n      and\n      not(sub(shl(0xa0, 0x01), 0x01))\n      dup4\n      and\n      dup2\n      or\n      dup5\n      sstore\n        /* \"@openzeppelin/contracts/access/Ownable.sol\":2566:2606  OwnershipTransferred(oldOwner, newOwner) */\n      mload(0x40)\n        /* \"@openzeppelin/contracts/access/Ownable.sol\":2518:2524  _owner */\n      swap2\n      swap1\n      swap3\n      and\n      swap3\n      dup4\n      swap2\n        /* \"@openzeppelin/contracts/access/Ownable.sol\":2566:2606  OwnershipTransferred(oldOwner, newOwner) */\n      0x8be0079c531659141344cd1fd0a4f28419497f9722a3daafe3b4186f6b6457e0\n      swap2\n        /* \"@openzeppelin/contracts/access/Ownable.sol\":2499:2515  address oldOwner */\n      swap1\n        /* \"@openzeppelin/contracts/access/Ownable.sol\":2566:2606  OwnershipTransferred(oldOwner, newOwner) */\n      log3\n        /* \"@openzeppelin/contracts/access/Ownable.sol\":2489:2613  {... */\n      pop\n        /* \"@openzeppelin/contracts/access/Ownable.sol\":2426:2613  function _transferOwnership(address newOwner) internal virtual {... */\n      pop\n      jump\t// out\n        /* \"@openzeppelin/contracts/utils/math/SafeMath.sol\":3465:3561  function mul(uint256 a, uint256 b) internal pure returns (uint256) {... */\n    tag_220:\n        /* \"@openzeppelin/contracts/utils/math/SafeMath.sol\":3523:3530  uint256 */\n      0x00\n        /* \"@openzeppelin/contracts/utils/math/SafeMath.sol\":3549:3554  a * b */\n      tag_259\n        /* \"@openzeppelin/contracts/utils/math/SafeMath.sol\":3553:3554  b */\n      dup3\n        /* \"@openzeppelin/contracts/utils/math/SafeMath.sol\":3549:3550  a */\n      dup5\n        /* \"@openzeppelin/contracts/utils/math/SafeMath.sol\":3549:3554  a * b */\n      tag_187\n      jump\t// in\n    tag_259:\n        /* \"@openzeppelin/contracts/utils/math/SafeMath.sol\":3542:3554  return a * b */\n      swap1\n      pop\n        /* \"@openzeppelin/contracts/utils/math/SafeMath.sol\":3465:3561  function mul(uint256 a, uint256 b) internal pure returns (uint256) {... */\n    tag_258:\n      swap3\n      swap2\n      pop\n      pop\n      jump\t// out\n        /* \"@openzeppelin/contracts/utils/math/SafeMath.sol\":3850:3946  function div(uint256 a, uint256 b) internal pure returns (uint256) {... */\n    tag_221:\n        /* \"@openzeppelin/contracts/utils/math/SafeMath.sol\":3908:3915  uint256 */\n      0x00\n        /* \"@openzeppelin/contracts/utils/math/SafeMath.sol\":3934:3939  a / b */\n      tag_259\n        /* \"@openzeppelin/contracts/utils/math/SafeMath.sol\":3938:3939  b */\n      dup3\n        /* \"@openzeppelin/contracts/utils/math/SafeMath.sol\":3934:3935  a */\n      dup5\n        /* \"@openzeppelin/contracts/utils/math/SafeMath.sol\":3934:3939  a / b */\n      tag_262\n      jump\t// in\n        /* \"@openzeppelin/contracts/utils/math/SafeMath.sol\":3122:3218  function sub(uint256 a, uint256 b) internal pure returns (uint256) {... */\n    tag_227:\n        /* \"@openzeppelin/contracts/utils/math/SafeMath.sol\":3180:3187  uint256 */\n      0x00\n        /* \"@openzeppelin/contracts/utils/math/SafeMath.sol\":3206:3211  a - b */\n      tag_259\n        /* \"@openzeppelin/contracts/utils/math/SafeMath.sol\":3210:3211  b */\n      dup3\n        /* \"@openzeppelin/contracts/utils/math/SafeMath.sol\":3206:3207  a */\n      dup5\n        /* \"@openzeppelin/contracts/utils/math/SafeMath.sol\":3206:3211  a - b */\n      tag_265\n      jump\t// in\n        /* \"@openzeppelin/contracts/utils/math/SafeMath.sol\":2755:2851  function add(uint256 a, uint256 b) internal pure returns (uint256) {... */\n    tag_235:\n        /* \"@openzeppelin/contracts/utils/math/SafeMath.sol\":2813:2820  uint256 */\n      0x00\n        /* \"@openzeppelin/contracts/utils/math/SafeMath.sol\":2839:2844  a + b */\n      tag_259\n        /* \"@openzeppelin/contracts/utils/math/SafeMath.sol\":2843:2844  b */\n      dup3\n        /* \"@openzeppelin/contracts/utils/math/SafeMath.sol\":2839:2840  a */\n      dup5\n        /* \"@openzeppelin/contracts/utils/math/SafeMath.sol\":2839:2844  a + b */\n      tag_268\n      jump\t// in\n        /* \"#utility.yul\":14:194   */\n    tag_29:\n        /* \"#utility.yul\":73:79   */\n      0x00\n        /* \"#utility.yul\":126:128   */\n      0x20\n        /* \"#utility.yul\":114:123   */\n      dup3\n        /* \"#utility.yul\":105:112   */\n      dup5\n        /* \"#utility.yul\":101:124   */\n      sub\n        /* \"#utility.yul\":97:129   */\n      slt\n        /* \"#utility.yul\":94:146   */\n      iszero\n      tag_292\n      jumpi\n        /* \"#utility.yul\":142:143   */\n      0x00\n        /* \"#utility.yul\":139:140   */\n      dup1\n        /* \"#utility.yul\":132:144   */\n      revert\n        /* \"#utility.yul\":94:146   */\n    tag_292:\n      pop\n        /* \"#utility.yul\":165:188   */\n      calldataload\n      swap2\n        /* \"#utility.yul\":14:194   */\n      swap1\n      pop\n      jump\t// out\n        /* \"#utility.yul\":199:326   */\n    tag_269:\n        /* \"#utility.yul\":260:270   */\n      0x4e487b71\n        /* \"#utility.yul\":255:258   */\n      0xe0\n        /* \"#utility.yul\":251:271   */\n      shl\n        /* \"#utility.yul\":248:249   */\n      0x00\n        /* \"#utility.yul\":241:272   */\n      mstore\n        /* \"#utility.yul\":291:295   */\n      0x41\n        /* \"#utility.yul\":288:289   */\n      0x04\n        /* \"#utility.yul\":281:296   */\n      mstore\n        /* \"#utility.yul\":315:319   */\n      0x24\n        /* \"#utility.yul\":312:313   */\n      0x00\n        /* \"#utility.yul\":305:320   */\n      revert\n        /* \"#utility.yul\":331:586   */\n    tag_270:\n        /* \"#utility.yul\":403:405   */\n      0x40\n        /* \"#utility.yul\":397:406   */\n      mload\n        /* \"#utility.yul\":445:451   */\n      0x0140\n        /* \"#utility.yul\":433:452   */\n      dup2\n      add\n        /* \"#utility.yul\":482:500   */\n      0xffffffffffffffff\n        /* \"#utility.yul\":467:501   */\n      dup2\n      gt\n        /* \"#utility.yul\":503:525   */\n      dup3\n      dup3\n      lt\n        /* \"#utility.yul\":464:526   */\n      or\n        /* \"#utility.yul\":461:549   */\n      iszero\n      tag_296\n      jumpi\n        /* \"#utility.yul\":529:547   */\n      tag_296\n      tag_269\n      jump\t// in\n    tag_296:\n        /* \"#utility.yul\":565:567   */\n      0x40\n        /* \"#utility.yul\":558:580   */\n      mstore\n        /* \"#utility.yul\":331:586   */\n      swap1\n      jump\t// out\n        /* \"#utility.yul\":591:841   */\n    tag_271:\n        /* \"#utility.yul\":658:660   */\n      0x40\n        /* \"#utility.yul\":652:661   */\n      mload\n        /* \"#utility.yul\":700:706   */\n      0x0160\n        /* \"#utility.yul\":688:707   */\n      dup2\n      add\n        /* \"#utility.yul\":737:755   */\n      0xffffffffffffffff\n        /* \"#utility.yul\":722:756   */\n      dup2\n      gt\n        /* \"#utility.yul\":758:780   */\n      dup3\n      dup3\n      lt\n        /* \"#utility.yul\":719:781   */\n      or\n        /* \"#utility.yul\":716:804   */\n      iszero\n      tag_296\n      jumpi\n        /* \"#utility.yul\":784:802   */\n      tag_296\n      tag_269\n      jump\t// in\n        /* \"#utility.yul\":846:977   */\n    tag_272:\n      sub(shl(0xa0, 0x01), 0x01)\n        /* \"#utility.yul\":921:952   */\n      dup2\n      and\n        /* \"#utility.yul\":911:953   */\n      dup2\n      eq\n        /* \"#utility.yul\":901:971   */\n      tag_245\n      jumpi\n        /* \"#utility.yul\":967:968   */\n      0x00\n        /* \"#utility.yul\":964:965   */\n      dup1\n        /* \"#utility.yul\":957:969   */\n      revert\n        /* \"#utility.yul\":982:1116   */\n    tag_273:\n        /* \"#utility.yul\":1050:1070   */\n      dup1\n      calldataload\n        /* \"#utility.yul\":1079:1110   */\n      tag_254\n        /* \"#utility.yul\":1050:1070   */\n      dup2\n        /* \"#utility.yul\":1079:1110   */\n      tag_272\n      jump\t// in\n        /* \"#utility.yul\":1121:1661   */\n    tag_274:\n        /* \"#utility.yul\":1177:1182   */\n      0x00\n        /* \"#utility.yul\":1225:1229   */\n      0x60\n        /* \"#utility.yul\":1213:1222   */\n      dup3\n        /* \"#utility.yul\":1208:1211   */\n      dup5\n        /* \"#utility.yul\":1204:1223   */\n      sub\n        /* \"#utility.yul\":1200:1230   */\n      slt\n        /* \"#utility.yul\":1197:1247   */\n      iszero\n      tag_305\n      jumpi\n        /* \"#utility.yul\":1243:1244   */\n      0x00\n        /* \"#utility.yul\":1240:1241   */\n      dup1\n        /* \"#utility.yul\":1233:1245   */\n      revert\n        /* \"#utility.yul\":1197:1247   */\n    tag_305:\n        /* \"#utility.yul\":1276:1278   */\n      0x40\n        /* \"#utility.yul\":1270:1279   */\n      mload\n        /* \"#utility.yul\":1318:1322   */\n      0x60\n        /* \"#utility.yul\":1310:1316   */\n      dup2\n        /* \"#utility.yul\":1306:1323   */\n      add\n        /* \"#utility.yul\":1389:1395   */\n      dup2\n        /* \"#utility.yul\":1377:1387   */\n      dup2\n        /* \"#utility.yul\":1374:1396   */\n      lt\n        /* \"#utility.yul\":1353:1371   */\n      0xffffffffffffffff\n        /* \"#utility.yul\":1341:1351   */\n      dup3\n        /* \"#utility.yul\":1338:1372   */\n      gt\n        /* \"#utility.yul\":1335:1397   */\n      or\n        /* \"#utility.yul\":1332:1420   */\n      iszero\n      tag_307\n      jumpi\n        /* \"#utility.yul\":1400:1418   */\n      tag_307\n      tag_269\n      jump\t// in\n    tag_307:\n        /* \"#utility.yul\":1440:1450   */\n      dup1\n        /* \"#utility.yul\":1436:1438   */\n      0x40\n        /* \"#utility.yul\":1429:1451   */\n      mstore\n      pop\n        /* \"#utility.yul\":1469:1475   */\n      dup1\n        /* \"#utility.yul\":1460:1475   */\n      swap2\n      pop\n        /* \"#utility.yul\":1512:1521   */\n      dup3\n        /* \"#utility.yul\":1499:1522   */\n      calldataload\n        /* \"#utility.yul\":1491:1497   */\n      dup2\n        /* \"#utility.yul\":1484:1523   */\n      mstore\n        /* \"#utility.yul\":1584:1586   */\n      0x20\n        /* \"#utility.yul\":1573:1582   */\n      dup4\n        /* \"#utility.yul\":1569:1587   */\n      add\n        /* \"#utility.yul\":1556:1588   */\n      calldataload\n        /* \"#utility.yul\":1551:1553   */\n      0x20\n        /* \"#utility.yul\":1543:1549   */\n      dup3\n        /* \"#utility.yul\":1539:1554   */\n      add\n        /* \"#utility.yul\":1532:1589   */\n      mstore\n        /* \"#utility.yul\":1650:1652   */\n      0x40\n        /* \"#utility.yul\":1639:1648   */\n      dup4\n        /* \"#utility.yul\":1635:1653   */\n      add\n        /* \"#utility.yul\":1622:1654   */\n      calldataload\n        /* \"#utility.yul\":1617:1619   */\n      0x40\n        /* \"#utility.yul\":1609:1615   */\n      dup3\n        /* \"#utility.yul\":1605:1620   */\n      add\n        /* \"#utility.yul\":1598:1655   */\n      mstore\n      pop\n        /* \"#utility.yul\":1121:1661   */\n      swap3\n      swap2\n      pop\n      pop\n      jump\t// out\n        /* \"#utility.yul\":1666:1784   */\n    tag_275:\n        /* \"#utility.yul\":1752:1757   */\n      dup1\n        /* \"#utility.yul\":1745:1758   */\n      iszero\n        /* \"#utility.yul\":1738:1759   */\n      iszero\n        /* \"#utility.yul\":1731:1736   */\n      dup2\n        /* \"#utility.yul\":1728:1760   */\n      eq\n        /* \"#utility.yul\":1718:1778   */\n      tag_245\n      jumpi\n        /* \"#utility.yul\":1774:1775   */\n      0x00\n        /* \"#utility.yul\":1771:1772   */\n      dup1\n        /* \"#utility.yul\":1764:1776   */\n      revert\n        /* \"#utility.yul\":1789:2745   */\n    tag_276:\n        /* \"#utility.yul\":1843:1848   */\n      0x00\n        /* \"#utility.yul\":1891:1895   */\n      0xc0\n        /* \"#utility.yul\":1879:1888   */\n      dup3\n        /* \"#utility.yul\":1874:1877   */\n      dup5\n        /* \"#utility.yul\":1870:1889   */\n      sub\n        /* \"#utility.yul\":1866:1896   */\n      slt\n        /* \"#utility.yul\":1863:1913   */\n      iszero\n      tag_311\n      jumpi\n        /* \"#utility.yul\":1909:1910   */\n      0x00\n        /* \"#utility.yul\":1906:1907   */\n      dup1\n        /* \"#utility.yul\":1899:1911   */\n      revert\n        /* \"#utility.yul\":1863:1913   */\n    tag_311:\n        /* \"#utility.yul\":1942:1944   */\n      0x40\n        /* \"#utility.yul\":1936:1945   */\n      mload\n        /* \"#utility.yul\":1984:1988   */\n      0xc0\n        /* \"#utility.yul\":1976:1982   */\n      dup2\n        /* \"#utility.yul\":1972:1989   */\n      add\n        /* \"#utility.yul\":2055:2061   */\n      dup2\n        /* \"#utility.yul\":2043:2053   */\n      dup2\n        /* \"#utility.yul\":2040:2062   */\n      lt\n        /* \"#utility.yul\":2019:2037   */\n      0xffffffffffffffff\n        /* \"#utility.yul\":2007:2017   */\n      dup3\n        /* \"#utility.yul\":2004:2038   */\n      gt\n        /* \"#utility.yul\":2001:2063   */\n      or\n        /* \"#utility.yul\":1998:2086   */\n      iszero\n      tag_313\n      jumpi\n        /* \"#utility.yul\":2066:2084   */\n      tag_313\n      tag_269\n      jump\t// in\n    tag_313:\n        /* \"#utility.yul\":2102:2104   */\n      0x40\n        /* \"#utility.yul\":2095:2117   */\n      mstore\n        /* \"#utility.yul\":2135:2141   */\n      swap1\n      pop\n      dup1\n        /* \"#utility.yul\":2165:2188   */\n      dup3\n      calldataload\n        /* \"#utility.yul\":2197:2227   */\n      tag_314\n        /* \"#utility.yul\":2165:2188   */\n      dup2\n        /* \"#utility.yul\":2197:2227   */\n      tag_275\n      jump\t// in\n    tag_314:\n        /* \"#utility.yul\":2236:2259   */\n      dup2\n      mstore\n        /* \"#utility.yul\":2311:2313   */\n      0x20\n        /* \"#utility.yul\":2296:2314   */\n      dup4\n      add\n        /* \"#utility.yul\":2283:2315   */\n      calldataload\n        /* \"#utility.yul\":2324:2357   */\n      tag_315\n        /* \"#utility.yul\":2283:2315   */\n      dup2\n        /* \"#utility.yul\":2324:2357   */\n      tag_272\n      jump\t// in\n    tag_315:\n        /* \"#utility.yul\":2385:2387   */\n      0x20\n        /* \"#utility.yul\":2373:2388   */\n      dup3\n      add\n        /* \"#utility.yul\":2366:2398   */\n      mstore\n        /* \"#utility.yul\":2450:2452   */\n      0x40\n        /* \"#utility.yul\":2435:2453   */\n      dup4\n      add\n        /* \"#utility.yul\":2422:2454   */\n      calldataload\n        /* \"#utility.yul\":2463:2496   */\n      tag_316\n        /* \"#utility.yul\":2422:2454   */\n      dup2\n        /* \"#utility.yul\":2463:2496   */\n      tag_272\n      jump\t// in\n    tag_316:\n        /* \"#utility.yul\":2529:2536   */\n      dup1\n        /* \"#utility.yul\":2524:2526   */\n      0x40\n        /* \"#utility.yul\":2516:2522   */\n      dup4\n        /* \"#utility.yul\":2512:2527   */\n      add\n        /* \"#utility.yul\":2505:2537   */\n      mstore\n      pop\n        /* \"#utility.yul\":2598:2600   */\n      0x60\n        /* \"#utility.yul\":2587:2596   */\n      dup4\n        /* \"#utility.yul\":2583:2601   */\n      add\n        /* \"#utility.yul\":2570:2602   */\n      calldataload\n        /* \"#utility.yul\":2565:2567   */\n      0x60\n        /* \"#utility.yul\":2557:2563   */\n      dup3\n        /* \"#utility.yul\":2553:2568   */\n      add\n        /* \"#utility.yul\":2546:2603   */\n      mstore\n        /* \"#utility.yul\":2665:2668   */\n      0x80\n        /* \"#utility.yul\":2654:2663   */\n      dup4\n        /* \"#utility.yul\":2650:2669   */\n      add\n        /* \"#utility.yul\":2637:2670   */\n      calldataload\n        /* \"#utility.yul\":2631:2634   */\n      0x80\n        /* \"#utility.yul\":2623:2629   */\n      dup3\n        /* \"#utility.yul\":2619:2635   */\n      add\n        /* \"#utility.yul\":2612:2671   */\n      mstore\n        /* \"#utility.yul\":2733:2736   */\n      0xa0\n        /* \"#utility.yul\":2722:2731   */\n      dup4\n        /* \"#utility.yul\":2718:2737   */\n      add\n        /* \"#utility.yul\":2705:2738   */\n      calldataload\n        /* \"#utility.yul\":2699:2702   */\n      0xa0\n        /* \"#utility.yul\":2691:2697   */\n      dup3\n        /* \"#utility.yul\":2687:2703   */\n      add\n        /* \"#utility.yul\":2680:2739   */\n      mstore\n      pop\n        /* \"#utility.yul\":1789:2745   */\n      swap3\n      swap2\n      pop\n      pop\n      jump\t// out\n        /* \"#utility.yul\":2750:3228   */\n    tag_277:\n        /* \"#utility.yul\":2806:2811   */\n      0x00\n        /* \"#utility.yul\":2854:2858   */\n      0x40\n        /* \"#utility.yul\":2842:2851   */\n      dup3\n        /* \"#utility.yul\":2837:2840   */\n      dup5\n        /* \"#utility.yul\":2833:2852   */\n      sub\n        /* \"#utility.yul\":2829:2859   */\n      slt\n        /* \"#utility.yul\":2826:2876   */\n      iszero\n      tag_318\n      jumpi\n        /* \"#utility.yul\":2872:2873   */\n      0x00\n        /* \"#utility.yul\":2869:2870   */\n      dup1\n        /* \"#utility.yul\":2862:2874   */\n      revert\n        /* \"#utility.yul\":2826:2876   */\n    tag_318:\n        /* \"#utility.yul\":2905:2909   */\n      0x40\n        /* \"#utility.yul\":2899:2910   */\n      mload\n        /* \"#utility.yul\":2949:2953   */\n      0x40\n        /* \"#utility.yul\":2941:2947   */\n      dup2\n        /* \"#utility.yul\":2937:2954   */\n      add\n        /* \"#utility.yul\":3020:3026   */\n      dup2\n        /* \"#utility.yul\":3008:3018   */\n      dup2\n        /* \"#utility.yul\":3005:3027   */\n      lt\n        /* \"#utility.yul\":2984:3002   */\n      0xffffffffffffffff\n        /* \"#utility.yul\":2972:2982   */\n      dup3\n        /* \"#utility.yul\":2969:3003   */\n      gt\n        /* \"#utility.yul\":2966:3028   */\n      or\n        /* \"#utility.yul\":2963:3051   */\n      iszero\n      tag_320\n      jumpi\n        /* \"#utility.yul\":3031:3049   */\n      tag_320\n      tag_269\n      jump\t// in\n    tag_320:\n        /* \"#utility.yul\":3067:3071   */\n      0x40\n        /* \"#utility.yul\":3060:3084   */\n      mstore\n        /* \"#utility.yul\":3132:3155   */\n      dup3\n      calldataload\n        /* \"#utility.yul\":3117:3156   */\n      dup2\n      mstore\n        /* \"#utility.yul\":3217:3219   */\n      0x20\n        /* \"#utility.yul\":3202:3220   */\n      swap3\n      dup4\n      add\n        /* \"#utility.yul\":3189:3221   */\n      calldataload\n        /* \"#utility.yul\":3172:3187   */\n      swap3\n      dup2\n      add\n        /* \"#utility.yul\":3165:3222   */\n      swap3\n      swap1\n      swap3\n      mstore\n      pop\n        /* \"#utility.yul\":3102:3108   */\n      swap2\n        /* \"#utility.yul\":2750:3228   */\n      swap1\n      pop\n      jump\t// out\n        /* \"#utility.yul\":3233:3952   */\n    tag_278:\n        /* \"#utility.yul\":3276:3281   */\n      0x00\n        /* \"#utility.yul\":3329:3332   */\n      dup3\n        /* \"#utility.yul\":3322:3326   */\n      0x1f\n        /* \"#utility.yul\":3314:3320   */\n      dup4\n        /* \"#utility.yul\":3310:3327   */\n      add\n        /* \"#utility.yul\":3306:3333   */\n      slt\n        /* \"#utility.yul\":3296:3351   */\n      tag_322\n      jumpi\n        /* \"#utility.yul\":3347:3348   */\n      0x00\n        /* \"#utility.yul\":3344:3345   */\n      dup1\n        /* \"#utility.yul\":3337:3349   */\n      revert\n        /* \"#utility.yul\":3296:3351   */\n    tag_322:\n        /* \"#utility.yul\":3383:3389   */\n      dup2\n        /* \"#utility.yul\":3370:3390   */\n      calldataload\n        /* \"#utility.yul\":3409:3427   */\n      0xffffffffffffffff\n        /* \"#utility.yul\":3446:3448   */\n      dup1\n        /* \"#utility.yul\":3442:3444   */\n      dup3\n        /* \"#utility.yul\":3439:3449   */\n      gt\n        /* \"#utility.yul\":3436:3472   */\n      iszero\n      tag_324\n      jumpi\n        /* \"#utility.yul\":3452:3470   */\n      tag_324\n      tag_269\n      jump\t// in\n    tag_324:\n        /* \"#utility.yul\":3527:3529   */\n      0x40\n        /* \"#utility.yul\":3521:3530   */\n      mload\n        /* \"#utility.yul\":3495:3497   */\n      0x1f\n        /* \"#utility.yul\":3581:3594   */\n      dup4\n      add\n      not(0x1f)\n        /* \"#utility.yul\":3577:3599   */\n      swap1\n      dup2\n      and\n        /* \"#utility.yul\":3601:3603   */\n      0x3f\n        /* \"#utility.yul\":3573:3604   */\n      add\n        /* \"#utility.yul\":3569:3609   */\n      and\n        /* \"#utility.yul\":3557:3610   */\n      dup2\n      add\n      swap1\n        /* \"#utility.yul\":3625:3643   */\n      dup3\n      dup3\n      gt\n        /* \"#utility.yul\":3645:3667   */\n      dup2\n      dup4\n      lt\n        /* \"#utility.yul\":3622:3668   */\n      or\n        /* \"#utility.yul\":3619:3691   */\n      iszero\n      tag_326\n      jumpi\n        /* \"#utility.yul\":3671:3689   */\n      tag_326\n      tag_269\n      jump\t// in\n    tag_326:\n        /* \"#utility.yul\":3711:3721   */\n      dup2\n        /* \"#utility.yul\":3707:3709   */\n      0x40\n        /* \"#utility.yul\":3700:3722   */\n      mstore\n        /* \"#utility.yul\":3746:3748   */\n      dup4\n        /* \"#utility.yul\":3738:3744   */\n      dup2\n        /* \"#utility.yul\":3731:3749   */\n      mstore\n        /* \"#utility.yul\":3792:3795   */\n      dup7\n        /* \"#utility.yul\":3785:3789   */\n      0x20\n        /* \"#utility.yul\":3780:3782   */\n      dup6\n        /* \"#utility.yul\":3772:3778   */\n      dup9\n        /* \"#utility.yul\":3768:3783   */\n      add\n        /* \"#utility.yul\":3764:3790   */\n      add\n        /* \"#utility.yul\":3761:3796   */\n      gt\n        /* \"#utility.yul\":3758:3813   */\n      iszero\n      tag_327\n      jumpi\n        /* \"#utility.yul\":3809:3810   */\n      0x00\n        /* \"#utility.yul\":3806:3807   */\n      dup1\n        /* \"#utility.yul\":3799:3811   */\n      revert\n        /* \"#utility.yul\":3758:3813   */\n    tag_327:\n        /* \"#utility.yul\":3873:3875   */\n      dup4\n        /* \"#utility.yul\":3866:3870   */\n      0x20\n        /* \"#utility.yul\":3858:3864   */\n      dup8\n        /* \"#utility.yul\":3854:3871   */\n      add\n        /* \"#utility.yul\":3847:3851   */\n      0x20\n        /* \"#utility.yul\":3839:3845   */\n      dup4\n        /* \"#utility.yul\":3835:3852   */\n      add\n        /* \"#utility.yul\":3822:3876   */\n      calldatacopy\n        /* \"#utility.yul\":3920:3921   */\n      0x00\n        /* \"#utility.yul\":3913:3917   */\n      0x20\n        /* \"#utility.yul\":3908:3910   */\n      dup6\n        /* \"#utility.yul\":3900:3906   */\n      dup4\n        /* \"#utility.yul\":3896:3911   */\n      add\n        /* \"#utility.yul\":3892:3918   */\n      add\n        /* \"#utility.yul\":3885:3922   */\n      mstore\n        /* \"#utility.yul\":3940:3946   */\n      dup1\n        /* \"#utility.yul\":3931:3946   */\n      swap5\n      pop\n      pop\n      pop\n      pop\n      pop\n        /* \"#utility.yul\":3233:3952   */\n      swap3\n      swap2\n      pop\n      pop\n      jump\t// out\n        /* \"#utility.yul\":3957:6028   */\n    tag_279:\n        /* \"#utility.yul\":4015:4020   */\n      0x00\n        /* \"#utility.yul\":4063:4069   */\n      0x0140\n        /* \"#utility.yul\":4051:4060   */\n      dup3\n        /* \"#utility.yul\":4046:4049   */\n      dup5\n        /* \"#utility.yul\":4042:4061   */\n      sub\n        /* \"#utility.yul\":4038:4070   */\n      slt\n        /* \"#utility.yul\":4035:4087   */\n      iszero\n      tag_329\n      jumpi\n        /* \"#utility.yul\":4083:4084   */\n      0x00\n        /* \"#utility.yul\":4080:4081   */\n      dup1\n        /* \"#utility.yul\":4073:4085   */\n      revert\n        /* \"#utility.yul\":4035:4087   */\n    tag_329:\n        /* \"#utility.yul\":4105:4127   */\n      tag_330\n      tag_270\n      jump\t// in\n    tag_330:\n        /* \"#utility.yul\":4096:4127   */\n      swap1\n      pop\n        /* \"#utility.yul\":4163:4172   */\n      dup2\n        /* \"#utility.yul\":4150:4173   */\n      calldataload\n        /* \"#utility.yul\":4192:4210   */\n      0xffffffffffffffff\n        /* \"#utility.yul\":4233:4235   */\n      dup1\n        /* \"#utility.yul\":4225:4231   */\n      dup3\n        /* \"#utility.yul\":4222:4236   */\n      gt\n        /* \"#utility.yul\":4219:4253   */\n      iszero\n      tag_331\n      jumpi\n        /* \"#utility.yul\":4249:4250   */\n      0x00\n        /* \"#utility.yul\":4246:4247   */\n      dup1\n        /* \"#utility.yul\":4239:4251   */\n      revert\n        /* \"#utility.yul\":4219:4253   */\n    tag_331:\n        /* \"#utility.yul\":4276:4322   */\n      tag_332\n        /* \"#utility.yul\":4318:4321   */\n      dup6\n        /* \"#utility.yul\":4309:4315   */\n      dup4\n        /* \"#utility.yul\":4298:4307   */\n      dup7\n        /* \"#utility.yul\":4294:4316   */\n      add\n        /* \"#utility.yul\":4276:4322   */\n      tag_278\n      jump\t// in\n    tag_332:\n        /* \"#utility.yul\":4269:4274   */\n      dup4\n        /* \"#utility.yul\":4262:4323   */\n      mstore\n        /* \"#utility.yul\":4376:4378   */\n      0x20\n        /* \"#utility.yul\":4365:4374   */\n      dup5\n        /* \"#utility.yul\":4361:4379   */\n      add\n        /* \"#utility.yul\":4348:4380   */\n      calldataload\n        /* \"#utility.yul\":4332:4380   */\n      swap2\n      pop\n        /* \"#utility.yul\":4405:4407   */\n      dup1\n        /* \"#utility.yul\":4395:4403   */\n      dup3\n        /* \"#utility.yul\":4392:4408   */\n      gt\n        /* \"#utility.yul\":4389:4425   */\n      iszero\n      tag_333\n      jumpi\n        /* \"#utility.yul\":4421:4422   */\n      0x00\n        /* \"#utility.yul\":4418:4419   */\n      dup1\n        /* \"#utility.yul\":4411:4423   */\n      revert\n        /* \"#utility.yul\":4389:4425   */\n    tag_333:\n        /* \"#utility.yul\":4457:4505   */\n      tag_334\n        /* \"#utility.yul\":4501:4504   */\n      dup6\n        /* \"#utility.yul\":4490:4498   */\n      dup4\n        /* \"#utility.yul\":4479:4488   */\n      dup7\n        /* \"#utility.yul\":4475:4499   */\n      add\n        /* \"#utility.yul\":4457:4505   */\n      tag_278\n      jump\t// in\n    tag_334:\n        /* \"#utility.yul\":4452:4454   */\n      0x20\n        /* \"#utility.yul\":4445:4450   */\n      dup5\n        /* \"#utility.yul\":4441:4455   */\n      add\n        /* \"#utility.yul\":4434:4506   */\n      mstore\n        /* \"#utility.yul\":4559:4561   */\n      0x40\n        /* \"#utility.yul\":4548:4557   */\n      dup5\n        /* \"#utility.yul\":4544:4562   */\n      add\n        /* \"#utility.yul\":4531:4563   */\n      calldataload\n        /* \"#utility.yul\":4515:4563   */\n      swap2\n      pop\n        /* \"#utility.yul\":4588:4590   */\n      dup1\n        /* \"#utility.yul\":4578:4586   */\n      dup3\n        /* \"#utility.yul\":4575:4591   */\n      gt\n        /* \"#utility.yul\":4572:4608   */\n      iszero\n      tag_335\n      jumpi\n        /* \"#utility.yul\":4604:4605   */\n      0x00\n        /* \"#utility.yul\":4601:4602   */\n      dup1\n        /* \"#utility.yul\":4594:4606   */\n      revert\n        /* \"#utility.yul\":4572:4608   */\n    tag_335:\n        /* \"#utility.yul\":4640:4688   */\n      tag_336\n        /* \"#utility.yul\":4684:4687   */\n      dup6\n        /* \"#utility.yul\":4673:4681   */\n      dup4\n        /* \"#utility.yul\":4662:4671   */\n      dup7\n        /* \"#utility.yul\":4658:4682   */\n      add\n        /* \"#utility.yul\":4640:4688   */\n      tag_278\n      jump\t// in\n    tag_336:\n        /* \"#utility.yul\":4635:4637   */\n      0x40\n        /* \"#utility.yul\":4628:4633   */\n      dup5\n        /* \"#utility.yul\":4624:4638   */\n      add\n        /* \"#utility.yul\":4617:4689   */\n      mstore\n        /* \"#utility.yul\":4742:4744   */\n      0x60\n        /* \"#utility.yul\":4731:4740   */\n      dup5\n        /* \"#utility.yul\":4727:4745   */\n      add\n        /* \"#utility.yul\":4714:4746   */\n      calldataload\n        /* \"#utility.yul\":4698:4746   */\n      swap2\n      pop\n        /* \"#utility.yul\":4771:4773   */\n      dup1\n        /* \"#utility.yul\":4761:4769   */\n      dup3\n        /* \"#utility.yul\":4758:4774   */\n      gt\n        /* \"#utility.yul\":4755:4791   */\n      iszero\n      tag_337\n      jumpi\n        /* \"#utility.yul\":4787:4788   */\n      0x00\n        /* \"#utility.yul\":4784:4785   */\n      dup1\n        /* \"#utility.yul\":4777:4789   */\n      revert\n        /* \"#utility.yul\":4755:4791   */\n    tag_337:\n        /* \"#utility.yul\":4823:4871   */\n      tag_338\n        /* \"#utility.yul\":4867:4870   */\n      dup6\n        /* \"#utility.yul\":4856:4864   */\n      dup4\n        /* \"#utility.yul\":4845:4854   */\n      dup7\n        /* \"#utility.yul\":4841:4865   */\n      add\n        /* \"#utility.yul\":4823:4871   */\n      tag_278\n      jump\t// in\n    tag_338:\n        /* \"#utility.yul\":4818:4820   */\n      0x60\n        /* \"#utility.yul\":4811:4816   */\n      dup5\n        /* \"#utility.yul\":4807:4821   */\n      add\n        /* \"#utility.yul\":4800:4872   */\n      mstore\n        /* \"#utility.yul\":4925:4928   */\n      0x80\n        /* \"#utility.yul\":4914:4923   */\n      dup5\n        /* \"#utility.yul\":4910:4929   */\n      add\n        /* \"#utility.yul\":4897:4930   */\n      calldataload\n        /* \"#utility.yul\":4881:4930   */\n      swap2\n      pop\n        /* \"#utility.yul\":4955:4957   */\n      dup1\n        /* \"#utility.yul\":4945:4953   */\n      dup3\n        /* \"#utility.yul\":4942:4958   */\n      gt\n        /* \"#utility.yul\":4939:4975   */\n      iszero\n      tag_339\n      jumpi\n        /* \"#utility.yul\":4971:4972   */\n      0x00\n        /* \"#utility.yul\":4968:4969   */\n      dup1\n        /* \"#utility.yul\":4961:4973   */\n      revert\n        /* \"#utility.yul\":4939:4975   */\n    tag_339:\n        /* \"#utility.yul\":5008:5056   */\n      tag_340\n        /* \"#utility.yul\":5052:5055   */\n      dup6\n        /* \"#utility.yul\":5041:5049   */\n      dup4\n        /* \"#utility.yul\":5030:5039   */\n      dup7\n        /* \"#utility.yul\":5026:5050   */\n      add\n        /* \"#utility.yul\":5008:5056   */\n      tag_278\n      jump\t// in\n    tag_340:\n        /* \"#utility.yul\":5002:5005   */\n      0x80\n        /* \"#utility.yul\":4995:5000   */\n      dup5\n        /* \"#utility.yul\":4991:5006   */\n      add\n        /* \"#utility.yul\":4984:5057   */\n      mstore\n        /* \"#utility.yul\":5110:5113   */\n      0xa0\n        /* \"#utility.yul\":5099:5108   */\n      dup5\n        /* \"#utility.yul\":5095:5114   */\n      add\n        /* \"#utility.yul\":5082:5115   */\n      calldataload\n        /* \"#utility.yul\":5066:5115   */\n      swap2\n      pop\n        /* \"#utility.yul\":5140:5142   */\n      dup1\n        /* \"#utility.yul\":5130:5138   */\n      dup3\n        /* \"#utility.yul\":5127:5143   */\n      gt\n        /* \"#utility.yul\":5124:5160   */\n      iszero\n      tag_341\n      jumpi\n        /* \"#utility.yul\":5156:5157   */\n      0x00\n        /* \"#utility.yul\":5153:5154   */\n      dup1\n        /* \"#utility.yul\":5146:5158   */\n      revert\n        /* \"#utility.yul\":5124:5160   */\n    tag_341:\n        /* \"#utility.yul\":5193:5241   */\n      tag_342\n        /* \"#utility.yul\":5237:5240   */\n      dup6\n        /* \"#utility.yul\":5226:5234   */\n      dup4\n        /* \"#utility.yul\":5215:5224   */\n      dup7\n        /* \"#utility.yul\":5211:5235   */\n      add\n        /* \"#utility.yul\":5193:5241   */\n      tag_278\n      jump\t// in\n    tag_342:\n        /* \"#utility.yul\":5187:5190   */\n      0xa0\n        /* \"#utility.yul\":5180:5185   */\n      dup5\n        /* \"#utility.yul\":5176:5191   */\n      add\n        /* \"#utility.yul\":5169:5242   */\n      mstore\n        /* \"#utility.yul\":5295:5298   */\n      0xc0\n        /* \"#utility.yul\":5284:5293   */\n      dup5\n        /* \"#utility.yul\":5280:5299   */\n      add\n        /* \"#utility.yul\":5267:5300   */\n      calldataload\n        /* \"#utility.yul\":5251:5300   */\n      swap2\n      pop\n        /* \"#utility.yul\":5325:5327   */\n      dup1\n        /* \"#utility.yul\":5315:5323   */\n      dup3\n        /* \"#utility.yul\":5312:5328   */\n      gt\n        /* \"#utility.yul\":5309:5345   */\n      iszero\n      tag_343\n      jumpi\n        /* \"#utility.yul\":5341:5342   */\n      0x00\n        /* \"#utility.yul\":5338:5339   */\n      dup1\n        /* \"#utility.yul\":5331:5343   */\n      revert\n        /* \"#utility.yul\":5309:5345   */\n    tag_343:\n        /* \"#utility.yul\":5378:5426   */\n      tag_344\n        /* \"#utility.yul\":5422:5425   */\n      dup6\n        /* \"#utility.yul\":5411:5419   */\n      dup4\n        /* \"#utility.yul\":5400:5409   */\n      dup7\n        /* \"#utility.yul\":5396:5420   */\n      add\n        /* \"#utility.yul\":5378:5426   */\n      tag_278\n      jump\t// in\n    tag_344:\n        /* \"#utility.yul\":5372:5375   */\n      0xc0\n        /* \"#utility.yul\":5365:5370   */\n      dup5\n        /* \"#utility.yul\":5361:5376   */\n      add\n        /* \"#utility.yul\":5354:5427   */\n      mstore\n        /* \"#utility.yul\":5480:5483   */\n      0xe0\n        /* \"#utility.yul\":5469:5478   */\n      dup5\n        /* \"#utility.yul\":5465:5484   */\n      add\n        /* \"#utility.yul\":5452:5485   */\n      calldataload\n        /* \"#utility.yul\":5436:5485   */\n      swap2\n      pop\n        /* \"#utility.yul\":5510:5512   */\n      dup1\n        /* \"#utility.yul\":5500:5508   */\n      dup3\n        /* \"#utility.yul\":5497:5513   */\n      gt\n        /* \"#utility.yul\":5494:5530   */\n      iszero\n      tag_345\n      jumpi\n        /* \"#utility.yul\":5526:5527   */\n      0x00\n        /* \"#utility.yul\":5523:5524   */\n      dup1\n        /* \"#utility.yul\":5516:5528   */\n      revert\n        /* \"#utility.yul\":5494:5530   */\n    tag_345:\n        /* \"#utility.yul\":5563:5611   */\n      tag_346\n        /* \"#utility.yul\":5607:5610   */\n      dup6\n        /* \"#utility.yul\":5596:5604   */\n      dup4\n        /* \"#utility.yul\":5585:5594   */\n      dup7\n        /* \"#utility.yul\":5581:5605   */\n      add\n        /* \"#utility.yul\":5563:5611   */\n      tag_278\n      jump\t// in\n    tag_346:\n        /* \"#utility.yul\":5557:5560   */\n      0xe0\n        /* \"#utility.yul\":5550:5555   */\n      dup5\n        /* \"#utility.yul\":5546:5561   */\n      add\n        /* \"#utility.yul\":5539:5612   */\n      mstore\n        /* \"#utility.yul\":5631:5634   */\n      0x0100\n        /* \"#utility.yul\":5621:5634   */\n      swap2\n      pop\n        /* \"#utility.yul\":5687:5689   */\n      dup2\n        /* \"#utility.yul\":5676:5685   */\n      dup5\n        /* \"#utility.yul\":5672:5690   */\n      add\n        /* \"#utility.yul\":5659:5691   */\n      calldataload\n        /* \"#utility.yul\":5716:5718   */\n      dup2\n        /* \"#utility.yul\":5706:5714   */\n      dup2\n        /* \"#utility.yul\":5703:5719   */\n      gt\n        /* \"#utility.yul\":5700:5736   */\n      iszero\n      tag_347\n      jumpi\n        /* \"#utility.yul\":5732:5733   */\n      0x00\n        /* \"#utility.yul\":5729:5730   */\n      dup1\n        /* \"#utility.yul\":5722:5734   */\n      revert\n        /* \"#utility.yul\":5700:5736   */\n    tag_347:\n        /* \"#utility.yul\":5768:5816   */\n      tag_348\n        /* \"#utility.yul\":5812:5815   */\n      dup7\n        /* \"#utility.yul\":5801:5809   */\n      dup3\n        /* \"#utility.yul\":5790:5799   */\n      dup8\n        /* \"#utility.yul\":5786:5810   */\n      add\n        /* \"#utility.yul\":5768:5816   */\n      tag_278\n      jump\t// in\n    tag_348:\n        /* \"#utility.yul\":5763:5765   */\n      dup4\n        /* \"#utility.yul\":5756:5761   */\n      dup6\n        /* \"#utility.yul\":5752:5766   */\n      add\n        /* \"#utility.yul\":5745:5817   */\n      mstore\n      pop\n        /* \"#utility.yul\":5836:5839   */\n      0x0120\n        /* \"#utility.yul\":5826:5839   */\n      swap2\n      pop\n        /* \"#utility.yul\":5892:5894   */\n      dup2\n        /* \"#utility.yul\":5881:5890   */\n      dup5\n        /* \"#utility.yul\":5877:5895   */\n      add\n        /* \"#utility.yul\":5864:5896   */\n      calldataload\n        /* \"#utility.yul\":5921:5923   */\n      dup2\n        /* \"#utility.yul\":5911:5919   */\n      dup2\n        /* \"#utility.yul\":5908:5924   */\n      gt\n        /* \"#utility.yul\":5905:5941   */\n      iszero\n      tag_349\n      jumpi\n        /* \"#utility.yul\":5937:5938   */\n      0x00\n        /* \"#utility.yul\":5934:5935   */\n      dup1\n        /* \"#utility.yul\":5927:5939   */\n      revert\n        /* \"#utility.yul\":5905:5941   */\n    tag_349:\n        /* \"#utility.yul\":5973:6021   */\n      tag_350\n        /* \"#utility.yul\":6017:6020   */\n      dup7\n        /* \"#utility.yul\":6006:6014   */\n      dup3\n        /* \"#utility.yul\":5995:6004   */\n      dup8\n        /* \"#utility.yul\":5991:6015   */\n      add\n        /* \"#utility.yul\":5973:6021   */\n      tag_278\n      jump\t// in\n    tag_350:\n        /* \"#utility.yul\":5968:5970   */\n      dup4\n        /* \"#utility.yul\":5961:5966   */\n      dup6\n        /* \"#utility.yul\":5957:5971   */\n      add\n        /* \"#utility.yul\":5950:6022   */\n      mstore\n      pop\n      pop\n      pop\n        /* \"#utility.yul\":3957:6028   */\n      swap3\n      swap2\n      pop\n      pop\n      jump\t// out\n        /* \"#utility.yul\":6033:7732   */\n    tag_33:\n        /* \"#utility.yul\":6267:6273   */\n      0x00\n        /* \"#utility.yul\":6275:6281   */\n      dup1\n        /* \"#utility.yul\":6283:6289   */\n      0x00\n        /* \"#utility.yul\":6291:6297   */\n      dup1\n        /* \"#utility.yul\":6299:6305   */\n      0x00\n        /* \"#utility.yul\":6343:6352   */\n      dup6\n        /* \"#utility.yul\":6334:6341   */\n      dup8\n        /* \"#utility.yul\":6330:6353   */\n      sub\n        /* \"#utility.yul\":6373:6376   */\n      0x02e0\n        /* \"#utility.yul\":6369:6371   */\n      dup2\n        /* \"#utility.yul\":6365:6377   */\n      slt\n        /* \"#utility.yul\":6362:6394   */\n      iszero\n      tag_352\n      jumpi\n        /* \"#utility.yul\":6390:6391   */\n      0x00\n        /* \"#utility.yul\":6387:6388   */\n      dup1\n        /* \"#utility.yul\":6380:6392   */\n      revert\n        /* \"#utility.yul\":6362:6394   */\n    tag_352:\n        /* \"#utility.yul\":6413:6419   */\n      0x0160\n        /* \"#utility.yul\":6439:6441   */\n      dup1\n        /* \"#utility.yul\":6435:6437   */\n      dup3\n        /* \"#utility.yul\":6431:6442   */\n      slt\n        /* \"#utility.yul\":6428:6459   */\n      iszero\n      tag_353\n      jumpi\n        /* \"#utility.yul\":6455:6456   */\n      0x00\n        /* \"#utility.yul\":6452:6453   */\n      dup1\n        /* \"#utility.yul\":6445:6457   */\n      revert\n        /* \"#utility.yul\":6428:6459   */\n    tag_353:\n        /* \"#utility.yul\":6481:6498   */\n      tag_354\n      tag_271\n      jump\t// in\n    tag_354:\n        /* \"#utility.yul\":6468:6498   */\n      swap2\n      pop\n        /* \"#utility.yul\":6521:6550   */\n      tag_355\n        /* \"#utility.yul\":6540:6549   */\n      dup9\n        /* \"#utility.yul\":6521:6550   */\n      tag_273\n      jump\t// in\n    tag_355:\n        /* \"#utility.yul\":6514:6519   */\n      dup3\n        /* \"#utility.yul\":6507:6551   */\n      mstore\n        /* \"#utility.yul\":6583:6621   */\n      tag_356\n        /* \"#utility.yul\":6617:6619   */\n      0x20\n        /* \"#utility.yul\":6606:6615   */\n      dup10\n        /* \"#utility.yul\":6602:6620   */\n      add\n        /* \"#utility.yul\":6583:6621   */\n      tag_273\n      jump\t// in\n    tag_356:\n        /* \"#utility.yul\":6578:6580   */\n      0x20\n        /* \"#utility.yul\":6571:6576   */\n      dup4\n        /* \"#utility.yul\":6567:6581   */\n      add\n        /* \"#utility.yul\":6560:6622   */\n      mstore\n        /* \"#utility.yul\":6682:6684   */\n      0x40\n        /* \"#utility.yul\":6671:6680   */\n      dup9\n        /* \"#utility.yul\":6667:6685   */\n      add\n        /* \"#utility.yul\":6654:6686   */\n      calldataload\n        /* \"#utility.yul\":6649:6651   */\n      0x40\n        /* \"#utility.yul\":6642:6647   */\n      dup4\n        /* \"#utility.yul\":6638:6652   */\n      add\n        /* \"#utility.yul\":6631:6687   */\n      mstore\n        /* \"#utility.yul\":6747:6749   */\n      0x60\n        /* \"#utility.yul\":6736:6745   */\n      dup9\n        /* \"#utility.yul\":6732:6750   */\n      add\n        /* \"#utility.yul\":6719:6751   */\n      calldataload\n        /* \"#utility.yul\":6714:6716   */\n      0x60\n        /* \"#utility.yul\":6707:6712   */\n      dup4\n        /* \"#utility.yul\":6703:6717   */\n      add\n        /* \"#utility.yul\":6696:6752   */\n      mstore\n        /* \"#utility.yul\":6813:6816   */\n      0x80\n        /* \"#utility.yul\":6802:6811   */\n      dup9\n        /* \"#utility.yul\":6798:6817   */\n      add\n        /* \"#utility.yul\":6785:6818   */\n      calldataload\n        /* \"#utility.yul\":6779:6782   */\n      0x80\n        /* \"#utility.yul\":6772:6777   */\n      dup4\n        /* \"#utility.yul\":6768:6783   */\n      add\n        /* \"#utility.yul\":6761:6819   */\n      mstore\n        /* \"#utility.yul\":6880:6883   */\n      0xa0\n        /* \"#utility.yul\":6869:6878   */\n      dup9\n        /* \"#utility.yul\":6865:6884   */\n      add\n        /* \"#utility.yul\":6852:6885   */\n      calldataload\n        /* \"#utility.yul\":6846:6849   */\n      0xa0\n        /* \"#utility.yul\":6839:6844   */\n      dup4\n        /* \"#utility.yul\":6835:6850   */\n      add\n        /* \"#utility.yul\":6828:6886   */\n      mstore\n        /* \"#utility.yul\":6947:6950   */\n      0xc0\n        /* \"#utility.yul\":6936:6945   */\n      dup9\n        /* \"#utility.yul\":6932:6951   */\n      add\n        /* \"#utility.yul\":6919:6952   */\n      calldataload\n        /* \"#utility.yul\":6913:6916   */\n      0xc0\n        /* \"#utility.yul\":6906:6911   */\n      dup4\n        /* \"#utility.yul\":6902:6917   */\n      add\n        /* \"#utility.yul\":6895:6953   */\n      mstore\n        /* \"#utility.yul\":7014:7017   */\n      0xe0\n        /* \"#utility.yul\":7003:7012   */\n      dup9\n        /* \"#utility.yul\":6999:7018   */\n      add\n        /* \"#utility.yul\":6986:7019   */\n      calldataload\n        /* \"#utility.yul\":6980:6983   */\n      0xe0\n        /* \"#utility.yul\":6973:6978   */\n      dup4\n        /* \"#utility.yul\":6969:6984   */\n      add\n        /* \"#utility.yul\":6962:7020   */\n      mstore\n        /* \"#utility.yul\":7039:7042   */\n      0x0100\n        /* \"#utility.yul\":7102:7104   */\n      dup1\n        /* \"#utility.yul\":7091:7100   */\n      dup10\n        /* \"#utility.yul\":7087:7105   */\n      add\n        /* \"#utility.yul\":7074:7106   */\n      calldataload\n        /* \"#utility.yul\":7069:7071   */\n      dup2\n        /* \"#utility.yul\":7062:7067   */\n      dup5\n        /* \"#utility.yul\":7058:7072   */\n      add\n        /* \"#utility.yul\":7051:7107   */\n      mstore\n      pop\n        /* \"#utility.yul\":7126:7129   */\n      0x0120\n        /* \"#utility.yul\":7189:7191   */\n      dup1\n        /* \"#utility.yul\":7178:7187   */\n      dup10\n        /* \"#utility.yul\":7174:7192   */\n      add\n        /* \"#utility.yul\":7161:7193   */\n      calldataload\n        /* \"#utility.yul\":7156:7158   */\n      dup2\n        /* \"#utility.yul\":7149:7154   */\n      dup5\n        /* \"#utility.yul\":7145:7159   */\n      add\n        /* \"#utility.yul\":7138:7194   */\n      mstore\n      pop\n        /* \"#utility.yul\":7213:7216   */\n      0x0140\n        /* \"#utility.yul\":7276:7278   */\n      dup1\n        /* \"#utility.yul\":7265:7274   */\n      dup10\n        /* \"#utility.yul\":7261:7279   */\n      add\n        /* \"#utility.yul\":7248:7280   */\n      calldataload\n        /* \"#utility.yul\":7243:7245   */\n      dup2\n        /* \"#utility.yul\":7236:7241   */\n      dup5\n        /* \"#utility.yul\":7232:7246   */\n      add\n        /* \"#utility.yul\":7225:7281   */\n      mstore\n      pop\n        /* \"#utility.yul\":7300:7305   */\n      dup2\n        /* \"#utility.yul\":7290:7305   */\n      swap7\n      pop\n        /* \"#utility.yul\":7324:7380   */\n      tag_357\n        /* \"#utility.yul\":7372:7379   */\n      dup10\n        /* \"#utility.yul\":7367:7369   */\n      dup3\n        /* \"#utility.yul\":7356:7365   */\n      dup11\n        /* \"#utility.yul\":7352:7370   */\n      add\n        /* \"#utility.yul\":7324:7380   */\n      tag_274\n      jump\t// in\n    tag_357:\n        /* \"#utility.yul\":7314:7380   */\n      swap6\n      pop\n      pop\n      pop\n        /* \"#utility.yul\":7399:7454   */\n      tag_358\n        /* \"#utility.yul\":7446:7453   */\n      dup8\n        /* \"#utility.yul\":7440:7443   */\n      0x01c0\n        /* \"#utility.yul\":7429:7438   */\n      dup9\n        /* \"#utility.yul\":7425:7444   */\n      add\n        /* \"#utility.yul\":7399:7454   */\n      tag_276\n      jump\t// in\n    tag_358:\n        /* \"#utility.yul\":7389:7454   */\n      swap3\n      pop\n        /* \"#utility.yul\":7473:7530   */\n      tag_359\n        /* \"#utility.yul\":7522:7529   */\n      dup8\n        /* \"#utility.yul\":7516:7519   */\n      0x0280\n        /* \"#utility.yul\":7505:7514   */\n      dup9\n        /* \"#utility.yul\":7501:7520   */\n      add\n        /* \"#utility.yul\":7473:7530   */\n      tag_277\n      jump\t// in\n    tag_359:\n        /* \"#utility.yul\":7463:7530   */\n      swap2\n      pop\n        /* \"#utility.yul\":7581:7584   */\n      0x02c0\n        /* \"#utility.yul\":7570:7579   */\n      dup7\n        /* \"#utility.yul\":7566:7585   */\n      add\n        /* \"#utility.yul\":7553:7586   */\n      calldataload\n        /* \"#utility.yul\":7609:7627   */\n      0xffffffffffffffff\n        /* \"#utility.yul\":7601:7607   */\n      dup2\n        /* \"#utility.yul\":7598:7628   */\n      gt\n        /* \"#utility.yul\":7595:7645   */\n      iszero\n      tag_360\n      jumpi\n        /* \"#utility.yul\":7641:7642   */\n      0x00\n        /* \"#utility.yul\":7638:7639   */\n      dup1\n        /* \"#utility.yul\":7631:7643   */\n      revert\n        /* \"#utility.yul\":7595:7645   */\n    tag_360:\n        /* \"#utility.yul\":7664:7726   */\n      tag_361\n        /* \"#utility.yul\":7718:7725   */\n      dup9\n        /* \"#utility.yul\":7709:7715   */\n      dup3\n        /* \"#utility.yul\":7698:7707   */\n      dup10\n        /* \"#utility.yul\":7694:7716   */\n      add\n        /* \"#utility.yul\":7664:7726   */\n      tag_279\n      jump\t// in\n    tag_361:\n        /* \"#utility.yul\":7654:7726   */\n      swap2\n      pop\n      pop\n        /* \"#utility.yul\":6033:7732   */\n      swap3\n      swap6\n      pop\n      swap3\n      swap6\n      swap1\n      swap4\n      pop\n      jump\t// out\n        /* \"#utility.yul\":8146:8393   */\n    tag_53:\n        /* \"#utility.yul\":8205:8211   */\n      0x00\n        /* \"#utility.yul\":8258:8260   */\n      0x20\n        /* \"#utility.yul\":8246:8255   */\n      dup3\n        /* \"#utility.yul\":8237:8244   */\n      dup5\n        /* \"#utility.yul\":8233:8256   */\n      sub\n        /* \"#utility.yul\":8229:8261   */\n      slt\n        /* \"#utility.yul\":8226:8278   */\n      iszero\n      tag_365\n      jumpi\n        /* \"#utility.yul\":8274:8275   */\n      0x00\n        /* \"#utility.yul\":8271:8272   */\n      dup1\n        /* \"#utility.yul\":8264:8276   */\n      revert\n        /* \"#utility.yul\":8226:8278   */\n    tag_365:\n        /* \"#utility.yul\":8313:8322   */\n      dup2\n        /* \"#utility.yul\":8300:8323   */\n      calldataload\n        /* \"#utility.yul\":8332:8363   */\n      tag_366\n        /* \"#utility.yul\":8357:8362   */\n      dup2\n        /* \"#utility.yul\":8332:8363   */\n      tag_272\n      jump\t// in\n    tag_366:\n        /* \"#utility.yul\":8382:8387   */\n      swap4\n        /* \"#utility.yul\":8146:8393   */\n      swap3\n      pop\n      pop\n      pop\n      jump\t// out\n        /* \"#utility.yul\":8715:9392   */\n    tag_69:\n        /* \"#utility.yul\":8905:8907   */\n      0x20\n        /* \"#utility.yul\":8957:8978   */\n      dup1\n      dup3\n      mstore\n        /* \"#utility.yul\":9027:9040   */\n      dup3\n      mload\n        /* \"#utility.yul\":8930:8948   */\n      dup3\n      dup3\n      add\n        /* \"#utility.yul\":9049:9071   */\n      dup2\n      swap1\n      mstore\n        /* \"#utility.yul\":8876:8880   */\n      0x00\n      swap2\n        /* \"#utility.yul\":8905:8907   */\n      swap1\n        /* \"#utility.yul\":9128:9143   */\n      dup5\n      dup3\n      add\n      swap1\n        /* \"#utility.yul\":9102:9104   */\n      0x40\n        /* \"#utility.yul\":9087:9105   */\n      dup6\n      add\n      swap1\n        /* \"#utility.yul\":8876:8880   */\n      dup5\n        /* \"#utility.yul\":9171:9366   */\n    tag_370:\n        /* \"#utility.yul\":9185:9191   */\n      dup2\n        /* \"#utility.yul\":9182:9183   */\n      dup2\n        /* \"#utility.yul\":9179:9192   */\n      lt\n        /* \"#utility.yul\":9171:9366   */\n      iszero\n      tag_372\n      jumpi\n        /* \"#utility.yul\":9250:9263   */\n      dup4\n      mload\n      sub(shl(0xa0, 0x01), 0x01)\n        /* \"#utility.yul\":9246:9285   */\n      and\n        /* \"#utility.yul\":9234:9286   */\n      dup4\n      mstore\n        /* \"#utility.yul\":9341:9356   */\n      swap3\n      dup5\n      add\n      swap3\n        /* \"#utility.yul\":9306:9318   */\n      swap2\n      dup5\n      add\n      swap2\n        /* \"#utility.yul\":9282:9283   */\n      0x01\n        /* \"#utility.yul\":9200:9209   */\n      add\n        /* \"#utility.yul\":9171:9366   */\n      jump(tag_370)\n    tag_372:\n      pop\n        /* \"#utility.yul\":9383:9386   */\n      swap1\n      swap7\n        /* \"#utility.yul\":8715:9392   */\n      swap6\n      pop\n      pop\n      pop\n      pop\n      pop\n      pop\n      jump\t// out\n        /* \"#utility.yul\":9657:10578   */\n    tag_97:\n        /* \"#utility.yul\":9753:9759   */\n      0x00\n        /* \"#utility.yul\":9806:9809   */\n      0xe0\n        /* \"#utility.yul\":9794:9803   */\n      dup3\n        /* \"#utility.yul\":9785:9792   */\n      dup5\n        /* \"#utility.yul\":9781:9804   */\n      sub\n        /* \"#utility.yul\":9777:9810   */\n      slt\n        /* \"#utility.yul\":9774:9827   */\n      iszero\n      tag_377\n      jumpi\n        /* \"#utility.yul\":9823:9824   */\n      0x00\n        /* \"#utility.yul\":9820:9821   */\n      dup1\n        /* \"#utility.yul\":9813:9825   */\n      revert\n        /* \"#utility.yul\":9774:9827   */\n    tag_377:\n        /* \"#utility.yul\":9856:9858   */\n      0x40\n        /* \"#utility.yul\":9850:9859   */\n      mload\n        /* \"#utility.yul\":9898:9901   */\n      0xe0\n        /* \"#utility.yul\":9890:9896   */\n      dup2\n        /* \"#utility.yul\":9886:9902   */\n      add\n        /* \"#utility.yul\":9968:9974   */\n      dup2\n        /* \"#utility.yul\":9956:9966   */\n      dup2\n        /* \"#utility.yul\":9953:9975   */\n      lt\n        /* \"#utility.yul\":9932:9950   */\n      0xffffffffffffffff\n        /* \"#utility.yul\":9920:9930   */\n      dup3\n        /* \"#utility.yul\":9917:9951   */\n      gt\n        /* \"#utility.yul\":9914:9976   */\n      or\n        /* \"#utility.yul\":9911:9999   */\n      iszero\n      tag_379\n      jumpi\n        /* \"#utility.yul\":9979:9997   */\n      tag_379\n      tag_269\n      jump\t// in\n    tag_379:\n        /* \"#utility.yul\":10015:10017   */\n      0x40\n        /* \"#utility.yul\":10008:10030   */\n      mstore\n        /* \"#utility.yul\":10052:10075   */\n      dup3\n      calldataload\n        /* \"#utility.yul\":10084:10115   */\n      tag_380\n        /* \"#utility.yul\":10052:10075   */\n      dup2\n        /* \"#utility.yul\":10084:10115   */\n      tag_272\n      jump\t// in\n    tag_380:\n        /* \"#utility.yul\":10139:10144   */\n      dup1\n        /* \"#utility.yul\":10131:10137   */\n      dup3\n        /* \"#utility.yul\":10124:10145   */\n      mstore\n      pop\n        /* \"#utility.yul\":10206:10208   */\n      0x20\n        /* \"#utility.yul\":10195:10204   */\n      dup4\n        /* \"#utility.yul\":10191:10209   */\n      add\n        /* \"#utility.yul\":10178:10210   */\n      calldataload\n        /* \"#utility.yul\":10173:10175   */\n      0x20\n        /* \"#utility.yul\":10165:10171   */\n      dup3\n        /* \"#utility.yul\":10161:10176   */\n      add\n        /* \"#utility.yul\":10154:10211   */\n      mstore\n        /* \"#utility.yul\":10272:10274   */\n      0x40\n        /* \"#utility.yul\":10261:10270   */\n      dup4\n        /* \"#utility.yul\":10257:10275   */\n      add\n        /* \"#utility.yul\":10244:10276   */\n      calldataload\n        /* \"#utility.yul\":10239:10241   */\n      0x40\n        /* \"#utility.yul\":10231:10237   */\n      dup3\n        /* \"#utility.yul\":10227:10242   */\n      add\n        /* \"#utility.yul\":10220:10277   */\n      mstore\n        /* \"#utility.yul\":10338:10340   */\n      0x60\n        /* \"#utility.yul\":10327:10336   */\n      dup4\n        /* \"#utility.yul\":10323:10341   */\n      add\n        /* \"#utility.yul\":10310:10342   */\n      calldataload\n        /* \"#utility.yul\":10305:10307   */\n      0x60\n        /* \"#utility.yul\":10297:10303   */\n      dup3\n        /* \"#utility.yul\":10293:10308   */\n      add\n        /* \"#utility.yul\":10286:10343   */\n      mstore\n        /* \"#utility.yul\":10405:10408   */\n      0x80\n        /* \"#utility.yul\":10394:10403   */\n      dup4\n        /* \"#utility.yul\":10390:10409   */\n      add\n        /* \"#utility.yul\":10377:10410   */\n      calldataload\n        /* \"#utility.yul\":10371:10374   */\n      0x80\n        /* \"#utility.yul\":10363:10369   */\n      dup3\n        /* \"#utility.yul\":10359:10375   */\n      add\n        /* \"#utility.yul\":10352:10411   */\n      mstore\n        /* \"#utility.yul\":10473:10476   */\n      0xa0\n        /* \"#utility.yul\":10462:10471   */\n      dup4\n        /* \"#utility.yul\":10458:10477   */\n      add\n        /* \"#utility.yul\":10445:10478   */\n      calldataload\n        /* \"#utility.yul\":10439:10442   */\n      0xa0\n        /* \"#utility.yul\":10431:10437   */\n      dup3\n        /* \"#utility.yul\":10427:10443   */\n      add\n        /* \"#utility.yul\":10420:10479   */\n      mstore\n        /* \"#utility.yul\":10541:10544   */\n      0xc0\n        /* \"#utility.yul\":10530:10539   */\n      dup4\n        /* \"#utility.yul\":10526:10545   */\n      add\n        /* \"#utility.yul\":10513:10546   */\n      calldataload\n        /* \"#utility.yul\":10507:10510   */\n      0xc0\n        /* \"#utility.yul\":10499:10505   */\n      dup3\n        /* \"#utility.yul\":10495:10511   */\n      add\n        /* \"#utility.yul\":10488:10547   */\n      mstore\n        /* \"#utility.yul\":10566:10572   */\n      dup1\n        /* \"#utility.yul\":10556:10572   */\n      swap2\n      pop\n      pop\n        /* \"#utility.yul\":9657:10578   */\n      swap3\n      swap2\n      pop\n      pop\n      jump\t// out\n        /* \"#utility.yul\":11836:12109   */\n    tag_140:\n        /* \"#utility.yul\":11904:11910   */\n      0x00\n        /* \"#utility.yul\":11957:11959   */\n      0x20\n        /* \"#utility.yul\":11945:11954   */\n      dup3\n        /* \"#utility.yul\":11936:11943   */\n      dup5\n        /* \"#utility.yul\":11932:11955   */\n      sub\n        /* \"#utility.yul\":11928:11960   */\n      slt\n        /* \"#utility.yul\":11925:11977   */\n      iszero\n      tag_386\n      jumpi\n        /* \"#utility.yul\":11973:11974   */\n      0x00\n        /* \"#utility.yul\":11970:11971   */\n      dup1\n        /* \"#utility.yul\":11963:11975   */\n      revert\n        /* \"#utility.yul\":11925:11977   */\n    tag_386:\n        /* \"#utility.yul\":12005:12014   */\n      dup2\n        /* \"#utility.yul\":11999:12015   */\n      mload\n        /* \"#utility.yul\":12055:12059   */\n      0xff\n        /* \"#utility.yul\":12048:12053   */\n      dup2\n        /* \"#utility.yul\":12044:12060   */\n      and\n        /* \"#utility.yul\":12037:12042   */\n      dup2\n        /* \"#utility.yul\":12034:12061   */\n      eq\n        /* \"#utility.yul\":12024:12079   */\n      tag_366\n      jumpi\n        /* \"#utility.yul\":12075:12076   */\n      0x00\n        /* \"#utility.yul\":12072:12073   */\n      dup1\n        /* \"#utility.yul\":12065:12077   */\n      revert\n        /* \"#utility.yul\":13316:13739   */\n    tag_285:\n        /* \"#utility.yul\":13358:13361   */\n      0x00\n        /* \"#utility.yul\":13396:13401   */\n      dup2\n        /* \"#utility.yul\":13390:13402   */\n      mload\n        /* \"#utility.yul\":13423:13429   */\n      dup1\n        /* \"#utility.yul\":13418:13421   */\n      dup5\n        /* \"#utility.yul\":13411:13430   */\n      mstore\n        /* \"#utility.yul\":13448:13449   */\n      0x00\n        /* \"#utility.yul\":13458:13620   */\n    tag_393:\n        /* \"#utility.yul\":13472:13478   */\n      dup2\n        /* \"#utility.yul\":13469:13470   */\n      dup2\n        /* \"#utility.yul\":13466:13479   */\n      lt\n        /* \"#utility.yul\":13458:13620   */\n      iszero\n      tag_395\n      jumpi\n        /* \"#utility.yul\":13534:13538   */\n      0x20\n        /* \"#utility.yul\":13590:13603   */\n      dup2\n      dup6\n      add\n        /* \"#utility.yul\":13586:13608   */\n      dup2\n      add\n        /* \"#utility.yul\":13580:13609   */\n      mload\n        /* \"#utility.yul\":13562:13573   */\n      dup7\n      dup4\n      add\n        /* \"#utility.yul\":13558:13578   */\n      dup3\n      add\n        /* \"#utility.yul\":13551:13610   */\n      mstore\n        /* \"#utility.yul\":13487:13499   */\n      add\n        /* \"#utility.yul\":13458:13620   */\n      jump(tag_393)\n    tag_395:\n        /* \"#utility.yul\":13462:13465   */\n      pop\n        /* \"#utility.yul\":13665:13666   */\n      0x00\n        /* \"#utility.yul\":13658:13662   */\n      0x20\n        /* \"#utility.yul\":13649:13655   */\n      dup3\n        /* \"#utility.yul\":13644:13647   */\n      dup7\n        /* \"#utility.yul\":13640:13656   */\n      add\n        /* \"#utility.yul\":13636:13663   */\n      add\n        /* \"#utility.yul\":13629:13667   */\n      mstore\n        /* \"#utility.yul\":13728:13732   */\n      0x20\n        /* \"#utility.yul\":13721:13723   */\n      0x1f\n        /* \"#utility.yul\":13717:13724   */\n      not\n        /* \"#utility.yul\":13712:13714   */\n      0x1f\n        /* \"#utility.yul\":13704:13710   */\n      dup4\n        /* \"#utility.yul\":13700:13715   */\n      add\n        /* \"#utility.yul\":13696:13725   */\n      and\n        /* \"#utility.yul\":13691:13694   */\n      dup6\n        /* \"#utility.yul\":13687:13726   */\n      add\n        /* \"#utility.yul\":13683:13733   */\n      add\n        /* \"#utility.yul\":13676:13733   */\n      swap2\n      pop\n      pop\n        /* \"#utility.yul\":13316:13739   */\n      swap3\n      swap2\n      pop\n      pop\n      jump\t// out\n        /* \"#utility.yul\":13744:15503   */\n    tag_286:\n        /* \"#utility.yul\":13798:13801   */\n      0x00\n        /* \"#utility.yul\":13826:13832   */\n      0x0140\n        /* \"#utility.yul\":13867:13872   */\n      dup3\n        /* \"#utility.yul\":13861:13873   */\n      mload\n        /* \"#utility.yul\":13894:13896   */\n      dup2\n        /* \"#utility.yul\":13889:13892   */\n      dup6\n        /* \"#utility.yul\":13882:13897   */\n      mstore\n        /* \"#utility.yul\":13918:13963   */\n      tag_397\n        /* \"#utility.yul\":13959:13961   */\n      dup3\n        /* \"#utility.yul\":13954:13957   */\n      dup7\n        /* \"#utility.yul\":13950:13962   */\n      add\n        /* \"#utility.yul\":13936:13948   */\n      dup3\n        /* \"#utility.yul\":13918:13963   */\n      tag_285\n      jump\t// in\n    tag_397:\n        /* \"#utility.yul\":13906:13963   */\n      swap2\n      pop\n      pop\n        /* \"#utility.yul\":14011:14015   */\n      0x20\n        /* \"#utility.yul\":14004:14009   */\n      dup4\n        /* \"#utility.yul\":14000:14016   */\n      add\n        /* \"#utility.yul\":13994:14017   */\n      mload\n        /* \"#utility.yul\":14059:14062   */\n      dup5\n        /* \"#utility.yul\":14053:14057   */\n      dup3\n        /* \"#utility.yul\":14049:14063   */\n      sub\n        /* \"#utility.yul\":14042:14046   */\n      0x20\n        /* \"#utility.yul\":14037:14040   */\n      dup7\n        /* \"#utility.yul\":14033:14047   */\n      add\n        /* \"#utility.yul\":14026:14064   */\n      mstore\n        /* \"#utility.yul\":14087:14126   */\n      tag_398\n        /* \"#utility.yul\":14121:14125   */\n      dup3\n        /* \"#utility.yul\":14105:14119   */\n      dup3\n        /* \"#utility.yul\":14087:14126   */\n      tag_285\n      jump\t// in\n    tag_398:\n        /* \"#utility.yul\":14073:14126   */\n      swap2\n      pop\n      pop\n        /* \"#utility.yul\":14174:14178   */\n      0x40\n        /* \"#utility.yul\":14167:14172   */\n      dup4\n        /* \"#utility.yul\":14163:14179   */\n      add\n        /* \"#utility.yul\":14157:14180   */\n      mload\n        /* \"#utility.yul\":14224:14227   */\n      dup5\n        /* \"#utility.yul\":14216:14222   */\n      dup3\n        /* \"#utility.yul\":14212:14228   */\n      sub\n        /* \"#utility.yul\":14205:14209   */\n      0x40\n        /* \"#utility.yul\":14200:14203   */\n      dup7\n        /* \"#utility.yul\":14196:14210   */\n      add\n        /* \"#utility.yul\":14189:14229   */\n      mstore\n        /* \"#utility.yul\":14252:14293   */\n      tag_399\n        /* \"#utility.yul\":14286:14292   */\n      dup3\n        /* \"#utility.yul\":14270:14284   */\n      dup3\n        /* \"#utility.yul\":14252:14293   */\n      tag_285\n      jump\t// in\n    tag_399:\n        /* \"#utility.yul\":14238:14293   */\n      swap2\n      pop\n      pop\n        /* \"#utility.yul\":14341:14345   */\n      0x60\n        /* \"#utility.yul\":14334:14339   */\n      dup4\n        /* \"#utility.yul\":14330:14346   */\n      add\n        /* \"#utility.yul\":14324:14347   */\n      mload\n        /* \"#utility.yul\":14391:14394   */\n      dup5\n        /* \"#utility.yul\":14383:14389   */\n      dup3\n        /* \"#utility.yul\":14379:14395   */\n      sub\n        /* \"#utility.yul\":14372:14376   */\n      0x60\n        /* \"#utility.yul\":14367:14370   */\n      dup7\n        /* \"#utility.yul\":14363:14377   */\n      add\n        /* \"#utility.yul\":14356:14396   */\n      mstore\n        /* \"#utility.yul\":14419:14460   */\n      tag_400\n        /* \"#utility.yul\":14453:14459   */\n      dup3\n        /* \"#utility.yul\":14437:14451   */\n      dup3\n        /* \"#utility.yul\":14419:14460   */\n      tag_285\n      jump\t// in\n    tag_400:\n        /* \"#utility.yul\":14405:14460   */\n      swap2\n      pop\n      pop\n        /* \"#utility.yul\":14508:14512   */\n      0x80\n        /* \"#utility.yul\":14501:14506   */\n      dup4\n        /* \"#utility.yul\":14497:14513   */\n      add\n        /* \"#utility.yul\":14491:14514   */\n      mload\n        /* \"#utility.yul\":14558:14561   */\n      dup5\n        /* \"#utility.yul\":14550:14556   */\n      dup3\n        /* \"#utility.yul\":14546:14562   */\n      sub\n        /* \"#utility.yul\":14539:14543   */\n      0x80\n        /* \"#utility.yul\":14534:14537   */\n      dup7\n        /* \"#utility.yul\":14530:14544   */\n      add\n        /* \"#utility.yul\":14523:14563   */\n      mstore\n        /* \"#utility.yul\":14586:14627   */\n      tag_401\n        /* \"#utility.yul\":14620:14626   */\n      dup3\n        /* \"#utility.yul\":14604:14618   */\n      dup3\n        /* \"#utility.yul\":14586:14627   */\n      tag_285\n      jump\t// in\n    tag_401:\n        /* \"#utility.yul\":14572:14627   */\n      swap2\n      pop\n      pop\n        /* \"#utility.yul\":14675:14679   */\n      0xa0\n        /* \"#utility.yul\":14668:14673   */\n      dup4\n        /* \"#utility.yul\":14664:14680   */\n      add\n        /* \"#utility.yul\":14658:14681   */\n      mload\n        /* \"#utility.yul\":14725:14728   */\n      dup5\n        /* \"#utility.yul\":14717:14723   */\n      dup3\n        /* \"#utility.yul\":14713:14729   */\n      sub\n        /* \"#utility.yul\":14706:14710   */\n      0xa0\n        /* \"#utility.yul\":14701:14704   */\n      dup7\n        /* \"#utility.yul\":14697:14711   */\n      add\n        /* \"#utility.yul\":14690:14730   */\n      mstore\n        /* \"#utility.yul\":14753:14794   */\n      tag_402\n        /* \"#utility.yul\":14787:14793   */\n      dup3\n        /* \"#utility.yul\":14771:14785   */\n      dup3\n        /* \"#utility.yul\":14753:14794   */\n      tag_285\n      jump\t// in\n    tag_402:\n        /* \"#utility.yul\":14739:14794   */\n      swap2\n      pop\n      pop\n        /* \"#utility.yul\":14842:14846   */\n      0xc0\n        /* \"#utility.yul\":14835:14840   */\n      dup4\n        /* \"#utility.yul\":14831:14847   */\n      add\n        /* \"#utility.yul\":14825:14848   */\n      mload\n        /* \"#utility.yul\":14892:14895   */\n      dup5\n        /* \"#utility.yul\":14884:14890   */\n      dup3\n        /* \"#utility.yul\":14880:14896   */\n      sub\n        /* \"#utility.yul\":14873:14877   */\n      0xc0\n        /* \"#utility.yul\":14868:14871   */\n      dup7\n        /* \"#utility.yul\":14864:14878   */\n      add\n        /* \"#utility.yul\":14857:14897   */\n      mstore\n        /* \"#utility.yul\":14920:14961   */\n      tag_403\n        /* \"#utility.yul\":14954:14960   */\n      dup3\n        /* \"#utility.yul\":14938:14952   */\n      dup3\n        /* \"#utility.yul\":14920:14961   */\n      tag_285\n      jump\t// in\n    tag_403:\n        /* \"#utility.yul\":14906:14961   */\n      swap2\n      pop\n      pop\n        /* \"#utility.yul\":15009:15013   */\n      0xe0\n        /* \"#utility.yul\":15002:15007   */\n      dup4\n        /* \"#utility.yul\":14998:15014   */\n      add\n        /* \"#utility.yul\":14992:15015   */\n      mload\n        /* \"#utility.yul\":15059:15062   */\n      dup5\n        /* \"#utility.yul\":15051:15057   */\n      dup3\n        /* \"#utility.yul\":15047:15063   */\n      sub\n        /* \"#utility.yul\":15040:15044   */\n      0xe0\n        /* \"#utility.yul\":15035:15038   */\n      dup7\n        /* \"#utility.yul\":15031:15045   */\n      add\n        /* \"#utility.yul\":15024:15064   */\n      mstore\n        /* \"#utility.yul\":15087:15128   */\n      tag_404\n        /* \"#utility.yul\":15121:15127   */\n      dup3\n        /* \"#utility.yul\":15105:15119   */\n      dup3\n        /* \"#utility.yul\":15087:15128   */\n      tag_285\n      jump\t// in\n    tag_404:\n        /* \"#utility.yul\":15073:15128   */\n      swap2\n      pop\n      pop\n        /* \"#utility.yul\":15147:15153   */\n      0x0100\n        /* \"#utility.yul\":15201:15203   */\n      dup1\n        /* \"#utility.yul\":15194:15199   */\n      dup5\n        /* \"#utility.yul\":15190:15204   */\n      add\n        /* \"#utility.yul\":15184:15205   */\n      mload\n        /* \"#utility.yul\":15247:15250   */\n      dup6\n        /* \"#utility.yul\":15239:15245   */\n      dup4\n        /* \"#utility.yul\":15235:15251   */\n      sub\n        /* \"#utility.yul\":15230:15232   */\n      dup3\n        /* \"#utility.yul\":15225:15228   */\n      dup8\n        /* \"#utility.yul\":15221:15233   */\n      add\n        /* \"#utility.yul\":15214:15252   */\n      mstore\n        /* \"#utility.yul\":15275:15316   */\n      tag_405\n        /* \"#utility.yul\":15309:15315   */\n      dup4\n        /* \"#utility.yul\":15293:15307   */\n      dup3\n        /* \"#utility.yul\":15275:15316   */\n      tag_285\n      jump\t// in\n    tag_405:\n        /* \"#utility.yul\":15261:15316   */\n      swap3\n      pop\n      pop\n      pop\n        /* \"#utility.yul\":15335:15341   */\n      0x0120\n        /* \"#utility.yul\":15389:15391   */\n      dup1\n        /* \"#utility.yul\":15382:15387   */\n      dup5\n        /* \"#utility.yul\":15378:15392   */\n      add\n        /* \"#utility.yul\":15372:15393   */\n      mload\n        /* \"#utility.yul\":15435:15438   */\n      dup6\n        /* \"#utility.yul\":15427:15433   */\n      dup4\n        /* \"#utility.yul\":15423:15439   */\n      sub\n        /* \"#utility.yul\":15418:15420   */\n      dup3\n        /* \"#utility.yul\":15413:15416   */\n      dup8\n        /* \"#utility.yul\":15409:15421   */\n      add\n        /* \"#utility.yul\":15402:15440   */\n      mstore\n        /* \"#utility.yul\":15456:15497   */\n      tag_406\n        /* \"#utility.yul\":15490:15496   */\n      dup4\n        /* \"#utility.yul\":15474:15488   */\n      dup3\n        /* \"#utility.yul\":15456:15497   */\n      tag_285\n      jump\t// in\n    tag_406:\n        /* \"#utility.yul\":15449:15497   */\n      swap7\n        /* \"#utility.yul\":13744:15503   */\n      swap6\n      pop\n      pop\n      pop\n      pop\n      pop\n      pop\n      jump\t// out\n        /* \"#utility.yul\":15508:17440   */\n    tag_145:\n        /* \"#utility.yul\":16198:16211   */\n      dup9\n      mload\n      sub(shl(0xa0, 0x01), 0x01)\n        /* \"#utility.yul\":8464:8495   */\n      and\n        /* \"#utility.yul\":8452:8496   */\n      dup2\n      mstore\n        /* \"#utility.yul\":16138:16142   */\n      0x00\n        /* \"#utility.yul\":16167:16170   */\n      0x03a0\n        /* \"#utility.yul\":16270:16274   */\n      0x20\n        /* \"#utility.yul\":16262:16268   */\n      dup12\n        /* \"#utility.yul\":16258:16275   */\n      add\n        /* \"#utility.yul\":16252:16276   */\n      mload\n        /* \"#utility.yul\":16285:16339   */\n      tag_409\n        /* \"#utility.yul\":16333:16337   */\n      0x20\n        /* \"#utility.yul\":16322:16331   */\n      dup6\n        /* \"#utility.yul\":16318:16338   */\n      add\n        /* \"#utility.yul\":16304:16316   */\n      dup3\n      sub(shl(0xa0, 0x01), 0x01)\n        /* \"#utility.yul\":8464:8495   */\n      and\n        /* \"#utility.yul\":8452:8496   */\n      swap1\n      mstore\n        /* \"#utility.yul\":8398:8502   */\n      jump\n        /* \"#utility.yul\":16285:16339   */\n    tag_409:\n      pop\n        /* \"#utility.yul\":16395:16399   */\n      0x40\n        /* \"#utility.yul\":16383:16400   */\n      dup12\n      dup2\n      add\n        /* \"#utility.yul\":16377:16401   */\n      mload\n        /* \"#utility.yul\":16355:16375   */\n      dup5\n      dup3\n      add\n        /* \"#utility.yul\":16348:16402   */\n      mstore\n        /* \"#utility.yul\":16458:16462   */\n      0x60\n        /* \"#utility.yul\":16446:16463   */\n      dup1\n      dup14\n      add\n        /* \"#utility.yul\":16440:16464   */\n      mload\n        /* \"#utility.yul\":16418:16438   */\n      swap1\n      dup6\n      add\n        /* \"#utility.yul\":16411:16465   */\n      mstore\n        /* \"#utility.yul\":16521:16525   */\n      0x80\n        /* \"#utility.yul\":16509:16526   */\n      dup1\n      dup14\n      add\n        /* \"#utility.yul\":16503:16527   */\n      mload\n        /* \"#utility.yul\":16481:16501   */\n      swap1\n      dup6\n      add\n        /* \"#utility.yul\":16474:16528   */\n      mstore\n        /* \"#utility.yul\":16584:16588   */\n      0xa0\n        /* \"#utility.yul\":16572:16589   */\n      dup1\n      dup14\n      add\n        /* \"#utility.yul\":16566:16590   */\n      mload\n        /* \"#utility.yul\":16544:16564   */\n      swap1\n      dup6\n      add\n        /* \"#utility.yul\":16537:16591   */\n      mstore\n        /* \"#utility.yul\":16647:16651   */\n      0xc0\n        /* \"#utility.yul\":16635:16652   */\n      dup1\n      dup14\n      add\n        /* \"#utility.yul\":16629:16653   */\n      mload\n        /* \"#utility.yul\":16607:16627   */\n      swap1\n      dup6\n      add\n        /* \"#utility.yul\":16600:16654   */\n      mstore\n        /* \"#utility.yul\":16710:16714   */\n      0xe0\n        /* \"#utility.yul\":16698:16715   */\n      dup1\n      dup14\n      add\n        /* \"#utility.yul\":16692:16716   */\n      mload\n        /* \"#utility.yul\":16670:16690   */\n      swap1\n      dup6\n      add\n        /* \"#utility.yul\":16663:16717   */\n      mstore\n        /* \"#utility.yul\":16736:16742   */\n      0x0100\n        /* \"#utility.yul\":16784:16799   */\n      dup1\n      dup14\n      add\n        /* \"#utility.yul\":16778:16800   */\n      mload\n        /* \"#utility.yul\":16758:16776   */\n      swap1\n      dup6\n      add\n        /* \"#utility.yul\":16751:16801   */\n      mstore\n        /* \"#utility.yul\":16820:16826   */\n      0x0120\n        /* \"#utility.yul\":16868:16883   */\n      dup1\n      dup14\n      add\n        /* \"#utility.yul\":16862:16884   */\n      mload\n        /* \"#utility.yul\":16842:16860   */\n      swap1\n      dup6\n      add\n        /* \"#utility.yul\":16835:16885   */\n      mstore\n        /* \"#utility.yul\":16904:16910   */\n      0x0140\n        /* \"#utility.yul\":16952:16967   */\n      dup1\n      dup14\n      add\n        /* \"#utility.yul\":16946:16968   */\n      mload\n        /* \"#utility.yul\":16926:16944   */\n      swap1\n      dup6\n      add\n        /* \"#utility.yul\":16919:16969   */\n      mstore\n        /* \"#utility.yul\":12189:12201   */\n      dup11\n      mload\n        /* \"#utility.yul\":17029:17032   */\n      0x0160\n        /* \"#utility.yul\":17014:17033   */\n      dup6\n      add\n        /* \"#utility.yul\":12177:12202   */\n      mstore\n        /* \"#utility.yul\":12251:12255   */\n      0x20\n        /* \"#utility.yul\":12240:12256   */\n      dup12\n      add\n        /* \"#utility.yul\":12234:12257   */\n      mload\n        /* \"#utility.yul\":12218:12232   */\n      0x0180\n      dup6\n      add\n        /* \"#utility.yul\":12211:12258   */\n      mstore\n        /* \"#utility.yul\":12296:12312   */\n      dup11\n      add\n        /* \"#utility.yul\":12290:12313   */\n      mload\n        /* \"#utility.yul\":12274:12288   */\n      0x01a0\n      dup5\n      add\n        /* \"#utility.yul\":12267:12314   */\n      mstore\n        /* \"#utility.yul\":12412:12424   */\n      dup9\n      mload\n        /* \"#utility.yul\":12405:12425   */\n      iszero\n        /* \"#utility.yul\":12398:12426   */\n      iszero\n        /* \"#utility.yul\":17092:17095   */\n      0x01c0\n        /* \"#utility.yul\":17077:17096   */\n      dup5\n      add\n        /* \"#utility.yul\":12386:12427   */\n      mstore\n        /* \"#utility.yul\":12473:12477   */\n      0x20\n        /* \"#utility.yul\":12462:12478   */\n      dup10\n      add\n        /* \"#utility.yul\":12456:12479   */\n      mload\n      sub(shl(0xa0, 0x01), 0x01)\n        /* \"#utility.yul\":12549:12570   */\n      swap1\n      dup2\n      and\n        /* \"#utility.yul\":12533:12547   */\n      0x01e0\n      dup6\n      add\n        /* \"#utility.yul\":12526:12571   */\n      mstore\n        /* \"#utility.yul\":12624:12628   */\n      0x40\n        /* \"#utility.yul\":12613:12629   */\n      dup11\n      add\n        /* \"#utility.yul\":12607:12630   */\n      mload\n        /* \"#utility.yul\":12603:12635   */\n      and\n        /* \"#utility.yul\":12587:12601   */\n      0x0200\n      dup5\n      add\n        /* \"#utility.yul\":12580:12636   */\n      mstore\n        /* \"#utility.yul\":12685:12689   */\n      0x60\n        /* \"#utility.yul\":12674:12690   */\n      dup10\n      add\n        /* \"#utility.yul\":12668:12691   */\n      mload\n        /* \"#utility.yul\":12652:12666   */\n      0x0220\n      dup5\n      add\n        /* \"#utility.yul\":12645:12692   */\n      mstore\n        /* \"#utility.yul\":12741:12745   */\n      0x80\n        /* \"#utility.yul\":12730:12746   */\n      dup10\n      add\n        /* \"#utility.yul\":12724:12747   */\n      mload\n        /* \"#utility.yul\":12708:12722   */\n      0x0240\n      dup5\n      add\n        /* \"#utility.yul\":12701:12748   */\n      mstore\n        /* \"#utility.yul\":12506:12509   */\n      0xa0\n        /* \"#utility.yul\":12786:12802   */\n      dup10\n      add\n        /* \"#utility.yul\":12780:12803   */\n      mload\n        /* \"#utility.yul\":12764:12778   */\n      0x0260\n      dup5\n      add\n        /* \"#utility.yul\":12757:12804   */\n      mstore\n        /* \"#utility.yul\":12890:12902   */\n      dup8\n      mload\n        /* \"#utility.yul\":17157:17160   */\n      0x0280\n        /* \"#utility.yul\":17142:17161   */\n      dup5\n      add\n        /* \"#utility.yul\":12878:12903   */\n      mstore\n        /* \"#utility.yul\":12952:12956   */\n      0x20\n        /* \"#utility.yul\":12941:12957   */\n      dup9\n      add\n        /* \"#utility.yul\":12935:12958   */\n      mload\n        /* \"#utility.yul\":12919:12933   */\n      0x02a0\n      dup5\n      add\n        /* \"#utility.yul\":12912:12959   */\n      mstore\n        /* \"#utility.yul\":13092:13104   */\n      dup7\n      mload\n      sub(shl(0xa0, 0x01), 0x01)\n        /* \"#utility.yul\":13088:13109   */\n      swap1\n      dup2\n      and\n        /* \"#utility.yul\":17227:17230   */\n      0x02c0\n        /* \"#utility.yul\":17212:17231   */\n      dup6\n      add\n        /* \"#utility.yul\":13076:13110   */\n      mstore\n        /* \"#utility.yul\":13163:13167   */\n      0x20\n        /* \"#utility.yul\":13152:13168   */\n      dup9\n      add\n        /* \"#utility.yul\":13146:13169   */\n      mload\n        /* \"#utility.yul\":13142:13174   */\n      dup2\n      and\n        /* \"#utility.yul\":13126:13140   */\n      0x02e0\n      dup6\n      add\n        /* \"#utility.yul\":13119:13175   */\n      mstore\n        /* \"#utility.yul\":13228:13232   */\n      0x40\n        /* \"#utility.yul\":13217:13233   */\n      dup9\n      add\n        /* \"#utility.yul\":13211:13234   */\n      mload\n        /* \"#utility.yul\":13207:13239   */\n      dup2\n      and\n        /* \"#utility.yul\":13191:13205   */\n      0x0300\n      dup6\n      add\n        /* \"#utility.yul\":13184:13240   */\n      mstore\n        /* \"#utility.yul\":13293:13297   */\n      0x60\n        /* \"#utility.yul\":13282:13298   */\n      dup9\n      add\n        /* \"#utility.yul\":13276:13299   */\n      mload\n        /* \"#utility.yul\":13272:13304   */\n      and\n        /* \"#utility.yul\":13256:13270   */\n      0x0320\n      dup5\n      add\n        /* \"#utility.yul\":13249:13305   */\n      mstore\n        /* \"#utility.yul\":17269:17271   */\n      dup1\n        /* \"#utility.yul\":17263:17266   */\n      0x0340\n        /* \"#utility.yul\":17252:17261   */\n      dup5\n        /* \"#utility.yul\":17248:17267   */\n      add\n        /* \"#utility.yul\":17241:17272   */\n      mstore\n        /* \"#utility.yul\":17289:17346   */\n      tag_414\n        /* \"#utility.yul\":17342:17344   */\n      dup2\n        /* \"#utility.yul\":17331:17340   */\n      dup5\n        /* \"#utility.yul\":17327:17345   */\n      add\n        /* \"#utility.yul\":17319:17325   */\n      dup8\n        /* \"#utility.yul\":17289:17346   */\n      tag_286\n      jump\t// in\n    tag_414:\n        /* \"#utility.yul\":17377:17380   */\n      0x0360\n        /* \"#utility.yul\":17362:17381   */\n      dup5\n      add\n        /* \"#utility.yul\":17355:17390   */\n      swap6\n      swap1\n      swap6\n      mstore\n      pop\n      pop\n        /* \"#utility.yul\":17421:17424   */\n      0x0380\n        /* \"#utility.yul\":17406:17425   */\n      add\n        /* \"#utility.yul\":17399:17434   */\n      mstore\n        /* \"#utility.yul\":17281:17346   */\n      swap7\n        /* \"#utility.yul\":15508:17440   */\n      swap6\n      pop\n      pop\n      pop\n      pop\n      pop\n      pop\n      jump\t// out\n        /* \"#utility.yul\":17445:17629   */\n    tag_158:\n        /* \"#utility.yul\":17515:17521   */\n      0x00\n        /* \"#utility.yul\":17568:17570   */\n      0x20\n        /* \"#utility.yul\":17556:17565   */\n      dup3\n        /* \"#utility.yul\":17547:17554   */\n      dup5\n        /* \"#utility.yul\":17543:17566   */\n      sub\n        /* \"#utility.yul\":17539:17571   */\n      slt\n        /* \"#utility.yul\":17536:17588   */\n      iszero\n      tag_416\n      jumpi\n        /* \"#utility.yul\":17584:17585   */\n      0x00\n        /* \"#utility.yul\":17581:17582   */\n      dup1\n        /* \"#utility.yul\":17574:17586   */\n      revert\n        /* \"#utility.yul\":17536:17588   */\n    tag_416:\n      pop\n        /* \"#utility.yul\":17607:17623   */\n      mload\n      swap2\n        /* \"#utility.yul\":17445:17629   */\n      swap1\n      pop\n      jump\t// out\n        /* \"#utility.yul\":19137:19382   */\n    tag_177:\n        /* \"#utility.yul\":19204:19210   */\n      0x00\n        /* \"#utility.yul\":19257:19259   */\n      0x20\n        /* \"#utility.yul\":19245:19254   */\n      dup3\n        /* \"#utility.yul\":19236:19243   */\n      dup5\n        /* \"#utility.yul\":19232:19255   */\n      sub\n        /* \"#utility.yul\":19228:19260   */\n      slt\n        /* \"#utility.yul\":19225:19277   */\n      iszero\n      tag_422\n      jumpi\n        /* \"#utility.yul\":19273:19274   */\n      0x00\n        /* \"#utility.yul\":19270:19271   */\n      dup1\n        /* \"#utility.yul\":19263:19275   */\n      revert\n        /* \"#utility.yul\":19225:19277   */\n    tag_422:\n        /* \"#utility.yul\":19305:19314   */\n      dup2\n        /* \"#utility.yul\":19299:19315   */\n      mload\n        /* \"#utility.yul\":19324:19352   */\n      tag_366\n        /* \"#utility.yul\":19346:19351   */\n      dup2\n        /* \"#utility.yul\":19324:19352   */\n      tag_275\n      jump\t// in\n        /* \"#utility.yul\":19748:19875   */\n    tag_287:\n        /* \"#utility.yul\":19809:19819   */\n      0x4e487b71\n        /* \"#utility.yul\":19804:19807   */\n      0xe0\n        /* \"#utility.yul\":19800:19820   */\n      shl\n        /* \"#utility.yul\":19797:19798   */\n      0x00\n        /* \"#utility.yul\":19790:19821   */\n      mstore\n        /* \"#utility.yul\":19840:19844   */\n      0x11\n        /* \"#utility.yul\":19837:19838   */\n      0x04\n        /* \"#utility.yul\":19830:19845   */\n      mstore\n        /* \"#utility.yul\":19864:19868   */\n      0x24\n        /* \"#utility.yul\":19861:19862   */\n      0x00\n        /* \"#utility.yul\":19854:19869   */\n      revert\n        /* \"#utility.yul\":19880:20048   */\n    tag_187:\n        /* \"#utility.yul\":19953:19962   */\n      dup1\n      dup3\n      mul\n        /* \"#utility.yul\":19984:19993   */\n      dup2\n      iszero\n        /* \"#utility.yul\":20001:20016   */\n      dup3\n      dup3\n      div\n        /* \"#utility.yul\":19995:20017   */\n      dup5\n      eq\n        /* \"#utility.yul\":19981:20018   */\n      or\n        /* \"#utility.yul\":19971:20042   */\n      tag_258\n      jumpi\n        /* \"#utility.yul\":20022:20040   */\n      tag_258\n      tag_287\n      jump\t// in\n        /* \"#utility.yul\":20053:20475   */\n    tag_288:\n        /* \"#utility.yul\":20142:20143   */\n      0x01\n        /* \"#utility.yul\":20185:20190   */\n      dup2\n        /* \"#utility.yul\":20142:20143   */\n      dup2\n        /* \"#utility.yul\":20199:20469   */\n    tag_430:\n        /* \"#utility.yul\":20220:20227   */\n      dup1\n        /* \"#utility.yul\":20210:20218   */\n      dup6\n        /* \"#utility.yul\":20207:20228   */\n      gt\n        /* \"#utility.yul\":20199:20469   */\n      iszero\n      tag_432\n      jumpi\n        /* \"#utility.yul\":20279:20283   */\n      dup2\n        /* \"#utility.yul\":20275:20276   */\n      0x00\n        /* \"#utility.yul\":20271:20277   */\n      not\n        /* \"#utility.yul\":20267:20284   */\n      div\n        /* \"#utility.yul\":20261:20265   */\n      dup3\n        /* \"#utility.yul\":20258:20285   */\n      gt\n        /* \"#utility.yul\":20255:20308   */\n      iszero\n      tag_434\n      jumpi\n        /* \"#utility.yul\":20288:20306   */\n      tag_434\n      tag_287\n      jump\t// in\n    tag_434:\n        /* \"#utility.yul\":20338:20345   */\n      dup1\n        /* \"#utility.yul\":20328:20336   */\n      dup6\n        /* \"#utility.yul\":20324:20346   */\n      and\n        /* \"#utility.yul\":20321:20376   */\n      iszero\n      tag_435\n      jumpi\n        /* \"#utility.yul\":20358:20374   */\n      swap2\n      dup2\n      mul\n      swap2\n        /* \"#utility.yul\":20321:20376   */\n    tag_435:\n        /* \"#utility.yul\":20437:20459   */\n      swap4\n      dup5\n      shr\n      swap4\n        /* \"#utility.yul\":20397:20412   */\n      swap1\n      dup1\n      mul\n      swap1\n        /* \"#utility.yul\":20199:20469   */\n      jump(tag_430)\n    tag_432:\n        /* \"#utility.yul\":20203:20206   */\n      pop\n        /* \"#utility.yul\":20053:20475   */\n      swap3\n      pop\n      swap3\n      swap1\n      pop\n      jump\t// out\n        /* \"#utility.yul\":20480:21286   */\n    tag_289:\n        /* \"#utility.yul\":20529:20534   */\n      0x00\n        /* \"#utility.yul\":20559:20567   */\n      dup3\n        /* \"#utility.yul\":20549:20629   */\n      tag_437\n      jumpi\n      pop\n        /* \"#utility.yul\":20600:20601   */\n      0x01\n        /* \"#utility.yul\":20614:20619   */\n      jump(tag_258)\n        /* \"#utility.yul\":20549:20629   */\n    tag_437:\n        /* \"#utility.yul\":20648:20652   */\n      dup2\n        /* \"#utility.yul\":20638:20714   */\n      tag_438\n      jumpi\n      pop\n        /* \"#utility.yul\":20685:20686   */\n      0x00\n        /* \"#utility.yul\":20699:20704   */\n      jump(tag_258)\n        /* \"#utility.yul\":20638:20714   */\n    tag_438:\n        /* \"#utility.yul\":20730:20734   */\n      dup2\n        /* \"#utility.yul\":20748:20749   */\n      0x01\n        /* \"#utility.yul\":20743:20802   */\n      dup2\n      eq\n      tag_440\n      jumpi\n        /* \"#utility.yul\":20816:20817   */\n      0x02\n        /* \"#utility.yul\":20811:20941   */\n      dup2\n      eq\n      tag_441\n      jumpi\n        /* \"#utility.yul\":20723:20941   */\n      jump(tag_439)\n        /* \"#utility.yul\":20743:20802   */\n    tag_440:\n        /* \"#utility.yul\":20773:20774   */\n      0x01\n        /* \"#utility.yul\":20764:20774   */\n      swap2\n      pop\n        /* \"#utility.yul\":20787:20792   */\n      pop\n      jump(tag_258)\n        /* \"#utility.yul\":20811:20941   */\n    tag_441:\n        /* \"#utility.yul\":20848:20851   */\n      0xff\n        /* \"#utility.yul\":20838:20846   */\n      dup5\n        /* \"#utility.yul\":20835:20852   */\n      gt\n        /* \"#utility.yul\":20832:20875   */\n      iszero\n      tag_443\n      jumpi\n        /* \"#utility.yul\":20855:20873   */\n      tag_443\n      tag_287\n      jump\t// in\n    tag_443:\n      pop\n      pop\n        /* \"#utility.yul\":20911:20912   */\n      0x01\n        /* \"#utility.yul\":20897:20913   */\n      dup3\n      shl\n        /* \"#utility.yul\":20926:20931   */\n      jump(tag_258)\n        /* \"#utility.yul\":20723:20941   */\n    tag_439:\n      pop\n        /* \"#utility.yul\":21025:21027   */\n      0x20\n        /* \"#utility.yul\":21015:21023   */\n      dup4\n        /* \"#utility.yul\":21012:21028   */\n      lt\n        /* \"#utility.yul\":21006:21009   */\n      0x0133\n        /* \"#utility.yul\":21000:21004   */\n      dup4\n        /* \"#utility.yul\":20997:21010   */\n      lt\n        /* \"#utility.yul\":20993:21029   */\n      and\n        /* \"#utility.yul\":20987:20989   */\n      0x4e\n        /* \"#utility.yul\":20977:20985   */\n      dup5\n        /* \"#utility.yul\":20974:20990   */\n      lt\n        /* \"#utility.yul\":20969:20971   */\n      0x0b\n        /* \"#utility.yul\":20963:20967   */\n      dup5\n        /* \"#utility.yul\":20960:20972   */\n      lt\n        /* \"#utility.yul\":20956:20991   */\n      and\n        /* \"#utility.yul\":20953:21030   */\n      or\n        /* \"#utility.yul\":20950:21109   */\n      iszero\n      tag_444\n      jumpi\n      pop\n        /* \"#utility.yul\":21062:21081   */\n      dup2\n      dup2\n      exp\n        /* \"#utility.yul\":21094:21099   */\n      jump(tag_258)\n        /* \"#utility.yul\":20950:21109   */\n    tag_444:\n        /* \"#utility.yul\":21141:21175   */\n      tag_445\n        /* \"#utility.yul\":21166:21174   */\n      dup4\n        /* \"#utility.yul\":21160:21164   */\n      dup4\n        /* \"#utility.yul\":21141:21175   */\n      tag_288\n      jump\t// in\n    tag_445:\n        /* \"#utility.yul\":21211:21217   */\n      dup1\n        /* \"#utility.yul\":21207:21208   */\n      0x00\n        /* \"#utility.yul\":21203:21209   */\n      not\n        /* \"#utility.yul\":21199:21218   */\n      div\n        /* \"#utility.yul\":21190:21197   */\n      dup3\n        /* \"#utility.yul\":21187:21219   */\n      gt\n        /* \"#utility.yul\":21184:21242   */\n      iszero\n      tag_447\n      jumpi\n        /* \"#utility.yul\":21222:21240   */\n      tag_447\n      tag_287\n      jump\t// in\n    tag_447:\n        /* \"#utility.yul\":21260:21280   */\n      mul\n      swap4\n        /* \"#utility.yul\":20480:21286   */\n      swap3\n      pop\n      pop\n      pop\n      jump\t// out\n        /* \"#utility.yul\":21291:21422   */\n    tag_218:\n        /* \"#utility.yul\":21351:21356   */\n      0x00\n        /* \"#utility.yul\":21380:21416   */\n      tag_259\n        /* \"#utility.yul\":21407:21415   */\n      dup4\n        /* \"#utility.yul\":21401:21405   */\n      dup4\n        /* \"#utility.yul\":21380:21416   */\n      tag_289\n      jump\t// in\n        /* \"#utility.yul\":22546:22763   */\n    tag_262:\n        /* \"#utility.yul\":22586:22587   */\n      0x00\n        /* \"#utility.yul\":22612:22613   */\n      dup3\n        /* \"#utility.yul\":22602:22734   */\n      tag_454\n      jumpi\n        /* \"#utility.yul\":22656:22666   */\n      0x4e487b71\n        /* \"#utility.yul\":22651:22654   */\n      0xe0\n        /* \"#utility.yul\":22647:22667   */\n      shl\n        /* \"#utility.yul\":22644:22645   */\n      0x00\n        /* \"#utility.yul\":22637:22668   */\n      mstore\n        /* \"#utility.yul\":22691:22695   */\n      0x12\n        /* \"#utility.yul\":22688:22689   */\n      0x04\n        /* \"#utility.yul\":22681:22696   */\n      mstore\n        /* \"#utility.yul\":22719:22723   */\n      0x24\n        /* \"#utility.yul\":22716:22717   */\n      0x00\n        /* \"#utility.yul\":22709:22724   */\n      revert\n        /* \"#utility.yul\":22602:22734   */\n    tag_454:\n      pop\n        /* \"#utility.yul\":22748:22757   */\n      div\n      swap1\n        /* \"#utility.yul\":22546:22763   */\n      jump\t// out\n        /* \"#utility.yul\":22768:22896   */\n    tag_265:\n        /* \"#utility.yul\":22835:22844   */\n      dup2\n      dup2\n      sub\n        /* \"#utility.yul\":22856:22867   */\n      dup2\n      dup2\n      gt\n        /* \"#utility.yul\":22853:22890   */\n      iszero\n      tag_258\n      jumpi\n        /* \"#utility.yul\":22870:22888   */\n      tag_258\n      tag_287\n      jump\t// in\n        /* \"#utility.yul\":22901:23026   */\n    tag_268:\n        /* \"#utility.yul\":22966:22975   */\n      dup1\n      dup3\n      add\n        /* \"#utility.yul\":22987:22997   */\n      dup1\n      dup3\n      gt\n        /* \"#utility.yul\":22984:23020   */\n      iszero\n      tag_258\n      jumpi\n        /* \"#utility.yul\":23000:23018   */\n      tag_258\n      tag_287\n      jump\t// in\n\n    auxdata: 0xa264697066735822122077c58bec4371edbb1ba311619ca191bd1c075abd487966f34b7f599462cdfe1064736f6c63430008120033\n}\n",
				"bytecode": {
					"linkReferences": {},
					"object": "60806040526103e86002553480156200001757600080fd5b5060405162001ce738038062001ce78339810160408190526200003a9162000255565b6200004533620001ec565b6001600160a01b038316158015906200006757506001600160a01b0383163014155b620000b95760405162461bcd60e51b815260206004820152601c60248201527f4c61756368706164466163746f72793a207669727475616c4c6f636b0000000060448201526064015b60405180910390fd5b6001600160a01b03841615801590620000db57506001600160a01b0384163014155b620001295760405162461bcd60e51b815260206004820152601d60248201527f4c61756368706164466163746f72793a2073757065724163636f756e740000006044820152606401620000b0565b6001600160a01b038216158015906200014b57506001600160a01b0382163014155b620001995760405162461bcd60e51b815260206004820152601c60248201527f4c61756368706164466163746f72793a2066756e6441646472657373000000006044820152606401620000b0565b600380546001600160a01b03199081166001600160a01b039687161790915560058054821693861693909317909255600480548316938516939093179092556006805490911691909216179055620002bd565b600080546001600160a01b038381166001600160a01b0319831681178455604051919092169283917f8be0079c531659141344cd1fd0a4f28419497f9722a3daafe3b4186f6b6457e09190a35050565b6001600160a01b03811681146200025257600080fd5b50565b600080600080608085870312156200026c57600080fd5b845162000279816200023c565b60208601519094506200028c816200023c565b60408601519093506200029f816200023c565b6060860151909250620002b2816200023c565b939692955090935050565b611a1a80620002cd6000396000f3fe60806040526004361061012a5760003560e01c806385dc3004116100ab578063a96df7431161006f578063a96df7431461031b578063b6b7913e14610350578063c06ca1dd14610370578063d9eb594714610385578063e82bef291461039b578063f2fde38b146103bb57600080fd5b806385dc300414610287578063892f78fa146102a75780638a9b66cc146102c75780638da5cb5b146102dd5780639352dace146102fb57600080fd5b80635a416a36116100f25780635a416a36146101e55780635c60da1b14610205578063640f82f3146102255780636de944dc14610245578063715018a61461027257600080fd5b806323fa495a1461012f57806349a1f14b1461015157806351ae878f1461016457806353aca0781461018457806358e5bc88146101c1575b600080fd5b34801561013b57600080fd5b5061014f61014a366004610f3e565b6103db565b005b61014f61015f366004611352565b6103e8565b34801561017057600080fd5b5061014f61017f366004610f3e565b6109f7565b34801561019057600080fd5b506101a461019f366004610f3e565b610a10565b6040516001600160a01b0390911681526020015b60405180910390f35b3480156101cd57600080fd5b506101d761271081565b6040519081526020016101b8565b3480156101f157600080fd5b5061014f610200366004611469565b610a3a565b34801561021157600080fd5b506006546101a4906001600160a01b031681565b34801561023157600080fd5b506004546101a4906001600160a01b031681565b34801561025157600080fd5b50610265610260366004611469565b610a64565b6040516101b8919061148d565b34801561027e57600080fd5b5061014f610ada565b34801561029357600080fd5b5061014f6102a2366004611469565b610aee565b3480156102b357600080fd5b5061014f6102c2366004611469565b610b18565b3480156102d357600080fd5b506101d760025481565b3480156102e957600080fd5b506000546001600160a01b03166101a4565b34801561030757600080fd5b5061014f610316366004611469565b610b42565b34801561032757600080fd5b5061033b6103363660046114da565b610b6c565b604080519283526020830191909152016101b8565b34801561035c57600080fd5b506003546101a4906001600160a01b031681565b34801561037c57600080fd5b50610265610ce6565b34801561039157600080fd5b506101d760015481565b3480156103a757600080fd5b506005546101a4906001600160a01b031681565b3480156103c757600080fd5b5061014f6103d6366004611469565b610d48565b6103e3610dc1565b600155565b6003546001600160a01b03161580159061040c57506005546001600160a01b031615155b6104745760405162461bcd60e51b815260206004820152602e60248201527f4c61756368706164466163746f72793a2043616e206e6f74206372656174652060448201526d6c61756e6368706164206e6f772160901b60648201526084015b60405180910390fd5b6001543410156104c65760405162461bcd60e51b815260206004820181905260248201527f4c61756368706164466163746f72793a204e6f7420656e6f7567682066656521604482015260640161046b565b600060405180608001604052806104da3390565b6001600160a01b03908116825260035481166020808401919091526005548216604084015260045482166060909301929092528851918901519293509091601291161561058d5787602001516001600160a01b031663313ce5676040518163ffffffff1660e01b8152600401602060405180830381865afa158015610563573d6000803e3d6000fd5b505050506040513d601f19601f820116820180604052508101906105879190611567565b60ff1690505b6040805160e0810182526020808b01516001600160a01b031682526080808c0151828401526060808d015194840194909452908801518383015287518183015288015160a08201529087015160c08201526000806105ea83610b6c565b6006549193509150600090610607906001600160a01b0316610e1b565b9050806001600160a01b03166357801e6f8d8d8d8d8c8e896002546040518963ffffffff1660e01b81526004016106459897969594939291906116dd565b600060405180830381600087803b15801561065f57600080fd5b505af1158015610673573d6000803e3d6000fd5b5050505060003411156106bb576005546040516001600160a01b03909116903480156108fc02916000818181858888f193505050501580156106b9573d6000803e3d6000fd5b505b821561094c578b51836001600160a01b0382166370a08231336040516001600160e01b031960e084901b1681526001600160a01b039091166004820152602401602060405180830381865afa158015610718573d6000803e3d6000fd5b505050506040513d601f19601f8201168201806040525081019061073c9190611849565b10156107985760405162461bcd60e51b815260206004820152602560248201527f4c61756368706164466163746f72793a20496e73756666696369656e742042616044820152646c616e636560d81b606482015260840161046b565b836001600160a01b03821663dd62ed3e336040516001600160e01b031960e084901b1681526001600160a01b039091166004820152306024820152604401602060405180830381865afa1580156107f3573d6000803e3d6000fd5b505050506040513d601f19601f820116820180604052508101906108179190611849565b10156108755760405162461bcd60e51b815260206004820152602760248201527f4c61756368706164466163746f72793a20496e73756666696369656e7420416c6044820152666c6f77616e636560c81b606482015260840161046b565b6001600160a01b0387166323b872dd336040516001600160e01b031960e084901b1681526001600160a01b0391821660048201529085166024820152604481018790526064016020604051808303816000875af11580156108da573d6000803e3d6000fd5b505050506040513d601f19601f820116820180604052508101906108fe9190611862565b61094a5760405162461bcd60e51b815260206004820181905260248201527f4c61756368706164466163746f72793a207472616e73666572206661696c6564604482015260640161046b565b505b6007805460018181019092557fa66cc928b5edb82af9bd49922954155ab7b0942694bea4ce44661d9a8736c6880180546001600160a01b0384166001600160a01b0319918216811790925533600090815260086020908152604080832080549687018155835290822090940180549092168317909155915190917fda2d0d8f4060e08dd20f6fb6ad959f9920958220cc60733db44068db43a0260191a2505050505050505050505050565b6109ff610dc1565b610a0a816064611895565b60025550565b60078181548110610a2057600080fd5b6000918252602090912001546001600160a01b0316905081565b610a42610dc1565b600480546001600160a01b0319166001600160a01b0392909216919091179055565b6001600160a01b038116600090815260086020908152604091829020805483518184028101840190945280845260609392830182828015610ace57602002820191906000526020600020905b81546001600160a01b03168152600190910190602001808311610ab0575b50505050509050919050565b610ae2610dc1565b610aec6000610eb5565b565b610af6610dc1565b600580546001600160a01b0319166001600160a01b0392909216919091179055565b610b20610dc1565b600380546001600160a01b0319166001600160a01b0392909216919091179055565b610b4a610dc1565b600680546001600160a01b0319166001600160a01b0392909216919091179055565b805160009081906012906001600160a01b031615610bf05783600001516001600160a01b031663313ce5676040518163ffffffff1660e01b8152600401602060405180830381865afa158015610bc6573d6000803e3d6000fd5b505050506040513d601f19601f82011682018060405250810190610bea9190611567565b60ff1690505b6000610c19610c0083600a611990565b60408701516020880151610c1391610f05565b90610f1a565b90506000610c3a612710610c13886060015185610f0590919063ffffffff16565b90506000610c5f612710610c1389608001518a60400151610f0590919063ffffffff16565b90506000610c7a828960400151610f2690919063ffffffff16565b90506000610c9b612710610c138b60a0015185610f0590919063ffffffff16565b90506000610cbd610cad88600a611990565b60c08c0151610c13908590610f05565b90506000610cd582610ccf8989610f32565b90610f32565b9b919a509098505050505050505050565b60606007805480602002602001604051908101604052809291908181526020018280548015610d3e57602002820191906000526020600020905b81546001600160a01b03168152600190910190602001808311610d20575b5050505050905090565b610d50610dc1565b6001600160a01b038116610db55760405162461bcd60e51b815260206004820152602660248201527f4f776e61626c653a206e6577206f776e657220697320746865207a65726f206160448201526564647265737360d01b606482015260840161046b565b610dbe81610eb5565b50565b6000546001600160a01b03163314610aec5760405162461bcd60e51b815260206004820181905260248201527f4f776e61626c653a2063616c6c6572206973206e6f7420746865206f776e6572604482015260640161046b565b6000763d602d80600a3d3981f3363d3d373d3d3d363d730000008260601b60e81c176000526e5af43d82803e903d91602b57fd5bf38260781b17602052603760096000f090506001600160a01b038116610eb05760405162461bcd60e51b8152602060048201526016602482015275115490cc4c4d8dce8818dc99585d194819985a5b195960521b604482015260640161046b565b919050565b600080546001600160a01b038381166001600160a01b0319831681178455604051919092169283917f8be0079c531659141344cd1fd0a4f28419497f9722a3daafe3b4186f6b6457e09190a35050565b6000610f118284611895565b90505b92915050565b6000610f11828461199c565b6000610f1182846119be565b6000610f1182846119d1565b600060208284031215610f5057600080fd5b5035919050565b634e487b7160e01b600052604160045260246000fd5b604051610140810167ffffffffffffffff81118282101715610f9157610f91610f57565b60405290565b604051610160810167ffffffffffffffff81118282101715610f9157610f91610f57565b6001600160a01b0381168114610dbe57600080fd5b8035610eb081610fbb565b600060608284031215610fed57600080fd5b6040516060810181811067ffffffffffffffff8211171561101057611010610f57565b80604052508091508235815260208301356020820152604083013560408201525092915050565b8015158114610dbe57600080fd5b600060c0828403121561105757600080fd5b60405160c0810181811067ffffffffffffffff8211171561107a5761107a610f57565b604052905080823561108b81611037565b8152602083013561109b81610fbb565b602082015260408301356110ae81610fbb565b80604083015250606083013560608201526080830135608082015260a083013560a08201525092915050565b6000604082840312156110ec57600080fd5b6040516040810181811067ffffffffffffffff8211171561110f5761110f610f57565b604052823581526020928301359281019290925250919050565b600082601f83011261113a57600080fd5b813567ffffffffffffffff8082111561115557611155610f57565b604051601f8301601f19908116603f0116810190828211818310171561117d5761117d610f57565b8160405283815286602085880101111561119657600080fd5b836020870160208301376000602085830101528094505050505092915050565b600061014082840312156111c957600080fd5b6111d1610f6d565b9050813567ffffffffffffffff808211156111eb57600080fd5b6111f785838601611129565b8352602084013591508082111561120d57600080fd5b61121985838601611129565b6020840152604084013591508082111561123257600080fd5b61123e85838601611129565b6040840152606084013591508082111561125757600080fd5b61126385838601611129565b6060840152608084013591508082111561127c57600080fd5b61128885838601611129565b608084015260a08401359150808211156112a157600080fd5b6112ad85838601611129565b60a084015260c08401359150808211156112c657600080fd5b6112d285838601611129565b60c084015260e08401359150808211156112eb57600080fd5b6112f785838601611129565b60e08401526101009150818401358181111561131257600080fd5b61131e86828701611129565b83850152506101209150818401358181111561133957600080fd5b61134586828701611129565b8385015250505092915050565b60008060008060008587036102e081121561136c57600080fd5b6101608082121561137c57600080fd5b611384610f97565b915061138f88610fd0565b825261139d60208901610fd0565b602083015260408801356040830152606088013560608301526080880135608083015260a088013560a083015260c088013560c083015260e088013560e083015261010080890135818401525061012080890135818401525061014080890135818401525081965061141189828a01610fdb565b95505050611423876101c08801611045565b92506114338761028088016110da565b91506102c086013567ffffffffffffffff81111561145057600080fd5b61145c888289016111b6565b9150509295509295909350565b60006020828403121561147b57600080fd5b813561148681610fbb565b9392505050565b6020808252825182820181905260009190848201906040850190845b818110156114ce5783516001600160a01b0316835292840192918401916001016114a9565b50909695505050505050565b600060e082840312156114ec57600080fd5b60405160e0810181811067ffffffffffffffff8211171561150f5761150f610f57565b604052823561151d81610fbb565b808252506020830135602082015260408301356040820152606083013560608201526080830135608082015260a083013560a082015260c083013560c08201528091505092915050565b60006020828403121561157957600080fd5b815160ff8116811461148657600080fd5b6000815180845260005b818110156115b057602081850181015186830182015201611594565b506000602082860101526020601f19601f83011685010191505092915050565b600061014082518185526115e68286018261158a565b91505060208301518482036020860152611600828261158a565b9150506040830151848203604086015261161a828261158a565b91505060608301518482036060860152611634828261158a565b9150506080830151848203608086015261164e828261158a565b91505060a083015184820360a0860152611668828261158a565b91505060c083015184820360c0860152611682828261158a565b91505060e083015184820360e086015261169c828261158a565b91505061010080840151858303828701526116b7838261158a565b9250505061012080840151858303828701526116d3838261158a565b9695505050505050565b88516001600160a01b0316815260006103a060208b015161170960208501826001600160a01b03169052565b5060408b810151848201526060808d0151908501526080808d01519085015260a0808d01519085015260c0808d01519085015260e0808d015190850152610100808d015190850152610120808d015190850152610140808d0151908501528a5161016085015260208b01516101808501528a01516101a0840152885115156101c084015260208901516001600160a01b039081166101e085015260408a0151166102008401526060890151610220840152608089015161024084015260a0890151610260840152875161028084015260208801516102a084015286516001600160a01b039081166102c0850152602088015181166102e0850152604088015181166103008501526060880151166103208401528061034084015261182f818401876115d0565b610360840195909552505061038001529695505050505050565b60006020828403121561185b57600080fd5b5051919050565b60006020828403121561187457600080fd5b815161148681611037565b634e487b7160e01b600052601160045260246000fd5b8082028115828204841417610f1457610f1461187f565b600181815b808511156118e75781600019048211156118cd576118cd61187f565b808516156118da57918102915b93841c93908002906118b1565b509250929050565b6000826118fe57506001610f14565b8161190b57506000610f14565b8160018114611921576002811461192b57611947565b6001915050610f14565b60ff84111561193c5761193c61187f565b50506001821b610f14565b5060208310610133831016604e8410600b841016171561196a575081810a610f14565b61197483836118ac565b80600019048211156119885761198861187f565b029392505050565b6000610f1183836118ef565b6000826119b957634e487b7160e01b600052601260045260246000fd5b500490565b81810381811115610f1457610f1461187f565b80820180821115610f1457610f1461187f56fea264697066735822122077c58bec4371edbb1ba311619ca191bd1c075abd487966f34b7f599462cdfe1064736f6c63430008120033",
					"opcodes": "PUSH1 0x80 PUSH1 0x40 MSTORE PUSH2 0x3E8 PUSH1 0x2 SSTORE CALLVALUE DUP1 ISZERO PUSH3 0x17 JUMPI PUSH1 0x0 DUP1 REVERT JUMPDEST POP PUSH1 0x40 MLOAD PUSH3 0x1CE7 CODESIZE SUB DUP1 PUSH3 0x1CE7 DUP4 CODECOPY DUP2 ADD PUSH1 0x40 DUP2 SWAP1 MSTORE PUSH3 0x3A SWAP2 PUSH3 0x255 JUMP JUMPDEST PUSH3 0x45 CALLER PUSH3 0x1EC JUMP JUMPDEST PUSH1 0x1 PUSH1 0x1 PUSH1 0xA0 SHL SUB DUP4 AND ISZERO DUP1 ISZERO SWAP1 PUSH3 0x67 JUMPI POP PUSH1 0x1 PUSH1 0x1 PUSH1 0xA0 SHL SUB DUP4 AND ADDRESS EQ ISZERO JUMPDEST PUSH3 0xB9 JUMPI PUSH1 0x40 MLOAD PUSH3 0x461BCD PUSH1 0xE5 SHL DUP2 MSTORE PUSH1 0x20 PUSH1 0x4 DUP3 ADD MSTORE PUSH1 0x1C PUSH1 0x24 DUP3 ADD MSTORE PUSH32 0x4C61756368706164466163746F72793A207669727475616C4C6F636B00000000 PUSH1 0x44 DUP3 ADD MSTORE PUSH1 0x64 ADD JUMPDEST PUSH1 0x40 MLOAD DUP1 SWAP2 SUB SWAP1 REVERT JUMPDEST PUSH1 0x1 PUSH1 0x1 PUSH1 0xA0 SHL SUB DUP5 AND ISZERO DUP1 ISZERO SWAP1 PUSH3 0xDB JUMPI POP PUSH1 0x1 PUSH1 0x1 PUSH1 0xA0 SHL SUB DUP5 AND ADDRESS EQ ISZERO JUMPDEST PUSH3 0x129 JUMPI PUSH1 0x40 MLOAD PUSH3 0x461BCD PUSH1 0xE5 SHL DUP2 MSTORE PUSH1 0x20 PUSH1 0x4 DUP3 ADD MSTORE PUSH1 0x1D PUSH1 0x24 DUP3 ADD MSTORE PUSH32 0x4C61756368706164466163746F72793A2073757065724163636F756E74000000 PUSH1 0x44 DUP3 ADD MSTORE PUSH1 0x64 ADD PUSH3 0xB0 JUMP JUMPDEST PUSH1 0x1 PUSH1 0x1 PUSH1 0xA0 SHL SUB DUP3 AND ISZERO DUP1 ISZERO SWAP1 PUSH3 0x14B JUMPI POP PUSH1 0x1 PUSH1 0x1 PUSH1 0xA0 SHL SUB DUP3 AND ADDRESS EQ ISZERO JUMPDEST PUSH3 0x199 JUMPI PUSH1 0x40 MLOAD PUSH3 0x461BCD PUSH1 0xE5 SHL DUP2 MSTORE PUSH1 0x20 PUSH1 0x4 DUP3 ADD MSTORE PUSH1 0x1C PUSH1 0x24 DUP3 ADD MSTORE PUSH32 0x4C61756368706164466163746F72793A2066756E644164647265737300000000 PUSH1 0x44 DUP3 ADD MSTORE PUSH1 0x64 ADD PUSH3 0xB0 JUMP JUMPDEST PUSH1 0x3 DUP1 SLOAD PUSH1 0x1 PUSH1 0x1 PUSH1 0xA0 SHL SUB NOT SWAP1 DUP2 AND PUSH1 0x1 PUSH1 0x1 PUSH1 0xA0 SHL SUB SWAP7 DUP8 AND OR SWAP1 SWAP2 SSTORE PUSH1 0x5 DUP1 SLOAD DUP3 AND SWAP4 DUP7 AND SWAP4 SWAP1 SWAP4 OR SWAP1 SWAP3 SSTORE PUSH1 0x4 DUP1 SLOAD DUP4 AND SWAP4 DUP6 AND SWAP4 SWAP1 SWAP4 OR SWAP1 SWAP3 SSTORE PUSH1 0x6 DUP1 SLOAD SWAP1 SWAP2 AND SWAP2 SWAP1 SWAP3 AND OR SWAP1 SSTORE PUSH3 0x2BD JUMP JUMPDEST PUSH1 0x0 DUP1 SLOAD PUSH1 0x1 PUSH1 0x1 PUSH1 0xA0 SHL SUB DUP4 DUP2 AND PUSH1 0x1 PUSH1 0x1 PUSH1 0xA0 SHL SUB NOT DUP4 AND DUP2 OR DUP5 SSTORE PUSH1 0x40 MLOAD SWAP2 SWAP1 SWAP3 AND SWAP3 DUP4 SWAP2 PUSH32 0x8BE0079C531659141344CD1FD0A4F28419497F9722A3DAAFE3B4186F6B6457E0 SWAP2 SWAP1 LOG3 POP POP JUMP JUMPDEST PUSH1 0x1 PUSH1 0x1 PUSH1 0xA0 SHL SUB DUP2 AND DUP2 EQ PUSH3 0x252 JUMPI PUSH1 0x0 DUP1 REVERT JUMPDEST POP JUMP JUMPDEST PUSH1 0x0 DUP1 PUSH1 0x0 DUP1 PUSH1 0x80 DUP6 DUP8 SUB SLT ISZERO PUSH3 0x26C JUMPI PUSH1 0x0 DUP1 REVERT JUMPDEST DUP5 MLOAD PUSH3 0x279 DUP2 PUSH3 0x23C JUMP JUMPDEST PUSH1 0x20 DUP7 ADD MLOAD SWAP1 SWAP5 POP PUSH3 0x28C DUP2 PUSH3 0x23C JUMP JUMPDEST PUSH1 0x40 DUP7 ADD MLOAD SWAP1 SWAP4 POP PUSH3 0x29F DUP2 PUSH3 0x23C JUMP JUMPDEST PUSH1 0x60 DUP7 ADD MLOAD SWAP1 SWAP3 POP PUSH3 0x2B2 DUP2 PUSH3 0x23C JUMP JUMPDEST SWAP4 SWAP7 SWAP3 SWAP6 POP SWAP1 SWAP4 POP POP JUMP JUMPDEST PUSH2 0x1A1A DUP1 PUSH3 0x2CD PUSH1 0x0 CODECOPY PUSH1 0x0 RETURN INVALID PUSH1 0x80 PUSH1 0x40 MSTORE PUSH1 0x4 CALLDATASIZE LT PUSH2 0x12A JUMPI PUSH1 0x0 CALLDATALOAD PUSH1 0xE0 SHR DUP1 PUSH4 0x85DC3004 GT PUSH2 0xAB JUMPI DUP1 PUSH4 0xA96DF743 GT PUSH2 0x6F JUMPI DUP1 PUSH4 0xA96DF743 EQ PUSH2 0x31B JUMPI DUP1 PUSH4 0xB6B7913E EQ PUSH2 0x350 JUMPI DUP1 PUSH4 0xC06CA1DD EQ PUSH2 0x370 JUMPI DUP1 PUSH4 0xD9EB5947 EQ PUSH2 0x385 JUMPI DUP1 PUSH4 0xE82BEF29 EQ PUSH2 0x39B JUMPI DUP1 PUSH4 0xF2FDE38B EQ PUSH2 0x3BB JUMPI PUSH1 0x0 DUP1 REVERT JUMPDEST DUP1 PUSH4 0x85DC3004 EQ PUSH2 0x287 JUMPI DUP1 PUSH4 0x892F78FA EQ PUSH2 0x2A7 JUMPI DUP1 PUSH4 0x8A9B66CC EQ PUSH2 0x2C7 JUMPI DUP1 PUSH4 0x8DA5CB5B EQ PUSH2 0x2DD JUMPI DUP1 PUSH4 0x9352DACE EQ PUSH2 0x2FB JUMPI PUSH1 0x0 DUP1 REVERT JUMPDEST DUP1 PUSH4 0x5A416A36 GT PUSH2 0xF2 JUMPI DUP1 PUSH4 0x5A416A36 EQ PUSH2 0x1E5 JUMPI DUP1 PUSH4 0x5C60DA1B EQ PUSH2 0x205 JUMPI DUP1 PUSH4 0x640F82F3 EQ PUSH2 0x225 JUMPI DUP1 PUSH4 0x6DE944DC EQ PUSH2 0x245 JUMPI DUP1 PUSH4 0x715018A6 EQ PUSH2 0x272 JUMPI PUSH1 0x0 DUP1 REVERT JUMPDEST DUP1 PUSH4 0x23FA495A EQ PUSH2 0x12F JUMPI DUP1 PUSH4 0x49A1F14B EQ PUSH2 0x151 JUMPI DUP1 PUSH4 0x51AE878F EQ PUSH2 0x164 JUMPI DUP1 PUSH4 0x53ACA078 EQ PUSH2 0x184 JUMPI DUP1 PUSH4 0x58E5BC88 EQ PUSH2 0x1C1 JUMPI JUMPDEST PUSH1 0x0 DUP1 REVERT JUMPDEST CALLVALUE DUP1 ISZERO PUSH2 0x13B JUMPI PUSH1 0x0 DUP1 REVERT JUMPDEST POP PUSH2 0x14F PUSH2 0x14A CALLDATASIZE PUSH1 0x4 PUSH2 0xF3E JUMP JUMPDEST PUSH2 0x3DB JUMP JUMPDEST STOP JUMPDEST PUSH2 0x14F PUSH2 0x15F CALLDATASIZE PUSH1 0x4 PUSH2 0x1352 JUMP JUMPDEST PUSH2 0x3E8 JUMP JUMPDEST CALLVALUE DUP1 ISZERO PUSH2 0x170 JUMPI PUSH1 0x0 DUP1 REVERT JUMPDEST POP PUSH2 0x14F PUSH2 0x17F CALLDATASIZE PUSH1 0x4 PUSH2 0xF3E JUMP JUMPDEST PUSH2 0x9F7 JUMP JUMPDEST CALLVALUE DUP1 ISZERO PUSH2 0x190 JUMPI PUSH1 0x0 DUP1 REVERT JUMPDEST POP PUSH2 0x1A4 PUSH2 0x19F CALLDATASIZE PUSH1 0x4 PUSH2 0xF3E JUMP JUMPDEST PUSH2 0xA10 JUMP JUMPDEST PUSH1 0x40 MLOAD PUSH1 0x1 PUSH1 0x1 PUSH1 0xA0 SHL SUB SWAP1 SWAP2 AND DUP2 MSTORE PUSH1 0x20 ADD JUMPDEST PUSH1 0x40 MLOAD DUP1 SWAP2 SUB SWAP1 RETURN JUMPDEST CALLVALUE DUP1 ISZERO PUSH2 0x1CD JUMPI PUSH1 0x0 DUP1 REVERT JUMPDEST POP PUSH2 0x1D7 PUSH2 0x2710 DUP2 JUMP JUMPDEST PUSH1 0x40 MLOAD SWAP1 DUP2 MSTORE PUSH1 0x20 ADD PUSH2 0x1B8 JUMP JUMPDEST CALLVALUE DUP1 ISZERO PUSH2 0x1F1 JUMPI PUSH1 0x0 DUP1 REVERT JUMPDEST POP PUSH2 0x14F PUSH2 0x200 CALLDATASIZE PUSH1 0x4 PUSH2 0x1469 JUMP JUMPDEST PUSH2 0xA3A JUMP JUMPDEST CALLVALUE DUP1 ISZERO PUSH2 0x211 JUMPI PUSH1 0x0 DUP1 REVERT JUMPDEST POP PUSH1 0x6 SLOAD PUSH2 0x1A4 SWAP1 PUSH1 0x1 PUSH1 0x1 PUSH1 0xA0 SHL SUB AND DUP2 JUMP JUMPDEST CALLVALUE DUP1 ISZERO PUSH2 0x231 JUMPI PUSH1 0x0 DUP1 REVERT JUMPDEST POP PUSH1 0x4 SLOAD PUSH2 0x1A4 SWAP1 PUSH1 0x1 PUSH1 0x1 PUSH1 0xA0 SHL SUB AND DUP2 JUMP JUMPDEST CALLVALUE DUP1 ISZERO PUSH2 0x251 JUMPI PUSH1 0x0 DUP1 REVERT JUMPDEST POP PUSH2 0x265 PUSH2 0x260 CALLDATASIZE PUSH1 0x4 PUSH2 0x1469 JUMP JUMPDEST PUSH2 0xA64 JUMP JUMPDEST PUSH1 0x40 MLOAD PUSH2 0x1B8 SWAP2 SWAP1 PUSH2 0x148D JUMP JUMPDEST CALLVALUE DUP1 ISZERO PUSH2 0x27E JUMPI PUSH1 0x0 DUP1 REVERT JUMPDEST POP PUSH2 0x14F PUSH2 0xADA JUMP JUMPDEST CALLVALUE DUP1 ISZERO PUSH2 0x293 JUMPI PUSH1 0x0 DUP1 REVERT JUMPDEST POP PUSH2 0x14F PUSH2 0x2A2 CALLDATASIZE PUSH1 0x4 PUSH2 0x1469 JUMP JUMPDEST PUSH2 0xAEE JUMP JUMPDEST CALLVALUE DUP1 ISZERO PUSH2 0x2B3 JUMPI PUSH1 0x0 DUP1 REVERT JUMPDEST POP PUSH2 0x14F PUSH2 0x2C2 CALLDATASIZE PUSH1 0x4 PUSH2 0x1469 JUMP JUMPDEST PUSH2 0xB18 JUMP JUMPDEST CALLVALUE DUP1 ISZERO PUSH2 0x2D3 JUMPI PUSH1 0x0 DUP1 REVERT JUMPDEST POP PUSH2 0x1D7 PUSH1 0x2 SLOAD DUP2 JUMP JUMPDEST CALLVALUE DUP1 ISZERO PUSH2 0x2E9 JUMPI PUSH1 0x0 DUP1 REVERT JUMPDEST POP PUSH1 0x0 SLOAD PUSH1 0x1 PUSH1 0x1 PUSH1 0xA0 SHL SUB AND PUSH2 0x1A4 JUMP JUMPDEST CALLVALUE DUP1 ISZERO PUSH2 0x307 JUMPI PUSH1 0x0 DUP1 REVERT JUMPDEST POP PUSH2 0x14F PUSH2 0x316 CALLDATASIZE PUSH1 0x4 PUSH2 0x1469 JUMP JUMPDEST PUSH2 0xB42 JUMP JUMPDEST CALLVALUE DUP1 ISZERO PUSH2 0x327 JUMPI PUSH1 0x0 DUP1 REVERT JUMPDEST POP PUSH2 0x33B PUSH2 0x336 CALLDATASIZE PUSH1 0x4 PUSH2 0x14DA JUMP JUMPDEST PUSH2 0xB6C JUMP JUMPDEST PUSH1 0x40 DUP1 MLOAD SWAP3 DUP4 MSTORE PUSH1 0x20 DUP4 ADD SWAP2 SWAP1 SWAP2 MSTORE ADD PUSH2 0x1B8 JUMP JUMPDEST CALLVALUE DUP1 ISZERO PUSH2 0x35C JUMPI PUSH1 0x0 DUP1 REVERT JUMPDEST POP PUSH1 0x3 SLOAD PUSH2 0x1A4 SWAP1 PUSH1 0x1 PUSH1 0x1 PUSH1 0xA0 SHL SUB AND DUP2 JUMP JUMPDEST CALLVALUE DUP1 ISZERO PUSH2 0x37C JUMPI PUSH1 0x0 DUP1 REVERT JUMPDEST POP PUSH2 0x265 PUSH2 0xCE6 JUMP JUMPDEST CALLVALUE DUP1 ISZERO PUSH2 0x391 JUMPI PUSH1 0x0 DUP1 REVERT JUMPDEST POP PUSH2 0x1D7 PUSH1 0x1 SLOAD DUP2 JUMP JUMPDEST CALLVALUE DUP1 ISZERO PUSH2 0x3A7 JUMPI PUSH1 0x0 DUP1 REVERT JUMPDEST POP PUSH1 0x5 SLOAD PUSH2 0x1A4 SWAP1 PUSH1 0x1 PUSH1 0x1 PUSH1 0xA0 SHL SUB AND DUP2 JUMP JUMPDEST CALLVALUE DUP1 ISZERO PUSH2 0x3C7 JUMPI PUSH1 0x0 DUP1 REVERT JUMPDEST POP PUSH2 0x14F PUSH2 0x3D6 CALLDATASIZE PUSH1 0x4 PUSH2 0x1469 JUMP JUMPDEST PUSH2 0xD48 JUMP JUMPDEST PUSH2 0x3E3 PUSH2 0xDC1 JUMP JUMPDEST PUSH1 0x1 SSTORE JUMP JUMPDEST PUSH1 0x3 SLOAD PUSH1 0x1 PUSH1 0x1 PUSH1 0xA0 SHL SUB AND ISZERO DUP1 ISZERO SWAP1 PUSH2 0x40C JUMPI POP PUSH1 0x5 SLOAD PUSH1 0x1 PUSH1 0x1 PUSH1 0xA0 SHL SUB AND ISZERO ISZERO JUMPDEST PUSH2 0x474 JUMPI PUSH1 0x40 MLOAD PUSH3 0x461BCD PUSH1 0xE5 SHL DUP2 MSTORE PUSH1 0x20 PUSH1 0x4 DUP3 ADD MSTORE PUSH1 0x2E PUSH1 0x24 DUP3 ADD MSTORE PUSH32 0x4C61756368706164466163746F72793A2043616E206E6F742063726561746520 PUSH1 0x44 DUP3 ADD MSTORE PUSH14 0x6C61756E6368706164206E6F7721 PUSH1 0x90 SHL PUSH1 0x64 DUP3 ADD MSTORE PUSH1 0x84 ADD JUMPDEST PUSH1 0x40 MLOAD DUP1 SWAP2 SUB SWAP1 REVERT JUMPDEST PUSH1 0x1 SLOAD CALLVALUE LT ISZERO PUSH2 0x4C6 JUMPI PUSH1 0x40 MLOAD PUSH3 0x461BCD PUSH1 0xE5 SHL DUP2 MSTORE PUSH1 0x20 PUSH1 0x4 DUP3 ADD DUP2 SWAP1 MSTORE PUSH1 0x24 DUP3 ADD MSTORE PUSH32 0x4C61756368706164466163746F72793A204E6F7420656E6F7567682066656521 PUSH1 0x44 DUP3 ADD MSTORE PUSH1 0x64 ADD PUSH2 0x46B JUMP JUMPDEST PUSH1 0x0 PUSH1 0x40 MLOAD DUP1 PUSH1 0x80 ADD PUSH1 0x40 MSTORE DUP1 PUSH2 0x4DA CALLER SWAP1 JUMP JUMPDEST PUSH1 0x1 PUSH1 0x1 PUSH1 0xA0 SHL SUB SWAP1 DUP2 AND DUP3 MSTORE PUSH1 0x3 SLOAD DUP2 AND PUSH1 0x20 DUP1 DUP5 ADD SWAP2 SWAP1 SWAP2 MSTORE PUSH1 0x5 SLOAD DUP3 AND PUSH1 0x40 DUP5 ADD MSTORE PUSH1 0x4 SLOAD DUP3 AND PUSH1 0x60 SWAP1 SWAP4 ADD SWAP3 SWAP1 SWAP3 MSTORE DUP9 MLOAD SWAP2 DUP10 ADD MLOAD SWAP3 SWAP4 POP SWAP1 SWAP2 PUSH1 0x12 SWAP2 AND ISZERO PUSH2 0x58D JUMPI DUP8 PUSH1 0x20 ADD MLOAD PUSH1 0x1 PUSH1 0x1 PUSH1 0xA0 SHL SUB AND PUSH4 0x313CE567 PUSH1 0x40 MLOAD DUP2 PUSH4 0xFFFFFFFF AND PUSH1 0xE0 SHL DUP2 MSTORE PUSH1 0x4 ADD PUSH1 0x20 PUSH1 0x40 MLOAD DUP1 DUP4 SUB DUP2 DUP7 GAS STATICCALL ISZERO DUP1 ISZERO PUSH2 0x563 JUMPI RETURNDATASIZE PUSH1 0x0 DUP1 RETURNDATACOPY RETURNDATASIZE PUSH1 0x0 REVERT JUMPDEST POP POP POP POP PUSH1 0x40 MLOAD RETURNDATASIZE PUSH1 0x1F NOT PUSH1 0x1F DUP3 ADD AND DUP3 ADD DUP1 PUSH1 0x40 MSTORE POP DUP2 ADD SWAP1 PUSH2 0x587 SWAP2 SWAP1 PUSH2 0x1567 JUMP JUMPDEST PUSH1 0xFF AND SWAP1 POP JUMPDEST PUSH1 0x40 DUP1 MLOAD PUSH1 0xE0 DUP2 ADD DUP3 MSTORE PUSH1 0x20 DUP1 DUP12 ADD MLOAD PUSH1 0x1 PUSH1 0x1 PUSH1 0xA0 SHL SUB AND DUP3 MSTORE PUSH1 0x80 DUP1 DUP13 ADD MLOAD DUP3 DUP5 ADD MSTORE PUSH1 0x60 DUP1 DUP14 ADD MLOAD SWAP5 DUP5 ADD SWAP5 SWAP1 SWAP5 MSTORE SWAP1 DUP9 ADD MLOAD DUP4 DUP4 ADD MSTORE DUP8 MLOAD DUP2 DUP4 ADD MSTORE DUP9 ADD MLOAD PUSH1 0xA0 DUP3 ADD MSTORE SWAP1 DUP8 ADD MLOAD PUSH1 0xC0 DUP3 ADD MSTORE PUSH1 0x0 DUP1 PUSH2 0x5EA DUP4 PUSH2 0xB6C JUMP JUMPDEST PUSH1 0x6 SLOAD SWAP2 SWAP4 POP SWAP2 POP PUSH1 0x0 SWAP1 PUSH2 0x607 SWAP1 PUSH1 0x1 PUSH1 0x1 PUSH1 0xA0 SHL SUB AND PUSH2 0xE1B JUMP JUMPDEST SWAP1 POP DUP1 PUSH1 0x1 PUSH1 0x1 PUSH1 0xA0 SHL SUB AND PUSH4 0x57801E6F DUP14 DUP14 DUP14 DUP14 DUP13 DUP15 DUP10 PUSH1 0x2 SLOAD PUSH1 0x40 MLOAD DUP10 PUSH4 0xFFFFFFFF AND PUSH1 0xE0 SHL DUP2 MSTORE PUSH1 0x4 ADD PUSH2 0x645 SWAP9 SWAP8 SWAP7 SWAP6 SWAP5 SWAP4 SWAP3 SWAP2 SWAP1 PUSH2 0x16DD JUMP JUMPDEST PUSH1 0x0 PUSH1 0x40 MLOAD DUP1 DUP4 SUB DUP2 PUSH1 0x0 DUP8 DUP1 EXTCODESIZE ISZERO DUP1 ISZERO PUSH2 0x65F JUMPI PUSH1 0x0 DUP1 REVERT JUMPDEST POP GAS CALL ISZERO DUP1 ISZERO PUSH2 0x673 JUMPI RETURNDATASIZE PUSH1 0x0 DUP1 RETURNDATACOPY RETURNDATASIZE PUSH1 0x0 REVERT JUMPDEST POP POP POP POP PUSH1 0x0 CALLVALUE GT ISZERO PUSH2 0x6BB JUMPI PUSH1 0x5 SLOAD PUSH1 0x40 MLOAD PUSH1 0x1 PUSH1 0x1 PUSH1 0xA0 SHL SUB SWAP1 SWAP2 AND SWAP1 CALLVALUE DUP1 ISZERO PUSH2 0x8FC MUL SWAP2 PUSH1 0x0 DUP2 DUP2 DUP2 DUP6 DUP9 DUP9 CALL SWAP4 POP POP POP POP ISZERO DUP1 ISZERO PUSH2 0x6B9 JUMPI RETURNDATASIZE PUSH1 0x0 DUP1 RETURNDATACOPY RETURNDATASIZE PUSH1 0x0 REVERT JUMPDEST POP JUMPDEST DUP3 ISZERO PUSH2 0x94C JUMPI DUP12 MLOAD DUP4 PUSH1 0x1 PUSH1 0x1 PUSH1 0xA0 SHL SUB DUP3 AND PUSH4 0x70A08231 CALLER PUSH1 0x40 MLOAD PUSH1 0x1 PUSH1 0x1 PUSH1 0xE0 SHL SUB NOT PUSH1 0xE0 DUP5 SWAP1 SHL AND DUP2 MSTORE PUSH1 0x1 PUSH1 0x1 PUSH1 0xA0 SHL SUB SWAP1 SWAP2 AND PUSH1 0x4 DUP3 ADD MSTORE PUSH1 0x24 ADD PUSH1 0x20 PUSH1 0x40 MLOAD DUP1 DUP4 SUB DUP2 DUP7 GAS STATICCALL ISZERO DUP1 ISZERO PUSH2 0x718 JUMPI RETURNDATASIZE PUSH1 0x0 DUP1 RETURNDATACOPY RETURNDATASIZE PUSH1 0x0 REVERT JUMPDEST POP POP POP POP PUSH1 0x40 MLOAD RETURNDATASIZE PUSH1 0x1F NOT PUSH1 0x1F DUP3 ADD AND DUP3 ADD DUP1 PUSH1 0x40 MSTORE POP DUP2 ADD SWAP1 PUSH2 0x73C SWAP2 SWAP1 PUSH2 0x1849 JUMP JUMPDEST LT ISZERO PUSH2 0x798 JUMPI PUSH1 0x40 MLOAD PUSH3 0x461BCD PUSH1 0xE5 SHL DUP2 MSTORE PUSH1 0x20 PUSH1 0x4 DUP3 ADD MSTORE PUSH1 0x25 PUSH1 0x24 DUP3 ADD MSTORE PUSH32 0x4C61756368706164466163746F72793A20496E73756666696369656E74204261 PUSH1 0x44 DUP3 ADD MSTORE PUSH5 0x6C616E6365 PUSH1 0xD8 SHL PUSH1 0x64 DUP3 ADD MSTORE PUSH1 0x84 ADD PUSH2 0x46B JUMP JUMPDEST DUP4 PUSH1 0x1 PUSH1 0x1 PUSH1 0xA0 SHL SUB DUP3 AND PUSH4 0xDD62ED3E CALLER PUSH1 0x40 MLOAD PUSH1 0x1 PUSH1 0x1 PUSH1 0xE0 SHL SUB NOT PUSH1 0xE0 DUP5 SWAP1 SHL AND DUP2 MSTORE PUSH1 0x1 PUSH1 0x1 PUSH1 0xA0 SHL SUB SWAP1 SWAP2 AND PUSH1 0x4 DUP3 ADD MSTORE ADDRESS PUSH1 0x24 DUP3 ADD MSTORE PUSH1 0x44 ADD PUSH1 0x20 PUSH1 0x40 MLOAD DUP1 DUP4 SUB DUP2 DUP7 GAS STATICCALL ISZERO DUP1 ISZERO PUSH2 0x7F3 JUMPI RETURNDATASIZE PUSH1 0x0 DUP1 RETURNDATACOPY RETURNDATASIZE PUSH1 0x0 REVERT JUMPDEST POP POP POP POP PUSH1 0x40 MLOAD RETURNDATASIZE PUSH1 0x1F NOT PUSH1 0x1F DUP3 ADD AND DUP3 ADD DUP1 PUSH1 0x40 MSTORE POP DUP2 ADD SWAP1 PUSH2 0x817 SWAP2 SWAP1 PUSH2 0x1849 JUMP JUMPDEST LT ISZERO PUSH2 0x875 JUMPI PUSH1 0x40 MLOAD PUSH3 0x461BCD PUSH1 0xE5 SHL DUP2 MSTORE PUSH1 0x20 PUSH1 0x4 DUP3 ADD MSTORE PUSH1 0x27 PUSH1 0x24 DUP3 ADD MSTORE PUSH32 0x4C61756368706164466163746F72793A20496E73756666696369656E7420416C PUSH1 0x44 DUP3 ADD MSTORE PUSH7 0x6C6F77616E6365 PUSH1 0xC8 SHL PUSH1 0x64 DUP3 ADD MSTORE PUSH1 0x84 ADD PUSH2 0x46B JUMP JUMPDEST PUSH1 0x1 PUSH1 0x1 PUSH1 0xA0 SHL SUB DUP8 AND PUSH4 0x23B872DD CALLER PUSH1 0x40 MLOAD PUSH1 0x1 PUSH1 0x1 PUSH1 0xE0 SHL SUB NOT PUSH1 0xE0 DUP5 SWAP1 SHL AND DUP2 MSTORE PUSH1 0x1 PUSH1 0x1 PUSH1 0xA0 SHL SUB SWAP2 DUP3 AND PUSH1 0x4 DUP3 ADD MSTORE SWAP1 DUP6 AND PUSH1 0x24 DUP3 ADD MSTORE PUSH1 0x44 DUP2 ADD DUP8 SWAP1 MSTORE PUSH1 0x64 ADD PUSH1 0x20 PUSH1 0x40 MLOAD DUP1 DUP4 SUB DUP2 PUSH1 0x0 DUP8 GAS CALL ISZERO DUP1 ISZERO PUSH2 0x8DA JUMPI RETURNDATASIZE PUSH1 0x0 DUP1 RETURNDATACOPY RETURNDATASIZE PUSH1 0x0 REVERT JUMPDEST POP POP POP POP PUSH1 0x40 MLOAD RETURNDATASIZE PUSH1 0x1F NOT PUSH1 0x1F DUP3 ADD AND DUP3 ADD DUP1 PUSH1 0x40 MSTORE POP DUP2 ADD SWAP1 PUSH2 0x8FE SWAP2 SWAP1 PUSH2 0x1862 JUMP JUMPDEST PUSH2 0x94A JUMPI PUSH1 0x40 MLOAD PUSH3 0x461BCD PUSH1 0xE5 SHL DUP2 MSTORE PUSH1 0x20 PUSH1 0x4 DUP3 ADD DUP2 SWAP1 MSTORE PUSH1 0x24 DUP3 ADD MSTORE PUSH32 0x4C61756368706164466163746F72793A207472616E73666572206661696C6564 PUSH1 0x44 DUP3 ADD MSTORE PUSH1 0x64 ADD PUSH2 0x46B JUMP JUMPDEST POP JUMPDEST PUSH1 0x7 DUP1 SLOAD PUSH1 0x1 DUP2 DUP2 ADD SWAP1 SWAP3 SSTORE PUSH32 0xA66CC928B5EDB82AF9BD49922954155AB7B0942694BEA4CE44661D9A8736C688 ADD DUP1 SLOAD PUSH1 0x1 PUSH1 0x1 PUSH1 0xA0 SHL SUB DUP5 AND PUSH1 0x1 PUSH1 0x1 PUSH1 0xA0 SHL SUB NOT SWAP2 DUP3 AND DUP2 OR SWAP1 SWAP3 SSTORE CALLER PUSH1 0x0 SWAP1 DUP2 MSTORE PUSH1 0x8 PUSH1 0x20 SWAP1 DUP2 MSTORE PUSH1 0x40 DUP1 DUP4 KECCAK256 DUP1 SLOAD SWAP7 DUP8 ADD DUP2 SSTORE DUP4 MSTORE SWAP1 DUP3 KECCAK256 SWAP1 SWAP5 ADD DUP1 SLOAD SWAP1 SWAP3 AND DUP4 OR SWAP1 SWAP2 SSTORE SWAP2 MLOAD SWAP1 SWAP2 PUSH32 0xDA2D0D8F4060E08DD20F6FB6AD959F9920958220CC60733DB44068DB43A02601 SWAP2 LOG2 POP POP POP POP POP POP POP POP POP POP POP POP JUMP JUMPDEST PUSH2 0x9FF PUSH2 0xDC1 JUMP JUMPDEST PUSH2 0xA0A DUP2 PUSH1 0x64 PUSH2 0x1895 JUMP JUMPDEST PUSH1 0x2 SSTORE POP JUMP JUMPDEST PUSH1 0x7 DUP2 DUP2 SLOAD DUP2 LT PUSH2 0xA20 JUMPI PUSH1 0x0 DUP1 REVERT JUMPDEST PUSH1 0x0 SWAP2 DUP3 MSTORE PUSH1 0x20 SWAP1 SWAP2 KECCAK256 ADD SLOAD PUSH1 0x1 PUSH1 0x1 PUSH1 0xA0 SHL SUB AND SWAP1 POP DUP2 JUMP JUMPDEST PUSH2 0xA42 PUSH2 0xDC1 JUMP JUMPDEST PUSH1 0x4 DUP1 SLOAD PUSH1 0x1 PUSH1 0x1 PUSH1 0xA0 SHL SUB NOT AND PUSH1 0x1 PUSH1 0x1 PUSH1 0xA0 SHL SUB SWAP3 SWAP1 SWAP3 AND SWAP2 SWAP1 SWAP2 OR SWAP1 SSTORE JUMP JUMPDEST PUSH1 0x1 PUSH1 0x1 PUSH1 0xA0 SHL SUB DUP2 AND PUSH1 0x0 SWAP1 DUP2 MSTORE PUSH1 0x8 PUSH1 0x20 SWAP1 DUP2 MSTORE PUSH1 0x40 SWAP2 DUP3 SWAP1 KECCAK256 DUP1 SLOAD DUP4 MLOAD DUP2 DUP5 MUL DUP2 ADD DUP5 ADD SWAP1 SWAP5 MSTORE DUP1 DUP5 MSTORE PUSH1 0x60 SWAP4 SWAP3 DUP4 ADD DUP3 DUP3 DUP1 ISZERO PUSH2 0xACE JUMPI PUSH1 0x20 MUL DUP3 ADD SWAP2 SWAP1 PUSH1 0x0 MSTORE PUSH1 0x20 PUSH1 0x0 KECCAK256 SWAP1 JUMPDEST DUP2 SLOAD PUSH1 0x1 PUSH1 0x1 PUSH1 0xA0 SHL SUB AND DUP2 MSTORE PUSH1 0x1 SWAP1 SWAP2 ADD SWAP1 PUSH1 0x20 ADD DUP1 DUP4 GT PUSH2 0xAB0 JUMPI JUMPDEST POP POP POP POP POP SWAP1 POP SWAP2 SWAP1 POP JUMP JUMPDEST PUSH2 0xAE2 PUSH2 0xDC1 JUMP JUMPDEST PUSH2 0xAEC PUSH1 0x0 PUSH2 0xEB5 JUMP JUMPDEST JUMP JUMPDEST PUSH2 0xAF6 PUSH2 0xDC1 JUMP JUMPDEST PUSH1 0x5 DUP1 SLOAD PUSH1 0x1 PUSH1 0x1 PUSH1 0xA0 SHL SUB NOT AND PUSH1 0x1 PUSH1 0x1 PUSH1 0xA0 SHL SUB SWAP3 SWAP1 SWAP3 AND SWAP2 SWAP1 SWAP2 OR SWAP1 SSTORE JUMP JUMPDEST PUSH2 0xB20 PUSH2 0xDC1 JUMP JUMPDEST PUSH1 0x3 DUP1 SLOAD PUSH1 0x1 PUSH1 0x1 PUSH1 0xA0 SHL SUB NOT AND PUSH1 0x1 PUSH1 0x1 PUSH1 0xA0 SHL SUB SWAP3 SWAP1 SWAP3 AND SWAP2 SWAP1 SWAP2 OR SWAP1 SSTORE JUMP JUMPDEST PUSH2 0xB4A PUSH2 0xDC1 JUMP JUMPDEST PUSH1 0x6 DUP1 SLOAD PUSH1 0x1 PUSH1 0x1 PUSH1 0xA0 SHL SUB NOT AND PUSH1 0x1 PUSH1 0x1 PUSH1 0xA0 SHL SUB SWAP3 SWAP1 SWAP3 AND SWAP2 SWAP1 SWAP2 OR SWAP1 SSTORE JUMP JUMPDEST DUP1 MLOAD PUSH1 0x0 SWAP1 DUP2 SWAP1 PUSH1 0x12 SWAP1 PUSH1 0x1 PUSH1 0x1 PUSH1 0xA0 SHL SUB AND ISZERO PUSH2 0xBF0 JUMPI DUP4 PUSH1 0x0 ADD MLOAD PUSH1 0x1 PUSH1 0x1 PUSH1 0xA0 SHL SUB AND PUSH4 0x313CE567 PUSH1 0x40 MLOAD DUP2 PUSH4 0xFFFFFFFF AND PUSH1 0xE0 SHL DUP2 MSTORE PUSH1 0x4 ADD PUSH1 0x20 PUSH1 0x40 MLOAD DUP1 DUP4 SUB DUP2 DUP7 GAS STATICCALL ISZERO DUP1 ISZERO PUSH2 0xBC6 JUMPI RETURNDATASIZE PUSH1 0x0 DUP1 RETURNDATACOPY RETURNDATASIZE PUSH1 0x0 REVERT JUMPDEST POP POP POP POP PUSH1 0x40 MLOAD RETURNDATASIZE PUSH1 0x1F NOT PUSH1 0x1F DUP3 ADD AND DUP3 ADD DUP1 PUSH1 0x40 MSTORE POP DUP2 ADD SWAP1 PUSH2 0xBEA SWAP2 SWAP1 PUSH2 0x1567 JUMP JUMPDEST PUSH1 0xFF AND SWAP1 POP JUMPDEST PUSH1 0x0 PUSH2 0xC19 PUSH2 0xC00 DUP4 PUSH1 0xA PUSH2 0x1990 JUMP JUMPDEST PUSH1 0x40 DUP8 ADD MLOAD PUSH1 0x20 DUP9 ADD MLOAD PUSH2 0xC13 SWAP2 PUSH2 0xF05 JUMP JUMPDEST SWAP1 PUSH2 0xF1A JUMP JUMPDEST SWAP1 POP PUSH1 0x0 PUSH2 0xC3A PUSH2 0x2710 PUSH2 0xC13 DUP9 PUSH1 0x60 ADD MLOAD DUP6 PUSH2 0xF05 SWAP1 SWAP2 SWAP1 PUSH4 0xFFFFFFFF AND JUMP JUMPDEST SWAP1 POP PUSH1 0x0 PUSH2 0xC5F PUSH2 0x2710 PUSH2 0xC13 DUP10 PUSH1 0x80 ADD MLOAD DUP11 PUSH1 0x40 ADD MLOAD PUSH2 0xF05 SWAP1 SWAP2 SWAP1 PUSH4 0xFFFFFFFF AND JUMP JUMPDEST SWAP1 POP PUSH1 0x0 PUSH2 0xC7A DUP3 DUP10 PUSH1 0x40 ADD MLOAD PUSH2 0xF26 SWAP1 SWAP2 SWAP1 PUSH4 0xFFFFFFFF AND JUMP JUMPDEST SWAP1 POP PUSH1 0x0 PUSH2 0xC9B PUSH2 0x2710 PUSH2 0xC13 DUP12 PUSH1 0xA0 ADD MLOAD DUP6 PUSH2 0xF05 SWAP1 SWAP2 SWAP1 PUSH4 0xFFFFFFFF AND JUMP JUMPDEST SWAP1 POP PUSH1 0x0 PUSH2 0xCBD PUSH2 0xCAD DUP9 PUSH1 0xA PUSH2 0x1990 JUMP JUMPDEST PUSH1 0xC0 DUP13 ADD MLOAD PUSH2 0xC13 SWAP1 DUP6 SWAP1 PUSH2 0xF05 JUMP JUMPDEST SWAP1 POP PUSH1 0x0 PUSH2 0xCD5 DUP3 PUSH2 0xCCF DUP10 DUP10 PUSH2 0xF32 JUMP JUMPDEST SWAP1 PUSH2 0xF32 JUMP JUMPDEST SWAP12 SWAP2 SWAP11 POP SWAP1 SWAP9 POP POP POP POP POP POP POP POP POP JUMP JUMPDEST PUSH1 0x60 PUSH1 0x7 DUP1 SLOAD DUP1 PUSH1 0x20 MUL PUSH1 0x20 ADD PUSH1 0x40 MLOAD SWAP1 DUP2 ADD PUSH1 0x40 MSTORE DUP1 SWAP3 SWAP2 SWAP1 DUP2 DUP2 MSTORE PUSH1 0x20 ADD DUP3 DUP1 SLOAD DUP1 ISZERO PUSH2 0xD3E JUMPI PUSH1 0x20 MUL DUP3 ADD SWAP2 SWAP1 PUSH1 0x0 MSTORE PUSH1 0x20 PUSH1 0x0 KECCAK256 SWAP1 JUMPDEST DUP2 SLOAD PUSH1 0x1 PUSH1 0x1 PUSH1 0xA0 SHL SUB AND DUP2 MSTORE PUSH1 0x1 SWAP1 SWAP2 ADD SWAP1 PUSH1 0x20 ADD DUP1 DUP4 GT PUSH2 0xD20 JUMPI JUMPDEST POP POP POP POP POP SWAP1 POP SWAP1 JUMP JUMPDEST PUSH2 0xD50 PUSH2 0xDC1 JUMP JUMPDEST PUSH1 0x1 PUSH1 0x1 PUSH1 0xA0 SHL SUB DUP2 AND PUSH2 0xDB5 JUMPI PUSH1 0x40 MLOAD PUSH3 0x461BCD PUSH1 0xE5 SHL DUP2 MSTORE PUSH1 0x20 PUSH1 0x4 DUP3 ADD MSTORE PUSH1 0x26 PUSH1 0x24 DUP3 ADD MSTORE PUSH32 0x4F776E61626C653A206E6577206F776E657220697320746865207A65726F2061 PUSH1 0x44 DUP3 ADD MSTORE PUSH6 0x646472657373 PUSH1 0xD0 SHL PUSH1 0x64 DUP3 ADD MSTORE PUSH1 0x84 ADD PUSH2 0x46B JUMP JUMPDEST PUSH2 0xDBE DUP2 PUSH2 0xEB5 JUMP JUMPDEST POP JUMP JUMPDEST PUSH1 0x0 SLOAD PUSH1 0x1 PUSH1 0x1 PUSH1 0xA0 SHL SUB AND CALLER EQ PUSH2 0xAEC JUMPI PUSH1 0x40 MLOAD PUSH3 0x461BCD PUSH1 0xE5 SHL DUP2 MSTORE PUSH1 0x20 PUSH1 0x4 DUP3 ADD DUP2 SWAP1 MSTORE PUSH1 0x24 DUP3 ADD MSTORE PUSH32 0x4F776E61626C653A2063616C6C6572206973206E6F7420746865206F776E6572 PUSH1 0x44 DUP3 ADD MSTORE PUSH1 0x64 ADD PUSH2 0x46B JUMP JUMPDEST PUSH1 0x0 PUSH23 0x3D602D80600A3D3981F3363D3D373D3D3D363D73000000 DUP3 PUSH1 0x60 SHL PUSH1 0xE8 SHR OR PUSH1 0x0 MSTORE PUSH15 0x5AF43D82803E903D91602B57FD5BF3 DUP3 PUSH1 0x78 SHL OR PUSH1 0x20 MSTORE PUSH1 0x37 PUSH1 0x9 PUSH1 0x0 CREATE SWAP1 POP PUSH1 0x1 PUSH1 0x1 PUSH1 0xA0 SHL SUB DUP2 AND PUSH2 0xEB0 JUMPI PUSH1 0x40 MLOAD PUSH3 0x461BCD PUSH1 0xE5 SHL DUP2 MSTORE PUSH1 0x20 PUSH1 0x4 DUP3 ADD MSTORE PUSH1 0x16 PUSH1 0x24 DUP3 ADD MSTORE PUSH22 0x115490CC4C4D8DCE8818DC99585D194819985A5B1959 PUSH1 0x52 SHL PUSH1 0x44 DUP3 ADD MSTORE PUSH1 0x64 ADD PUSH2 0x46B JUMP JUMPDEST SWAP2 SWAP1 POP JUMP JUMPDEST PUSH1 0x0 DUP1 SLOAD PUSH1 0x1 PUSH1 0x1 PUSH1 0xA0 SHL SUB DUP4 DUP2 AND PUSH1 0x1 PUSH1 0x1 PUSH1 0xA0 SHL SUB NOT DUP4 AND DUP2 OR DUP5 SSTORE PUSH1 0x40 MLOAD SWAP2 SWAP1 SWAP3 AND SWAP3 DUP4 SWAP2 PUSH32 0x8BE0079C531659141344CD1FD0A4F28419497F9722A3DAAFE3B4186F6B6457E0 SWAP2 SWAP1 LOG3 POP POP JUMP JUMPDEST PUSH1 0x0 PUSH2 0xF11 DUP3 DUP5 PUSH2 0x1895 JUMP JUMPDEST SWAP1 POP JUMPDEST SWAP3 SWAP2 POP POP JUMP JUMPDEST PUSH1 0x0 PUSH2 0xF11 DUP3 DUP5 PUSH2 0x199C JUMP JUMPDEST PUSH1 0x0 PUSH2 0xF11 DUP3 DUP5 PUSH2 0x19BE JUMP JUMPDEST PUSH1 0x0 PUSH2 0xF11 DUP3 DUP5 PUSH2 0x19D1 JUMP JUMPDEST PUSH1 0x0 PUSH1 0x20 DUP3 DUP5 SUB SLT ISZERO PUSH2 0xF50 JUMPI PUSH1 0x0 DUP1 REVERT JUMPDEST POP CALLDATALOAD SWAP2 SWAP1 POP JUMP JUMPDEST PUSH4 0x4E487B71 PUSH1 0xE0 SHL PUSH1 0x0 MSTORE PUSH1 0x41 PUSH1 0x4 MSTORE PUSH1 0x24 PUSH1 0x0 REVERT JUMPDEST PUSH1 0x40 MLOAD PUSH2 0x140 DUP2 ADD PUSH8 0xFFFFFFFFFFFFFFFF DUP2 GT DUP3 DUP3 LT OR ISZERO PUSH2 0xF91 JUMPI PUSH2 0xF91 PUSH2 0xF57 JUMP JUMPDEST PUSH1 0x40 MSTORE SWAP1 JUMP JUMPDEST PUSH1 0x40 MLOAD PUSH2 0x160 DUP2 ADD PUSH8 0xFFFFFFFFFFFFFFFF DUP2 GT DUP3 DUP3 LT OR ISZERO PUSH2 0xF91 JUMPI PUSH2 0xF91 PUSH2 0xF57 JUMP JUMPDEST PUSH1 0x1 PUSH1 0x1 PUSH1 0xA0 SHL SUB DUP2 AND DUP2 EQ PUSH2 0xDBE JUMPI PUSH1 0x0 DUP1 REVERT JUMPDEST DUP1 CALLDATALOAD PUSH2 0xEB0 DUP2 PUSH2 0xFBB JUMP JUMPDEST PUSH1 0x0 PUSH1 0x60 DUP3 DUP5 SUB SLT ISZERO PUSH2 0xFED JUMPI PUSH1 0x0 DUP1 REVERT JUMPDEST PUSH1 0x40 MLOAD PUSH1 0x60 DUP2 ADD DUP2 DUP2 LT PUSH8 0xFFFFFFFFFFFFFFFF DUP3 GT OR ISZERO PUSH2 0x1010 JUMPI PUSH2 0x1010 PUSH2 0xF57 JUMP JUMPDEST DUP1 PUSH1 0x40 MSTORE POP DUP1 SWAP2 POP DUP3 CALLDATALOAD DUP2 MSTORE PUSH1 0x20 DUP4 ADD CALLDATALOAD PUSH1 0x20 DUP3 ADD MSTORE PUSH1 0x40 DUP4 ADD CALLDATALOAD PUSH1 0x40 DUP3 ADD MSTORE POP SWAP3 SWAP2 POP POP JUMP JUMPDEST DUP1 ISZERO ISZERO DUP2 EQ PUSH2 0xDBE JUMPI PUSH1 0x0 DUP1 REVERT JUMPDEST PUSH1 0x0 PUSH1 0xC0 DUP3 DUP5 SUB SLT ISZERO PUSH2 0x1057 JUMPI PUSH1 0x0 DUP1 REVERT JUMPDEST PUSH1 0x40 MLOAD PUSH1 0xC0 DUP2 ADD DUP2 DUP2 LT PUSH8 0xFFFFFFFFFFFFFFFF DUP3 GT OR ISZERO PUSH2 0x107A JUMPI PUSH2 0x107A PUSH2 0xF57 JUMP JUMPDEST PUSH1 0x40 MSTORE SWAP1 POP DUP1 DUP3 CALLDATALOAD PUSH2 0x108B DUP2 PUSH2 0x1037 JUMP JUMPDEST DUP2 MSTORE PUSH1 0x20 DUP4 ADD CALLDATALOAD PUSH2 0x109B DUP2 PUSH2 0xFBB JUMP JUMPDEST PUSH1 0x20 DUP3 ADD MSTORE PUSH1 0x40 DUP4 ADD CALLDATALOAD PUSH2 0x10AE DUP2 PUSH2 0xFBB JUMP JUMPDEST DUP1 PUSH1 0x40 DUP4 ADD MSTORE POP PUSH1 0x60 DUP4 ADD CALLDATALOAD PUSH1 0x60 DUP3 ADD MSTORE PUSH1 0x80 DUP4 ADD CALLDATALOAD PUSH1 0x80 DUP3 ADD MSTORE PUSH1 0xA0 DUP4 ADD CALLDATALOAD PUSH1 0xA0 DUP3 ADD MSTORE POP SWAP3 SWAP2 POP POP JUMP JUMPDEST PUSH1 0x0 PUSH1 0x40 DUP3 DUP5 SUB SLT ISZERO PUSH2 0x10EC JUMPI PUSH1 0x0 DUP1 REVERT JUMPDEST PUSH1 0x40 MLOAD PUSH1 0x40 DUP2 ADD DUP2 DUP2 LT PUSH8 0xFFFFFFFFFFFFFFFF DUP3 GT OR ISZERO PUSH2 0x110F JUMPI PUSH2 0x110F PUSH2 0xF57 JUMP JUMPDEST PUSH1 0x40 MSTORE DUP3 CALLDATALOAD DUP2 MSTORE PUSH1 0x20 SWAP3 DUP4 ADD CALLDATALOAD SWAP3 DUP2 ADD SWAP3 SWAP1 SWAP3 MSTORE POP SWAP2 SWAP1 POP JUMP JUMPDEST PUSH1 0x0 DUP3 PUSH1 0x1F DUP4 ADD SLT PUSH2 0x113A JUMPI PUSH1 0x0 DUP1 REVERT JUMPDEST DUP2 CALLDATALOAD PUSH8 0xFFFFFFFFFFFFFFFF DUP1 DUP3 GT ISZERO PUSH2 0x1155 JUMPI PUSH2 0x1155 PUSH2 0xF57 JUMP JUMPDEST PUSH1 0x40 MLOAD PUSH1 0x1F DUP4 ADD PUSH1 0x1F NOT SWAP1 DUP2 AND PUSH1 0x3F ADD AND DUP2 ADD SWAP1 DUP3 DUP3 GT DUP2 DUP4 LT OR ISZERO PUSH2 0x117D JUMPI PUSH2 0x117D PUSH2 0xF57 JUMP JUMPDEST DUP2 PUSH1 0x40 MSTORE DUP4 DUP2 MSTORE DUP7 PUSH1 0x20 DUP6 DUP9 ADD ADD GT ISZERO PUSH2 0x1196 JUMPI PUSH1 0x0 DUP1 REVERT JUMPDEST DUP4 PUSH1 0x20 DUP8 ADD PUSH1 0x20 DUP4 ADD CALLDATACOPY PUSH1 0x0 PUSH1 0x20 DUP6 DUP4 ADD ADD MSTORE DUP1 SWAP5 POP POP POP POP POP SWAP3 SWAP2 POP POP JUMP JUMPDEST PUSH1 0x0 PUSH2 0x140 DUP3 DUP5 SUB SLT ISZERO PUSH2 0x11C9 JUMPI PUSH1 0x0 DUP1 REVERT JUMPDEST PUSH2 0x11D1 PUSH2 0xF6D JUMP JUMPDEST SWAP1 POP DUP2 CALLDATALOAD PUSH8 0xFFFFFFFFFFFFFFFF DUP1 DUP3 GT ISZERO PUSH2 0x11EB JUMPI PUSH1 0x0 DUP1 REVERT JUMPDEST PUSH2 0x11F7 DUP6 DUP4 DUP7 ADD PUSH2 0x1129 JUMP JUMPDEST DUP4 MSTORE PUSH1 0x20 DUP5 ADD CALLDATALOAD SWAP2 POP DUP1 DUP3 GT ISZERO PUSH2 0x120D JUMPI PUSH1 0x0 DUP1 REVERT JUMPDEST PUSH2 0x1219 DUP6 DUP4 DUP7 ADD PUSH2 0x1129 JUMP JUMPDEST PUSH1 0x20 DUP5 ADD MSTORE PUSH1 0x40 DUP5 ADD CALLDATALOAD SWAP2 POP DUP1 DUP3 GT ISZERO PUSH2 0x1232 JUMPI PUSH1 0x0 DUP1 REVERT JUMPDEST PUSH2 0x123E DUP6 DUP4 DUP7 ADD PUSH2 0x1129 JUMP JUMPDEST PUSH1 0x40 DUP5 ADD MSTORE PUSH1 0x60 DUP5 ADD CALLDATALOAD SWAP2 POP DUP1 DUP3 GT ISZERO PUSH2 0x1257 JUMPI PUSH1 0x0 DUP1 REVERT JUMPDEST PUSH2 0x1263 DUP6 DUP4 DUP7 ADD PUSH2 0x1129 JUMP JUMPDEST PUSH1 0x60 DUP5 ADD MSTORE PUSH1 0x80 DUP5 ADD CALLDATALOAD SWAP2 POP DUP1 DUP3 GT ISZERO PUSH2 0x127C JUMPI PUSH1 0x0 DUP1 REVERT JUMPDEST PUSH2 0x1288 DUP6 DUP4 DUP7 ADD PUSH2 0x1129 JUMP JUMPDEST PUSH1 0x80 DUP5 ADD MSTORE PUSH1 0xA0 DUP5 ADD CALLDATALOAD SWAP2 POP DUP1 DUP3 GT ISZERO PUSH2 0x12A1 JUMPI PUSH1 0x0 DUP1 REVERT JUMPDEST PUSH2 0x12AD DUP6 DUP4 DUP7 ADD PUSH2 0x1129 JUMP JUMPDEST PUSH1 0xA0 DUP5 ADD MSTORE PUSH1 0xC0 DUP5 ADD CALLDATALOAD SWAP2 POP DUP1 DUP3 GT ISZERO PUSH2 0x12C6 JUMPI PUSH1 0x0 DUP1 REVERT JUMPDEST PUSH2 0x12D2 DUP6 DUP4 DUP7 ADD PUSH2 0x1129 JUMP JUMPDEST PUSH1 0xC0 DUP5 ADD MSTORE PUSH1 0xE0 DUP5 ADD CALLDATALOAD SWAP2 POP DUP1 DUP3 GT ISZERO PUSH2 0x12EB JUMPI PUSH1 0x0 DUP1 REVERT JUMPDEST PUSH2 0x12F7 DUP6 DUP4 DUP7 ADD PUSH2 0x1129 JUMP JUMPDEST PUSH1 0xE0 DUP5 ADD MSTORE PUSH2 0x100 SWAP2 POP DUP2 DUP5 ADD CALLDATALOAD DUP2 DUP2 GT ISZERO PUSH2 0x1312 JUMPI PUSH1 0x0 DUP1 REVERT JUMPDEST PUSH2 0x131E DUP7 DUP3 DUP8 ADD PUSH2 0x1129 JUMP JUMPDEST DUP4 DUP6 ADD MSTORE POP PUSH2 0x120 SWAP2 POP DUP2 DUP5 ADD CALLDATALOAD DUP2 DUP2 GT ISZERO PUSH2 0x1339 JUMPI PUSH1 0x0 DUP1 REVERT JUMPDEST PUSH2 0x1345 DUP7 DUP3 DUP8 ADD PUSH2 0x1129 JUMP JUMPDEST DUP4 DUP6 ADD MSTORE POP POP POP SWAP3 SWAP2 POP POP JUMP JUMPDEST PUSH1 0x0 DUP1 PUSH1 0x0 DUP1 PUSH1 0x0 DUP6 DUP8 SUB PUSH2 0x2E0 DUP2 SLT ISZERO PUSH2 0x136C JUMPI PUSH1 0x0 DUP1 REVERT JUMPDEST PUSH2 0x160 DUP1 DUP3 SLT ISZERO PUSH2 0x137C JUMPI PUSH1 0x0 DUP1 REVERT JUMPDEST PUSH2 0x1384 PUSH2 0xF97 JUMP JUMPDEST SWAP2 POP PUSH2 0x138F DUP9 PUSH2 0xFD0 JUMP JUMPDEST DUP3 MSTORE PUSH2 0x139D PUSH1 0x20 DUP10 ADD PUSH2 0xFD0 JUMP JUMPDEST PUSH1 0x20 DUP4 ADD MSTORE PUSH1 0x40 DUP9 ADD CALLDATALOAD PUSH1 0x40 DUP4 ADD MSTORE PUSH1 0x60 DUP9 ADD CALLDATALOAD PUSH1 0x60 DUP4 ADD MSTORE PUSH1 0x80 DUP9 ADD CALLDATALOAD PUSH1 0x80 DUP4 ADD MSTORE PUSH1 0xA0 DUP9 ADD CALLDATALOAD PUSH1 0xA0 DUP4 ADD MSTORE PUSH1 0xC0 DUP9 ADD CALLDATALOAD PUSH1 0xC0 DUP4 ADD MSTORE PUSH1 0xE0 DUP9 ADD CALLDATALOAD PUSH1 0xE0 DUP4 ADD MSTORE PUSH2 0x100 DUP1 DUP10 ADD CALLDATALOAD DUP2 DUP5 ADD MSTORE POP PUSH2 0x120 DUP1 DUP10 ADD CALLDATALOAD DUP2 DUP5 ADD MSTORE POP PUSH2 0x140 DUP1 DUP10 ADD CALLDATALOAD DUP2 DUP5 ADD MSTORE POP DUP2 SWAP7 POP PUSH2 0x1411 DUP10 DUP3 DUP11 ADD PUSH2 0xFDB JUMP JUMPDEST SWAP6 POP POP POP PUSH2 0x1423 DUP8 PUSH2 0x1C0 DUP9 ADD PUSH2 0x1045 JUMP JUMPDEST SWAP3 POP PUSH2 0x1433 DUP8 PUSH2 0x280 DUP9 ADD PUSH2 0x10DA JUMP JUMPDEST SWAP2 POP PUSH2 0x2C0 DUP7 ADD CALLDATALOAD PUSH8 0xFFFFFFFFFFFFFFFF DUP2 GT ISZERO PUSH2 0x1450 JUMPI PUSH1 0x0 DUP1 REVERT JUMPDEST PUSH2 0x145C DUP9 DUP3 DUP10 ADD PUSH2 0x11B6 JUMP JUMPDEST SWAP2 POP POP SWAP3 SWAP6 POP SWAP3 SWAP6 SWAP1 SWAP4 POP JUMP JUMPDEST PUSH1 0x0 PUSH1 0x20 DUP3 DUP5 SUB SLT ISZERO PUSH2 0x147B JUMPI PUSH1 0x0 DUP1 REVERT JUMPDEST DUP2 CALLDATALOAD PUSH2 0x1486 DUP2 PUSH2 0xFBB JUMP JUMPDEST SWAP4 SWAP3 POP POP POP JUMP JUMPDEST PUSH1 0x20 DUP1 DUP3 MSTORE DUP3 MLOAD DUP3 DUP3 ADD DUP2 SWAP1 MSTORE PUSH1 0x0 SWAP2 SWAP1 DUP5 DUP3 ADD SWAP1 PUSH1 0x40 DUP6 ADD SWAP1 DUP5 JUMPDEST DUP2 DUP2 LT ISZERO PUSH2 0x14CE JUMPI DUP4 MLOAD PUSH1 0x1 PUSH1 0x1 PUSH1 0xA0 SHL SUB AND DUP4 MSTORE SWAP3 DUP5 ADD SWAP3 SWAP2 DUP5 ADD SWAP2 PUSH1 0x1 ADD PUSH2 0x14A9 JUMP JUMPDEST POP SWAP1 SWAP7 SWAP6 POP POP POP POP POP POP JUMP JUMPDEST PUSH1 0x0 PUSH1 0xE0 DUP3 DUP5 SUB SLT ISZERO PUSH2 0x14EC JUMPI PUSH1 0x0 DUP1 REVERT JUMPDEST PUSH1 0x40 MLOAD PUSH1 0xE0 DUP2 ADD DUP2 DUP2 LT PUSH8 0xFFFFFFFFFFFFFFFF DUP3 GT OR ISZERO PUSH2 0x150F JUMPI PUSH2 0x150F PUSH2 0xF57 JUMP JUMPDEST PUSH1 0x40 MSTORE DUP3 CALLDATALOAD PUSH2 0x151D DUP2 PUSH2 0xFBB JUMP JUMPDEST DUP1 DUP3 MSTORE POP PUSH1 0x20 DUP4 ADD CALLDATALOAD PUSH1 0x20 DUP3 ADD MSTORE PUSH1 0x40 DUP4 ADD CALLDATALOAD PUSH1 0x40 DUP3 ADD MSTORE PUSH1 0x60 DUP4 ADD CALLDATALOAD PUSH1 0x60 DUP3 ADD MSTORE PUSH1 0x80 DUP4 ADD CALLDATALOAD PUSH1 0x80 DUP3 ADD MSTORE PUSH1 0xA0 DUP4 ADD CALLDATALOAD PUSH1 0xA0 DUP3 ADD MSTORE PUSH1 0xC0 DUP4 ADD CALLDATALOAD PUSH1 0xC0 DUP3 ADD MSTORE DUP1 SWAP2 POP POP SWAP3 SWAP2 POP POP JUMP JUMPDEST PUSH1 0x0 PUSH1 0x20 DUP3 DUP5 SUB SLT ISZERO PUSH2 0x1579 JUMPI PUSH1 0x0 DUP1 REVERT JUMPDEST DUP2 MLOAD PUSH1 0xFF DUP2 AND DUP2 EQ PUSH2 0x1486 JUMPI PUSH1 0x0 DUP1 REVERT JUMPDEST PUSH1 0x0 DUP2 MLOAD DUP1 DUP5 MSTORE PUSH1 0x0 JUMPDEST DUP2 DUP2 LT ISZERO PUSH2 0x15B0 JUMPI PUSH1 0x20 DUP2 DUP6 ADD DUP2 ADD MLOAD DUP7 DUP4 ADD DUP3 ADD MSTORE ADD PUSH2 0x1594 JUMP JUMPDEST POP PUSH1 0x0 PUSH1 0x20 DUP3 DUP7 ADD ADD MSTORE PUSH1 0x20 PUSH1 0x1F NOT PUSH1 0x1F DUP4 ADD AND DUP6 ADD ADD SWAP2 POP POP SWAP3 SWAP2 POP POP JUMP JUMPDEST PUSH1 0x0 PUSH2 0x140 DUP3 MLOAD DUP2 DUP6 MSTORE PUSH2 0x15E6 DUP3 DUP7 ADD DUP3 PUSH2 0x158A JUMP JUMPDEST SWAP2 POP POP PUSH1 0x20 DUP4 ADD MLOAD DUP5 DUP3 SUB PUSH1 0x20 DUP7 ADD MSTORE PUSH2 0x1600 DUP3 DUP3 PUSH2 0x158A JUMP JUMPDEST SWAP2 POP POP PUSH1 0x40 DUP4 ADD MLOAD DUP5 DUP3 SUB PUSH1 0x40 DUP7 ADD MSTORE PUSH2 0x161A DUP3 DUP3 PUSH2 0x158A JUMP JUMPDEST SWAP2 POP POP PUSH1 0x60 DUP4 ADD MLOAD DUP5 DUP3 SUB PUSH1 0x60 DUP7 ADD MSTORE PUSH2 0x1634 DUP3 DUP3 PUSH2 0x158A JUMP JUMPDEST SWAP2 POP POP PUSH1 0x80 DUP4 ADD MLOAD DUP5 DUP3 SUB PUSH1 0x80 DUP7 ADD MSTORE PUSH2 0x164E DUP3 DUP3 PUSH2 0x158A JUMP JUMPDEST SWAP2 POP POP PUSH1 0xA0 DUP4 ADD MLOAD DUP5 DUP3 SUB PUSH1 0xA0 DUP7 ADD MSTORE PUSH2 0x1668 DUP3 DUP3 PUSH2 0x158A JUMP JUMPDEST SWAP2 POP POP PUSH1 0xC0 DUP4 ADD MLOAD DUP5 DUP3 SUB PUSH1 0xC0 DUP7 ADD MSTORE PUSH2 0x1682 DUP3 DUP3 PUSH2 0x158A JUMP JUMPDEST SWAP2 POP POP PUSH1 0xE0 DUP4 ADD MLOAD DUP5 DUP3 SUB PUSH1 0xE0 DUP7 ADD MSTORE PUSH2 0x169C DUP3 DUP3 PUSH2 0x158A JUMP JUMPDEST SWAP2 POP POP PUSH2 0x100 DUP1 DUP5 ADD MLOAD DUP6 DUP4 SUB DUP3 DUP8 ADD MSTORE PUSH2 0x16B7 DUP4 DUP3 PUSH2 0x158A JUMP JUMPDEST SWAP3 POP POP POP PUSH2 0x120 DUP1 DUP5 ADD MLOAD DUP6 DUP4 SUB DUP3 DUP8 ADD MSTORE PUSH2 0x16D3 DUP4 DUP3 PUSH2 0x158A JUMP JUMPDEST SWAP7 SWAP6 POP POP POP POP POP POP JUMP JUMPDEST DUP9 MLOAD PUSH1 0x1 PUSH1 0x1 PUSH1 0xA0 SHL SUB AND DUP2 MSTORE PUSH1 0x0 PUSH2 0x3A0 PUSH1 0x20 DUP12 ADD MLOAD PUSH2 0x1709 PUSH1 0x20 DUP6 ADD DUP3 PUSH1 0x1 PUSH1 0x1 PUSH1 0xA0 SHL SUB AND SWAP1 MSTORE JUMP JUMPDEST POP PUSH1 0x40 DUP12 DUP2 ADD MLOAD DUP5 DUP3 ADD MSTORE PUSH1 0x60 DUP1 DUP14 ADD MLOAD SWAP1 DUP6 ADD MSTORE PUSH1 0x80 DUP1 DUP14 ADD MLOAD SWAP1 DUP6 ADD MSTORE PUSH1 0xA0 DUP1 DUP14 ADD MLOAD SWAP1 DUP6 ADD MSTORE PUSH1 0xC0 DUP1 DUP14 ADD MLOAD SWAP1 DUP6 ADD MSTORE PUSH1 0xE0 DUP1 DUP14 ADD MLOAD SWAP1 DUP6 ADD MSTORE PUSH2 0x100 DUP1 DUP14 ADD MLOAD SWAP1 DUP6 ADD MSTORE PUSH2 0x120 DUP1 DUP14 ADD MLOAD SWAP1 DUP6 ADD MSTORE PUSH2 0x140 DUP1 DUP14 ADD MLOAD SWAP1 DUP6 ADD MSTORE DUP11 MLOAD PUSH2 0x160 DUP6 ADD MSTORE PUSH1 0x20 DUP12 ADD MLOAD PUSH2 0x180 DUP6 ADD MSTORE DUP11 ADD MLOAD PUSH2 0x1A0 DUP5 ADD MSTORE DUP9 MLOAD ISZERO ISZERO PUSH2 0x1C0 DUP5 ADD MSTORE PUSH1 0x20 DUP10 ADD MLOAD PUSH1 0x1 PUSH1 0x1 PUSH1 0xA0 SHL SUB SWAP1 DUP2 AND PUSH2 0x1E0 DUP6 ADD MSTORE PUSH1 0x40 DUP11 ADD MLOAD AND PUSH2 0x200 DUP5 ADD MSTORE PUSH1 0x60 DUP10 ADD MLOAD PUSH2 0x220 DUP5 ADD MSTORE PUSH1 0x80 DUP10 ADD MLOAD PUSH2 0x240 DUP5 ADD MSTORE PUSH1 0xA0 DUP10 ADD MLOAD PUSH2 0x260 DUP5 ADD MSTORE DUP8 MLOAD PUSH2 0x280 DUP5 ADD MSTORE PUSH1 0x20 DUP9 ADD MLOAD PUSH2 0x2A0 DUP5 ADD MSTORE DUP7 MLOAD PUSH1 0x1 PUSH1 0x1 PUSH1 0xA0 SHL SUB SWAP1 DUP2 AND PUSH2 0x2C0 DUP6 ADD MSTORE PUSH1 0x20 DUP9 ADD MLOAD DUP2 AND PUSH2 0x2E0 DUP6 ADD MSTORE PUSH1 0x40 DUP9 ADD MLOAD DUP2 AND PUSH2 0x300 DUP6 ADD MSTORE PUSH1 0x60 DUP9 ADD MLOAD AND PUSH2 0x320 DUP5 ADD MSTORE DUP1 PUSH2 0x340 DUP5 ADD MSTORE PUSH2 0x182F DUP2 DUP5 ADD DUP8 PUSH2 0x15D0 JUMP JUMPDEST PUSH2 0x360 DUP5 ADD SWAP6 SWAP1 SWAP6 MSTORE POP POP PUSH2 0x380 ADD MSTORE SWAP7 SWAP6 POP POP POP POP POP POP JUMP JUMPDEST PUSH1 0x0 PUSH1 0x20 DUP3 DUP5 SUB SLT ISZERO PUSH2 0x185B JUMPI PUSH1 0x0 DUP1 REVERT JUMPDEST POP MLOAD SWAP2 SWAP1 POP JUMP JUMPDEST PUSH1 0x0 PUSH1 0x20 DUP3 DUP5 SUB SLT ISZERO PUSH2 0x1874 JUMPI PUSH1 0x0 DUP1 REVERT JUMPDEST DUP2 MLOAD PUSH2 0x1486 DUP2 PUSH2 0x1037 JUMP JUMPDEST PUSH4 0x4E487B71 PUSH1 0xE0 SHL PUSH1 0x0 MSTORE PUSH1 0x11 PUSH1 0x4 MSTORE PUSH1 0x24 PUSH1 0x0 REVERT JUMPDEST DUP1 DUP3 MUL DUP2 ISZERO DUP3 DUP3 DIV DUP5 EQ OR PUSH2 0xF14 JUMPI PUSH2 0xF14 PUSH2 0x187F JUMP JUMPDEST PUSH1 0x1 DUP2 DUP2 JUMPDEST DUP1 DUP6 GT ISZERO PUSH2 0x18E7 JUMPI DUP2 PUSH1 0x0 NOT DIV DUP3 GT ISZERO PUSH2 0x18CD JUMPI PUSH2 0x18CD PUSH2 0x187F JUMP JUMPDEST DUP1 DUP6 AND ISZERO PUSH2 0x18DA JUMPI SWAP2 DUP2 MUL SWAP2 JUMPDEST SWAP4 DUP5 SHR SWAP4 SWAP1 DUP1 MUL SWAP1 PUSH2 0x18B1 JUMP JUMPDEST POP SWAP3 POP SWAP3 SWAP1 POP JUMP JUMPDEST PUSH1 0x0 DUP3 PUSH2 0x18FE JUMPI POP PUSH1 0x1 PUSH2 0xF14 JUMP JUMPDEST DUP2 PUSH2 0x190B JUMPI POP PUSH1 0x0 PUSH2 0xF14 JUMP JUMPDEST DUP2 PUSH1 0x1 DUP2 EQ PUSH2 0x1921 JUMPI PUSH1 0x2 DUP2 EQ PUSH2 0x192B JUMPI PUSH2 0x1947 JUMP JUMPDEST PUSH1 0x1 SWAP2 POP POP PUSH2 0xF14 JUMP JUMPDEST PUSH1 0xFF DUP5 GT ISZERO PUSH2 0x193C JUMPI PUSH2 0x193C PUSH2 0x187F JUMP JUMPDEST POP POP PUSH1 0x1 DUP3 SHL PUSH2 0xF14 JUMP JUMPDEST POP PUSH1 0x20 DUP4 LT PUSH2 0x133 DUP4 LT AND PUSH1 0x4E DUP5 LT PUSH1 0xB DUP5 LT AND OR ISZERO PUSH2 0x196A JUMPI POP DUP2 DUP2 EXP PUSH2 0xF14 JUMP JUMPDEST PUSH2 0x1974 DUP4 DUP4 PUSH2 0x18AC JUMP JUMPDEST DUP1 PUSH1 0x0 NOT DIV DUP3 GT ISZERO PUSH2 0x1988 JUMPI PUSH2 0x1988 PUSH2 0x187F JUMP JUMPDEST MUL SWAP4 SWAP3 POP POP POP JUMP JUMPDEST PUSH1 0x0 PUSH2 0xF11 DUP4 DUP4 PUSH2 0x18EF JUMP JUMPDEST PUSH1 0x0 DUP3 PUSH2 0x19B9 JUMPI PUSH4 0x4E487B71 PUSH1 0xE0 SHL PUSH1 0x0 MSTORE PUSH1 0x12 PUSH1 0x4 MSTORE PUSH1 0x24 PUSH1 0x0 REVERT JUMPDEST POP DIV SWAP1 JUMP JUMPDEST DUP2 DUP2 SUB DUP2 DUP2 GT ISZERO PUSH2 0xF14 JUMPI PUSH2 0xF14 PUSH2 0x187F JUMP JUMPDEST DUP1 DUP3 ADD DUP1 DUP3 GT ISZERO PUSH2 0xF14 JUMPI PUSH2 0xF14 PUSH2 0x187F JUMP INVALID LOG2 PUSH5 0x6970667358 0x22 SLT KECCAK256 PUSH24 0xC58BEC4371EDBB1BA311619CA191BD1C075ABD487966F34B PUSH32 0x599462CDFE1064736F6C63430008120033000000000000000000000000000000 "
				},
				"gasEstimates": {
					"creation": {
						"codeDepositCost": "1336400",
						"executionCost": "infinite",
						"totalCost": "infinite"
					},
					"external": {
						"ZOOM()": "307",
						"allLaunchpads(uint256)": "4693",
						"calculateTokens((address,uint256,uint256,uint256,uint256,uint256,uint256))": "infinite",
						"deployLaunchpad((address,address,uint256,uint256,uint256,uint256,uint256,uint256,uint256,uint256,uint256),(uint256,uint256,uint256),(bool,address,address,uint256,uint256,uint256),(uint256,uint256),(string,string,string,string,string,string,string,string,string,string))": "infinite",
						"flatFee()": "2383",
						"fundAddress()": "2436",
						"implementation()": "2371",
						"owner()": "2409",
						"penaltyFeePercent()": "2362",
						"renounceOwnership()": "infinite",
						"setFlatFee(uint256)": "24512",
						"setFundAddress(address)": "26752",
						"setImplementations(address)": "26840",
						"setPenalyFeePercent(uint256)": "24649",
						"setSuperAccount(address)": "26774",
						"setVirtualLock(address)": "26752",
						"superAccount()": "2370",
						"totalLaunchpads()": "infinite",
						"totalLaunchpadsByUser(address)": "infinite",
						"transferOwnership(address)": "infinite",
						"virtualLock()": "2393"
					}
				},
				"methodIdentifiers": {
					"ZOOM()": "58e5bc88",
					"allLaunchpads(uint256)": "53aca078",
					"calculateTokens((address,uint256,uint256,uint256,uint256,uint256,uint256))": "a96df743",
					"deployLaunchpad((address,address,uint256,uint256,uint256,uint256,uint256,uint256,uint256,uint256,uint256),(uint256,uint256,uint256),(bool,address,address,uint256,uint256,uint256),(uint256,uint256),(string,string,string,string,string,string,string,string,string,string))": "49a1f14b",
					"flatFee()": "d9eb5947",
					"fundAddress()": "e82bef29",
					"implementation()": "5c60da1b",
					"owner()": "8da5cb5b",
					"penaltyFeePercent()": "8a9b66cc",
					"renounceOwnership()": "715018a6",
					"setFlatFee(uint256)": "23fa495a",
					"setFundAddress(address)": "85dc3004",
					"setImplementations(address)": "9352dace",
					"setPenalyFeePercent(uint256)": "51ae878f",
					"setSuperAccount(address)": "892f78fa",
					"setVirtualLock(address)": "5a416a36",
					"superAccount()": "b6b7913e",
					"totalLaunchpads()": "c06ca1dd",
					"totalLaunchpadsByUser(address)": "6de944dc",
					"transferOwnership(address)": "f2fde38b",
					"virtualLock()": "640f82f3"
				}
			},
			"storageLayout": {
				"storage": [
					{
						"astId": 7,
						"contract": "LaunchpadFactory/LaunchpadFactory.sol:LaunchpadFactory",
						"label": "_owner",
						"offset": 0,
						"slot": "0",
						"type": "t_address"
					},
					{
						"astId": 957,
						"contract": "LaunchpadFactory/LaunchpadFactory.sol:LaunchpadFactory",
						"label": "flatFee",
						"offset": 0,
						"slot": "1",
						"type": "t_uint256"
					},
					{
						"astId": 960,
						"contract": "LaunchpadFactory/LaunchpadFactory.sol:LaunchpadFactory",
						"label": "penaltyFeePercent",
						"offset": 0,
						"slot": "2",
						"type": "t_uint256"
					},
					{
						"astId": 962,
						"contract": "LaunchpadFactory/LaunchpadFactory.sol:LaunchpadFactory",
						"label": "superAccount",
						"offset": 0,
						"slot": "3",
						"type": "t_address"
					},
					{
						"astId": 964,
						"contract": "LaunchpadFactory/LaunchpadFactory.sol:LaunchpadFactory",
						"label": "virtualLock",
						"offset": 0,
						"slot": "4",
						"type": "t_address"
					},
					{
						"astId": 966,
						"contract": "LaunchpadFactory/LaunchpadFactory.sol:LaunchpadFactory",
						"label": "fundAddress",
						"offset": 0,
						"slot": "5",
						"type": "t_address_payable"
					},
					{
						"astId": 968,
						"contract": "LaunchpadFactory/LaunchpadFactory.sol:LaunchpadFactory",
						"label": "implementation",
						"offset": 0,
						"slot": "6",
						"type": "t_address"
					},
					{
						"astId": 972,
						"contract": "LaunchpadFactory/LaunchpadFactory.sol:LaunchpadFactory",
						"label": "allLaunchpads",
						"offset": 0,
						"slot": "7",
						"type": "t_array(t_contract(ILaunchpad)1574)dyn_storage"
					},
					{
						"astId": 978,
						"contract": "LaunchpadFactory/LaunchpadFactory.sol:LaunchpadFactory",
						"label": "allLaunchpadsOf",
						"offset": 0,
						"slot": "8",
						"type": "t_mapping(t_address,t_array(t_contract(ILaunchpad)1574)dyn_storage)"
					}
				],
				"types": {
					"t_address": {
						"encoding": "inplace",
						"label": "address",
						"numberOfBytes": "20"
					},
					"t_address_payable": {
						"encoding": "inplace",
						"label": "address payable",
						"numberOfBytes": "20"
					},
					"t_array(t_contract(ILaunchpad)1574)dyn_storage": {
						"base": "t_contract(ILaunchpad)1574",
						"encoding": "dynamic_array",
						"label": "contract ILaunchpad[]",
						"numberOfBytes": "32"
					},
					"t_contract(ILaunchpad)1574": {
						"encoding": "inplace",
						"label": "contract ILaunchpad",
						"numberOfBytes": "20"
					},
					"t_mapping(t_address,t_array(t_contract(ILaunchpad)1574)dyn_storage)": {
						"encoding": "mapping",
						"key": "t_address",
						"label": "mapping(address => contract ILaunchpad[])",
						"numberOfBytes": "32",
						"value": "t_array(t_contract(ILaunchpad)1574)dyn_storage"
					},
					"t_uint256": {
						"encoding": "inplace",
						"label": "uint256",
						"numberOfBytes": "32"
					}
				}
			},
			"userdoc": {
				"kind": "user",
				"methods": {},
				"version": 1
			}
		}
	}
}