{
	"data": {
		"bytecode": {
			"linkReferences": {},
			"object": "60806040526103e8601955600060315534801561001b57600080fd5b506000805460ff191690556154b6806100356000396000f3fe6080604052600436106104475760003560e01c806385dc300411610234578063c19d93fb1161012e578063d7ca9949116100b6578063eaf74ac51161007a578063eaf74ac514610bcc578063f86aa92d14610bec578063fb2ceb1814610c02578063fb86a40414610c69578063ff09a5b614610c7f57600080fd5b8063d7ca994914610b56578063e2d24fb714610b6c578063e7b2c08e14610b82578063e82bef2914610b97578063ea62323914610bb757600080fd5b8063c5b5c1e2116100fd578063c5b5c1e214610ae0578063c78f19f914610af6578063cf25a44214610b0c578063d2ce89e514610b2c578063d6b75a0514610b4157600080fd5b8063c19d93fb14610a8b578063c1cbbca714610aa1578063c34f699014610ab4578063c59ee1dc14610aca57600080fd5b8063ae959e71116101bc578063b96f212011610180578063b96f212014610a0c578063ba1f332a14610a2c578063ba6c0e1e14610a41578063bc4724e814610a56578063bf9c5d4514610a7657600080fd5b8063ae959e711461097f578063b1dd61b6146109a1578063b37d7654146109b7578063b773827c146109cc578063b7b7ff23146109ec57600080fd5b8063919840ad11610203578063919840ad146108fa578063966dae0e1461090f5780639779c47914610934578063a5f8a66514610949578063a7b128461461096957600080fd5b806385dc3004146108995780638e5e721f146108b9578063906a26e0146108cf57806390d1576d146108e557600080fd5b8063421cc33711610345578063640f82f3116102cd578063779f635011610291578063779f63501461081f57806378e97925146108345780637d1477c61461084a5780637f33395b146108645780638456cb591461088457600080fd5b8063640f82f31461079f578063647846a5146107bf57806370c0345c146107df5780637284e416146107f55780637344070b1461080a57600080fd5b806357801e6f1161031457806357801e6f1461071a578063584f4d411461073a57806358e5bc881461074f5780635c975abb1461076557806363fd9e381461078957600080fd5b8063421cc337146106af57806342f39381146106cf57806348c54b9d146106e557806354533282146106fa57600080fd5b80632e6f130f116103d3578063334b202211610397578063334b20221461064457806333b1474214610659578063343fe61b1461066f5780633dc10ad4146106845780633f4ba83a1461069a57600080fd5b80632e6f130f146105c05780632ee88649146105e25780633110235a146105f85780633197cbb61461060e5780633268cc561461062457600080fd5b80632347d7541161041a5780632347d754146104cd57806326009dca146104ed578063260c2cec1461054657806327b12bb21461057e57806327c8f835146105a057600080fd5b80630782f8f01461044c5780631619c8771461046e57806318a75e951461048e5780631cafeecc146104b7575b600080fd5b34801561045857600080fd5b5061046c610467366004614d33565b610c95565b005b34801561047a57600080fd5b5061046c610489366004614d33565b610cd6565b34801561049a57600080fd5b506104a460155481565b6040519081526020015b60405180910390f35b3480156104c357600080fd5b506104a460145481565b3480156104d957600080fd5b5061046c6104e8366004614aed565b610d53565b3480156104f957600080fd5b5061050d610508366004614a4e565b610dca565b6040516104ae91908151151581526020808301519082015260408083015115159082015260609182015115159181019190915260800190565b34801561055257600080fd5b50600854610566906001600160a01b031681565b6040516001600160a01b0390911681526020016104ae565b34801561058a57600080fd5b50610593610e8f565b6040516104ae9190614f4b565b3480156105ac57600080fd5b50603054610566906001600160a01b031681565b3480156105cc57600080fd5b506105d56115b0565b6040516104ae9190614e6d565b3480156105ee57600080fd5b506104a4602b5481565b34801561060457600080fd5b506104a4600e5481565b34801561061a57600080fd5b506104a460105481565b34801561063057600080fd5b50601b54610566906001600160a01b031681565b34801561065057600080fd5b506105d561163e565b34801561066557600080fd5b506104a460165481565b34801561067b57600080fd5b506105d561164b565b34801561069057600080fd5b506104a460195481565b3480156106a657600080fd5b5061046c611658565b3480156106bb57600080fd5b5061046c6106ca366004614d33565b611691565b3480156106db57600080fd5b506104a4600c5481565b3480156106f157600080fd5b5061046c6116ff565b34801561070657600080fd5b5061046c610715366004614aed565b6118c0565b34801561072657600080fd5b5061046c610735366004614bc2565b611933565b34801561074657600080fd5b5061046c611e67565b34801561075b57600080fd5b506104a461271081565b34801561077157600080fd5b5060005460ff165b60405190151581526020016104ae565b34801561079557600080fd5b506104a4600d5481565b3480156107ab57600080fd5b50602954610566906001600160a01b031681565b3480156107cb57600080fd5b50600954610566906001600160a01b031681565b3480156107eb57600080fd5b506104a460315481565b34801561080157600080fd5b506105d5611fbb565b34801561081657600080fd5b506105d5611fc8565b34801561082b57600080fd5b506105d5611fd5565b34801561084057600080fd5b506104a4600f5481565b34801561085657600080fd5b50601a546107799060ff1681565b34801561087057600080fd5b50600754610566906001600160a01b031681565b34801561089057600080fd5b5061046c611fe2565b3480156108a557600080fd5b5061046c6108b4366004614a4e565b612019565b3480156108c557600080fd5b506104a4602c5481565b3480156108db57600080fd5b506104a4600a5481565b3480156108f157600080fd5b5061046c612062565b34801561090657600080fd5b50610779612300565b34801561091b57600080fd5b50601a546105669061010090046001600160a01b031681565b34801561094057600080fd5b506105d5612338565b34801561095557600080fd5b5061046c610964366004614a88565b612345565b34801561097557600080fd5b506104a4601e5481565b34801561098b57600080fd5b506109946123a4565b6040516104ae9190614e20565b3480156109ad57600080fd5b506104a460115481565b3480156109c357600080fd5b506105d5612490565b3480156109d857600080fd5b5061046c6109e7366004614aed565b61249d565b3480156109f857600080fd5b5061046c610a07366004614cff565b612510565b348015610a1857600080fd5b5061046c610a27366004614aed565b612657565b348015610a3857600080fd5b506104a46126ca565b348015610a4d57600080fd5b5061046c6126d6565b348015610a6257600080fd5b5061046c610a71366004614ac1565b612726565b348015610a8257600080fd5b5061046c6127b7565b348015610a9757600080fd5b506104a460175481565b61046c610aaf366004614d33565b612a7c565b348015610ac057600080fd5b506104a4602d5481565b348015610ad657600080fd5b506104a460185481565b348015610aec57600080fd5b506104a460125481565b348015610b0257600080fd5b506104a4601c5481565b348015610b1857600080fd5b506104a4610b27366004614a4e565b612d43565b348015610b3857600080fd5b506105d5612da2565b348015610b4d57600080fd5b50610994612daf565b348015610b6257600080fd5b506104a4602f5481565b348015610b7857600080fd5b506104a4601d5481565b348015610b8e57600080fd5b506105d5612dbb565b348015610ba357600080fd5b50602e54610566906001600160a01b031681565b348015610bc357600080fd5b5061046c612dc8565b348015610bd857600080fd5b50610994610be7366004614d65565b6139b0565b348015610bf857600080fd5b506104a4602a5481565b348015610c0e57600080fd5b50610c47610c1d366004614a4e565b60326020526000908152604090208054600182015460028301546003909301549192909160ff1684565b60408051948552602085019390935291830152151560608201526080016104ae565b348015610c7557600080fd5b506104a4600b5481565b348015610c8b57600080fd5b506104a460135481565b610ca0600333613ac5565b610cc55760405162461bcd60e51b8152600401610cbc90614e80565b60405180910390fd5b610cd081606461534d565b60195550565b610ce1600133613ac5565b610cfd5760405162461bcd60e51b8152600401610cbc90614eaf565b6001811115610d4e5760405162461bcd60e51b815260206004820152601a60248201527f4c616e63687061643a2073657457686974656c697374506f6f6c0000000000006044820152606401610cbc565b601255565b610d5e600133613ac5565b610d7a5760405162461bcd60e51b8152600401610cbc90614eaf565b60005b8151811015610dc657610db3828281518110610d9b57610d9b615431565b60200260200101516005613ae790919063ffffffff16565b5080610dbe816153ea565b915050610d7d565b5050565b6040805160808101825260008082526020820181905291810182905260608101919091526040805160808101825260008082526020820181905291810182905260608101919091526007546001600160a01b0384811691161480610e2f575092915050565b80151582526012546020830152601754600114606083018190528015610e81575060105442108015610e655750600b5460185410155b80610e8157506010544210158015610e815750600a5460185410155b151560408301525092915050565b610e976144dc565b6008546040516370a0823160e01b81523060048201526000916001600160a01b0316906370a082319060240160206040518083038186803b158015610edb57600080fd5b505afa158015610eef573d6000803e3d6000fd5b505050506040513d601f19601f82011682018060405250810190610f139190614d4c565b9050610f1d6144dc565b600a548152600b546020820152600f5460408201526010546060820152601754608082015260185460a082015260c081018290526009546001600160a01b031660e0820152601654610100820152601254610120820152601f8054610f81906153af565b80601f0160208091040260200160405190810160405280929190818152602001828054610fad906153af565b8015610ffa5780601f10610fcf57610100808354040283529160200191610ffa565b820191906000526020600020905b815481529060010190602001808311610fdd57829003601f168201915b505050505081610140018190525060208054611015906153af565b80601f0160208091040260200160405190810160405280929190818152602001828054611041906153af565b801561108e5780601f106110635761010080835404028352916020019161108e565b820191906000526020600020905b81548152906001019060200180831161107157829003601f168201915b5050505050816101600181905250602180546110a9906153af565b80601f01602080910402602001604051908101604052809291908181526020018280546110d5906153af565b80156111225780601f106110f757610100808354040283529160200191611122565b820191906000526020600020905b81548152906001019060200180831161110557829003601f168201915b50505050508161018001819052506022805461113d906153af565b80601f0160208091040260200160405190810160405280929190818152602001828054611169906153af565b80156111b65780601f1061118b576101008083540402835291602001916111b6565b820191906000526020600020905b81548152906001019060200180831161119957829003601f168201915b5050505050816101a00181905250602380546111d1906153af565b80601f01602080910402602001604051908101604052809291908181526020018280546111fd906153af565b801561124a5780601f1061121f5761010080835404028352916020019161124a565b820191906000526020600020905b81548152906001019060200180831161122d57829003601f168201915b5050505050816101c0018190525060248054611265906153af565b80601f0160208091040260200160405190810160405280929190818152602001828054611291906153af565b80156112de5780601f106112b3576101008083540402835291602001916112de565b820191906000526020600020905b8154815290600101906020018083116112c157829003601f168201915b5050505050816101e00181905250602580546112f9906153af565b80601f0160208091040260200160405190810160405280929190818152602001828054611325906153af565b80156113725780601f1061134757610100808354040283529160200191611372565b820191906000526020600020905b81548152906001019060200180831161135557829003601f168201915b50505050508161020001819052506026805461138d906153af565b80601f01602080910402602001604051908101604052809291908181526020018280546113b9906153af565b80156114065780601f106113db57610100808354040283529160200191611406565b820191906000526020600020905b8154815290600101906020018083116113e957829003601f168201915b505050505081610220018190525060278054611421906153af565b80601f016020809104026020016040519081016040528092919081815260200182805461144d906153af565b801561149a5780601f1061146f5761010080835404028352916020019161149a565b820191906000526020600020905b81548152906001019060200180831161147d57829003601f168201915b5050505050816102400181905250602880546114b5906153af565b80601f01602080910402602001604051908101604052809291908181526020018280546114e1906153af565b801561152e5780601f106115035761010080835404028352916020019161152e565b820191906000526020600020905b81548152906001019060200180831161151157829003601f168201915b50505050506102608201526008546001600160a01b03166102808201526013546102a0820152601d546102c0820152601c546102e0820152601e54610300820152600e54610320820152600d54610340820152603154610360820152600c54610380820152602f546103a0820152601a5460ff1615156103c082015292915050565b602580546115bd906153af565b80601f01602080910402602001604051908101604052809291908181526020018280546115e9906153af565b80156116365780601f1061160b57610100808354040283529160200191611636565b820191906000526020600020905b81548152906001019060200180831161161957829003601f168201915b505050505081565b602880546115bd906153af565b602780546115bd906153af565b611663600133613ac5565b61167f5760405162461bcd60e51b8152600401610cbc90614eaf565b611687613afc565b61168f613b45565b565b61169c600133613ac5565b6116b85760405162461bcd60e51b8152600401610cbc90614eaf565b600081116116fa5760405162461bcd60e51b815260206004820152600f60248201526e6c61756e63687061643a2054494d4560881b6044820152606401610cbc565b601655565b611707613b97565b33600090815260326020526040902060028101546001820154106117625760405162461bcd60e51b81526020600482015260126024820152711b185d5b98da1c18590e8810db185a5b595960721b6044820152606401610cbc565b6017546002146117b45760405162461bcd60e51b815260206004820152601760248201527f6c61756e63687061643a204e6f742066696e616c697a650000000000000000006044820152606401610cbc565b600381015460ff16156118005760405162461bcd60e51b81526020600482015260146024820152736c61756e63687061643a20526566756e6465642160601b6044820152606401610cbc565b604080516080810182528254815260018301546020820152600283015491810191909152600382015460ff161515606082015260009061183f90613bdd565b9050600081116118895760405162461bcd60e51b81526020600482015260156024820152743630bab731b43830b21d102d32b937903a37b5b2b760591b6044820152606401610cbc565b600081836001015461189b9190615228565b6001840181905590506118bb336008546001600160a01b03169084613d15565b505050565b6118cb600133613ac5565b6118e75760405162461bcd60e51b8152600401610cbc90614eaf565b60005b8151811015610dc65761192082828151811061190857611908615431565b60200260200101516001613d7890919063ffffffff16565b508061192b816153ea565b9150506118ea565b87516001600160a01b031661197d5760405162461bcd60e51b815260206004820152601060248201526f3630bab731b43830b21d102a27a5a2a760811b6044820152606401610cbc565b60008860800151116119c65760405162461bcd60e51b81526020600482015260126024820152716c61756e63687061643a2050524553414c4560701b6044820152606401610cbc565b8760600151886040015110611a0e5760405162461bcd60e51b815260206004820152600e60248201526d06c61756e63687061643a204341560941b6044820152606401610cbc565b8761010001518860e0015110611a585760405162461bcd60e51b815260206004820152600f60248201526e6c61756e63687061643a2054494d4560881b6044820152606401610cbc565b8760c001518860a0015110611aa35760405162461bcd60e51b81526020600482015260116024820152701b185d5b98da1c18590e881253959154d5607a1b6044820152606401610cbc565b61271086608001511115611aee5760405162461bcd60e51b81526020600482015260126024820152716c61756e63687061643a204c495354494e4760701b6044820152606401610cbc565b6040870151875161271091611b0291615228565b1115611b455760405162461bcd60e51b81526020600482015260126024820152716c61756e63687061643a2056455354494e4760701b6044820152606401610cbc565b611b618860000151896020015188602001518960400151613d8d565b611b7d5760405162461bcd60e51b8152600401610cbc90614f1d565b6030805461dead6001600160a01b031991821617909155603183905588516008805483166001600160a01b039283161790556020808b0151600980549094169216919091179091556040808a0151600a5560608a0151600b5560808a0151600c5560a08a0151600d5560c08a0151600e5560e08a0151600f556101008a01516010556101208a01516012556101408a01516011558851601355908801516014558701516015558551601a805460ff1916911515918217905560ff16611cd157611c588860000151896020015188602001518960400151613d8d565b611c745760405162461bcd60e51b8152600401610cbc90614f1d565b6020860151601b80546001600160a01b039283166001600160a01b03199091161790556040870151601a80549190921661010002610100600160a81b03199091161790556060860151601c556080860151601d5560a0860151601e555b8451602c55602080860151602d55601982905583518051611cf692601f9201906145d6565b506020808401518051611d0c92918201906145d6565b5060408301518051611d26916021916020909101906145d6565b5060608301518051611d40916022916020909101906145d6565b5060808301518051611d5a916023916020909101906145d6565b5060a08301518051611d74916024916020909101906145d6565b5060c08301518051611d8e916025916020909101906145d6565b5060e08301518051611da8916026916020909101906145d6565b506101008301518051611dc3916027916020909101906145d6565b506101208301518051611dde916028916020909101906145d6565b50600160178190558451611df29190613d78565b506020840151611e0490600190613d78565b506020840151611e1690600390613d78565b505050506040810151602e80546001600160a01b03199081166001600160a01b0393841617909155825160078054831691841691909117905560609092015160298054909316911617905550505050565b611e72600133613ac5565b611e8e5760405162461bcd60e51b8152600401610cbc90614eaf565b601754600314611ed85760405162461bcd60e51b81526020600482015260156024820152741b185d5b98da1c18590e88139bdd0818d85b98d95b605a1b6044820152606401610cbc565b6008546040516370a0823160e01b81523060048201526000916001600160a01b0316906370a082319060240160206040518083038186803b158015611f1c57600080fd5b505afa158015611f30573d6000803e3d6000fd5b505050506040513d601f19601f82011682018060405250810190611f549190614d4c565b905060008111611f9b5760405162461bcd60e51b81526020600482015260126024820152711b185d5b98da1c18590e8810db185a5b595960721b6044820152606401610cbc565b8015611fb857611fb8336008546001600160a01b03169083613d15565b50565b602080546115bd906153af565b602480546115bd906153af565b602180546115bd906153af565b611fed600133613ac5565b6120095760405162461bcd60e51b8152600401610cbc90614eaf565b612011613b97565b61168f613fc2565b612024600333613ac5565b6120405760405162461bcd60e51b8152600401610cbc90614e80565b602e80546001600160a01b0319166001600160a01b0392909216919091179055565b61206a613b97565b336000908152603260205260409020601754600314806120995750600a54601854108015612099575060105442115b6120a257600080fd5b600381015460ff16156120ed5760405162461bcd60e51b81526020600482015260136024820152721b185d5b98da1c18590e881499599d5b991959606a1b6044820152606401610cbc565b80546121335760405162461bcd60e51b81526020600482015260156024820152741b185d5b98da1c18590e88139bdd08125b9d995cdd605a1b6044820152606401610cbc565b805460038201805460ff19166001179055600060028301819055825560185461215d90829061536c565b6018556002820154602f54612172919061536c565b602f55612182335b603390613ae7565b506009546001600160a01b031661221d57600047116121e35760405162461bcd60e51b815260206004820152601b60248201527f6c61756e63687061643a20496e73756666696369656e7420626c6300000000006044820152606401610cbc565b335b6001600160a01b03166108fc829081150290604051600060405180830381858888f193505050501580156118bb573d6000803e3d6000fd5b6009546040516370a0823160e01b81523060048201526001600160a01b0390911690829082906370a082319060240160206040518083038186803b15801561226457600080fd5b505afa158015612278573d6000803e3d6000fd5b505050506040513d601f19601f8201168201806040525081019061229c9190614d4c565b10156122ea5760405162461bcd60e51b815260206004820152601f60248201527f6c61756e63687061643a20496e73756666696369656e742042616c616e6365006044820152606401610cbc565b6118bb335b6001600160a01b0383169084613d15565b600854600954601b54601a54600093612333936001600160a01b0391821693908216929082169161010090910416613d8d565b905090565b602280546115bd906153af565b612350600333613ac5565b61236c5760405162461bcd60e51b8152600401610cbc90614e80565b601a8054610100600160a81b0319166101006001600160a01b0394851602179055601b80546001600160a01b03191691909216179055565b60606000806123b36033613fff565b9050806123d0575050604080516000815260208101909152919050565b60006123dc838361536c565b90506000816001600160401b038111156123f8576123f8615447565b604051908082528060200260200182016040528015612421578160200160208202803683370190505b5090506000845b848110156124855761243b603382614009565b83838151811061244d5761244d615431565b6001600160a01b03909216602092830291909101909101528161246f816153ea565b925050808061247d906153ea565b915050612428565b509095945050505050565b602680546115bd906153af565b6124a8600133613ac5565b6124c45760405162461bcd60e51b8152600401610cbc90614eaf565b60005b8151811015610dc6576124fd8282815181106124e5576124e5615431565b60200260200101516005613d7890919063ffffffff16565b5080612508816153ea565b9150506124c7565b61251b600133613ac5565b6125375760405162461bcd60e51b8152600401610cbc90614eaf565b6017546001146125595760405162461bcd60e51b8152600401610cbc90614ee6565b8051805161256f91601f916020909101906145d6565b50602080820151805161258592918201906145d6565b506040810151805161259f916021916020909101906145d6565b50606081015180516125b9916022916020909101906145d6565b50608081015180516125d3916023916020909101906145d6565b5060a081015180516125ed916024916020909101906145d6565b5060c08101518051612607916025916020909101906145d6565b5060e08101518051612621916026916020909101906145d6565b50610100810151805161263c916027916020909101906145d6565b506101208101518051610dc6916028916020909101906145d6565b612662600133613ac5565b61267e5760405162461bcd60e51b8152600401610cbc90614eaf565b60005b8151811015610dc6576126b782828151811061269f5761269f615431565b60200260200101516001613ae790919063ffffffff16565b50806126c2816153ea565b915050612681565b60006123336005613fff565b6126e1600133613ac5565b6126fd5760405162461bcd60e51b8152600401610cbc90614eaf565b60175460011461271f5760405162461bcd60e51b8152600401610cbc90614ee6565b6003601755565b612731600333613ac5565b61274d5760405162461bcd60e51b8152600401610cbc90614e80565b600081116127995760405162461bcd60e51b81526020600482015260196024820152781b185d5b98da1c18590e88125b9d985b1a5908185b5bdd5b9d603a1b6044820152606401610cbc565b6001600160a01b0382166127ad57336121e5565b816118bb336122ef565b6127bf613b97565b6017546001146127e15760405162461bcd60e51b8152600401610cbc90614ee6565b336000908152603260205260409020600f54421080159061280457504260105410155b61284a5760405162461bcd60e51b81526020600482015260176024820152766c61756e63687061643a20496e76616c69642074696d6560481b6044820152606401610cbc565b600381015460ff16156128955760405162461bcd60e51b81526020600482015260136024820152721b185d5b98da1c18590e881499599d5b991959606a1b6044820152606401610cbc565b80546128e35760405162461bcd60e51b815260206004820152601960248201527f6c61756e63687061643a204e6f7420636f6e74726962757465000000000000006044820152606401610cbc565b600061271060195483600001546128fa919061534d565b6129049190615240565b90506000818360000154612918919061536c565b83546018549192506129299161536c565b6018556002830154602f5461293e919061536c565b602f5560038301805460ff19166001179055600060028401819055835561296561217a3390565b50600081116129b65760405162461bcd60e51b815260206004820152601c60248201527f6c61756e63687061643a20496e76616c696420726620616d6f756e74000000006044820152606401610cbc565b6009546001600160a01b0316612a415780156129fb57604051339082156108fc029083906000818181858888f193505050501580156129f9573d6000803e3d6000fd5b505b81156118bb57602e546040516001600160a01b039091169083156108fc029084906000818181858888f19350505050158015612a3b573d6000803e3d6000fd5b50505050565b6009546001600160a01b03168115612a5c57612a5c336122ef565b8215612a3b57602e54612a3b906001600160a01b03838116911685613d15565b612a84613b97565b601754600114612aa65760405162461bcd60e51b8152600401610cbc90614ee6565b42600f5411158015612aba57504260105410155b612b005760405162461bcd60e51b81526020600482015260176024820152766c61756e63687061643a20496e76616c69642074696d6560481b6044820152606401610cbc565b60125460011415612b6e57612b16600533613ac5565b612b6e5760405162461bcd60e51b815260206004820152602360248201527f6c61756e63687061643a20596f7520617265206e6f7420696e2077686974656c6044820152621a5cdd60ea1b6064820152608401610cbc565b336000908152603260205260409020600d548154612b8d908490615228565b10158015612ba95750600e548154612ba6908490615228565b11155b612bf15760405162461bcd60e51b81526020600482015260196024820152781b185d5b98da1c18590e88125b9d985b1a5908185b5bdd5b9d603a1b6044820152606401610cbc565b600b5482601854612c029190615228565b1115612c505760405162461bcd60e51b815260206004820152601860248201527f6c61756e63687061643a204d65657420686172642063617000000000000000006044820152606401610cbc565b8054612c5d908390615228565b81556000612c6a83614015565b905080602f54612c7a9190615228565b602f556002820154612c8d908290615228565b600283015560038201805460ff19169055601854612cac908490615228565b601855612cba603333613ac5565b612ccb57612cc9603333613d78565b505b6009546001600160a01b0316612d2b57823410156118bb5760405162461bcd60e51b815260206004820152601960248201527f6c61756e63687061643a20496e76616c696420416d6f756e74000000000000006044820152606401610cbc565b6009546001600160a01b0316612a3b813330876140da565b6001600160a01b0381166000908152603260209081526040808320815160808101835281548152600182015493810193909352600281015491830191909152600381015460ff161515606083015290612d9b90613bdd565b9392505050565b601f80546115bd906153af565b60606123336001614112565b602380546115bd906153af565b612dd3600133613ac5565b612def5760405162461bcd60e51b8152600401610cbc90614eaf565b601754600114612e115760405162461bcd60e51b8152600401610cbc90614ee6565b600f544211612e595760405162461bcd60e51b81526020600482015260146024820152731b185d5b98da1c18590e88139bdd081cdd185c9d60621b6044820152606401610cbc565b601054421015612eb757600b546018541015612eb75760405162461bcd60e51b815260206004820152601960248201527f6c61756e63687061643a2043616e27742066696e616c697a65000000000000006044820152606401610cbc565b6010544210612f1457600a546018541015612f145760405162461bcd60e51b815260206004820152601c60248201527f6c61756e63687061643a204e6f74206d65657420736f667420636170000000006044820152606401610cbc565b60026017556009546012906001600160a01b031615612fb957600960009054906101000a90046001600160a01b03166001600160a01b031663313ce5676040518163ffffffff1660e01b815260040160206040518083038186803b158015612f7b57600080fd5b505afa158015612f8f573d6000803e3d6000fd5b505050506040513d601f19601f82011682018060405250810190612fb39190614db5565b60ff1690505b6000612710612fc983600a6152a5565b602d54600c54601854612fdc919061534d565b612fe6919061534d565b612ff09190615240565b612ffa9190615240565b90506000612710602c54601854613011919061534d565b61301b9190615240565b90506000612710601d5483601854613033919061536c565b61303d919061534d565b6130479190615240565b90506000818360185461305a919061536c565b613064919061536c565b9050600061307386600a6152a5565b601c54613080908561534d565b61308a9190615240565b6008546040516370a0823160e01b81523060048201529192506000916001600160a01b03909116906370a082319060240160206040518083038186803b1580156130d357600080fd5b505afa1580156130e7573d6000803e3d6000fd5b505050506040513d601f19601f8201168201806040525081019061310b9190614d4c565b9050600086602f54848461311f919061536c565b613129919061536c565b613133919061536c565b9050861561315857602e54600854613158916001600160a01b03918216911689613d15565b80156131a45760115461318757603054600854613182916001600160a01b03918216911683613d15565b6131a4565b6007546008546131a4916001600160a01b03918216911683613d15565b6009546001600160a01b031661323d5783156131f6576007546040516001600160a01b039091169085156108fc029086906000818181858888f193505050501580156131f4573d6000803e3d6000fd5b505b851561323857602e546040516001600160a01b039091169087156108fc029088906000818181858888f19350505050158015613236573d6000803e3d6000fd5b505b613283565b831561326057600754600954613260916001600160a01b03918216911686613d15565b851561328357602e54600954613283916001600160a01b03918216911688613d15565b601a5460ff166139a657603183905542601655600854601b5460405163095ea7b360e01b81526001600160a01b0391821660048201526024810186905291169063095ea7b390604401602060405180830381600087803b1580156132e657600080fd5b505af11580156132fa573d6000803e3d6000fd5b505050506040513d601f19601f8201168201806040525081019061331e9190614ba5565b50600854600954601b54601a5461334c936001600160a01b0390811693811692811691610100900416613d8d565b6133685760405162461bcd60e51b8152600401610cbc90614f1d565b601b54601a546009546001600160a01b039283169261010090920482169160009182911661357e576008546001600160a01b038086169163f305d719918c91168a600080306133b94261012c615228565b60405160e089901b6001600160e01b03191681526001600160a01b039687166004820152602481019590955260448501939093526064840191909152909216608482015260a481019190915260c4016060604051808303818588803b15801561342157600080fd5b505af1158015613435573d6000803e3d6000fd5b50505050506040513d601f19601f8201168201806040525081019061345a9190614d87565b909150905080915050826001600160a01b031663e6a43905600860009054906101000a90046001600160a01b0316866001600160a01b031663ad5c46486040518163ffffffff1660e01b815260040160206040518083038186803b1580156134c157600080fd5b505afa1580156134d5573d6000803e3d6000fd5b505050506040513d601f19601f820116820180604052508101906134f99190614a6b565b6040516001600160e01b031960e085901b1681526001600160a01b0392831660048201529116602482015260440160206040518083038186803b15801561353f57600080fd5b505afa158015613553573d6000803e3d6000fd5b505050506040513d601f19601f820116820180604052508101906135779190614a6b565b9150613774565b600954601b5460405163095ea7b360e01b81526001600160a01b039182166004820152602481018c905291169063095ea7b390604401602060405180830381600087803b1580156135ce57600080fd5b505af11580156135e2573d6000803e3d6000fd5b505050506040513d601f19601f820116820180604052508101906136069190614ba5565b506008546009546001600160a01b038087169263e8e337009290821691168a8d600080306136364261012c615228565b60405160e08a901b6001600160e01b03191681526001600160a01b039889166004820152968816602488015260448701959095526064860193909352608485019190915260a484015290921660c482015260e481019190915261010401606060405180830381600087803b1580156136ad57600080fd5b505af11580156136c1573d6000803e3d6000fd5b505050506040513d601f19601f820116820180604052508101906136e59190614d87565b60085460095460405163e6a4390560e01b81526001600160a01b03928316600482015290821660248201529194508616925063e6a43905915060440160206040518083038186803b15801561373957600080fd5b505afa15801561374d573d6000803e3d6000fd5b505050506040513d601f19601f820116820180604052508101906137719190614a6b565b91505b6001600160a01b0382166137ca5760405162461bcd60e51b815260206004820152601760248201527f6c61756e63687061643a20496e76616c696420706169720000000000000000006044820152606401610cbc565b6000811161381a5760405162461bcd60e51b815260206004820152601d60248201527f6c61756e63687061643a20496e76616c6964204c6971756964697479210000006044820152606401610cbc565b601e54156139875760295460405163095ea7b360e01b81526001600160a01b039182166004820152602481018390529083169063095ea7b390604401602060405180830381600087803b15801561387057600080fd5b505af1158015613884573d6000803e3d6000fd5b505050506040513d601f19601f820116820180604052508101906138a89190614ba5565b506000601e54426138b99190615228565b602954600754604051630727935760e01b81526001600160a01b039182166004820152868216602482015260016044820152606481018690526084810184905260c060a4820152600d60c48201526c06c61756e63687061643a204c5609c1b60e4820152929350169063072793579061010401602060405180830381600087803b15801561394657600080fd5b505af115801561395a573d6000803e3d6000fd5b505050506040513d601f19601f8201168201806040525081019061397e9190614d4c565b602a55506139a1565b6007546139a1906001600160a01b03848116911683613d15565b505050505b5050505050505050565b606082821180156139c857506139c46126ca565b8211155b613a095760405162461bcd60e51b81526020600482015260126024820152711b185d5b98da1c18590e88125b9d985b1a5960721b6044820152606401610cbc565b6000613a15848461536c565b6001600160401b03811115613a2c57613a2c615447565b604051908082528060200260200182016040528015613a55578160200160208202803683370190505b5090506000845b84811015613ab957613a6f600582614009565b838381518110613a8157613a81615431565b6001600160a01b039092166020928302919091019091015281613aa3816153ea565b9250508080613ab1906153ea565b915050613a5c565b50909150505b92915050565b6001600160a01b03811660009081526001830160205260408120541515612d9b565b6000612d9b836001600160a01b03841661411f565b60005460ff1661168f5760405162461bcd60e51b815260206004820152601460248201527314185d5cd8589b194e881b9bdd081c185d5cd95960621b6044820152606401610cbc565b613b4d613afc565b6000805460ff191690557f5db9ee0a495bf2e6ff9c91a7834c1ba4fdd244a5e8aa4e537bd38aeae4b073aa335b6040516001600160a01b03909116815260200160405180910390a1565b60005460ff161561168f5760405162461bcd60e51b815260206004820152601060248201526f14185d5cd8589b194e881c185d5cd95960821b6044820152606401610cbc565b60175460009081906002141580613bf657506040830151155b80613c075750606083015115156001145b80613c1a57508260400151836020015110155b80613c255750601654155b80613c31575060165442105b15613c3c5792915050565b600060135460001415613c5457506040830151613cfe565b60006127106013548660400151613c6b919061534d565b613c759190615240565b905060006127106015548760400151613c8e919061534d565b613c989190615240565b90506000806016549050804210613cce57601454613cb6824261536c565b613cc09190615240565b613ccb906001615228565b91505b83613cd9848461534d565b613ce39190615228565b94508760400151851115613cf957876040015194505b505050505b6020840151613d0d908261536c565b949350505050565b6040516001600160a01b0383166024820152604481018290526118bb90849063a9059cbb60e01b906064015b60408051601f198184030181529190526020810180516001600160e01b03166001600160e01b031990931692909217909152614212565b6000612d9b836001600160a01b0384166142e7565b60008083836001600160a01b038716613ea657806001600160a01b031663e6a4390589846001600160a01b031663ad5c46486040518163ffffffff1660e01b815260040160206040518083038186803b158015613de957600080fd5b505afa158015613dfd573d6000803e3d6000fd5b505050506040513d601f19601f82011682018060405250810190613e219190614a6b565b6040516001600160e01b031960e085901b1681526001600160a01b0392831660048201529116602482015260440160206040518083038186803b158015613e6757600080fd5b505afa158015613e7b573d6000803e3d6000fd5b505050506040513d601f19601f82011682018060405250810190613e9f9190614a6b565b9250613f2a565b60405163e6a4390560e01b81526001600160a01b038981166004830152888116602483015282169063e6a439059060440160206040518083038186803b158015613eef57600080fd5b505afa158015613f03573d6000803e3d6000fd5b505050506040513d601f19601f82011682018060405250810190613f279190614a6b565b92505b6001600160a01b038316613f445760019350505050613d0d565b826001600160a01b03166318160ddd6040518163ffffffff1660e01b815260040160206040518083038186803b158015613f7d57600080fd5b505afa158015613f91573d6000803e3d6000fd5b505050506040513d601f19601f82011682018060405250810190613fb59190614d4c565b1598975050505050505050565b613fca613b97565b6000805460ff191660011790557f62e78cea01bee320cd4e420270b5ea74000d11b0c9f74754ebdbfc544b05a258613b7a3390565b6000613abf825490565b6000612d9b8383614336565b6009546000906012906001600160a01b0316156140b857600960009054906101000a90046001600160a01b03166001600160a01b031663313ce5676040518163ffffffff1660e01b815260040160206040518083038186803b15801561407a57600080fd5b505afa15801561408e573d6000803e3d6000fd5b505050506040513d601f19601f820116820180604052508101906140b29190614db5565b60ff1690505b6140c381600a6152a5565b600c546140d0908561534d565b612d9b9190615240565b6040516001600160a01b0380851660248301528316604482015260648101829052612a3b9085906323b872dd60e01b90608401613d41565b60606000612d9b83614360565b6000818152600183016020526040812054801561420857600061414360018361536c565b85549091506000906141579060019061536c565b90508181146141bc57600086600001828154811061417757614177615431565b906000526020600020015490508087600001848154811061419a5761419a615431565b6000918252602080832090910192909255918252600188019052604090208390555b85548690806141cd576141cd61541b565b600190038181906000526020600020016000905590558560010160008681526020019081526020016000206000905560019350505050613abf565b6000915050613abf565b6000614267826040518060400160405280602081526020017f5361666545524332303a206c6f772d6c6576656c2063616c6c206661696c6564815250856001600160a01b03166143bc9092919063ffffffff16565b90508051600014806142885750808060200190518101906142889190614ba5565b6118bb5760405162461bcd60e51b815260206004820152602a60248201527f5361666545524332303a204552433230206f7065726174696f6e20646964206e6044820152691bdd081cdd58d8d9595960b21b6064820152608401610cbc565b600081815260018301602052604081205461432e57508154600181810184556000848152602080822090930184905584548482528286019093526040902091909155613abf565b506000613abf565b600082600001828154811061434d5761434d615431565b9060005260206000200154905092915050565b6060816000018054806020026020016040519081016040528092919081815260200182805480156143b057602002820191906000526020600020905b81548152602001906001019080831161439c575b50505050509050919050565b6060613d0d848460008585600080866001600160a01b031685876040516143e39190614e04565b60006040518083038185875af1925050503d8060008114614420576040519150601f19603f3d011682016040523d82523d6000602084013e614425565b606091505b509150915061443687838387614441565b979650505050505050565b606083156144ad5782516144a6576001600160a01b0385163b6144a65760405162461bcd60e51b815260206004820152601d60248201527f416464726573733a2063616c6c20746f206e6f6e2d636f6e74726163740000006044820152606401610cbc565b5081613d0d565b613d0d83838151156144c25781518083602001fd5b8060405162461bcd60e51b8152600401610cbc9190614e6d565b604051806103e001604052806000815260200160008152602001600081526020016000815260200160008152602001600081526020016000815260200160006001600160a01b0316815260200160008152602001600081526020016060815260200160608152602001606081526020016060815260200160608152602001606081526020016060815260200160608152602001606081526020016060815260200160006001600160a01b031681526020016000815260200160008152602001600081526020016000815260200160008152602001600081526020016000815260200160008152602001600081526020016000151581525090565b8280546145e2906153af565b90600052602060002090601f016020900481019282614604576000855561464a565b82601f1061461d57805160ff191683800117855561464a565b8280016001018555821561464a579182015b8281111561464a57825182559160200191906001019061462f565b5061465692915061465a565b5090565b5b80821115614656576000815560010161465b565b803561467a8161545d565b919050565b600082601f83011261469057600080fd5b81356001600160401b038111156146a9576146a9615447565b6146bc601f8201601f19166020016151f8565b8181528460208386010111156146d157600080fd5b816020850160208301376000918101602001919091529392505050565b60006060828403121561470057600080fd5b604051606081018181106001600160401b038211171561472257614722615447565b80604052508091508235815260208301356020820152604083013560408201525092915050565b600060c0828403121561475b57600080fd5b60405160c081018181106001600160401b038211171561477d5761477d615447565b604052905080823561478e81615472565b8152602083013561479e8161545d565b602082015260408301356147b18161545d565b80604083015250606083013560608201526080830135608082015260a083013560a08201525092915050565b6000604082840312156147ef57600080fd5b604051604081018181106001600160401b038211171561481157614811615447565b604052823581526020928301359281019290925250919050565b60006080828403121561483d57600080fd5b604051608081018181106001600160401b038211171561485f5761485f615447565b60405290508082356148708161545d565b815260208301356148808161545d565b602082015260408301356148938161545d565b604082015260608301356148a68161545d565b6060919091015292915050565b600061014082840312156148c657600080fd5b6148ce6151ac565b905081356001600160401b03808211156148e757600080fd5b6148f38583860161467f565b8352602084013591508082111561490957600080fd5b6149158583860161467f565b6020840152604084013591508082111561492e57600080fd5b61493a8583860161467f565b6040840152606084013591508082111561495357600080fd5b61495f8583860161467f565b6060840152608084013591508082111561497857600080fd5b6149848583860161467f565b608084015260a084013591508082111561499d57600080fd5b6149a98583860161467f565b60a084015260c08401359150808211156149c257600080fd5b6149ce8583860161467f565b60c084015260e08401359150808211156149e757600080fd5b6149f38583860161467f565b60e084015261010091508184013581811115614a0e57600080fd5b614a1a8682870161467f565b838501525061012091508184013581811115614a3557600080fd5b614a418682870161467f565b8385015250505092915050565b600060208284031215614a6057600080fd5b8135612d9b8161545d565b600060208284031215614a7d57600080fd5b8151612d9b8161545d565b60008060408385031215614a9b57600080fd5b8235614aa68161545d565b91506020830135614ab68161545d565b809150509250929050565b60008060408385031215614ad457600080fd5b8235614adf8161545d565b946020939093013593505050565b60006020808385031215614b0057600080fd5b82356001600160401b0380821115614b1757600080fd5b818501915085601f830112614b2b57600080fd5b813581811115614b3d57614b3d615447565b8060051b9150614b4e8483016151f8565b8181528481019084860184860187018a1015614b6957600080fd5b600095505b83861015614b985780359450614b838561545d565b84835260019590950194918601918601614b6e565b5098975050505050505050565b600060208284031215614bb757600080fd5b8151612d9b81615472565b600080600080600080600080888a036103a0811215614be057600080fd5b61016080821215614bf057600080fd5b614bf86151d5565b9150614c038b61466f565b8252614c1160208c0161466f565b602083015260408b0135604083015260608b0135606083015260808b0135608083015260a08b013560a083015260c08b013560c083015260e08b013560e0830152610100808c01358184015250610120808c01358184015250610140808c01358184015250819950614c858c828d016146ee565b98505050614c978a6101c08b01614749565b9550614ca78a6102808b016147dd565b9450614cb78a6102c08b0161482b565b93506103408901356001600160401b03811115614cd357600080fd5b614cdf8b828c016148b3565b935050610360890135915061038089013590509295985092959890939650565b600060208284031215614d1157600080fd5b81356001600160401b03811115614d2757600080fd5b613d0d848285016148b3565b600060208284031215614d4557600080fd5b5035919050565b600060208284031215614d5e57600080fd5b5051919050565b60008060408385031215614d7857600080fd5b50508035926020909101359150565b600080600060608486031215614d9c57600080fd5b8351925060208401519150604084015190509250925092565b600060208284031215614dc757600080fd5b815160ff81168114612d9b57600080fd5b60008151808452614df0816020860160208601615383565b601f01601f19169290920160200192915050565b60008251614e16818460208701615383565b9190910192915050565b6020808252825182820181905260009190848201906040850190845b81811015614e615783516001600160a01b031683529284019291840191600101614e3c565b50909695505050505050565b602081526000612d9b6020830184614dd8565b6020808252601590820152743630bab731b43830b21d1027b7363c9029bab832b960591b604082015260600190565b6020808252601e908201527f6c61756e63687061643a204f6e6c792077686974654c69737455736572730000604082015260600190565b6020808252601d908201527f6c61756e63687061643a204e6f7420617661696c61626c6520706f6f6c000000604082015260600190565b6020808252601490820152736c61756e63687061643a204c502041646465642160601b604082015260600190565b6020815281516020820152602082015160408201526040820151606082015260608201516080820152608082015160a082015260a082015160c082015260c082015160e0820152600060e0830151610100614fb0818501836001600160a01b03169052565b84015161012084810191909152840151610140808501919091528401516103e061016080860182905291925090614feb610400860184614dd8565b9250808601519050601f1961018081878603018188015261500c8584614dd8565b9450808801519250506101a081878603018188015261502b8584614dd8565b9450808801519250506101c081878603018188015261504a8584614dd8565b9450808801519250506101e08187860301818801526150698584614dd8565b9450808801519250506102008187860301818801526150888584614dd8565b9450808801519250506102208187860301818801526150a78584614dd8565b9450808801519250506102408187860301818801526150c68584614dd8565b9450808801519250506102608187860301818801526150e58584614dd8565b9450808801519250506102808187860301818801526151048584614dd8565b945080880151925050506102a0615125818701836001600160a01b03169052565b8601516102c0868101919091528601516102e08087019190915286015161030080870191909152860151610320808701919091528601516103408087019190915286015161036080870191909152860151610380808701919091528601516103a0808701919091528601516103c08087019190915290950151151593019290925250919050565b60405161014081016001600160401b03811182821017156151cf576151cf615447565b60405290565b60405161016081016001600160401b03811182821017156151cf576151cf615447565b604051601f8201601f191681016001600160401b038111828210171561522057615220615447565b604052919050565b6000821982111561523b5761523b615405565b500190565b60008261525d57634e487b7160e01b600052601260045260246000fd5b500490565b600181815b8085111561529d57816000190482111561528357615283615405565b8085161561529057918102915b93841c9390800290615267565b509250929050565b6000612d9b83836000826152bb57506001613abf565b816152c857506000613abf565b81600181146152de57600281146152e857615304565b6001915050613abf565b60ff8411156152f9576152f9615405565b50506001821b613abf565b5060208310610133831016604e8410600b8410161715615327575081810a613abf565b6153318383615262565b806000190482111561534557615345615405565b029392505050565b600081600019048311821515161561536757615367615405565b500290565b60008282101561537e5761537e615405565b500390565b60005b8381101561539e578181015183820152602001615386565b83811115612a3b5750506000910152565b600181811c908216806153c357607f821691505b602082108114156153e457634e487b7160e01b600052602260045260246000fd5b50919050565b60006000198214156153fe576153fe615405565b5060010190565b634e487b7160e01b600052601160045260246000fd5b634e487b7160e01b600052603160045260246000fd5b634e487b7160e01b600052603260045260246000fd5b634e487b7160e01b600052604160045260246000fd5b6001600160a01b0381168114611fb857600080fd5b8015158114611fb857600080fdfea26469706673582212205eb939796e2e0058eb210ea84d7492eba776f23852515afc26c729d47149994464736f6c63430008070033",
			"opcodes": "PUSH1 0x80 PUSH1 0x40 MSTORE PUSH2 0x3E8 PUSH1 0x19 SSTORE PUSH1 0x0 PUSH1 0x31 SSTORE CALLVALUE DUP1 ISZERO PUSH2 0x1B JUMPI PUSH1 0x0 DUP1 REVERT JUMPDEST POP PUSH1 0x0 DUP1 SLOAD PUSH1 0xFF NOT AND SWAP1 SSTORE PUSH2 0x54B6 DUP1 PUSH2 0x35 PUSH1 0x0 CODECOPY PUSH1 0x0 RETURN INVALID PUSH1 0x80 PUSH1 0x40 MSTORE PUSH1 0x4 CALLDATASIZE LT PUSH2 0x447 JUMPI PUSH1 0x0 CALLDATALOAD PUSH1 0xE0 SHR DUP1 PUSH4 0x85DC3004 GT PUSH2 0x234 JUMPI DUP1 PUSH4 0xC19D93FB GT PUSH2 0x12E JUMPI DUP1 PUSH4 0xD7CA9949 GT PUSH2 0xB6 JUMPI DUP1 PUSH4 0xEAF74AC5 GT PUSH2 0x7A JUMPI DUP1 PUSH4 0xEAF74AC5 EQ PUSH2 0xBCC JUMPI DUP1 PUSH4 0xF86AA92D EQ PUSH2 0xBEC JUMPI DUP1 PUSH4 0xFB2CEB18 EQ PUSH2 0xC02 JUMPI DUP1 PUSH4 0xFB86A404 EQ PUSH2 0xC69 JUMPI DUP1 PUSH4 0xFF09A5B6 EQ PUSH2 0xC7F JUMPI PUSH1 0x0 DUP1 REVERT JUMPDEST DUP1 PUSH4 0xD7CA9949 EQ PUSH2 0xB56 JUMPI DUP1 PUSH4 0xE2D24FB7 EQ PUSH2 0xB6C JUMPI DUP1 PUSH4 0xE7B2C08E EQ PUSH2 0xB82 JUMPI DUP1 PUSH4 0xE82BEF29 EQ PUSH2 0xB97 JUMPI DUP1 PUSH4 0xEA623239 EQ PUSH2 0xBB7 JUMPI PUSH1 0x0 DUP1 REVERT JUMPDEST DUP1 PUSH4 0xC5B5C1E2 GT PUSH2 0xFD JUMPI DUP1 PUSH4 0xC5B5C1E2 EQ PUSH2 0xAE0 JUMPI DUP1 PUSH4 0xC78F19F9 EQ PUSH2 0xAF6 JUMPI DUP1 PUSH4 0xCF25A442 EQ PUSH2 0xB0C JUMPI DUP1 PUSH4 0xD2CE89E5 EQ PUSH2 0xB2C JUMPI DUP1 PUSH4 0xD6B75A05 EQ PUSH2 0xB41 JUMPI PUSH1 0x0 DUP1 REVERT JUMPDEST DUP1 PUSH4 0xC19D93FB EQ PUSH2 0xA8B JUMPI DUP1 PUSH4 0xC1CBBCA7 EQ PUSH2 0xAA1 JUMPI DUP1 PUSH4 0xC34F6990 EQ PUSH2 0xAB4 JUMPI DUP1 PUSH4 0xC59EE1DC EQ PUSH2 0xACA JUMPI PUSH1 0x0 DUP1 REVERT JUMPDEST DUP1 PUSH4 0xAE959E71 GT PUSH2 0x1BC JUMPI DUP1 PUSH4 0xB96F2120 GT PUSH2 0x180 JUMPI DUP1 PUSH4 0xB96F2120 EQ PUSH2 0xA0C JUMPI DUP1 PUSH4 0xBA1F332A EQ PUSH2 0xA2C JUMPI DUP1 PUSH4 0xBA6C0E1E EQ PUSH2 0xA41 JUMPI DUP1 PUSH4 0xBC4724E8 EQ PUSH2 0xA56 JUMPI DUP1 PUSH4 0xBF9C5D45 EQ PUSH2 0xA76 JUMPI PUSH1 0x0 DUP1 REVERT JUMPDEST DUP1 PUSH4 0xAE959E71 EQ PUSH2 0x97F JUMPI DUP1 PUSH4 0xB1DD61B6 EQ PUSH2 0x9A1 JUMPI DUP1 PUSH4 0xB37D7654 EQ PUSH2 0x9B7 JUMPI DUP1 PUSH4 0xB773827C EQ PUSH2 0x9CC JUMPI DUP1 PUSH4 0xB7B7FF23 EQ PUSH2 0x9EC JUMPI PUSH1 0x0 DUP1 REVERT JUMPDEST DUP1 PUSH4 0x919840AD GT PUSH2 0x203 JUMPI DUP1 PUSH4 0x919840AD EQ PUSH2 0x8FA JUMPI DUP1 PUSH4 0x966DAE0E EQ PUSH2 0x90F JUMPI DUP1 PUSH4 0x9779C479 EQ PUSH2 0x934 JUMPI DUP1 PUSH4 0xA5F8A665 EQ PUSH2 0x949 JUMPI DUP1 PUSH4 0xA7B12846 EQ PUSH2 0x969 JUMPI PUSH1 0x0 DUP1 REVERT JUMPDEST DUP1 PUSH4 0x85DC3004 EQ PUSH2 0x899 JUMPI DUP1 PUSH4 0x8E5E721F EQ PUSH2 0x8B9 JUMPI DUP1 PUSH4 0x906A26E0 EQ PUSH2 0x8CF JUMPI DUP1 PUSH4 0x90D1576D EQ PUSH2 0x8E5 JUMPI PUSH1 0x0 DUP1 REVERT JUMPDEST DUP1 PUSH4 0x421CC337 GT PUSH2 0x345 JUMPI DUP1 PUSH4 0x640F82F3 GT PUSH2 0x2CD JUMPI DUP1 PUSH4 0x779F6350 GT PUSH2 0x291 JUMPI DUP1 PUSH4 0x779F6350 EQ PUSH2 0x81F JUMPI DUP1 PUSH4 0x78E97925 EQ PUSH2 0x834 JUMPI DUP1 PUSH4 0x7D1477C6 EQ PUSH2 0x84A JUMPI DUP1 PUSH4 0x7F33395B EQ PUSH2 0x864 JUMPI DUP1 PUSH4 0x8456CB59 EQ PUSH2 0x884 JUMPI PUSH1 0x0 DUP1 REVERT JUMPDEST DUP1 PUSH4 0x640F82F3 EQ PUSH2 0x79F JUMPI DUP1 PUSH4 0x647846A5 EQ PUSH2 0x7BF JUMPI DUP1 PUSH4 0x70C0345C EQ PUSH2 0x7DF JUMPI DUP1 PUSH4 0x7284E416 EQ PUSH2 0x7F5 JUMPI DUP1 PUSH4 0x7344070B EQ PUSH2 0x80A JUMPI PUSH1 0x0 DUP1 REVERT JUMPDEST DUP1 PUSH4 0x57801E6F GT PUSH2 0x314 JUMPI DUP1 PUSH4 0x57801E6F EQ PUSH2 0x71A JUMPI DUP1 PUSH4 0x584F4D41 EQ PUSH2 0x73A JUMPI DUP1 PUSH4 0x58E5BC88 EQ PUSH2 0x74F JUMPI DUP1 PUSH4 0x5C975ABB EQ PUSH2 0x765 JUMPI DUP1 PUSH4 0x63FD9E38 EQ PUSH2 0x789 JUMPI PUSH1 0x0 DUP1 REVERT JUMPDEST DUP1 PUSH4 0x421CC337 EQ PUSH2 0x6AF JUMPI DUP1 PUSH4 0x42F39381 EQ PUSH2 0x6CF JUMPI DUP1 PUSH4 0x48C54B9D EQ PUSH2 0x6E5 JUMPI DUP1 PUSH4 0x54533282 EQ PUSH2 0x6FA JUMPI PUSH1 0x0 DUP1 REVERT JUMPDEST DUP1 PUSH4 0x2E6F130F GT PUSH2 0x3D3 JUMPI DUP1 PUSH4 0x334B2022 GT PUSH2 0x397 JUMPI DUP1 PUSH4 0x334B2022 EQ PUSH2 0x644 JUMPI DUP1 PUSH4 0x33B14742 EQ PUSH2 0x659 JUMPI DUP1 PUSH4 0x343FE61B EQ PUSH2 0x66F JUMPI DUP1 PUSH4 0x3DC10AD4 EQ PUSH2 0x684 JUMPI DUP1 PUSH4 0x3F4BA83A EQ PUSH2 0x69A JUMPI PUSH1 0x0 DUP1 REVERT JUMPDEST DUP1 PUSH4 0x2E6F130F EQ PUSH2 0x5C0 JUMPI DUP1 PUSH4 0x2EE88649 EQ PUSH2 0x5E2 JUMPI DUP1 PUSH4 0x3110235A EQ PUSH2 0x5F8 JUMPI DUP1 PUSH4 0x3197CBB6 EQ PUSH2 0x60E JUMPI DUP1 PUSH4 0x3268CC56 EQ PUSH2 0x624 JUMPI PUSH1 0x0 DUP1 REVERT JUMPDEST DUP1 PUSH4 0x2347D754 GT PUSH2 0x41A JUMPI DUP1 PUSH4 0x2347D754 EQ PUSH2 0x4CD JUMPI DUP1 PUSH4 0x26009DCA EQ PUSH2 0x4ED JUMPI DUP1 PUSH4 0x260C2CEC EQ PUSH2 0x546 JUMPI DUP1 PUSH4 0x27B12BB2 EQ PUSH2 0x57E JUMPI DUP1 PUSH4 0x27C8F835 EQ PUSH2 0x5A0 JUMPI PUSH1 0x0 DUP1 REVERT JUMPDEST DUP1 PUSH4 0x782F8F0 EQ PUSH2 0x44C JUMPI DUP1 PUSH4 0x1619C877 EQ PUSH2 0x46E JUMPI DUP1 PUSH4 0x18A75E95 EQ PUSH2 0x48E JUMPI DUP1 PUSH4 0x1CAFEECC EQ PUSH2 0x4B7 JUMPI JUMPDEST PUSH1 0x0 DUP1 REVERT JUMPDEST CALLVALUE DUP1 ISZERO PUSH2 0x458 JUMPI PUSH1 0x0 DUP1 REVERT JUMPDEST POP PUSH2 0x46C PUSH2 0x467 CALLDATASIZE PUSH1 0x4 PUSH2 0x4D33 JUMP JUMPDEST PUSH2 0xC95 JUMP JUMPDEST STOP JUMPDEST CALLVALUE DUP1 ISZERO PUSH2 0x47A JUMPI PUSH1 0x0 DUP1 REVERT JUMPDEST POP PUSH2 0x46C PUSH2 0x489 CALLDATASIZE PUSH1 0x4 PUSH2 0x4D33 JUMP JUMPDEST PUSH2 0xCD6 JUMP JUMPDEST CALLVALUE DUP1 ISZERO PUSH2 0x49A JUMPI PUSH1 0x0 DUP1 REVERT JUMPDEST POP PUSH2 0x4A4 PUSH1 0x15 SLOAD DUP2 JUMP JUMPDEST PUSH1 0x40 MLOAD SWAP1 DUP2 MSTORE PUSH1 0x20 ADD JUMPDEST PUSH1 0x40 MLOAD DUP1 SWAP2 SUB SWAP1 RETURN JUMPDEST CALLVALUE DUP1 ISZERO PUSH2 0x4C3 JUMPI PUSH1 0x0 DUP1 REVERT JUMPDEST POP PUSH2 0x4A4 PUSH1 0x14 SLOAD DUP2 JUMP JUMPDEST CALLVALUE DUP1 ISZERO PUSH2 0x4D9 JUMPI PUSH1 0x0 DUP1 REVERT JUMPDEST POP PUSH2 0x46C PUSH2 0x4E8 CALLDATASIZE PUSH1 0x4 PUSH2 0x4AED JUMP JUMPDEST PUSH2 0xD53 JUMP JUMPDEST CALLVALUE DUP1 ISZERO PUSH2 0x4F9 JUMPI PUSH1 0x0 DUP1 REVERT JUMPDEST POP PUSH2 0x50D PUSH2 0x508 CALLDATASIZE PUSH1 0x4 PUSH2 0x4A4E JUMP JUMPDEST PUSH2 0xDCA JUMP JUMPDEST PUSH1 0x40 MLOAD PUSH2 0x4AE SWAP2 SWAP1 DUP2 MLOAD ISZERO ISZERO DUP2 MSTORE PUSH1 0x20 DUP1 DUP4 ADD MLOAD SWAP1 DUP3 ADD MSTORE PUSH1 0x40 DUP1 DUP4 ADD MLOAD ISZERO ISZERO SWAP1 DUP3 ADD MSTORE PUSH1 0x60 SWAP2 DUP3 ADD MLOAD ISZERO ISZERO SWAP2 DUP2 ADD SWAP2 SWAP1 SWAP2 MSTORE PUSH1 0x80 ADD SWAP1 JUMP JUMPDEST CALLVALUE DUP1 ISZERO PUSH2 0x552 JUMPI PUSH1 0x0 DUP1 REVERT JUMPDEST POP PUSH1 0x8 SLOAD PUSH2 0x566 SWAP1 PUSH1 0x1 PUSH1 0x1 PUSH1 0xA0 SHL SUB AND DUP2 JUMP JUMPDEST PUSH1 0x40 MLOAD PUSH1 0x1 PUSH1 0x1 PUSH1 0xA0 SHL SUB SWAP1 SWAP2 AND DUP2 MSTORE PUSH1 0x20 ADD PUSH2 0x4AE JUMP JUMPDEST CALLVALUE DUP1 ISZERO PUSH2 0x58A JUMPI PUSH1 0x0 DUP1 REVERT JUMPDEST POP PUSH2 0x593 PUSH2 0xE8F JUMP JUMPDEST PUSH1 0x40 MLOAD PUSH2 0x4AE SWAP2 SWAP1 PUSH2 0x4F4B JUMP JUMPDEST CALLVALUE DUP1 ISZERO PUSH2 0x5AC JUMPI PUSH1 0x0 DUP1 REVERT JUMPDEST POP PUSH1 0x30 SLOAD PUSH2 0x566 SWAP1 PUSH1 0x1 PUSH1 0x1 PUSH1 0xA0 SHL SUB AND DUP2 JUMP JUMPDEST CALLVALUE DUP1 ISZERO PUSH2 0x5CC JUMPI PUSH1 0x0 DUP1 REVERT JUMPDEST POP PUSH2 0x5D5 PUSH2 0x15B0 JUMP JUMPDEST PUSH1 0x40 MLOAD PUSH2 0x4AE SWAP2 SWAP1 PUSH2 0x4E6D JUMP JUMPDEST CALLVALUE DUP1 ISZERO PUSH2 0x5EE JUMPI PUSH1 0x0 DUP1 REVERT JUMPDEST POP PUSH2 0x4A4 PUSH1 0x2B SLOAD DUP2 JUMP JUMPDEST CALLVALUE DUP1 ISZERO PUSH2 0x604 JUMPI PUSH1 0x0 DUP1 REVERT JUMPDEST POP PUSH2 0x4A4 PUSH1 0xE SLOAD DUP2 JUMP JUMPDEST CALLVALUE DUP1 ISZERO PUSH2 0x61A JUMPI PUSH1 0x0 DUP1 REVERT JUMPDEST POP PUSH2 0x4A4 PUSH1 0x10 SLOAD DUP2 JUMP JUMPDEST CALLVALUE DUP1 ISZERO PUSH2 0x630 JUMPI PUSH1 0x0 DUP1 REVERT JUMPDEST POP PUSH1 0x1B SLOAD PUSH2 0x566 SWAP1 PUSH1 0x1 PUSH1 0x1 PUSH1 0xA0 SHL SUB AND DUP2 JUMP JUMPDEST CALLVALUE DUP1 ISZERO PUSH2 0x650 JUMPI PUSH1 0x0 DUP1 REVERT JUMPDEST POP PUSH2 0x5D5 PUSH2 0x163E JUMP JUMPDEST CALLVALUE DUP1 ISZERO PUSH2 0x665 JUMPI PUSH1 0x0 DUP1 REVERT JUMPDEST POP PUSH2 0x4A4 PUSH1 0x16 SLOAD DUP2 JUMP JUMPDEST CALLVALUE DUP1 ISZERO PUSH2 0x67B JUMPI PUSH1 0x0 DUP1 REVERT JUMPDEST POP PUSH2 0x5D5 PUSH2 0x164B JUMP JUMPDEST CALLVALUE DUP1 ISZERO PUSH2 0x690 JUMPI PUSH1 0x0 DUP1 REVERT JUMPDEST POP PUSH2 0x4A4 PUSH1 0x19 SLOAD DUP2 JUMP JUMPDEST CALLVALUE DUP1 ISZERO PUSH2 0x6A6 JUMPI PUSH1 0x0 DUP1 REVERT JUMPDEST POP PUSH2 0x46C PUSH2 0x1658 JUMP JUMPDEST CALLVALUE DUP1 ISZERO PUSH2 0x6BB JUMPI PUSH1 0x0 DUP1 REVERT JUMPDEST POP PUSH2 0x46C PUSH2 0x6CA CALLDATASIZE PUSH1 0x4 PUSH2 0x4D33 JUMP JUMPDEST PUSH2 0x1691 JUMP JUMPDEST CALLVALUE DUP1 ISZERO PUSH2 0x6DB JUMPI PUSH1 0x0 DUP1 REVERT JUMPDEST POP PUSH2 0x4A4 PUSH1 0xC SLOAD DUP2 JUMP JUMPDEST CALLVALUE DUP1 ISZERO PUSH2 0x6F1 JUMPI PUSH1 0x0 DUP1 REVERT JUMPDEST POP PUSH2 0x46C PUSH2 0x16FF JUMP JUMPDEST CALLVALUE DUP1 ISZERO PUSH2 0x706 JUMPI PUSH1 0x0 DUP1 REVERT JUMPDEST POP PUSH2 0x46C PUSH2 0x715 CALLDATASIZE PUSH1 0x4 PUSH2 0x4AED JUMP JUMPDEST PUSH2 0x18C0 JUMP JUMPDEST CALLVALUE DUP1 ISZERO PUSH2 0x726 JUMPI PUSH1 0x0 DUP1 REVERT JUMPDEST POP PUSH2 0x46C PUSH2 0x735 CALLDATASIZE PUSH1 0x4 PUSH2 0x4BC2 JUMP JUMPDEST PUSH2 0x1933 JUMP JUMPDEST CALLVALUE DUP1 ISZERO PUSH2 0x746 JUMPI PUSH1 0x0 DUP1 REVERT JUMPDEST POP PUSH2 0x46C PUSH2 0x1E67 JUMP JUMPDEST CALLVALUE DUP1 ISZERO PUSH2 0x75B JUMPI PUSH1 0x0 DUP1 REVERT JUMPDEST POP PUSH2 0x4A4 PUSH2 0x2710 DUP2 JUMP JUMPDEST CALLVALUE DUP1 ISZERO PUSH2 0x771 JUMPI PUSH1 0x0 DUP1 REVERT JUMPDEST POP PUSH1 0x0 SLOAD PUSH1 0xFF AND JUMPDEST PUSH1 0x40 MLOAD SWAP1 ISZERO ISZERO DUP2 MSTORE PUSH1 0x20 ADD PUSH2 0x4AE JUMP JUMPDEST CALLVALUE DUP1 ISZERO PUSH2 0x795 JUMPI PUSH1 0x0 DUP1 REVERT JUMPDEST POP PUSH2 0x4A4 PUSH1 0xD SLOAD DUP2 JUMP JUMPDEST CALLVALUE DUP1 ISZERO PUSH2 0x7AB JUMPI PUSH1 0x0 DUP1 REVERT JUMPDEST POP PUSH1 0x29 SLOAD PUSH2 0x566 SWAP1 PUSH1 0x1 PUSH1 0x1 PUSH1 0xA0 SHL SUB AND DUP2 JUMP JUMPDEST CALLVALUE DUP1 ISZERO PUSH2 0x7CB JUMPI PUSH1 0x0 DUP1 REVERT JUMPDEST POP PUSH1 0x9 SLOAD PUSH2 0x566 SWAP1 PUSH1 0x1 PUSH1 0x1 PUSH1 0xA0 SHL SUB AND DUP2 JUMP JUMPDEST CALLVALUE DUP1 ISZERO PUSH2 0x7EB JUMPI PUSH1 0x0 DUP1 REVERT JUMPDEST POP PUSH2 0x4A4 PUSH1 0x31 SLOAD DUP2 JUMP JUMPDEST CALLVALUE DUP1 ISZERO PUSH2 0x801 JUMPI PUSH1 0x0 DUP1 REVERT JUMPDEST POP PUSH2 0x5D5 PUSH2 0x1FBB JUMP JUMPDEST CALLVALUE DUP1 ISZERO PUSH2 0x816 JUMPI PUSH1 0x0 DUP1 REVERT JUMPDEST POP PUSH2 0x5D5 PUSH2 0x1FC8 JUMP JUMPDEST CALLVALUE DUP1 ISZERO PUSH2 0x82B JUMPI PUSH1 0x0 DUP1 REVERT JUMPDEST POP PUSH2 0x5D5 PUSH2 0x1FD5 JUMP JUMPDEST CALLVALUE DUP1 ISZERO PUSH2 0x840 JUMPI PUSH1 0x0 DUP1 REVERT JUMPDEST POP PUSH2 0x4A4 PUSH1 0xF SLOAD DUP2 JUMP JUMPDEST CALLVALUE DUP1 ISZERO PUSH2 0x856 JUMPI PUSH1 0x0 DUP1 REVERT JUMPDEST POP PUSH1 0x1A SLOAD PUSH2 0x779 SWAP1 PUSH1 0xFF AND DUP2 JUMP JUMPDEST CALLVALUE DUP1 ISZERO PUSH2 0x870 JUMPI PUSH1 0x0 DUP1 REVERT JUMPDEST POP PUSH1 0x7 SLOAD PUSH2 0x566 SWAP1 PUSH1 0x1 PUSH1 0x1 PUSH1 0xA0 SHL SUB AND DUP2 JUMP JUMPDEST CALLVALUE DUP1 ISZERO PUSH2 0x890 JUMPI PUSH1 0x0 DUP1 REVERT JUMPDEST POP PUSH2 0x46C PUSH2 0x1FE2 JUMP JUMPDEST CALLVALUE DUP1 ISZERO PUSH2 0x8A5 JUMPI PUSH1 0x0 DUP1 REVERT JUMPDEST POP PUSH2 0x46C PUSH2 0x8B4 CALLDATASIZE PUSH1 0x4 PUSH2 0x4A4E JUMP JUMPDEST PUSH2 0x2019 JUMP JUMPDEST CALLVALUE DUP1 ISZERO PUSH2 0x8C5 JUMPI PUSH1 0x0 DUP1 REVERT JUMPDEST POP PUSH2 0x4A4 PUSH1 0x2C SLOAD DUP2 JUMP JUMPDEST CALLVALUE DUP1 ISZERO PUSH2 0x8DB JUMPI PUSH1 0x0 DUP1 REVERT JUMPDEST POP PUSH2 0x4A4 PUSH1 0xA SLOAD DUP2 JUMP JUMPDEST CALLVALUE DUP1 ISZERO PUSH2 0x8F1 JUMPI PUSH1 0x0 DUP1 REVERT JUMPDEST POP PUSH2 0x46C PUSH2 0x2062 JUMP JUMPDEST CALLVALUE DUP1 ISZERO PUSH2 0x906 JUMPI PUSH1 0x0 DUP1 REVERT JUMPDEST POP PUSH2 0x779 PUSH2 0x2300 JUMP JUMPDEST CALLVALUE DUP1 ISZERO PUSH2 0x91B JUMPI PUSH1 0x0 DUP1 REVERT JUMPDEST POP PUSH1 0x1A SLOAD PUSH2 0x566 SWAP1 PUSH2 0x100 SWAP1 DIV PUSH1 0x1 PUSH1 0x1 PUSH1 0xA0 SHL SUB AND DUP2 JUMP JUMPDEST CALLVALUE DUP1 ISZERO PUSH2 0x940 JUMPI PUSH1 0x0 DUP1 REVERT JUMPDEST POP PUSH2 0x5D5 PUSH2 0x2338 JUMP JUMPDEST CALLVALUE DUP1 ISZERO PUSH2 0x955 JUMPI PUSH1 0x0 DUP1 REVERT JUMPDEST POP PUSH2 0x46C PUSH2 0x964 CALLDATASIZE PUSH1 0x4 PUSH2 0x4A88 JUMP JUMPDEST PUSH2 0x2345 JUMP JUMPDEST CALLVALUE DUP1 ISZERO PUSH2 0x975 JUMPI PUSH1 0x0 DUP1 REVERT JUMPDEST POP PUSH2 0x4A4 PUSH1 0x1E SLOAD DUP2 JUMP JUMPDEST CALLVALUE DUP1 ISZERO PUSH2 0x98B JUMPI PUSH1 0x0 DUP1 REVERT JUMPDEST POP PUSH2 0x994 PUSH2 0x23A4 JUMP JUMPDEST PUSH1 0x40 MLOAD PUSH2 0x4AE SWAP2 SWAP1 PUSH2 0x4E20 JUMP JUMPDEST CALLVALUE DUP1 ISZERO PUSH2 0x9AD JUMPI PUSH1 0x0 DUP1 REVERT JUMPDEST POP PUSH2 0x4A4 PUSH1 0x11 SLOAD DUP2 JUMP JUMPDEST CALLVALUE DUP1 ISZERO PUSH2 0x9C3 JUMPI PUSH1 0x0 DUP1 REVERT JUMPDEST POP PUSH2 0x5D5 PUSH2 0x2490 JUMP JUMPDEST CALLVALUE DUP1 ISZERO PUSH2 0x9D8 JUMPI PUSH1 0x0 DUP1 REVERT JUMPDEST POP PUSH2 0x46C PUSH2 0x9E7 CALLDATASIZE PUSH1 0x4 PUSH2 0x4AED JUMP JUMPDEST PUSH2 0x249D JUMP JUMPDEST CALLVALUE DUP1 ISZERO PUSH2 0x9F8 JUMPI PUSH1 0x0 DUP1 REVERT JUMPDEST POP PUSH2 0x46C PUSH2 0xA07 CALLDATASIZE PUSH1 0x4 PUSH2 0x4CFF JUMP JUMPDEST PUSH2 0x2510 JUMP JUMPDEST CALLVALUE DUP1 ISZERO PUSH2 0xA18 JUMPI PUSH1 0x0 DUP1 REVERT JUMPDEST POP PUSH2 0x46C PUSH2 0xA27 CALLDATASIZE PUSH1 0x4 PUSH2 0x4AED JUMP JUMPDEST PUSH2 0x2657 JUMP JUMPDEST CALLVALUE DUP1 ISZERO PUSH2 0xA38 JUMPI PUSH1 0x0 DUP1 REVERT JUMPDEST POP PUSH2 0x4A4 PUSH2 0x26CA JUMP JUMPDEST CALLVALUE DUP1 ISZERO PUSH2 0xA4D JUMPI PUSH1 0x0 DUP1 REVERT JUMPDEST POP PUSH2 0x46C PUSH2 0x26D6 JUMP JUMPDEST CALLVALUE DUP1 ISZERO PUSH2 0xA62 JUMPI PUSH1 0x0 DUP1 REVERT JUMPDEST POP PUSH2 0x46C PUSH2 0xA71 CALLDATASIZE PUSH1 0x4 PUSH2 0x4AC1 JUMP JUMPDEST PUSH2 0x2726 JUMP JUMPDEST CALLVALUE DUP1 ISZERO PUSH2 0xA82 JUMPI PUSH1 0x0 DUP1 REVERT JUMPDEST POP PUSH2 0x46C PUSH2 0x27B7 JUMP JUMPDEST CALLVALUE DUP1 ISZERO PUSH2 0xA97 JUMPI PUSH1 0x0 DUP1 REVERT JUMPDEST POP PUSH2 0x4A4 PUSH1 0x17 SLOAD DUP2 JUMP JUMPDEST PUSH2 0x46C PUSH2 0xAAF CALLDATASIZE PUSH1 0x4 PUSH2 0x4D33 JUMP JUMPDEST PUSH2 0x2A7C JUMP JUMPDEST CALLVALUE DUP1 ISZERO PUSH2 0xAC0 JUMPI PUSH1 0x0 DUP1 REVERT JUMPDEST POP PUSH2 0x4A4 PUSH1 0x2D SLOAD DUP2 JUMP JUMPDEST CALLVALUE DUP1 ISZERO PUSH2 0xAD6 JUMPI PUSH1 0x0 DUP1 REVERT JUMPDEST POP PUSH2 0x4A4 PUSH1 0x18 SLOAD DUP2 JUMP JUMPDEST CALLVALUE DUP1 ISZERO PUSH2 0xAEC JUMPI PUSH1 0x0 DUP1 REVERT JUMPDEST POP PUSH2 0x4A4 PUSH1 0x12 SLOAD DUP2 JUMP JUMPDEST CALLVALUE DUP1 ISZERO PUSH2 0xB02 JUMPI PUSH1 0x0 DUP1 REVERT JUMPDEST POP PUSH2 0x4A4 PUSH1 0x1C SLOAD DUP2 JUMP JUMPDEST CALLVALUE DUP1 ISZERO PUSH2 0xB18 JUMPI PUSH1 0x0 DUP1 REVERT JUMPDEST POP PUSH2 0x4A4 PUSH2 0xB27 CALLDATASIZE PUSH1 0x4 PUSH2 0x4A4E JUMP JUMPDEST PUSH2 0x2D43 JUMP JUMPDEST CALLVALUE DUP1 ISZERO PUSH2 0xB38 JUMPI PUSH1 0x0 DUP1 REVERT JUMPDEST POP PUSH2 0x5D5 PUSH2 0x2DA2 JUMP JUMPDEST CALLVALUE DUP1 ISZERO PUSH2 0xB4D JUMPI PUSH1 0x0 DUP1 REVERT JUMPDEST POP PUSH2 0x994 PUSH2 0x2DAF JUMP JUMPDEST CALLVALUE DUP1 ISZERO PUSH2 0xB62 JUMPI PUSH1 0x0 DUP1 REVERT JUMPDEST POP PUSH2 0x4A4 PUSH1 0x2F SLOAD DUP2 JUMP JUMPDEST CALLVALUE DUP1 ISZERO PUSH2 0xB78 JUMPI PUSH1 0x0 DUP1 REVERT JUMPDEST POP PUSH2 0x4A4 PUSH1 0x1D SLOAD DUP2 JUMP JUMPDEST CALLVALUE DUP1 ISZERO PUSH2 0xB8E JUMPI PUSH1 0x0 DUP1 REVERT JUMPDEST POP PUSH2 0x5D5 PUSH2 0x2DBB JUMP JUMPDEST CALLVALUE DUP1 ISZERO PUSH2 0xBA3 JUMPI PUSH1 0x0 DUP1 REVERT JUMPDEST POP PUSH1 0x2E SLOAD PUSH2 0x566 SWAP1 PUSH1 0x1 PUSH1 0x1 PUSH1 0xA0 SHL SUB AND DUP2 JUMP JUMPDEST CALLVALUE DUP1 ISZERO PUSH2 0xBC3 JUMPI PUSH1 0x0 DUP1 REVERT JUMPDEST POP PUSH2 0x46C PUSH2 0x2DC8 JUMP JUMPDEST CALLVALUE DUP1 ISZERO PUSH2 0xBD8 JUMPI PUSH1 0x0 DUP1 REVERT JUMPDEST POP PUSH2 0x994 PUSH2 0xBE7 CALLDATASIZE PUSH1 0x4 PUSH2 0x4D65 JUMP JUMPDEST PUSH2 0x39B0 JUMP JUMPDEST CALLVALUE DUP1 ISZERO PUSH2 0xBF8 JUMPI PUSH1 0x0 DUP1 REVERT JUMPDEST POP PUSH2 0x4A4 PUSH1 0x2A SLOAD DUP2 JUMP JUMPDEST CALLVALUE DUP1 ISZERO PUSH2 0xC0E JUMPI PUSH1 0x0 DUP1 REVERT JUMPDEST POP PUSH2 0xC47 PUSH2 0xC1D CALLDATASIZE PUSH1 0x4 PUSH2 0x4A4E JUMP JUMPDEST PUSH1 0x32 PUSH1 0x20 MSTORE PUSH1 0x0 SWAP1 DUP2 MSTORE PUSH1 0x40 SWAP1 KECCAK256 DUP1 SLOAD PUSH1 0x1 DUP3 ADD SLOAD PUSH1 0x2 DUP4 ADD SLOAD PUSH1 0x3 SWAP1 SWAP4 ADD SLOAD SWAP2 SWAP3 SWAP1 SWAP2 PUSH1 0xFF AND DUP5 JUMP JUMPDEST PUSH1 0x40 DUP1 MLOAD SWAP5 DUP6 MSTORE PUSH1 0x20 DUP6 ADD SWAP4 SWAP1 SWAP4 MSTORE SWAP2 DUP4 ADD MSTORE ISZERO ISZERO PUSH1 0x60 DUP3 ADD MSTORE PUSH1 0x80 ADD PUSH2 0x4AE JUMP JUMPDEST CALLVALUE DUP1 ISZERO PUSH2 0xC75 JUMPI PUSH1 0x0 DUP1 REVERT JUMPDEST POP PUSH2 0x4A4 PUSH1 0xB SLOAD DUP2 JUMP JUMPDEST CALLVALUE DUP1 ISZERO PUSH2 0xC8B JUMPI PUSH1 0x0 DUP1 REVERT JUMPDEST POP PUSH2 0x4A4 PUSH1 0x13 SLOAD DUP2 JUMP JUMPDEST PUSH2 0xCA0 PUSH1 0x3 CALLER PUSH2 0x3AC5 JUMP JUMPDEST PUSH2 0xCC5 JUMPI PUSH1 0x40 MLOAD PUSH3 0x461BCD PUSH1 0xE5 SHL DUP2 MSTORE PUSH1 0x4 ADD PUSH2 0xCBC SWAP1 PUSH2 0x4E80 JUMP JUMPDEST PUSH1 0x40 MLOAD DUP1 SWAP2 SUB SWAP1 REVERT JUMPDEST PUSH2 0xCD0 DUP2 PUSH1 0x64 PUSH2 0x534D JUMP JUMPDEST PUSH1 0x19 SSTORE POP JUMP JUMPDEST PUSH2 0xCE1 PUSH1 0x1 CALLER PUSH2 0x3AC5 JUMP JUMPDEST PUSH2 0xCFD JUMPI PUSH1 0x40 MLOAD PUSH3 0x461BCD PUSH1 0xE5 SHL DUP2 MSTORE PUSH1 0x4 ADD PUSH2 0xCBC SWAP1 PUSH2 0x4EAF JUMP JUMPDEST PUSH1 0x1 DUP2 GT ISZERO PUSH2 0xD4E JUMPI PUSH1 0x40 MLOAD PUSH3 0x461BCD PUSH1 0xE5 SHL DUP2 MSTORE PUSH1 0x20 PUSH1 0x4 DUP3 ADD MSTORE PUSH1 0x1A PUSH1 0x24 DUP3 ADD MSTORE PUSH32 0x4C616E63687061643A2073657457686974656C697374506F6F6C000000000000 PUSH1 0x44 DUP3 ADD MSTORE PUSH1 0x64 ADD PUSH2 0xCBC JUMP JUMPDEST PUSH1 0x12 SSTORE JUMP JUMPDEST PUSH2 0xD5E PUSH1 0x1 CALLER PUSH2 0x3AC5 JUMP JUMPDEST PUSH2 0xD7A JUMPI PUSH1 0x40 MLOAD PUSH3 0x461BCD PUSH1 0xE5 SHL DUP2 MSTORE PUSH1 0x4 ADD PUSH2 0xCBC SWAP1 PUSH2 0x4EAF JUMP JUMPDEST PUSH1 0x0 JUMPDEST DUP2 MLOAD DUP2 LT ISZERO PUSH2 0xDC6 JUMPI PUSH2 0xDB3 DUP3 DUP3 DUP2 MLOAD DUP2 LT PUSH2 0xD9B JUMPI PUSH2 0xD9B PUSH2 0x5431 JUMP JUMPDEST PUSH1 0x20 MUL PUSH1 0x20 ADD ADD MLOAD PUSH1 0x5 PUSH2 0x3AE7 SWAP1 SWAP2 SWAP1 PUSH4 0xFFFFFFFF AND JUMP JUMPDEST POP DUP1 PUSH2 0xDBE DUP2 PUSH2 0x53EA JUMP JUMPDEST SWAP2 POP POP PUSH2 0xD7D JUMP JUMPDEST POP POP JUMP JUMPDEST PUSH1 0x40 DUP1 MLOAD PUSH1 0x80 DUP2 ADD DUP3 MSTORE PUSH1 0x0 DUP1 DUP3 MSTORE PUSH1 0x20 DUP3 ADD DUP2 SWAP1 MSTORE SWAP2 DUP2 ADD DUP3 SWAP1 MSTORE PUSH1 0x60 DUP2 ADD SWAP2 SWAP1 SWAP2 MSTORE PUSH1 0x40 DUP1 MLOAD PUSH1 0x80 DUP2 ADD DUP3 MSTORE PUSH1 0x0 DUP1 DUP3 MSTORE PUSH1 0x20 DUP3 ADD DUP2 SWAP1 MSTORE SWAP2 DUP2 ADD DUP3 SWAP1 MSTORE PUSH1 0x60 DUP2 ADD SWAP2 SWAP1 SWAP2 MSTORE PUSH1 0x7 SLOAD PUSH1 0x1 PUSH1 0x1 PUSH1 0xA0 SHL SUB DUP5 DUP2 AND SWAP2 AND EQ DUP1 PUSH2 0xE2F JUMPI POP SWAP3 SWAP2 POP POP JUMP JUMPDEST DUP1 ISZERO ISZERO DUP3 MSTORE PUSH1 0x12 SLOAD PUSH1 0x20 DUP4 ADD MSTORE PUSH1 0x17 SLOAD PUSH1 0x1 EQ PUSH1 0x60 DUP4 ADD DUP2 SWAP1 MSTORE DUP1 ISZERO PUSH2 0xE81 JUMPI POP PUSH1 0x10 SLOAD TIMESTAMP LT DUP1 ISZERO PUSH2 0xE65 JUMPI POP PUSH1 0xB SLOAD PUSH1 0x18 SLOAD LT ISZERO JUMPDEST DUP1 PUSH2 0xE81 JUMPI POP PUSH1 0x10 SLOAD TIMESTAMP LT ISZERO DUP1 ISZERO PUSH2 0xE81 JUMPI POP PUSH1 0xA SLOAD PUSH1 0x18 SLOAD LT ISZERO JUMPDEST ISZERO ISZERO PUSH1 0x40 DUP4 ADD MSTORE POP SWAP3 SWAP2 POP POP JUMP JUMPDEST PUSH2 0xE97 PUSH2 0x44DC JUMP JUMPDEST PUSH1 0x8 SLOAD PUSH1 0x40 MLOAD PUSH4 0x70A08231 PUSH1 0xE0 SHL DUP2 MSTORE ADDRESS PUSH1 0x4 DUP3 ADD MSTORE PUSH1 0x0 SWAP2 PUSH1 0x1 PUSH1 0x1 PUSH1 0xA0 SHL SUB AND SWAP1 PUSH4 0x70A08231 SWAP1 PUSH1 0x24 ADD PUSH1 0x20 PUSH1 0x40 MLOAD DUP1 DUP4 SUB DUP2 DUP7 DUP1 EXTCODESIZE ISZERO DUP1 ISZERO PUSH2 0xEDB JUMPI PUSH1 0x0 DUP1 REVERT JUMPDEST POP GAS STATICCALL ISZERO DUP1 ISZERO PUSH2 0xEEF JUMPI RETURNDATASIZE PUSH1 0x0 DUP1 RETURNDATACOPY RETURNDATASIZE PUSH1 0x0 REVERT JUMPDEST POP POP POP POP PUSH1 0x40 MLOAD RETURNDATASIZE PUSH1 0x1F NOT PUSH1 0x1F DUP3 ADD AND DUP3 ADD DUP1 PUSH1 0x40 MSTORE POP DUP2 ADD SWAP1 PUSH2 0xF13 SWAP2 SWAP1 PUSH2 0x4D4C JUMP JUMPDEST SWAP1 POP PUSH2 0xF1D PUSH2 0x44DC JUMP JUMPDEST PUSH1 0xA SLOAD DUP2 MSTORE PUSH1 0xB SLOAD PUSH1 0x20 DUP3 ADD MSTORE PUSH1 0xF SLOAD PUSH1 0x40 DUP3 ADD MSTORE PUSH1 0x10 SLOAD PUSH1 0x60 DUP3 ADD MSTORE PUSH1 0x17 SLOAD PUSH1 0x80 DUP3 ADD MSTORE PUSH1 0x18 SLOAD PUSH1 0xA0 DUP3 ADD MSTORE PUSH1 0xC0 DUP2 ADD DUP3 SWAP1 MSTORE PUSH1 0x9 SLOAD PUSH1 0x1 PUSH1 0x1 PUSH1 0xA0 SHL SUB AND PUSH1 0xE0 DUP3 ADD MSTORE PUSH1 0x16 SLOAD PUSH2 0x100 DUP3 ADD MSTORE PUSH1 0x12 SLOAD PUSH2 0x120 DUP3 ADD MSTORE PUSH1 0x1F DUP1 SLOAD PUSH2 0xF81 SWAP1 PUSH2 0x53AF JUMP JUMPDEST DUP1 PUSH1 0x1F ADD PUSH1 0x20 DUP1 SWAP2 DIV MUL PUSH1 0x20 ADD PUSH1 0x40 MLOAD SWAP1 DUP2 ADD PUSH1 0x40 MSTORE DUP1 SWAP3 SWAP2 SWAP1 DUP2 DUP2 MSTORE PUSH1 0x20 ADD DUP3 DUP1 SLOAD PUSH2 0xFAD SWAP1 PUSH2 0x53AF JUMP JUMPDEST DUP1 ISZERO PUSH2 0xFFA JUMPI DUP1 PUSH1 0x1F LT PUSH2 0xFCF JUMPI PUSH2 0x100 DUP1 DUP4 SLOAD DIV MUL DUP4 MSTORE SWAP2 PUSH1 0x20 ADD SWAP2 PUSH2 0xFFA JUMP JUMPDEST DUP3 ADD SWAP2 SWAP1 PUSH1 0x0 MSTORE PUSH1 0x20 PUSH1 0x0 KECCAK256 SWAP1 JUMPDEST DUP2 SLOAD DUP2 MSTORE SWAP1 PUSH1 0x1 ADD SWAP1 PUSH1 0x20 ADD DUP1 DUP4 GT PUSH2 0xFDD JUMPI DUP3 SWAP1 SUB PUSH1 0x1F AND DUP3 ADD SWAP2 JUMPDEST POP POP POP POP POP DUP2 PUSH2 0x140 ADD DUP2 SWAP1 MSTORE POP PUSH1 0x20 DUP1 SLOAD PUSH2 0x1015 SWAP1 PUSH2 0x53AF JUMP JUMPDEST DUP1 PUSH1 0x1F ADD PUSH1 0x20 DUP1 SWAP2 DIV MUL PUSH1 0x20 ADD PUSH1 0x40 MLOAD SWAP1 DUP2 ADD PUSH1 0x40 MSTORE DUP1 SWAP3 SWAP2 SWAP1 DUP2 DUP2 MSTORE PUSH1 0x20 ADD DUP3 DUP1 SLOAD PUSH2 0x1041 SWAP1 PUSH2 0x53AF JUMP JUMPDEST DUP1 ISZERO PUSH2 0x108E JUMPI DUP1 PUSH1 0x1F LT PUSH2 0x1063 JUMPI PUSH2 0x100 DUP1 DUP4 SLOAD DIV MUL DUP4 MSTORE SWAP2 PUSH1 0x20 ADD SWAP2 PUSH2 0x108E JUMP JUMPDEST DUP3 ADD SWAP2 SWAP1 PUSH1 0x0 MSTORE PUSH1 0x20 PUSH1 0x0 KECCAK256 SWAP1 JUMPDEST DUP2 SLOAD DUP2 MSTORE SWAP1 PUSH1 0x1 ADD SWAP1 PUSH1 0x20 ADD DUP1 DUP4 GT PUSH2 0x1071 JUMPI DUP3 SWAP1 SUB PUSH1 0x1F AND DUP3 ADD SWAP2 JUMPDEST POP POP POP POP POP DUP2 PUSH2 0x160 ADD DUP2 SWAP1 MSTORE POP PUSH1 0x21 DUP1 SLOAD PUSH2 0x10A9 SWAP1 PUSH2 0x53AF JUMP JUMPDEST DUP1 PUSH1 0x1F ADD PUSH1 0x20 DUP1 SWAP2 DIV MUL PUSH1 0x20 ADD PUSH1 0x40 MLOAD SWAP1 DUP2 ADD PUSH1 0x40 MSTORE DUP1 SWAP3 SWAP2 SWAP1 DUP2 DUP2 MSTORE PUSH1 0x20 ADD DUP3 DUP1 SLOAD PUSH2 0x10D5 SWAP1 PUSH2 0x53AF JUMP JUMPDEST DUP1 ISZERO PUSH2 0x1122 JUMPI DUP1 PUSH1 0x1F LT PUSH2 0x10F7 JUMPI PUSH2 0x100 DUP1 DUP4 SLOAD DIV MUL DUP4 MSTORE SWAP2 PUSH1 0x20 ADD SWAP2 PUSH2 0x1122 JUMP JUMPDEST DUP3 ADD SWAP2 SWAP1 PUSH1 0x0 MSTORE PUSH1 0x20 PUSH1 0x0 KECCAK256 SWAP1 JUMPDEST DUP2 SLOAD DUP2 MSTORE SWAP1 PUSH1 0x1 ADD SWAP1 PUSH1 0x20 ADD DUP1 DUP4 GT PUSH2 0x1105 JUMPI DUP3 SWAP1 SUB PUSH1 0x1F AND DUP3 ADD SWAP2 JUMPDEST POP POP POP POP POP DUP2 PUSH2 0x180 ADD DUP2 SWAP1 MSTORE POP PUSH1 0x22 DUP1 SLOAD PUSH2 0x113D SWAP1 PUSH2 0x53AF JUMP JUMPDEST DUP1 PUSH1 0x1F ADD PUSH1 0x20 DUP1 SWAP2 DIV MUL PUSH1 0x20 ADD PUSH1 0x40 MLOAD SWAP1 DUP2 ADD PUSH1 0x40 MSTORE DUP1 SWAP3 SWAP2 SWAP1 DUP2 DUP2 MSTORE PUSH1 0x20 ADD DUP3 DUP1 SLOAD PUSH2 0x1169 SWAP1 PUSH2 0x53AF JUMP JUMPDEST DUP1 ISZERO PUSH2 0x11B6 JUMPI DUP1 PUSH1 0x1F LT PUSH2 0x118B JUMPI PUSH2 0x100 DUP1 DUP4 SLOAD DIV MUL DUP4 MSTORE SWAP2 PUSH1 0x20 ADD SWAP2 PUSH2 0x11B6 JUMP JUMPDEST DUP3 ADD SWAP2 SWAP1 PUSH1 0x0 MSTORE PUSH1 0x20 PUSH1 0x0 KECCAK256 SWAP1 JUMPDEST DUP2 SLOAD DUP2 MSTORE SWAP1 PUSH1 0x1 ADD SWAP1 PUSH1 0x20 ADD DUP1 DUP4 GT PUSH2 0x1199 JUMPI DUP3 SWAP1 SUB PUSH1 0x1F AND DUP3 ADD SWAP2 JUMPDEST POP POP POP POP POP DUP2 PUSH2 0x1A0 ADD DUP2 SWAP1 MSTORE POP PUSH1 0x23 DUP1 SLOAD PUSH2 0x11D1 SWAP1 PUSH2 0x53AF JUMP JUMPDEST DUP1 PUSH1 0x1F ADD PUSH1 0x20 DUP1 SWAP2 DIV MUL PUSH1 0x20 ADD PUSH1 0x40 MLOAD SWAP1 DUP2 ADD PUSH1 0x40 MSTORE DUP1 SWAP3 SWAP2 SWAP1 DUP2 DUP2 MSTORE PUSH1 0x20 ADD DUP3 DUP1 SLOAD PUSH2 0x11FD SWAP1 PUSH2 0x53AF JUMP JUMPDEST DUP1 ISZERO PUSH2 0x124A JUMPI DUP1 PUSH1 0x1F LT PUSH2 0x121F JUMPI PUSH2 0x100 DUP1 DUP4 SLOAD DIV MUL DUP4 MSTORE SWAP2 PUSH1 0x20 ADD SWAP2 PUSH2 0x124A JUMP JUMPDEST DUP3 ADD SWAP2 SWAP1 PUSH1 0x0 MSTORE PUSH1 0x20 PUSH1 0x0 KECCAK256 SWAP1 JUMPDEST DUP2 SLOAD DUP2 MSTORE SWAP1 PUSH1 0x1 ADD SWAP1 PUSH1 0x20 ADD DUP1 DUP4 GT PUSH2 0x122D JUMPI DUP3 SWAP1 SUB PUSH1 0x1F AND DUP3 ADD SWAP2 JUMPDEST POP POP POP POP POP DUP2 PUSH2 0x1C0 ADD DUP2 SWAP1 MSTORE POP PUSH1 0x24 DUP1 SLOAD PUSH2 0x1265 SWAP1 PUSH2 0x53AF JUMP JUMPDEST DUP1 PUSH1 0x1F ADD PUSH1 0x20 DUP1 SWAP2 DIV MUL PUSH1 0x20 ADD PUSH1 0x40 MLOAD SWAP1 DUP2 ADD PUSH1 0x40 MSTORE DUP1 SWAP3 SWAP2 SWAP1 DUP2 DUP2 MSTORE PUSH1 0x20 ADD DUP3 DUP1 SLOAD PUSH2 0x1291 SWAP1 PUSH2 0x53AF JUMP JUMPDEST DUP1 ISZERO PUSH2 0x12DE JUMPI DUP1 PUSH1 0x1F LT PUSH2 0x12B3 JUMPI PUSH2 0x100 DUP1 DUP4 SLOAD DIV MUL DUP4 MSTORE SWAP2 PUSH1 0x20 ADD SWAP2 PUSH2 0x12DE JUMP JUMPDEST DUP3 ADD SWAP2 SWAP1 PUSH1 0x0 MSTORE PUSH1 0x20 PUSH1 0x0 KECCAK256 SWAP1 JUMPDEST DUP2 SLOAD DUP2 MSTORE SWAP1 PUSH1 0x1 ADD SWAP1 PUSH1 0x20 ADD DUP1 DUP4 GT PUSH2 0x12C1 JUMPI DUP3 SWAP1 SUB PUSH1 0x1F AND DUP3 ADD SWAP2 JUMPDEST POP POP POP POP POP DUP2 PUSH2 0x1E0 ADD DUP2 SWAP1 MSTORE POP PUSH1 0x25 DUP1 SLOAD PUSH2 0x12F9 SWAP1 PUSH2 0x53AF JUMP JUMPDEST DUP1 PUSH1 0x1F ADD PUSH1 0x20 DUP1 SWAP2 DIV MUL PUSH1 0x20 ADD PUSH1 0x40 MLOAD SWAP1 DUP2 ADD PUSH1 0x40 MSTORE DUP1 SWAP3 SWAP2 SWAP1 DUP2 DUP2 MSTORE PUSH1 0x20 ADD DUP3 DUP1 SLOAD PUSH2 0x1325 SWAP1 PUSH2 0x53AF JUMP JUMPDEST DUP1 ISZERO PUSH2 0x1372 JUMPI DUP1 PUSH1 0x1F LT PUSH2 0x1347 JUMPI PUSH2 0x100 DUP1 DUP4 SLOAD DIV MUL DUP4 MSTORE SWAP2 PUSH1 0x20 ADD SWAP2 PUSH2 0x1372 JUMP JUMPDEST DUP3 ADD SWAP2 SWAP1 PUSH1 0x0 MSTORE PUSH1 0x20 PUSH1 0x0 KECCAK256 SWAP1 JUMPDEST DUP2 SLOAD DUP2 MSTORE SWAP1 PUSH1 0x1 ADD SWAP1 PUSH1 0x20 ADD DUP1 DUP4 GT PUSH2 0x1355 JUMPI DUP3 SWAP1 SUB PUSH1 0x1F AND DUP3 ADD SWAP2 JUMPDEST POP POP POP POP POP DUP2 PUSH2 0x200 ADD DUP2 SWAP1 MSTORE POP PUSH1 0x26 DUP1 SLOAD PUSH2 0x138D SWAP1 PUSH2 0x53AF JUMP JUMPDEST DUP1 PUSH1 0x1F ADD PUSH1 0x20 DUP1 SWAP2 DIV MUL PUSH1 0x20 ADD PUSH1 0x40 MLOAD SWAP1 DUP2 ADD PUSH1 0x40 MSTORE DUP1 SWAP3 SWAP2 SWAP1 DUP2 DUP2 MSTORE PUSH1 0x20 ADD DUP3 DUP1 SLOAD PUSH2 0x13B9 SWAP1 PUSH2 0x53AF JUMP JUMPDEST DUP1 ISZERO PUSH2 0x1406 JUMPI DUP1 PUSH1 0x1F LT PUSH2 0x13DB JUMPI PUSH2 0x100 DUP1 DUP4 SLOAD DIV MUL DUP4 MSTORE SWAP2 PUSH1 0x20 ADD SWAP2 PUSH2 0x1406 JUMP JUMPDEST DUP3 ADD SWAP2 SWAP1 PUSH1 0x0 MSTORE PUSH1 0x20 PUSH1 0x0 KECCAK256 SWAP1 JUMPDEST DUP2 SLOAD DUP2 MSTORE SWAP1 PUSH1 0x1 ADD SWAP1 PUSH1 0x20 ADD DUP1 DUP4 GT PUSH2 0x13E9 JUMPI DUP3 SWAP1 SUB PUSH1 0x1F AND DUP3 ADD SWAP2 JUMPDEST POP POP POP POP POP DUP2 PUSH2 0x220 ADD DUP2 SWAP1 MSTORE POP PUSH1 0x27 DUP1 SLOAD PUSH2 0x1421 SWAP1 PUSH2 0x53AF JUMP JUMPDEST DUP1 PUSH1 0x1F ADD PUSH1 0x20 DUP1 SWAP2 DIV MUL PUSH1 0x20 ADD PUSH1 0x40 MLOAD SWAP1 DUP2 ADD PUSH1 0x40 MSTORE DUP1 SWAP3 SWAP2 SWAP1 DUP2 DUP2 MSTORE PUSH1 0x20 ADD DUP3 DUP1 SLOAD PUSH2 0x144D SWAP1 PUSH2 0x53AF JUMP JUMPDEST DUP1 ISZERO PUSH2 0x149A JUMPI DUP1 PUSH1 0x1F LT PUSH2 0x146F JUMPI PUSH2 0x100 DUP1 DUP4 SLOAD DIV MUL DUP4 MSTORE SWAP2 PUSH1 0x20 ADD SWAP2 PUSH2 0x149A JUMP JUMPDEST DUP3 ADD SWAP2 SWAP1 PUSH1 0x0 MSTORE PUSH1 0x20 PUSH1 0x0 KECCAK256 SWAP1 JUMPDEST DUP2 SLOAD DUP2 MSTORE SWAP1 PUSH1 0x1 ADD SWAP1 PUSH1 0x20 ADD DUP1 DUP4 GT PUSH2 0x147D JUMPI DUP3 SWAP1 SUB PUSH1 0x1F AND DUP3 ADD SWAP2 JUMPDEST POP POP POP POP POP DUP2 PUSH2 0x240 ADD DUP2 SWAP1 MSTORE POP PUSH1 0x28 DUP1 SLOAD PUSH2 0x14B5 SWAP1 PUSH2 0x53AF JUMP JUMPDEST DUP1 PUSH1 0x1F ADD PUSH1 0x20 DUP1 SWAP2 DIV MUL PUSH1 0x20 ADD PUSH1 0x40 MLOAD SWAP1 DUP2 ADD PUSH1 0x40 MSTORE DUP1 SWAP3 SWAP2 SWAP1 DUP2 DUP2 MSTORE PUSH1 0x20 ADD DUP3 DUP1 SLOAD PUSH2 0x14E1 SWAP1 PUSH2 0x53AF JUMP JUMPDEST DUP1 ISZERO PUSH2 0x152E JUMPI DUP1 PUSH1 0x1F LT PUSH2 0x1503 JUMPI PUSH2 0x100 DUP1 DUP4 SLOAD DIV MUL DUP4 MSTORE SWAP2 PUSH1 0x20 ADD SWAP2 PUSH2 0x152E JUMP JUMPDEST DUP3 ADD SWAP2 SWAP1 PUSH1 0x0 MSTORE PUSH1 0x20 PUSH1 0x0 KECCAK256 SWAP1 JUMPDEST DUP2 SLOAD DUP2 MSTORE SWAP1 PUSH1 0x1 ADD SWAP1 PUSH1 0x20 ADD DUP1 DUP4 GT PUSH2 0x1511 JUMPI DUP3 SWAP1 SUB PUSH1 0x1F AND DUP3 ADD SWAP2 JUMPDEST POP POP POP POP POP PUSH2 0x260 DUP3 ADD MSTORE PUSH1 0x8 SLOAD PUSH1 0x1 PUSH1 0x1 PUSH1 0xA0 SHL SUB AND PUSH2 0x280 DUP3 ADD MSTORE PUSH1 0x13 SLOAD PUSH2 0x2A0 DUP3 ADD MSTORE PUSH1 0x1D SLOAD PUSH2 0x2C0 DUP3 ADD MSTORE PUSH1 0x1C SLOAD PUSH2 0x2E0 DUP3 ADD MSTORE PUSH1 0x1E SLOAD PUSH2 0x300 DUP3 ADD MSTORE PUSH1 0xE SLOAD PUSH2 0x320 DUP3 ADD MSTORE PUSH1 0xD SLOAD PUSH2 0x340 DUP3 ADD MSTORE PUSH1 0x31 SLOAD PUSH2 0x360 DUP3 ADD MSTORE PUSH1 0xC SLOAD PUSH2 0x380 DUP3 ADD MSTORE PUSH1 0x2F SLOAD PUSH2 0x3A0 DUP3 ADD MSTORE PUSH1 0x1A SLOAD PUSH1 0xFF AND ISZERO ISZERO PUSH2 0x3C0 DUP3 ADD MSTORE SWAP3 SWAP2 POP POP JUMP JUMPDEST PUSH1 0x25 DUP1 SLOAD PUSH2 0x15BD SWAP1 PUSH2 0x53AF JUMP JUMPDEST DUP1 PUSH1 0x1F ADD PUSH1 0x20 DUP1 SWAP2 DIV MUL PUSH1 0x20 ADD PUSH1 0x40 MLOAD SWAP1 DUP2 ADD PUSH1 0x40 MSTORE DUP1 SWAP3 SWAP2 SWAP1 DUP2 DUP2 MSTORE PUSH1 0x20 ADD DUP3 DUP1 SLOAD PUSH2 0x15E9 SWAP1 PUSH2 0x53AF JUMP JUMPDEST DUP1 ISZERO PUSH2 0x1636 JUMPI DUP1 PUSH1 0x1F LT PUSH2 0x160B JUMPI PUSH2 0x100 DUP1 DUP4 SLOAD DIV MUL DUP4 MSTORE SWAP2 PUSH1 0x20 ADD SWAP2 PUSH2 0x1636 JUMP JUMPDEST DUP3 ADD SWAP2 SWAP1 PUSH1 0x0 MSTORE PUSH1 0x20 PUSH1 0x0 KECCAK256 SWAP1 JUMPDEST DUP2 SLOAD DUP2 MSTORE SWAP1 PUSH1 0x1 ADD SWAP1 PUSH1 0x20 ADD DUP1 DUP4 GT PUSH2 0x1619 JUMPI DUP3 SWAP1 SUB PUSH1 0x1F AND DUP3 ADD SWAP2 JUMPDEST POP POP POP POP POP DUP2 JUMP JUMPDEST PUSH1 0x28 DUP1 SLOAD PUSH2 0x15BD SWAP1 PUSH2 0x53AF JUMP JUMPDEST PUSH1 0x27 DUP1 SLOAD PUSH2 0x15BD SWAP1 PUSH2 0x53AF JUMP JUMPDEST PUSH2 0x1663 PUSH1 0x1 CALLER PUSH2 0x3AC5 JUMP JUMPDEST PUSH2 0x167F JUMPI PUSH1 0x40 MLOAD PUSH3 0x461BCD PUSH1 0xE5 SHL DUP2 MSTORE PUSH1 0x4 ADD PUSH2 0xCBC SWAP1 PUSH2 0x4EAF JUMP JUMPDEST PUSH2 0x1687 PUSH2 0x3AFC JUMP JUMPDEST PUSH2 0x168F PUSH2 0x3B45 JUMP JUMPDEST JUMP JUMPDEST PUSH2 0x169C PUSH1 0x1 CALLER PUSH2 0x3AC5 JUMP JUMPDEST PUSH2 0x16B8 JUMPI PUSH1 0x40 MLOAD PUSH3 0x461BCD PUSH1 0xE5 SHL DUP2 MSTORE PUSH1 0x4 ADD PUSH2 0xCBC SWAP1 PUSH2 0x4EAF JUMP JUMPDEST PUSH1 0x0 DUP2 GT PUSH2 0x16FA JUMPI PUSH1 0x40 MLOAD PUSH3 0x461BCD PUSH1 0xE5 SHL DUP2 MSTORE PUSH1 0x20 PUSH1 0x4 DUP3 ADD MSTORE PUSH1 0xF PUSH1 0x24 DUP3 ADD MSTORE PUSH15 0x6C61756E63687061643A2054494D45 PUSH1 0x88 SHL PUSH1 0x44 DUP3 ADD MSTORE PUSH1 0x64 ADD PUSH2 0xCBC JUMP JUMPDEST PUSH1 0x16 SSTORE JUMP JUMPDEST PUSH2 0x1707 PUSH2 0x3B97 JUMP JUMPDEST CALLER PUSH1 0x0 SWAP1 DUP2 MSTORE PUSH1 0x32 PUSH1 0x20 MSTORE PUSH1 0x40 SWAP1 KECCAK256 PUSH1 0x2 DUP2 ADD SLOAD PUSH1 0x1 DUP3 ADD SLOAD LT PUSH2 0x1762 JUMPI PUSH1 0x40 MLOAD PUSH3 0x461BCD PUSH1 0xE5 SHL DUP2 MSTORE PUSH1 0x20 PUSH1 0x4 DUP3 ADD MSTORE PUSH1 0x12 PUSH1 0x24 DUP3 ADD MSTORE PUSH18 0x1B185D5B98DA1C18590E8810DB185A5B5959 PUSH1 0x72 SHL PUSH1 0x44 DUP3 ADD MSTORE PUSH1 0x64 ADD PUSH2 0xCBC JUMP JUMPDEST PUSH1 0x17 SLOAD PUSH1 0x2 EQ PUSH2 0x17B4 JUMPI PUSH1 0x40 MLOAD PUSH3 0x461BCD PUSH1 0xE5 SHL DUP2 MSTORE PUSH1 0x20 PUSH1 0x4 DUP3 ADD MSTORE PUSH1 0x17 PUSH1 0x24 DUP3 ADD MSTORE PUSH32 0x6C61756E63687061643A204E6F742066696E616C697A65000000000000000000 PUSH1 0x44 DUP3 ADD MSTORE PUSH1 0x64 ADD PUSH2 0xCBC JUMP JUMPDEST PUSH1 0x3 DUP2 ADD SLOAD PUSH1 0xFF AND ISZERO PUSH2 0x1800 JUMPI PUSH1 0x40 MLOAD PUSH3 0x461BCD PUSH1 0xE5 SHL DUP2 MSTORE PUSH1 0x20 PUSH1 0x4 DUP3 ADD MSTORE PUSH1 0x14 PUSH1 0x24 DUP3 ADD MSTORE PUSH20 0x6C61756E63687061643A20526566756E64656421 PUSH1 0x60 SHL PUSH1 0x44 DUP3 ADD MSTORE PUSH1 0x64 ADD PUSH2 0xCBC JUMP JUMPDEST PUSH1 0x40 DUP1 MLOAD PUSH1 0x80 DUP2 ADD DUP3 MSTORE DUP3 SLOAD DUP2 MSTORE PUSH1 0x1 DUP4 ADD SLOAD PUSH1 0x20 DUP3 ADD MSTORE PUSH1 0x2 DUP4 ADD SLOAD SWAP2 DUP2 ADD SWAP2 SWAP1 SWAP2 MSTORE PUSH1 0x3 DUP3 ADD SLOAD PUSH1 0xFF AND ISZERO ISZERO PUSH1 0x60 DUP3 ADD MSTORE PUSH1 0x0 SWAP1 PUSH2 0x183F SWAP1 PUSH2 0x3BDD JUMP JUMPDEST SWAP1 POP PUSH1 0x0 DUP2 GT PUSH2 0x1889 JUMPI PUSH1 0x40 MLOAD PUSH3 0x461BCD PUSH1 0xE5 SHL DUP2 MSTORE PUSH1 0x20 PUSH1 0x4 DUP3 ADD MSTORE PUSH1 0x15 PUSH1 0x24 DUP3 ADD MSTORE PUSH21 0x3630BAB731B43830B21D102D32B937903A37B5B2B7 PUSH1 0x59 SHL PUSH1 0x44 DUP3 ADD MSTORE PUSH1 0x64 ADD PUSH2 0xCBC JUMP JUMPDEST PUSH1 0x0 DUP2 DUP4 PUSH1 0x1 ADD SLOAD PUSH2 0x189B SWAP2 SWAP1 PUSH2 0x5228 JUMP JUMPDEST PUSH1 0x1 DUP5 ADD DUP2 SWAP1 SSTORE SWAP1 POP PUSH2 0x18BB CALLER PUSH1 0x8 SLOAD PUSH1 0x1 PUSH1 0x1 PUSH1 0xA0 SHL SUB AND SWAP1 DUP5 PUSH2 0x3D15 JUMP JUMPDEST POP POP POP JUMP JUMPDEST PUSH2 0x18CB PUSH1 0x1 CALLER PUSH2 0x3AC5 JUMP JUMPDEST PUSH2 0x18E7 JUMPI PUSH1 0x40 MLOAD PUSH3 0x461BCD PUSH1 0xE5 SHL DUP2 MSTORE PUSH1 0x4 ADD PUSH2 0xCBC SWAP1 PUSH2 0x4EAF JUMP JUMPDEST PUSH1 0x0 JUMPDEST DUP2 MLOAD DUP2 LT ISZERO PUSH2 0xDC6 JUMPI PUSH2 0x1920 DUP3 DUP3 DUP2 MLOAD DUP2 LT PUSH2 0x1908 JUMPI PUSH2 0x1908 PUSH2 0x5431 JUMP JUMPDEST PUSH1 0x20 MUL PUSH1 0x20 ADD ADD MLOAD PUSH1 0x1 PUSH2 0x3D78 SWAP1 SWAP2 SWAP1 PUSH4 0xFFFFFFFF AND JUMP JUMPDEST POP DUP1 PUSH2 0x192B DUP2 PUSH2 0x53EA JUMP JUMPDEST SWAP2 POP POP PUSH2 0x18EA JUMP JUMPDEST DUP8 MLOAD PUSH1 0x1 PUSH1 0x1 PUSH1 0xA0 SHL SUB AND PUSH2 0x197D JUMPI PUSH1 0x40 MLOAD PUSH3 0x461BCD PUSH1 0xE5 SHL DUP2 MSTORE PUSH1 0x20 PUSH1 0x4 DUP3 ADD MSTORE PUSH1 0x10 PUSH1 0x24 DUP3 ADD MSTORE PUSH16 0x3630BAB731B43830B21D102A27A5A2A7 PUSH1 0x81 SHL PUSH1 0x44 DUP3 ADD MSTORE PUSH1 0x64 ADD PUSH2 0xCBC JUMP JUMPDEST PUSH1 0x0 DUP9 PUSH1 0x80 ADD MLOAD GT PUSH2 0x19C6 JUMPI PUSH1 0x40 MLOAD PUSH3 0x461BCD PUSH1 0xE5 SHL DUP2 MSTORE PUSH1 0x20 PUSH1 0x4 DUP3 ADD MSTORE PUSH1 0x12 PUSH1 0x24 DUP3 ADD MSTORE PUSH18 0x6C61756E63687061643A2050524553414C45 PUSH1 0x70 SHL PUSH1 0x44 DUP3 ADD MSTORE PUSH1 0x64 ADD PUSH2 0xCBC JUMP JUMPDEST DUP8 PUSH1 0x60 ADD MLOAD DUP9 PUSH1 0x40 ADD MLOAD LT PUSH2 0x1A0E JUMPI PUSH1 0x40 MLOAD PUSH3 0x461BCD PUSH1 0xE5 SHL DUP2 MSTORE PUSH1 0x20 PUSH1 0x4 DUP3 ADD MSTORE PUSH1 0xE PUSH1 0x24 DUP3 ADD MSTORE PUSH14 0x6C61756E63687061643A2043415 PUSH1 0x94 SHL PUSH1 0x44 DUP3 ADD MSTORE PUSH1 0x64 ADD PUSH2 0xCBC JUMP JUMPDEST DUP8 PUSH2 0x100 ADD MLOAD DUP9 PUSH1 0xE0 ADD MLOAD LT PUSH2 0x1A58 JUMPI PUSH1 0x40 MLOAD PUSH3 0x461BCD PUSH1 0xE5 SHL DUP2 MSTORE PUSH1 0x20 PUSH1 0x4 DUP3 ADD MSTORE PUSH1 0xF PUSH1 0x24 DUP3 ADD MSTORE PUSH15 0x6C61756E63687061643A2054494D45 PUSH1 0x88 SHL PUSH1 0x44 DUP3 ADD MSTORE PUSH1 0x64 ADD PUSH2 0xCBC JUMP JUMPDEST DUP8 PUSH1 0xC0 ADD MLOAD DUP9 PUSH1 0xA0 ADD MLOAD LT PUSH2 0x1AA3 JUMPI PUSH1 0x40 MLOAD PUSH3 0x461BCD PUSH1 0xE5 SHL DUP2 MSTORE PUSH1 0x20 PUSH1 0x4 DUP3 ADD MSTORE PUSH1 0x11 PUSH1 0x24 DUP3 ADD MSTORE PUSH17 0x1B185D5B98DA1C18590E881253959154D5 PUSH1 0x7A SHL PUSH1 0x44 DUP3 ADD MSTORE PUSH1 0x64 ADD PUSH2 0xCBC JUMP JUMPDEST PUSH2 0x2710 DUP7 PUSH1 0x80 ADD MLOAD GT ISZERO PUSH2 0x1AEE JUMPI PUSH1 0x40 MLOAD PUSH3 0x461BCD PUSH1 0xE5 SHL DUP2 MSTORE PUSH1 0x20 PUSH1 0x4 DUP3 ADD MSTORE PUSH1 0x12 PUSH1 0x24 DUP3 ADD MSTORE PUSH18 0x6C61756E63687061643A204C495354494E47 PUSH1 0x70 SHL PUSH1 0x44 DUP3 ADD MSTORE PUSH1 0x64 ADD PUSH2 0xCBC JUMP JUMPDEST PUSH1 0x40 DUP8 ADD MLOAD DUP8 MLOAD PUSH2 0x2710 SWAP2 PUSH2 0x1B02 SWAP2 PUSH2 0x5228 JUMP JUMPDEST GT ISZERO PUSH2 0x1B45 JUMPI PUSH1 0x40 MLOAD PUSH3 0x461BCD PUSH1 0xE5 SHL DUP2 MSTORE PUSH1 0x20 PUSH1 0x4 DUP3 ADD MSTORE PUSH1 0x12 PUSH1 0x24 DUP3 ADD MSTORE PUSH18 0x6C61756E63687061643A2056455354494E47 PUSH1 0x70 SHL PUSH1 0x44 DUP3 ADD MSTORE PUSH1 0x64 ADD PUSH2 0xCBC JUMP JUMPDEST PUSH2 0x1B61 DUP9 PUSH1 0x0 ADD MLOAD DUP10 PUSH1 0x20 ADD MLOAD DUP9 PUSH1 0x20 ADD MLOAD DUP10 PUSH1 0x40 ADD MLOAD PUSH2 0x3D8D JUMP JUMPDEST PUSH2 0x1B7D JUMPI PUSH1 0x40 MLOAD PUSH3 0x461BCD PUSH1 0xE5 SHL DUP2 MSTORE PUSH1 0x4 ADD PUSH2 0xCBC SWAP1 PUSH2 0x4F1D JUMP JUMPDEST PUSH1 0x30 DUP1 SLOAD PUSH2 0xDEAD PUSH1 0x1 PUSH1 0x1 PUSH1 0xA0 SHL SUB NOT SWAP2 DUP3 AND OR SWAP1 SWAP2 SSTORE PUSH1 0x31 DUP4 SWAP1 SSTORE DUP9 MLOAD PUSH1 0x8 DUP1 SLOAD DUP4 AND PUSH1 0x1 PUSH1 0x1 PUSH1 0xA0 SHL SUB SWAP3 DUP4 AND OR SWAP1 SSTORE PUSH1 0x20 DUP1 DUP12 ADD MLOAD PUSH1 0x9 DUP1 SLOAD SWAP1 SWAP5 AND SWAP3 AND SWAP2 SWAP1 SWAP2 OR SWAP1 SWAP2 SSTORE PUSH1 0x40 DUP1 DUP11 ADD MLOAD PUSH1 0xA SSTORE PUSH1 0x60 DUP11 ADD MLOAD PUSH1 0xB SSTORE PUSH1 0x80 DUP11 ADD MLOAD PUSH1 0xC SSTORE PUSH1 0xA0 DUP11 ADD MLOAD PUSH1 0xD SSTORE PUSH1 0xC0 DUP11 ADD MLOAD PUSH1 0xE SSTORE PUSH1 0xE0 DUP11 ADD MLOAD PUSH1 0xF SSTORE PUSH2 0x100 DUP11 ADD MLOAD PUSH1 0x10 SSTORE PUSH2 0x120 DUP11 ADD MLOAD PUSH1 0x12 SSTORE PUSH2 0x140 DUP11 ADD MLOAD PUSH1 0x11 SSTORE DUP9 MLOAD PUSH1 0x13 SSTORE SWAP1 DUP9 ADD MLOAD PUSH1 0x14 SSTORE DUP8 ADD MLOAD PUSH1 0x15 SSTORE DUP6 MLOAD PUSH1 0x1A DUP1 SLOAD PUSH1 0xFF NOT AND SWAP2 ISZERO ISZERO SWAP2 DUP3 OR SWAP1 SSTORE PUSH1 0xFF AND PUSH2 0x1CD1 JUMPI PUSH2 0x1C58 DUP9 PUSH1 0x0 ADD MLOAD DUP10 PUSH1 0x20 ADD MLOAD DUP9 PUSH1 0x20 ADD MLOAD DUP10 PUSH1 0x40 ADD MLOAD PUSH2 0x3D8D JUMP JUMPDEST PUSH2 0x1C74 JUMPI PUSH1 0x40 MLOAD PUSH3 0x461BCD PUSH1 0xE5 SHL DUP2 MSTORE PUSH1 0x4 ADD PUSH2 0xCBC SWAP1 PUSH2 0x4F1D JUMP JUMPDEST PUSH1 0x20 DUP7 ADD MLOAD PUSH1 0x1B DUP1 SLOAD PUSH1 0x1 PUSH1 0x1 PUSH1 0xA0 SHL SUB SWAP3 DUP4 AND PUSH1 0x1 PUSH1 0x1 PUSH1 0xA0 SHL SUB NOT SWAP1 SWAP2 AND OR SWAP1 SSTORE PUSH1 0x40 DUP8 ADD MLOAD PUSH1 0x1A DUP1 SLOAD SWAP2 SWAP1 SWAP3 AND PUSH2 0x100 MUL PUSH2 0x100 PUSH1 0x1 PUSH1 0xA8 SHL SUB NOT SWAP1 SWAP2 AND OR SWAP1 SSTORE PUSH1 0x60 DUP7 ADD MLOAD PUSH1 0x1C SSTORE PUSH1 0x80 DUP7 ADD MLOAD PUSH1 0x1D SSTORE PUSH1 0xA0 DUP7 ADD MLOAD PUSH1 0x1E SSTORE JUMPDEST DUP5 MLOAD PUSH1 0x2C SSTORE PUSH1 0x20 DUP1 DUP7 ADD MLOAD PUSH1 0x2D SSTORE PUSH1 0x19 DUP3 SWAP1 SSTORE DUP4 MLOAD DUP1 MLOAD PUSH2 0x1CF6 SWAP3 PUSH1 0x1F SWAP3 ADD SWAP1 PUSH2 0x45D6 JUMP JUMPDEST POP PUSH1 0x20 DUP1 DUP5 ADD MLOAD DUP1 MLOAD PUSH2 0x1D0C SWAP3 SWAP2 DUP3 ADD SWAP1 PUSH2 0x45D6 JUMP JUMPDEST POP PUSH1 0x40 DUP4 ADD MLOAD DUP1 MLOAD PUSH2 0x1D26 SWAP2 PUSH1 0x21 SWAP2 PUSH1 0x20 SWAP1 SWAP2 ADD SWAP1 PUSH2 0x45D6 JUMP JUMPDEST POP PUSH1 0x60 DUP4 ADD MLOAD DUP1 MLOAD PUSH2 0x1D40 SWAP2 PUSH1 0x22 SWAP2 PUSH1 0x20 SWAP1 SWAP2 ADD SWAP1 PUSH2 0x45D6 JUMP JUMPDEST POP PUSH1 0x80 DUP4 ADD MLOAD DUP1 MLOAD PUSH2 0x1D5A SWAP2 PUSH1 0x23 SWAP2 PUSH1 0x20 SWAP1 SWAP2 ADD SWAP1 PUSH2 0x45D6 JUMP JUMPDEST POP PUSH1 0xA0 DUP4 ADD MLOAD DUP1 MLOAD PUSH2 0x1D74 SWAP2 PUSH1 0x24 SWAP2 PUSH1 0x20 SWAP1 SWAP2 ADD SWAP1 PUSH2 0x45D6 JUMP JUMPDEST POP PUSH1 0xC0 DUP4 ADD MLOAD DUP1 MLOAD PUSH2 0x1D8E SWAP2 PUSH1 0x25 SWAP2 PUSH1 0x20 SWAP1 SWAP2 ADD SWAP1 PUSH2 0x45D6 JUMP JUMPDEST POP PUSH1 0xE0 DUP4 ADD MLOAD DUP1 MLOAD PUSH2 0x1DA8 SWAP2 PUSH1 0x26 SWAP2 PUSH1 0x20 SWAP1 SWAP2 ADD SWAP1 PUSH2 0x45D6 JUMP JUMPDEST POP PUSH2 0x100 DUP4 ADD MLOAD DUP1 MLOAD PUSH2 0x1DC3 SWAP2 PUSH1 0x27 SWAP2 PUSH1 0x20 SWAP1 SWAP2 ADD SWAP1 PUSH2 0x45D6 JUMP JUMPDEST POP PUSH2 0x120 DUP4 ADD MLOAD DUP1 MLOAD PUSH2 0x1DDE SWAP2 PUSH1 0x28 SWAP2 PUSH1 0x20 SWAP1 SWAP2 ADD SWAP1 PUSH2 0x45D6 JUMP JUMPDEST POP PUSH1 0x1 PUSH1 0x17 DUP2 SWAP1 SSTORE DUP5 MLOAD PUSH2 0x1DF2 SWAP2 SWAP1 PUSH2 0x3D78 JUMP JUMPDEST POP PUSH1 0x20 DUP5 ADD MLOAD PUSH2 0x1E04 SWAP1 PUSH1 0x1 SWAP1 PUSH2 0x3D78 JUMP JUMPDEST POP PUSH1 0x20 DUP5 ADD MLOAD PUSH2 0x1E16 SWAP1 PUSH1 0x3 SWAP1 PUSH2 0x3D78 JUMP JUMPDEST POP POP POP POP PUSH1 0x40 DUP2 ADD MLOAD PUSH1 0x2E DUP1 SLOAD PUSH1 0x1 PUSH1 0x1 PUSH1 0xA0 SHL SUB NOT SWAP1 DUP2 AND PUSH1 0x1 PUSH1 0x1 PUSH1 0xA0 SHL SUB SWAP4 DUP5 AND OR SWAP1 SWAP2 SSTORE DUP3 MLOAD PUSH1 0x7 DUP1 SLOAD DUP4 AND SWAP2 DUP5 AND SWAP2 SWAP1 SWAP2 OR SWAP1 SSTORE PUSH1 0x60 SWAP1 SWAP3 ADD MLOAD PUSH1 0x29 DUP1 SLOAD SWAP1 SWAP4 AND SWAP2 AND OR SWAP1 SSTORE POP POP POP POP JUMP JUMPDEST PUSH2 0x1E72 PUSH1 0x1 CALLER PUSH2 0x3AC5 JUMP JUMPDEST PUSH2 0x1E8E JUMPI PUSH1 0x40 MLOAD PUSH3 0x461BCD PUSH1 0xE5 SHL DUP2 MSTORE PUSH1 0x4 ADD PUSH2 0xCBC SWAP1 PUSH2 0x4EAF JUMP JUMPDEST PUSH1 0x17 SLOAD PUSH1 0x3 EQ PUSH2 0x1ED8 JUMPI PUSH1 0x40 MLOAD PUSH3 0x461BCD PUSH1 0xE5 SHL DUP2 MSTORE PUSH1 0x20 PUSH1 0x4 DUP3 ADD MSTORE PUSH1 0x15 PUSH1 0x24 DUP3 ADD MSTORE PUSH21 0x1B185D5B98DA1C18590E88139BDD0818D85B98D95B PUSH1 0x5A SHL PUSH1 0x44 DUP3 ADD MSTORE PUSH1 0x64 ADD PUSH2 0xCBC JUMP JUMPDEST PUSH1 0x8 SLOAD PUSH1 0x40 MLOAD PUSH4 0x70A08231 PUSH1 0xE0 SHL DUP2 MSTORE ADDRESS PUSH1 0x4 DUP3 ADD MSTORE PUSH1 0x0 SWAP2 PUSH1 0x1 PUSH1 0x1 PUSH1 0xA0 SHL SUB AND SWAP1 PUSH4 0x70A08231 SWAP1 PUSH1 0x24 ADD PUSH1 0x20 PUSH1 0x40 MLOAD DUP1 DUP4 SUB DUP2 DUP7 DUP1 EXTCODESIZE ISZERO DUP1 ISZERO PUSH2 0x1F1C JUMPI PUSH1 0x0 DUP1 REVERT JUMPDEST POP GAS STATICCALL ISZERO DUP1 ISZERO PUSH2 0x1F30 JUMPI RETURNDATASIZE PUSH1 0x0 DUP1 RETURNDATACOPY RETURNDATASIZE PUSH1 0x0 REVERT JUMPDEST POP POP POP POP PUSH1 0x40 MLOAD RETURNDATASIZE PUSH1 0x1F NOT PUSH1 0x1F DUP3 ADD AND DUP3 ADD DUP1 PUSH1 0x40 MSTORE POP DUP2 ADD SWAP1 PUSH2 0x1F54 SWAP2 SWAP1 PUSH2 0x4D4C JUMP JUMPDEST SWAP1 POP PUSH1 0x0 DUP2 GT PUSH2 0x1F9B JUMPI PUSH1 0x40 MLOAD PUSH3 0x461BCD PUSH1 0xE5 SHL DUP2 MSTORE PUSH1 0x20 PUSH1 0x4 DUP3 ADD MSTORE PUSH1 0x12 PUSH1 0x24 DUP3 ADD MSTORE PUSH18 0x1B185D5B98DA1C18590E8810DB185A5B5959 PUSH1 0x72 SHL PUSH1 0x44 DUP3 ADD MSTORE PUSH1 0x64 ADD PUSH2 0xCBC JUMP JUMPDEST DUP1 ISZERO PUSH2 0x1FB8 JUMPI PUSH2 0x1FB8 CALLER PUSH1 0x8 SLOAD PUSH1 0x1 PUSH1 0x1 PUSH1 0xA0 SHL SUB AND SWAP1 DUP4 PUSH2 0x3D15 JUMP JUMPDEST POP JUMP JUMPDEST PUSH1 0x20 DUP1 SLOAD PUSH2 0x15BD SWAP1 PUSH2 0x53AF JUMP JUMPDEST PUSH1 0x24 DUP1 SLOAD PUSH2 0x15BD SWAP1 PUSH2 0x53AF JUMP JUMPDEST PUSH1 0x21 DUP1 SLOAD PUSH2 0x15BD SWAP1 PUSH2 0x53AF JUMP JUMPDEST PUSH2 0x1FED PUSH1 0x1 CALLER PUSH2 0x3AC5 JUMP JUMPDEST PUSH2 0x2009 JUMPI PUSH1 0x40 MLOAD PUSH3 0x461BCD PUSH1 0xE5 SHL DUP2 MSTORE PUSH1 0x4 ADD PUSH2 0xCBC SWAP1 PUSH2 0x4EAF JUMP JUMPDEST PUSH2 0x2011 PUSH2 0x3B97 JUMP JUMPDEST PUSH2 0x168F PUSH2 0x3FC2 JUMP JUMPDEST PUSH2 0x2024 PUSH1 0x3 CALLER PUSH2 0x3AC5 JUMP JUMPDEST PUSH2 0x2040 JUMPI PUSH1 0x40 MLOAD PUSH3 0x461BCD PUSH1 0xE5 SHL DUP2 MSTORE PUSH1 0x4 ADD PUSH2 0xCBC SWAP1 PUSH2 0x4E80 JUMP JUMPDEST PUSH1 0x2E DUP1 SLOAD PUSH1 0x1 PUSH1 0x1 PUSH1 0xA0 SHL SUB NOT AND PUSH1 0x1 PUSH1 0x1 PUSH1 0xA0 SHL SUB SWAP3 SWAP1 SWAP3 AND SWAP2 SWAP1 SWAP2 OR SWAP1 SSTORE JUMP JUMPDEST PUSH2 0x206A PUSH2 0x3B97 JUMP JUMPDEST CALLER PUSH1 0x0 SWAP1 DUP2 MSTORE PUSH1 0x32 PUSH1 0x20 MSTORE PUSH1 0x40 SWAP1 KECCAK256 PUSH1 0x17 SLOAD PUSH1 0x3 EQ DUP1 PUSH2 0x2099 JUMPI POP PUSH1 0xA SLOAD PUSH1 0x18 SLOAD LT DUP1 ISZERO PUSH2 0x2099 JUMPI POP PUSH1 0x10 SLOAD TIMESTAMP GT JUMPDEST PUSH2 0x20A2 JUMPI PUSH1 0x0 DUP1 REVERT JUMPDEST PUSH1 0x3 DUP2 ADD SLOAD PUSH1 0xFF AND ISZERO PUSH2 0x20ED JUMPI PUSH1 0x40 MLOAD PUSH3 0x461BCD PUSH1 0xE5 SHL DUP2 MSTORE PUSH1 0x20 PUSH1 0x4 DUP3 ADD MSTORE PUSH1 0x13 PUSH1 0x24 DUP3 ADD MSTORE PUSH19 0x1B185D5B98DA1C18590E881499599D5B991959 PUSH1 0x6A SHL PUSH1 0x44 DUP3 ADD MSTORE PUSH1 0x64 ADD PUSH2 0xCBC JUMP JUMPDEST DUP1 SLOAD PUSH2 0x2133 JUMPI PUSH1 0x40 MLOAD PUSH3 0x461BCD PUSH1 0xE5 SHL DUP2 MSTORE PUSH1 0x20 PUSH1 0x4 DUP3 ADD MSTORE PUSH1 0x15 PUSH1 0x24 DUP3 ADD MSTORE PUSH21 0x1B185D5B98DA1C18590E88139BDD08125B9D995CDD PUSH1 0x5A SHL PUSH1 0x44 DUP3 ADD MSTORE PUSH1 0x64 ADD PUSH2 0xCBC JUMP JUMPDEST DUP1 SLOAD PUSH1 0x3 DUP3 ADD DUP1 SLOAD PUSH1 0xFF NOT AND PUSH1 0x1 OR SWAP1 SSTORE PUSH1 0x0 PUSH1 0x2 DUP4 ADD DUP2 SWAP1 SSTORE DUP3 SSTORE PUSH1 0x18 SLOAD PUSH2 0x215D SWAP1 DUP3 SWAP1 PUSH2 0x536C JUMP JUMPDEST PUSH1 0x18 SSTORE PUSH1 0x2 DUP3 ADD SLOAD PUSH1 0x2F SLOAD PUSH2 0x2172 SWAP2 SWAP1 PUSH2 0x536C JUMP JUMPDEST PUSH1 0x2F SSTORE PUSH2 0x2182 CALLER JUMPDEST PUSH1 0x33 SWAP1 PUSH2 0x3AE7 JUMP JUMPDEST POP PUSH1 0x9 SLOAD PUSH1 0x1 PUSH1 0x1 PUSH1 0xA0 SHL SUB AND PUSH2 0x221D JUMPI PUSH1 0x0 SELFBALANCE GT PUSH2 0x21E3 JUMPI PUSH1 0x40 MLOAD PUSH3 0x461BCD PUSH1 0xE5 SHL DUP2 MSTORE PUSH1 0x20 PUSH1 0x4 DUP3 ADD MSTORE PUSH1 0x1B PUSH1 0x24 DUP3 ADD MSTORE PUSH32 0x6C61756E63687061643A20496E73756666696369656E7420626C630000000000 PUSH1 0x44 DUP3 ADD MSTORE PUSH1 0x64 ADD PUSH2 0xCBC JUMP JUMPDEST CALLER JUMPDEST PUSH1 0x1 PUSH1 0x1 PUSH1 0xA0 SHL SUB AND PUSH2 0x8FC DUP3 SWAP1 DUP2 ISZERO MUL SWAP1 PUSH1 0x40 MLOAD PUSH1 0x0 PUSH1 0x40 MLOAD DUP1 DUP4 SUB DUP2 DUP6 DUP9 DUP9 CALL SWAP4 POP POP POP POP ISZERO DUP1 ISZERO PUSH2 0x18BB JUMPI RETURNDATASIZE PUSH1 0x0 DUP1 RETURNDATACOPY RETURNDATASIZE PUSH1 0x0 REVERT JUMPDEST PUSH1 0x9 SLOAD PUSH1 0x40 MLOAD PUSH4 0x70A08231 PUSH1 0xE0 SHL DUP2 MSTORE ADDRESS PUSH1 0x4 DUP3 ADD MSTORE PUSH1 0x1 PUSH1 0x1 PUSH1 0xA0 SHL SUB SWAP1 SWAP2 AND SWAP1 DUP3 SWAP1 DUP3 SWAP1 PUSH4 0x70A08231 SWAP1 PUSH1 0x24 ADD PUSH1 0x20 PUSH1 0x40 MLOAD DUP1 DUP4 SUB DUP2 DUP7 DUP1 EXTCODESIZE ISZERO DUP1 ISZERO PUSH2 0x2264 JUMPI PUSH1 0x0 DUP1 REVERT JUMPDEST POP GAS STATICCALL ISZERO DUP1 ISZERO PUSH2 0x2278 JUMPI RETURNDATASIZE PUSH1 0x0 DUP1 RETURNDATACOPY RETURNDATASIZE PUSH1 0x0 REVERT JUMPDEST POP POP POP POP PUSH1 0x40 MLOAD RETURNDATASIZE PUSH1 0x1F NOT PUSH1 0x1F DUP3 ADD AND DUP3 ADD DUP1 PUSH1 0x40 MSTORE POP DUP2 ADD SWAP1 PUSH2 0x229C SWAP2 SWAP1 PUSH2 0x4D4C JUMP JUMPDEST LT ISZERO PUSH2 0x22EA JUMPI PUSH1 0x40 MLOAD PUSH3 0x461BCD PUSH1 0xE5 SHL DUP2 MSTORE PUSH1 0x20 PUSH1 0x4 DUP3 ADD MSTORE PUSH1 0x1F PUSH1 0x24 DUP3 ADD MSTORE PUSH32 0x6C61756E63687061643A20496E73756666696369656E742042616C616E636500 PUSH1 0x44 DUP3 ADD MSTORE PUSH1 0x64 ADD PUSH2 0xCBC JUMP JUMPDEST PUSH2 0x18BB CALLER JUMPDEST PUSH1 0x1 PUSH1 0x1 PUSH1 0xA0 SHL SUB DUP4 AND SWAP1 DUP5 PUSH2 0x3D15 JUMP JUMPDEST PUSH1 0x8 SLOAD PUSH1 0x9 SLOAD PUSH1 0x1B SLOAD PUSH1 0x1A SLOAD PUSH1 0x0 SWAP4 PUSH2 0x2333 SWAP4 PUSH1 0x1 PUSH1 0x1 PUSH1 0xA0 SHL SUB SWAP2 DUP3 AND SWAP4 SWAP1 DUP3 AND SWAP3 SWAP1 DUP3 AND SWAP2 PUSH2 0x100 SWAP1 SWAP2 DIV AND PUSH2 0x3D8D JUMP JUMPDEST SWAP1 POP SWAP1 JUMP JUMPDEST PUSH1 0x22 DUP1 SLOAD PUSH2 0x15BD SWAP1 PUSH2 0x53AF JUMP JUMPDEST PUSH2 0x2350 PUSH1 0x3 CALLER PUSH2 0x3AC5 JUMP JUMPDEST PUSH2 0x236C JUMPI PUSH1 0x40 MLOAD PUSH3 0x461BCD PUSH1 0xE5 SHL DUP2 MSTORE PUSH1 0x4 ADD PUSH2 0xCBC SWAP1 PUSH2 0x4E80 JUMP JUMPDEST PUSH1 0x1A DUP1 SLOAD PUSH2 0x100 PUSH1 0x1 PUSH1 0xA8 SHL SUB NOT AND PUSH2 0x100 PUSH1 0x1 PUSH1 0x1 PUSH1 0xA0 SHL SUB SWAP5 DUP6 AND MUL OR SWAP1 SSTORE PUSH1 0x1B DUP1 SLOAD PUSH1 0x1 PUSH1 0x1 PUSH1 0xA0 SHL SUB NOT AND SWAP2 SWAP1 SWAP3 AND OR SWAP1 SSTORE JUMP JUMPDEST PUSH1 0x60 PUSH1 0x0 DUP1 PUSH2 0x23B3 PUSH1 0x33 PUSH2 0x3FFF JUMP JUMPDEST SWAP1 POP DUP1 PUSH2 0x23D0 JUMPI POP POP PUSH1 0x40 DUP1 MLOAD PUSH1 0x0 DUP2 MSTORE PUSH1 0x20 DUP2 ADD SWAP1 SWAP2 MSTORE SWAP2 SWAP1 POP JUMP JUMPDEST PUSH1 0x0 PUSH2 0x23DC DUP4 DUP4 PUSH2 0x536C JUMP JUMPDEST SWAP1 POP PUSH1 0x0 DUP2 PUSH1 0x1 PUSH1 0x1 PUSH1 0x40 SHL SUB DUP2 GT ISZERO PUSH2 0x23F8 JUMPI PUSH2 0x23F8 PUSH2 0x5447 JUMP JUMPDEST PUSH1 0x40 MLOAD SWAP1 DUP1 DUP3 MSTORE DUP1 PUSH1 0x20 MUL PUSH1 0x20 ADD DUP3 ADD PUSH1 0x40 MSTORE DUP1 ISZERO PUSH2 0x2421 JUMPI DUP2 PUSH1 0x20 ADD PUSH1 0x20 DUP3 MUL DUP1 CALLDATASIZE DUP4 CALLDATACOPY ADD SWAP1 POP JUMPDEST POP SWAP1 POP PUSH1 0x0 DUP5 JUMPDEST DUP5 DUP2 LT ISZERO PUSH2 0x2485 JUMPI PUSH2 0x243B PUSH1 0x33 DUP3 PUSH2 0x4009 JUMP JUMPDEST DUP4 DUP4 DUP2 MLOAD DUP2 LT PUSH2 0x244D JUMPI PUSH2 0x244D PUSH2 0x5431 JUMP JUMPDEST PUSH1 0x1 PUSH1 0x1 PUSH1 0xA0 SHL SUB SWAP1 SWAP3 AND PUSH1 0x20 SWAP3 DUP4 MUL SWAP2 SWAP1 SWAP2 ADD SWAP1 SWAP2 ADD MSTORE DUP2 PUSH2 0x246F DUP2 PUSH2 0x53EA JUMP JUMPDEST SWAP3 POP POP DUP1 DUP1 PUSH2 0x247D SWAP1 PUSH2 0x53EA JUMP JUMPDEST SWAP2 POP POP PUSH2 0x2428 JUMP JUMPDEST POP SWAP1 SWAP6 SWAP5 POP POP POP POP POP JUMP JUMPDEST PUSH1 0x26 DUP1 SLOAD PUSH2 0x15BD SWAP1 PUSH2 0x53AF JUMP JUMPDEST PUSH2 0x24A8 PUSH1 0x1 CALLER PUSH2 0x3AC5 JUMP JUMPDEST PUSH2 0x24C4 JUMPI PUSH1 0x40 MLOAD PUSH3 0x461BCD PUSH1 0xE5 SHL DUP2 MSTORE PUSH1 0x4 ADD PUSH2 0xCBC SWAP1 PUSH2 0x4EAF JUMP JUMPDEST PUSH1 0x0 JUMPDEST DUP2 MLOAD DUP2 LT ISZERO PUSH2 0xDC6 JUMPI PUSH2 0x24FD DUP3 DUP3 DUP2 MLOAD DUP2 LT PUSH2 0x24E5 JUMPI PUSH2 0x24E5 PUSH2 0x5431 JUMP JUMPDEST PUSH1 0x20 MUL PUSH1 0x20 ADD ADD MLOAD PUSH1 0x5 PUSH2 0x3D78 SWAP1 SWAP2 SWAP1 PUSH4 0xFFFFFFFF AND JUMP JUMPDEST POP DUP1 PUSH2 0x2508 DUP2 PUSH2 0x53EA JUMP JUMPDEST SWAP2 POP POP PUSH2 0x24C7 JUMP JUMPDEST PUSH2 0x251B PUSH1 0x1 CALLER PUSH2 0x3AC5 JUMP JUMPDEST PUSH2 0x2537 JUMPI PUSH1 0x40 MLOAD PUSH3 0x461BCD PUSH1 0xE5 SHL DUP2 MSTORE PUSH1 0x4 ADD PUSH2 0xCBC SWAP1 PUSH2 0x4EAF JUMP JUMPDEST PUSH1 0x17 SLOAD PUSH1 0x1 EQ PUSH2 0x2559 JUMPI PUSH1 0x40 MLOAD PUSH3 0x461BCD PUSH1 0xE5 SHL DUP2 MSTORE PUSH1 0x4 ADD PUSH2 0xCBC SWAP1 PUSH2 0x4EE6 JUMP JUMPDEST DUP1 MLOAD DUP1 MLOAD PUSH2 0x256F SWAP2 PUSH1 0x1F SWAP2 PUSH1 0x20 SWAP1 SWAP2 ADD SWAP1 PUSH2 0x45D6 JUMP JUMPDEST POP PUSH1 0x20 DUP1 DUP3 ADD MLOAD DUP1 MLOAD PUSH2 0x2585 SWAP3 SWAP2 DUP3 ADD SWAP1 PUSH2 0x45D6 JUMP JUMPDEST POP PUSH1 0x40 DUP2 ADD MLOAD DUP1 MLOAD PUSH2 0x259F SWAP2 PUSH1 0x21 SWAP2 PUSH1 0x20 SWAP1 SWAP2 ADD SWAP1 PUSH2 0x45D6 JUMP JUMPDEST POP PUSH1 0x60 DUP2 ADD MLOAD DUP1 MLOAD PUSH2 0x25B9 SWAP2 PUSH1 0x22 SWAP2 PUSH1 0x20 SWAP1 SWAP2 ADD SWAP1 PUSH2 0x45D6 JUMP JUMPDEST POP PUSH1 0x80 DUP2 ADD MLOAD DUP1 MLOAD PUSH2 0x25D3 SWAP2 PUSH1 0x23 SWAP2 PUSH1 0x20 SWAP1 SWAP2 ADD SWAP1 PUSH2 0x45D6 JUMP JUMPDEST POP PUSH1 0xA0 DUP2 ADD MLOAD DUP1 MLOAD PUSH2 0x25ED SWAP2 PUSH1 0x24 SWAP2 PUSH1 0x20 SWAP1 SWAP2 ADD SWAP1 PUSH2 0x45D6 JUMP JUMPDEST POP PUSH1 0xC0 DUP2 ADD MLOAD DUP1 MLOAD PUSH2 0x2607 SWAP2 PUSH1 0x25 SWAP2 PUSH1 0x20 SWAP1 SWAP2 ADD SWAP1 PUSH2 0x45D6 JUMP JUMPDEST POP PUSH1 0xE0 DUP2 ADD MLOAD DUP1 MLOAD PUSH2 0x2621 SWAP2 PUSH1 0x26 SWAP2 PUSH1 0x20 SWAP1 SWAP2 ADD SWAP1 PUSH2 0x45D6 JUMP JUMPDEST POP PUSH2 0x100 DUP2 ADD MLOAD DUP1 MLOAD PUSH2 0x263C SWAP2 PUSH1 0x27 SWAP2 PUSH1 0x20 SWAP1 SWAP2 ADD SWAP1 PUSH2 0x45D6 JUMP JUMPDEST POP PUSH2 0x120 DUP2 ADD MLOAD DUP1 MLOAD PUSH2 0xDC6 SWAP2 PUSH1 0x28 SWAP2 PUSH1 0x20 SWAP1 SWAP2 ADD SWAP1 PUSH2 0x45D6 JUMP JUMPDEST PUSH2 0x2662 PUSH1 0x1 CALLER PUSH2 0x3AC5 JUMP JUMPDEST PUSH2 0x267E JUMPI PUSH1 0x40 MLOAD PUSH3 0x461BCD PUSH1 0xE5 SHL DUP2 MSTORE PUSH1 0x4 ADD PUSH2 0xCBC SWAP1 PUSH2 0x4EAF JUMP JUMPDEST PUSH1 0x0 JUMPDEST DUP2 MLOAD DUP2 LT ISZERO PUSH2 0xDC6 JUMPI PUSH2 0x26B7 DUP3 DUP3 DUP2 MLOAD DUP2 LT PUSH2 0x269F JUMPI PUSH2 0x269F PUSH2 0x5431 JUMP JUMPDEST PUSH1 0x20 MUL PUSH1 0x20 ADD ADD MLOAD PUSH1 0x1 PUSH2 0x3AE7 SWAP1 SWAP2 SWAP1 PUSH4 0xFFFFFFFF AND JUMP JUMPDEST POP DUP1 PUSH2 0x26C2 DUP2 PUSH2 0x53EA JUMP JUMPDEST SWAP2 POP POP PUSH2 0x2681 JUMP JUMPDEST PUSH1 0x0 PUSH2 0x2333 PUSH1 0x5 PUSH2 0x3FFF JUMP JUMPDEST PUSH2 0x26E1 PUSH1 0x1 CALLER PUSH2 0x3AC5 JUMP JUMPDEST PUSH2 0x26FD JUMPI PUSH1 0x40 MLOAD PUSH3 0x461BCD PUSH1 0xE5 SHL DUP2 MSTORE PUSH1 0x4 ADD PUSH2 0xCBC SWAP1 PUSH2 0x4EAF JUMP JUMPDEST PUSH1 0x17 SLOAD PUSH1 0x1 EQ PUSH2 0x271F JUMPI PUSH1 0x40 MLOAD PUSH3 0x461BCD PUSH1 0xE5 SHL DUP2 MSTORE PUSH1 0x4 ADD PUSH2 0xCBC SWAP1 PUSH2 0x4EE6 JUMP JUMPDEST PUSH1 0x3 PUSH1 0x17 SSTORE JUMP JUMPDEST PUSH2 0x2731 PUSH1 0x3 CALLER PUSH2 0x3AC5 JUMP JUMPDEST PUSH2 0x274D JUMPI PUSH1 0x40 MLOAD PUSH3 0x461BCD PUSH1 0xE5 SHL DUP2 MSTORE PUSH1 0x4 ADD PUSH2 0xCBC SWAP1 PUSH2 0x4E80 JUMP JUMPDEST PUSH1 0x0 DUP2 GT PUSH2 0x2799 JUMPI PUSH1 0x40 MLOAD PUSH3 0x461BCD PUSH1 0xE5 SHL DUP2 MSTORE PUSH1 0x20 PUSH1 0x4 DUP3 ADD MSTORE PUSH1 0x19 PUSH1 0x24 DUP3 ADD MSTORE PUSH25 0x1B185D5B98DA1C18590E88125B9D985B1A5908185B5BDD5B9D PUSH1 0x3A SHL PUSH1 0x44 DUP3 ADD MSTORE PUSH1 0x64 ADD PUSH2 0xCBC JUMP JUMPDEST PUSH1 0x1 PUSH1 0x1 PUSH1 0xA0 SHL SUB DUP3 AND PUSH2 0x27AD JUMPI CALLER PUSH2 0x21E5 JUMP JUMPDEST DUP2 PUSH2 0x18BB CALLER PUSH2 0x22EF JUMP JUMPDEST PUSH2 0x27BF PUSH2 0x3B97 JUMP JUMPDEST PUSH1 0x17 SLOAD PUSH1 0x1 EQ PUSH2 0x27E1 JUMPI PUSH1 0x40 MLOAD PUSH3 0x461BCD PUSH1 0xE5 SHL DUP2 MSTORE PUSH1 0x4 ADD PUSH2 0xCBC SWAP1 PUSH2 0x4EE6 JUMP JUMPDEST CALLER PUSH1 0x0 SWAP1 DUP2 MSTORE PUSH1 0x32 PUSH1 0x20 MSTORE PUSH1 0x40 SWAP1 KECCAK256 PUSH1 0xF SLOAD TIMESTAMP LT DUP1 ISZERO SWAP1 PUSH2 0x2804 JUMPI POP TIMESTAMP PUSH1 0x10 SLOAD LT ISZERO JUMPDEST PUSH2 0x284A JUMPI PUSH1 0x40 MLOAD PUSH3 0x461BCD PUSH1 0xE5 SHL DUP2 MSTORE PUSH1 0x20 PUSH1 0x4 DUP3 ADD MSTORE PUSH1 0x17 PUSH1 0x24 DUP3 ADD MSTORE PUSH23 0x6C61756E63687061643A20496E76616C69642074696D65 PUSH1 0x48 SHL PUSH1 0x44 DUP3 ADD MSTORE PUSH1 0x64 ADD PUSH2 0xCBC JUMP JUMPDEST PUSH1 0x3 DUP2 ADD SLOAD PUSH1 0xFF AND ISZERO PUSH2 0x2895 JUMPI PUSH1 0x40 MLOAD PUSH3 0x461BCD PUSH1 0xE5 SHL DUP2 MSTORE PUSH1 0x20 PUSH1 0x4 DUP3 ADD MSTORE PUSH1 0x13 PUSH1 0x24 DUP3 ADD MSTORE PUSH19 0x1B185D5B98DA1C18590E881499599D5B991959 PUSH1 0x6A SHL PUSH1 0x44 DUP3 ADD MSTORE PUSH1 0x64 ADD PUSH2 0xCBC JUMP JUMPDEST DUP1 SLOAD PUSH2 0x28E3 JUMPI PUSH1 0x40 MLOAD PUSH3 0x461BCD PUSH1 0xE5 SHL DUP2 MSTORE PUSH1 0x20 PUSH1 0x4 DUP3 ADD MSTORE PUSH1 0x19 PUSH1 0x24 DUP3 ADD MSTORE PUSH32 0x6C61756E63687061643A204E6F7420636F6E7472696275746500000000000000 PUSH1 0x44 DUP3 ADD MSTORE PUSH1 0x64 ADD PUSH2 0xCBC JUMP JUMPDEST PUSH1 0x0 PUSH2 0x2710 PUSH1 0x19 SLOAD DUP4 PUSH1 0x0 ADD SLOAD PUSH2 0x28FA SWAP2 SWAP1 PUSH2 0x534D JUMP JUMPDEST PUSH2 0x2904 SWAP2 SWAP1 PUSH2 0x5240 JUMP JUMPDEST SWAP1 POP PUSH1 0x0 DUP2 DUP4 PUSH1 0x0 ADD SLOAD PUSH2 0x2918 SWAP2 SWAP1 PUSH2 0x536C JUMP JUMPDEST DUP4 SLOAD PUSH1 0x18 SLOAD SWAP2 SWAP3 POP PUSH2 0x2929 SWAP2 PUSH2 0x536C JUMP JUMPDEST PUSH1 0x18 SSTORE PUSH1 0x2 DUP4 ADD SLOAD PUSH1 0x2F SLOAD PUSH2 0x293E SWAP2 SWAP1 PUSH2 0x536C JUMP JUMPDEST PUSH1 0x2F SSTORE PUSH1 0x3 DUP4 ADD DUP1 SLOAD PUSH1 0xFF NOT AND PUSH1 0x1 OR SWAP1 SSTORE PUSH1 0x0 PUSH1 0x2 DUP5 ADD DUP2 SWAP1 SSTORE DUP4 SSTORE PUSH2 0x2965 PUSH2 0x217A CALLER SWAP1 JUMP JUMPDEST POP PUSH1 0x0 DUP2 GT PUSH2 0x29B6 JUMPI PUSH1 0x40 MLOAD PUSH3 0x461BCD PUSH1 0xE5 SHL DUP2 MSTORE PUSH1 0x20 PUSH1 0x4 DUP3 ADD MSTORE PUSH1 0x1C PUSH1 0x24 DUP3 ADD MSTORE PUSH32 0x6C61756E63687061643A20496E76616C696420726620616D6F756E7400000000 PUSH1 0x44 DUP3 ADD MSTORE PUSH1 0x64 ADD PUSH2 0xCBC JUMP JUMPDEST PUSH1 0x9 SLOAD PUSH1 0x1 PUSH1 0x1 PUSH1 0xA0 SHL SUB AND PUSH2 0x2A41 JUMPI DUP1 ISZERO PUSH2 0x29FB JUMPI PUSH1 0x40 MLOAD CALLER SWAP1 DUP3 ISZERO PUSH2 0x8FC MUL SWAP1 DUP4 SWAP1 PUSH1 0x0 DUP2 DUP2 DUP2 DUP6 DUP9 DUP9 CALL SWAP4 POP POP POP POP ISZERO DUP1 ISZERO PUSH2 0x29F9 JUMPI RETURNDATASIZE PUSH1 0x0 DUP1 RETURNDATACOPY RETURNDATASIZE PUSH1 0x0 REVERT JUMPDEST POP JUMPDEST DUP2 ISZERO PUSH2 0x18BB JUMPI PUSH1 0x2E SLOAD PUSH1 0x40 MLOAD PUSH1 0x1 PUSH1 0x1 PUSH1 0xA0 SHL SUB SWAP1 SWAP2 AND SWAP1 DUP4 ISZERO PUSH2 0x8FC MUL SWAP1 DUP5 SWAP1 PUSH1 0x0 DUP2 DUP2 DUP2 DUP6 DUP9 DUP9 CALL SWAP4 POP POP POP POP ISZERO DUP1 ISZERO PUSH2 0x2A3B JUMPI RETURNDATASIZE PUSH1 0x0 DUP1 RETURNDATACOPY RETURNDATASIZE PUSH1 0x0 REVERT JUMPDEST POP POP POP POP JUMP JUMPDEST PUSH1 0x9 SLOAD PUSH1 0x1 PUSH1 0x1 PUSH1 0xA0 SHL SUB AND DUP2 ISZERO PUSH2 0x2A5C JUMPI PUSH2 0x2A5C CALLER PUSH2 0x22EF JUMP JUMPDEST DUP3 ISZERO PUSH2 0x2A3B JUMPI PUSH1 0x2E SLOAD PUSH2 0x2A3B SWAP1 PUSH1 0x1 PUSH1 0x1 PUSH1 0xA0 SHL SUB DUP4 DUP2 AND SWAP2 AND DUP6 PUSH2 0x3D15 JUMP JUMPDEST PUSH2 0x2A84 PUSH2 0x3B97 JUMP JUMPDEST PUSH1 0x17 SLOAD PUSH1 0x1 EQ PUSH2 0x2AA6 JUMPI PUSH1 0x40 MLOAD PUSH3 0x461BCD PUSH1 0xE5 SHL DUP2 MSTORE PUSH1 0x4 ADD PUSH2 0xCBC SWAP1 PUSH2 0x4EE6 JUMP JUMPDEST TIMESTAMP PUSH1 0xF SLOAD GT ISZERO DUP1 ISZERO PUSH2 0x2ABA JUMPI POP TIMESTAMP PUSH1 0x10 SLOAD LT ISZERO JUMPDEST PUSH2 0x2B00 JUMPI PUSH1 0x40 MLOAD PUSH3 0x461BCD PUSH1 0xE5 SHL DUP2 MSTORE PUSH1 0x20 PUSH1 0x4 DUP3 ADD MSTORE PUSH1 0x17 PUSH1 0x24 DUP3 ADD MSTORE PUSH23 0x6C61756E63687061643A20496E76616C69642074696D65 PUSH1 0x48 SHL PUSH1 0x44 DUP3 ADD MSTORE PUSH1 0x64 ADD PUSH2 0xCBC JUMP JUMPDEST PUSH1 0x12 SLOAD PUSH1 0x1 EQ ISZERO PUSH2 0x2B6E JUMPI PUSH2 0x2B16 PUSH1 0x5 CALLER PUSH2 0x3AC5 JUMP JUMPDEST PUSH2 0x2B6E JUMPI PUSH1 0x40 MLOAD PUSH3 0x461BCD PUSH1 0xE5 SHL DUP2 MSTORE PUSH1 0x20 PUSH1 0x4 DUP3 ADD MSTORE PUSH1 0x23 PUSH1 0x24 DUP3 ADD MSTORE PUSH32 0x6C61756E63687061643A20596F7520617265206E6F7420696E2077686974656C PUSH1 0x44 DUP3 ADD MSTORE PUSH3 0x1A5CDD PUSH1 0xEA SHL PUSH1 0x64 DUP3 ADD MSTORE PUSH1 0x84 ADD PUSH2 0xCBC JUMP JUMPDEST CALLER PUSH1 0x0 SWAP1 DUP2 MSTORE PUSH1 0x32 PUSH1 0x20 MSTORE PUSH1 0x40 SWAP1 KECCAK256 PUSH1 0xD SLOAD DUP2 SLOAD PUSH2 0x2B8D SWAP1 DUP5 SWAP1 PUSH2 0x5228 JUMP JUMPDEST LT ISZERO DUP1 ISZERO PUSH2 0x2BA9 JUMPI POP PUSH1 0xE SLOAD DUP2 SLOAD PUSH2 0x2BA6 SWAP1 DUP5 SWAP1 PUSH2 0x5228 JUMP JUMPDEST GT ISZERO JUMPDEST PUSH2 0x2BF1 JUMPI PUSH1 0x40 MLOAD PUSH3 0x461BCD PUSH1 0xE5 SHL DUP2 MSTORE PUSH1 0x20 PUSH1 0x4 DUP3 ADD MSTORE PUSH1 0x19 PUSH1 0x24 DUP3 ADD MSTORE PUSH25 0x1B185D5B98DA1C18590E88125B9D985B1A5908185B5BDD5B9D PUSH1 0x3A SHL PUSH1 0x44 DUP3 ADD MSTORE PUSH1 0x64 ADD PUSH2 0xCBC JUMP JUMPDEST PUSH1 0xB SLOAD DUP3 PUSH1 0x18 SLOAD PUSH2 0x2C02 SWAP2 SWAP1 PUSH2 0x5228 JUMP JUMPDEST GT ISZERO PUSH2 0x2C50 JUMPI PUSH1 0x40 MLOAD PUSH3 0x461BCD PUSH1 0xE5 SHL DUP2 MSTORE PUSH1 0x20 PUSH1 0x4 DUP3 ADD MSTORE PUSH1 0x18 PUSH1 0x24 DUP3 ADD MSTORE PUSH32 0x6C61756E63687061643A204D6565742068617264206361700000000000000000 PUSH1 0x44 DUP3 ADD MSTORE PUSH1 0x64 ADD PUSH2 0xCBC JUMP JUMPDEST DUP1 SLOAD PUSH2 0x2C5D SWAP1 DUP4 SWAP1 PUSH2 0x5228 JUMP JUMPDEST DUP2 SSTORE PUSH1 0x0 PUSH2 0x2C6A DUP4 PUSH2 0x4015 JUMP JUMPDEST SWAP1 POP DUP1 PUSH1 0x2F SLOAD PUSH2 0x2C7A SWAP2 SWAP1 PUSH2 0x5228 JUMP JUMPDEST PUSH1 0x2F SSTORE PUSH1 0x2 DUP3 ADD SLOAD PUSH2 0x2C8D SWAP1 DUP3 SWAP1 PUSH2 0x5228 JUMP JUMPDEST PUSH1 0x2 DUP4 ADD SSTORE PUSH1 0x3 DUP3 ADD DUP1 SLOAD PUSH1 0xFF NOT AND SWAP1 SSTORE PUSH1 0x18 SLOAD PUSH2 0x2CAC SWAP1 DUP5 SWAP1 PUSH2 0x5228 JUMP JUMPDEST PUSH1 0x18 SSTORE PUSH2 0x2CBA PUSH1 0x33 CALLER PUSH2 0x3AC5 JUMP JUMPDEST PUSH2 0x2CCB JUMPI PUSH2 0x2CC9 PUSH1 0x33 CALLER PUSH2 0x3D78 JUMP JUMPDEST POP JUMPDEST PUSH1 0x9 SLOAD PUSH1 0x1 PUSH1 0x1 PUSH1 0xA0 SHL SUB AND PUSH2 0x2D2B JUMPI DUP3 CALLVALUE LT ISZERO PUSH2 0x18BB JUMPI PUSH1 0x40 MLOAD PUSH3 0x461BCD PUSH1 0xE5 SHL DUP2 MSTORE PUSH1 0x20 PUSH1 0x4 DUP3 ADD MSTORE PUSH1 0x19 PUSH1 0x24 DUP3 ADD MSTORE PUSH32 0x6C61756E63687061643A20496E76616C696420416D6F756E7400000000000000 PUSH1 0x44 DUP3 ADD MSTORE PUSH1 0x64 ADD PUSH2 0xCBC JUMP JUMPDEST PUSH1 0x9 SLOAD PUSH1 0x1 PUSH1 0x1 PUSH1 0xA0 SHL SUB AND PUSH2 0x2A3B DUP2 CALLER ADDRESS DUP8 PUSH2 0x40DA JUMP JUMPDEST PUSH1 0x1 PUSH1 0x1 PUSH1 0xA0 SHL SUB DUP2 AND PUSH1 0x0 SWAP1 DUP2 MSTORE PUSH1 0x32 PUSH1 0x20 SWAP1 DUP2 MSTORE PUSH1 0x40 DUP1 DUP4 KECCAK256 DUP2 MLOAD PUSH1 0x80 DUP2 ADD DUP4 MSTORE DUP2 SLOAD DUP2 MSTORE PUSH1 0x1 DUP3 ADD SLOAD SWAP4 DUP2 ADD SWAP4 SWAP1 SWAP4 MSTORE PUSH1 0x2 DUP2 ADD SLOAD SWAP2 DUP4 ADD SWAP2 SWAP1 SWAP2 MSTORE PUSH1 0x3 DUP2 ADD SLOAD PUSH1 0xFF AND ISZERO ISZERO PUSH1 0x60 DUP4 ADD MSTORE SWAP1 PUSH2 0x2D9B SWAP1 PUSH2 0x3BDD JUMP JUMPDEST SWAP4 SWAP3 POP POP POP JUMP JUMPDEST PUSH1 0x1F DUP1 SLOAD PUSH2 0x15BD SWAP1 PUSH2 0x53AF JUMP JUMPDEST PUSH1 0x60 PUSH2 0x2333 PUSH1 0x1 PUSH2 0x4112 JUMP JUMPDEST PUSH1 0x23 DUP1 SLOAD PUSH2 0x15BD SWAP1 PUSH2 0x53AF JUMP JUMPDEST PUSH2 0x2DD3 PUSH1 0x1 CALLER PUSH2 0x3AC5 JUMP JUMPDEST PUSH2 0x2DEF JUMPI PUSH1 0x40 MLOAD PUSH3 0x461BCD PUSH1 0xE5 SHL DUP2 MSTORE PUSH1 0x4 ADD PUSH2 0xCBC SWAP1 PUSH2 0x4EAF JUMP JUMPDEST PUSH1 0x17 SLOAD PUSH1 0x1 EQ PUSH2 0x2E11 JUMPI PUSH1 0x40 MLOAD PUSH3 0x461BCD PUSH1 0xE5 SHL DUP2 MSTORE PUSH1 0x4 ADD PUSH2 0xCBC SWAP1 PUSH2 0x4EE6 JUMP JUMPDEST PUSH1 0xF SLOAD TIMESTAMP GT PUSH2 0x2E59 JUMPI PUSH1 0x40 MLOAD PUSH3 0x461BCD PUSH1 0xE5 SHL DUP2 MSTORE PUSH1 0x20 PUSH1 0x4 DUP3 ADD MSTORE PUSH1 0x14 PUSH1 0x24 DUP3 ADD MSTORE PUSH20 0x1B185D5B98DA1C18590E88139BDD081CDD185C9D PUSH1 0x62 SHL PUSH1 0x44 DUP3 ADD MSTORE PUSH1 0x64 ADD PUSH2 0xCBC JUMP JUMPDEST PUSH1 0x10 SLOAD TIMESTAMP LT ISZERO PUSH2 0x2EB7 JUMPI PUSH1 0xB SLOAD PUSH1 0x18 SLOAD LT ISZERO PUSH2 0x2EB7 JUMPI PUSH1 0x40 MLOAD PUSH3 0x461BCD PUSH1 0xE5 SHL DUP2 MSTORE PUSH1 0x20 PUSH1 0x4 DUP3 ADD MSTORE PUSH1 0x19 PUSH1 0x24 DUP3 ADD MSTORE PUSH32 0x6C61756E63687061643A2043616E27742066696E616C697A6500000000000000 PUSH1 0x44 DUP3 ADD MSTORE PUSH1 0x64 ADD PUSH2 0xCBC JUMP JUMPDEST PUSH1 0x10 SLOAD TIMESTAMP LT PUSH2 0x2F14 JUMPI PUSH1 0xA SLOAD PUSH1 0x18 SLOAD LT ISZERO PUSH2 0x2F14 JUMPI PUSH1 0x40 MLOAD PUSH3 0x461BCD PUSH1 0xE5 SHL DUP2 MSTORE PUSH1 0x20 PUSH1 0x4 DUP3 ADD MSTORE PUSH1 0x1C PUSH1 0x24 DUP3 ADD MSTORE PUSH32 0x6C61756E63687061643A204E6F74206D65657420736F66742063617000000000 PUSH1 0x44 DUP3 ADD MSTORE PUSH1 0x64 ADD PUSH2 0xCBC JUMP JUMPDEST PUSH1 0x2 PUSH1 0x17 SSTORE PUSH1 0x9 SLOAD PUSH1 0x12 SWAP1 PUSH1 0x1 PUSH1 0x1 PUSH1 0xA0 SHL SUB AND ISZERO PUSH2 0x2FB9 JUMPI PUSH1 0x9 PUSH1 0x0 SWAP1 SLOAD SWAP1 PUSH2 0x100 EXP SWAP1 DIV PUSH1 0x1 PUSH1 0x1 PUSH1 0xA0 SHL SUB AND PUSH1 0x1 PUSH1 0x1 PUSH1 0xA0 SHL SUB AND PUSH4 0x313CE567 PUSH1 0x40 MLOAD DUP2 PUSH4 0xFFFFFFFF AND PUSH1 0xE0 SHL DUP2 MSTORE PUSH1 0x4 ADD PUSH1 0x20 PUSH1 0x40 MLOAD DUP1 DUP4 SUB DUP2 DUP7 DUP1 EXTCODESIZE ISZERO DUP1 ISZERO PUSH2 0x2F7B JUMPI PUSH1 0x0 DUP1 REVERT JUMPDEST POP GAS STATICCALL ISZERO DUP1 ISZERO PUSH2 0x2F8F JUMPI RETURNDATASIZE PUSH1 0x0 DUP1 RETURNDATACOPY RETURNDATASIZE PUSH1 0x0 REVERT JUMPDEST POP POP POP POP PUSH1 0x40 MLOAD RETURNDATASIZE PUSH1 0x1F NOT PUSH1 0x1F DUP3 ADD AND DUP3 ADD DUP1 PUSH1 0x40 MSTORE POP DUP2 ADD SWAP1 PUSH2 0x2FB3 SWAP2 SWAP1 PUSH2 0x4DB5 JUMP JUMPDEST PUSH1 0xFF AND SWAP1 POP JUMPDEST PUSH1 0x0 PUSH2 0x2710 PUSH2 0x2FC9 DUP4 PUSH1 0xA PUSH2 0x52A5 JUMP JUMPDEST PUSH1 0x2D SLOAD PUSH1 0xC SLOAD PUSH1 0x18 SLOAD PUSH2 0x2FDC SWAP2 SWAP1 PUSH2 0x534D JUMP JUMPDEST PUSH2 0x2FE6 SWAP2 SWAP1 PUSH2 0x534D JUMP JUMPDEST PUSH2 0x2FF0 SWAP2 SWAP1 PUSH2 0x5240 JUMP JUMPDEST PUSH2 0x2FFA SWAP2 SWAP1 PUSH2 0x5240 JUMP JUMPDEST SWAP1 POP PUSH1 0x0 PUSH2 0x2710 PUSH1 0x2C SLOAD PUSH1 0x18 SLOAD PUSH2 0x3011 SWAP2 SWAP1 PUSH2 0x534D JUMP JUMPDEST PUSH2 0x301B SWAP2 SWAP1 PUSH2 0x5240 JUMP JUMPDEST SWAP1 POP PUSH1 0x0 PUSH2 0x2710 PUSH1 0x1D SLOAD DUP4 PUSH1 0x18 SLOAD PUSH2 0x3033 SWAP2 SWAP1 PUSH2 0x536C JUMP JUMPDEST PUSH2 0x303D SWAP2 SWAP1 PUSH2 0x534D JUMP JUMPDEST PUSH2 0x3047 SWAP2 SWAP1 PUSH2 0x5240 JUMP JUMPDEST SWAP1 POP PUSH1 0x0 DUP2 DUP4 PUSH1 0x18 SLOAD PUSH2 0x305A SWAP2 SWAP1 PUSH2 0x536C JUMP JUMPDEST PUSH2 0x3064 SWAP2 SWAP1 PUSH2 0x536C JUMP JUMPDEST SWAP1 POP PUSH1 0x0 PUSH2 0x3073 DUP7 PUSH1 0xA PUSH2 0x52A5 JUMP JUMPDEST PUSH1 0x1C SLOAD PUSH2 0x3080 SWAP1 DUP6 PUSH2 0x534D JUMP JUMPDEST PUSH2 0x308A SWAP2 SWAP1 PUSH2 0x5240 JUMP JUMPDEST PUSH1 0x8 SLOAD PUSH1 0x40 MLOAD PUSH4 0x70A08231 PUSH1 0xE0 SHL DUP2 MSTORE ADDRESS PUSH1 0x4 DUP3 ADD MSTORE SWAP2 SWAP3 POP PUSH1 0x0 SWAP2 PUSH1 0x1 PUSH1 0x1 PUSH1 0xA0 SHL SUB SWAP1 SWAP2 AND SWAP1 PUSH4 0x70A08231 SWAP1 PUSH1 0x24 ADD PUSH1 0x20 PUSH1 0x40 MLOAD DUP1 DUP4 SUB DUP2 DUP7 DUP1 EXTCODESIZE ISZERO DUP1 ISZERO PUSH2 0x30D3 JUMPI PUSH1 0x0 DUP1 REVERT JUMPDEST POP GAS STATICCALL ISZERO DUP1 ISZERO PUSH2 0x30E7 JUMPI RETURNDATASIZE PUSH1 0x0 DUP1 RETURNDATACOPY RETURNDATASIZE PUSH1 0x0 REVERT JUMPDEST POP POP POP POP PUSH1 0x40 MLOAD RETURNDATASIZE PUSH1 0x1F NOT PUSH1 0x1F DUP3 ADD AND DUP3 ADD DUP1 PUSH1 0x40 MSTORE POP DUP2 ADD SWAP1 PUSH2 0x310B SWAP2 SWAP1 PUSH2 0x4D4C JUMP JUMPDEST SWAP1 POP PUSH1 0x0 DUP7 PUSH1 0x2F SLOAD DUP5 DUP5 PUSH2 0x311F SWAP2 SWAP1 PUSH2 0x536C JUMP JUMPDEST PUSH2 0x3129 SWAP2 SWAP1 PUSH2 0x536C JUMP JUMPDEST PUSH2 0x3133 SWAP2 SWAP1 PUSH2 0x536C JUMP JUMPDEST SWAP1 POP DUP7 ISZERO PUSH2 0x3158 JUMPI PUSH1 0x2E SLOAD PUSH1 0x8 SLOAD PUSH2 0x3158 SWAP2 PUSH1 0x1 PUSH1 0x1 PUSH1 0xA0 SHL SUB SWAP2 DUP3 AND SWAP2 AND DUP10 PUSH2 0x3D15 JUMP JUMPDEST DUP1 ISZERO PUSH2 0x31A4 JUMPI PUSH1 0x11 SLOAD PUSH2 0x3187 JUMPI PUSH1 0x30 SLOAD PUSH1 0x8 SLOAD PUSH2 0x3182 SWAP2 PUSH1 0x1 PUSH1 0x1 PUSH1 0xA0 SHL SUB SWAP2 DUP3 AND SWAP2 AND DUP4 PUSH2 0x3D15 JUMP JUMPDEST PUSH2 0x31A4 JUMP JUMPDEST PUSH1 0x7 SLOAD PUSH1 0x8 SLOAD PUSH2 0x31A4 SWAP2 PUSH1 0x1 PUSH1 0x1 PUSH1 0xA0 SHL SUB SWAP2 DUP3 AND SWAP2 AND DUP4 PUSH2 0x3D15 JUMP JUMPDEST PUSH1 0x9 SLOAD PUSH1 0x1 PUSH1 0x1 PUSH1 0xA0 SHL SUB AND PUSH2 0x323D JUMPI DUP4 ISZERO PUSH2 0x31F6 JUMPI PUSH1 0x7 SLOAD PUSH1 0x40 MLOAD PUSH1 0x1 PUSH1 0x1 PUSH1 0xA0 SHL SUB SWAP1 SWAP2 AND SWAP1 DUP6 ISZERO PUSH2 0x8FC MUL SWAP1 DUP7 SWAP1 PUSH1 0x0 DUP2 DUP2 DUP2 DUP6 DUP9 DUP9 CALL SWAP4 POP POP POP POP ISZERO DUP1 ISZERO PUSH2 0x31F4 JUMPI RETURNDATASIZE PUSH1 0x0 DUP1 RETURNDATACOPY RETURNDATASIZE PUSH1 0x0 REVERT JUMPDEST POP JUMPDEST DUP6 ISZERO PUSH2 0x3238 JUMPI PUSH1 0x2E SLOAD PUSH1 0x40 MLOAD PUSH1 0x1 PUSH1 0x1 PUSH1 0xA0 SHL SUB SWAP1 SWAP2 AND SWAP1 DUP8 ISZERO PUSH2 0x8FC MUL SWAP1 DUP9 SWAP1 PUSH1 0x0 DUP2 DUP2 DUP2 DUP6 DUP9 DUP9 CALL SWAP4 POP POP POP POP ISZERO DUP1 ISZERO PUSH2 0x3236 JUMPI RETURNDATASIZE PUSH1 0x0 DUP1 RETURNDATACOPY RETURNDATASIZE PUSH1 0x0 REVERT JUMPDEST POP JUMPDEST PUSH2 0x3283 JUMP JUMPDEST DUP4 ISZERO PUSH2 0x3260 JUMPI PUSH1 0x7 SLOAD PUSH1 0x9 SLOAD PUSH2 0x3260 SWAP2 PUSH1 0x1 PUSH1 0x1 PUSH1 0xA0 SHL SUB SWAP2 DUP3 AND SWAP2 AND DUP7 PUSH2 0x3D15 JUMP JUMPDEST DUP6 ISZERO PUSH2 0x3283 JUMPI PUSH1 0x2E SLOAD PUSH1 0x9 SLOAD PUSH2 0x3283 SWAP2 PUSH1 0x1 PUSH1 0x1 PUSH1 0xA0 SHL SUB SWAP2 DUP3 AND SWAP2 AND DUP9 PUSH2 0x3D15 JUMP JUMPDEST PUSH1 0x1A SLOAD PUSH1 0xFF AND PUSH2 0x39A6 JUMPI PUSH1 0x31 DUP4 SWAP1 SSTORE TIMESTAMP PUSH1 0x16 SSTORE PUSH1 0x8 SLOAD PUSH1 0x1B SLOAD PUSH1 0x40 MLOAD PUSH4 0x95EA7B3 PUSH1 0xE0 SHL DUP2 MSTORE PUSH1 0x1 PUSH1 0x1 PUSH1 0xA0 SHL SUB SWAP2 DUP3 AND PUSH1 0x4 DUP3 ADD MSTORE PUSH1 0x24 DUP2 ADD DUP7 SWAP1 MSTORE SWAP2 AND SWAP1 PUSH4 0x95EA7B3 SWAP1 PUSH1 0x44 ADD PUSH1 0x20 PUSH1 0x40 MLOAD DUP1 DUP4 SUB DUP2 PUSH1 0x0 DUP8 DUP1 EXTCODESIZE ISZERO DUP1 ISZERO PUSH2 0x32E6 JUMPI PUSH1 0x0 DUP1 REVERT JUMPDEST POP GAS CALL ISZERO DUP1 ISZERO PUSH2 0x32FA JUMPI RETURNDATASIZE PUSH1 0x0 DUP1 RETURNDATACOPY RETURNDATASIZE PUSH1 0x0 REVERT JUMPDEST POP POP POP POP PUSH1 0x40 MLOAD RETURNDATASIZE PUSH1 0x1F NOT PUSH1 0x1F DUP3 ADD AND DUP3 ADD DUP1 PUSH1 0x40 MSTORE POP DUP2 ADD SWAP1 PUSH2 0x331E SWAP2 SWAP1 PUSH2 0x4BA5 JUMP JUMPDEST POP PUSH1 0x8 SLOAD PUSH1 0x9 SLOAD PUSH1 0x1B SLOAD PUSH1 0x1A SLOAD PUSH2 0x334C SWAP4 PUSH1 0x1 PUSH1 0x1 PUSH1 0xA0 SHL SUB SWAP1 DUP2 AND SWAP4 DUP2 AND SWAP3 DUP2 AND SWAP2 PUSH2 0x100 SWAP1 DIV AND PUSH2 0x3D8D JUMP JUMPDEST PUSH2 0x3368 JUMPI PUSH1 0x40 MLOAD PUSH3 0x461BCD PUSH1 0xE5 SHL DUP2 MSTORE PUSH1 0x4 ADD PUSH2 0xCBC SWAP1 PUSH2 0x4F1D JUMP JUMPDEST PUSH1 0x1B SLOAD PUSH1 0x1A SLOAD PUSH1 0x9 SLOAD PUSH1 0x1 PUSH1 0x1 PUSH1 0xA0 SHL SUB SWAP3 DUP4 AND SWAP3 PUSH2 0x100 SWAP1 SWAP3 DIV DUP3 AND SWAP2 PUSH1 0x0 SWAP2 DUP3 SWAP2 AND PUSH2 0x357E JUMPI PUSH1 0x8 SLOAD PUSH1 0x1 PUSH1 0x1 PUSH1 0xA0 SHL SUB DUP1 DUP7 AND SWAP2 PUSH4 0xF305D719 SWAP2 DUP13 SWAP2 AND DUP11 PUSH1 0x0 DUP1 ADDRESS PUSH2 0x33B9 TIMESTAMP PUSH2 0x12C PUSH2 0x5228 JUMP JUMPDEST PUSH1 0x40 MLOAD PUSH1 0xE0 DUP10 SWAP1 SHL PUSH1 0x1 PUSH1 0x1 PUSH1 0xE0 SHL SUB NOT AND DUP2 MSTORE PUSH1 0x1 PUSH1 0x1 PUSH1 0xA0 SHL SUB SWAP7 DUP8 AND PUSH1 0x4 DUP3 ADD MSTORE PUSH1 0x24 DUP2 ADD SWAP6 SWAP1 SWAP6 MSTORE PUSH1 0x44 DUP6 ADD SWAP4 SWAP1 SWAP4 MSTORE PUSH1 0x64 DUP5 ADD SWAP2 SWAP1 SWAP2 MSTORE SWAP1 SWAP3 AND PUSH1 0x84 DUP3 ADD MSTORE PUSH1 0xA4 DUP2 ADD SWAP2 SWAP1 SWAP2 MSTORE PUSH1 0xC4 ADD PUSH1 0x60 PUSH1 0x40 MLOAD DUP1 DUP4 SUB DUP2 DUP6 DUP9 DUP1 EXTCODESIZE ISZERO DUP1 ISZERO PUSH2 0x3421 JUMPI PUSH1 0x0 DUP1 REVERT JUMPDEST POP GAS CALL ISZERO DUP1 ISZERO PUSH2 0x3435 JUMPI RETURNDATASIZE PUSH1 0x0 DUP1 RETURNDATACOPY RETURNDATASIZE PUSH1 0x0 REVERT JUMPDEST POP POP POP POP POP PUSH1 0x40 MLOAD RETURNDATASIZE PUSH1 0x1F NOT PUSH1 0x1F DUP3 ADD AND DUP3 ADD DUP1 PUSH1 0x40 MSTORE POP DUP2 ADD SWAP1 PUSH2 0x345A SWAP2 SWAP1 PUSH2 0x4D87 JUMP JUMPDEST SWAP1 SWAP2 POP SWAP1 POP DUP1 SWAP2 POP POP DUP3 PUSH1 0x1 PUSH1 0x1 PUSH1 0xA0 SHL SUB AND PUSH4 0xE6A43905 PUSH1 0x8 PUSH1 0x0 SWAP1 SLOAD SWAP1 PUSH2 0x100 EXP SWAP1 DIV PUSH1 0x1 PUSH1 0x1 PUSH1 0xA0 SHL SUB AND DUP7 PUSH1 0x1 PUSH1 0x1 PUSH1 0xA0 SHL SUB AND PUSH4 0xAD5C4648 PUSH1 0x40 MLOAD DUP2 PUSH4 0xFFFFFFFF AND PUSH1 0xE0 SHL DUP2 MSTORE PUSH1 0x4 ADD PUSH1 0x20 PUSH1 0x40 MLOAD DUP1 DUP4 SUB DUP2 DUP7 DUP1 EXTCODESIZE ISZERO DUP1 ISZERO PUSH2 0x34C1 JUMPI PUSH1 0x0 DUP1 REVERT JUMPDEST POP GAS STATICCALL ISZERO DUP1 ISZERO PUSH2 0x34D5 JUMPI RETURNDATASIZE PUSH1 0x0 DUP1 RETURNDATACOPY RETURNDATASIZE PUSH1 0x0 REVERT JUMPDEST POP POP POP POP PUSH1 0x40 MLOAD RETURNDATASIZE PUSH1 0x1F NOT PUSH1 0x1F DUP3 ADD AND DUP3 ADD DUP1 PUSH1 0x40 MSTORE POP DUP2 ADD SWAP1 PUSH2 0x34F9 SWAP2 SWAP1 PUSH2 0x4A6B JUMP JUMPDEST PUSH1 0x40 MLOAD PUSH1 0x1 PUSH1 0x1 PUSH1 0xE0 SHL SUB NOT PUSH1 0xE0 DUP6 SWAP1 SHL AND DUP2 MSTORE PUSH1 0x1 PUSH1 0x1 PUSH1 0xA0 SHL SUB SWAP3 DUP4 AND PUSH1 0x4 DUP3 ADD MSTORE SWAP2 AND PUSH1 0x24 DUP3 ADD MSTORE PUSH1 0x44 ADD PUSH1 0x20 PUSH1 0x40 MLOAD DUP1 DUP4 SUB DUP2 DUP7 DUP1 EXTCODESIZE ISZERO DUP1 ISZERO PUSH2 0x353F JUMPI PUSH1 0x0 DUP1 REVERT JUMPDEST POP GAS STATICCALL ISZERO DUP1 ISZERO PUSH2 0x3553 JUMPI RETURNDATASIZE PUSH1 0x0 DUP1 RETURNDATACOPY RETURNDATASIZE PUSH1 0x0 REVERT JUMPDEST POP POP POP POP PUSH1 0x40 MLOAD RETURNDATASIZE PUSH1 0x1F NOT PUSH1 0x1F DUP3 ADD AND DUP3 ADD DUP1 PUSH1 0x40 MSTORE POP DUP2 ADD SWAP1 PUSH2 0x3577 SWAP2 SWAP1 PUSH2 0x4A6B JUMP JUMPDEST SWAP2 POP PUSH2 0x3774 JUMP JUMPDEST PUSH1 0x9 SLOAD PUSH1 0x1B SLOAD PUSH1 0x40 MLOAD PUSH4 0x95EA7B3 PUSH1 0xE0 SHL DUP2 MSTORE PUSH1 0x1 PUSH1 0x1 PUSH1 0xA0 SHL SUB SWAP2 DUP3 AND PUSH1 0x4 DUP3 ADD MSTORE PUSH1 0x24 DUP2 ADD DUP13 SWAP1 MSTORE SWAP2 AND SWAP1 PUSH4 0x95EA7B3 SWAP1 PUSH1 0x44 ADD PUSH1 0x20 PUSH1 0x40 MLOAD DUP1 DUP4 SUB DUP2 PUSH1 0x0 DUP8 DUP1 EXTCODESIZE ISZERO DUP1 ISZERO PUSH2 0x35CE JUMPI PUSH1 0x0 DUP1 REVERT JUMPDEST POP GAS CALL ISZERO DUP1 ISZERO PUSH2 0x35E2 JUMPI RETURNDATASIZE PUSH1 0x0 DUP1 RETURNDATACOPY RETURNDATASIZE PUSH1 0x0 REVERT JUMPDEST POP POP POP POP PUSH1 0x40 MLOAD RETURNDATASIZE PUSH1 0x1F NOT PUSH1 0x1F DUP3 ADD AND DUP3 ADD DUP1 PUSH1 0x40 MSTORE POP DUP2 ADD SWAP1 PUSH2 0x3606 SWAP2 SWAP1 PUSH2 0x4BA5 JUMP JUMPDEST POP PUSH1 0x8 SLOAD PUSH1 0x9 SLOAD PUSH1 0x1 PUSH1 0x1 PUSH1 0xA0 SHL SUB DUP1 DUP8 AND SWAP3 PUSH4 0xE8E33700 SWAP3 SWAP1 DUP3 AND SWAP2 AND DUP11 DUP14 PUSH1 0x0 DUP1 ADDRESS PUSH2 0x3636 TIMESTAMP PUSH2 0x12C PUSH2 0x5228 JUMP JUMPDEST PUSH1 0x40 MLOAD PUSH1 0xE0 DUP11 SWAP1 SHL PUSH1 0x1 PUSH1 0x1 PUSH1 0xE0 SHL SUB NOT AND DUP2 MSTORE PUSH1 0x1 PUSH1 0x1 PUSH1 0xA0 SHL SUB SWAP9 DUP10 AND PUSH1 0x4 DUP3 ADD MSTORE SWAP7 DUP9 AND PUSH1 0x24 DUP9 ADD MSTORE PUSH1 0x44 DUP8 ADD SWAP6 SWAP1 SWAP6 MSTORE PUSH1 0x64 DUP7 ADD SWAP4 SWAP1 SWAP4 MSTORE PUSH1 0x84 DUP6 ADD SWAP2 SWAP1 SWAP2 MSTORE PUSH1 0xA4 DUP5 ADD MSTORE SWAP1 SWAP3 AND PUSH1 0xC4 DUP3 ADD MSTORE PUSH1 0xE4 DUP2 ADD SWAP2 SWAP1 SWAP2 MSTORE PUSH2 0x104 ADD PUSH1 0x60 PUSH1 0x40 MLOAD DUP1 DUP4 SUB DUP2 PUSH1 0x0 DUP8 DUP1 EXTCODESIZE ISZERO DUP1 ISZERO PUSH2 0x36AD JUMPI PUSH1 0x0 DUP1 REVERT JUMPDEST POP GAS CALL ISZERO DUP1 ISZERO PUSH2 0x36C1 JUMPI RETURNDATASIZE PUSH1 0x0 DUP1 RETURNDATACOPY RETURNDATASIZE PUSH1 0x0 REVERT JUMPDEST POP POP POP POP PUSH1 0x40 MLOAD RETURNDATASIZE PUSH1 0x1F NOT PUSH1 0x1F DUP3 ADD AND DUP3 ADD DUP1 PUSH1 0x40 MSTORE POP DUP2 ADD SWAP1 PUSH2 0x36E5 SWAP2 SWAP1 PUSH2 0x4D87 JUMP JUMPDEST PUSH1 0x8 SLOAD PUSH1 0x9 SLOAD PUSH1 0x40 MLOAD PUSH4 0xE6A43905 PUSH1 0xE0 SHL DUP2 MSTORE PUSH1 0x1 PUSH1 0x1 PUSH1 0xA0 SHL SUB SWAP3 DUP4 AND PUSH1 0x4 DUP3 ADD MSTORE SWAP1 DUP3 AND PUSH1 0x24 DUP3 ADD MSTORE SWAP2 SWAP5 POP DUP7 AND SWAP3 POP PUSH4 0xE6A43905 SWAP2 POP PUSH1 0x44 ADD PUSH1 0x20 PUSH1 0x40 MLOAD DUP1 DUP4 SUB DUP2 DUP7 DUP1 EXTCODESIZE ISZERO DUP1 ISZERO PUSH2 0x3739 JUMPI PUSH1 0x0 DUP1 REVERT JUMPDEST POP GAS STATICCALL ISZERO DUP1 ISZERO PUSH2 0x374D JUMPI RETURNDATASIZE PUSH1 0x0 DUP1 RETURNDATACOPY RETURNDATASIZE PUSH1 0x0 REVERT JUMPDEST POP POP POP POP PUSH1 0x40 MLOAD RETURNDATASIZE PUSH1 0x1F NOT PUSH1 0x1F DUP3 ADD AND DUP3 ADD DUP1 PUSH1 0x40 MSTORE POP DUP2 ADD SWAP1 PUSH2 0x3771 SWAP2 SWAP1 PUSH2 0x4A6B JUMP JUMPDEST SWAP2 POP JUMPDEST PUSH1 0x1 PUSH1 0x1 PUSH1 0xA0 SHL SUB DUP3 AND PUSH2 0x37CA JUMPI PUSH1 0x40 MLOAD PUSH3 0x461BCD PUSH1 0xE5 SHL DUP2 MSTORE PUSH1 0x20 PUSH1 0x4 DUP3 ADD MSTORE PUSH1 0x17 PUSH1 0x24 DUP3 ADD MSTORE PUSH32 0x6C61756E63687061643A20496E76616C69642070616972000000000000000000 PUSH1 0x44 DUP3 ADD MSTORE PUSH1 0x64 ADD PUSH2 0xCBC JUMP JUMPDEST PUSH1 0x0 DUP2 GT PUSH2 0x381A JUMPI PUSH1 0x40 MLOAD PUSH3 0x461BCD PUSH1 0xE5 SHL DUP2 MSTORE PUSH1 0x20 PUSH1 0x4 DUP3 ADD MSTORE PUSH1 0x1D PUSH1 0x24 DUP3 ADD MSTORE PUSH32 0x6C61756E63687061643A20496E76616C6964204C697175696469747921000000 PUSH1 0x44 DUP3 ADD MSTORE PUSH1 0x64 ADD PUSH2 0xCBC JUMP JUMPDEST PUSH1 0x1E SLOAD ISZERO PUSH2 0x3987 JUMPI PUSH1 0x29 SLOAD PUSH1 0x40 MLOAD PUSH4 0x95EA7B3 PUSH1 0xE0 SHL DUP2 MSTORE PUSH1 0x1 PUSH1 0x1 PUSH1 0xA0 SHL SUB SWAP2 DUP3 AND PUSH1 0x4 DUP3 ADD MSTORE PUSH1 0x24 DUP2 ADD DUP4 SWAP1 MSTORE SWAP1 DUP4 AND SWAP1 PUSH4 0x95EA7B3 SWAP1 PUSH1 0x44 ADD PUSH1 0x20 PUSH1 0x40 MLOAD DUP1 DUP4 SUB DUP2 PUSH1 0x0 DUP8 DUP1 EXTCODESIZE ISZERO DUP1 ISZERO PUSH2 0x3870 JUMPI PUSH1 0x0 DUP1 REVERT JUMPDEST POP GAS CALL ISZERO DUP1 ISZERO PUSH2 0x3884 JUMPI RETURNDATASIZE PUSH1 0x0 DUP1 RETURNDATACOPY RETURNDATASIZE PUSH1 0x0 REVERT JUMPDEST POP POP POP POP PUSH1 0x40 MLOAD RETURNDATASIZE PUSH1 0x1F NOT PUSH1 0x1F DUP3 ADD AND DUP3 ADD DUP1 PUSH1 0x40 MSTORE POP DUP2 ADD SWAP1 PUSH2 0x38A8 SWAP2 SWAP1 PUSH2 0x4BA5 JUMP JUMPDEST POP PUSH1 0x0 PUSH1 0x1E SLOAD TIMESTAMP PUSH2 0x38B9 SWAP2 SWAP1 PUSH2 0x5228 JUMP JUMPDEST PUSH1 0x29 SLOAD PUSH1 0x7 SLOAD PUSH1 0x40 MLOAD PUSH4 0x7279357 PUSH1 0xE0 SHL DUP2 MSTORE PUSH1 0x1 PUSH1 0x1 PUSH1 0xA0 SHL SUB SWAP2 DUP3 AND PUSH1 0x4 DUP3 ADD MSTORE DUP7 DUP3 AND PUSH1 0x24 DUP3 ADD MSTORE PUSH1 0x1 PUSH1 0x44 DUP3 ADD MSTORE PUSH1 0x64 DUP2 ADD DUP7 SWAP1 MSTORE PUSH1 0x84 DUP2 ADD DUP5 SWAP1 MSTORE PUSH1 0xC0 PUSH1 0xA4 DUP3 ADD MSTORE PUSH1 0xD PUSH1 0xC4 DUP3 ADD MSTORE PUSH13 0x6C61756E63687061643A204C5 PUSH1 0x9C SHL PUSH1 0xE4 DUP3 ADD MSTORE SWAP3 SWAP4 POP AND SWAP1 PUSH4 0x7279357 SWAP1 PUSH2 0x104 ADD PUSH1 0x20 PUSH1 0x40 MLOAD DUP1 DUP4 SUB DUP2 PUSH1 0x0 DUP8 DUP1 EXTCODESIZE ISZERO DUP1 ISZERO PUSH2 0x3946 JUMPI PUSH1 0x0 DUP1 REVERT JUMPDEST POP GAS CALL ISZERO DUP1 ISZERO PUSH2 0x395A JUMPI RETURNDATASIZE PUSH1 0x0 DUP1 RETURNDATACOPY RETURNDATASIZE PUSH1 0x0 REVERT JUMPDEST POP POP POP POP PUSH1 0x40 MLOAD RETURNDATASIZE PUSH1 0x1F NOT PUSH1 0x1F DUP3 ADD AND DUP3 ADD DUP1 PUSH1 0x40 MSTORE POP DUP2 ADD SWAP1 PUSH2 0x397E SWAP2 SWAP1 PUSH2 0x4D4C JUMP JUMPDEST PUSH1 0x2A SSTORE POP PUSH2 0x39A1 JUMP JUMPDEST PUSH1 0x7 SLOAD PUSH2 0x39A1 SWAP1 PUSH1 0x1 PUSH1 0x1 PUSH1 0xA0 SHL SUB DUP5 DUP2 AND SWAP2 AND DUP4 PUSH2 0x3D15 JUMP JUMPDEST POP POP POP POP JUMPDEST POP POP POP POP POP POP POP POP JUMP JUMPDEST PUSH1 0x60 DUP3 DUP3 GT DUP1 ISZERO PUSH2 0x39C8 JUMPI POP PUSH2 0x39C4 PUSH2 0x26CA JUMP JUMPDEST DUP3 GT ISZERO JUMPDEST PUSH2 0x3A09 JUMPI PUSH1 0x40 MLOAD PUSH3 0x461BCD PUSH1 0xE5 SHL DUP2 MSTORE PUSH1 0x20 PUSH1 0x4 DUP3 ADD MSTORE PUSH1 0x12 PUSH1 0x24 DUP3 ADD MSTORE PUSH18 0x1B185D5B98DA1C18590E88125B9D985B1A59 PUSH1 0x72 SHL PUSH1 0x44 DUP3 ADD MSTORE PUSH1 0x64 ADD PUSH2 0xCBC JUMP JUMPDEST PUSH1 0x0 PUSH2 0x3A15 DUP5 DUP5 PUSH2 0x536C JUMP JUMPDEST PUSH1 0x1 PUSH1 0x1 PUSH1 0x40 SHL SUB DUP2 GT ISZERO PUSH2 0x3A2C JUMPI PUSH2 0x3A2C PUSH2 0x5447 JUMP JUMPDEST PUSH1 0x40 MLOAD SWAP1 DUP1 DUP3 MSTORE DUP1 PUSH1 0x20 MUL PUSH1 0x20 ADD DUP3 ADD PUSH1 0x40 MSTORE DUP1 ISZERO PUSH2 0x3A55 JUMPI DUP2 PUSH1 0x20 ADD PUSH1 0x20 DUP3 MUL DUP1 CALLDATASIZE DUP4 CALLDATACOPY ADD SWAP1 POP JUMPDEST POP SWAP1 POP PUSH1 0x0 DUP5 JUMPDEST DUP5 DUP2 LT ISZERO PUSH2 0x3AB9 JUMPI PUSH2 0x3A6F PUSH1 0x5 DUP3 PUSH2 0x4009 JUMP JUMPDEST DUP4 DUP4 DUP2 MLOAD DUP2 LT PUSH2 0x3A81 JUMPI PUSH2 0x3A81 PUSH2 0x5431 JUMP JUMPDEST PUSH1 0x1 PUSH1 0x1 PUSH1 0xA0 SHL SUB SWAP1 SWAP3 AND PUSH1 0x20 SWAP3 DUP4 MUL SWAP2 SWAP1 SWAP2 ADD SWAP1 SWAP2 ADD MSTORE DUP2 PUSH2 0x3AA3 DUP2 PUSH2 0x53EA JUMP JUMPDEST SWAP3 POP POP DUP1 DUP1 PUSH2 0x3AB1 SWAP1 PUSH2 0x53EA JUMP JUMPDEST SWAP2 POP POP PUSH2 0x3A5C JUMP JUMPDEST POP SWAP1 SWAP2 POP POP JUMPDEST SWAP3 SWAP2 POP POP JUMP JUMPDEST PUSH1 0x1 PUSH1 0x1 PUSH1 0xA0 SHL SUB DUP2 AND PUSH1 0x0 SWAP1 DUP2 MSTORE PUSH1 0x1 DUP4 ADD PUSH1 0x20 MSTORE PUSH1 0x40 DUP2 KECCAK256 SLOAD ISZERO ISZERO PUSH2 0x2D9B JUMP JUMPDEST PUSH1 0x0 PUSH2 0x2D9B DUP4 PUSH1 0x1 PUSH1 0x1 PUSH1 0xA0 SHL SUB DUP5 AND PUSH2 0x411F JUMP JUMPDEST PUSH1 0x0 SLOAD PUSH1 0xFF AND PUSH2 0x168F JUMPI PUSH1 0x40 MLOAD PUSH3 0x461BCD PUSH1 0xE5 SHL DUP2 MSTORE PUSH1 0x20 PUSH1 0x4 DUP3 ADD MSTORE PUSH1 0x14 PUSH1 0x24 DUP3 ADD MSTORE PUSH20 0x14185D5CD8589B194E881B9BDD081C185D5CD959 PUSH1 0x62 SHL PUSH1 0x44 DUP3 ADD MSTORE PUSH1 0x64 ADD PUSH2 0xCBC JUMP JUMPDEST PUSH2 0x3B4D PUSH2 0x3AFC JUMP JUMPDEST PUSH1 0x0 DUP1 SLOAD PUSH1 0xFF NOT AND SWAP1 SSTORE PUSH32 0x5DB9EE0A495BF2E6FF9C91A7834C1BA4FDD244A5E8AA4E537BD38AEAE4B073AA CALLER JUMPDEST PUSH1 0x40 MLOAD PUSH1 0x1 PUSH1 0x1 PUSH1 0xA0 SHL SUB SWAP1 SWAP2 AND DUP2 MSTORE PUSH1 0x20 ADD PUSH1 0x40 MLOAD DUP1 SWAP2 SUB SWAP1 LOG1 JUMP JUMPDEST PUSH1 0x0 SLOAD PUSH1 0xFF AND ISZERO PUSH2 0x168F JUMPI PUSH1 0x40 MLOAD PUSH3 0x461BCD PUSH1 0xE5 SHL DUP2 MSTORE PUSH1 0x20 PUSH1 0x4 DUP3 ADD MSTORE PUSH1 0x10 PUSH1 0x24 DUP3 ADD MSTORE PUSH16 0x14185D5CD8589B194E881C185D5CD959 PUSH1 0x82 SHL PUSH1 0x44 DUP3 ADD MSTORE PUSH1 0x64 ADD PUSH2 0xCBC JUMP JUMPDEST PUSH1 0x17 SLOAD PUSH1 0x0 SWAP1 DUP2 SWAP1 PUSH1 0x2 EQ ISZERO DUP1 PUSH2 0x3BF6 JUMPI POP PUSH1 0x40 DUP4 ADD MLOAD ISZERO JUMPDEST DUP1 PUSH2 0x3C07 JUMPI POP PUSH1 0x60 DUP4 ADD MLOAD ISZERO ISZERO PUSH1 0x1 EQ JUMPDEST DUP1 PUSH2 0x3C1A JUMPI POP DUP3 PUSH1 0x40 ADD MLOAD DUP4 PUSH1 0x20 ADD MLOAD LT ISZERO JUMPDEST DUP1 PUSH2 0x3C25 JUMPI POP PUSH1 0x16 SLOAD ISZERO JUMPDEST DUP1 PUSH2 0x3C31 JUMPI POP PUSH1 0x16 SLOAD TIMESTAMP LT JUMPDEST ISZERO PUSH2 0x3C3C JUMPI SWAP3 SWAP2 POP POP JUMP JUMPDEST PUSH1 0x0 PUSH1 0x13 SLOAD PUSH1 0x0 EQ ISZERO PUSH2 0x3C54 JUMPI POP PUSH1 0x40 DUP4 ADD MLOAD PUSH2 0x3CFE JUMP JUMPDEST PUSH1 0x0 PUSH2 0x2710 PUSH1 0x13 SLOAD DUP7 PUSH1 0x40 ADD MLOAD PUSH2 0x3C6B SWAP2 SWAP1 PUSH2 0x534D JUMP JUMPDEST PUSH2 0x3C75 SWAP2 SWAP1 PUSH2 0x5240 JUMP JUMPDEST SWAP1 POP PUSH1 0x0 PUSH2 0x2710 PUSH1 0x15 SLOAD DUP8 PUSH1 0x40 ADD MLOAD PUSH2 0x3C8E SWAP2 SWAP1 PUSH2 0x534D JUMP JUMPDEST PUSH2 0x3C98 SWAP2 SWAP1 PUSH2 0x5240 JUMP JUMPDEST SWAP1 POP PUSH1 0x0 DUP1 PUSH1 0x16 SLOAD SWAP1 POP DUP1 TIMESTAMP LT PUSH2 0x3CCE JUMPI PUSH1 0x14 SLOAD PUSH2 0x3CB6 DUP3 TIMESTAMP PUSH2 0x536C JUMP JUMPDEST PUSH2 0x3CC0 SWAP2 SWAP1 PUSH2 0x5240 JUMP JUMPDEST PUSH2 0x3CCB SWAP1 PUSH1 0x1 PUSH2 0x5228 JUMP JUMPDEST SWAP2 POP JUMPDEST DUP4 PUSH2 0x3CD9 DUP5 DUP5 PUSH2 0x534D JUMP JUMPDEST PUSH2 0x3CE3 SWAP2 SWAP1 PUSH2 0x5228 JUMP JUMPDEST SWAP5 POP DUP8 PUSH1 0x40 ADD MLOAD DUP6 GT ISZERO PUSH2 0x3CF9 JUMPI DUP8 PUSH1 0x40 ADD MLOAD SWAP5 POP JUMPDEST POP POP POP POP JUMPDEST PUSH1 0x20 DUP5 ADD MLOAD PUSH2 0x3D0D SWAP1 DUP3 PUSH2 0x536C JUMP JUMPDEST SWAP5 SWAP4 POP POP POP POP JUMP JUMPDEST PUSH1 0x40 MLOAD PUSH1 0x1 PUSH1 0x1 PUSH1 0xA0 SHL SUB DUP4 AND PUSH1 0x24 DUP3 ADD MSTORE PUSH1 0x44 DUP2 ADD DUP3 SWAP1 MSTORE PUSH2 0x18BB SWAP1 DUP5 SWAP1 PUSH4 0xA9059CBB PUSH1 0xE0 SHL SWAP1 PUSH1 0x64 ADD JUMPDEST PUSH1 0x40 DUP1 MLOAD PUSH1 0x1F NOT DUP2 DUP5 SUB ADD DUP2 MSTORE SWAP2 SWAP1 MSTORE PUSH1 0x20 DUP2 ADD DUP1 MLOAD PUSH1 0x1 PUSH1 0x1 PUSH1 0xE0 SHL SUB AND PUSH1 0x1 PUSH1 0x1 PUSH1 0xE0 SHL SUB NOT SWAP1 SWAP4 AND SWAP3 SWAP1 SWAP3 OR SWAP1 SWAP2 MSTORE PUSH2 0x4212 JUMP JUMPDEST PUSH1 0x0 PUSH2 0x2D9B DUP4 PUSH1 0x1 PUSH1 0x1 PUSH1 0xA0 SHL SUB DUP5 AND PUSH2 0x42E7 JUMP JUMPDEST PUSH1 0x0 DUP1 DUP4 DUP4 PUSH1 0x1 PUSH1 0x1 PUSH1 0xA0 SHL SUB DUP8 AND PUSH2 0x3EA6 JUMPI DUP1 PUSH1 0x1 PUSH1 0x1 PUSH1 0xA0 SHL SUB AND PUSH4 0xE6A43905 DUP10 DUP5 PUSH1 0x1 PUSH1 0x1 PUSH1 0xA0 SHL SUB AND PUSH4 0xAD5C4648 PUSH1 0x40 MLOAD DUP2 PUSH4 0xFFFFFFFF AND PUSH1 0xE0 SHL DUP2 MSTORE PUSH1 0x4 ADD PUSH1 0x20 PUSH1 0x40 MLOAD DUP1 DUP4 SUB DUP2 DUP7 DUP1 EXTCODESIZE ISZERO DUP1 ISZERO PUSH2 0x3DE9 JUMPI PUSH1 0x0 DUP1 REVERT JUMPDEST POP GAS STATICCALL ISZERO DUP1 ISZERO PUSH2 0x3DFD JUMPI RETURNDATASIZE PUSH1 0x0 DUP1 RETURNDATACOPY RETURNDATASIZE PUSH1 0x0 REVERT JUMPDEST POP POP POP POP PUSH1 0x40 MLOAD RETURNDATASIZE PUSH1 0x1F NOT PUSH1 0x1F DUP3 ADD AND DUP3 ADD DUP1 PUSH1 0x40 MSTORE POP DUP2 ADD SWAP1 PUSH2 0x3E21 SWAP2 SWAP1 PUSH2 0x4A6B JUMP JUMPDEST PUSH1 0x40 MLOAD PUSH1 0x1 PUSH1 0x1 PUSH1 0xE0 SHL SUB NOT PUSH1 0xE0 DUP6 SWAP1 SHL AND DUP2 MSTORE PUSH1 0x1 PUSH1 0x1 PUSH1 0xA0 SHL SUB SWAP3 DUP4 AND PUSH1 0x4 DUP3 ADD MSTORE SWAP2 AND PUSH1 0x24 DUP3 ADD MSTORE PUSH1 0x44 ADD PUSH1 0x20 PUSH1 0x40 MLOAD DUP1 DUP4 SUB DUP2 DUP7 DUP1 EXTCODESIZE ISZERO DUP1 ISZERO PUSH2 0x3E67 JUMPI PUSH1 0x0 DUP1 REVERT JUMPDEST POP GAS STATICCALL ISZERO DUP1 ISZERO PUSH2 0x3E7B JUMPI RETURNDATASIZE PUSH1 0x0 DUP1 RETURNDATACOPY RETURNDATASIZE PUSH1 0x0 REVERT JUMPDEST POP POP POP POP PUSH1 0x40 MLOAD RETURNDATASIZE PUSH1 0x1F NOT PUSH1 0x1F DUP3 ADD AND DUP3 ADD DUP1 PUSH1 0x40 MSTORE POP DUP2 ADD SWAP1 PUSH2 0x3E9F SWAP2 SWAP1 PUSH2 0x4A6B JUMP JUMPDEST SWAP3 POP PUSH2 0x3F2A JUMP JUMPDEST PUSH1 0x40 MLOAD PUSH4 0xE6A43905 PUSH1 0xE0 SHL DUP2 MSTORE PUSH1 0x1 PUSH1 0x1 PUSH1 0xA0 SHL SUB DUP10 DUP2 AND PUSH1 0x4 DUP4 ADD MSTORE DUP9 DUP2 AND PUSH1 0x24 DUP4 ADD MSTORE DUP3 AND SWAP1 PUSH4 0xE6A43905 SWAP1 PUSH1 0x44 ADD PUSH1 0x20 PUSH1 0x40 MLOAD DUP1 DUP4 SUB DUP2 DUP7 DUP1 EXTCODESIZE ISZERO DUP1 ISZERO PUSH2 0x3EEF JUMPI PUSH1 0x0 DUP1 REVERT JUMPDEST POP GAS STATICCALL ISZERO DUP1 ISZERO PUSH2 0x3F03 JUMPI RETURNDATASIZE PUSH1 0x0 DUP1 RETURNDATACOPY RETURNDATASIZE PUSH1 0x0 REVERT JUMPDEST POP POP POP POP PUSH1 0x40 MLOAD RETURNDATASIZE PUSH1 0x1F NOT PUSH1 0x1F DUP3 ADD AND DUP3 ADD DUP1 PUSH1 0x40 MSTORE POP DUP2 ADD SWAP1 PUSH2 0x3F27 SWAP2 SWAP1 PUSH2 0x4A6B JUMP JUMPDEST SWAP3 POP JUMPDEST PUSH1 0x1 PUSH1 0x1 PUSH1 0xA0 SHL SUB DUP4 AND PUSH2 0x3F44 JUMPI PUSH1 0x1 SWAP4 POP POP POP POP PUSH2 0x3D0D JUMP JUMPDEST DUP3 PUSH1 0x1 PUSH1 0x1 PUSH1 0xA0 SHL SUB AND PUSH4 0x18160DDD PUSH1 0x40 MLOAD DUP2 PUSH4 0xFFFFFFFF AND PUSH1 0xE0 SHL DUP2 MSTORE PUSH1 0x4 ADD PUSH1 0x20 PUSH1 0x40 MLOAD DUP1 DUP4 SUB DUP2 DUP7 DUP1 EXTCODESIZE ISZERO DUP1 ISZERO PUSH2 0x3F7D JUMPI PUSH1 0x0 DUP1 REVERT JUMPDEST POP GAS STATICCALL ISZERO DUP1 ISZERO PUSH2 0x3F91 JUMPI RETURNDATASIZE PUSH1 0x0 DUP1 RETURNDATACOPY RETURNDATASIZE PUSH1 0x0 REVERT JUMPDEST POP POP POP POP PUSH1 0x40 MLOAD RETURNDATASIZE PUSH1 0x1F NOT PUSH1 0x1F DUP3 ADD AND DUP3 ADD DUP1 PUSH1 0x40 MSTORE POP DUP2 ADD SWAP1 PUSH2 0x3FB5 SWAP2 SWAP1 PUSH2 0x4D4C JUMP JUMPDEST ISZERO SWAP9 SWAP8 POP POP POP POP POP POP POP POP JUMP JUMPDEST PUSH2 0x3FCA PUSH2 0x3B97 JUMP JUMPDEST PUSH1 0x0 DUP1 SLOAD PUSH1 0xFF NOT AND PUSH1 0x1 OR SWAP1 SSTORE PUSH32 0x62E78CEA01BEE320CD4E420270B5EA74000D11B0C9F74754EBDBFC544B05A258 PUSH2 0x3B7A CALLER SWAP1 JUMP JUMPDEST PUSH1 0x0 PUSH2 0x3ABF DUP3 SLOAD SWAP1 JUMP JUMPDEST PUSH1 0x0 PUSH2 0x2D9B DUP4 DUP4 PUSH2 0x4336 JUMP JUMPDEST PUSH1 0x9 SLOAD PUSH1 0x0 SWAP1 PUSH1 0x12 SWAP1 PUSH1 0x1 PUSH1 0x1 PUSH1 0xA0 SHL SUB AND ISZERO PUSH2 0x40B8 JUMPI PUSH1 0x9 PUSH1 0x0 SWAP1 SLOAD SWAP1 PUSH2 0x100 EXP SWAP1 DIV PUSH1 0x1 PUSH1 0x1 PUSH1 0xA0 SHL SUB AND PUSH1 0x1 PUSH1 0x1 PUSH1 0xA0 SHL SUB AND PUSH4 0x313CE567 PUSH1 0x40 MLOAD DUP2 PUSH4 0xFFFFFFFF AND PUSH1 0xE0 SHL DUP2 MSTORE PUSH1 0x4 ADD PUSH1 0x20 PUSH1 0x40 MLOAD DUP1 DUP4 SUB DUP2 DUP7 DUP1 EXTCODESIZE ISZERO DUP1 ISZERO PUSH2 0x407A JUMPI PUSH1 0x0 DUP1 REVERT JUMPDEST POP GAS STATICCALL ISZERO DUP1 ISZERO PUSH2 0x408E JUMPI RETURNDATASIZE PUSH1 0x0 DUP1 RETURNDATACOPY RETURNDATASIZE PUSH1 0x0 REVERT JUMPDEST POP POP POP POP PUSH1 0x40 MLOAD RETURNDATASIZE PUSH1 0x1F NOT PUSH1 0x1F DUP3 ADD AND DUP3 ADD DUP1 PUSH1 0x40 MSTORE POP DUP2 ADD SWAP1 PUSH2 0x40B2 SWAP2 SWAP1 PUSH2 0x4DB5 JUMP JUMPDEST PUSH1 0xFF AND SWAP1 POP JUMPDEST PUSH2 0x40C3 DUP2 PUSH1 0xA PUSH2 0x52A5 JUMP JUMPDEST PUSH1 0xC SLOAD PUSH2 0x40D0 SWAP1 DUP6 PUSH2 0x534D JUMP JUMPDEST PUSH2 0x2D9B SWAP2 SWAP1 PUSH2 0x5240 JUMP JUMPDEST PUSH1 0x40 MLOAD PUSH1 0x1 PUSH1 0x1 PUSH1 0xA0 SHL SUB DUP1 DUP6 AND PUSH1 0x24 DUP4 ADD MSTORE DUP4 AND PUSH1 0x44 DUP3 ADD MSTORE PUSH1 0x64 DUP2 ADD DUP3 SWAP1 MSTORE PUSH2 0x2A3B SWAP1 DUP6 SWAP1 PUSH4 0x23B872DD PUSH1 0xE0 SHL SWAP1 PUSH1 0x84 ADD PUSH2 0x3D41 JUMP JUMPDEST PUSH1 0x60 PUSH1 0x0 PUSH2 0x2D9B DUP4 PUSH2 0x4360 JUMP JUMPDEST PUSH1 0x0 DUP2 DUP2 MSTORE PUSH1 0x1 DUP4 ADD PUSH1 0x20 MSTORE PUSH1 0x40 DUP2 KECCAK256 SLOAD DUP1 ISZERO PUSH2 0x4208 JUMPI PUSH1 0x0 PUSH2 0x4143 PUSH1 0x1 DUP4 PUSH2 0x536C JUMP JUMPDEST DUP6 SLOAD SWAP1 SWAP2 POP PUSH1 0x0 SWAP1 PUSH2 0x4157 SWAP1 PUSH1 0x1 SWAP1 PUSH2 0x536C JUMP JUMPDEST SWAP1 POP DUP2 DUP2 EQ PUSH2 0x41BC JUMPI PUSH1 0x0 DUP7 PUSH1 0x0 ADD DUP3 DUP2 SLOAD DUP2 LT PUSH2 0x4177 JUMPI PUSH2 0x4177 PUSH2 0x5431 JUMP JUMPDEST SWAP1 PUSH1 0x0 MSTORE PUSH1 0x20 PUSH1 0x0 KECCAK256 ADD SLOAD SWAP1 POP DUP1 DUP8 PUSH1 0x0 ADD DUP5 DUP2 SLOAD DUP2 LT PUSH2 0x419A JUMPI PUSH2 0x419A PUSH2 0x5431 JUMP JUMPDEST PUSH1 0x0 SWAP2 DUP3 MSTORE PUSH1 0x20 DUP1 DUP4 KECCAK256 SWAP1 SWAP2 ADD SWAP3 SWAP1 SWAP3 SSTORE SWAP2 DUP3 MSTORE PUSH1 0x1 DUP9 ADD SWAP1 MSTORE PUSH1 0x40 SWAP1 KECCAK256 DUP4 SWAP1 SSTORE JUMPDEST DUP6 SLOAD DUP7 SWAP1 DUP1 PUSH2 0x41CD JUMPI PUSH2 0x41CD PUSH2 0x541B JUMP JUMPDEST PUSH1 0x1 SWAP1 SUB DUP2 DUP2 SWAP1 PUSH1 0x0 MSTORE PUSH1 0x20 PUSH1 0x0 KECCAK256 ADD PUSH1 0x0 SWAP1 SSTORE SWAP1 SSTORE DUP6 PUSH1 0x1 ADD PUSH1 0x0 DUP7 DUP2 MSTORE PUSH1 0x20 ADD SWAP1 DUP2 MSTORE PUSH1 0x20 ADD PUSH1 0x0 KECCAK256 PUSH1 0x0 SWAP1 SSTORE PUSH1 0x1 SWAP4 POP POP POP POP PUSH2 0x3ABF JUMP JUMPDEST PUSH1 0x0 SWAP2 POP POP PUSH2 0x3ABF JUMP JUMPDEST PUSH1 0x0 PUSH2 0x4267 DUP3 PUSH1 0x40 MLOAD DUP1 PUSH1 0x40 ADD PUSH1 0x40 MSTORE DUP1 PUSH1 0x20 DUP2 MSTORE PUSH1 0x20 ADD PUSH32 0x5361666545524332303A206C6F772D6C6576656C2063616C6C206661696C6564 DUP2 MSTORE POP DUP6 PUSH1 0x1 PUSH1 0x1 PUSH1 0xA0 SHL SUB AND PUSH2 0x43BC SWAP1 SWAP3 SWAP2 SWAP1 PUSH4 0xFFFFFFFF AND JUMP JUMPDEST SWAP1 POP DUP1 MLOAD PUSH1 0x0 EQ DUP1 PUSH2 0x4288 JUMPI POP DUP1 DUP1 PUSH1 0x20 ADD SWAP1 MLOAD DUP2 ADD SWAP1 PUSH2 0x4288 SWAP2 SWAP1 PUSH2 0x4BA5 JUMP JUMPDEST PUSH2 0x18BB JUMPI PUSH1 0x40 MLOAD PUSH3 0x461BCD PUSH1 0xE5 SHL DUP2 MSTORE PUSH1 0x20 PUSH1 0x4 DUP3 ADD MSTORE PUSH1 0x2A PUSH1 0x24 DUP3 ADD MSTORE PUSH32 0x5361666545524332303A204552433230206F7065726174696F6E20646964206E PUSH1 0x44 DUP3 ADD MSTORE PUSH10 0x1BDD081CDD58D8D95959 PUSH1 0xB2 SHL PUSH1 0x64 DUP3 ADD MSTORE PUSH1 0x84 ADD PUSH2 0xCBC JUMP JUMPDEST PUSH1 0x0 DUP2 DUP2 MSTORE PUSH1 0x1 DUP4 ADD PUSH1 0x20 MSTORE PUSH1 0x40 DUP2 KECCAK256 SLOAD PUSH2 0x432E JUMPI POP DUP2 SLOAD PUSH1 0x1 DUP2 DUP2 ADD DUP5 SSTORE PUSH1 0x0 DUP5 DUP2 MSTORE PUSH1 0x20 DUP1 DUP3 KECCAK256 SWAP1 SWAP4 ADD DUP5 SWAP1 SSTORE DUP5 SLOAD DUP5 DUP3 MSTORE DUP3 DUP7 ADD SWAP1 SWAP4 MSTORE PUSH1 0x40 SWAP1 KECCAK256 SWAP2 SWAP1 SWAP2 SSTORE PUSH2 0x3ABF JUMP JUMPDEST POP PUSH1 0x0 PUSH2 0x3ABF JUMP JUMPDEST PUSH1 0x0 DUP3 PUSH1 0x0 ADD DUP3 DUP2 SLOAD DUP2 LT PUSH2 0x434D JUMPI PUSH2 0x434D PUSH2 0x5431 JUMP JUMPDEST SWAP1 PUSH1 0x0 MSTORE PUSH1 0x20 PUSH1 0x0 KECCAK256 ADD SLOAD SWAP1 POP SWAP3 SWAP2 POP POP JUMP JUMPDEST PUSH1 0x60 DUP2 PUSH1 0x0 ADD DUP1 SLOAD DUP1 PUSH1 0x20 MUL PUSH1 0x20 ADD PUSH1 0x40 MLOAD SWAP1 DUP2 ADD PUSH1 0x40 MSTORE DUP1 SWAP3 SWAP2 SWAP1 DUP2 DUP2 MSTORE PUSH1 0x20 ADD DUP3 DUP1 SLOAD DUP1 ISZERO PUSH2 0x43B0 JUMPI PUSH1 0x20 MUL DUP3 ADD SWAP2 SWAP1 PUSH1 0x0 MSTORE PUSH1 0x20 PUSH1 0x0 KECCAK256 SWAP1 JUMPDEST DUP2 SLOAD DUP2 MSTORE PUSH1 0x20 ADD SWAP1 PUSH1 0x1 ADD SWAP1 DUP1 DUP4 GT PUSH2 0x439C JUMPI JUMPDEST POP POP POP POP POP SWAP1 POP SWAP2 SWAP1 POP JUMP JUMPDEST PUSH1 0x60 PUSH2 0x3D0D DUP5 DUP5 PUSH1 0x0 DUP6 DUP6 PUSH1 0x0 DUP1 DUP7 PUSH1 0x1 PUSH1 0x1 PUSH1 0xA0 SHL SUB AND DUP6 DUP8 PUSH1 0x40 MLOAD PUSH2 0x43E3 SWAP2 SWAP1 PUSH2 0x4E04 JUMP JUMPDEST PUSH1 0x0 PUSH1 0x40 MLOAD DUP1 DUP4 SUB DUP2 DUP6 DUP8 GAS CALL SWAP3 POP POP POP RETURNDATASIZE DUP1 PUSH1 0x0 DUP2 EQ PUSH2 0x4420 JUMPI PUSH1 0x40 MLOAD SWAP2 POP PUSH1 0x1F NOT PUSH1 0x3F RETURNDATASIZE ADD AND DUP3 ADD PUSH1 0x40 MSTORE RETURNDATASIZE DUP3 MSTORE RETURNDATASIZE PUSH1 0x0 PUSH1 0x20 DUP5 ADD RETURNDATACOPY PUSH2 0x4425 JUMP JUMPDEST PUSH1 0x60 SWAP2 POP JUMPDEST POP SWAP2 POP SWAP2 POP PUSH2 0x4436 DUP8 DUP4 DUP4 DUP8 PUSH2 0x4441 JUMP JUMPDEST SWAP8 SWAP7 POP POP POP POP POP POP POP JUMP JUMPDEST PUSH1 0x60 DUP4 ISZERO PUSH2 0x44AD JUMPI DUP3 MLOAD PUSH2 0x44A6 JUMPI PUSH1 0x1 PUSH1 0x1 PUSH1 0xA0 SHL SUB DUP6 AND EXTCODESIZE PUSH2 0x44A6 JUMPI PUSH1 0x40 MLOAD PUSH3 0x461BCD PUSH1 0xE5 SHL DUP2 MSTORE PUSH1 0x20 PUSH1 0x4 DUP3 ADD MSTORE PUSH1 0x1D PUSH1 0x24 DUP3 ADD MSTORE PUSH32 0x416464726573733A2063616C6C20746F206E6F6E2D636F6E7472616374000000 PUSH1 0x44 DUP3 ADD MSTORE PUSH1 0x64 ADD PUSH2 0xCBC JUMP JUMPDEST POP DUP2 PUSH2 0x3D0D JUMP JUMPDEST PUSH2 0x3D0D DUP4 DUP4 DUP2 MLOAD ISZERO PUSH2 0x44C2 JUMPI DUP2 MLOAD DUP1 DUP4 PUSH1 0x20 ADD REVERT JUMPDEST DUP1 PUSH1 0x40 MLOAD PUSH3 0x461BCD PUSH1 0xE5 SHL DUP2 MSTORE PUSH1 0x4 ADD PUSH2 0xCBC SWAP2 SWAP1 PUSH2 0x4E6D JUMP JUMPDEST PUSH1 0x40 MLOAD DUP1 PUSH2 0x3E0 ADD PUSH1 0x40 MSTORE DUP1 PUSH1 0x0 DUP2 MSTORE PUSH1 0x20 ADD PUSH1 0x0 DUP2 MSTORE PUSH1 0x20 ADD PUSH1 0x0 DUP2 MSTORE PUSH1 0x20 ADD PUSH1 0x0 DUP2 MSTORE PUSH1 0x20 ADD PUSH1 0x0 DUP2 MSTORE PUSH1 0x20 ADD PUSH1 0x0 DUP2 MSTORE PUSH1 0x20 ADD PUSH1 0x0 DUP2 MSTORE PUSH1 0x20 ADD PUSH1 0x0 PUSH1 0x1 PUSH1 0x1 PUSH1 0xA0 SHL SUB AND DUP2 MSTORE PUSH1 0x20 ADD PUSH1 0x0 DUP2 MSTORE PUSH1 0x20 ADD PUSH1 0x0 DUP2 MSTORE PUSH1 0x20 ADD PUSH1 0x60 DUP2 MSTORE PUSH1 0x20 ADD PUSH1 0x60 DUP2 MSTORE PUSH1 0x20 ADD PUSH1 0x60 DUP2 MSTORE PUSH1 0x20 ADD PUSH1 0x60 DUP2 MSTORE PUSH1 0x20 ADD PUSH1 0x60 DUP2 MSTORE PUSH1 0x20 ADD PUSH1 0x60 DUP2 MSTORE PUSH1 0x20 ADD PUSH1 0x60 DUP2 MSTORE PUSH1 0x20 ADD PUSH1 0x60 DUP2 MSTORE PUSH1 0x20 ADD PUSH1 0x60 DUP2 MSTORE PUSH1 0x20 ADD PUSH1 0x60 DUP2 MSTORE PUSH1 0x20 ADD PUSH1 0x0 PUSH1 0x1 PUSH1 0x1 PUSH1 0xA0 SHL SUB AND DUP2 MSTORE PUSH1 0x20 ADD PUSH1 0x0 DUP2 MSTORE PUSH1 0x20 ADD PUSH1 0x0 DUP2 MSTORE PUSH1 0x20 ADD PUSH1 0x0 DUP2 MSTORE PUSH1 0x20 ADD PUSH1 0x0 DUP2 MSTORE PUSH1 0x20 ADD PUSH1 0x0 DUP2 MSTORE PUSH1 0x20 ADD PUSH1 0x0 DUP2 MSTORE PUSH1 0x20 ADD PUSH1 0x0 DUP2 MSTORE PUSH1 0x20 ADD PUSH1 0x0 DUP2 MSTORE PUSH1 0x20 ADD PUSH1 0x0 DUP2 MSTORE PUSH1 0x20 ADD PUSH1 0x0 ISZERO ISZERO DUP2 MSTORE POP SWAP1 JUMP JUMPDEST DUP3 DUP1 SLOAD PUSH2 0x45E2 SWAP1 PUSH2 0x53AF JUMP JUMPDEST SWAP1 PUSH1 0x0 MSTORE PUSH1 0x20 PUSH1 0x0 KECCAK256 SWAP1 PUSH1 0x1F ADD PUSH1 0x20 SWAP1 DIV DUP2 ADD SWAP3 DUP3 PUSH2 0x4604 JUMPI PUSH1 0x0 DUP6 SSTORE PUSH2 0x464A JUMP JUMPDEST DUP3 PUSH1 0x1F LT PUSH2 0x461D JUMPI DUP1 MLOAD PUSH1 0xFF NOT AND DUP4 DUP1 ADD OR DUP6 SSTORE PUSH2 0x464A JUMP JUMPDEST DUP3 DUP1 ADD PUSH1 0x1 ADD DUP6 SSTORE DUP3 ISZERO PUSH2 0x464A JUMPI SWAP2 DUP3 ADD JUMPDEST DUP3 DUP2 GT ISZERO PUSH2 0x464A JUMPI DUP3 MLOAD DUP3 SSTORE SWAP2 PUSH1 0x20 ADD SWAP2 SWAP1 PUSH1 0x1 ADD SWAP1 PUSH2 0x462F JUMP JUMPDEST POP PUSH2 0x4656 SWAP3 SWAP2 POP PUSH2 0x465A JUMP JUMPDEST POP SWAP1 JUMP JUMPDEST JUMPDEST DUP1 DUP3 GT ISZERO PUSH2 0x4656 JUMPI PUSH1 0x0 DUP2 SSTORE PUSH1 0x1 ADD PUSH2 0x465B JUMP JUMPDEST DUP1 CALLDATALOAD PUSH2 0x467A DUP2 PUSH2 0x545D JUMP JUMPDEST SWAP2 SWAP1 POP JUMP JUMPDEST PUSH1 0x0 DUP3 PUSH1 0x1F DUP4 ADD SLT PUSH2 0x4690 JUMPI PUSH1 0x0 DUP1 REVERT JUMPDEST DUP2 CALLDATALOAD PUSH1 0x1 PUSH1 0x1 PUSH1 0x40 SHL SUB DUP2 GT ISZERO PUSH2 0x46A9 JUMPI PUSH2 0x46A9 PUSH2 0x5447 JUMP JUMPDEST PUSH2 0x46BC PUSH1 0x1F DUP3 ADD PUSH1 0x1F NOT AND PUSH1 0x20 ADD PUSH2 0x51F8 JUMP JUMPDEST DUP2 DUP2 MSTORE DUP5 PUSH1 0x20 DUP4 DUP7 ADD ADD GT ISZERO PUSH2 0x46D1 JUMPI PUSH1 0x0 DUP1 REVERT JUMPDEST DUP2 PUSH1 0x20 DUP6 ADD PUSH1 0x20 DUP4 ADD CALLDATACOPY PUSH1 0x0 SWAP2 DUP2 ADD PUSH1 0x20 ADD SWAP2 SWAP1 SWAP2 MSTORE SWAP4 SWAP3 POP POP POP JUMP JUMPDEST PUSH1 0x0 PUSH1 0x60 DUP3 DUP5 SUB SLT ISZERO PUSH2 0x4700 JUMPI PUSH1 0x0 DUP1 REVERT JUMPDEST PUSH1 0x40 MLOAD PUSH1 0x60 DUP2 ADD DUP2 DUP2 LT PUSH1 0x1 PUSH1 0x1 PUSH1 0x40 SHL SUB DUP3 GT OR ISZERO PUSH2 0x4722 JUMPI PUSH2 0x4722 PUSH2 0x5447 JUMP JUMPDEST DUP1 PUSH1 0x40 MSTORE POP DUP1 SWAP2 POP DUP3 CALLDATALOAD DUP2 MSTORE PUSH1 0x20 DUP4 ADD CALLDATALOAD PUSH1 0x20 DUP3 ADD MSTORE PUSH1 0x40 DUP4 ADD CALLDATALOAD PUSH1 0x40 DUP3 ADD MSTORE POP SWAP3 SWAP2 POP POP JUMP JUMPDEST PUSH1 0x0 PUSH1 0xC0 DUP3 DUP5 SUB SLT ISZERO PUSH2 0x475B JUMPI PUSH1 0x0 DUP1 REVERT JUMPDEST PUSH1 0x40 MLOAD PUSH1 0xC0 DUP2 ADD DUP2 DUP2 LT PUSH1 0x1 PUSH1 0x1 PUSH1 0x40 SHL SUB DUP3 GT OR ISZERO PUSH2 0x477D JUMPI PUSH2 0x477D PUSH2 0x5447 JUMP JUMPDEST PUSH1 0x40 MSTORE SWAP1 POP DUP1 DUP3 CALLDATALOAD PUSH2 0x478E DUP2 PUSH2 0x5472 JUMP JUMPDEST DUP2 MSTORE PUSH1 0x20 DUP4 ADD CALLDATALOAD PUSH2 0x479E DUP2 PUSH2 0x545D JUMP JUMPDEST PUSH1 0x20 DUP3 ADD MSTORE PUSH1 0x40 DUP4 ADD CALLDATALOAD PUSH2 0x47B1 DUP2 PUSH2 0x545D JUMP JUMPDEST DUP1 PUSH1 0x40 DUP4 ADD MSTORE POP PUSH1 0x60 DUP4 ADD CALLDATALOAD PUSH1 0x60 DUP3 ADD MSTORE PUSH1 0x80 DUP4 ADD CALLDATALOAD PUSH1 0x80 DUP3 ADD MSTORE PUSH1 0xA0 DUP4 ADD CALLDATALOAD PUSH1 0xA0 DUP3 ADD MSTORE POP SWAP3 SWAP2 POP POP JUMP JUMPDEST PUSH1 0x0 PUSH1 0x40 DUP3 DUP5 SUB SLT ISZERO PUSH2 0x47EF JUMPI PUSH1 0x0 DUP1 REVERT JUMPDEST PUSH1 0x40 MLOAD PUSH1 0x40 DUP2 ADD DUP2 DUP2 LT PUSH1 0x1 PUSH1 0x1 PUSH1 0x40 SHL SUB DUP3 GT OR ISZERO PUSH2 0x4811 JUMPI PUSH2 0x4811 PUSH2 0x5447 JUMP JUMPDEST PUSH1 0x40 MSTORE DUP3 CALLDATALOAD DUP2 MSTORE PUSH1 0x20 SWAP3 DUP4 ADD CALLDATALOAD SWAP3 DUP2 ADD SWAP3 SWAP1 SWAP3 MSTORE POP SWAP2 SWAP1 POP JUMP JUMPDEST PUSH1 0x0 PUSH1 0x80 DUP3 DUP5 SUB SLT ISZERO PUSH2 0x483D JUMPI PUSH1 0x0 DUP1 REVERT JUMPDEST PUSH1 0x40 MLOAD PUSH1 0x80 DUP2 ADD DUP2 DUP2 LT PUSH1 0x1 PUSH1 0x1 PUSH1 0x40 SHL SUB DUP3 GT OR ISZERO PUSH2 0x485F JUMPI PUSH2 0x485F PUSH2 0x5447 JUMP JUMPDEST PUSH1 0x40 MSTORE SWAP1 POP DUP1 DUP3 CALLDATALOAD PUSH2 0x4870 DUP2 PUSH2 0x545D JUMP JUMPDEST DUP2 MSTORE PUSH1 0x20 DUP4 ADD CALLDATALOAD PUSH2 0x4880 DUP2 PUSH2 0x545D JUMP JUMPDEST PUSH1 0x20 DUP3 ADD MSTORE PUSH1 0x40 DUP4 ADD CALLDATALOAD PUSH2 0x4893 DUP2 PUSH2 0x545D JUMP JUMPDEST PUSH1 0x40 DUP3 ADD MSTORE PUSH1 0x60 DUP4 ADD CALLDATALOAD PUSH2 0x48A6 DUP2 PUSH2 0x545D JUMP JUMPDEST PUSH1 0x60 SWAP2 SWAP1 SWAP2 ADD MSTORE SWAP3 SWAP2 POP POP JUMP JUMPDEST PUSH1 0x0 PUSH2 0x140 DUP3 DUP5 SUB SLT ISZERO PUSH2 0x48C6 JUMPI PUSH1 0x0 DUP1 REVERT JUMPDEST PUSH2 0x48CE PUSH2 0x51AC JUMP JUMPDEST SWAP1 POP DUP2 CALLDATALOAD PUSH1 0x1 PUSH1 0x1 PUSH1 0x40 SHL SUB DUP1 DUP3 GT ISZERO PUSH2 0x48E7 JUMPI PUSH1 0x0 DUP1 REVERT JUMPDEST PUSH2 0x48F3 DUP6 DUP4 DUP7 ADD PUSH2 0x467F JUMP JUMPDEST DUP4 MSTORE PUSH1 0x20 DUP5 ADD CALLDATALOAD SWAP2 POP DUP1 DUP3 GT ISZERO PUSH2 0x4909 JUMPI PUSH1 0x0 DUP1 REVERT JUMPDEST PUSH2 0x4915 DUP6 DUP4 DUP7 ADD PUSH2 0x467F JUMP JUMPDEST PUSH1 0x20 DUP5 ADD MSTORE PUSH1 0x40 DUP5 ADD CALLDATALOAD SWAP2 POP DUP1 DUP3 GT ISZERO PUSH2 0x492E JUMPI PUSH1 0x0 DUP1 REVERT JUMPDEST PUSH2 0x493A DUP6 DUP4 DUP7 ADD PUSH2 0x467F JUMP JUMPDEST PUSH1 0x40 DUP5 ADD MSTORE PUSH1 0x60 DUP5 ADD CALLDATALOAD SWAP2 POP DUP1 DUP3 GT ISZERO PUSH2 0x4953 JUMPI PUSH1 0x0 DUP1 REVERT JUMPDEST PUSH2 0x495F DUP6 DUP4 DUP7 ADD PUSH2 0x467F JUMP JUMPDEST PUSH1 0x60 DUP5 ADD MSTORE PUSH1 0x80 DUP5 ADD CALLDATALOAD SWAP2 POP DUP1 DUP3 GT ISZERO PUSH2 0x4978 JUMPI PUSH1 0x0 DUP1 REVERT JUMPDEST PUSH2 0x4984 DUP6 DUP4 DUP7 ADD PUSH2 0x467F JUMP JUMPDEST PUSH1 0x80 DUP5 ADD MSTORE PUSH1 0xA0 DUP5 ADD CALLDATALOAD SWAP2 POP DUP1 DUP3 GT ISZERO PUSH2 0x499D JUMPI PUSH1 0x0 DUP1 REVERT JUMPDEST PUSH2 0x49A9 DUP6 DUP4 DUP7 ADD PUSH2 0x467F JUMP JUMPDEST PUSH1 0xA0 DUP5 ADD MSTORE PUSH1 0xC0 DUP5 ADD CALLDATALOAD SWAP2 POP DUP1 DUP3 GT ISZERO PUSH2 0x49C2 JUMPI PUSH1 0x0 DUP1 REVERT JUMPDEST PUSH2 0x49CE DUP6 DUP4 DUP7 ADD PUSH2 0x467F JUMP JUMPDEST PUSH1 0xC0 DUP5 ADD MSTORE PUSH1 0xE0 DUP5 ADD CALLDATALOAD SWAP2 POP DUP1 DUP3 GT ISZERO PUSH2 0x49E7 JUMPI PUSH1 0x0 DUP1 REVERT JUMPDEST PUSH2 0x49F3 DUP6 DUP4 DUP7 ADD PUSH2 0x467F JUMP JUMPDEST PUSH1 0xE0 DUP5 ADD MSTORE PUSH2 0x100 SWAP2 POP DUP2 DUP5 ADD CALLDATALOAD DUP2 DUP2 GT ISZERO PUSH2 0x4A0E JUMPI PUSH1 0x0 DUP1 REVERT JUMPDEST PUSH2 0x4A1A DUP7 DUP3 DUP8 ADD PUSH2 0x467F JUMP JUMPDEST DUP4 DUP6 ADD MSTORE POP PUSH2 0x120 SWAP2 POP DUP2 DUP5 ADD CALLDATALOAD DUP2 DUP2 GT ISZERO PUSH2 0x4A35 JUMPI PUSH1 0x0 DUP1 REVERT JUMPDEST PUSH2 0x4A41 DUP7 DUP3 DUP8 ADD PUSH2 0x467F JUMP JUMPDEST DUP4 DUP6 ADD MSTORE POP POP POP SWAP3 SWAP2 POP POP JUMP JUMPDEST PUSH1 0x0 PUSH1 0x20 DUP3 DUP5 SUB SLT ISZERO PUSH2 0x4A60 JUMPI PUSH1 0x0 DUP1 REVERT JUMPDEST DUP2 CALLDATALOAD PUSH2 0x2D9B DUP2 PUSH2 0x545D JUMP JUMPDEST PUSH1 0x0 PUSH1 0x20 DUP3 DUP5 SUB SLT ISZERO PUSH2 0x4A7D JUMPI PUSH1 0x0 DUP1 REVERT JUMPDEST DUP2 MLOAD PUSH2 0x2D9B DUP2 PUSH2 0x545D JUMP JUMPDEST PUSH1 0x0 DUP1 PUSH1 0x40 DUP4 DUP6 SUB SLT ISZERO PUSH2 0x4A9B JUMPI PUSH1 0x0 DUP1 REVERT JUMPDEST DUP3 CALLDATALOAD PUSH2 0x4AA6 DUP2 PUSH2 0x545D JUMP JUMPDEST SWAP2 POP PUSH1 0x20 DUP4 ADD CALLDATALOAD PUSH2 0x4AB6 DUP2 PUSH2 0x545D JUMP JUMPDEST DUP1 SWAP2 POP POP SWAP3 POP SWAP3 SWAP1 POP JUMP JUMPDEST PUSH1 0x0 DUP1 PUSH1 0x40 DUP4 DUP6 SUB SLT ISZERO PUSH2 0x4AD4 JUMPI PUSH1 0x0 DUP1 REVERT JUMPDEST DUP3 CALLDATALOAD PUSH2 0x4ADF DUP2 PUSH2 0x545D JUMP JUMPDEST SWAP5 PUSH1 0x20 SWAP4 SWAP1 SWAP4 ADD CALLDATALOAD SWAP4 POP POP POP JUMP JUMPDEST PUSH1 0x0 PUSH1 0x20 DUP1 DUP4 DUP6 SUB SLT ISZERO PUSH2 0x4B00 JUMPI PUSH1 0x0 DUP1 REVERT JUMPDEST DUP3 CALLDATALOAD PUSH1 0x1 PUSH1 0x1 PUSH1 0x40 SHL SUB DUP1 DUP3 GT ISZERO PUSH2 0x4B17 JUMPI PUSH1 0x0 DUP1 REVERT JUMPDEST DUP2 DUP6 ADD SWAP2 POP DUP6 PUSH1 0x1F DUP4 ADD SLT PUSH2 0x4B2B JUMPI PUSH1 0x0 DUP1 REVERT JUMPDEST DUP2 CALLDATALOAD DUP2 DUP2 GT ISZERO PUSH2 0x4B3D JUMPI PUSH2 0x4B3D PUSH2 0x5447 JUMP JUMPDEST DUP1 PUSH1 0x5 SHL SWAP2 POP PUSH2 0x4B4E DUP5 DUP4 ADD PUSH2 0x51F8 JUMP JUMPDEST DUP2 DUP2 MSTORE DUP5 DUP2 ADD SWAP1 DUP5 DUP7 ADD DUP5 DUP7 ADD DUP8 ADD DUP11 LT ISZERO PUSH2 0x4B69 JUMPI PUSH1 0x0 DUP1 REVERT JUMPDEST PUSH1 0x0 SWAP6 POP JUMPDEST DUP4 DUP7 LT ISZERO PUSH2 0x4B98 JUMPI DUP1 CALLDATALOAD SWAP5 POP PUSH2 0x4B83 DUP6 PUSH2 0x545D JUMP JUMPDEST DUP5 DUP4 MSTORE PUSH1 0x1 SWAP6 SWAP1 SWAP6 ADD SWAP5 SWAP2 DUP7 ADD SWAP2 DUP7 ADD PUSH2 0x4B6E JUMP JUMPDEST POP SWAP9 SWAP8 POP POP POP POP POP POP POP POP JUMP JUMPDEST PUSH1 0x0 PUSH1 0x20 DUP3 DUP5 SUB SLT ISZERO PUSH2 0x4BB7 JUMPI PUSH1 0x0 DUP1 REVERT JUMPDEST DUP2 MLOAD PUSH2 0x2D9B DUP2 PUSH2 0x5472 JUMP JUMPDEST PUSH1 0x0 DUP1 PUSH1 0x0 DUP1 PUSH1 0x0 DUP1 PUSH1 0x0 DUP1 DUP9 DUP11 SUB PUSH2 0x3A0 DUP2 SLT ISZERO PUSH2 0x4BE0 JUMPI PUSH1 0x0 DUP1 REVERT JUMPDEST PUSH2 0x160 DUP1 DUP3 SLT ISZERO PUSH2 0x4BF0 JUMPI PUSH1 0x0 DUP1 REVERT JUMPDEST PUSH2 0x4BF8 PUSH2 0x51D5 JUMP JUMPDEST SWAP2 POP PUSH2 0x4C03 DUP12 PUSH2 0x466F JUMP JUMPDEST DUP3 MSTORE PUSH2 0x4C11 PUSH1 0x20 DUP13 ADD PUSH2 0x466F JUMP JUMPDEST PUSH1 0x20 DUP4 ADD MSTORE PUSH1 0x40 DUP12 ADD CALLDATALOAD PUSH1 0x40 DUP4 ADD MSTORE PUSH1 0x60 DUP12 ADD CALLDATALOAD PUSH1 0x60 DUP4 ADD MSTORE PUSH1 0x80 DUP12 ADD CALLDATALOAD PUSH1 0x80 DUP4 ADD MSTORE PUSH1 0xA0 DUP12 ADD CALLDATALOAD PUSH1 0xA0 DUP4 ADD MSTORE PUSH1 0xC0 DUP12 ADD CALLDATALOAD PUSH1 0xC0 DUP4 ADD MSTORE PUSH1 0xE0 DUP12 ADD CALLDATALOAD PUSH1 0xE0 DUP4 ADD MSTORE PUSH2 0x100 DUP1 DUP13 ADD CALLDATALOAD DUP2 DUP5 ADD MSTORE POP PUSH2 0x120 DUP1 DUP13 ADD CALLDATALOAD DUP2 DUP5 ADD MSTORE POP PUSH2 0x140 DUP1 DUP13 ADD CALLDATALOAD DUP2 DUP5 ADD MSTORE POP DUP2 SWAP10 POP PUSH2 0x4C85 DUP13 DUP3 DUP14 ADD PUSH2 0x46EE JUMP JUMPDEST SWAP9 POP POP POP PUSH2 0x4C97 DUP11 PUSH2 0x1C0 DUP12 ADD PUSH2 0x4749 JUMP JUMPDEST SWAP6 POP PUSH2 0x4CA7 DUP11 PUSH2 0x280 DUP12 ADD PUSH2 0x47DD JUMP JUMPDEST SWAP5 POP PUSH2 0x4CB7 DUP11 PUSH2 0x2C0 DUP12 ADD PUSH2 0x482B JUMP JUMPDEST SWAP4 POP PUSH2 0x340 DUP10 ADD CALLDATALOAD PUSH1 0x1 PUSH1 0x1 PUSH1 0x40 SHL SUB DUP2 GT ISZERO PUSH2 0x4CD3 JUMPI PUSH1 0x0 DUP1 REVERT JUMPDEST PUSH2 0x4CDF DUP12 DUP3 DUP13 ADD PUSH2 0x48B3 JUMP JUMPDEST SWAP4 POP POP PUSH2 0x360 DUP10 ADD CALLDATALOAD SWAP2 POP PUSH2 0x380 DUP10 ADD CALLDATALOAD SWAP1 POP SWAP3 SWAP6 SWAP9 POP SWAP3 SWAP6 SWAP9 SWAP1 SWAP4 SWAP7 POP JUMP JUMPDEST PUSH1 0x0 PUSH1 0x20 DUP3 DUP5 SUB SLT ISZERO PUSH2 0x4D11 JUMPI PUSH1 0x0 DUP1 REVERT JUMPDEST DUP2 CALLDATALOAD PUSH1 0x1 PUSH1 0x1 PUSH1 0x40 SHL SUB DUP2 GT ISZERO PUSH2 0x4D27 JUMPI PUSH1 0x0 DUP1 REVERT JUMPDEST PUSH2 0x3D0D DUP5 DUP3 DUP6 ADD PUSH2 0x48B3 JUMP JUMPDEST PUSH1 0x0 PUSH1 0x20 DUP3 DUP5 SUB SLT ISZERO PUSH2 0x4D45 JUMPI PUSH1 0x0 DUP1 REVERT JUMPDEST POP CALLDATALOAD SWAP2 SWAP1 POP JUMP JUMPDEST PUSH1 0x0 PUSH1 0x20 DUP3 DUP5 SUB SLT ISZERO PUSH2 0x4D5E JUMPI PUSH1 0x0 DUP1 REVERT JUMPDEST POP MLOAD SWAP2 SWAP1 POP JUMP JUMPDEST PUSH1 0x0 DUP1 PUSH1 0x40 DUP4 DUP6 SUB SLT ISZERO PUSH2 0x4D78 JUMPI PUSH1 0x0 DUP1 REVERT JUMPDEST POP POP DUP1 CALLDATALOAD SWAP3 PUSH1 0x20 SWAP1 SWAP2 ADD CALLDATALOAD SWAP2 POP JUMP JUMPDEST PUSH1 0x0 DUP1 PUSH1 0x0 PUSH1 0x60 DUP5 DUP7 SUB SLT ISZERO PUSH2 0x4D9C JUMPI PUSH1 0x0 DUP1 REVERT JUMPDEST DUP4 MLOAD SWAP3 POP PUSH1 0x20 DUP5 ADD MLOAD SWAP2 POP PUSH1 0x40 DUP5 ADD MLOAD SWAP1 POP SWAP3 POP SWAP3 POP SWAP3 JUMP JUMPDEST PUSH1 0x0 PUSH1 0x20 DUP3 DUP5 SUB SLT ISZERO PUSH2 0x4DC7 JUMPI PUSH1 0x0 DUP1 REVERT JUMPDEST DUP2 MLOAD PUSH1 0xFF DUP2 AND DUP2 EQ PUSH2 0x2D9B JUMPI PUSH1 0x0 DUP1 REVERT JUMPDEST PUSH1 0x0 DUP2 MLOAD DUP1 DUP5 MSTORE PUSH2 0x4DF0 DUP2 PUSH1 0x20 DUP7 ADD PUSH1 0x20 DUP7 ADD PUSH2 0x5383 JUMP JUMPDEST PUSH1 0x1F ADD PUSH1 0x1F NOT AND SWAP3 SWAP1 SWAP3 ADD PUSH1 0x20 ADD SWAP3 SWAP2 POP POP JUMP JUMPDEST PUSH1 0x0 DUP3 MLOAD PUSH2 0x4E16 DUP2 DUP5 PUSH1 0x20 DUP8 ADD PUSH2 0x5383 JUMP JUMPDEST SWAP2 SWAP1 SWAP2 ADD SWAP3 SWAP2 POP POP JUMP JUMPDEST PUSH1 0x20 DUP1 DUP3 MSTORE DUP3 MLOAD DUP3 DUP3 ADD DUP2 SWAP1 MSTORE PUSH1 0x0 SWAP2 SWAP1 DUP5 DUP3 ADD SWAP1 PUSH1 0x40 DUP6 ADD SWAP1 DUP5 JUMPDEST DUP2 DUP2 LT ISZERO PUSH2 0x4E61 JUMPI DUP4 MLOAD PUSH1 0x1 PUSH1 0x1 PUSH1 0xA0 SHL SUB AND DUP4 MSTORE SWAP3 DUP5 ADD SWAP3 SWAP2 DUP5 ADD SWAP2 PUSH1 0x1 ADD PUSH2 0x4E3C JUMP JUMPDEST POP SWAP1 SWAP7 SWAP6 POP POP POP POP POP POP JUMP JUMPDEST PUSH1 0x20 DUP2 MSTORE PUSH1 0x0 PUSH2 0x2D9B PUSH1 0x20 DUP4 ADD DUP5 PUSH2 0x4DD8 JUMP JUMPDEST PUSH1 0x20 DUP1 DUP3 MSTORE PUSH1 0x15 SWAP1 DUP3 ADD MSTORE PUSH21 0x3630BAB731B43830B21D1027B7363C9029BAB832B9 PUSH1 0x59 SHL PUSH1 0x40 DUP3 ADD MSTORE PUSH1 0x60 ADD SWAP1 JUMP JUMPDEST PUSH1 0x20 DUP1 DUP3 MSTORE PUSH1 0x1E SWAP1 DUP3 ADD MSTORE PUSH32 0x6C61756E63687061643A204F6E6C792077686974654C69737455736572730000 PUSH1 0x40 DUP3 ADD MSTORE PUSH1 0x60 ADD SWAP1 JUMP JUMPDEST PUSH1 0x20 DUP1 DUP3 MSTORE PUSH1 0x1D SWAP1 DUP3 ADD MSTORE PUSH32 0x6C61756E63687061643A204E6F7420617661696C61626C6520706F6F6C000000 PUSH1 0x40 DUP3 ADD MSTORE PUSH1 0x60 ADD SWAP1 JUMP JUMPDEST PUSH1 0x20 DUP1 DUP3 MSTORE PUSH1 0x14 SWAP1 DUP3 ADD MSTORE PUSH20 0x6C61756E63687061643A204C5020416464656421 PUSH1 0x60 SHL PUSH1 0x40 DUP3 ADD MSTORE PUSH1 0x60 ADD SWAP1 JUMP JUMPDEST PUSH1 0x20 DUP2 MSTORE DUP2 MLOAD PUSH1 0x20 DUP3 ADD MSTORE PUSH1 0x20 DUP3 ADD MLOAD PUSH1 0x40 DUP3 ADD MSTORE PUSH1 0x40 DUP3 ADD MLOAD PUSH1 0x60 DUP3 ADD MSTORE PUSH1 0x60 DUP3 ADD MLOAD PUSH1 0x80 DUP3 ADD MSTORE PUSH1 0x80 DUP3 ADD MLOAD PUSH1 0xA0 DUP3 ADD MSTORE PUSH1 0xA0 DUP3 ADD MLOAD PUSH1 0xC0 DUP3 ADD MSTORE PUSH1 0xC0 DUP3 ADD MLOAD PUSH1 0xE0 DUP3 ADD MSTORE PUSH1 0x0 PUSH1 0xE0 DUP4 ADD MLOAD PUSH2 0x100 PUSH2 0x4FB0 DUP2 DUP6 ADD DUP4 PUSH1 0x1 PUSH1 0x1 PUSH1 0xA0 SHL SUB AND SWAP1 MSTORE JUMP JUMPDEST DUP5 ADD MLOAD PUSH2 0x120 DUP5 DUP2 ADD SWAP2 SWAP1 SWAP2 MSTORE DUP5 ADD MLOAD PUSH2 0x140 DUP1 DUP6 ADD SWAP2 SWAP1 SWAP2 MSTORE DUP5 ADD MLOAD PUSH2 0x3E0 PUSH2 0x160 DUP1 DUP7 ADD DUP3 SWAP1 MSTORE SWAP2 SWAP3 POP SWAP1 PUSH2 0x4FEB PUSH2 0x400 DUP7 ADD DUP5 PUSH2 0x4DD8 JUMP JUMPDEST SWAP3 POP DUP1 DUP7 ADD MLOAD SWAP1 POP PUSH1 0x1F NOT PUSH2 0x180 DUP2 DUP8 DUP7 SUB ADD DUP2 DUP9 ADD MSTORE PUSH2 0x500C DUP6 DUP5 PUSH2 0x4DD8 JUMP JUMPDEST SWAP5 POP DUP1 DUP9 ADD MLOAD SWAP3 POP POP PUSH2 0x1A0 DUP2 DUP8 DUP7 SUB ADD DUP2 DUP9 ADD MSTORE PUSH2 0x502B DUP6 DUP5 PUSH2 0x4DD8 JUMP JUMPDEST SWAP5 POP DUP1 DUP9 ADD MLOAD SWAP3 POP POP PUSH2 0x1C0 DUP2 DUP8 DUP7 SUB ADD DUP2 DUP9 ADD MSTORE PUSH2 0x504A DUP6 DUP5 PUSH2 0x4DD8 JUMP JUMPDEST SWAP5 POP DUP1 DUP9 ADD MLOAD SWAP3 POP POP PUSH2 0x1E0 DUP2 DUP8 DUP7 SUB ADD DUP2 DUP9 ADD MSTORE PUSH2 0x5069 DUP6 DUP5 PUSH2 0x4DD8 JUMP JUMPDEST SWAP5 POP DUP1 DUP9 ADD MLOAD SWAP3 POP POP PUSH2 0x200 DUP2 DUP8 DUP7 SUB ADD DUP2 DUP9 ADD MSTORE PUSH2 0x5088 DUP6 DUP5 PUSH2 0x4DD8 JUMP JUMPDEST SWAP5 POP DUP1 DUP9 ADD MLOAD SWAP3 POP POP PUSH2 0x220 DUP2 DUP8 DUP7 SUB ADD DUP2 DUP9 ADD MSTORE PUSH2 0x50A7 DUP6 DUP5 PUSH2 0x4DD8 JUMP JUMPDEST SWAP5 POP DUP1 DUP9 ADD MLOAD SWAP3 POP POP PUSH2 0x240 DUP2 DUP8 DUP7 SUB ADD DUP2 DUP9 ADD MSTORE PUSH2 0x50C6 DUP6 DUP5 PUSH2 0x4DD8 JUMP JUMPDEST SWAP5 POP DUP1 DUP9 ADD MLOAD SWAP3 POP POP PUSH2 0x260 DUP2 DUP8 DUP7 SUB ADD DUP2 DUP9 ADD MSTORE PUSH2 0x50E5 DUP6 DUP5 PUSH2 0x4DD8 JUMP JUMPDEST SWAP5 POP DUP1 DUP9 ADD MLOAD SWAP3 POP POP PUSH2 0x280 DUP2 DUP8 DUP7 SUB ADD DUP2 DUP9 ADD MSTORE PUSH2 0x5104 DUP6 DUP5 PUSH2 0x4DD8 JUMP JUMPDEST SWAP5 POP DUP1 DUP9 ADD MLOAD SWAP3 POP POP POP PUSH2 0x2A0 PUSH2 0x5125 DUP2 DUP8 ADD DUP4 PUSH1 0x1 PUSH1 0x1 PUSH1 0xA0 SHL SUB AND SWAP1 MSTORE JUMP JUMPDEST DUP7 ADD MLOAD PUSH2 0x2C0 DUP7 DUP2 ADD SWAP2 SWAP1 SWAP2 MSTORE DUP7 ADD MLOAD PUSH2 0x2E0 DUP1 DUP8 ADD SWAP2 SWAP1 SWAP2 MSTORE DUP7 ADD MLOAD PUSH2 0x300 DUP1 DUP8 ADD SWAP2 SWAP1 SWAP2 MSTORE DUP7 ADD MLOAD PUSH2 0x320 DUP1 DUP8 ADD SWAP2 SWAP1 SWAP2 MSTORE DUP7 ADD MLOAD PUSH2 0x340 DUP1 DUP8 ADD SWAP2 SWAP1 SWAP2 MSTORE DUP7 ADD MLOAD PUSH2 0x360 DUP1 DUP8 ADD SWAP2 SWAP1 SWAP2 MSTORE DUP7 ADD MLOAD PUSH2 0x380 DUP1 DUP8 ADD SWAP2 SWAP1 SWAP2 MSTORE DUP7 ADD MLOAD PUSH2 0x3A0 DUP1 DUP8 ADD SWAP2 SWAP1 SWAP2 MSTORE DUP7 ADD MLOAD PUSH2 0x3C0 DUP1 DUP8 ADD SWAP2 SWAP1 SWAP2 MSTORE SWAP1 SWAP6 ADD MLOAD ISZERO ISZERO SWAP4 ADD SWAP3 SWAP1 SWAP3 MSTORE POP SWAP2 SWAP1 POP JUMP JUMPDEST PUSH1 0x40 MLOAD PUSH2 0x140 DUP2 ADD PUSH1 0x1 PUSH1 0x1 PUSH1 0x40 SHL SUB DUP2 GT DUP3 DUP3 LT OR ISZERO PUSH2 0x51CF JUMPI PUSH2 0x51CF PUSH2 0x5447 JUMP JUMPDEST PUSH1 0x40 MSTORE SWAP1 JUMP JUMPDEST PUSH1 0x40 MLOAD PUSH2 0x160 DUP2 ADD PUSH1 0x1 PUSH1 0x1 PUSH1 0x40 SHL SUB DUP2 GT DUP3 DUP3 LT OR ISZERO PUSH2 0x51CF JUMPI PUSH2 0x51CF PUSH2 0x5447 JUMP JUMPDEST PUSH1 0x40 MLOAD PUSH1 0x1F DUP3 ADD PUSH1 0x1F NOT AND DUP2 ADD PUSH1 0x1 PUSH1 0x1 PUSH1 0x40 SHL SUB DUP2 GT DUP3 DUP3 LT OR ISZERO PUSH2 0x5220 JUMPI PUSH2 0x5220 PUSH2 0x5447 JUMP JUMPDEST PUSH1 0x40 MSTORE SWAP2 SWAP1 POP JUMP JUMPDEST PUSH1 0x0 DUP3 NOT DUP3 GT ISZERO PUSH2 0x523B JUMPI PUSH2 0x523B PUSH2 0x5405 JUMP JUMPDEST POP ADD SWAP1 JUMP JUMPDEST PUSH1 0x0 DUP3 PUSH2 0x525D JUMPI PUSH4 0x4E487B71 PUSH1 0xE0 SHL PUSH1 0x0 MSTORE PUSH1 0x12 PUSH1 0x4 MSTORE PUSH1 0x24 PUSH1 0x0 REVERT JUMPDEST POP DIV SWAP1 JUMP JUMPDEST PUSH1 0x1 DUP2 DUP2 JUMPDEST DUP1 DUP6 GT ISZERO PUSH2 0x529D JUMPI DUP2 PUSH1 0x0 NOT DIV DUP3 GT ISZERO PUSH2 0x5283 JUMPI PUSH2 0x5283 PUSH2 0x5405 JUMP JUMPDEST DUP1 DUP6 AND ISZERO PUSH2 0x5290 JUMPI SWAP2 DUP2 MUL SWAP2 JUMPDEST SWAP4 DUP5 SHR SWAP4 SWAP1 DUP1 MUL SWAP1 PUSH2 0x5267 JUMP JUMPDEST POP SWAP3 POP SWAP3 SWAP1 POP JUMP JUMPDEST PUSH1 0x0 PUSH2 0x2D9B DUP4 DUP4 PUSH1 0x0 DUP3 PUSH2 0x52BB JUMPI POP PUSH1 0x1 PUSH2 0x3ABF JUMP JUMPDEST DUP2 PUSH2 0x52C8 JUMPI POP PUSH1 0x0 PUSH2 0x3ABF JUMP JUMPDEST DUP2 PUSH1 0x1 DUP2 EQ PUSH2 0x52DE JUMPI PUSH1 0x2 DUP2 EQ PUSH2 0x52E8 JUMPI PUSH2 0x5304 JUMP JUMPDEST PUSH1 0x1 SWAP2 POP POP PUSH2 0x3ABF JUMP JUMPDEST PUSH1 0xFF DUP5 GT ISZERO PUSH2 0x52F9 JUMPI PUSH2 0x52F9 PUSH2 0x5405 JUMP JUMPDEST POP POP PUSH1 0x1 DUP3 SHL PUSH2 0x3ABF JUMP JUMPDEST POP PUSH1 0x20 DUP4 LT PUSH2 0x133 DUP4 LT AND PUSH1 0x4E DUP5 LT PUSH1 0xB DUP5 LT AND OR ISZERO PUSH2 0x5327 JUMPI POP DUP2 DUP2 EXP PUSH2 0x3ABF JUMP JUMPDEST PUSH2 0x5331 DUP4 DUP4 PUSH2 0x5262 JUMP JUMPDEST DUP1 PUSH1 0x0 NOT DIV DUP3 GT ISZERO PUSH2 0x5345 JUMPI PUSH2 0x5345 PUSH2 0x5405 JUMP JUMPDEST MUL SWAP4 SWAP3 POP POP POP JUMP JUMPDEST PUSH1 0x0 DUP2 PUSH1 0x0 NOT DIV DUP4 GT DUP3 ISZERO ISZERO AND ISZERO PUSH2 0x5367 JUMPI PUSH2 0x5367 PUSH2 0x5405 JUMP JUMPDEST POP MUL SWAP1 JUMP JUMPDEST PUSH1 0x0 DUP3 DUP3 LT ISZERO PUSH2 0x537E JUMPI PUSH2 0x537E PUSH2 0x5405 JUMP JUMPDEST POP SUB SWAP1 JUMP JUMPDEST PUSH1 0x0 JUMPDEST DUP4 DUP2 LT ISZERO PUSH2 0x539E JUMPI DUP2 DUP2 ADD MLOAD DUP4 DUP3 ADD MSTORE PUSH1 0x20 ADD PUSH2 0x5386 JUMP JUMPDEST DUP4 DUP2 GT ISZERO PUSH2 0x2A3B JUMPI POP POP PUSH1 0x0 SWAP2 ADD MSTORE JUMP JUMPDEST PUSH1 0x1 DUP2 DUP2 SHR SWAP1 DUP3 AND DUP1 PUSH2 0x53C3 JUMPI PUSH1 0x7F DUP3 AND SWAP2 POP JUMPDEST PUSH1 0x20 DUP3 LT DUP2 EQ ISZERO PUSH2 0x53E4 JUMPI PUSH4 0x4E487B71 PUSH1 0xE0 SHL PUSH1 0x0 MSTORE PUSH1 0x22 PUSH1 0x4 MSTORE PUSH1 0x24 PUSH1 0x0 REVERT JUMPDEST POP SWAP2 SWAP1 POP JUMP JUMPDEST PUSH1 0x0 PUSH1 0x0 NOT DUP3 EQ ISZERO PUSH2 0x53FE JUMPI PUSH2 0x53FE PUSH2 0x5405 JUMP JUMPDEST POP PUSH1 0x1 ADD SWAP1 JUMP JUMPDEST PUSH4 0x4E487B71 PUSH1 0xE0 SHL PUSH1 0x0 MSTORE PUSH1 0x11 PUSH1 0x4 MSTORE PUSH1 0x24 PUSH1 0x0 REVERT JUMPDEST PUSH4 0x4E487B71 PUSH1 0xE0 SHL PUSH1 0x0 MSTORE PUSH1 0x31 PUSH1 0x4 MSTORE PUSH1 0x24 PUSH1 0x0 REVERT JUMPDEST PUSH4 0x4E487B71 PUSH1 0xE0 SHL PUSH1 0x0 MSTORE PUSH1 0x32 PUSH1 0x4 MSTORE PUSH1 0x24 PUSH1 0x0 REVERT JUMPDEST PUSH4 0x4E487B71 PUSH1 0xE0 SHL PUSH1 0x0 MSTORE PUSH1 0x41 PUSH1 0x4 MSTORE PUSH1 0x24 PUSH1 0x0 REVERT JUMPDEST PUSH1 0x1 PUSH1 0x1 PUSH1 0xA0 SHL SUB DUP2 AND DUP2 EQ PUSH2 0x1FB8 JUMPI PUSH1 0x0 DUP1 REVERT JUMPDEST DUP1 ISZERO ISZERO DUP2 EQ PUSH2 0x1FB8 JUMPI PUSH1 0x0 DUP1 REVERT INVALID LOG2 PUSH5 0x6970667358 0x22 SLT KECCAK256 0x5E 0xB9 CODECOPY PUSH26 0x6E2E0058EB210EA84D7492EBA776F23852515AFC26C729D47149 SWAP10 DIFFICULTY PUSH5 0x736F6C6343 STOP ADDMOD SMOD STOP CALLER "
		},
		"gasEstimates": {
			"creation": {
				"codeDepositCost": "4337200",
				"executionCost": "56346",
				"totalCost": "4393546"
			},
			"external": {
				"ZOOM()": "296",
				"addWhiteListUsers(address[])": "infinite",
				"cancelLaunchpad()": "26753",
				"check()": "infinite",
				"claimCanceledTokens()": "infinite",
				"claimTokens()": "infinite",
				"contribute(uint256)": "infinite",
				"deadAddress()": "2494",
				"description()": "infinite",
				"discordURL()": "infinite",
				"editLaunchpad((string,string,string,string,string,string,string,string,string,string))": "infinite",
				"emergencyWithdrawContribute()": "infinite",
				"emergencyWithdrawPool(address,uint256)": "infinite",
				"endTime()": "2419",
				"facebookURL()": "infinite",
				"factoryAddress()": "2438",
				"feeToken()": "2427",
				"finalizeLaunchpad()": "infinite",
				"firstReleasePercent()": "2438",
				"fundAddress()": "2470",
				"getAllWhiteListBuyers(uint256,uint256)": "infinite",
				"getJoinedUsers()": "infinite",
				"getLaunchpadInfo()": "infinite",
				"getOwnerZoneInfo(address)": "19949",
				"getUserClaimAble(address)": "infinite",
				"getWhiteListBuyersCount()": "2448",
				"githubURL()": "infinite",
				"hardCap()": "2416",
				"icoToken()": "2450",
				"initialize((address,address,uint256,uint256,uint256,uint256,uint256,uint256,uint256,uint256,uint256),(uint256,uint256,uint256),(bool,address,address,uint256,uint256,uint256),(uint256,uint256),(address,address,address,address),(string,string,string,string,string,string,string,string,string,string),uint256,uint256)": "infinite",
				"instagramURL()": "infinite",
				"joinInfos(address)": "9037",
				"launchpadOwner()": "2470",
				"listOfWhiteListUsers()": "infinite",
				"listingPercent()": "2373",
				"listingPrice()": "2373",
				"listingTime()": "2374",
				"logoURL()": "infinite",
				"lpLockId()": "2372",
				"lpLockTime()": "2440",
				"manualListing()": "2421",
				"maxInvest()": "2397",
				"maxLiquidity()": "2396",
				"minInvest()": "2440",
				"pause()": "infinite",
				"paused()": "2427",
				"penaltyFee()": "2418",
				"poolType()": "2374",
				"presaleRate()": "2375",
				"raisedAmount()": "2418",
				"raisedFeePercent()": "2375",
				"raisedTokenFeePercent()": "2396",
				"redditURL()": "infinite",
				"removeWhiteListUsers(address[])": "infinite",
				"removeWhitelistBuyers(address[])": "infinite",
				"routerAddress()": "2494",
				"setClaimTime(uint256)": "24685",
				"setDex(address,address)": "infinite",
				"setFundAddress(address)": "infinite",
				"setPenaltyFeePercent(uint256)": "24757",
				"setWhitelistBuyers(address[])": "infinite",
				"setWhitelistPool(uint256)": "24711",
				"softCap()": "2397",
				"startTime()": "2373",
				"state()": "2352",
				"teamLockId()": "2375",
				"telegramURL()": "infinite",
				"tokenReleaseEachCycle()": "2398",
				"totalSoldTokens()": "2351",
				"twitterURL()": "infinite",
				"unpause()": "infinite",
				"vestingPeriodEachCycle()": "2420",
				"virtualLock()": "2405",
				"websiteURL()": "infinite",
				"whitelistPool()": "2351",
				"withdrawContribute()": "infinite"
			},
			"internal": {
				"_check(address,address,address,address)": "infinite",
				"_getUserClaimAble(struct Launchpad.JoinInfo memory)": "infinite",
				"calculateUserTotalTokens(uint256)": "infinite"
			}
		},
		"methodIdentifiers": {
			"ZOOM()": "58e5bc88",
			"addWhiteListUsers(address[])": "54533282",
			"cancelLaunchpad()": "ba6c0e1e",
			"check()": "919840ad",
			"claimCanceledTokens()": "584f4d41",
			"claimTokens()": "48c54b9d",
			"contribute(uint256)": "c1cbbca7",
			"deadAddress()": "27c8f835",
			"description()": "7284e416",
			"discordURL()": "343fe61b",
			"editLaunchpad((string,string,string,string,string,string,string,string,string,string))": "b7b7ff23",
			"emergencyWithdrawContribute()": "bf9c5d45",
			"emergencyWithdrawPool(address,uint256)": "bc4724e8",
			"endTime()": "3197cbb6",
			"facebookURL()": "9779c479",
			"factoryAddress()": "966dae0e",
			"feeToken()": "647846a5",
			"finalizeLaunchpad()": "ea623239",
			"firstReleasePercent()": "ff09a5b6",
			"fundAddress()": "e82bef29",
			"getAllWhiteListBuyers(uint256,uint256)": "eaf74ac5",
			"getJoinedUsers()": "ae959e71",
			"getLaunchpadInfo()": "27b12bb2",
			"getOwnerZoneInfo(address)": "26009dca",
			"getUserClaimAble(address)": "cf25a442",
			"getWhiteListBuyersCount()": "ba1f332a",
			"githubURL()": "7344070b",
			"hardCap()": "fb86a404",
			"icoToken()": "260c2cec",
			"initialize((address,address,uint256,uint256,uint256,uint256,uint256,uint256,uint256,uint256,uint256),(uint256,uint256,uint256),(bool,address,address,uint256,uint256,uint256),(uint256,uint256),(address,address,address,address),(string,string,string,string,string,string,string,string,string,string),uint256,uint256)": "57801e6f",
			"instagramURL()": "b37d7654",
			"joinInfos(address)": "fb2ceb18",
			"launchpadOwner()": "7f33395b",
			"listOfWhiteListUsers()": "d6b75a05",
			"listingPercent()": "e2d24fb7",
			"listingPrice()": "c78f19f9",
			"listingTime()": "33b14742",
			"logoURL()": "d2ce89e5",
			"lpLockId()": "f86aa92d",
			"lpLockTime()": "a7b12846",
			"manualListing()": "7d1477c6",
			"maxInvest()": "3110235a",
			"maxLiquidity()": "70c0345c",
			"minInvest()": "63fd9e38",
			"pause()": "8456cb59",
			"paused()": "5c975abb",
			"penaltyFee()": "3dc10ad4",
			"poolType()": "b1dd61b6",
			"presaleRate()": "42f39381",
			"raisedAmount()": "c59ee1dc",
			"raisedFeePercent()": "8e5e721f",
			"raisedTokenFeePercent()": "c34f6990",
			"redditURL()": "334b2022",
			"removeWhiteListUsers(address[])": "b96f2120",
			"removeWhitelistBuyers(address[])": "2347d754",
			"routerAddress()": "3268cc56",
			"setClaimTime(uint256)": "421cc337",
			"setDex(address,address)": "a5f8a665",
			"setFundAddress(address)": "85dc3004",
			"setPenaltyFeePercent(uint256)": "0782f8f0",
			"setWhitelistBuyers(address[])": "b773827c",
			"setWhitelistPool(uint256)": "1619c877",
			"softCap()": "906a26e0",
			"startTime()": "78e97925",
			"state()": "c19d93fb",
			"teamLockId()": "2ee88649",
			"telegramURL()": "2e6f130f",
			"tokenReleaseEachCycle()": "18a75e95",
			"totalSoldTokens()": "d7ca9949",
			"twitterURL()": "e7b2c08e",
			"unpause()": "3f4ba83a",
			"vestingPeriodEachCycle()": "1cafeecc",
			"virtualLock()": "640f82f3",
			"websiteURL()": "779f6350",
			"whitelistPool()": "c5b5c1e2",
			"withdrawContribute()": "90d1576d"
		}
	},
	"abi": [
		{
			"inputs": [],
			"stateMutability": "nonpayable",
			"type": "constructor"
		},
		{
			"anonymous": false,
			"inputs": [
				{
					"indexed": true,
					"internalType": "uint256",
					"name": "_saleId",
					"type": "uint256"
				},
				{
					"indexed": true,
					"internalType": "uint256",
					"name": "_quantity",
					"type": "uint256"
				},
				{
					"indexed": true,
					"internalType": "uint256",
					"name": "_price",
					"type": "uint256"
				},
				{
					"indexed": false,
					"internalType": "address",
					"name": "_buyer",
					"type": "address"
				},
				{
					"indexed": false,
					"internalType": "address",
					"name": "_seller",
					"type": "address"
				}
			],
			"name": "Buy",
			"type": "event"
		},
		{
			"anonymous": false,
			"inputs": [
				{
					"indexed": true,
					"internalType": "uint256",
					"name": "_saleId",
					"type": "uint256"
				},
				{
					"indexed": true,
					"internalType": "address",
					"name": "_receiver",
					"type": "address"
				}
			],
			"name": "CancelListed",
			"type": "event"
		},
		{
			"anonymous": false,
			"inputs": [
				{
					"indexed": false,
					"internalType": "address",
					"name": "investor",
					"type": "address"
				},
				{
					"indexed": false,
					"internalType": "uint256",
					"name": "value",
					"type": "uint256"
				},
				{
					"indexed": false,
					"internalType": "uint256",
					"name": "tokens",
					"type": "uint256"
				}
			],
			"name": "Invest",
			"type": "event"
		},
		{
			"anonymous": false,
			"inputs": [
				{
					"indexed": true,
					"internalType": "uint256",
					"name": "_saleId",
					"type": "uint256"
				},
				{
					"indexed": true,
					"internalType": "uint256",
					"name": "_price",
					"type": "uint256"
				},
				{
					"indexed": true,
					"internalType": "uint256",
					"name": "_quantity",
					"type": "uint256"
				},
				{
					"indexed": false,
					"internalType": "address",
					"name": "_owner",
					"type": "address"
				},
				{
					"indexed": false,
					"internalType": "uint256",
					"name": "_tokenId",
					"type": "uint256"
				},
				{
					"indexed": false,
					"internalType": "uint256",
					"name": "status",
					"type": "uint256"
				}
			],
			"name": "List",
			"type": "event"
		},
		{
			"anonymous": false,
			"inputs": [
				{
					"indexed": false,
					"internalType": "address",
					"name": "account",
					"type": "address"
				}
			],
			"name": "Paused",
			"type": "event"
		},
		{
			"anonymous": false,
			"inputs": [
				{
					"indexed": false,
					"internalType": "address",
					"name": "_address",
					"type": "address"
				},
				{
					"indexed": false,
					"internalType": "uint256",
					"name": "tokensClaimed",
					"type": "uint256"
				}
			],
			"name": "TokenClaimed",
			"type": "event"
		},
		{
			"anonymous": false,
			"inputs": [
				{
					"indexed": false,
					"internalType": "address",
					"name": "account",
					"type": "address"
				}
			],
			"name": "Unpaused",
			"type": "event"
		},
		{
			"anonymous": false,
			"inputs": [
				{
					"indexed": true,
					"internalType": "uint256",
					"name": "_saleId",
					"type": "uint256"
				},
				{
					"indexed": true,
					"internalType": "address",
					"name": "_seller",
					"type": "address"
				},
				{
					"indexed": true,
					"internalType": "uint256",
					"name": "_price",
					"type": "uint256"
				}
			],
			"name": "UpdateSalePrice",
			"type": "event"
		},
		{
			"anonymous": false,
			"inputs": [
				{
					"indexed": true,
					"internalType": "uint256",
					"name": "_saleId",
					"type": "uint256"
				},
				{
					"indexed": true,
					"internalType": "address",
					"name": "_seller",
					"type": "address"
				},
				{
					"indexed": true,
					"internalType": "uint256",
					"name": "_quantity",
					"type": "uint256"
				},
				{
					"indexed": false,
					"internalType": "uint256",
					"name": "_status",
					"type": "uint256"
				}
			],
			"name": "UpdateSaleQuantity",
			"type": "event"
		},
		{
			"inputs": [],
			"name": "ZOOM",
			"outputs": [
				{
					"internalType": "uint256",
					"name": "",
					"type": "uint256"
				}
			],
			"stateMutability": "view",
			"type": "function"
		},
		{
			"inputs": [
				{
					"internalType": "address[]",
					"name": "_user",
					"type": "address[]"
				}
			],
			"name": "addWhiteListUsers",
			"outputs": [],
			"stateMutability": "nonpayable",
			"type": "function"
		},
		{
			"inputs": [],
			"name": "cancelLaunchpad",
			"outputs": [],
			"stateMutability": "nonpayable",
			"type": "function"
		},
		{
			"inputs": [],
			"name": "check",
			"outputs": [
				{
					"internalType": "bool",
					"name": "",
					"type": "bool"
				}
			],
			"stateMutability": "view",
			"type": "function"
		},
		{
			"inputs": [],
			"name": "claimCanceledTokens",
			"outputs": [],
			"stateMutability": "nonpayable",
			"type": "function"
		},
		{
			"inputs": [],
			"name": "claimTokens",
			"outputs": [],
			"stateMutability": "nonpayable",
			"type": "function"
		},
		{
			"inputs": [
				{
					"internalType": "uint256",
					"name": "_amount",
					"type": "uint256"
				}
			],
			"name": "contribute",
			"outputs": [],
			"stateMutability": "payable",
			"type": "function"
		},
		{
			"inputs": [],
			"name": "deadAddress",
			"outputs": [
				{
					"internalType": "address",
					"name": "",
					"type": "address"
				}
			],
			"stateMutability": "view",
			"type": "function"
		},
		{
			"inputs": [],
			"name": "description",
			"outputs": [
				{
					"internalType": "string",
					"name": "",
					"type": "string"
				}
			],
			"stateMutability": "view",
			"type": "function"
		},
		{
			"inputs": [],
			"name": "discordURL",
			"outputs": [
				{
					"internalType": "string",
					"name": "",
					"type": "string"
				}
			],
			"stateMutability": "view",
			"type": "function"
		},
		{
			"inputs": [
				{
					"components": [
						{
							"internalType": "string",
							"name": "logoURL",
							"type": "string"
						},
						{
							"internalType": "string",
							"name": "description",
							"type": "string"
						},
						{
							"internalType": "string",
							"name": "websiteURL",
							"type": "string"
						},
						{
							"internalType": "string",
							"name": "facebookURL",
							"type": "string"
						},
						{
							"internalType": "string",
							"name": "twitterURL",
							"type": "string"
						},
						{
							"internalType": "string",
							"name": "githubURL",
							"type": "string"
						},
						{
							"internalType": "string",
							"name": "telegramURL",
							"type": "string"
						},
						{
							"internalType": "string",
							"name": "instagramURL",
							"type": "string"
						},
						{
							"internalType": "string",
							"name": "discordURL",
							"type": "string"
						},
						{
							"internalType": "string",
							"name": "redditURL",
							"type": "string"
						}
					],
					"internalType": "struct LaunchpadStructs.SocialLinks",
					"name": "socialLinks",
					"type": "tuple"
				}
			],
			"name": "editLaunchpad",
			"outputs": [],
			"stateMutability": "nonpayable",
			"type": "function"
		},
		{
			"inputs": [],
			"name": "emergencyWithdrawContribute",
			"outputs": [],
			"stateMutability": "nonpayable",
			"type": "function"
		},
		{
			"inputs": [
				{
					"internalType": "address",
					"name": "_token",
					"type": "address"
				},
				{
					"internalType": "uint256",
					"name": "_amount",
					"type": "uint256"
				}
			],
			"name": "emergencyWithdrawPool",
			"outputs": [],
			"stateMutability": "nonpayable",
			"type": "function"
		},
		{
			"inputs": [],
			"name": "endTime",
			"outputs": [
				{
					"internalType": "uint256",
					"name": "",
					"type": "uint256"
				}
			],
			"stateMutability": "view",
			"type": "function"
		},
		{
			"inputs": [],
			"name": "facebookURL",
			"outputs": [
				{
					"internalType": "string",
					"name": "",
					"type": "string"
				}
			],
			"stateMutability": "view",
			"type": "function"
		},
		{
			"inputs": [],
			"name": "factoryAddress",
			"outputs": [
				{
					"internalType": "address",
					"name": "",
					"type": "address"
				}
			],
			"stateMutability": "view",
			"type": "function"
		},
		{
			"inputs": [],
			"name": "feeToken",
			"outputs": [
				{
					"internalType": "address",
					"name": "",
					"type": "address"
				}
			],
			"stateMutability": "view",
			"type": "function"
		},
		{
			"inputs": [],
			"name": "finalizeLaunchpad",
			"outputs": [],
			"stateMutability": "nonpayable",
			"type": "function"
		},
		{
			"inputs": [],
			"name": "firstReleasePercent",
			"outputs": [
				{
					"internalType": "uint256",
					"name": "",
					"type": "uint256"
				}
			],
			"stateMutability": "view",
			"type": "function"
		},
		{
			"inputs": [],
			"name": "fundAddress",
			"outputs": [
				{
					"internalType": "address payable",
					"name": "",
					"type": "address"
				}
			],
			"stateMutability": "view",
			"type": "function"
		},
		{
			"inputs": [
				{
					"internalType": "uint256",
					"name": "start",
					"type": "uint256"
				},
				{
					"internalType": "uint256",
					"name": "end",
					"type": "uint256"
				}
			],
			"name": "getAllWhiteListBuyers",
			"outputs": [
				{
					"internalType": "address[]",
					"name": "",
					"type": "address[]"
				}
			],
			"stateMutability": "view",
			"type": "function"
		},
		{
			"inputs": [],
			"name": "getJoinedUsers",
			"outputs": [
				{
					"internalType": "address[]",
					"name": "",
					"type": "address[]"
				}
			],
			"stateMutability": "view",
			"type": "function"
		},
		{
			"inputs": [],
			"name": "getLaunchpadInfo",
			"outputs": [
				{
					"components": [
						{
							"internalType": "uint256",
							"name": "softCap",
							"type": "uint256"
						},
						{
							"internalType": "uint256",
							"name": "hardCap",
							"type": "uint256"
						},
						{
							"internalType": "uint256",
							"name": "startTime",
							"type": "uint256"
						},
						{
							"internalType": "uint256",
							"name": "endTime",
							"type": "uint256"
						},
						{
							"internalType": "uint256",
							"name": "state",
							"type": "uint256"
						},
						{
							"internalType": "uint256",
							"name": "raisedAmount",
							"type": "uint256"
						},
						{
							"internalType": "uint256",
							"name": "balance",
							"type": "uint256"
						},
						{
							"internalType": "address",
							"name": "feeToken",
							"type": "address"
						},
						{
							"internalType": "uint256",
							"name": "listingTime",
							"type": "uint256"
						},
						{
							"internalType": "uint256",
							"name": "whitelistPool",
							"type": "uint256"
						},
						{
							"internalType": "string",
							"name": "logoURL",
							"type": "string"
						},
						{
							"internalType": "string",
							"name": "description",
							"type": "string"
						},
						{
							"internalType": "string",
							"name": "websiteURL",
							"type": "string"
						},
						{
							"internalType": "string",
							"name": "facebookURL",
							"type": "string"
						},
						{
							"internalType": "string",
							"name": "twitterURL",
							"type": "string"
						},
						{
							"internalType": "string",
							"name": "githubURL",
							"type": "string"
						},
						{
							"internalType": "string",
							"name": "telegramURL",
							"type": "string"
						},
						{
							"internalType": "string",
							"name": "instagramURL",
							"type": "string"
						},
						{
							"internalType": "string",
							"name": "discordURL",
							"type": "string"
						},
						{
							"internalType": "string",
							"name": "redditURL",
							"type": "string"
						},
						{
							"internalType": "address",
							"name": "icoToken",
							"type": "address"
						},
						{
							"internalType": "uint256",
							"name": "firstReleasePercent",
							"type": "uint256"
						},
						{
							"internalType": "uint256",
							"name": "listingPercent",
							"type": "uint256"
						},
						{
							"internalType": "uint256",
							"name": "listingPrice",
							"type": "uint256"
						},
						{
							"internalType": "uint256",
							"name": "lpLockTime",
							"type": "uint256"
						},
						{
							"internalType": "uint256",
							"name": "maxInvest",
							"type": "uint256"
						},
						{
							"internalType": "uint256",
							"name": "minInvest",
							"type": "uint256"
						},
						{
							"internalType": "uint256",
							"name": "maxLiquidity",
							"type": "uint256"
						},
						{
							"internalType": "uint256",
							"name": "presaleRate",
							"type": "uint256"
						},
						{
							"internalType": "uint256",
							"name": "totalSoldTokens",
							"type": "uint256"
						},
						{
							"internalType": "bool",
							"name": "manualListing",
							"type": "bool"
						}
					],
					"internalType": "struct LaunchpadStructs.LaunchpadReturnInfo",
					"name": "",
					"type": "tuple"
				}
			],
			"stateMutability": "view",
			"type": "function"
		},
		{
			"inputs": [
				{
					"internalType": "address",
					"name": "_user",
					"type": "address"
				}
			],
			"name": "getOwnerZoneInfo",
			"outputs": [
				{
					"components": [
						{
							"internalType": "bool",
							"name": "isOwner",
							"type": "bool"
						},
						{
							"internalType": "uint256",
							"name": "whitelistPool",
							"type": "uint256"
						},
						{
							"internalType": "bool",
							"name": "canFinalize",
							"type": "bool"
						},
						{
							"internalType": "bool",
							"name": "canCancel",
							"type": "bool"
						}
					],
					"internalType": "struct LaunchpadStructs.OwnerZoneInfo",
					"name": "",
					"type": "tuple"
				}
			],
			"stateMutability": "view",
			"type": "function"
		},
		{
			"inputs": [
				{
					"internalType": "address",
					"name": "_sender",
					"type": "address"
				}
			],
			"name": "getUserClaimAble",
			"outputs": [
				{
					"internalType": "uint256",
					"name": "",
					"type": "uint256"
				}
			],
			"stateMutability": "view",
			"type": "function"
		},
		{
			"inputs": [],
			"name": "getWhiteListBuyersCount",
			"outputs": [
				{
					"internalType": "uint256",
					"name": "",
					"type": "uint256"
				}
			],
			"stateMutability": "view",
			"type": "function"
		},
		{
			"inputs": [],
			"name": "githubURL",
			"outputs": [
				{
					"internalType": "string",
					"name": "",
					"type": "string"
				}
			],
			"stateMutability": "view",
			"type": "function"
		},
		{
			"inputs": [],
			"name": "hardCap",
			"outputs": [
				{
					"internalType": "uint256",
					"name": "",
					"type": "uint256"
				}
			],
			"stateMutability": "view",
			"type": "function"
		},
		{
			"inputs": [],
			"name": "icoToken",
			"outputs": [
				{
					"internalType": "contract IVirtualERC20",
					"name": "",
					"type": "address"
				}
			],
			"stateMutability": "view",
			"type": "function"
		},
		{
			"inputs": [
				{
					"components": [
						{
							"internalType": "address",
							"name": "icoToken",
							"type": "address"
						},
						{
							"internalType": "address",
							"name": "feeToken",
							"type": "address"
						},
						{
							"internalType": "uint256",
							"name": "softCap",
							"type": "uint256"
						},
						{
							"internalType": "uint256",
							"name": "hardCap",
							"type": "uint256"
						},
						{
							"internalType": "uint256",
							"name": "presaleRate",
							"type": "uint256"
						},
						{
							"internalType": "uint256",
							"name": "minInvest",
							"type": "uint256"
						},
						{
							"internalType": "uint256",
							"name": "maxInvest",
							"type": "uint256"
						},
						{
							"internalType": "uint256",
							"name": "startTime",
							"type": "uint256"
						},
						{
							"internalType": "uint256",
							"name": "endTime",
							"type": "uint256"
						},
						{
							"internalType": "uint256",
							"name": "whitelistPool",
							"type": "uint256"
						},
						{
							"internalType": "uint256",
							"name": "poolType",
							"type": "uint256"
						}
					],
					"internalType": "struct LaunchpadStructs.LaunchpadInfo",
					"name": "info",
					"type": "tuple"
				},
				{
					"components": [
						{
							"internalType": "uint256",
							"name": "firstReleasePercent",
							"type": "uint256"
						},
						{
							"internalType": "uint256",
							"name": "vestingPeriodEachCycle",
							"type": "uint256"
						},
						{
							"internalType": "uint256",
							"name": "tokenReleaseEachCycle",
							"type": "uint256"
						}
					],
					"internalType": "struct LaunchpadStructs.ClaimInfo",
					"name": "userClaimInfo",
					"type": "tuple"
				},
				{
					"components": [
						{
							"internalType": "bool",
							"name": "manualListing",
							"type": "bool"
						},
						{
							"internalType": "address",
							"name": "routerAddress",
							"type": "address"
						},
						{
							"internalType": "address",
							"name": "factoryAddress",
							"type": "address"
						},
						{
							"internalType": "uint256",
							"name": "listingPrice",
							"type": "uint256"
						},
						{
							"internalType": "uint256",
							"name": "listingPercent",
							"type": "uint256"
						},
						{
							"internalType": "uint256",
							"name": "lpLockTime",
							"type": "uint256"
						}
					],
					"internalType": "struct LaunchpadStructs.DexInfo",
					"name": "dexInfo",
					"type": "tuple"
				},
				{
					"components": [
						{
							"internalType": "uint256",
							"name": "raisedFeePercent",
							"type": "uint256"
						},
						{
							"internalType": "uint256",
							"name": "raisedTokenFeePercent",
							"type": "uint256"
						}
					],
					"internalType": "struct LaunchpadStructs.FeeSystem",
					"name": "feeInfo",
					"type": "tuple"
				},
				{
					"components": [
						{
							"internalType": "address",
							"name": "deployer",
							"type": "address"
						},
						{
							"internalType": "address",
							"name": "superAccount",
							"type": "address"
						},
						{
							"internalType": "address payable",
							"name": "fundAddress",
							"type": "address"
						},
						{
							"internalType": "address",
							"name": "virtualLock",
							"type": "address"
						}
					],
					"internalType": "struct LaunchpadStructs.SettingAccount",
					"name": "settingAccount",
					"type": "tuple"
				},
				{
					"components": [
						{
							"internalType": "string",
							"name": "logoURL",
							"type": "string"
						},
						{
							"internalType": "string",
							"name": "description",
							"type": "string"
						},
						{
							"internalType": "string",
							"name": "websiteURL",
							"type": "string"
						},
						{
							"internalType": "string",
							"name": "facebookURL",
							"type": "string"
						},
						{
							"internalType": "string",
							"name": "twitterURL",
							"type": "string"
						},
						{
							"internalType": "string",
							"name": "githubURL",
							"type": "string"
						},
						{
							"internalType": "string",
							"name": "telegramURL",
							"type": "string"
						},
						{
							"internalType": "string",
							"name": "instagramURL",
							"type": "string"
						},
						{
							"internalType": "string",
							"name": "discordURL",
							"type": "string"
						},
						{
							"internalType": "string",
							"name": "redditURL",
							"type": "string"
						}
					],
					"internalType": "struct LaunchpadStructs.SocialLinks",
					"name": "socialLinks",
					"type": "tuple"
				},
				{
					"internalType": "uint256",
					"name": "_maxLP",
					"type": "uint256"
				},
				{
					"internalType": "uint256",
					"name": "_penaltyFeePercent",
					"type": "uint256"
				}
			],
			"name": "initialize",
			"outputs": [],
			"stateMutability": "nonpayable",
			"type": "function"
		},
		{
			"inputs": [],
			"name": "instagramURL",
			"outputs": [
				{
					"internalType": "string",
					"name": "",
					"type": "string"
				}
			],
			"stateMutability": "view",
			"type": "function"
		},
		{
			"inputs": [
				{
					"internalType": "address",
					"name": "",
					"type": "address"
				}
			],
			"name": "joinInfos",
			"outputs": [
				{
					"internalType": "uint256",
					"name": "totalInvestment",
					"type": "uint256"
				},
				{
					"internalType": "uint256",
					"name": "claimedTokens",
					"type": "uint256"
				},
				{
					"internalType": "uint256",
					"name": "totalTokens",
					"type": "uint256"
				},
				{
					"internalType": "bool",
					"name": "refund",
					"type": "bool"
				}
			],
			"stateMutability": "view",
			"type": "function"
		},
		{
			"inputs": [],
			"name": "launchpadOwner",
			"outputs": [
				{
					"internalType": "address",
					"name": "",
					"type": "address"
				}
			],
			"stateMutability": "view",
			"type": "function"
		},
		{
			"inputs": [],
			"name": "listOfWhiteListUsers",
			"outputs": [
				{
					"internalType": "address[]",
					"name": "",
					"type": "address[]"
				}
			],
			"stateMutability": "view",
			"type": "function"
		},
		{
			"inputs": [],
			"name": "listingPercent",
			"outputs": [
				{
					"internalType": "uint256",
					"name": "",
					"type": "uint256"
				}
			],
			"stateMutability": "view",
			"type": "function"
		},
		{
			"inputs": [],
			"name": "listingPrice",
			"outputs": [
				{
					"internalType": "uint256",
					"name": "",
					"type": "uint256"
				}
			],
			"stateMutability": "view",
			"type": "function"
		},
		{
			"inputs": [],
			"name": "listingTime",
			"outputs": [
				{
					"internalType": "uint256",
					"name": "",
					"type": "uint256"
				}
			],
			"stateMutability": "view",
			"type": "function"
		},
		{
			"inputs": [],
			"name": "logoURL",
			"outputs": [
				{
					"internalType": "string",
					"name": "",
					"type": "string"
				}
			],
			"stateMutability": "view",
			"type": "function"
		},
		{
			"inputs": [],
			"name": "lpLockId",
			"outputs": [
				{
					"internalType": "uint256",
					"name": "",
					"type": "uint256"
				}
			],
			"stateMutability": "view",
			"type": "function"
		},
		{
			"inputs": [],
			"name": "lpLockTime",
			"outputs": [
				{
					"internalType": "uint256",
					"name": "",
					"type": "uint256"
				}
			],
			"stateMutability": "view",
			"type": "function"
		},
		{
			"inputs": [],
			"name": "manualListing",
			"outputs": [
				{
					"internalType": "bool",
					"name": "",
					"type": "bool"
				}
			],
			"stateMutability": "view",
			"type": "function"
		},
		{
			"inputs": [],
			"name": "maxInvest",
			"outputs": [
				{
					"internalType": "uint256",
					"name": "",
					"type": "uint256"
				}
			],
			"stateMutability": "view",
			"type": "function"
		},
		{
			"inputs": [],
			"name": "maxLiquidity",
			"outputs": [
				{
					"internalType": "uint256",
					"name": "",
					"type": "uint256"
				}
			],
			"stateMutability": "view",
			"type": "function"
		},
		{
			"inputs": [],
			"name": "minInvest",
			"outputs": [
				{
					"internalType": "uint256",
					"name": "",
					"type": "uint256"
				}
			],
			"stateMutability": "view",
			"type": "function"
		},
		{
			"inputs": [],
			"name": "pause",
			"outputs": [],
			"stateMutability": "nonpayable",
			"type": "function"
		},
		{
			"inputs": [],
			"name": "paused",
			"outputs": [
				{
					"internalType": "bool",
					"name": "",
					"type": "bool"
				}
			],
			"stateMutability": "view",
			"type": "function"
		},
		{
			"inputs": [],
			"name": "penaltyFee",
			"outputs": [
				{
					"internalType": "uint256",
					"name": "",
					"type": "uint256"
				}
			],
			"stateMutability": "view",
			"type": "function"
		},
		{
			"inputs": [],
			"name": "poolType",
			"outputs": [
				{
					"internalType": "uint256",
					"name": "",
					"type": "uint256"
				}
			],
			"stateMutability": "view",
			"type": "function"
		},
		{
			"inputs": [],
			"name": "presaleRate",
			"outputs": [
				{
					"internalType": "uint256",
					"name": "",
					"type": "uint256"
				}
			],
			"stateMutability": "view",
			"type": "function"
		},
		{
			"inputs": [],
			"name": "raisedAmount",
			"outputs": [
				{
					"internalType": "uint256",
					"name": "",
					"type": "uint256"
				}
			],
			"stateMutability": "view",
			"type": "function"
		},
		{
			"inputs": [],
			"name": "raisedFeePercent",
			"outputs": [
				{
					"internalType": "uint256",
					"name": "",
					"type": "uint256"
				}
			],
			"stateMutability": "view",
			"type": "function"
		},
		{
			"inputs": [],
			"name": "raisedTokenFeePercent",
			"outputs": [
				{
					"internalType": "uint256",
					"name": "",
					"type": "uint256"
				}
			],
			"stateMutability": "view",
			"type": "function"
		},
		{
			"inputs": [],
			"name": "redditURL",
			"outputs": [
				{
					"internalType": "string",
					"name": "",
					"type": "string"
				}
			],
			"stateMutability": "view",
			"type": "function"
		},
		{
			"inputs": [
				{
					"internalType": "address[]",
					"name": "_user",
					"type": "address[]"
				}
			],
			"name": "removeWhiteListUsers",
			"outputs": [],
			"stateMutability": "nonpayable",
			"type": "function"
		},
		{
			"inputs": [
				{
					"internalType": "address[]",
					"name": "_buyers",
					"type": "address[]"
				}
			],
			"name": "removeWhitelistBuyers",
			"outputs": [],
			"stateMutability": "nonpayable",
			"type": "function"
		},
		{
			"inputs": [],
			"name": "routerAddress",
			"outputs": [
				{
					"internalType": "address",
					"name": "",
					"type": "address"
				}
			],
			"stateMutability": "view",
			"type": "function"
		},
		{
			"inputs": [
				{
					"internalType": "uint256",
					"name": "_listingTime",
					"type": "uint256"
				}
			],
			"name": "setClaimTime",
			"outputs": [],
			"stateMutability": "nonpayable",
			"type": "function"
		},
		{
			"inputs": [
				{
					"internalType": "address",
					"name": "_factory",
					"type": "address"
				},
				{
					"internalType": "address",
					"name": "_router",
					"type": "address"
				}
			],
			"name": "setDex",
			"outputs": [],
			"stateMutability": "nonpayable",
			"type": "function"
		},
		{
			"inputs": [
				{
					"internalType": "address payable",
					"name": "_fundAddress",
					"type": "address"
				}
			],
			"name": "setFundAddress",
			"outputs": [],
			"stateMutability": "nonpayable",
			"type": "function"
		},
		{
			"inputs": [
				{
					"internalType": "uint256",
					"name": "_penaltyFee",
					"type": "uint256"
				}
			],
			"name": "setPenaltyFeePercent",
			"outputs": [],
			"stateMutability": "nonpayable",
			"type": "function"
		},
		{
			"inputs": [
				{
					"internalType": "address[]",
					"name": "_buyers",
					"type": "address[]"
				}
			],
			"name": "setWhitelistBuyers",
			"outputs": [],
			"stateMutability": "nonpayable",
			"type": "function"
		},
		{
			"inputs": [
				{
					"internalType": "uint256",
					"name": "_wlPool",
					"type": "uint256"
				}
			],
			"name": "setWhitelistPool",
			"outputs": [],
			"stateMutability": "nonpayable",
			"type": "function"
		},
		{
			"inputs": [],
			"name": "softCap",
			"outputs": [
				{
					"internalType": "uint256",
					"name": "",
					"type": "uint256"
				}
			],
			"stateMutability": "view",
			"type": "function"
		},
		{
			"inputs": [],
			"name": "startTime",
			"outputs": [
				{
					"internalType": "uint256",
					"name": "",
					"type": "uint256"
				}
			],
			"stateMutability": "view",
			"type": "function"
		},
		{
			"inputs": [],
			"name": "state",
			"outputs": [
				{
					"internalType": "uint256",
					"name": "",
					"type": "uint256"
				}
			],
			"stateMutability": "view",
			"type": "function"
		},
		{
			"inputs": [],
			"name": "teamLockId",
			"outputs": [
				{
					"internalType": "uint256",
					"name": "",
					"type": "uint256"
				}
			],
			"stateMutability": "view",
			"type": "function"
		},
		{
			"inputs": [],
			"name": "telegramURL",
			"outputs": [
				{
					"internalType": "string",
					"name": "",
					"type": "string"
				}
			],
			"stateMutability": "view",
			"type": "function"
		},
		{
			"inputs": [],
			"name": "tokenReleaseEachCycle",
			"outputs": [
				{
					"internalType": "uint256",
					"name": "",
					"type": "uint256"
				}
			],
			"stateMutability": "view",
			"type": "function"
		},
		{
			"inputs": [],
			"name": "totalSoldTokens",
			"outputs": [
				{
					"internalType": "uint256",
					"name": "",
					"type": "uint256"
				}
			],
			"stateMutability": "view",
			"type": "function"
		},
		{
			"inputs": [],
			"name": "twitterURL",
			"outputs": [
				{
					"internalType": "string",
					"name": "",
					"type": "string"
				}
			],
			"stateMutability": "view",
			"type": "function"
		},
		{
			"inputs": [],
			"name": "unpause",
			"outputs": [],
			"stateMutability": "nonpayable",
			"type": "function"
		},
		{
			"inputs": [],
			"name": "vestingPeriodEachCycle",
			"outputs": [
				{
					"internalType": "uint256",
					"name": "",
					"type": "uint256"
				}
			],
			"stateMutability": "view",
			"type": "function"
		},
		{
			"inputs": [],
			"name": "virtualLock",
			"outputs": [
				{
					"internalType": "contract IVirtualLock",
					"name": "",
					"type": "address"
				}
			],
			"stateMutability": "view",
			"type": "function"
		},
		{
			"inputs": [],
			"name": "websiteURL",
			"outputs": [
				{
					"internalType": "string",
					"name": "",
					"type": "string"
				}
			],
			"stateMutability": "view",
			"type": "function"
		},
		{
			"inputs": [],
			"name": "whitelistPool",
			"outputs": [
				{
					"internalType": "uint256",
					"name": "",
					"type": "uint256"
				}
			],
			"stateMutability": "view",
			"type": "function"
		},
		{
			"inputs": [],
			"name": "withdrawContribute",
			"outputs": [],
			"stateMutability": "nonpayable",
			"type": "function"
		}
	]
}