{
	"data": {
		"bytecode": {
			"linkReferences": {},
			"object": "60806040526103e8601955600060315534801561001b57600080fd5b506000805460ff1916905561537f806100356000396000f3fe6080604052600436106104475760003560e01c806385dc300411610234578063c19d93fb1161012e578063d7ca9949116100b6578063eaf74ac51161007a578063eaf74ac514610bcc578063f86aa92d14610bec578063fb2ceb1814610c02578063fb86a40414610c69578063ff09a5b614610c7f57600080fd5b8063d7ca994914610b56578063e2d24fb714610b6c578063e7b2c08e14610b82578063e82bef2914610b97578063ea62323914610bb757600080fd5b8063c5b5c1e2116100fd578063c5b5c1e214610ae0578063c78f19f914610af6578063cf25a44214610b0c578063d2ce89e514610b2c578063d6b75a0514610b4157600080fd5b8063c19d93fb14610a8b578063c1cbbca714610aa1578063c34f699014610ab4578063c59ee1dc14610aca57600080fd5b8063ae959e71116101bc578063b96f212011610180578063b96f212014610a0c578063ba1f332a14610a2c578063ba6c0e1e14610a41578063bc4724e814610a56578063bf9c5d4514610a7657600080fd5b8063ae959e711461097f578063b1dd61b6146109a1578063b37d7654146109b7578063b773827c146109cc578063b7b7ff23146109ec57600080fd5b8063919840ad11610203578063919840ad146108fa578063966dae0e1461090f5780639779c47914610934578063a5f8a66514610949578063a7b128461461096957600080fd5b806385dc3004146108995780638e5e721f146108b9578063906a26e0146108cf57806390d1576d146108e557600080fd5b8063421cc33711610345578063640f82f3116102cd578063779f635011610291578063779f63501461081f57806378e97925146108345780637d1477c61461084a5780637f33395b146108645780638456cb591461088457600080fd5b8063640f82f31461079f578063647846a5146107bf57806370c0345c146107df5780637284e416146107f55780637344070b1461080a57600080fd5b806357801e6f1161031457806357801e6f1461071a578063584f4d411461073a57806358e5bc881461074f5780635c975abb1461076557806363fd9e381461078957600080fd5b8063421cc337146106af57806342f39381146106cf57806348c54b9d146106e557806354533282146106fa57600080fd5b80632e6f130f116103d3578063334b202211610397578063334b20221461064457806333b1474214610659578063343fe61b1461066f5780633dc10ad4146106845780633f4ba83a1461069a57600080fd5b80632e6f130f146105c05780632ee88649146105e25780633110235a146105f85780633197cbb61461060e5780633268cc561461062457600080fd5b80632347d7541161041a5780632347d754146104cd57806326009dca146104ed578063260c2cec1461054657806327b12bb21461057e57806327c8f835146105a057600080fd5b80630782f8f01461044c5780631619c8771461046e57806318a75e951461048e5780631cafeecc146104b7575b600080fd5b34801561045857600080fd5b5061046c610467366004614449565b610c95565b005b34801561047a57600080fd5b5061046c610489366004614449565b610cd6565b34801561049a57600080fd5b506104a460155481565b6040519081526020015b60405180910390f35b3480156104c357600080fd5b506104a460145481565b3480156104d957600080fd5b5061046c6104e8366004614519565b610d53565b3480156104f957600080fd5b5061050d6105083660046145ca565b610dca565b6040516104ae91908151151581526020808301519082015260408083015115159082015260609182015115159181019190915260800190565b34801561055257600080fd5b50600854610566906001600160a01b031681565b6040516001600160a01b0390911681526020016104ae565b34801561058a57600080fd5b50610593610e8f565b6040516104ae9190614637565b3480156105ac57600080fd5b50603054610566906001600160a01b031681565b3480156105cc57600080fd5b506105d56115a1565b6040516104ae9190614898565b3480156105ee57600080fd5b506104a4602b5481565b34801561060457600080fd5b506104a4600e5481565b34801561061a57600080fd5b506104a460105481565b34801561063057600080fd5b50601b54610566906001600160a01b031681565b34801561065057600080fd5b506105d561162f565b34801561066557600080fd5b506104a460165481565b34801561067b57600080fd5b506105d561163c565b34801561069057600080fd5b506104a460195481565b3480156106a657600080fd5b5061046c611649565b3480156106bb57600080fd5b5061046c6106ca366004614449565b611682565b3480156106db57600080fd5b506104a4600c5481565b3480156106f157600080fd5b5061046c6116fe565b34801561070657600080fd5b5061046c610715366004614519565b6118bf565b34801561072657600080fd5b5061046c610735366004614c88565b611932565b34801561074657600080fd5b5061046c611e25565b34801561075b57600080fd5b506104a461271081565b34801561077157600080fd5b5060005460ff165b60405190151581526020016104ae565b34801561079557600080fd5b506104a4600d5481565b3480156107ab57600080fd5b50602954610566906001600160a01b031681565b3480156107cb57600080fd5b50600954610566906001600160a01b031681565b3480156107eb57600080fd5b506104a460315481565b34801561080157600080fd5b506105d5611f6a565b34801561081657600080fd5b506105d5611f77565b34801561082b57600080fd5b506105d5611f84565b34801561084057600080fd5b506104a4600f5481565b34801561085657600080fd5b50601a546107799060ff1681565b34801561087057600080fd5b50600754610566906001600160a01b031681565b34801561089057600080fd5b5061046c611f91565b3480156108a557600080fd5b5061046c6108b43660046145ca565b611fc8565b3480156108c557600080fd5b506104a4602c5481565b3480156108db57600080fd5b506104a4600a5481565b3480156108f157600080fd5b5061046c612011565b34801561090657600080fd5b506107796122a0565b34801561091b57600080fd5b50601a546105669061010090046001600160a01b031681565b34801561094057600080fd5b506105d56122d8565b34801561095557600080fd5b5061046c610964366004614dc5565b6122e5565b34801561097557600080fd5b506104a4601e5481565b34801561098b57600080fd5b50610994612344565b6040516104ae9190614dfe565b3480156109ad57600080fd5b506104a460115481565b3480156109c357600080fd5b506105d5612433565b3480156109d857600080fd5b5061046c6109e7366004614519565b612440565b3480156109f857600080fd5b5061046c610a07366004614e4b565b6124b3565b348015610a1857600080fd5b5061046c610a27366004614519565b6125b6565b348015610a3857600080fd5b506104a4612629565b348015610a4d57600080fd5b5061046c612635565b348015610a6257600080fd5b5061046c610a71366004614e7f565b612685565b348015610a8257600080fd5b5061046c612716565b348015610a9757600080fd5b506104a460175481565b61046c610aaf366004614449565b6129db565b348015610ac057600080fd5b506104a4602d5481565b348015610ad657600080fd5b506104a460185481565b348015610aec57600080fd5b506104a460125481565b348015610b0257600080fd5b506104a4601c5481565b348015610b1857600080fd5b506104a4610b273660046145ca565b612ca1565b348015610b3857600080fd5b506105d5612d00565b348015610b4d57600080fd5b50610994612d0d565b348015610b6257600080fd5b506104a4602f5481565b348015610b7857600080fd5b506104a4601d5481565b348015610b8e57600080fd5b506105d5612d19565b348015610ba357600080fd5b50602e54610566906001600160a01b031681565b348015610bc357600080fd5b5061046c612d26565b348015610bd857600080fd5b50610994610be7366004614eab565b61386c565b348015610bf857600080fd5b506104a4602a5481565b348015610c0e57600080fd5b50610c47610c1d3660046145ca565b60326020526000908152604090208054600182015460028301546003909301549192909160ff1684565b60408051948552602085019390935291830152151560608201526080016104ae565b348015610c7557600080fd5b506104a4600b5481565b348015610c8b57600080fd5b506104a460135481565b610ca0600333613981565b610cc55760405162461bcd60e51b8152600401610cbc90614ecd565b60405180910390fd5b610cd0816064614f12565b60195550565b610ce1600133613981565b610cfd5760405162461bcd60e51b8152600401610cbc90614f29565b6001811115610d4e5760405162461bcd60e51b815260206004820152601a60248201527f4c616e63687061643a2073657457686974656c697374506f6f6c0000000000006044820152606401610cbc565b601255565b610d5e600133613981565b610d7a5760405162461bcd60e51b8152600401610cbc90614f29565b60005b8151811015610dc657610db3828281518110610d9b57610d9b614f60565b602002602001015160056139a390919063ffffffff16565b5080610dbe81614f76565b915050610d7d565b5050565b6040805160808101825260008082526020820181905291810182905260608101919091526040805160808101825260008082526020820181905291810182905260608101919091526007546001600160a01b0384811691161480610e2f575092915050565b80151582526012546020830152601754600114606083018190528015610e81575060105442108015610e655750600b5460185410155b80610e8157506010544210158015610e815750600a5460185410155b151560408301525092915050565b610e9761434f565b6008546040516370a0823160e01b81523060048201526000916001600160a01b0316906370a0823190602401602060405180830381865afa158015610ee0573d6000803e3d6000fd5b505050506040513d601f19601f82011682018060405250810190610f049190614f8f565b9050610f0e61434f565b600a548152600b546020820152600f5460408201526010546060820152601754608082015260185460a082015260c081018290526009546001600160a01b031660e0820152601654610100820152601254610120820152601f8054610f7290614fa8565b80601f0160208091040260200160405190810160405280929190818152602001828054610f9e90614fa8565b8015610feb5780601f10610fc057610100808354040283529160200191610feb565b820191906000526020600020905b815481529060010190602001808311610fce57829003601f168201915b50505050508161014001819052506020805461100690614fa8565b80601f016020809104026020016040519081016040528092919081815260200182805461103290614fa8565b801561107f5780601f106110545761010080835404028352916020019161107f565b820191906000526020600020905b81548152906001019060200180831161106257829003601f168201915b50505050508161016001819052506021805461109a90614fa8565b80601f01602080910402602001604051908101604052809291908181526020018280546110c690614fa8565b80156111135780601f106110e857610100808354040283529160200191611113565b820191906000526020600020905b8154815290600101906020018083116110f657829003601f168201915b50505050508161018001819052506022805461112e90614fa8565b80601f016020809104026020016040519081016040528092919081815260200182805461115a90614fa8565b80156111a75780601f1061117c576101008083540402835291602001916111a7565b820191906000526020600020905b81548152906001019060200180831161118a57829003601f168201915b5050505050816101a00181905250602380546111c290614fa8565b80601f01602080910402602001604051908101604052809291908181526020018280546111ee90614fa8565b801561123b5780601f106112105761010080835404028352916020019161123b565b820191906000526020600020905b81548152906001019060200180831161121e57829003601f168201915b5050505050816101c001819052506024805461125690614fa8565b80601f016020809104026020016040519081016040528092919081815260200182805461128290614fa8565b80156112cf5780601f106112a4576101008083540402835291602001916112cf565b820191906000526020600020905b8154815290600101906020018083116112b257829003601f168201915b5050505050816101e00181905250602580546112ea90614fa8565b80601f016020809104026020016040519081016040528092919081815260200182805461131690614fa8565b80156113635780601f1061133857610100808354040283529160200191611363565b820191906000526020600020905b81548152906001019060200180831161134657829003601f168201915b50505050508161020001819052506026805461137e90614fa8565b80601f01602080910402602001604051908101604052809291908181526020018280546113aa90614fa8565b80156113f75780601f106113cc576101008083540402835291602001916113f7565b820191906000526020600020905b8154815290600101906020018083116113da57829003601f168201915b50505050508161022001819052506027805461141290614fa8565b80601f016020809104026020016040519081016040528092919081815260200182805461143e90614fa8565b801561148b5780601f106114605761010080835404028352916020019161148b565b820191906000526020600020905b81548152906001019060200180831161146e57829003601f168201915b5050505050816102400181905250602880546114a690614fa8565b80601f01602080910402602001604051908101604052809291908181526020018280546114d290614fa8565b801561151f5780601f106114f45761010080835404028352916020019161151f565b820191906000526020600020905b81548152906001019060200180831161150257829003601f168201915b50505050506102608201526008546001600160a01b03166102808201526013546102a0820152601d546102c0820152601c546102e0820152601e54610300820152600e54610320820152600d54610340820152603154610360820152600c54610380820152602f546103a0820152601a5460ff1615156103c082015292915050565b602580546115ae90614fa8565b80601f01602080910402602001604051908101604052809291908181526020018280546115da90614fa8565b80156116275780601f106115fc57610100808354040283529160200191611627565b820191906000526020600020905b81548152906001019060200180831161160a57829003601f168201915b505050505081565b602880546115ae90614fa8565b602780546115ae90614fa8565b611654600133613981565b6116705760405162461bcd60e51b8152600401610cbc90614f29565b6116786139b8565b611680613a01565b565b61168d600133613981565b6116a95760405162461bcd60e51b8152600401610cbc90614f29565b60175460021480156116bb5750600081115b6116f95760405162461bcd60e51b815260206004820152600f60248201526e6c61756e63687061643a2054494d4560881b6044820152606401610cbc565b601655565b611706613a53565b33600090815260326020526040902060028101546001820154106117615760405162461bcd60e51b81526020600482015260126024820152711b185d5b98da1c18590e8810db185a5b595960721b6044820152606401610cbc565b6017546002146117b35760405162461bcd60e51b815260206004820152601760248201527f6c61756e63687061643a204e6f742066696e616c697a650000000000000000006044820152606401610cbc565b600381015460ff16156117ff5760405162461bcd60e51b81526020600482015260146024820152736c61756e63687061643a20526566756e6465642160601b6044820152606401610cbc565b604080516080810182528254815260018301546020820152600283015491810191909152600382015460ff161515606082015260009061183e90613a99565b9050600081116118885760405162461bcd60e51b81526020600482015260156024820152743630bab731b43830b21d102d32b937903a37b5b2b760591b6044820152606401610cbc565b600081836001015461189a9190614fe2565b6001840181905590506118ba336008546001600160a01b03169084613bd0565b505050565b6118ca600133613981565b6118e65760405162461bcd60e51b8152600401610cbc90614f29565b60005b8151811015610dc65761191f82828151811061190757611907614f60565b60200260200101516001613c3390919063ffffffff16565b508061192a81614f76565b9150506118e9565b87516001600160a01b031661197c5760405162461bcd60e51b815260206004820152601060248201526f3630bab731b43830b21d102a27a5a2a760811b6044820152606401610cbc565b60008860800151116119c55760405162461bcd60e51b81526020600482015260126024820152716c61756e63687061643a2050524553414c4560701b6044820152606401610cbc565b8760600151886040015110611a0d5760405162461bcd60e51b815260206004820152600e60248201526d06c61756e63687061643a204341560941b6044820152606401610cbc565b8761010001518860e0015110611a575760405162461bcd60e51b815260206004820152600f60248201526e6c61756e63687061643a2054494d4560881b6044820152606401610cbc565b8760c001518860a0015110611aa25760405162461bcd60e51b81526020600482015260116024820152701b185d5b98da1c18590e881253959154d5607a1b6044820152606401610cbc565b61271086608001511115611aed5760405162461bcd60e51b81526020600482015260126024820152716c61756e63687061643a204c495354494e4760701b6044820152606401610cbc565b6040870151875161271091611b0191614fe2565b1115611b445760405162461bcd60e51b81526020600482015260126024820152716c61756e63687061643a2056455354494e4760701b6044820152606401610cbc565b611b608860000151896020015188602001518960400151613c48565b611b7c5760405162461bcd60e51b8152600401610cbc90614ff5565b6030805461dead6001600160a01b031991821617909155603183905588516008805483166001600160a01b039283161790556020808b0151600980549094169216919091179091556040808a0151600a5560608a0151600b5560808a0151600c5560a08a0151600d5560c08a0151600e5560e08a0151600f556101008a01516010556101208a01516012556101408a01516011558851601355908801516014558701516015558551601a805460ff1916911515918217905560ff16611cd057611c578860000151896020015188602001518960400151613c48565b611c735760405162461bcd60e51b8152600401610cbc90614ff5565b6020860151601b80546001600160a01b039283166001600160a01b03199091161790556040870151601a80549190921661010002610100600160a81b03199091161790556060860151601c556080860151601d5560a0860151601e555b8451602c556020850151602d5560198190558251601f90611cf19082615071565b50602080840151611d029082615071565b506040830151602190611d159082615071565b506060830151602290611d289082615071565b506080830151602390611d3b9082615071565b5060a0830151602490611d4e9082615071565b5060c0830151602590611d619082615071565b5060e0830151602690611d749082615071565b50610100830151602790611d889082615071565b50610120830151602890611d9c9082615071565b50600160178190558451611db09190613c33565b506020840151611dc290600190613c33565b506020840151611dd490600390613c33565b505050506040810151602e80546001600160a01b03199081166001600160a01b0393841617909155825160078054831691841691909117905560609092015160298054909316911617905550505050565b611e30600133613981565b611e4c5760405162461bcd60e51b8152600401610cbc90614f29565b601754600314611e965760405162461bcd60e51b81526020600482015260156024820152741b185d5b98da1c18590e88139bdd0818d85b98d95b605a1b6044820152606401610cbc565b6008546040516370a0823160e01b81523060048201526000916001600160a01b0316906370a0823190602401602060405180830381865afa158015611edf573d6000803e3d6000fd5b505050506040513d601f19601f82011682018060405250810190611f039190614f8f565b905060008111611f4a5760405162461bcd60e51b81526020600482015260126024820152711b185d5b98da1c18590e8810db185a5b595960721b6044820152606401610cbc565b8015611f6757611f67336008546001600160a01b03169083613bd0565b50565b602080546115ae90614fa8565b602480546115ae90614fa8565b602180546115ae90614fa8565b611f9c600133613981565b611fb85760405162461bcd60e51b8152600401610cbc90614f29565b611fc0613a53565b611680613e41565b611fd3600333613981565b611fef5760405162461bcd60e51b8152600401610cbc90614ecd565b602e80546001600160a01b0319166001600160a01b0392909216919091179055565b612019613a53565b336000908152603260205260409020601754600314806120485750600a54601854108015612048575060105442115b61205157600080fd5b600381015460ff161561209c5760405162461bcd60e51b81526020600482015260136024820152721b185d5b98da1c18590e881499599d5b991959606a1b6044820152606401610cbc565b80546120e25760405162461bcd60e51b81526020600482015260156024820152741b185d5b98da1c18590e88139bdd08125b9d995cdd605a1b6044820152606401610cbc565b805460038201805460ff19166001179055600060028301819055825560185461210c908290615130565b6018556002820154602f546121219190615130565b602f55612131335b6033906139a3565b506009546001600160a01b03166121cc57600047116121925760405162461bcd60e51b815260206004820152601b60248201527f6c61756e63687061643a20496e73756666696369656e7420626c6300000000006044820152606401610cbc565b335b6001600160a01b03166108fc829081150290604051600060405180830381858888f193505050501580156118ba573d6000803e3d6000fd5b6009546040516370a0823160e01b81523060048201526001600160a01b0390911690829082906370a0823190602401602060405180830381865afa158015612218573d6000803e3d6000fd5b505050506040513d601f19601f8201168201806040525081019061223c9190614f8f565b101561228a5760405162461bcd60e51b815260206004820152601f60248201527f6c61756e63687061643a20496e73756666696369656e742042616c616e6365006044820152606401610cbc565b6118ba335b6001600160a01b0383169084613bd0565b600854600954601b54601a546000936122d3936001600160a01b0391821693908216929082169161010090910416613c48565b905090565b602280546115ae90614fa8565b6122f0600333613981565b61230c5760405162461bcd60e51b8152600401610cbc90614ecd565b601a8054610100600160a81b0319166101006001600160a01b0394851602179055601b80546001600160a01b03191691909216179055565b60606000806123536033613e7e565b905080600003612373575050604080516000815260208101909152919050565b600061237f8383615130565b90506000816001600160401b0381111561239b5761239b614462565b6040519080825280602002602001820160405280156123c4578160200160208202803683370190505b5090506000845b84811015612428576123de603382613e88565b8383815181106123f0576123f0614f60565b6001600160a01b03909216602092830291909101909101528161241281614f76565b925050808061242090614f76565b9150506123cb565b509095945050505050565b602680546115ae90614fa8565b61244b600133613981565b6124675760405162461bcd60e51b8152600401610cbc90614f29565b60005b8151811015610dc6576124a082828151811061248857612488614f60565b60200260200101516005613c3390919063ffffffff16565b50806124ab81614f76565b91505061246a565b6124be600133613981565b6124da5760405162461bcd60e51b8152600401610cbc90614f29565b6017546001146124fc5760405162461bcd60e51b8152600401610cbc90615143565b8051601f9061250b9082615071565b5060208082015161251c9082615071565b50604081015160219061252f9082615071565b5060608101516022906125429082615071565b5060808101516023906125559082615071565b5060a08101516024906125689082615071565b5060c081015160259061257b9082615071565b5060e081015160269061258e9082615071565b506101008101516027906125a29082615071565b50610120810151602890610dc69082615071565b6125c1600133613981565b6125dd5760405162461bcd60e51b8152600401610cbc90614f29565b60005b8151811015610dc6576126168282815181106125fe576125fe614f60565b602002602001015160016139a390919063ffffffff16565b508061262181614f76565b9150506125e0565b60006122d36005613e7e565b612640600133613981565b61265c5760405162461bcd60e51b8152600401610cbc90614f29565b60175460011461267e5760405162461bcd60e51b8152600401610cbc90615143565b6003601755565b612690600333613981565b6126ac5760405162461bcd60e51b8152600401610cbc90614ecd565b600081116126f85760405162461bcd60e51b81526020600482015260196024820152781b185d5b98da1c18590e88125b9d985b1a5908185b5bdd5b9d603a1b6044820152606401610cbc565b6001600160a01b03821661270c5733612194565b816118ba3361228f565b61271e613a53565b6017546001146127405760405162461bcd60e51b8152600401610cbc90615143565b336000908152603260205260409020600f54421080159061276357504260105410155b6127a95760405162461bcd60e51b81526020600482015260176024820152766c61756e63687061643a20496e76616c69642074696d6560481b6044820152606401610cbc565b600381015460ff16156127f45760405162461bcd60e51b81526020600482015260136024820152721b185d5b98da1c18590e881499599d5b991959606a1b6044820152606401610cbc565b80546128425760405162461bcd60e51b815260206004820152601960248201527f6c61756e63687061643a204e6f7420636f6e74726962757465000000000000006044820152606401610cbc565b600061271060195483600001546128599190614f12565b612863919061517a565b905060008183600001546128779190615130565b835460185491925061288891615130565b6018556002830154602f5461289d9190615130565b602f5560038301805460ff1916600117905560006002840181905583556128c46121293390565b50600081116129155760405162461bcd60e51b815260206004820152601c60248201527f6c61756e63687061643a20496e76616c696420726620616d6f756e74000000006044820152606401610cbc565b6009546001600160a01b03166129a057801561295a57604051339082156108fc029083906000818181858888f19350505050158015612958573d6000803e3d6000fd5b505b81156118ba57602e546040516001600160a01b039091169083156108fc029084906000818181858888f1935050505015801561299a573d6000803e3d6000fd5b50505050565b6009546001600160a01b031681156129bb576129bb3361228f565b821561299a57602e5461299a906001600160a01b03838116911685613bd0565b6129e3613a53565b601754600114612a055760405162461bcd60e51b8152600401610cbc90615143565b42600f5411158015612a1957504260105410155b612a5f5760405162461bcd60e51b81526020600482015260176024820152766c61756e63687061643a20496e76616c69642074696d6560481b6044820152606401610cbc565b601254600103612acc57612a74600533613981565b612acc5760405162461bcd60e51b815260206004820152602360248201527f6c61756e63687061643a20596f7520617265206e6f7420696e2077686974656c6044820152621a5cdd60ea1b6064820152608401610cbc565b336000908152603260205260409020600d548154612aeb908490614fe2565b10158015612b075750600e548154612b04908490614fe2565b11155b612b4f5760405162461bcd60e51b81526020600482015260196024820152781b185d5b98da1c18590e88125b9d985b1a5908185b5bdd5b9d603a1b6044820152606401610cbc565b600b5482601854612b609190614fe2565b1115612bae5760405162461bcd60e51b815260206004820152601860248201527f6c61756e63687061643a204d65657420686172642063617000000000000000006044820152606401610cbc565b8054612bbb908390614fe2565b81556000612bc883613e94565b905080602f54612bd89190614fe2565b602f556002820154612beb908290614fe2565b600283015560038201805460ff19169055601854612c0a908490614fe2565b601855612c18603333613981565b612c2957612c27603333613c33565b505b6009546001600160a01b0316612c8957823410156118ba5760405162461bcd60e51b815260206004820152601960248201527f6c61756e63687061643a20496e76616c696420416d6f756e74000000000000006044820152606401610cbc565b6009546001600160a01b031661299a81333087613f4a565b6001600160a01b0381166000908152603260209081526040808320815160808101835281548152600182015493810193909352600281015491830191909152600381015460ff161515606083015290612cf990613a99565b9392505050565b601f80546115ae90614fa8565b60606122d36001613f82565b602380546115ae90614fa8565b612d31600133613981565b612d4d5760405162461bcd60e51b8152600401610cbc90614f29565b601754600114612d6f5760405162461bcd60e51b8152600401610cbc90615143565b600f544211612db75760405162461bcd60e51b81526020600482015260146024820152731b185d5b98da1c18590e88139bdd081cdd185c9d60621b6044820152606401610cbc565b601054421015612e1557600b546018541015612e155760405162461bcd60e51b815260206004820152601960248201527f6c61756e63687061643a2043616e27742066696e616c697a65000000000000006044820152606401610cbc565b6010544210612e7257600a546018541015612e725760405162461bcd60e51b815260206004820152601c60248201527f6c61756e63687061643a204e6f74206d65657420736f667420636170000000006044820152606401610cbc565b60026017556009546012906001600160a01b031615612f0857600960009054906101000a90046001600160a01b03166001600160a01b031663313ce5676040518163ffffffff1660e01b8152600401602060405180830381865afa158015612ede573d6000803e3d6000fd5b505050506040513d601f19601f82011682018060405250810190612f02919061519c565b60ff1690505b6000612710612f1883600a6152a3565b602d54600c54601854612f2b9190614f12565b612f359190614f12565b612f3f919061517a565b612f49919061517a565b90506000612710602c54601854612f609190614f12565b612f6a919061517a565b90506000612710601d5483601854612f829190615130565b612f8c9190614f12565b612f96919061517a565b905060008183601854612fa99190615130565b612fb39190615130565b90506000612fc286600a6152a3565b601c54612fcf9085614f12565b612fd9919061517a565b6008546040516370a0823160e01b81523060048201529192506000916001600160a01b03909116906370a0823190602401602060405180830381865afa158015613027573d6000803e3d6000fd5b505050506040513d601f19601f8201168201806040525081019061304b9190614f8f565b9050600086602f54848461305f9190615130565b6130699190615130565b6130739190615130565b9050861561309857602e54600854613098916001600160a01b03918216911689613bd0565b80156130e7576011546000036130ca576030546008546130c5916001600160a01b03918216911683613bd0565b6130e7565b6007546008546130e7916001600160a01b03918216911683613bd0565b6009546001600160a01b0316613180578315613139576007546040516001600160a01b039091169085156108fc029086906000818181858888f19350505050158015613137573d6000803e3d6000fd5b505b851561317b57602e546040516001600160a01b039091169087156108fc029088906000818181858888f19350505050158015613179573d6000803e3d6000fd5b505b6131c6565b83156131a3576007546009546131a3916001600160a01b03918216911686613bd0565b85156131c657602e546009546131c6916001600160a01b03918216911688613bd0565b601a5460ff1661386257603183905542601655600854601b5460405163095ea7b360e01b81526001600160a01b0391821660048201526024810186905291169063095ea7b3906044016020604051808303816000875af115801561322e573d6000803e3d6000fd5b505050506040513d601f19601f8201168201806040525081019061325291906152af565b50600854600954601b54601a54613280936001600160a01b0390811693811692811691610100900416613c48565b61329c5760405162461bcd60e51b8152600401610cbc90614ff5565b601b54601a546009546001600160a01b0392831692610100909204821691600091829116613485576008546001600160a01b038086169163f305d719918c91168a600080306132ed4261012c614fe2565b60405160e089901b6001600160e01b03191681526001600160a01b039687166004820152602481019590955260448501939093526064840191909152909216608482015260a481019190915260c40160606040518083038185885af115801561335a573d6000803e3d6000fd5b50505050506040513d601f19601f8201168201806040525081019061337f91906152cc565b909150905080915050826001600160a01b031663e6a43905600860009054906101000a90046001600160a01b0316866001600160a01b031663ad5c46486040518163ffffffff1660e01b8152600401602060405180830381865afa1580156133eb573d6000803e3d6000fd5b505050506040513d601f19601f8201168201806040525081019061340f91906152fa565b6040516001600160e01b031960e085901b1681526001600160a01b03928316600482015291166024820152604401602060405180830381865afa15801561345a573d6000803e3d6000fd5b505050506040513d601f19601f8201168201806040525081019061347e91906152fa565b915061364e565b600954601b5460405163095ea7b360e01b81526001600160a01b039182166004820152602481018c905291169063095ea7b3906044016020604051808303816000875af11580156134da573d6000803e3d6000fd5b505050506040513d601f19601f820116820180604052508101906134fe91906152af565b506008546009546001600160a01b038087169263e8e337009290821691168a8d6000803061352e4261012c614fe2565b60405160e08a901b6001600160e01b03191681526001600160a01b039889166004820152968816602488015260448701959095526064860193909352608485019190915260a484015290921660c482015260e4810191909152610104016060604051808303816000875af11580156135aa573d6000803e3d6000fd5b505050506040513d601f19601f820116820180604052508101906135ce91906152cc565b60085460095460405163e6a4390560e01b81526001600160a01b03928316600482015290821660248201529194508616925063e6a439059150604401602060405180830381865afa158015613627573d6000803e3d6000fd5b505050506040513d601f19601f8201168201806040525081019061364b91906152fa565b91505b6001600160a01b0382166136a45760405162461bcd60e51b815260206004820152601760248201527f6c61756e63687061643a20496e76616c696420706169720000000000000000006044820152606401610cbc565b600081116136f45760405162461bcd60e51b815260206004820152601d60248201527f6c61756e63687061643a20496e76616c6964204c6971756964697479210000006044820152606401610cbc565b601e54156138435760295460405163095ea7b360e01b81526001600160a01b039182166004820152602481018390529083169063095ea7b3906044016020604051808303816000875af115801561374f573d6000803e3d6000fd5b505050506040513d601f19601f8201168201806040525081019061377391906152af565b506000601e54426137849190614fe2565b602954600754604051630727935760e01b81526001600160a01b039182166004820152868216602482015260016044820152606481018690526084810184905260c060a4820152600d60c48201526c06c61756e63687061643a204c5609c1b60e48201529293501690630727935790610104016020604051808303816000875af1158015613816573d6000803e3d6000fd5b505050506040513d601f19601f8201168201806040525081019061383a9190614f8f565b602a555061385d565b60075461385d906001600160a01b03848116911683613bd0565b505050505b5050505050505050565b606082821180156138845750613880612629565b8211155b6138c55760405162461bcd60e51b81526020600482015260126024820152711b185d5b98da1c18590e88125b9d985b1a5960721b6044820152606401610cbc565b60006138d18484615130565b6001600160401b038111156138e8576138e8614462565b604051908082528060200260200182016040528015613911578160200160208202803683370190505b5090506000845b848110156139755761392b600582613e88565b83838151811061393d5761393d614f60565b6001600160a01b03909216602092830291909101909101528161395f81614f76565b925050808061396d90614f76565b915050613918565b50909150505b92915050565b6001600160a01b03811660009081526001830160205260408120541515612cf9565b6000612cf9836001600160a01b038416613f8f565b60005460ff166116805760405162461bcd60e51b815260206004820152601460248201527314185d5cd8589b194e881b9bdd081c185d5cd95960621b6044820152606401610cbc565b613a096139b8565b6000805460ff191690557f5db9ee0a495bf2e6ff9c91a7834c1ba4fdd244a5e8aa4e537bd38aeae4b073aa335b6040516001600160a01b03909116815260200160405180910390a1565b60005460ff16156116805760405162461bcd60e51b815260206004820152601060248201526f14185d5cd8589b194e881c185d5cd95960821b6044820152606401610cbc565b60175460009081906002141580613ab257506040830151155b80613ac35750606083015115156001145b80613ad657508260400151836020015110155b80613ae15750601654155b80613aed575060165442105b15613af85792915050565b6000601354600003613b0f57506040830151613bb9565b60006127106013548660400151613b269190614f12565b613b30919061517a565b905060006127106015548760400151613b499190614f12565b613b53919061517a565b90506000806016549050804210613b8957601454613b718242615130565b613b7b919061517a565b613b86906001614fe2565b91505b83613b948484614f12565b613b9e9190614fe2565b94508760400151851115613bb457876040015194505b505050505b6020840151613bc89082615130565b949350505050565b6040516001600160a01b0383166024820152604481018290526118ba90849063a9059cbb60e01b906064015b60408051601f198184030181529190526020810180516001600160e01b03166001600160e01b031990931692909217909152614082565b6000612cf9836001600160a01b038416614157565b60008083836001600160a01b038716613d4357806001600160a01b031663e6a4390589846001600160a01b031663ad5c46486040518163ffffffff1660e01b8152600401602060405180830381865afa158015613ca9573d6000803e3d6000fd5b505050506040513d601f19601f82011682018060405250810190613ccd91906152fa565b6040516001600160e01b031960e085901b1681526001600160a01b03928316600482015291166024820152604401602060405180830381865afa158015613d18573d6000803e3d6000fd5b505050506040513d601f19601f82011682018060405250810190613d3c91906152fa565b9250613db8565b60405163e6a4390560e01b81526001600160a01b038981166004830152888116602483015282169063e6a4390590604401602060405180830381865afa158015613d91573d6000803e3d6000fd5b505050506040513d601f19601f82011682018060405250810190613db591906152fa565b92505b6001600160a01b038316613dd25760019350505050613bc8565b826001600160a01b03166318160ddd6040518163ffffffff1660e01b8152600401602060405180830381865afa158015613e10573d6000803e3d6000fd5b505050506040513d601f19601f82011682018060405250810190613e349190614f8f565b1598975050505050505050565b613e49613a53565b6000805460ff191660011790557f62e78cea01bee320cd4e420270b5ea74000d11b0c9f74754ebdbfc544b05a258613a363390565b600061397b825490565b6000612cf983836141a6565b6009546000906012906001600160a01b031615613f2857600960009054906101000a90046001600160a01b03166001600160a01b031663313ce5676040518163ffffffff1660e01b8152600401602060405180830381865afa158015613efe573d6000803e3d6000fd5b505050506040513d601f19601f82011682018060405250810190613f22919061519c565b60ff1690505b613f3381600a6152a3565b600c54613f409085614f12565b612cf9919061517a565b6040516001600160a01b038085166024830152831660448201526064810182905261299a9085906323b872dd60e01b90608401613bfc565b60606000612cf9836141d0565b60008181526001830160205260408120548015614078576000613fb3600183615130565b8554909150600090613fc790600190615130565b905081811461402c576000866000018281548110613fe757613fe7614f60565b906000526020600020015490508087600001848154811061400a5761400a614f60565b6000918252602080832090910192909255918252600188019052604090208390555b855486908061403d5761403d615317565b60019003818190600052602060002001600090559055856001016000868152602001908152602001600020600090556001935050505061397b565b600091505061397b565b60006140d7826040518060400160405280602081526020017f5361666545524332303a206c6f772d6c6576656c2063616c6c206661696c6564815250856001600160a01b031661422c9092919063ffffffff16565b90508051600014806140f85750808060200190518101906140f891906152af565b6118ba5760405162461bcd60e51b815260206004820152602a60248201527f5361666545524332303a204552433230206f7065726174696f6e20646964206e6044820152691bdd081cdd58d8d9595960b21b6064820152608401610cbc565b600081815260018301602052604081205461419e5750815460018181018455600084815260208082209093018490558454848252828601909352604090209190915561397b565b50600061397b565b60008260000182815481106141bd576141bd614f60565b9060005260206000200154905092915050565b60608160000180548060200260200160405190810160405280929190818152602001828054801561422057602002820191906000526020600020905b81548152602001906001019080831161420c575b50505050509050919050565b6060613bc8848460008585600080866001600160a01b03168587604051614253919061532d565b60006040518083038185875af1925050503d8060008114614290576040519150601f19603f3d011682016040523d82523d6000602084013e614295565b606091505b50915091506142a6878383876142b1565b979650505050505050565b60608315614320578251600003614319576001600160a01b0385163b6143195760405162461bcd60e51b815260206004820152601d60248201527f416464726573733a2063616c6c20746f206e6f6e2d636f6e74726163740000006044820152606401610cbc565b5081613bc8565b613bc883838151156143355781518083602001fd5b8060405162461bcd60e51b8152600401610cbc9190614898565b604051806103e001604052806000815260200160008152602001600081526020016000815260200160008152602001600081526020016000815260200160006001600160a01b0316815260200160008152602001600081526020016060815260200160608152602001606081526020016060815260200160608152602001606081526020016060815260200160608152602001606081526020016060815260200160006001600160a01b031681526020016000815260200160008152602001600081526020016000815260200160008152602001600081526020016000815260200160008152602001600081526020016000151581525090565b60006020828403121561445b57600080fd5b5035919050565b634e487b7160e01b600052604160045260246000fd5b60405161014081016001600160401b038111828210171561449b5761449b614462565b60405290565b60405161016081016001600160401b038111828210171561449b5761449b614462565b604051601f8201601f191681016001600160401b03811182821017156144ec576144ec614462565b604052919050565b6001600160a01b0381168114611f6757600080fd5b8035614514816144f4565b919050565b6000602080838503121561452c57600080fd5b82356001600160401b038082111561454357600080fd5b818501915085601f83011261455757600080fd5b81358181111561456957614569614462565b8060051b915061457a8483016144c4565b818152918301840191848101908884111561459457600080fd5b938501935b838510156145be57843592506145ae836144f4565b8282529385019390850190614599565b98975050505050505050565b6000602082840312156145dc57600080fd5b8135612cf9816144f4565b60005b838110156146025781810151838201526020016145ea565b50506000910152565b600081518084526146238160208601602086016145e7565b601f01601f19169290920160200192915050565b6020815281516020820152602082015160408201526040820151606082015260608201516080820152608082015160a082015260a082015160c082015260c082015160e0820152600060e083015161010061469c818501836001600160a01b03169052565b84015161012084810191909152840151610140808501919091528401516103e0610160808601829052919250906146d761040086018461460b565b9250808601519050601f196101808187860301818801526146f8858461460b565b9450808801519250506101a0818786030181880152614717858461460b565b9450808801519250506101c0818786030181880152614736858461460b565b9450808801519250506101e0818786030181880152614755858461460b565b945080880151925050610200818786030181880152614774858461460b565b945080880151925050610220818786030181880152614793858461460b565b9450808801519250506102408187860301818801526147b2858461460b565b9450808801519250506102608187860301818801526147d1858461460b565b9450808801519250506102808187860301818801526147f0858461460b565b945080880151925050506102a0614811818701836001600160a01b03169052565b8601516102c0868101919091528601516102e08087019190915286015161030080870191909152860151610320808701919091528601516103408087019190915286015161036080870191909152860151610380808701919091528601516103a0808701919091528601516103c08087019190915290950151151593019290925250919050565b602081526000612cf9602083018461460b565b6000606082840312156148bd57600080fd5b604051606081018181106001600160401b03821117156148df576148df614462565b80604052508091508235815260208301356020820152604083013560408201525092915050565b8015158114611f6757600080fd5b600060c0828403121561492657600080fd5b60405160c081018181106001600160401b038211171561494857614948614462565b604052905080823561495981614906565b81526020830135614969816144f4565b6020820152604083013561497c816144f4565b80604083015250606083013560608201526080830135608082015260a083013560a08201525092915050565b6000604082840312156149ba57600080fd5b604051604081018181106001600160401b03821117156149dc576149dc614462565b604052823581526020928301359281019290925250919050565b600060808284031215614a0857600080fd5b604051608081018181106001600160401b0382111715614a2a57614a2a614462565b6040529050808235614a3b816144f4565b81526020830135614a4b816144f4565b60208201526040830135614a5e816144f4565b60408201526060830135614a71816144f4565b6060919091015292915050565b600082601f830112614a8f57600080fd5b81356001600160401b03811115614aa857614aa8614462565b614abb601f8201601f19166020016144c4565b818152846020838601011115614ad057600080fd5b816020850160208301376000918101602001919091529392505050565b60006101408284031215614b0057600080fd5b614b08614478565b905081356001600160401b0380821115614b2157600080fd5b614b2d85838601614a7e565b83526020840135915080821115614b4357600080fd5b614b4f85838601614a7e565b60208401526040840135915080821115614b6857600080fd5b614b7485838601614a7e565b60408401526060840135915080821115614b8d57600080fd5b614b9985838601614a7e565b60608401526080840135915080821115614bb257600080fd5b614bbe85838601614a7e565b608084015260a0840135915080821115614bd757600080fd5b614be385838601614a7e565b60a084015260c0840135915080821115614bfc57600080fd5b614c0885838601614a7e565b60c084015260e0840135915080821115614c2157600080fd5b614c2d85838601614a7e565b60e084015261010091508184013581811115614c4857600080fd5b614c5486828701614a7e565b838501525061012091508184013581811115614c6f57600080fd5b614c7b86828701614a7e565b8385015250505092915050565b600080600080600080600080888a036103a0811215614ca657600080fd5b61016080821215614cb657600080fd5b614cbe6144a1565b9150614cc98b614509565b8252614cd760208c01614509565b602083015260408b0135604083015260608b0135606083015260808b0135608083015260a08b013560a083015260c08b013560c083015260e08b013560e0830152610100808c01358184015250610120808c01358184015250610140808c01358184015250819950614d4b8c828d016148ab565b98505050614d5d8a6101c08b01614914565b9550614d6d8a6102808b016149a8565b9450614d7d8a6102c08b016149f6565b93506103408901356001600160401b03811115614d9957600080fd5b614da58b828c01614aed565b935050610360890135915061038089013590509295985092959890939650565b60008060408385031215614dd857600080fd5b8235614de3816144f4565b91506020830135614df3816144f4565b809150509250929050565b6020808252825182820181905260009190848201906040850190845b81811015614e3f5783516001600160a01b031683529284019291840191600101614e1a565b50909695505050505050565b600060208284031215614e5d57600080fd5b81356001600160401b03811115614e7357600080fd5b613bc884828501614aed565b60008060408385031215614e9257600080fd5b8235614e9d816144f4565b946020939093013593505050565b60008060408385031215614ebe57600080fd5b50508035926020909101359150565b6020808252601590820152743630bab731b43830b21d1027b7363c9029bab832b960591b604082015260600190565b634e487b7160e01b600052601160045260246000fd5b808202811582820484141761397b5761397b614efc565b6020808252601e908201527f6c61756e63687061643a204f6e6c792077686974654c69737455736572730000604082015260600190565b634e487b7160e01b600052603260045260246000fd5b600060018201614f8857614f88614efc565b5060010190565b600060208284031215614fa157600080fd5b5051919050565b600181811c90821680614fbc57607f821691505b602082108103614fdc57634e487b7160e01b600052602260045260246000fd5b50919050565b8082018082111561397b5761397b614efc565b6020808252601490820152736c61756e63687061643a204c502041646465642160601b604082015260600190565b601f8211156118ba57600081815260208120601f850160051c8101602086101561504a5750805b601f850160051c820191505b8181101561506957828155600101615056565b505050505050565b81516001600160401b0381111561508a5761508a614462565b61509e816150988454614fa8565b84615023565b602080601f8311600181146150d357600084156150bb5750858301515b600019600386901b1c1916600185901b178555615069565b600085815260208120601f198616915b82811015615102578886015182559484019460019091019084016150e3565b50858210156151205787850151600019600388901b60f8161c191681555b5050505050600190811b01905550565b8181038181111561397b5761397b614efc565b6020808252601d908201527f6c61756e63687061643a204e6f7420617661696c61626c6520706f6f6c000000604082015260600190565b60008261519757634e487b7160e01b600052601260045260246000fd5b500490565b6000602082840312156151ae57600080fd5b815160ff81168114612cf957600080fd5b600181815b808511156151fa5781600019048211156151e0576151e0614efc565b808516156151ed57918102915b93841c93908002906151c4565b509250929050565b6000826152115750600161397b565b8161521e5750600061397b565b8160018114615234576002811461523e5761525a565b600191505061397b565b60ff84111561524f5761524f614efc565b50506001821b61397b565b5060208310610133831016604e8410600b841016171561527d575081810a61397b565b61528783836151bf565b806000190482111561529b5761529b614efc565b029392505050565b6000612cf98383615202565b6000602082840312156152c157600080fd5b8151612cf981614906565b6000806000606084860312156152e157600080fd5b8351925060208401519150604084015190509250925092565b60006020828403121561530c57600080fd5b8151612cf9816144f4565b634e487b7160e01b600052603160045260246000fd5b6000825161533f8184602087016145e7565b919091019291505056fea26469706673582212209b704440ff1df73c8e9a917d499a11be351db7c4a20133168dbc3209f832829a64736f6c63430008120033",
			"opcodes": "PUSH1 0x80 PUSH1 0x40 MSTORE PUSH2 0x3E8 PUSH1 0x19 SSTORE PUSH1 0x0 PUSH1 0x31 SSTORE CALLVALUE DUP1 ISZERO PUSH2 0x1B JUMPI PUSH1 0x0 DUP1 REVERT JUMPDEST POP PUSH1 0x0 DUP1 SLOAD PUSH1 0xFF NOT AND SWAP1 SSTORE PUSH2 0x537F DUP1 PUSH2 0x35 PUSH1 0x0 CODECOPY PUSH1 0x0 RETURN INVALID PUSH1 0x80 PUSH1 0x40 MSTORE PUSH1 0x4 CALLDATASIZE LT PUSH2 0x447 JUMPI PUSH1 0x0 CALLDATALOAD PUSH1 0xE0 SHR DUP1 PUSH4 0x85DC3004 GT PUSH2 0x234 JUMPI DUP1 PUSH4 0xC19D93FB GT PUSH2 0x12E JUMPI DUP1 PUSH4 0xD7CA9949 GT PUSH2 0xB6 JUMPI DUP1 PUSH4 0xEAF74AC5 GT PUSH2 0x7A JUMPI DUP1 PUSH4 0xEAF74AC5 EQ PUSH2 0xBCC JUMPI DUP1 PUSH4 0xF86AA92D EQ PUSH2 0xBEC JUMPI DUP1 PUSH4 0xFB2CEB18 EQ PUSH2 0xC02 JUMPI DUP1 PUSH4 0xFB86A404 EQ PUSH2 0xC69 JUMPI DUP1 PUSH4 0xFF09A5B6 EQ PUSH2 0xC7F JUMPI PUSH1 0x0 DUP1 REVERT JUMPDEST DUP1 PUSH4 0xD7CA9949 EQ PUSH2 0xB56 JUMPI DUP1 PUSH4 0xE2D24FB7 EQ PUSH2 0xB6C JUMPI DUP1 PUSH4 0xE7B2C08E EQ PUSH2 0xB82 JUMPI DUP1 PUSH4 0xE82BEF29 EQ PUSH2 0xB97 JUMPI DUP1 PUSH4 0xEA623239 EQ PUSH2 0xBB7 JUMPI PUSH1 0x0 DUP1 REVERT JUMPDEST DUP1 PUSH4 0xC5B5C1E2 GT PUSH2 0xFD JUMPI DUP1 PUSH4 0xC5B5C1E2 EQ PUSH2 0xAE0 JUMPI DUP1 PUSH4 0xC78F19F9 EQ PUSH2 0xAF6 JUMPI DUP1 PUSH4 0xCF25A442 EQ PUSH2 0xB0C JUMPI DUP1 PUSH4 0xD2CE89E5 EQ PUSH2 0xB2C JUMPI DUP1 PUSH4 0xD6B75A05 EQ PUSH2 0xB41 JUMPI PUSH1 0x0 DUP1 REVERT JUMPDEST DUP1 PUSH4 0xC19D93FB EQ PUSH2 0xA8B JUMPI DUP1 PUSH4 0xC1CBBCA7 EQ PUSH2 0xAA1 JUMPI DUP1 PUSH4 0xC34F6990 EQ PUSH2 0xAB4 JUMPI DUP1 PUSH4 0xC59EE1DC EQ PUSH2 0xACA JUMPI PUSH1 0x0 DUP1 REVERT JUMPDEST DUP1 PUSH4 0xAE959E71 GT PUSH2 0x1BC JUMPI DUP1 PUSH4 0xB96F2120 GT PUSH2 0x180 JUMPI DUP1 PUSH4 0xB96F2120 EQ PUSH2 0xA0C JUMPI DUP1 PUSH4 0xBA1F332A EQ PUSH2 0xA2C JUMPI DUP1 PUSH4 0xBA6C0E1E EQ PUSH2 0xA41 JUMPI DUP1 PUSH4 0xBC4724E8 EQ PUSH2 0xA56 JUMPI DUP1 PUSH4 0xBF9C5D45 EQ PUSH2 0xA76 JUMPI PUSH1 0x0 DUP1 REVERT JUMPDEST DUP1 PUSH4 0xAE959E71 EQ PUSH2 0x97F JUMPI DUP1 PUSH4 0xB1DD61B6 EQ PUSH2 0x9A1 JUMPI DUP1 PUSH4 0xB37D7654 EQ PUSH2 0x9B7 JUMPI DUP1 PUSH4 0xB773827C EQ PUSH2 0x9CC JUMPI DUP1 PUSH4 0xB7B7FF23 EQ PUSH2 0x9EC JUMPI PUSH1 0x0 DUP1 REVERT JUMPDEST DUP1 PUSH4 0x919840AD GT PUSH2 0x203 JUMPI DUP1 PUSH4 0x919840AD EQ PUSH2 0x8FA JUMPI DUP1 PUSH4 0x966DAE0E EQ PUSH2 0x90F JUMPI DUP1 PUSH4 0x9779C479 EQ PUSH2 0x934 JUMPI DUP1 PUSH4 0xA5F8A665 EQ PUSH2 0x949 JUMPI DUP1 PUSH4 0xA7B12846 EQ PUSH2 0x969 JUMPI PUSH1 0x0 DUP1 REVERT JUMPDEST DUP1 PUSH4 0x85DC3004 EQ PUSH2 0x899 JUMPI DUP1 PUSH4 0x8E5E721F EQ PUSH2 0x8B9 JUMPI DUP1 PUSH4 0x906A26E0 EQ PUSH2 0x8CF JUMPI DUP1 PUSH4 0x90D1576D EQ PUSH2 0x8E5 JUMPI PUSH1 0x0 DUP1 REVERT JUMPDEST DUP1 PUSH4 0x421CC337 GT PUSH2 0x345 JUMPI DUP1 PUSH4 0x640F82F3 GT PUSH2 0x2CD JUMPI DUP1 PUSH4 0x779F6350 GT PUSH2 0x291 JUMPI DUP1 PUSH4 0x779F6350 EQ PUSH2 0x81F JUMPI DUP1 PUSH4 0x78E97925 EQ PUSH2 0x834 JUMPI DUP1 PUSH4 0x7D1477C6 EQ PUSH2 0x84A JUMPI DUP1 PUSH4 0x7F33395B EQ PUSH2 0x864 JUMPI DUP1 PUSH4 0x8456CB59 EQ PUSH2 0x884 JUMPI PUSH1 0x0 DUP1 REVERT JUMPDEST DUP1 PUSH4 0x640F82F3 EQ PUSH2 0x79F JUMPI DUP1 PUSH4 0x647846A5 EQ PUSH2 0x7BF JUMPI DUP1 PUSH4 0x70C0345C EQ PUSH2 0x7DF JUMPI DUP1 PUSH4 0x7284E416 EQ PUSH2 0x7F5 JUMPI DUP1 PUSH4 0x7344070B EQ PUSH2 0x80A JUMPI PUSH1 0x0 DUP1 REVERT JUMPDEST DUP1 PUSH4 0x57801E6F GT PUSH2 0x314 JUMPI DUP1 PUSH4 0x57801E6F EQ PUSH2 0x71A JUMPI DUP1 PUSH4 0x584F4D41 EQ PUSH2 0x73A JUMPI DUP1 PUSH4 0x58E5BC88 EQ PUSH2 0x74F JUMPI DUP1 PUSH4 0x5C975ABB EQ PUSH2 0x765 JUMPI DUP1 PUSH4 0x63FD9E38 EQ PUSH2 0x789 JUMPI PUSH1 0x0 DUP1 REVERT JUMPDEST DUP1 PUSH4 0x421CC337 EQ PUSH2 0x6AF JUMPI DUP1 PUSH4 0x42F39381 EQ PUSH2 0x6CF JUMPI DUP1 PUSH4 0x48C54B9D EQ PUSH2 0x6E5 JUMPI DUP1 PUSH4 0x54533282 EQ PUSH2 0x6FA JUMPI PUSH1 0x0 DUP1 REVERT JUMPDEST DUP1 PUSH4 0x2E6F130F GT PUSH2 0x3D3 JUMPI DUP1 PUSH4 0x334B2022 GT PUSH2 0x397 JUMPI DUP1 PUSH4 0x334B2022 EQ PUSH2 0x644 JUMPI DUP1 PUSH4 0x33B14742 EQ PUSH2 0x659 JUMPI DUP1 PUSH4 0x343FE61B EQ PUSH2 0x66F JUMPI DUP1 PUSH4 0x3DC10AD4 EQ PUSH2 0x684 JUMPI DUP1 PUSH4 0x3F4BA83A EQ PUSH2 0x69A JUMPI PUSH1 0x0 DUP1 REVERT JUMPDEST DUP1 PUSH4 0x2E6F130F EQ PUSH2 0x5C0 JUMPI DUP1 PUSH4 0x2EE88649 EQ PUSH2 0x5E2 JUMPI DUP1 PUSH4 0x3110235A EQ PUSH2 0x5F8 JUMPI DUP1 PUSH4 0x3197CBB6 EQ PUSH2 0x60E JUMPI DUP1 PUSH4 0x3268CC56 EQ PUSH2 0x624 JUMPI PUSH1 0x0 DUP1 REVERT JUMPDEST DUP1 PUSH4 0x2347D754 GT PUSH2 0x41A JUMPI DUP1 PUSH4 0x2347D754 EQ PUSH2 0x4CD JUMPI DUP1 PUSH4 0x26009DCA EQ PUSH2 0x4ED JUMPI DUP1 PUSH4 0x260C2CEC EQ PUSH2 0x546 JUMPI DUP1 PUSH4 0x27B12BB2 EQ PUSH2 0x57E JUMPI DUP1 PUSH4 0x27C8F835 EQ PUSH2 0x5A0 JUMPI PUSH1 0x0 DUP1 REVERT JUMPDEST DUP1 PUSH4 0x782F8F0 EQ PUSH2 0x44C JUMPI DUP1 PUSH4 0x1619C877 EQ PUSH2 0x46E JUMPI DUP1 PUSH4 0x18A75E95 EQ PUSH2 0x48E JUMPI DUP1 PUSH4 0x1CAFEECC EQ PUSH2 0x4B7 JUMPI JUMPDEST PUSH1 0x0 DUP1 REVERT JUMPDEST CALLVALUE DUP1 ISZERO PUSH2 0x458 JUMPI PUSH1 0x0 DUP1 REVERT JUMPDEST POP PUSH2 0x46C PUSH2 0x467 CALLDATASIZE PUSH1 0x4 PUSH2 0x4449 JUMP JUMPDEST PUSH2 0xC95 JUMP JUMPDEST STOP JUMPDEST CALLVALUE DUP1 ISZERO PUSH2 0x47A JUMPI PUSH1 0x0 DUP1 REVERT JUMPDEST POP PUSH2 0x46C PUSH2 0x489 CALLDATASIZE PUSH1 0x4 PUSH2 0x4449 JUMP JUMPDEST PUSH2 0xCD6 JUMP JUMPDEST CALLVALUE DUP1 ISZERO PUSH2 0x49A JUMPI PUSH1 0x0 DUP1 REVERT JUMPDEST POP PUSH2 0x4A4 PUSH1 0x15 SLOAD DUP2 JUMP JUMPDEST PUSH1 0x40 MLOAD SWAP1 DUP2 MSTORE PUSH1 0x20 ADD JUMPDEST PUSH1 0x40 MLOAD DUP1 SWAP2 SUB SWAP1 RETURN JUMPDEST CALLVALUE DUP1 ISZERO PUSH2 0x4C3 JUMPI PUSH1 0x0 DUP1 REVERT JUMPDEST POP PUSH2 0x4A4 PUSH1 0x14 SLOAD DUP2 JUMP JUMPDEST CALLVALUE DUP1 ISZERO PUSH2 0x4D9 JUMPI PUSH1 0x0 DUP1 REVERT JUMPDEST POP PUSH2 0x46C PUSH2 0x4E8 CALLDATASIZE PUSH1 0x4 PUSH2 0x4519 JUMP JUMPDEST PUSH2 0xD53 JUMP JUMPDEST CALLVALUE DUP1 ISZERO PUSH2 0x4F9 JUMPI PUSH1 0x0 DUP1 REVERT JUMPDEST POP PUSH2 0x50D PUSH2 0x508 CALLDATASIZE PUSH1 0x4 PUSH2 0x45CA JUMP JUMPDEST PUSH2 0xDCA JUMP JUMPDEST PUSH1 0x40 MLOAD PUSH2 0x4AE SWAP2 SWAP1 DUP2 MLOAD ISZERO ISZERO DUP2 MSTORE PUSH1 0x20 DUP1 DUP4 ADD MLOAD SWAP1 DUP3 ADD MSTORE PUSH1 0x40 DUP1 DUP4 ADD MLOAD ISZERO ISZERO SWAP1 DUP3 ADD MSTORE PUSH1 0x60 SWAP2 DUP3 ADD MLOAD ISZERO ISZERO SWAP2 DUP2 ADD SWAP2 SWAP1 SWAP2 MSTORE PUSH1 0x80 ADD SWAP1 JUMP JUMPDEST CALLVALUE DUP1 ISZERO PUSH2 0x552 JUMPI PUSH1 0x0 DUP1 REVERT JUMPDEST POP PUSH1 0x8 SLOAD PUSH2 0x566 SWAP1 PUSH1 0x1 PUSH1 0x1 PUSH1 0xA0 SHL SUB AND DUP2 JUMP JUMPDEST PUSH1 0x40 MLOAD PUSH1 0x1 PUSH1 0x1 PUSH1 0xA0 SHL SUB SWAP1 SWAP2 AND DUP2 MSTORE PUSH1 0x20 ADD PUSH2 0x4AE JUMP JUMPDEST CALLVALUE DUP1 ISZERO PUSH2 0x58A JUMPI PUSH1 0x0 DUP1 REVERT JUMPDEST POP PUSH2 0x593 PUSH2 0xE8F JUMP JUMPDEST PUSH1 0x40 MLOAD PUSH2 0x4AE SWAP2 SWAP1 PUSH2 0x4637 JUMP JUMPDEST CALLVALUE DUP1 ISZERO PUSH2 0x5AC JUMPI PUSH1 0x0 DUP1 REVERT JUMPDEST POP PUSH1 0x30 SLOAD PUSH2 0x566 SWAP1 PUSH1 0x1 PUSH1 0x1 PUSH1 0xA0 SHL SUB AND DUP2 JUMP JUMPDEST CALLVALUE DUP1 ISZERO PUSH2 0x5CC JUMPI PUSH1 0x0 DUP1 REVERT JUMPDEST POP PUSH2 0x5D5 PUSH2 0x15A1 JUMP JUMPDEST PUSH1 0x40 MLOAD PUSH2 0x4AE SWAP2 SWAP1 PUSH2 0x4898 JUMP JUMPDEST CALLVALUE DUP1 ISZERO PUSH2 0x5EE JUMPI PUSH1 0x0 DUP1 REVERT JUMPDEST POP PUSH2 0x4A4 PUSH1 0x2B SLOAD DUP2 JUMP JUMPDEST CALLVALUE DUP1 ISZERO PUSH2 0x604 JUMPI PUSH1 0x0 DUP1 REVERT JUMPDEST POP PUSH2 0x4A4 PUSH1 0xE SLOAD DUP2 JUMP JUMPDEST CALLVALUE DUP1 ISZERO PUSH2 0x61A JUMPI PUSH1 0x0 DUP1 REVERT JUMPDEST POP PUSH2 0x4A4 PUSH1 0x10 SLOAD DUP2 JUMP JUMPDEST CALLVALUE DUP1 ISZERO PUSH2 0x630 JUMPI PUSH1 0x0 DUP1 REVERT JUMPDEST POP PUSH1 0x1B SLOAD PUSH2 0x566 SWAP1 PUSH1 0x1 PUSH1 0x1 PUSH1 0xA0 SHL SUB AND DUP2 JUMP JUMPDEST CALLVALUE DUP1 ISZERO PUSH2 0x650 JUMPI PUSH1 0x0 DUP1 REVERT JUMPDEST POP PUSH2 0x5D5 PUSH2 0x162F JUMP JUMPDEST CALLVALUE DUP1 ISZERO PUSH2 0x665 JUMPI PUSH1 0x0 DUP1 REVERT JUMPDEST POP PUSH2 0x4A4 PUSH1 0x16 SLOAD DUP2 JUMP JUMPDEST CALLVALUE DUP1 ISZERO PUSH2 0x67B JUMPI PUSH1 0x0 DUP1 REVERT JUMPDEST POP PUSH2 0x5D5 PUSH2 0x163C JUMP JUMPDEST CALLVALUE DUP1 ISZERO PUSH2 0x690 JUMPI PUSH1 0x0 DUP1 REVERT JUMPDEST POP PUSH2 0x4A4 PUSH1 0x19 SLOAD DUP2 JUMP JUMPDEST CALLVALUE DUP1 ISZERO PUSH2 0x6A6 JUMPI PUSH1 0x0 DUP1 REVERT JUMPDEST POP PUSH2 0x46C PUSH2 0x1649 JUMP JUMPDEST CALLVALUE DUP1 ISZERO PUSH2 0x6BB JUMPI PUSH1 0x0 DUP1 REVERT JUMPDEST POP PUSH2 0x46C PUSH2 0x6CA CALLDATASIZE PUSH1 0x4 PUSH2 0x4449 JUMP JUMPDEST PUSH2 0x1682 JUMP JUMPDEST CALLVALUE DUP1 ISZERO PUSH2 0x6DB JUMPI PUSH1 0x0 DUP1 REVERT JUMPDEST POP PUSH2 0x4A4 PUSH1 0xC SLOAD DUP2 JUMP JUMPDEST CALLVALUE DUP1 ISZERO PUSH2 0x6F1 JUMPI PUSH1 0x0 DUP1 REVERT JUMPDEST POP PUSH2 0x46C PUSH2 0x16FE JUMP JUMPDEST CALLVALUE DUP1 ISZERO PUSH2 0x706 JUMPI PUSH1 0x0 DUP1 REVERT JUMPDEST POP PUSH2 0x46C PUSH2 0x715 CALLDATASIZE PUSH1 0x4 PUSH2 0x4519 JUMP JUMPDEST PUSH2 0x18BF JUMP JUMPDEST CALLVALUE DUP1 ISZERO PUSH2 0x726 JUMPI PUSH1 0x0 DUP1 REVERT JUMPDEST POP PUSH2 0x46C PUSH2 0x735 CALLDATASIZE PUSH1 0x4 PUSH2 0x4C88 JUMP JUMPDEST PUSH2 0x1932 JUMP JUMPDEST CALLVALUE DUP1 ISZERO PUSH2 0x746 JUMPI PUSH1 0x0 DUP1 REVERT JUMPDEST POP PUSH2 0x46C PUSH2 0x1E25 JUMP JUMPDEST CALLVALUE DUP1 ISZERO PUSH2 0x75B JUMPI PUSH1 0x0 DUP1 REVERT JUMPDEST POP PUSH2 0x4A4 PUSH2 0x2710 DUP2 JUMP JUMPDEST CALLVALUE DUP1 ISZERO PUSH2 0x771 JUMPI PUSH1 0x0 DUP1 REVERT JUMPDEST POP PUSH1 0x0 SLOAD PUSH1 0xFF AND JUMPDEST PUSH1 0x40 MLOAD SWAP1 ISZERO ISZERO DUP2 MSTORE PUSH1 0x20 ADD PUSH2 0x4AE JUMP JUMPDEST CALLVALUE DUP1 ISZERO PUSH2 0x795 JUMPI PUSH1 0x0 DUP1 REVERT JUMPDEST POP PUSH2 0x4A4 PUSH1 0xD SLOAD DUP2 JUMP JUMPDEST CALLVALUE DUP1 ISZERO PUSH2 0x7AB JUMPI PUSH1 0x0 DUP1 REVERT JUMPDEST POP PUSH1 0x29 SLOAD PUSH2 0x566 SWAP1 PUSH1 0x1 PUSH1 0x1 PUSH1 0xA0 SHL SUB AND DUP2 JUMP JUMPDEST CALLVALUE DUP1 ISZERO PUSH2 0x7CB JUMPI PUSH1 0x0 DUP1 REVERT JUMPDEST POP PUSH1 0x9 SLOAD PUSH2 0x566 SWAP1 PUSH1 0x1 PUSH1 0x1 PUSH1 0xA0 SHL SUB AND DUP2 JUMP JUMPDEST CALLVALUE DUP1 ISZERO PUSH2 0x7EB JUMPI PUSH1 0x0 DUP1 REVERT JUMPDEST POP PUSH2 0x4A4 PUSH1 0x31 SLOAD DUP2 JUMP JUMPDEST CALLVALUE DUP1 ISZERO PUSH2 0x801 JUMPI PUSH1 0x0 DUP1 REVERT JUMPDEST POP PUSH2 0x5D5 PUSH2 0x1F6A JUMP JUMPDEST CALLVALUE DUP1 ISZERO PUSH2 0x816 JUMPI PUSH1 0x0 DUP1 REVERT JUMPDEST POP PUSH2 0x5D5 PUSH2 0x1F77 JUMP JUMPDEST CALLVALUE DUP1 ISZERO PUSH2 0x82B JUMPI PUSH1 0x0 DUP1 REVERT JUMPDEST POP PUSH2 0x5D5 PUSH2 0x1F84 JUMP JUMPDEST CALLVALUE DUP1 ISZERO PUSH2 0x840 JUMPI PUSH1 0x0 DUP1 REVERT JUMPDEST POP PUSH2 0x4A4 PUSH1 0xF SLOAD DUP2 JUMP JUMPDEST CALLVALUE DUP1 ISZERO PUSH2 0x856 JUMPI PUSH1 0x0 DUP1 REVERT JUMPDEST POP PUSH1 0x1A SLOAD PUSH2 0x779 SWAP1 PUSH1 0xFF AND DUP2 JUMP JUMPDEST CALLVALUE DUP1 ISZERO PUSH2 0x870 JUMPI PUSH1 0x0 DUP1 REVERT JUMPDEST POP PUSH1 0x7 SLOAD PUSH2 0x566 SWAP1 PUSH1 0x1 PUSH1 0x1 PUSH1 0xA0 SHL SUB AND DUP2 JUMP JUMPDEST CALLVALUE DUP1 ISZERO PUSH2 0x890 JUMPI PUSH1 0x0 DUP1 REVERT JUMPDEST POP PUSH2 0x46C PUSH2 0x1F91 JUMP JUMPDEST CALLVALUE DUP1 ISZERO PUSH2 0x8A5 JUMPI PUSH1 0x0 DUP1 REVERT JUMPDEST POP PUSH2 0x46C PUSH2 0x8B4 CALLDATASIZE PUSH1 0x4 PUSH2 0x45CA JUMP JUMPDEST PUSH2 0x1FC8 JUMP JUMPDEST CALLVALUE DUP1 ISZERO PUSH2 0x8C5 JUMPI PUSH1 0x0 DUP1 REVERT JUMPDEST POP PUSH2 0x4A4 PUSH1 0x2C SLOAD DUP2 JUMP JUMPDEST CALLVALUE DUP1 ISZERO PUSH2 0x8DB JUMPI PUSH1 0x0 DUP1 REVERT JUMPDEST POP PUSH2 0x4A4 PUSH1 0xA SLOAD DUP2 JUMP JUMPDEST CALLVALUE DUP1 ISZERO PUSH2 0x8F1 JUMPI PUSH1 0x0 DUP1 REVERT JUMPDEST POP PUSH2 0x46C PUSH2 0x2011 JUMP JUMPDEST CALLVALUE DUP1 ISZERO PUSH2 0x906 JUMPI PUSH1 0x0 DUP1 REVERT JUMPDEST POP PUSH2 0x779 PUSH2 0x22A0 JUMP JUMPDEST CALLVALUE DUP1 ISZERO PUSH2 0x91B JUMPI PUSH1 0x0 DUP1 REVERT JUMPDEST POP PUSH1 0x1A SLOAD PUSH2 0x566 SWAP1 PUSH2 0x100 SWAP1 DIV PUSH1 0x1 PUSH1 0x1 PUSH1 0xA0 SHL SUB AND DUP2 JUMP JUMPDEST CALLVALUE DUP1 ISZERO PUSH2 0x940 JUMPI PUSH1 0x0 DUP1 REVERT JUMPDEST POP PUSH2 0x5D5 PUSH2 0x22D8 JUMP JUMPDEST CALLVALUE DUP1 ISZERO PUSH2 0x955 JUMPI PUSH1 0x0 DUP1 REVERT JUMPDEST POP PUSH2 0x46C PUSH2 0x964 CALLDATASIZE PUSH1 0x4 PUSH2 0x4DC5 JUMP JUMPDEST PUSH2 0x22E5 JUMP JUMPDEST CALLVALUE DUP1 ISZERO PUSH2 0x975 JUMPI PUSH1 0x0 DUP1 REVERT JUMPDEST POP PUSH2 0x4A4 PUSH1 0x1E SLOAD DUP2 JUMP JUMPDEST CALLVALUE DUP1 ISZERO PUSH2 0x98B JUMPI PUSH1 0x0 DUP1 REVERT JUMPDEST POP PUSH2 0x994 PUSH2 0x2344 JUMP JUMPDEST PUSH1 0x40 MLOAD PUSH2 0x4AE SWAP2 SWAP1 PUSH2 0x4DFE JUMP JUMPDEST CALLVALUE DUP1 ISZERO PUSH2 0x9AD JUMPI PUSH1 0x0 DUP1 REVERT JUMPDEST POP PUSH2 0x4A4 PUSH1 0x11 SLOAD DUP2 JUMP JUMPDEST CALLVALUE DUP1 ISZERO PUSH2 0x9C3 JUMPI PUSH1 0x0 DUP1 REVERT JUMPDEST POP PUSH2 0x5D5 PUSH2 0x2433 JUMP JUMPDEST CALLVALUE DUP1 ISZERO PUSH2 0x9D8 JUMPI PUSH1 0x0 DUP1 REVERT JUMPDEST POP PUSH2 0x46C PUSH2 0x9E7 CALLDATASIZE PUSH1 0x4 PUSH2 0x4519 JUMP JUMPDEST PUSH2 0x2440 JUMP JUMPDEST CALLVALUE DUP1 ISZERO PUSH2 0x9F8 JUMPI PUSH1 0x0 DUP1 REVERT JUMPDEST POP PUSH2 0x46C PUSH2 0xA07 CALLDATASIZE PUSH1 0x4 PUSH2 0x4E4B JUMP JUMPDEST PUSH2 0x24B3 JUMP JUMPDEST CALLVALUE DUP1 ISZERO PUSH2 0xA18 JUMPI PUSH1 0x0 DUP1 REVERT JUMPDEST POP PUSH2 0x46C PUSH2 0xA27 CALLDATASIZE PUSH1 0x4 PUSH2 0x4519 JUMP JUMPDEST PUSH2 0x25B6 JUMP JUMPDEST CALLVALUE DUP1 ISZERO PUSH2 0xA38 JUMPI PUSH1 0x0 DUP1 REVERT JUMPDEST POP PUSH2 0x4A4 PUSH2 0x2629 JUMP JUMPDEST CALLVALUE DUP1 ISZERO PUSH2 0xA4D JUMPI PUSH1 0x0 DUP1 REVERT JUMPDEST POP PUSH2 0x46C PUSH2 0x2635 JUMP JUMPDEST CALLVALUE DUP1 ISZERO PUSH2 0xA62 JUMPI PUSH1 0x0 DUP1 REVERT JUMPDEST POP PUSH2 0x46C PUSH2 0xA71 CALLDATASIZE PUSH1 0x4 PUSH2 0x4E7F JUMP JUMPDEST PUSH2 0x2685 JUMP JUMPDEST CALLVALUE DUP1 ISZERO PUSH2 0xA82 JUMPI PUSH1 0x0 DUP1 REVERT JUMPDEST POP PUSH2 0x46C PUSH2 0x2716 JUMP JUMPDEST CALLVALUE DUP1 ISZERO PUSH2 0xA97 JUMPI PUSH1 0x0 DUP1 REVERT JUMPDEST POP PUSH2 0x4A4 PUSH1 0x17 SLOAD DUP2 JUMP JUMPDEST PUSH2 0x46C PUSH2 0xAAF CALLDATASIZE PUSH1 0x4 PUSH2 0x4449 JUMP JUMPDEST PUSH2 0x29DB JUMP JUMPDEST CALLVALUE DUP1 ISZERO PUSH2 0xAC0 JUMPI PUSH1 0x0 DUP1 REVERT JUMPDEST POP PUSH2 0x4A4 PUSH1 0x2D SLOAD DUP2 JUMP JUMPDEST CALLVALUE DUP1 ISZERO PUSH2 0xAD6 JUMPI PUSH1 0x0 DUP1 REVERT JUMPDEST POP PUSH2 0x4A4 PUSH1 0x18 SLOAD DUP2 JUMP JUMPDEST CALLVALUE DUP1 ISZERO PUSH2 0xAEC JUMPI PUSH1 0x0 DUP1 REVERT JUMPDEST POP PUSH2 0x4A4 PUSH1 0x12 SLOAD DUP2 JUMP JUMPDEST CALLVALUE DUP1 ISZERO PUSH2 0xB02 JUMPI PUSH1 0x0 DUP1 REVERT JUMPDEST POP PUSH2 0x4A4 PUSH1 0x1C SLOAD DUP2 JUMP JUMPDEST CALLVALUE DUP1 ISZERO PUSH2 0xB18 JUMPI PUSH1 0x0 DUP1 REVERT JUMPDEST POP PUSH2 0x4A4 PUSH2 0xB27 CALLDATASIZE PUSH1 0x4 PUSH2 0x45CA JUMP JUMPDEST PUSH2 0x2CA1 JUMP JUMPDEST CALLVALUE DUP1 ISZERO PUSH2 0xB38 JUMPI PUSH1 0x0 DUP1 REVERT JUMPDEST POP PUSH2 0x5D5 PUSH2 0x2D00 JUMP JUMPDEST CALLVALUE DUP1 ISZERO PUSH2 0xB4D JUMPI PUSH1 0x0 DUP1 REVERT JUMPDEST POP PUSH2 0x994 PUSH2 0x2D0D JUMP JUMPDEST CALLVALUE DUP1 ISZERO PUSH2 0xB62 JUMPI PUSH1 0x0 DUP1 REVERT JUMPDEST POP PUSH2 0x4A4 PUSH1 0x2F SLOAD DUP2 JUMP JUMPDEST CALLVALUE DUP1 ISZERO PUSH2 0xB78 JUMPI PUSH1 0x0 DUP1 REVERT JUMPDEST POP PUSH2 0x4A4 PUSH1 0x1D SLOAD DUP2 JUMP JUMPDEST CALLVALUE DUP1 ISZERO PUSH2 0xB8E JUMPI PUSH1 0x0 DUP1 REVERT JUMPDEST POP PUSH2 0x5D5 PUSH2 0x2D19 JUMP JUMPDEST CALLVALUE DUP1 ISZERO PUSH2 0xBA3 JUMPI PUSH1 0x0 DUP1 REVERT JUMPDEST POP PUSH1 0x2E SLOAD PUSH2 0x566 SWAP1 PUSH1 0x1 PUSH1 0x1 PUSH1 0xA0 SHL SUB AND DUP2 JUMP JUMPDEST CALLVALUE DUP1 ISZERO PUSH2 0xBC3 JUMPI PUSH1 0x0 DUP1 REVERT JUMPDEST POP PUSH2 0x46C PUSH2 0x2D26 JUMP JUMPDEST CALLVALUE DUP1 ISZERO PUSH2 0xBD8 JUMPI PUSH1 0x0 DUP1 REVERT JUMPDEST POP PUSH2 0x994 PUSH2 0xBE7 CALLDATASIZE PUSH1 0x4 PUSH2 0x4EAB JUMP JUMPDEST PUSH2 0x386C JUMP JUMPDEST CALLVALUE DUP1 ISZERO PUSH2 0xBF8 JUMPI PUSH1 0x0 DUP1 REVERT JUMPDEST POP PUSH2 0x4A4 PUSH1 0x2A SLOAD DUP2 JUMP JUMPDEST CALLVALUE DUP1 ISZERO PUSH2 0xC0E JUMPI PUSH1 0x0 DUP1 REVERT JUMPDEST POP PUSH2 0xC47 PUSH2 0xC1D CALLDATASIZE PUSH1 0x4 PUSH2 0x45CA JUMP JUMPDEST PUSH1 0x32 PUSH1 0x20 MSTORE PUSH1 0x0 SWAP1 DUP2 MSTORE PUSH1 0x40 SWAP1 KECCAK256 DUP1 SLOAD PUSH1 0x1 DUP3 ADD SLOAD PUSH1 0x2 DUP4 ADD SLOAD PUSH1 0x3 SWAP1 SWAP4 ADD SLOAD SWAP2 SWAP3 SWAP1 SWAP2 PUSH1 0xFF AND DUP5 JUMP JUMPDEST PUSH1 0x40 DUP1 MLOAD SWAP5 DUP6 MSTORE PUSH1 0x20 DUP6 ADD SWAP4 SWAP1 SWAP4 MSTORE SWAP2 DUP4 ADD MSTORE ISZERO ISZERO PUSH1 0x60 DUP3 ADD MSTORE PUSH1 0x80 ADD PUSH2 0x4AE JUMP JUMPDEST CALLVALUE DUP1 ISZERO PUSH2 0xC75 JUMPI PUSH1 0x0 DUP1 REVERT JUMPDEST POP PUSH2 0x4A4 PUSH1 0xB SLOAD DUP2 JUMP JUMPDEST CALLVALUE DUP1 ISZERO PUSH2 0xC8B JUMPI PUSH1 0x0 DUP1 REVERT JUMPDEST POP PUSH2 0x4A4 PUSH1 0x13 SLOAD DUP2 JUMP JUMPDEST PUSH2 0xCA0 PUSH1 0x3 CALLER PUSH2 0x3981 JUMP JUMPDEST PUSH2 0xCC5 JUMPI PUSH1 0x40 MLOAD PUSH3 0x461BCD PUSH1 0xE5 SHL DUP2 MSTORE PUSH1 0x4 ADD PUSH2 0xCBC SWAP1 PUSH2 0x4ECD JUMP JUMPDEST PUSH1 0x40 MLOAD DUP1 SWAP2 SUB SWAP1 REVERT JUMPDEST PUSH2 0xCD0 DUP2 PUSH1 0x64 PUSH2 0x4F12 JUMP JUMPDEST PUSH1 0x19 SSTORE POP JUMP JUMPDEST PUSH2 0xCE1 PUSH1 0x1 CALLER PUSH2 0x3981 JUMP JUMPDEST PUSH2 0xCFD JUMPI PUSH1 0x40 MLOAD PUSH3 0x461BCD PUSH1 0xE5 SHL DUP2 MSTORE PUSH1 0x4 ADD PUSH2 0xCBC SWAP1 PUSH2 0x4F29 JUMP JUMPDEST PUSH1 0x1 DUP2 GT ISZERO PUSH2 0xD4E JUMPI PUSH1 0x40 MLOAD PUSH3 0x461BCD PUSH1 0xE5 SHL DUP2 MSTORE PUSH1 0x20 PUSH1 0x4 DUP3 ADD MSTORE PUSH1 0x1A PUSH1 0x24 DUP3 ADD MSTORE PUSH32 0x4C616E63687061643A2073657457686974656C697374506F6F6C000000000000 PUSH1 0x44 DUP3 ADD MSTORE PUSH1 0x64 ADD PUSH2 0xCBC JUMP JUMPDEST PUSH1 0x12 SSTORE JUMP JUMPDEST PUSH2 0xD5E PUSH1 0x1 CALLER PUSH2 0x3981 JUMP JUMPDEST PUSH2 0xD7A JUMPI PUSH1 0x40 MLOAD PUSH3 0x461BCD PUSH1 0xE5 SHL DUP2 MSTORE PUSH1 0x4 ADD PUSH2 0xCBC SWAP1 PUSH2 0x4F29 JUMP JUMPDEST PUSH1 0x0 JUMPDEST DUP2 MLOAD DUP2 LT ISZERO PUSH2 0xDC6 JUMPI PUSH2 0xDB3 DUP3 DUP3 DUP2 MLOAD DUP2 LT PUSH2 0xD9B JUMPI PUSH2 0xD9B PUSH2 0x4F60 JUMP JUMPDEST PUSH1 0x20 MUL PUSH1 0x20 ADD ADD MLOAD PUSH1 0x5 PUSH2 0x39A3 SWAP1 SWAP2 SWAP1 PUSH4 0xFFFFFFFF AND JUMP JUMPDEST POP DUP1 PUSH2 0xDBE DUP2 PUSH2 0x4F76 JUMP JUMPDEST SWAP2 POP POP PUSH2 0xD7D JUMP JUMPDEST POP POP JUMP JUMPDEST PUSH1 0x40 DUP1 MLOAD PUSH1 0x80 DUP2 ADD DUP3 MSTORE PUSH1 0x0 DUP1 DUP3 MSTORE PUSH1 0x20 DUP3 ADD DUP2 SWAP1 MSTORE SWAP2 DUP2 ADD DUP3 SWAP1 MSTORE PUSH1 0x60 DUP2 ADD SWAP2 SWAP1 SWAP2 MSTORE PUSH1 0x40 DUP1 MLOAD PUSH1 0x80 DUP2 ADD DUP3 MSTORE PUSH1 0x0 DUP1 DUP3 MSTORE PUSH1 0x20 DUP3 ADD DUP2 SWAP1 MSTORE SWAP2 DUP2 ADD DUP3 SWAP1 MSTORE PUSH1 0x60 DUP2 ADD SWAP2 SWAP1 SWAP2 MSTORE PUSH1 0x7 SLOAD PUSH1 0x1 PUSH1 0x1 PUSH1 0xA0 SHL SUB DUP5 DUP2 AND SWAP2 AND EQ DUP1 PUSH2 0xE2F JUMPI POP SWAP3 SWAP2 POP POP JUMP JUMPDEST DUP1 ISZERO ISZERO DUP3 MSTORE PUSH1 0x12 SLOAD PUSH1 0x20 DUP4 ADD MSTORE PUSH1 0x17 SLOAD PUSH1 0x1 EQ PUSH1 0x60 DUP4 ADD DUP2 SWAP1 MSTORE DUP1 ISZERO PUSH2 0xE81 JUMPI POP PUSH1 0x10 SLOAD TIMESTAMP LT DUP1 ISZERO PUSH2 0xE65 JUMPI POP PUSH1 0xB SLOAD PUSH1 0x18 SLOAD LT ISZERO JUMPDEST DUP1 PUSH2 0xE81 JUMPI POP PUSH1 0x10 SLOAD TIMESTAMP LT ISZERO DUP1 ISZERO PUSH2 0xE81 JUMPI POP PUSH1 0xA SLOAD PUSH1 0x18 SLOAD LT ISZERO JUMPDEST ISZERO ISZERO PUSH1 0x40 DUP4 ADD MSTORE POP SWAP3 SWAP2 POP POP JUMP JUMPDEST PUSH2 0xE97 PUSH2 0x434F JUMP JUMPDEST PUSH1 0x8 SLOAD PUSH1 0x40 MLOAD PUSH4 0x70A08231 PUSH1 0xE0 SHL DUP2 MSTORE ADDRESS PUSH1 0x4 DUP3 ADD MSTORE PUSH1 0x0 SWAP2 PUSH1 0x1 PUSH1 0x1 PUSH1 0xA0 SHL SUB AND SWAP1 PUSH4 0x70A08231 SWAP1 PUSH1 0x24 ADD PUSH1 0x20 PUSH1 0x40 MLOAD DUP1 DUP4 SUB DUP2 DUP7 GAS STATICCALL ISZERO DUP1 ISZERO PUSH2 0xEE0 JUMPI RETURNDATASIZE PUSH1 0x0 DUP1 RETURNDATACOPY RETURNDATASIZE PUSH1 0x0 REVERT JUMPDEST POP POP POP POP PUSH1 0x40 MLOAD RETURNDATASIZE PUSH1 0x1F NOT PUSH1 0x1F DUP3 ADD AND DUP3 ADD DUP1 PUSH1 0x40 MSTORE POP DUP2 ADD SWAP1 PUSH2 0xF04 SWAP2 SWAP1 PUSH2 0x4F8F JUMP JUMPDEST SWAP1 POP PUSH2 0xF0E PUSH2 0x434F JUMP JUMPDEST PUSH1 0xA SLOAD DUP2 MSTORE PUSH1 0xB SLOAD PUSH1 0x20 DUP3 ADD MSTORE PUSH1 0xF SLOAD PUSH1 0x40 DUP3 ADD MSTORE PUSH1 0x10 SLOAD PUSH1 0x60 DUP3 ADD MSTORE PUSH1 0x17 SLOAD PUSH1 0x80 DUP3 ADD MSTORE PUSH1 0x18 SLOAD PUSH1 0xA0 DUP3 ADD MSTORE PUSH1 0xC0 DUP2 ADD DUP3 SWAP1 MSTORE PUSH1 0x9 SLOAD PUSH1 0x1 PUSH1 0x1 PUSH1 0xA0 SHL SUB AND PUSH1 0xE0 DUP3 ADD MSTORE PUSH1 0x16 SLOAD PUSH2 0x100 DUP3 ADD MSTORE PUSH1 0x12 SLOAD PUSH2 0x120 DUP3 ADD MSTORE PUSH1 0x1F DUP1 SLOAD PUSH2 0xF72 SWAP1 PUSH2 0x4FA8 JUMP JUMPDEST DUP1 PUSH1 0x1F ADD PUSH1 0x20 DUP1 SWAP2 DIV MUL PUSH1 0x20 ADD PUSH1 0x40 MLOAD SWAP1 DUP2 ADD PUSH1 0x40 MSTORE DUP1 SWAP3 SWAP2 SWAP1 DUP2 DUP2 MSTORE PUSH1 0x20 ADD DUP3 DUP1 SLOAD PUSH2 0xF9E SWAP1 PUSH2 0x4FA8 JUMP JUMPDEST DUP1 ISZERO PUSH2 0xFEB JUMPI DUP1 PUSH1 0x1F LT PUSH2 0xFC0 JUMPI PUSH2 0x100 DUP1 DUP4 SLOAD DIV MUL DUP4 MSTORE SWAP2 PUSH1 0x20 ADD SWAP2 PUSH2 0xFEB JUMP JUMPDEST DUP3 ADD SWAP2 SWAP1 PUSH1 0x0 MSTORE PUSH1 0x20 PUSH1 0x0 KECCAK256 SWAP1 JUMPDEST DUP2 SLOAD DUP2 MSTORE SWAP1 PUSH1 0x1 ADD SWAP1 PUSH1 0x20 ADD DUP1 DUP4 GT PUSH2 0xFCE JUMPI DUP3 SWAP1 SUB PUSH1 0x1F AND DUP3 ADD SWAP2 JUMPDEST POP POP POP POP POP DUP2 PUSH2 0x140 ADD DUP2 SWAP1 MSTORE POP PUSH1 0x20 DUP1 SLOAD PUSH2 0x1006 SWAP1 PUSH2 0x4FA8 JUMP JUMPDEST DUP1 PUSH1 0x1F ADD PUSH1 0x20 DUP1 SWAP2 DIV MUL PUSH1 0x20 ADD PUSH1 0x40 MLOAD SWAP1 DUP2 ADD PUSH1 0x40 MSTORE DUP1 SWAP3 SWAP2 SWAP1 DUP2 DUP2 MSTORE PUSH1 0x20 ADD DUP3 DUP1 SLOAD PUSH2 0x1032 SWAP1 PUSH2 0x4FA8 JUMP JUMPDEST DUP1 ISZERO PUSH2 0x107F JUMPI DUP1 PUSH1 0x1F LT PUSH2 0x1054 JUMPI PUSH2 0x100 DUP1 DUP4 SLOAD DIV MUL DUP4 MSTORE SWAP2 PUSH1 0x20 ADD SWAP2 PUSH2 0x107F JUMP JUMPDEST DUP3 ADD SWAP2 SWAP1 PUSH1 0x0 MSTORE PUSH1 0x20 PUSH1 0x0 KECCAK256 SWAP1 JUMPDEST DUP2 SLOAD DUP2 MSTORE SWAP1 PUSH1 0x1 ADD SWAP1 PUSH1 0x20 ADD DUP1 DUP4 GT PUSH2 0x1062 JUMPI DUP3 SWAP1 SUB PUSH1 0x1F AND DUP3 ADD SWAP2 JUMPDEST POP POP POP POP POP DUP2 PUSH2 0x160 ADD DUP2 SWAP1 MSTORE POP PUSH1 0x21 DUP1 SLOAD PUSH2 0x109A SWAP1 PUSH2 0x4FA8 JUMP JUMPDEST DUP1 PUSH1 0x1F ADD PUSH1 0x20 DUP1 SWAP2 DIV MUL PUSH1 0x20 ADD PUSH1 0x40 MLOAD SWAP1 DUP2 ADD PUSH1 0x40 MSTORE DUP1 SWAP3 SWAP2 SWAP1 DUP2 DUP2 MSTORE PUSH1 0x20 ADD DUP3 DUP1 SLOAD PUSH2 0x10C6 SWAP1 PUSH2 0x4FA8 JUMP JUMPDEST DUP1 ISZERO PUSH2 0x1113 JUMPI DUP1 PUSH1 0x1F LT PUSH2 0x10E8 JUMPI PUSH2 0x100 DUP1 DUP4 SLOAD DIV MUL DUP4 MSTORE SWAP2 PUSH1 0x20 ADD SWAP2 PUSH2 0x1113 JUMP JUMPDEST DUP3 ADD SWAP2 SWAP1 PUSH1 0x0 MSTORE PUSH1 0x20 PUSH1 0x0 KECCAK256 SWAP1 JUMPDEST DUP2 SLOAD DUP2 MSTORE SWAP1 PUSH1 0x1 ADD SWAP1 PUSH1 0x20 ADD DUP1 DUP4 GT PUSH2 0x10F6 JUMPI DUP3 SWAP1 SUB PUSH1 0x1F AND DUP3 ADD SWAP2 JUMPDEST POP POP POP POP POP DUP2 PUSH2 0x180 ADD DUP2 SWAP1 MSTORE POP PUSH1 0x22 DUP1 SLOAD PUSH2 0x112E SWAP1 PUSH2 0x4FA8 JUMP JUMPDEST DUP1 PUSH1 0x1F ADD PUSH1 0x20 DUP1 SWAP2 DIV MUL PUSH1 0x20 ADD PUSH1 0x40 MLOAD SWAP1 DUP2 ADD PUSH1 0x40 MSTORE DUP1 SWAP3 SWAP2 SWAP1 DUP2 DUP2 MSTORE PUSH1 0x20 ADD DUP3 DUP1 SLOAD PUSH2 0x115A SWAP1 PUSH2 0x4FA8 JUMP JUMPDEST DUP1 ISZERO PUSH2 0x11A7 JUMPI DUP1 PUSH1 0x1F LT PUSH2 0x117C JUMPI PUSH2 0x100 DUP1 DUP4 SLOAD DIV MUL DUP4 MSTORE SWAP2 PUSH1 0x20 ADD SWAP2 PUSH2 0x11A7 JUMP JUMPDEST DUP3 ADD SWAP2 SWAP1 PUSH1 0x0 MSTORE PUSH1 0x20 PUSH1 0x0 KECCAK256 SWAP1 JUMPDEST DUP2 SLOAD DUP2 MSTORE SWAP1 PUSH1 0x1 ADD SWAP1 PUSH1 0x20 ADD DUP1 DUP4 GT PUSH2 0x118A JUMPI DUP3 SWAP1 SUB PUSH1 0x1F AND DUP3 ADD SWAP2 JUMPDEST POP POP POP POP POP DUP2 PUSH2 0x1A0 ADD DUP2 SWAP1 MSTORE POP PUSH1 0x23 DUP1 SLOAD PUSH2 0x11C2 SWAP1 PUSH2 0x4FA8 JUMP JUMPDEST DUP1 PUSH1 0x1F ADD PUSH1 0x20 DUP1 SWAP2 DIV MUL PUSH1 0x20 ADD PUSH1 0x40 MLOAD SWAP1 DUP2 ADD PUSH1 0x40 MSTORE DUP1 SWAP3 SWAP2 SWAP1 DUP2 DUP2 MSTORE PUSH1 0x20 ADD DUP3 DUP1 SLOAD PUSH2 0x11EE SWAP1 PUSH2 0x4FA8 JUMP JUMPDEST DUP1 ISZERO PUSH2 0x123B JUMPI DUP1 PUSH1 0x1F LT PUSH2 0x1210 JUMPI PUSH2 0x100 DUP1 DUP4 SLOAD DIV MUL DUP4 MSTORE SWAP2 PUSH1 0x20 ADD SWAP2 PUSH2 0x123B JUMP JUMPDEST DUP3 ADD SWAP2 SWAP1 PUSH1 0x0 MSTORE PUSH1 0x20 PUSH1 0x0 KECCAK256 SWAP1 JUMPDEST DUP2 SLOAD DUP2 MSTORE SWAP1 PUSH1 0x1 ADD SWAP1 PUSH1 0x20 ADD DUP1 DUP4 GT PUSH2 0x121E JUMPI DUP3 SWAP1 SUB PUSH1 0x1F AND DUP3 ADD SWAP2 JUMPDEST POP POP POP POP POP DUP2 PUSH2 0x1C0 ADD DUP2 SWAP1 MSTORE POP PUSH1 0x24 DUP1 SLOAD PUSH2 0x1256 SWAP1 PUSH2 0x4FA8 JUMP JUMPDEST DUP1 PUSH1 0x1F ADD PUSH1 0x20 DUP1 SWAP2 DIV MUL PUSH1 0x20 ADD PUSH1 0x40 MLOAD SWAP1 DUP2 ADD PUSH1 0x40 MSTORE DUP1 SWAP3 SWAP2 SWAP1 DUP2 DUP2 MSTORE PUSH1 0x20 ADD DUP3 DUP1 SLOAD PUSH2 0x1282 SWAP1 PUSH2 0x4FA8 JUMP JUMPDEST DUP1 ISZERO PUSH2 0x12CF JUMPI DUP1 PUSH1 0x1F LT PUSH2 0x12A4 JUMPI PUSH2 0x100 DUP1 DUP4 SLOAD DIV MUL DUP4 MSTORE SWAP2 PUSH1 0x20 ADD SWAP2 PUSH2 0x12CF JUMP JUMPDEST DUP3 ADD SWAP2 SWAP1 PUSH1 0x0 MSTORE PUSH1 0x20 PUSH1 0x0 KECCAK256 SWAP1 JUMPDEST DUP2 SLOAD DUP2 MSTORE SWAP1 PUSH1 0x1 ADD SWAP1 PUSH1 0x20 ADD DUP1 DUP4 GT PUSH2 0x12B2 JUMPI DUP3 SWAP1 SUB PUSH1 0x1F AND DUP3 ADD SWAP2 JUMPDEST POP POP POP POP POP DUP2 PUSH2 0x1E0 ADD DUP2 SWAP1 MSTORE POP PUSH1 0x25 DUP1 SLOAD PUSH2 0x12EA SWAP1 PUSH2 0x4FA8 JUMP JUMPDEST DUP1 PUSH1 0x1F ADD PUSH1 0x20 DUP1 SWAP2 DIV MUL PUSH1 0x20 ADD PUSH1 0x40 MLOAD SWAP1 DUP2 ADD PUSH1 0x40 MSTORE DUP1 SWAP3 SWAP2 SWAP1 DUP2 DUP2 MSTORE PUSH1 0x20 ADD DUP3 DUP1 SLOAD PUSH2 0x1316 SWAP1 PUSH2 0x4FA8 JUMP JUMPDEST DUP1 ISZERO PUSH2 0x1363 JUMPI DUP1 PUSH1 0x1F LT PUSH2 0x1338 JUMPI PUSH2 0x100 DUP1 DUP4 SLOAD DIV MUL DUP4 MSTORE SWAP2 PUSH1 0x20 ADD SWAP2 PUSH2 0x1363 JUMP JUMPDEST DUP3 ADD SWAP2 SWAP1 PUSH1 0x0 MSTORE PUSH1 0x20 PUSH1 0x0 KECCAK256 SWAP1 JUMPDEST DUP2 SLOAD DUP2 MSTORE SWAP1 PUSH1 0x1 ADD SWAP1 PUSH1 0x20 ADD DUP1 DUP4 GT PUSH2 0x1346 JUMPI DUP3 SWAP1 SUB PUSH1 0x1F AND DUP3 ADD SWAP2 JUMPDEST POP POP POP POP POP DUP2 PUSH2 0x200 ADD DUP2 SWAP1 MSTORE POP PUSH1 0x26 DUP1 SLOAD PUSH2 0x137E SWAP1 PUSH2 0x4FA8 JUMP JUMPDEST DUP1 PUSH1 0x1F ADD PUSH1 0x20 DUP1 SWAP2 DIV MUL PUSH1 0x20 ADD PUSH1 0x40 MLOAD SWAP1 DUP2 ADD PUSH1 0x40 MSTORE DUP1 SWAP3 SWAP2 SWAP1 DUP2 DUP2 MSTORE PUSH1 0x20 ADD DUP3 DUP1 SLOAD PUSH2 0x13AA SWAP1 PUSH2 0x4FA8 JUMP JUMPDEST DUP1 ISZERO PUSH2 0x13F7 JUMPI DUP1 PUSH1 0x1F LT PUSH2 0x13CC JUMPI PUSH2 0x100 DUP1 DUP4 SLOAD DIV MUL DUP4 MSTORE SWAP2 PUSH1 0x20 ADD SWAP2 PUSH2 0x13F7 JUMP JUMPDEST DUP3 ADD SWAP2 SWAP1 PUSH1 0x0 MSTORE PUSH1 0x20 PUSH1 0x0 KECCAK256 SWAP1 JUMPDEST DUP2 SLOAD DUP2 MSTORE SWAP1 PUSH1 0x1 ADD SWAP1 PUSH1 0x20 ADD DUP1 DUP4 GT PUSH2 0x13DA JUMPI DUP3 SWAP1 SUB PUSH1 0x1F AND DUP3 ADD SWAP2 JUMPDEST POP POP POP POP POP DUP2 PUSH2 0x220 ADD DUP2 SWAP1 MSTORE POP PUSH1 0x27 DUP1 SLOAD PUSH2 0x1412 SWAP1 PUSH2 0x4FA8 JUMP JUMPDEST DUP1 PUSH1 0x1F ADD PUSH1 0x20 DUP1 SWAP2 DIV MUL PUSH1 0x20 ADD PUSH1 0x40 MLOAD SWAP1 DUP2 ADD PUSH1 0x40 MSTORE DUP1 SWAP3 SWAP2 SWAP1 DUP2 DUP2 MSTORE PUSH1 0x20 ADD DUP3 DUP1 SLOAD PUSH2 0x143E SWAP1 PUSH2 0x4FA8 JUMP JUMPDEST DUP1 ISZERO PUSH2 0x148B JUMPI DUP1 PUSH1 0x1F LT PUSH2 0x1460 JUMPI PUSH2 0x100 DUP1 DUP4 SLOAD DIV MUL DUP4 MSTORE SWAP2 PUSH1 0x20 ADD SWAP2 PUSH2 0x148B JUMP JUMPDEST DUP3 ADD SWAP2 SWAP1 PUSH1 0x0 MSTORE PUSH1 0x20 PUSH1 0x0 KECCAK256 SWAP1 JUMPDEST DUP2 SLOAD DUP2 MSTORE SWAP1 PUSH1 0x1 ADD SWAP1 PUSH1 0x20 ADD DUP1 DUP4 GT PUSH2 0x146E JUMPI DUP3 SWAP1 SUB PUSH1 0x1F AND DUP3 ADD SWAP2 JUMPDEST POP POP POP POP POP DUP2 PUSH2 0x240 ADD DUP2 SWAP1 MSTORE POP PUSH1 0x28 DUP1 SLOAD PUSH2 0x14A6 SWAP1 PUSH2 0x4FA8 JUMP JUMPDEST DUP1 PUSH1 0x1F ADD PUSH1 0x20 DUP1 SWAP2 DIV MUL PUSH1 0x20 ADD PUSH1 0x40 MLOAD SWAP1 DUP2 ADD PUSH1 0x40 MSTORE DUP1 SWAP3 SWAP2 SWAP1 DUP2 DUP2 MSTORE PUSH1 0x20 ADD DUP3 DUP1 SLOAD PUSH2 0x14D2 SWAP1 PUSH2 0x4FA8 JUMP JUMPDEST DUP1 ISZERO PUSH2 0x151F JUMPI DUP1 PUSH1 0x1F LT PUSH2 0x14F4 JUMPI PUSH2 0x100 DUP1 DUP4 SLOAD DIV MUL DUP4 MSTORE SWAP2 PUSH1 0x20 ADD SWAP2 PUSH2 0x151F JUMP JUMPDEST DUP3 ADD SWAP2 SWAP1 PUSH1 0x0 MSTORE PUSH1 0x20 PUSH1 0x0 KECCAK256 SWAP1 JUMPDEST DUP2 SLOAD DUP2 MSTORE SWAP1 PUSH1 0x1 ADD SWAP1 PUSH1 0x20 ADD DUP1 DUP4 GT PUSH2 0x1502 JUMPI DUP3 SWAP1 SUB PUSH1 0x1F AND DUP3 ADD SWAP2 JUMPDEST POP POP POP POP POP PUSH2 0x260 DUP3 ADD MSTORE PUSH1 0x8 SLOAD PUSH1 0x1 PUSH1 0x1 PUSH1 0xA0 SHL SUB AND PUSH2 0x280 DUP3 ADD MSTORE PUSH1 0x13 SLOAD PUSH2 0x2A0 DUP3 ADD MSTORE PUSH1 0x1D SLOAD PUSH2 0x2C0 DUP3 ADD MSTORE PUSH1 0x1C SLOAD PUSH2 0x2E0 DUP3 ADD MSTORE PUSH1 0x1E SLOAD PUSH2 0x300 DUP3 ADD MSTORE PUSH1 0xE SLOAD PUSH2 0x320 DUP3 ADD MSTORE PUSH1 0xD SLOAD PUSH2 0x340 DUP3 ADD MSTORE PUSH1 0x31 SLOAD PUSH2 0x360 DUP3 ADD MSTORE PUSH1 0xC SLOAD PUSH2 0x380 DUP3 ADD MSTORE PUSH1 0x2F SLOAD PUSH2 0x3A0 DUP3 ADD MSTORE PUSH1 0x1A SLOAD PUSH1 0xFF AND ISZERO ISZERO PUSH2 0x3C0 DUP3 ADD MSTORE SWAP3 SWAP2 POP POP JUMP JUMPDEST PUSH1 0x25 DUP1 SLOAD PUSH2 0x15AE SWAP1 PUSH2 0x4FA8 JUMP JUMPDEST DUP1 PUSH1 0x1F ADD PUSH1 0x20 DUP1 SWAP2 DIV MUL PUSH1 0x20 ADD PUSH1 0x40 MLOAD SWAP1 DUP2 ADD PUSH1 0x40 MSTORE DUP1 SWAP3 SWAP2 SWAP1 DUP2 DUP2 MSTORE PUSH1 0x20 ADD DUP3 DUP1 SLOAD PUSH2 0x15DA SWAP1 PUSH2 0x4FA8 JUMP JUMPDEST DUP1 ISZERO PUSH2 0x1627 JUMPI DUP1 PUSH1 0x1F LT PUSH2 0x15FC JUMPI PUSH2 0x100 DUP1 DUP4 SLOAD DIV MUL DUP4 MSTORE SWAP2 PUSH1 0x20 ADD SWAP2 PUSH2 0x1627 JUMP JUMPDEST DUP3 ADD SWAP2 SWAP1 PUSH1 0x0 MSTORE PUSH1 0x20 PUSH1 0x0 KECCAK256 SWAP1 JUMPDEST DUP2 SLOAD DUP2 MSTORE SWAP1 PUSH1 0x1 ADD SWAP1 PUSH1 0x20 ADD DUP1 DUP4 GT PUSH2 0x160A JUMPI DUP3 SWAP1 SUB PUSH1 0x1F AND DUP3 ADD SWAP2 JUMPDEST POP POP POP POP POP DUP2 JUMP JUMPDEST PUSH1 0x28 DUP1 SLOAD PUSH2 0x15AE SWAP1 PUSH2 0x4FA8 JUMP JUMPDEST PUSH1 0x27 DUP1 SLOAD PUSH2 0x15AE SWAP1 PUSH2 0x4FA8 JUMP JUMPDEST PUSH2 0x1654 PUSH1 0x1 CALLER PUSH2 0x3981 JUMP JUMPDEST PUSH2 0x1670 JUMPI PUSH1 0x40 MLOAD PUSH3 0x461BCD PUSH1 0xE5 SHL DUP2 MSTORE PUSH1 0x4 ADD PUSH2 0xCBC SWAP1 PUSH2 0x4F29 JUMP JUMPDEST PUSH2 0x1678 PUSH2 0x39B8 JUMP JUMPDEST PUSH2 0x1680 PUSH2 0x3A01 JUMP JUMPDEST JUMP JUMPDEST PUSH2 0x168D PUSH1 0x1 CALLER PUSH2 0x3981 JUMP JUMPDEST PUSH2 0x16A9 JUMPI PUSH1 0x40 MLOAD PUSH3 0x461BCD PUSH1 0xE5 SHL DUP2 MSTORE PUSH1 0x4 ADD PUSH2 0xCBC SWAP1 PUSH2 0x4F29 JUMP JUMPDEST PUSH1 0x17 SLOAD PUSH1 0x2 EQ DUP1 ISZERO PUSH2 0x16BB JUMPI POP PUSH1 0x0 DUP2 GT JUMPDEST PUSH2 0x16F9 JUMPI PUSH1 0x40 MLOAD PUSH3 0x461BCD PUSH1 0xE5 SHL DUP2 MSTORE PUSH1 0x20 PUSH1 0x4 DUP3 ADD MSTORE PUSH1 0xF PUSH1 0x24 DUP3 ADD MSTORE PUSH15 0x6C61756E63687061643A2054494D45 PUSH1 0x88 SHL PUSH1 0x44 DUP3 ADD MSTORE PUSH1 0x64 ADD PUSH2 0xCBC JUMP JUMPDEST PUSH1 0x16 SSTORE JUMP JUMPDEST PUSH2 0x1706 PUSH2 0x3A53 JUMP JUMPDEST CALLER PUSH1 0x0 SWAP1 DUP2 MSTORE PUSH1 0x32 PUSH1 0x20 MSTORE PUSH1 0x40 SWAP1 KECCAK256 PUSH1 0x2 DUP2 ADD SLOAD PUSH1 0x1 DUP3 ADD SLOAD LT PUSH2 0x1761 JUMPI PUSH1 0x40 MLOAD PUSH3 0x461BCD PUSH1 0xE5 SHL DUP2 MSTORE PUSH1 0x20 PUSH1 0x4 DUP3 ADD MSTORE PUSH1 0x12 PUSH1 0x24 DUP3 ADD MSTORE PUSH18 0x1B185D5B98DA1C18590E8810DB185A5B5959 PUSH1 0x72 SHL PUSH1 0x44 DUP3 ADD MSTORE PUSH1 0x64 ADD PUSH2 0xCBC JUMP JUMPDEST PUSH1 0x17 SLOAD PUSH1 0x2 EQ PUSH2 0x17B3 JUMPI PUSH1 0x40 MLOAD PUSH3 0x461BCD PUSH1 0xE5 SHL DUP2 MSTORE PUSH1 0x20 PUSH1 0x4 DUP3 ADD MSTORE PUSH1 0x17 PUSH1 0x24 DUP3 ADD MSTORE PUSH32 0x6C61756E63687061643A204E6F742066696E616C697A65000000000000000000 PUSH1 0x44 DUP3 ADD MSTORE PUSH1 0x64 ADD PUSH2 0xCBC JUMP JUMPDEST PUSH1 0x3 DUP2 ADD SLOAD PUSH1 0xFF AND ISZERO PUSH2 0x17FF JUMPI PUSH1 0x40 MLOAD PUSH3 0x461BCD PUSH1 0xE5 SHL DUP2 MSTORE PUSH1 0x20 PUSH1 0x4 DUP3 ADD MSTORE PUSH1 0x14 PUSH1 0x24 DUP3 ADD MSTORE PUSH20 0x6C61756E63687061643A20526566756E64656421 PUSH1 0x60 SHL PUSH1 0x44 DUP3 ADD MSTORE PUSH1 0x64 ADD PUSH2 0xCBC JUMP JUMPDEST PUSH1 0x40 DUP1 MLOAD PUSH1 0x80 DUP2 ADD DUP3 MSTORE DUP3 SLOAD DUP2 MSTORE PUSH1 0x1 DUP4 ADD SLOAD PUSH1 0x20 DUP3 ADD MSTORE PUSH1 0x2 DUP4 ADD SLOAD SWAP2 DUP2 ADD SWAP2 SWAP1 SWAP2 MSTORE PUSH1 0x3 DUP3 ADD SLOAD PUSH1 0xFF AND ISZERO ISZERO PUSH1 0x60 DUP3 ADD MSTORE PUSH1 0x0 SWAP1 PUSH2 0x183E SWAP1 PUSH2 0x3A99 JUMP JUMPDEST SWAP1 POP PUSH1 0x0 DUP2 GT PUSH2 0x1888 JUMPI PUSH1 0x40 MLOAD PUSH3 0x461BCD PUSH1 0xE5 SHL DUP2 MSTORE PUSH1 0x20 PUSH1 0x4 DUP3 ADD MSTORE PUSH1 0x15 PUSH1 0x24 DUP3 ADD MSTORE PUSH21 0x3630BAB731B43830B21D102D32B937903A37B5B2B7 PUSH1 0x59 SHL PUSH1 0x44 DUP3 ADD MSTORE PUSH1 0x64 ADD PUSH2 0xCBC JUMP JUMPDEST PUSH1 0x0 DUP2 DUP4 PUSH1 0x1 ADD SLOAD PUSH2 0x189A SWAP2 SWAP1 PUSH2 0x4FE2 JUMP JUMPDEST PUSH1 0x1 DUP5 ADD DUP2 SWAP1 SSTORE SWAP1 POP PUSH2 0x18BA CALLER PUSH1 0x8 SLOAD PUSH1 0x1 PUSH1 0x1 PUSH1 0xA0 SHL SUB AND SWAP1 DUP5 PUSH2 0x3BD0 JUMP JUMPDEST POP POP POP JUMP JUMPDEST PUSH2 0x18CA PUSH1 0x1 CALLER PUSH2 0x3981 JUMP JUMPDEST PUSH2 0x18E6 JUMPI PUSH1 0x40 MLOAD PUSH3 0x461BCD PUSH1 0xE5 SHL DUP2 MSTORE PUSH1 0x4 ADD PUSH2 0xCBC SWAP1 PUSH2 0x4F29 JUMP JUMPDEST PUSH1 0x0 JUMPDEST DUP2 MLOAD DUP2 LT ISZERO PUSH2 0xDC6 JUMPI PUSH2 0x191F DUP3 DUP3 DUP2 MLOAD DUP2 LT PUSH2 0x1907 JUMPI PUSH2 0x1907 PUSH2 0x4F60 JUMP JUMPDEST PUSH1 0x20 MUL PUSH1 0x20 ADD ADD MLOAD PUSH1 0x1 PUSH2 0x3C33 SWAP1 SWAP2 SWAP1 PUSH4 0xFFFFFFFF AND JUMP JUMPDEST POP DUP1 PUSH2 0x192A DUP2 PUSH2 0x4F76 JUMP JUMPDEST SWAP2 POP POP PUSH2 0x18E9 JUMP JUMPDEST DUP8 MLOAD PUSH1 0x1 PUSH1 0x1 PUSH1 0xA0 SHL SUB AND PUSH2 0x197C JUMPI PUSH1 0x40 MLOAD PUSH3 0x461BCD PUSH1 0xE5 SHL DUP2 MSTORE PUSH1 0x20 PUSH1 0x4 DUP3 ADD MSTORE PUSH1 0x10 PUSH1 0x24 DUP3 ADD MSTORE PUSH16 0x3630BAB731B43830B21D102A27A5A2A7 PUSH1 0x81 SHL PUSH1 0x44 DUP3 ADD MSTORE PUSH1 0x64 ADD PUSH2 0xCBC JUMP JUMPDEST PUSH1 0x0 DUP9 PUSH1 0x80 ADD MLOAD GT PUSH2 0x19C5 JUMPI PUSH1 0x40 MLOAD PUSH3 0x461BCD PUSH1 0xE5 SHL DUP2 MSTORE PUSH1 0x20 PUSH1 0x4 DUP3 ADD MSTORE PUSH1 0x12 PUSH1 0x24 DUP3 ADD MSTORE PUSH18 0x6C61756E63687061643A2050524553414C45 PUSH1 0x70 SHL PUSH1 0x44 DUP3 ADD MSTORE PUSH1 0x64 ADD PUSH2 0xCBC JUMP JUMPDEST DUP8 PUSH1 0x60 ADD MLOAD DUP9 PUSH1 0x40 ADD MLOAD LT PUSH2 0x1A0D JUMPI PUSH1 0x40 MLOAD PUSH3 0x461BCD PUSH1 0xE5 SHL DUP2 MSTORE PUSH1 0x20 PUSH1 0x4 DUP3 ADD MSTORE PUSH1 0xE PUSH1 0x24 DUP3 ADD MSTORE PUSH14 0x6C61756E63687061643A2043415 PUSH1 0x94 SHL PUSH1 0x44 DUP3 ADD MSTORE PUSH1 0x64 ADD PUSH2 0xCBC JUMP JUMPDEST DUP8 PUSH2 0x100 ADD MLOAD DUP9 PUSH1 0xE0 ADD MLOAD LT PUSH2 0x1A57 JUMPI PUSH1 0x40 MLOAD PUSH3 0x461BCD PUSH1 0xE5 SHL DUP2 MSTORE PUSH1 0x20 PUSH1 0x4 DUP3 ADD MSTORE PUSH1 0xF PUSH1 0x24 DUP3 ADD MSTORE PUSH15 0x6C61756E63687061643A2054494D45 PUSH1 0x88 SHL PUSH1 0x44 DUP3 ADD MSTORE PUSH1 0x64 ADD PUSH2 0xCBC JUMP JUMPDEST DUP8 PUSH1 0xC0 ADD MLOAD DUP9 PUSH1 0xA0 ADD MLOAD LT PUSH2 0x1AA2 JUMPI PUSH1 0x40 MLOAD PUSH3 0x461BCD PUSH1 0xE5 SHL DUP2 MSTORE PUSH1 0x20 PUSH1 0x4 DUP3 ADD MSTORE PUSH1 0x11 PUSH1 0x24 DUP3 ADD MSTORE PUSH17 0x1B185D5B98DA1C18590E881253959154D5 PUSH1 0x7A SHL PUSH1 0x44 DUP3 ADD MSTORE PUSH1 0x64 ADD PUSH2 0xCBC JUMP JUMPDEST PUSH2 0x2710 DUP7 PUSH1 0x80 ADD MLOAD GT ISZERO PUSH2 0x1AED JUMPI PUSH1 0x40 MLOAD PUSH3 0x461BCD PUSH1 0xE5 SHL DUP2 MSTORE PUSH1 0x20 PUSH1 0x4 DUP3 ADD MSTORE PUSH1 0x12 PUSH1 0x24 DUP3 ADD MSTORE PUSH18 0x6C61756E63687061643A204C495354494E47 PUSH1 0x70 SHL PUSH1 0x44 DUP3 ADD MSTORE PUSH1 0x64 ADD PUSH2 0xCBC JUMP JUMPDEST PUSH1 0x40 DUP8 ADD MLOAD DUP8 MLOAD PUSH2 0x2710 SWAP2 PUSH2 0x1B01 SWAP2 PUSH2 0x4FE2 JUMP JUMPDEST GT ISZERO PUSH2 0x1B44 JUMPI PUSH1 0x40 MLOAD PUSH3 0x461BCD PUSH1 0xE5 SHL DUP2 MSTORE PUSH1 0x20 PUSH1 0x4 DUP3 ADD MSTORE PUSH1 0x12 PUSH1 0x24 DUP3 ADD MSTORE PUSH18 0x6C61756E63687061643A2056455354494E47 PUSH1 0x70 SHL PUSH1 0x44 DUP3 ADD MSTORE PUSH1 0x64 ADD PUSH2 0xCBC JUMP JUMPDEST PUSH2 0x1B60 DUP9 PUSH1 0x0 ADD MLOAD DUP10 PUSH1 0x20 ADD MLOAD DUP9 PUSH1 0x20 ADD MLOAD DUP10 PUSH1 0x40 ADD MLOAD PUSH2 0x3C48 JUMP JUMPDEST PUSH2 0x1B7C JUMPI PUSH1 0x40 MLOAD PUSH3 0x461BCD PUSH1 0xE5 SHL DUP2 MSTORE PUSH1 0x4 ADD PUSH2 0xCBC SWAP1 PUSH2 0x4FF5 JUMP JUMPDEST PUSH1 0x30 DUP1 SLOAD PUSH2 0xDEAD PUSH1 0x1 PUSH1 0x1 PUSH1 0xA0 SHL SUB NOT SWAP2 DUP3 AND OR SWAP1 SWAP2 SSTORE PUSH1 0x31 DUP4 SWAP1 SSTORE DUP9 MLOAD PUSH1 0x8 DUP1 SLOAD DUP4 AND PUSH1 0x1 PUSH1 0x1 PUSH1 0xA0 SHL SUB SWAP3 DUP4 AND OR SWAP1 SSTORE PUSH1 0x20 DUP1 DUP12 ADD MLOAD PUSH1 0x9 DUP1 SLOAD SWAP1 SWAP5 AND SWAP3 AND SWAP2 SWAP1 SWAP2 OR SWAP1 SWAP2 SSTORE PUSH1 0x40 DUP1 DUP11 ADD MLOAD PUSH1 0xA SSTORE PUSH1 0x60 DUP11 ADD MLOAD PUSH1 0xB SSTORE PUSH1 0x80 DUP11 ADD MLOAD PUSH1 0xC SSTORE PUSH1 0xA0 DUP11 ADD MLOAD PUSH1 0xD SSTORE PUSH1 0xC0 DUP11 ADD MLOAD PUSH1 0xE SSTORE PUSH1 0xE0 DUP11 ADD MLOAD PUSH1 0xF SSTORE PUSH2 0x100 DUP11 ADD MLOAD PUSH1 0x10 SSTORE PUSH2 0x120 DUP11 ADD MLOAD PUSH1 0x12 SSTORE PUSH2 0x140 DUP11 ADD MLOAD PUSH1 0x11 SSTORE DUP9 MLOAD PUSH1 0x13 SSTORE SWAP1 DUP9 ADD MLOAD PUSH1 0x14 SSTORE DUP8 ADD MLOAD PUSH1 0x15 SSTORE DUP6 MLOAD PUSH1 0x1A DUP1 SLOAD PUSH1 0xFF NOT AND SWAP2 ISZERO ISZERO SWAP2 DUP3 OR SWAP1 SSTORE PUSH1 0xFF AND PUSH2 0x1CD0 JUMPI PUSH2 0x1C57 DUP9 PUSH1 0x0 ADD MLOAD DUP10 PUSH1 0x20 ADD MLOAD DUP9 PUSH1 0x20 ADD MLOAD DUP10 PUSH1 0x40 ADD MLOAD PUSH2 0x3C48 JUMP JUMPDEST PUSH2 0x1C73 JUMPI PUSH1 0x40 MLOAD PUSH3 0x461BCD PUSH1 0xE5 SHL DUP2 MSTORE PUSH1 0x4 ADD PUSH2 0xCBC SWAP1 PUSH2 0x4FF5 JUMP JUMPDEST PUSH1 0x20 DUP7 ADD MLOAD PUSH1 0x1B DUP1 SLOAD PUSH1 0x1 PUSH1 0x1 PUSH1 0xA0 SHL SUB SWAP3 DUP4 AND PUSH1 0x1 PUSH1 0x1 PUSH1 0xA0 SHL SUB NOT SWAP1 SWAP2 AND OR SWAP1 SSTORE PUSH1 0x40 DUP8 ADD MLOAD PUSH1 0x1A DUP1 SLOAD SWAP2 SWAP1 SWAP3 AND PUSH2 0x100 MUL PUSH2 0x100 PUSH1 0x1 PUSH1 0xA8 SHL SUB NOT SWAP1 SWAP2 AND OR SWAP1 SSTORE PUSH1 0x60 DUP7 ADD MLOAD PUSH1 0x1C SSTORE PUSH1 0x80 DUP7 ADD MLOAD PUSH1 0x1D SSTORE PUSH1 0xA0 DUP7 ADD MLOAD PUSH1 0x1E SSTORE JUMPDEST DUP5 MLOAD PUSH1 0x2C SSTORE PUSH1 0x20 DUP6 ADD MLOAD PUSH1 0x2D SSTORE PUSH1 0x19 DUP2 SWAP1 SSTORE DUP3 MLOAD PUSH1 0x1F SWAP1 PUSH2 0x1CF1 SWAP1 DUP3 PUSH2 0x5071 JUMP JUMPDEST POP PUSH1 0x20 DUP1 DUP5 ADD MLOAD PUSH2 0x1D02 SWAP1 DUP3 PUSH2 0x5071 JUMP JUMPDEST POP PUSH1 0x40 DUP4 ADD MLOAD PUSH1 0x21 SWAP1 PUSH2 0x1D15 SWAP1 DUP3 PUSH2 0x5071 JUMP JUMPDEST POP PUSH1 0x60 DUP4 ADD MLOAD PUSH1 0x22 SWAP1 PUSH2 0x1D28 SWAP1 DUP3 PUSH2 0x5071 JUMP JUMPDEST POP PUSH1 0x80 DUP4 ADD MLOAD PUSH1 0x23 SWAP1 PUSH2 0x1D3B SWAP1 DUP3 PUSH2 0x5071 JUMP JUMPDEST POP PUSH1 0xA0 DUP4 ADD MLOAD PUSH1 0x24 SWAP1 PUSH2 0x1D4E SWAP1 DUP3 PUSH2 0x5071 JUMP JUMPDEST POP PUSH1 0xC0 DUP4 ADD MLOAD PUSH1 0x25 SWAP1 PUSH2 0x1D61 SWAP1 DUP3 PUSH2 0x5071 JUMP JUMPDEST POP PUSH1 0xE0 DUP4 ADD MLOAD PUSH1 0x26 SWAP1 PUSH2 0x1D74 SWAP1 DUP3 PUSH2 0x5071 JUMP JUMPDEST POP PUSH2 0x100 DUP4 ADD MLOAD PUSH1 0x27 SWAP1 PUSH2 0x1D88 SWAP1 DUP3 PUSH2 0x5071 JUMP JUMPDEST POP PUSH2 0x120 DUP4 ADD MLOAD PUSH1 0x28 SWAP1 PUSH2 0x1D9C SWAP1 DUP3 PUSH2 0x5071 JUMP JUMPDEST POP PUSH1 0x1 PUSH1 0x17 DUP2 SWAP1 SSTORE DUP5 MLOAD PUSH2 0x1DB0 SWAP2 SWAP1 PUSH2 0x3C33 JUMP JUMPDEST POP PUSH1 0x20 DUP5 ADD MLOAD PUSH2 0x1DC2 SWAP1 PUSH1 0x1 SWAP1 PUSH2 0x3C33 JUMP JUMPDEST POP PUSH1 0x20 DUP5 ADD MLOAD PUSH2 0x1DD4 SWAP1 PUSH1 0x3 SWAP1 PUSH2 0x3C33 JUMP JUMPDEST POP POP POP POP PUSH1 0x40 DUP2 ADD MLOAD PUSH1 0x2E DUP1 SLOAD PUSH1 0x1 PUSH1 0x1 PUSH1 0xA0 SHL SUB NOT SWAP1 DUP2 AND PUSH1 0x1 PUSH1 0x1 PUSH1 0xA0 SHL SUB SWAP4 DUP5 AND OR SWAP1 SWAP2 SSTORE DUP3 MLOAD PUSH1 0x7 DUP1 SLOAD DUP4 AND SWAP2 DUP5 AND SWAP2 SWAP1 SWAP2 OR SWAP1 SSTORE PUSH1 0x60 SWAP1 SWAP3 ADD MLOAD PUSH1 0x29 DUP1 SLOAD SWAP1 SWAP4 AND SWAP2 AND OR SWAP1 SSTORE POP POP POP POP JUMP JUMPDEST PUSH2 0x1E30 PUSH1 0x1 CALLER PUSH2 0x3981 JUMP JUMPDEST PUSH2 0x1E4C JUMPI PUSH1 0x40 MLOAD PUSH3 0x461BCD PUSH1 0xE5 SHL DUP2 MSTORE PUSH1 0x4 ADD PUSH2 0xCBC SWAP1 PUSH2 0x4F29 JUMP JUMPDEST PUSH1 0x17 SLOAD PUSH1 0x3 EQ PUSH2 0x1E96 JUMPI PUSH1 0x40 MLOAD PUSH3 0x461BCD PUSH1 0xE5 SHL DUP2 MSTORE PUSH1 0x20 PUSH1 0x4 DUP3 ADD MSTORE PUSH1 0x15 PUSH1 0x24 DUP3 ADD MSTORE PUSH21 0x1B185D5B98DA1C18590E88139BDD0818D85B98D95B PUSH1 0x5A SHL PUSH1 0x44 DUP3 ADD MSTORE PUSH1 0x64 ADD PUSH2 0xCBC JUMP JUMPDEST PUSH1 0x8 SLOAD PUSH1 0x40 MLOAD PUSH4 0x70A08231 PUSH1 0xE0 SHL DUP2 MSTORE ADDRESS PUSH1 0x4 DUP3 ADD MSTORE PUSH1 0x0 SWAP2 PUSH1 0x1 PUSH1 0x1 PUSH1 0xA0 SHL SUB AND SWAP1 PUSH4 0x70A08231 SWAP1 PUSH1 0x24 ADD PUSH1 0x20 PUSH1 0x40 MLOAD DUP1 DUP4 SUB DUP2 DUP7 GAS STATICCALL ISZERO DUP1 ISZERO PUSH2 0x1EDF JUMPI RETURNDATASIZE PUSH1 0x0 DUP1 RETURNDATACOPY RETURNDATASIZE PUSH1 0x0 REVERT JUMPDEST POP POP POP POP PUSH1 0x40 MLOAD RETURNDATASIZE PUSH1 0x1F NOT PUSH1 0x1F DUP3 ADD AND DUP3 ADD DUP1 PUSH1 0x40 MSTORE POP DUP2 ADD SWAP1 PUSH2 0x1F03 SWAP2 SWAP1 PUSH2 0x4F8F JUMP JUMPDEST SWAP1 POP PUSH1 0x0 DUP2 GT PUSH2 0x1F4A JUMPI PUSH1 0x40 MLOAD PUSH3 0x461BCD PUSH1 0xE5 SHL DUP2 MSTORE PUSH1 0x20 PUSH1 0x4 DUP3 ADD MSTORE PUSH1 0x12 PUSH1 0x24 DUP3 ADD MSTORE PUSH18 0x1B185D5B98DA1C18590E8810DB185A5B5959 PUSH1 0x72 SHL PUSH1 0x44 DUP3 ADD MSTORE PUSH1 0x64 ADD PUSH2 0xCBC JUMP JUMPDEST DUP1 ISZERO PUSH2 0x1F67 JUMPI PUSH2 0x1F67 CALLER PUSH1 0x8 SLOAD PUSH1 0x1 PUSH1 0x1 PUSH1 0xA0 SHL SUB AND SWAP1 DUP4 PUSH2 0x3BD0 JUMP JUMPDEST POP JUMP JUMPDEST PUSH1 0x20 DUP1 SLOAD PUSH2 0x15AE SWAP1 PUSH2 0x4FA8 JUMP JUMPDEST PUSH1 0x24 DUP1 SLOAD PUSH2 0x15AE SWAP1 PUSH2 0x4FA8 JUMP JUMPDEST PUSH1 0x21 DUP1 SLOAD PUSH2 0x15AE SWAP1 PUSH2 0x4FA8 JUMP JUMPDEST PUSH2 0x1F9C PUSH1 0x1 CALLER PUSH2 0x3981 JUMP JUMPDEST PUSH2 0x1FB8 JUMPI PUSH1 0x40 MLOAD PUSH3 0x461BCD PUSH1 0xE5 SHL DUP2 MSTORE PUSH1 0x4 ADD PUSH2 0xCBC SWAP1 PUSH2 0x4F29 JUMP JUMPDEST PUSH2 0x1FC0 PUSH2 0x3A53 JUMP JUMPDEST PUSH2 0x1680 PUSH2 0x3E41 JUMP JUMPDEST PUSH2 0x1FD3 PUSH1 0x3 CALLER PUSH2 0x3981 JUMP JUMPDEST PUSH2 0x1FEF JUMPI PUSH1 0x40 MLOAD PUSH3 0x461BCD PUSH1 0xE5 SHL DUP2 MSTORE PUSH1 0x4 ADD PUSH2 0xCBC SWAP1 PUSH2 0x4ECD JUMP JUMPDEST PUSH1 0x2E DUP1 SLOAD PUSH1 0x1 PUSH1 0x1 PUSH1 0xA0 SHL SUB NOT AND PUSH1 0x1 PUSH1 0x1 PUSH1 0xA0 SHL SUB SWAP3 SWAP1 SWAP3 AND SWAP2 SWAP1 SWAP2 OR SWAP1 SSTORE JUMP JUMPDEST PUSH2 0x2019 PUSH2 0x3A53 JUMP JUMPDEST CALLER PUSH1 0x0 SWAP1 DUP2 MSTORE PUSH1 0x32 PUSH1 0x20 MSTORE PUSH1 0x40 SWAP1 KECCAK256 PUSH1 0x17 SLOAD PUSH1 0x3 EQ DUP1 PUSH2 0x2048 JUMPI POP PUSH1 0xA SLOAD PUSH1 0x18 SLOAD LT DUP1 ISZERO PUSH2 0x2048 JUMPI POP PUSH1 0x10 SLOAD TIMESTAMP GT JUMPDEST PUSH2 0x2051 JUMPI PUSH1 0x0 DUP1 REVERT JUMPDEST PUSH1 0x3 DUP2 ADD SLOAD PUSH1 0xFF AND ISZERO PUSH2 0x209C JUMPI PUSH1 0x40 MLOAD PUSH3 0x461BCD PUSH1 0xE5 SHL DUP2 MSTORE PUSH1 0x20 PUSH1 0x4 DUP3 ADD MSTORE PUSH1 0x13 PUSH1 0x24 DUP3 ADD MSTORE PUSH19 0x1B185D5B98DA1C18590E881499599D5B991959 PUSH1 0x6A SHL PUSH1 0x44 DUP3 ADD MSTORE PUSH1 0x64 ADD PUSH2 0xCBC JUMP JUMPDEST DUP1 SLOAD PUSH2 0x20E2 JUMPI PUSH1 0x40 MLOAD PUSH3 0x461BCD PUSH1 0xE5 SHL DUP2 MSTORE PUSH1 0x20 PUSH1 0x4 DUP3 ADD MSTORE PUSH1 0x15 PUSH1 0x24 DUP3 ADD MSTORE PUSH21 0x1B185D5B98DA1C18590E88139BDD08125B9D995CDD PUSH1 0x5A SHL PUSH1 0x44 DUP3 ADD MSTORE PUSH1 0x64 ADD PUSH2 0xCBC JUMP JUMPDEST DUP1 SLOAD PUSH1 0x3 DUP3 ADD DUP1 SLOAD PUSH1 0xFF NOT AND PUSH1 0x1 OR SWAP1 SSTORE PUSH1 0x0 PUSH1 0x2 DUP4 ADD DUP2 SWAP1 SSTORE DUP3 SSTORE PUSH1 0x18 SLOAD PUSH2 0x210C SWAP1 DUP3 SWAP1 PUSH2 0x5130 JUMP JUMPDEST PUSH1 0x18 SSTORE PUSH1 0x2 DUP3 ADD SLOAD PUSH1 0x2F SLOAD PUSH2 0x2121 SWAP2 SWAP1 PUSH2 0x5130 JUMP JUMPDEST PUSH1 0x2F SSTORE PUSH2 0x2131 CALLER JUMPDEST PUSH1 0x33 SWAP1 PUSH2 0x39A3 JUMP JUMPDEST POP PUSH1 0x9 SLOAD PUSH1 0x1 PUSH1 0x1 PUSH1 0xA0 SHL SUB AND PUSH2 0x21CC JUMPI PUSH1 0x0 SELFBALANCE GT PUSH2 0x2192 JUMPI PUSH1 0x40 MLOAD PUSH3 0x461BCD PUSH1 0xE5 SHL DUP2 MSTORE PUSH1 0x20 PUSH1 0x4 DUP3 ADD MSTORE PUSH1 0x1B PUSH1 0x24 DUP3 ADD MSTORE PUSH32 0x6C61756E63687061643A20496E73756666696369656E7420626C630000000000 PUSH1 0x44 DUP3 ADD MSTORE PUSH1 0x64 ADD PUSH2 0xCBC JUMP JUMPDEST CALLER JUMPDEST PUSH1 0x1 PUSH1 0x1 PUSH1 0xA0 SHL SUB AND PUSH2 0x8FC DUP3 SWAP1 DUP2 ISZERO MUL SWAP1 PUSH1 0x40 MLOAD PUSH1 0x0 PUSH1 0x40 MLOAD DUP1 DUP4 SUB DUP2 DUP6 DUP9 DUP9 CALL SWAP4 POP POP POP POP ISZERO DUP1 ISZERO PUSH2 0x18BA JUMPI RETURNDATASIZE PUSH1 0x0 DUP1 RETURNDATACOPY RETURNDATASIZE PUSH1 0x0 REVERT JUMPDEST PUSH1 0x9 SLOAD PUSH1 0x40 MLOAD PUSH4 0x70A08231 PUSH1 0xE0 SHL DUP2 MSTORE ADDRESS PUSH1 0x4 DUP3 ADD MSTORE PUSH1 0x1 PUSH1 0x1 PUSH1 0xA0 SHL SUB SWAP1 SWAP2 AND SWAP1 DUP3 SWAP1 DUP3 SWAP1 PUSH4 0x70A08231 SWAP1 PUSH1 0x24 ADD PUSH1 0x20 PUSH1 0x40 MLOAD DUP1 DUP4 SUB DUP2 DUP7 GAS STATICCALL ISZERO DUP1 ISZERO PUSH2 0x2218 JUMPI RETURNDATASIZE PUSH1 0x0 DUP1 RETURNDATACOPY RETURNDATASIZE PUSH1 0x0 REVERT JUMPDEST POP POP POP POP PUSH1 0x40 MLOAD RETURNDATASIZE PUSH1 0x1F NOT PUSH1 0x1F DUP3 ADD AND DUP3 ADD DUP1 PUSH1 0x40 MSTORE POP DUP2 ADD SWAP1 PUSH2 0x223C SWAP2 SWAP1 PUSH2 0x4F8F JUMP JUMPDEST LT ISZERO PUSH2 0x228A JUMPI PUSH1 0x40 MLOAD PUSH3 0x461BCD PUSH1 0xE5 SHL DUP2 MSTORE PUSH1 0x20 PUSH1 0x4 DUP3 ADD MSTORE PUSH1 0x1F PUSH1 0x24 DUP3 ADD MSTORE PUSH32 0x6C61756E63687061643A20496E73756666696369656E742042616C616E636500 PUSH1 0x44 DUP3 ADD MSTORE PUSH1 0x64 ADD PUSH2 0xCBC JUMP JUMPDEST PUSH2 0x18BA CALLER JUMPDEST PUSH1 0x1 PUSH1 0x1 PUSH1 0xA0 SHL SUB DUP4 AND SWAP1 DUP5 PUSH2 0x3BD0 JUMP JUMPDEST PUSH1 0x8 SLOAD PUSH1 0x9 SLOAD PUSH1 0x1B SLOAD PUSH1 0x1A SLOAD PUSH1 0x0 SWAP4 PUSH2 0x22D3 SWAP4 PUSH1 0x1 PUSH1 0x1 PUSH1 0xA0 SHL SUB SWAP2 DUP3 AND SWAP4 SWAP1 DUP3 AND SWAP3 SWAP1 DUP3 AND SWAP2 PUSH2 0x100 SWAP1 SWAP2 DIV AND PUSH2 0x3C48 JUMP JUMPDEST SWAP1 POP SWAP1 JUMP JUMPDEST PUSH1 0x22 DUP1 SLOAD PUSH2 0x15AE SWAP1 PUSH2 0x4FA8 JUMP JUMPDEST PUSH2 0x22F0 PUSH1 0x3 CALLER PUSH2 0x3981 JUMP JUMPDEST PUSH2 0x230C JUMPI PUSH1 0x40 MLOAD PUSH3 0x461BCD PUSH1 0xE5 SHL DUP2 MSTORE PUSH1 0x4 ADD PUSH2 0xCBC SWAP1 PUSH2 0x4ECD JUMP JUMPDEST PUSH1 0x1A DUP1 SLOAD PUSH2 0x100 PUSH1 0x1 PUSH1 0xA8 SHL SUB NOT AND PUSH2 0x100 PUSH1 0x1 PUSH1 0x1 PUSH1 0xA0 SHL SUB SWAP5 DUP6 AND MUL OR SWAP1 SSTORE PUSH1 0x1B DUP1 SLOAD PUSH1 0x1 PUSH1 0x1 PUSH1 0xA0 SHL SUB NOT AND SWAP2 SWAP1 SWAP3 AND OR SWAP1 SSTORE JUMP JUMPDEST PUSH1 0x60 PUSH1 0x0 DUP1 PUSH2 0x2353 PUSH1 0x33 PUSH2 0x3E7E JUMP JUMPDEST SWAP1 POP DUP1 PUSH1 0x0 SUB PUSH2 0x2373 JUMPI POP POP PUSH1 0x40 DUP1 MLOAD PUSH1 0x0 DUP2 MSTORE PUSH1 0x20 DUP2 ADD SWAP1 SWAP2 MSTORE SWAP2 SWAP1 POP JUMP JUMPDEST PUSH1 0x0 PUSH2 0x237F DUP4 DUP4 PUSH2 0x5130 JUMP JUMPDEST SWAP1 POP PUSH1 0x0 DUP2 PUSH1 0x1 PUSH1 0x1 PUSH1 0x40 SHL SUB DUP2 GT ISZERO PUSH2 0x239B JUMPI PUSH2 0x239B PUSH2 0x4462 JUMP JUMPDEST PUSH1 0x40 MLOAD SWAP1 DUP1 DUP3 MSTORE DUP1 PUSH1 0x20 MUL PUSH1 0x20 ADD DUP3 ADD PUSH1 0x40 MSTORE DUP1 ISZERO PUSH2 0x23C4 JUMPI DUP2 PUSH1 0x20 ADD PUSH1 0x20 DUP3 MUL DUP1 CALLDATASIZE DUP4 CALLDATACOPY ADD SWAP1 POP JUMPDEST POP SWAP1 POP PUSH1 0x0 DUP5 JUMPDEST DUP5 DUP2 LT ISZERO PUSH2 0x2428 JUMPI PUSH2 0x23DE PUSH1 0x33 DUP3 PUSH2 0x3E88 JUMP JUMPDEST DUP4 DUP4 DUP2 MLOAD DUP2 LT PUSH2 0x23F0 JUMPI PUSH2 0x23F0 PUSH2 0x4F60 JUMP JUMPDEST PUSH1 0x1 PUSH1 0x1 PUSH1 0xA0 SHL SUB SWAP1 SWAP3 AND PUSH1 0x20 SWAP3 DUP4 MUL SWAP2 SWAP1 SWAP2 ADD SWAP1 SWAP2 ADD MSTORE DUP2 PUSH2 0x2412 DUP2 PUSH2 0x4F76 JUMP JUMPDEST SWAP3 POP POP DUP1 DUP1 PUSH2 0x2420 SWAP1 PUSH2 0x4F76 JUMP JUMPDEST SWAP2 POP POP PUSH2 0x23CB JUMP JUMPDEST POP SWAP1 SWAP6 SWAP5 POP POP POP POP POP JUMP JUMPDEST PUSH1 0x26 DUP1 SLOAD PUSH2 0x15AE SWAP1 PUSH2 0x4FA8 JUMP JUMPDEST PUSH2 0x244B PUSH1 0x1 CALLER PUSH2 0x3981 JUMP JUMPDEST PUSH2 0x2467 JUMPI PUSH1 0x40 MLOAD PUSH3 0x461BCD PUSH1 0xE5 SHL DUP2 MSTORE PUSH1 0x4 ADD PUSH2 0xCBC SWAP1 PUSH2 0x4F29 JUMP JUMPDEST PUSH1 0x0 JUMPDEST DUP2 MLOAD DUP2 LT ISZERO PUSH2 0xDC6 JUMPI PUSH2 0x24A0 DUP3 DUP3 DUP2 MLOAD DUP2 LT PUSH2 0x2488 JUMPI PUSH2 0x2488 PUSH2 0x4F60 JUMP JUMPDEST PUSH1 0x20 MUL PUSH1 0x20 ADD ADD MLOAD PUSH1 0x5 PUSH2 0x3C33 SWAP1 SWAP2 SWAP1 PUSH4 0xFFFFFFFF AND JUMP JUMPDEST POP DUP1 PUSH2 0x24AB DUP2 PUSH2 0x4F76 JUMP JUMPDEST SWAP2 POP POP PUSH2 0x246A JUMP JUMPDEST PUSH2 0x24BE PUSH1 0x1 CALLER PUSH2 0x3981 JUMP JUMPDEST PUSH2 0x24DA JUMPI PUSH1 0x40 MLOAD PUSH3 0x461BCD PUSH1 0xE5 SHL DUP2 MSTORE PUSH1 0x4 ADD PUSH2 0xCBC SWAP1 PUSH2 0x4F29 JUMP JUMPDEST PUSH1 0x17 SLOAD PUSH1 0x1 EQ PUSH2 0x24FC JUMPI PUSH1 0x40 MLOAD PUSH3 0x461BCD PUSH1 0xE5 SHL DUP2 MSTORE PUSH1 0x4 ADD PUSH2 0xCBC SWAP1 PUSH2 0x5143 JUMP JUMPDEST DUP1 MLOAD PUSH1 0x1F SWAP1 PUSH2 0x250B SWAP1 DUP3 PUSH2 0x5071 JUMP JUMPDEST POP PUSH1 0x20 DUP1 DUP3 ADD MLOAD PUSH2 0x251C SWAP1 DUP3 PUSH2 0x5071 JUMP JUMPDEST POP PUSH1 0x40 DUP2 ADD MLOAD PUSH1 0x21 SWAP1 PUSH2 0x252F SWAP1 DUP3 PUSH2 0x5071 JUMP JUMPDEST POP PUSH1 0x60 DUP2 ADD MLOAD PUSH1 0x22 SWAP1 PUSH2 0x2542 SWAP1 DUP3 PUSH2 0x5071 JUMP JUMPDEST POP PUSH1 0x80 DUP2 ADD MLOAD PUSH1 0x23 SWAP1 PUSH2 0x2555 SWAP1 DUP3 PUSH2 0x5071 JUMP JUMPDEST POP PUSH1 0xA0 DUP2 ADD MLOAD PUSH1 0x24 SWAP1 PUSH2 0x2568 SWAP1 DUP3 PUSH2 0x5071 JUMP JUMPDEST POP PUSH1 0xC0 DUP2 ADD MLOAD PUSH1 0x25 SWAP1 PUSH2 0x257B SWAP1 DUP3 PUSH2 0x5071 JUMP JUMPDEST POP PUSH1 0xE0 DUP2 ADD MLOAD PUSH1 0x26 SWAP1 PUSH2 0x258E SWAP1 DUP3 PUSH2 0x5071 JUMP JUMPDEST POP PUSH2 0x100 DUP2 ADD MLOAD PUSH1 0x27 SWAP1 PUSH2 0x25A2 SWAP1 DUP3 PUSH2 0x5071 JUMP JUMPDEST POP PUSH2 0x120 DUP2 ADD MLOAD PUSH1 0x28 SWAP1 PUSH2 0xDC6 SWAP1 DUP3 PUSH2 0x5071 JUMP JUMPDEST PUSH2 0x25C1 PUSH1 0x1 CALLER PUSH2 0x3981 JUMP JUMPDEST PUSH2 0x25DD JUMPI PUSH1 0x40 MLOAD PUSH3 0x461BCD PUSH1 0xE5 SHL DUP2 MSTORE PUSH1 0x4 ADD PUSH2 0xCBC SWAP1 PUSH2 0x4F29 JUMP JUMPDEST PUSH1 0x0 JUMPDEST DUP2 MLOAD DUP2 LT ISZERO PUSH2 0xDC6 JUMPI PUSH2 0x2616 DUP3 DUP3 DUP2 MLOAD DUP2 LT PUSH2 0x25FE JUMPI PUSH2 0x25FE PUSH2 0x4F60 JUMP JUMPDEST PUSH1 0x20 MUL PUSH1 0x20 ADD ADD MLOAD PUSH1 0x1 PUSH2 0x39A3 SWAP1 SWAP2 SWAP1 PUSH4 0xFFFFFFFF AND JUMP JUMPDEST POP DUP1 PUSH2 0x2621 DUP2 PUSH2 0x4F76 JUMP JUMPDEST SWAP2 POP POP PUSH2 0x25E0 JUMP JUMPDEST PUSH1 0x0 PUSH2 0x22D3 PUSH1 0x5 PUSH2 0x3E7E JUMP JUMPDEST PUSH2 0x2640 PUSH1 0x1 CALLER PUSH2 0x3981 JUMP JUMPDEST PUSH2 0x265C JUMPI PUSH1 0x40 MLOAD PUSH3 0x461BCD PUSH1 0xE5 SHL DUP2 MSTORE PUSH1 0x4 ADD PUSH2 0xCBC SWAP1 PUSH2 0x4F29 JUMP JUMPDEST PUSH1 0x17 SLOAD PUSH1 0x1 EQ PUSH2 0x267E JUMPI PUSH1 0x40 MLOAD PUSH3 0x461BCD PUSH1 0xE5 SHL DUP2 MSTORE PUSH1 0x4 ADD PUSH2 0xCBC SWAP1 PUSH2 0x5143 JUMP JUMPDEST PUSH1 0x3 PUSH1 0x17 SSTORE JUMP JUMPDEST PUSH2 0x2690 PUSH1 0x3 CALLER PUSH2 0x3981 JUMP JUMPDEST PUSH2 0x26AC JUMPI PUSH1 0x40 MLOAD PUSH3 0x461BCD PUSH1 0xE5 SHL DUP2 MSTORE PUSH1 0x4 ADD PUSH2 0xCBC SWAP1 PUSH2 0x4ECD JUMP JUMPDEST PUSH1 0x0 DUP2 GT PUSH2 0x26F8 JUMPI PUSH1 0x40 MLOAD PUSH3 0x461BCD PUSH1 0xE5 SHL DUP2 MSTORE PUSH1 0x20 PUSH1 0x4 DUP3 ADD MSTORE PUSH1 0x19 PUSH1 0x24 DUP3 ADD MSTORE PUSH25 0x1B185D5B98DA1C18590E88125B9D985B1A5908185B5BDD5B9D PUSH1 0x3A SHL PUSH1 0x44 DUP3 ADD MSTORE PUSH1 0x64 ADD PUSH2 0xCBC JUMP JUMPDEST PUSH1 0x1 PUSH1 0x1 PUSH1 0xA0 SHL SUB DUP3 AND PUSH2 0x270C JUMPI CALLER PUSH2 0x2194 JUMP JUMPDEST DUP2 PUSH2 0x18BA CALLER PUSH2 0x228F JUMP JUMPDEST PUSH2 0x271E PUSH2 0x3A53 JUMP JUMPDEST PUSH1 0x17 SLOAD PUSH1 0x1 EQ PUSH2 0x2740 JUMPI PUSH1 0x40 MLOAD PUSH3 0x461BCD PUSH1 0xE5 SHL DUP2 MSTORE PUSH1 0x4 ADD PUSH2 0xCBC SWAP1 PUSH2 0x5143 JUMP JUMPDEST CALLER PUSH1 0x0 SWAP1 DUP2 MSTORE PUSH1 0x32 PUSH1 0x20 MSTORE PUSH1 0x40 SWAP1 KECCAK256 PUSH1 0xF SLOAD TIMESTAMP LT DUP1 ISZERO SWAP1 PUSH2 0x2763 JUMPI POP TIMESTAMP PUSH1 0x10 SLOAD LT ISZERO JUMPDEST PUSH2 0x27A9 JUMPI PUSH1 0x40 MLOAD PUSH3 0x461BCD PUSH1 0xE5 SHL DUP2 MSTORE PUSH1 0x20 PUSH1 0x4 DUP3 ADD MSTORE PUSH1 0x17 PUSH1 0x24 DUP3 ADD MSTORE PUSH23 0x6C61756E63687061643A20496E76616C69642074696D65 PUSH1 0x48 SHL PUSH1 0x44 DUP3 ADD MSTORE PUSH1 0x64 ADD PUSH2 0xCBC JUMP JUMPDEST PUSH1 0x3 DUP2 ADD SLOAD PUSH1 0xFF AND ISZERO PUSH2 0x27F4 JUMPI PUSH1 0x40 MLOAD PUSH3 0x461BCD PUSH1 0xE5 SHL DUP2 MSTORE PUSH1 0x20 PUSH1 0x4 DUP3 ADD MSTORE PUSH1 0x13 PUSH1 0x24 DUP3 ADD MSTORE PUSH19 0x1B185D5B98DA1C18590E881499599D5B991959 PUSH1 0x6A SHL PUSH1 0x44 DUP3 ADD MSTORE PUSH1 0x64 ADD PUSH2 0xCBC JUMP JUMPDEST DUP1 SLOAD PUSH2 0x2842 JUMPI PUSH1 0x40 MLOAD PUSH3 0x461BCD PUSH1 0xE5 SHL DUP2 MSTORE PUSH1 0x20 PUSH1 0x4 DUP3 ADD MSTORE PUSH1 0x19 PUSH1 0x24 DUP3 ADD MSTORE PUSH32 0x6C61756E63687061643A204E6F7420636F6E7472696275746500000000000000 PUSH1 0x44 DUP3 ADD MSTORE PUSH1 0x64 ADD PUSH2 0xCBC JUMP JUMPDEST PUSH1 0x0 PUSH2 0x2710 PUSH1 0x19 SLOAD DUP4 PUSH1 0x0 ADD SLOAD PUSH2 0x2859 SWAP2 SWAP1 PUSH2 0x4F12 JUMP JUMPDEST PUSH2 0x2863 SWAP2 SWAP1 PUSH2 0x517A JUMP JUMPDEST SWAP1 POP PUSH1 0x0 DUP2 DUP4 PUSH1 0x0 ADD SLOAD PUSH2 0x2877 SWAP2 SWAP1 PUSH2 0x5130 JUMP JUMPDEST DUP4 SLOAD PUSH1 0x18 SLOAD SWAP2 SWAP3 POP PUSH2 0x2888 SWAP2 PUSH2 0x5130 JUMP JUMPDEST PUSH1 0x18 SSTORE PUSH1 0x2 DUP4 ADD SLOAD PUSH1 0x2F SLOAD PUSH2 0x289D SWAP2 SWAP1 PUSH2 0x5130 JUMP JUMPDEST PUSH1 0x2F SSTORE PUSH1 0x3 DUP4 ADD DUP1 SLOAD PUSH1 0xFF NOT AND PUSH1 0x1 OR SWAP1 SSTORE PUSH1 0x0 PUSH1 0x2 DUP5 ADD DUP2 SWAP1 SSTORE DUP4 SSTORE PUSH2 0x28C4 PUSH2 0x2129 CALLER SWAP1 JUMP JUMPDEST POP PUSH1 0x0 DUP2 GT PUSH2 0x2915 JUMPI PUSH1 0x40 MLOAD PUSH3 0x461BCD PUSH1 0xE5 SHL DUP2 MSTORE PUSH1 0x20 PUSH1 0x4 DUP3 ADD MSTORE PUSH1 0x1C PUSH1 0x24 DUP3 ADD MSTORE PUSH32 0x6C61756E63687061643A20496E76616C696420726620616D6F756E7400000000 PUSH1 0x44 DUP3 ADD MSTORE PUSH1 0x64 ADD PUSH2 0xCBC JUMP JUMPDEST PUSH1 0x9 SLOAD PUSH1 0x1 PUSH1 0x1 PUSH1 0xA0 SHL SUB AND PUSH2 0x29A0 JUMPI DUP1 ISZERO PUSH2 0x295A JUMPI PUSH1 0x40 MLOAD CALLER SWAP1 DUP3 ISZERO PUSH2 0x8FC MUL SWAP1 DUP4 SWAP1 PUSH1 0x0 DUP2 DUP2 DUP2 DUP6 DUP9 DUP9 CALL SWAP4 POP POP POP POP ISZERO DUP1 ISZERO PUSH2 0x2958 JUMPI RETURNDATASIZE PUSH1 0x0 DUP1 RETURNDATACOPY RETURNDATASIZE PUSH1 0x0 REVERT JUMPDEST POP JUMPDEST DUP2 ISZERO PUSH2 0x18BA JUMPI PUSH1 0x2E SLOAD PUSH1 0x40 MLOAD PUSH1 0x1 PUSH1 0x1 PUSH1 0xA0 SHL SUB SWAP1 SWAP2 AND SWAP1 DUP4 ISZERO PUSH2 0x8FC MUL SWAP1 DUP5 SWAP1 PUSH1 0x0 DUP2 DUP2 DUP2 DUP6 DUP9 DUP9 CALL SWAP4 POP POP POP POP ISZERO DUP1 ISZERO PUSH2 0x299A JUMPI RETURNDATASIZE PUSH1 0x0 DUP1 RETURNDATACOPY RETURNDATASIZE PUSH1 0x0 REVERT JUMPDEST POP POP POP POP JUMP JUMPDEST PUSH1 0x9 SLOAD PUSH1 0x1 PUSH1 0x1 PUSH1 0xA0 SHL SUB AND DUP2 ISZERO PUSH2 0x29BB JUMPI PUSH2 0x29BB CALLER PUSH2 0x228F JUMP JUMPDEST DUP3 ISZERO PUSH2 0x299A JUMPI PUSH1 0x2E SLOAD PUSH2 0x299A SWAP1 PUSH1 0x1 PUSH1 0x1 PUSH1 0xA0 SHL SUB DUP4 DUP2 AND SWAP2 AND DUP6 PUSH2 0x3BD0 JUMP JUMPDEST PUSH2 0x29E3 PUSH2 0x3A53 JUMP JUMPDEST PUSH1 0x17 SLOAD PUSH1 0x1 EQ PUSH2 0x2A05 JUMPI PUSH1 0x40 MLOAD PUSH3 0x461BCD PUSH1 0xE5 SHL DUP2 MSTORE PUSH1 0x4 ADD PUSH2 0xCBC SWAP1 PUSH2 0x5143 JUMP JUMPDEST TIMESTAMP PUSH1 0xF SLOAD GT ISZERO DUP1 ISZERO PUSH2 0x2A19 JUMPI POP TIMESTAMP PUSH1 0x10 SLOAD LT ISZERO JUMPDEST PUSH2 0x2A5F JUMPI PUSH1 0x40 MLOAD PUSH3 0x461BCD PUSH1 0xE5 SHL DUP2 MSTORE PUSH1 0x20 PUSH1 0x4 DUP3 ADD MSTORE PUSH1 0x17 PUSH1 0x24 DUP3 ADD MSTORE PUSH23 0x6C61756E63687061643A20496E76616C69642074696D65 PUSH1 0x48 SHL PUSH1 0x44 DUP3 ADD MSTORE PUSH1 0x64 ADD PUSH2 0xCBC JUMP JUMPDEST PUSH1 0x12 SLOAD PUSH1 0x1 SUB PUSH2 0x2ACC JUMPI PUSH2 0x2A74 PUSH1 0x5 CALLER PUSH2 0x3981 JUMP JUMPDEST PUSH2 0x2ACC JUMPI PUSH1 0x40 MLOAD PUSH3 0x461BCD PUSH1 0xE5 SHL DUP2 MSTORE PUSH1 0x20 PUSH1 0x4 DUP3 ADD MSTORE PUSH1 0x23 PUSH1 0x24 DUP3 ADD MSTORE PUSH32 0x6C61756E63687061643A20596F7520617265206E6F7420696E2077686974656C PUSH1 0x44 DUP3 ADD MSTORE PUSH3 0x1A5CDD PUSH1 0xEA SHL PUSH1 0x64 DUP3 ADD MSTORE PUSH1 0x84 ADD PUSH2 0xCBC JUMP JUMPDEST CALLER PUSH1 0x0 SWAP1 DUP2 MSTORE PUSH1 0x32 PUSH1 0x20 MSTORE PUSH1 0x40 SWAP1 KECCAK256 PUSH1 0xD SLOAD DUP2 SLOAD PUSH2 0x2AEB SWAP1 DUP5 SWAP1 PUSH2 0x4FE2 JUMP JUMPDEST LT ISZERO DUP1 ISZERO PUSH2 0x2B07 JUMPI POP PUSH1 0xE SLOAD DUP2 SLOAD PUSH2 0x2B04 SWAP1 DUP5 SWAP1 PUSH2 0x4FE2 JUMP JUMPDEST GT ISZERO JUMPDEST PUSH2 0x2B4F JUMPI PUSH1 0x40 MLOAD PUSH3 0x461BCD PUSH1 0xE5 SHL DUP2 MSTORE PUSH1 0x20 PUSH1 0x4 DUP3 ADD MSTORE PUSH1 0x19 PUSH1 0x24 DUP3 ADD MSTORE PUSH25 0x1B185D5B98DA1C18590E88125B9D985B1A5908185B5BDD5B9D PUSH1 0x3A SHL PUSH1 0x44 DUP3 ADD MSTORE PUSH1 0x64 ADD PUSH2 0xCBC JUMP JUMPDEST PUSH1 0xB SLOAD DUP3 PUSH1 0x18 SLOAD PUSH2 0x2B60 SWAP2 SWAP1 PUSH2 0x4FE2 JUMP JUMPDEST GT ISZERO PUSH2 0x2BAE JUMPI PUSH1 0x40 MLOAD PUSH3 0x461BCD PUSH1 0xE5 SHL DUP2 MSTORE PUSH1 0x20 PUSH1 0x4 DUP3 ADD MSTORE PUSH1 0x18 PUSH1 0x24 DUP3 ADD MSTORE PUSH32 0x6C61756E63687061643A204D6565742068617264206361700000000000000000 PUSH1 0x44 DUP3 ADD MSTORE PUSH1 0x64 ADD PUSH2 0xCBC JUMP JUMPDEST DUP1 SLOAD PUSH2 0x2BBB SWAP1 DUP4 SWAP1 PUSH2 0x4FE2 JUMP JUMPDEST DUP2 SSTORE PUSH1 0x0 PUSH2 0x2BC8 DUP4 PUSH2 0x3E94 JUMP JUMPDEST SWAP1 POP DUP1 PUSH1 0x2F SLOAD PUSH2 0x2BD8 SWAP2 SWAP1 PUSH2 0x4FE2 JUMP JUMPDEST PUSH1 0x2F SSTORE PUSH1 0x2 DUP3 ADD SLOAD PUSH2 0x2BEB SWAP1 DUP3 SWAP1 PUSH2 0x4FE2 JUMP JUMPDEST PUSH1 0x2 DUP4 ADD SSTORE PUSH1 0x3 DUP3 ADD DUP1 SLOAD PUSH1 0xFF NOT AND SWAP1 SSTORE PUSH1 0x18 SLOAD PUSH2 0x2C0A SWAP1 DUP5 SWAP1 PUSH2 0x4FE2 JUMP JUMPDEST PUSH1 0x18 SSTORE PUSH2 0x2C18 PUSH1 0x33 CALLER PUSH2 0x3981 JUMP JUMPDEST PUSH2 0x2C29 JUMPI PUSH2 0x2C27 PUSH1 0x33 CALLER PUSH2 0x3C33 JUMP JUMPDEST POP JUMPDEST PUSH1 0x9 SLOAD PUSH1 0x1 PUSH1 0x1 PUSH1 0xA0 SHL SUB AND PUSH2 0x2C89 JUMPI DUP3 CALLVALUE LT ISZERO PUSH2 0x18BA JUMPI PUSH1 0x40 MLOAD PUSH3 0x461BCD PUSH1 0xE5 SHL DUP2 MSTORE PUSH1 0x20 PUSH1 0x4 DUP3 ADD MSTORE PUSH1 0x19 PUSH1 0x24 DUP3 ADD MSTORE PUSH32 0x6C61756E63687061643A20496E76616C696420416D6F756E7400000000000000 PUSH1 0x44 DUP3 ADD MSTORE PUSH1 0x64 ADD PUSH2 0xCBC JUMP JUMPDEST PUSH1 0x9 SLOAD PUSH1 0x1 PUSH1 0x1 PUSH1 0xA0 SHL SUB AND PUSH2 0x299A DUP2 CALLER ADDRESS DUP8 PUSH2 0x3F4A JUMP JUMPDEST PUSH1 0x1 PUSH1 0x1 PUSH1 0xA0 SHL SUB DUP2 AND PUSH1 0x0 SWAP1 DUP2 MSTORE PUSH1 0x32 PUSH1 0x20 SWAP1 DUP2 MSTORE PUSH1 0x40 DUP1 DUP4 KECCAK256 DUP2 MLOAD PUSH1 0x80 DUP2 ADD DUP4 MSTORE DUP2 SLOAD DUP2 MSTORE PUSH1 0x1 DUP3 ADD SLOAD SWAP4 DUP2 ADD SWAP4 SWAP1 SWAP4 MSTORE PUSH1 0x2 DUP2 ADD SLOAD SWAP2 DUP4 ADD SWAP2 SWAP1 SWAP2 MSTORE PUSH1 0x3 DUP2 ADD SLOAD PUSH1 0xFF AND ISZERO ISZERO PUSH1 0x60 DUP4 ADD MSTORE SWAP1 PUSH2 0x2CF9 SWAP1 PUSH2 0x3A99 JUMP JUMPDEST SWAP4 SWAP3 POP POP POP JUMP JUMPDEST PUSH1 0x1F DUP1 SLOAD PUSH2 0x15AE SWAP1 PUSH2 0x4FA8 JUMP JUMPDEST PUSH1 0x60 PUSH2 0x22D3 PUSH1 0x1 PUSH2 0x3F82 JUMP JUMPDEST PUSH1 0x23 DUP1 SLOAD PUSH2 0x15AE SWAP1 PUSH2 0x4FA8 JUMP JUMPDEST PUSH2 0x2D31 PUSH1 0x1 CALLER PUSH2 0x3981 JUMP JUMPDEST PUSH2 0x2D4D JUMPI PUSH1 0x40 MLOAD PUSH3 0x461BCD PUSH1 0xE5 SHL DUP2 MSTORE PUSH1 0x4 ADD PUSH2 0xCBC SWAP1 PUSH2 0x4F29 JUMP JUMPDEST PUSH1 0x17 SLOAD PUSH1 0x1 EQ PUSH2 0x2D6F JUMPI PUSH1 0x40 MLOAD PUSH3 0x461BCD PUSH1 0xE5 SHL DUP2 MSTORE PUSH1 0x4 ADD PUSH2 0xCBC SWAP1 PUSH2 0x5143 JUMP JUMPDEST PUSH1 0xF SLOAD TIMESTAMP GT PUSH2 0x2DB7 JUMPI PUSH1 0x40 MLOAD PUSH3 0x461BCD PUSH1 0xE5 SHL DUP2 MSTORE PUSH1 0x20 PUSH1 0x4 DUP3 ADD MSTORE PUSH1 0x14 PUSH1 0x24 DUP3 ADD MSTORE PUSH20 0x1B185D5B98DA1C18590E88139BDD081CDD185C9D PUSH1 0x62 SHL PUSH1 0x44 DUP3 ADD MSTORE PUSH1 0x64 ADD PUSH2 0xCBC JUMP JUMPDEST PUSH1 0x10 SLOAD TIMESTAMP LT ISZERO PUSH2 0x2E15 JUMPI PUSH1 0xB SLOAD PUSH1 0x18 SLOAD LT ISZERO PUSH2 0x2E15 JUMPI PUSH1 0x40 MLOAD PUSH3 0x461BCD PUSH1 0xE5 SHL DUP2 MSTORE PUSH1 0x20 PUSH1 0x4 DUP3 ADD MSTORE PUSH1 0x19 PUSH1 0x24 DUP3 ADD MSTORE PUSH32 0x6C61756E63687061643A2043616E27742066696E616C697A6500000000000000 PUSH1 0x44 DUP3 ADD MSTORE PUSH1 0x64 ADD PUSH2 0xCBC JUMP JUMPDEST PUSH1 0x10 SLOAD TIMESTAMP LT PUSH2 0x2E72 JUMPI PUSH1 0xA SLOAD PUSH1 0x18 SLOAD LT ISZERO PUSH2 0x2E72 JUMPI PUSH1 0x40 MLOAD PUSH3 0x461BCD PUSH1 0xE5 SHL DUP2 MSTORE PUSH1 0x20 PUSH1 0x4 DUP3 ADD MSTORE PUSH1 0x1C PUSH1 0x24 DUP3 ADD MSTORE PUSH32 0x6C61756E63687061643A204E6F74206D65657420736F66742063617000000000 PUSH1 0x44 DUP3 ADD MSTORE PUSH1 0x64 ADD PUSH2 0xCBC JUMP JUMPDEST PUSH1 0x2 PUSH1 0x17 SSTORE PUSH1 0x9 SLOAD PUSH1 0x12 SWAP1 PUSH1 0x1 PUSH1 0x1 PUSH1 0xA0 SHL SUB AND ISZERO PUSH2 0x2F08 JUMPI PUSH1 0x9 PUSH1 0x0 SWAP1 SLOAD SWAP1 PUSH2 0x100 EXP SWAP1 DIV PUSH1 0x1 PUSH1 0x1 PUSH1 0xA0 SHL SUB AND PUSH1 0x1 PUSH1 0x1 PUSH1 0xA0 SHL SUB AND PUSH4 0x313CE567 PUSH1 0x40 MLOAD DUP2 PUSH4 0xFFFFFFFF AND PUSH1 0xE0 SHL DUP2 MSTORE PUSH1 0x4 ADD PUSH1 0x20 PUSH1 0x40 MLOAD DUP1 DUP4 SUB DUP2 DUP7 GAS STATICCALL ISZERO DUP1 ISZERO PUSH2 0x2EDE JUMPI RETURNDATASIZE PUSH1 0x0 DUP1 RETURNDATACOPY RETURNDATASIZE PUSH1 0x0 REVERT JUMPDEST POP POP POP POP PUSH1 0x40 MLOAD RETURNDATASIZE PUSH1 0x1F NOT PUSH1 0x1F DUP3 ADD AND DUP3 ADD DUP1 PUSH1 0x40 MSTORE POP DUP2 ADD SWAP1 PUSH2 0x2F02 SWAP2 SWAP1 PUSH2 0x519C JUMP JUMPDEST PUSH1 0xFF AND SWAP1 POP JUMPDEST PUSH1 0x0 PUSH2 0x2710 PUSH2 0x2F18 DUP4 PUSH1 0xA PUSH2 0x52A3 JUMP JUMPDEST PUSH1 0x2D SLOAD PUSH1 0xC SLOAD PUSH1 0x18 SLOAD PUSH2 0x2F2B SWAP2 SWAP1 PUSH2 0x4F12 JUMP JUMPDEST PUSH2 0x2F35 SWAP2 SWAP1 PUSH2 0x4F12 JUMP JUMPDEST PUSH2 0x2F3F SWAP2 SWAP1 PUSH2 0x517A JUMP JUMPDEST PUSH2 0x2F49 SWAP2 SWAP1 PUSH2 0x517A JUMP JUMPDEST SWAP1 POP PUSH1 0x0 PUSH2 0x2710 PUSH1 0x2C SLOAD PUSH1 0x18 SLOAD PUSH2 0x2F60 SWAP2 SWAP1 PUSH2 0x4F12 JUMP JUMPDEST PUSH2 0x2F6A SWAP2 SWAP1 PUSH2 0x517A JUMP JUMPDEST SWAP1 POP PUSH1 0x0 PUSH2 0x2710 PUSH1 0x1D SLOAD DUP4 PUSH1 0x18 SLOAD PUSH2 0x2F82 SWAP2 SWAP1 PUSH2 0x5130 JUMP JUMPDEST PUSH2 0x2F8C SWAP2 SWAP1 PUSH2 0x4F12 JUMP JUMPDEST PUSH2 0x2F96 SWAP2 SWAP1 PUSH2 0x517A JUMP JUMPDEST SWAP1 POP PUSH1 0x0 DUP2 DUP4 PUSH1 0x18 SLOAD PUSH2 0x2FA9 SWAP2 SWAP1 PUSH2 0x5130 JUMP JUMPDEST PUSH2 0x2FB3 SWAP2 SWAP1 PUSH2 0x5130 JUMP JUMPDEST SWAP1 POP PUSH1 0x0 PUSH2 0x2FC2 DUP7 PUSH1 0xA PUSH2 0x52A3 JUMP JUMPDEST PUSH1 0x1C SLOAD PUSH2 0x2FCF SWAP1 DUP6 PUSH2 0x4F12 JUMP JUMPDEST PUSH2 0x2FD9 SWAP2 SWAP1 PUSH2 0x517A JUMP JUMPDEST PUSH1 0x8 SLOAD PUSH1 0x40 MLOAD PUSH4 0x70A08231 PUSH1 0xE0 SHL DUP2 MSTORE ADDRESS PUSH1 0x4 DUP3 ADD MSTORE SWAP2 SWAP3 POP PUSH1 0x0 SWAP2 PUSH1 0x1 PUSH1 0x1 PUSH1 0xA0 SHL SUB SWAP1 SWAP2 AND SWAP1 PUSH4 0x70A08231 SWAP1 PUSH1 0x24 ADD PUSH1 0x20 PUSH1 0x40 MLOAD DUP1 DUP4 SUB DUP2 DUP7 GAS STATICCALL ISZERO DUP1 ISZERO PUSH2 0x3027 JUMPI RETURNDATASIZE PUSH1 0x0 DUP1 RETURNDATACOPY RETURNDATASIZE PUSH1 0x0 REVERT JUMPDEST POP POP POP POP PUSH1 0x40 MLOAD RETURNDATASIZE PUSH1 0x1F NOT PUSH1 0x1F DUP3 ADD AND DUP3 ADD DUP1 PUSH1 0x40 MSTORE POP DUP2 ADD SWAP1 PUSH2 0x304B SWAP2 SWAP1 PUSH2 0x4F8F JUMP JUMPDEST SWAP1 POP PUSH1 0x0 DUP7 PUSH1 0x2F SLOAD DUP5 DUP5 PUSH2 0x305F SWAP2 SWAP1 PUSH2 0x5130 JUMP JUMPDEST PUSH2 0x3069 SWAP2 SWAP1 PUSH2 0x5130 JUMP JUMPDEST PUSH2 0x3073 SWAP2 SWAP1 PUSH2 0x5130 JUMP JUMPDEST SWAP1 POP DUP7 ISZERO PUSH2 0x3098 JUMPI PUSH1 0x2E SLOAD PUSH1 0x8 SLOAD PUSH2 0x3098 SWAP2 PUSH1 0x1 PUSH1 0x1 PUSH1 0xA0 SHL SUB SWAP2 DUP3 AND SWAP2 AND DUP10 PUSH2 0x3BD0 JUMP JUMPDEST DUP1 ISZERO PUSH2 0x30E7 JUMPI PUSH1 0x11 SLOAD PUSH1 0x0 SUB PUSH2 0x30CA JUMPI PUSH1 0x30 SLOAD PUSH1 0x8 SLOAD PUSH2 0x30C5 SWAP2 PUSH1 0x1 PUSH1 0x1 PUSH1 0xA0 SHL SUB SWAP2 DUP3 AND SWAP2 AND DUP4 PUSH2 0x3BD0 JUMP JUMPDEST PUSH2 0x30E7 JUMP JUMPDEST PUSH1 0x7 SLOAD PUSH1 0x8 SLOAD PUSH2 0x30E7 SWAP2 PUSH1 0x1 PUSH1 0x1 PUSH1 0xA0 SHL SUB SWAP2 DUP3 AND SWAP2 AND DUP4 PUSH2 0x3BD0 JUMP JUMPDEST PUSH1 0x9 SLOAD PUSH1 0x1 PUSH1 0x1 PUSH1 0xA0 SHL SUB AND PUSH2 0x3180 JUMPI DUP4 ISZERO PUSH2 0x3139 JUMPI PUSH1 0x7 SLOAD PUSH1 0x40 MLOAD PUSH1 0x1 PUSH1 0x1 PUSH1 0xA0 SHL SUB SWAP1 SWAP2 AND SWAP1 DUP6 ISZERO PUSH2 0x8FC MUL SWAP1 DUP7 SWAP1 PUSH1 0x0 DUP2 DUP2 DUP2 DUP6 DUP9 DUP9 CALL SWAP4 POP POP POP POP ISZERO DUP1 ISZERO PUSH2 0x3137 JUMPI RETURNDATASIZE PUSH1 0x0 DUP1 RETURNDATACOPY RETURNDATASIZE PUSH1 0x0 REVERT JUMPDEST POP JUMPDEST DUP6 ISZERO PUSH2 0x317B JUMPI PUSH1 0x2E SLOAD PUSH1 0x40 MLOAD PUSH1 0x1 PUSH1 0x1 PUSH1 0xA0 SHL SUB SWAP1 SWAP2 AND SWAP1 DUP8 ISZERO PUSH2 0x8FC MUL SWAP1 DUP9 SWAP1 PUSH1 0x0 DUP2 DUP2 DUP2 DUP6 DUP9 DUP9 CALL SWAP4 POP POP POP POP ISZERO DUP1 ISZERO PUSH2 0x3179 JUMPI RETURNDATASIZE PUSH1 0x0 DUP1 RETURNDATACOPY RETURNDATASIZE PUSH1 0x0 REVERT JUMPDEST POP JUMPDEST PUSH2 0x31C6 JUMP JUMPDEST DUP4 ISZERO PUSH2 0x31A3 JUMPI PUSH1 0x7 SLOAD PUSH1 0x9 SLOAD PUSH2 0x31A3 SWAP2 PUSH1 0x1 PUSH1 0x1 PUSH1 0xA0 SHL SUB SWAP2 DUP3 AND SWAP2 AND DUP7 PUSH2 0x3BD0 JUMP JUMPDEST DUP6 ISZERO PUSH2 0x31C6 JUMPI PUSH1 0x2E SLOAD PUSH1 0x9 SLOAD PUSH2 0x31C6 SWAP2 PUSH1 0x1 PUSH1 0x1 PUSH1 0xA0 SHL SUB SWAP2 DUP3 AND SWAP2 AND DUP9 PUSH2 0x3BD0 JUMP JUMPDEST PUSH1 0x1A SLOAD PUSH1 0xFF AND PUSH2 0x3862 JUMPI PUSH1 0x31 DUP4 SWAP1 SSTORE TIMESTAMP PUSH1 0x16 SSTORE PUSH1 0x8 SLOAD PUSH1 0x1B SLOAD PUSH1 0x40 MLOAD PUSH4 0x95EA7B3 PUSH1 0xE0 SHL DUP2 MSTORE PUSH1 0x1 PUSH1 0x1 PUSH1 0xA0 SHL SUB SWAP2 DUP3 AND PUSH1 0x4 DUP3 ADD MSTORE PUSH1 0x24 DUP2 ADD DUP7 SWAP1 MSTORE SWAP2 AND SWAP1 PUSH4 0x95EA7B3 SWAP1 PUSH1 0x44 ADD PUSH1 0x20 PUSH1 0x40 MLOAD DUP1 DUP4 SUB DUP2 PUSH1 0x0 DUP8 GAS CALL ISZERO DUP1 ISZERO PUSH2 0x322E JUMPI RETURNDATASIZE PUSH1 0x0 DUP1 RETURNDATACOPY RETURNDATASIZE PUSH1 0x0 REVERT JUMPDEST POP POP POP POP PUSH1 0x40 MLOAD RETURNDATASIZE PUSH1 0x1F NOT PUSH1 0x1F DUP3 ADD AND DUP3 ADD DUP1 PUSH1 0x40 MSTORE POP DUP2 ADD SWAP1 PUSH2 0x3252 SWAP2 SWAP1 PUSH2 0x52AF JUMP JUMPDEST POP PUSH1 0x8 SLOAD PUSH1 0x9 SLOAD PUSH1 0x1B SLOAD PUSH1 0x1A SLOAD PUSH2 0x3280 SWAP4 PUSH1 0x1 PUSH1 0x1 PUSH1 0xA0 SHL SUB SWAP1 DUP2 AND SWAP4 DUP2 AND SWAP3 DUP2 AND SWAP2 PUSH2 0x100 SWAP1 DIV AND PUSH2 0x3C48 JUMP JUMPDEST PUSH2 0x329C JUMPI PUSH1 0x40 MLOAD PUSH3 0x461BCD PUSH1 0xE5 SHL DUP2 MSTORE PUSH1 0x4 ADD PUSH2 0xCBC SWAP1 PUSH2 0x4FF5 JUMP JUMPDEST PUSH1 0x1B SLOAD PUSH1 0x1A SLOAD PUSH1 0x9 SLOAD PUSH1 0x1 PUSH1 0x1 PUSH1 0xA0 SHL SUB SWAP3 DUP4 AND SWAP3 PUSH2 0x100 SWAP1 SWAP3 DIV DUP3 AND SWAP2 PUSH1 0x0 SWAP2 DUP3 SWAP2 AND PUSH2 0x3485 JUMPI PUSH1 0x8 SLOAD PUSH1 0x1 PUSH1 0x1 PUSH1 0xA0 SHL SUB DUP1 DUP7 AND SWAP2 PUSH4 0xF305D719 SWAP2 DUP13 SWAP2 AND DUP11 PUSH1 0x0 DUP1 ADDRESS PUSH2 0x32ED TIMESTAMP PUSH2 0x12C PUSH2 0x4FE2 JUMP JUMPDEST PUSH1 0x40 MLOAD PUSH1 0xE0 DUP10 SWAP1 SHL PUSH1 0x1 PUSH1 0x1 PUSH1 0xE0 SHL SUB NOT AND DUP2 MSTORE PUSH1 0x1 PUSH1 0x1 PUSH1 0xA0 SHL SUB SWAP7 DUP8 AND PUSH1 0x4 DUP3 ADD MSTORE PUSH1 0x24 DUP2 ADD SWAP6 SWAP1 SWAP6 MSTORE PUSH1 0x44 DUP6 ADD SWAP4 SWAP1 SWAP4 MSTORE PUSH1 0x64 DUP5 ADD SWAP2 SWAP1 SWAP2 MSTORE SWAP1 SWAP3 AND PUSH1 0x84 DUP3 ADD MSTORE PUSH1 0xA4 DUP2 ADD SWAP2 SWAP1 SWAP2 MSTORE PUSH1 0xC4 ADD PUSH1 0x60 PUSH1 0x40 MLOAD DUP1 DUP4 SUB DUP2 DUP6 DUP9 GAS CALL ISZERO DUP1 ISZERO PUSH2 0x335A JUMPI RETURNDATASIZE PUSH1 0x0 DUP1 RETURNDATACOPY RETURNDATASIZE PUSH1 0x0 REVERT JUMPDEST POP POP POP POP POP PUSH1 0x40 MLOAD RETURNDATASIZE PUSH1 0x1F NOT PUSH1 0x1F DUP3 ADD AND DUP3 ADD DUP1 PUSH1 0x40 MSTORE POP DUP2 ADD SWAP1 PUSH2 0x337F SWAP2 SWAP1 PUSH2 0x52CC JUMP JUMPDEST SWAP1 SWAP2 POP SWAP1 POP DUP1 SWAP2 POP POP DUP3 PUSH1 0x1 PUSH1 0x1 PUSH1 0xA0 SHL SUB AND PUSH4 0xE6A43905 PUSH1 0x8 PUSH1 0x0 SWAP1 SLOAD SWAP1 PUSH2 0x100 EXP SWAP1 DIV PUSH1 0x1 PUSH1 0x1 PUSH1 0xA0 SHL SUB AND DUP7 PUSH1 0x1 PUSH1 0x1 PUSH1 0xA0 SHL SUB AND PUSH4 0xAD5C4648 PUSH1 0x40 MLOAD DUP2 PUSH4 0xFFFFFFFF AND PUSH1 0xE0 SHL DUP2 MSTORE PUSH1 0x4 ADD PUSH1 0x20 PUSH1 0x40 MLOAD DUP1 DUP4 SUB DUP2 DUP7 GAS STATICCALL ISZERO DUP1 ISZERO PUSH2 0x33EB JUMPI RETURNDATASIZE PUSH1 0x0 DUP1 RETURNDATACOPY RETURNDATASIZE PUSH1 0x0 REVERT JUMPDEST POP POP POP POP PUSH1 0x40 MLOAD RETURNDATASIZE PUSH1 0x1F NOT PUSH1 0x1F DUP3 ADD AND DUP3 ADD DUP1 PUSH1 0x40 MSTORE POP DUP2 ADD SWAP1 PUSH2 0x340F SWAP2 SWAP1 PUSH2 0x52FA JUMP JUMPDEST PUSH1 0x40 MLOAD PUSH1 0x1 PUSH1 0x1 PUSH1 0xE0 SHL SUB NOT PUSH1 0xE0 DUP6 SWAP1 SHL AND DUP2 MSTORE PUSH1 0x1 PUSH1 0x1 PUSH1 0xA0 SHL SUB SWAP3 DUP4 AND PUSH1 0x4 DUP3 ADD MSTORE SWAP2 AND PUSH1 0x24 DUP3 ADD MSTORE PUSH1 0x44 ADD PUSH1 0x20 PUSH1 0x40 MLOAD DUP1 DUP4 SUB DUP2 DUP7 GAS STATICCALL ISZERO DUP1 ISZERO PUSH2 0x345A JUMPI RETURNDATASIZE PUSH1 0x0 DUP1 RETURNDATACOPY RETURNDATASIZE PUSH1 0x0 REVERT JUMPDEST POP POP POP POP PUSH1 0x40 MLOAD RETURNDATASIZE PUSH1 0x1F NOT PUSH1 0x1F DUP3 ADD AND DUP3 ADD DUP1 PUSH1 0x40 MSTORE POP DUP2 ADD SWAP1 PUSH2 0x347E SWAP2 SWAP1 PUSH2 0x52FA JUMP JUMPDEST SWAP2 POP PUSH2 0x364E JUMP JUMPDEST PUSH1 0x9 SLOAD PUSH1 0x1B SLOAD PUSH1 0x40 MLOAD PUSH4 0x95EA7B3 PUSH1 0xE0 SHL DUP2 MSTORE PUSH1 0x1 PUSH1 0x1 PUSH1 0xA0 SHL SUB SWAP2 DUP3 AND PUSH1 0x4 DUP3 ADD MSTORE PUSH1 0x24 DUP2 ADD DUP13 SWAP1 MSTORE SWAP2 AND SWAP1 PUSH4 0x95EA7B3 SWAP1 PUSH1 0x44 ADD PUSH1 0x20 PUSH1 0x40 MLOAD DUP1 DUP4 SUB DUP2 PUSH1 0x0 DUP8 GAS CALL ISZERO DUP1 ISZERO PUSH2 0x34DA JUMPI RETURNDATASIZE PUSH1 0x0 DUP1 RETURNDATACOPY RETURNDATASIZE PUSH1 0x0 REVERT JUMPDEST POP POP POP POP PUSH1 0x40 MLOAD RETURNDATASIZE PUSH1 0x1F NOT PUSH1 0x1F DUP3 ADD AND DUP3 ADD DUP1 PUSH1 0x40 MSTORE POP DUP2 ADD SWAP1 PUSH2 0x34FE SWAP2 SWAP1 PUSH2 0x52AF JUMP JUMPDEST POP PUSH1 0x8 SLOAD PUSH1 0x9 SLOAD PUSH1 0x1 PUSH1 0x1 PUSH1 0xA0 SHL SUB DUP1 DUP8 AND SWAP3 PUSH4 0xE8E33700 SWAP3 SWAP1 DUP3 AND SWAP2 AND DUP11 DUP14 PUSH1 0x0 DUP1 ADDRESS PUSH2 0x352E TIMESTAMP PUSH2 0x12C PUSH2 0x4FE2 JUMP JUMPDEST PUSH1 0x40 MLOAD PUSH1 0xE0 DUP11 SWAP1 SHL PUSH1 0x1 PUSH1 0x1 PUSH1 0xE0 SHL SUB NOT AND DUP2 MSTORE PUSH1 0x1 PUSH1 0x1 PUSH1 0xA0 SHL SUB SWAP9 DUP10 AND PUSH1 0x4 DUP3 ADD MSTORE SWAP7 DUP9 AND PUSH1 0x24 DUP9 ADD MSTORE PUSH1 0x44 DUP8 ADD SWAP6 SWAP1 SWAP6 MSTORE PUSH1 0x64 DUP7 ADD SWAP4 SWAP1 SWAP4 MSTORE PUSH1 0x84 DUP6 ADD SWAP2 SWAP1 SWAP2 MSTORE PUSH1 0xA4 DUP5 ADD MSTORE SWAP1 SWAP3 AND PUSH1 0xC4 DUP3 ADD MSTORE PUSH1 0xE4 DUP2 ADD SWAP2 SWAP1 SWAP2 MSTORE PUSH2 0x104 ADD PUSH1 0x60 PUSH1 0x40 MLOAD DUP1 DUP4 SUB DUP2 PUSH1 0x0 DUP8 GAS CALL ISZERO DUP1 ISZERO PUSH2 0x35AA JUMPI RETURNDATASIZE PUSH1 0x0 DUP1 RETURNDATACOPY RETURNDATASIZE PUSH1 0x0 REVERT JUMPDEST POP POP POP POP PUSH1 0x40 MLOAD RETURNDATASIZE PUSH1 0x1F NOT PUSH1 0x1F DUP3 ADD AND DUP3 ADD DUP1 PUSH1 0x40 MSTORE POP DUP2 ADD SWAP1 PUSH2 0x35CE SWAP2 SWAP1 PUSH2 0x52CC JUMP JUMPDEST PUSH1 0x8 SLOAD PUSH1 0x9 SLOAD PUSH1 0x40 MLOAD PUSH4 0xE6A43905 PUSH1 0xE0 SHL DUP2 MSTORE PUSH1 0x1 PUSH1 0x1 PUSH1 0xA0 SHL SUB SWAP3 DUP4 AND PUSH1 0x4 DUP3 ADD MSTORE SWAP1 DUP3 AND PUSH1 0x24 DUP3 ADD MSTORE SWAP2 SWAP5 POP DUP7 AND SWAP3 POP PUSH4 0xE6A43905 SWAP2 POP PUSH1 0x44 ADD PUSH1 0x20 PUSH1 0x40 MLOAD DUP1 DUP4 SUB DUP2 DUP7 GAS STATICCALL ISZERO DUP1 ISZERO PUSH2 0x3627 JUMPI RETURNDATASIZE PUSH1 0x0 DUP1 RETURNDATACOPY RETURNDATASIZE PUSH1 0x0 REVERT JUMPDEST POP POP POP POP PUSH1 0x40 MLOAD RETURNDATASIZE PUSH1 0x1F NOT PUSH1 0x1F DUP3 ADD AND DUP3 ADD DUP1 PUSH1 0x40 MSTORE POP DUP2 ADD SWAP1 PUSH2 0x364B SWAP2 SWAP1 PUSH2 0x52FA JUMP JUMPDEST SWAP2 POP JUMPDEST PUSH1 0x1 PUSH1 0x1 PUSH1 0xA0 SHL SUB DUP3 AND PUSH2 0x36A4 JUMPI PUSH1 0x40 MLOAD PUSH3 0x461BCD PUSH1 0xE5 SHL DUP2 MSTORE PUSH1 0x20 PUSH1 0x4 DUP3 ADD MSTORE PUSH1 0x17 PUSH1 0x24 DUP3 ADD MSTORE PUSH32 0x6C61756E63687061643A20496E76616C69642070616972000000000000000000 PUSH1 0x44 DUP3 ADD MSTORE PUSH1 0x64 ADD PUSH2 0xCBC JUMP JUMPDEST PUSH1 0x0 DUP2 GT PUSH2 0x36F4 JUMPI PUSH1 0x40 MLOAD PUSH3 0x461BCD PUSH1 0xE5 SHL DUP2 MSTORE PUSH1 0x20 PUSH1 0x4 DUP3 ADD MSTORE PUSH1 0x1D PUSH1 0x24 DUP3 ADD MSTORE PUSH32 0x6C61756E63687061643A20496E76616C6964204C697175696469747921000000 PUSH1 0x44 DUP3 ADD MSTORE PUSH1 0x64 ADD PUSH2 0xCBC JUMP JUMPDEST PUSH1 0x1E SLOAD ISZERO PUSH2 0x3843 JUMPI PUSH1 0x29 SLOAD PUSH1 0x40 MLOAD PUSH4 0x95EA7B3 PUSH1 0xE0 SHL DUP2 MSTORE PUSH1 0x1 PUSH1 0x1 PUSH1 0xA0 SHL SUB SWAP2 DUP3 AND PUSH1 0x4 DUP3 ADD MSTORE PUSH1 0x24 DUP2 ADD DUP4 SWAP1 MSTORE SWAP1 DUP4 AND SWAP1 PUSH4 0x95EA7B3 SWAP1 PUSH1 0x44 ADD PUSH1 0x20 PUSH1 0x40 MLOAD DUP1 DUP4 SUB DUP2 PUSH1 0x0 DUP8 GAS CALL ISZERO DUP1 ISZERO PUSH2 0x374F JUMPI RETURNDATASIZE PUSH1 0x0 DUP1 RETURNDATACOPY RETURNDATASIZE PUSH1 0x0 REVERT JUMPDEST POP POP POP POP PUSH1 0x40 MLOAD RETURNDATASIZE PUSH1 0x1F NOT PUSH1 0x1F DUP3 ADD AND DUP3 ADD DUP1 PUSH1 0x40 MSTORE POP DUP2 ADD SWAP1 PUSH2 0x3773 SWAP2 SWAP1 PUSH2 0x52AF JUMP JUMPDEST POP PUSH1 0x0 PUSH1 0x1E SLOAD TIMESTAMP PUSH2 0x3784 SWAP2 SWAP1 PUSH2 0x4FE2 JUMP JUMPDEST PUSH1 0x29 SLOAD PUSH1 0x7 SLOAD PUSH1 0x40 MLOAD PUSH4 0x7279357 PUSH1 0xE0 SHL DUP2 MSTORE PUSH1 0x1 PUSH1 0x1 PUSH1 0xA0 SHL SUB SWAP2 DUP3 AND PUSH1 0x4 DUP3 ADD MSTORE DUP7 DUP3 AND PUSH1 0x24 DUP3 ADD MSTORE PUSH1 0x1 PUSH1 0x44 DUP3 ADD MSTORE PUSH1 0x64 DUP2 ADD DUP7 SWAP1 MSTORE PUSH1 0x84 DUP2 ADD DUP5 SWAP1 MSTORE PUSH1 0xC0 PUSH1 0xA4 DUP3 ADD MSTORE PUSH1 0xD PUSH1 0xC4 DUP3 ADD MSTORE PUSH13 0x6C61756E63687061643A204C5 PUSH1 0x9C SHL PUSH1 0xE4 DUP3 ADD MSTORE SWAP3 SWAP4 POP AND SWAP1 PUSH4 0x7279357 SWAP1 PUSH2 0x104 ADD PUSH1 0x20 PUSH1 0x40 MLOAD DUP1 DUP4 SUB DUP2 PUSH1 0x0 DUP8 GAS CALL ISZERO DUP1 ISZERO PUSH2 0x3816 JUMPI RETURNDATASIZE PUSH1 0x0 DUP1 RETURNDATACOPY RETURNDATASIZE PUSH1 0x0 REVERT JUMPDEST POP POP POP POP PUSH1 0x40 MLOAD RETURNDATASIZE PUSH1 0x1F NOT PUSH1 0x1F DUP3 ADD AND DUP3 ADD DUP1 PUSH1 0x40 MSTORE POP DUP2 ADD SWAP1 PUSH2 0x383A SWAP2 SWAP1 PUSH2 0x4F8F JUMP JUMPDEST PUSH1 0x2A SSTORE POP PUSH2 0x385D JUMP JUMPDEST PUSH1 0x7 SLOAD PUSH2 0x385D SWAP1 PUSH1 0x1 PUSH1 0x1 PUSH1 0xA0 SHL SUB DUP5 DUP2 AND SWAP2 AND DUP4 PUSH2 0x3BD0 JUMP JUMPDEST POP POP POP POP JUMPDEST POP POP POP POP POP POP POP POP JUMP JUMPDEST PUSH1 0x60 DUP3 DUP3 GT DUP1 ISZERO PUSH2 0x3884 JUMPI POP PUSH2 0x3880 PUSH2 0x2629 JUMP JUMPDEST DUP3 GT ISZERO JUMPDEST PUSH2 0x38C5 JUMPI PUSH1 0x40 MLOAD PUSH3 0x461BCD PUSH1 0xE5 SHL DUP2 MSTORE PUSH1 0x20 PUSH1 0x4 DUP3 ADD MSTORE PUSH1 0x12 PUSH1 0x24 DUP3 ADD MSTORE PUSH18 0x1B185D5B98DA1C18590E88125B9D985B1A59 PUSH1 0x72 SHL PUSH1 0x44 DUP3 ADD MSTORE PUSH1 0x64 ADD PUSH2 0xCBC JUMP JUMPDEST PUSH1 0x0 PUSH2 0x38D1 DUP5 DUP5 PUSH2 0x5130 JUMP JUMPDEST PUSH1 0x1 PUSH1 0x1 PUSH1 0x40 SHL SUB DUP2 GT ISZERO PUSH2 0x38E8 JUMPI PUSH2 0x38E8 PUSH2 0x4462 JUMP JUMPDEST PUSH1 0x40 MLOAD SWAP1 DUP1 DUP3 MSTORE DUP1 PUSH1 0x20 MUL PUSH1 0x20 ADD DUP3 ADD PUSH1 0x40 MSTORE DUP1 ISZERO PUSH2 0x3911 JUMPI DUP2 PUSH1 0x20 ADD PUSH1 0x20 DUP3 MUL DUP1 CALLDATASIZE DUP4 CALLDATACOPY ADD SWAP1 POP JUMPDEST POP SWAP1 POP PUSH1 0x0 DUP5 JUMPDEST DUP5 DUP2 LT ISZERO PUSH2 0x3975 JUMPI PUSH2 0x392B PUSH1 0x5 DUP3 PUSH2 0x3E88 JUMP JUMPDEST DUP4 DUP4 DUP2 MLOAD DUP2 LT PUSH2 0x393D JUMPI PUSH2 0x393D PUSH2 0x4F60 JUMP JUMPDEST PUSH1 0x1 PUSH1 0x1 PUSH1 0xA0 SHL SUB SWAP1 SWAP3 AND PUSH1 0x20 SWAP3 DUP4 MUL SWAP2 SWAP1 SWAP2 ADD SWAP1 SWAP2 ADD MSTORE DUP2 PUSH2 0x395F DUP2 PUSH2 0x4F76 JUMP JUMPDEST SWAP3 POP POP DUP1 DUP1 PUSH2 0x396D SWAP1 PUSH2 0x4F76 JUMP JUMPDEST SWAP2 POP POP PUSH2 0x3918 JUMP JUMPDEST POP SWAP1 SWAP2 POP POP JUMPDEST SWAP3 SWAP2 POP POP JUMP JUMPDEST PUSH1 0x1 PUSH1 0x1 PUSH1 0xA0 SHL SUB DUP2 AND PUSH1 0x0 SWAP1 DUP2 MSTORE PUSH1 0x1 DUP4 ADD PUSH1 0x20 MSTORE PUSH1 0x40 DUP2 KECCAK256 SLOAD ISZERO ISZERO PUSH2 0x2CF9 JUMP JUMPDEST PUSH1 0x0 PUSH2 0x2CF9 DUP4 PUSH1 0x1 PUSH1 0x1 PUSH1 0xA0 SHL SUB DUP5 AND PUSH2 0x3F8F JUMP JUMPDEST PUSH1 0x0 SLOAD PUSH1 0xFF AND PUSH2 0x1680 JUMPI PUSH1 0x40 MLOAD PUSH3 0x461BCD PUSH1 0xE5 SHL DUP2 MSTORE PUSH1 0x20 PUSH1 0x4 DUP3 ADD MSTORE PUSH1 0x14 PUSH1 0x24 DUP3 ADD MSTORE PUSH20 0x14185D5CD8589B194E881B9BDD081C185D5CD959 PUSH1 0x62 SHL PUSH1 0x44 DUP3 ADD MSTORE PUSH1 0x64 ADD PUSH2 0xCBC JUMP JUMPDEST PUSH2 0x3A09 PUSH2 0x39B8 JUMP JUMPDEST PUSH1 0x0 DUP1 SLOAD PUSH1 0xFF NOT AND SWAP1 SSTORE PUSH32 0x5DB9EE0A495BF2E6FF9C91A7834C1BA4FDD244A5E8AA4E537BD38AEAE4B073AA CALLER JUMPDEST PUSH1 0x40 MLOAD PUSH1 0x1 PUSH1 0x1 PUSH1 0xA0 SHL SUB SWAP1 SWAP2 AND DUP2 MSTORE PUSH1 0x20 ADD PUSH1 0x40 MLOAD DUP1 SWAP2 SUB SWAP1 LOG1 JUMP JUMPDEST PUSH1 0x0 SLOAD PUSH1 0xFF AND ISZERO PUSH2 0x1680 JUMPI PUSH1 0x40 MLOAD PUSH3 0x461BCD PUSH1 0xE5 SHL DUP2 MSTORE PUSH1 0x20 PUSH1 0x4 DUP3 ADD MSTORE PUSH1 0x10 PUSH1 0x24 DUP3 ADD MSTORE PUSH16 0x14185D5CD8589B194E881C185D5CD959 PUSH1 0x82 SHL PUSH1 0x44 DUP3 ADD MSTORE PUSH1 0x64 ADD PUSH2 0xCBC JUMP JUMPDEST PUSH1 0x17 SLOAD PUSH1 0x0 SWAP1 DUP2 SWAP1 PUSH1 0x2 EQ ISZERO DUP1 PUSH2 0x3AB2 JUMPI POP PUSH1 0x40 DUP4 ADD MLOAD ISZERO JUMPDEST DUP1 PUSH2 0x3AC3 JUMPI POP PUSH1 0x60 DUP4 ADD MLOAD ISZERO ISZERO PUSH1 0x1 EQ JUMPDEST DUP1 PUSH2 0x3AD6 JUMPI POP DUP3 PUSH1 0x40 ADD MLOAD DUP4 PUSH1 0x20 ADD MLOAD LT ISZERO JUMPDEST DUP1 PUSH2 0x3AE1 JUMPI POP PUSH1 0x16 SLOAD ISZERO JUMPDEST DUP1 PUSH2 0x3AED JUMPI POP PUSH1 0x16 SLOAD TIMESTAMP LT JUMPDEST ISZERO PUSH2 0x3AF8 JUMPI SWAP3 SWAP2 POP POP JUMP JUMPDEST PUSH1 0x0 PUSH1 0x13 SLOAD PUSH1 0x0 SUB PUSH2 0x3B0F JUMPI POP PUSH1 0x40 DUP4 ADD MLOAD PUSH2 0x3BB9 JUMP JUMPDEST PUSH1 0x0 PUSH2 0x2710 PUSH1 0x13 SLOAD DUP7 PUSH1 0x40 ADD MLOAD PUSH2 0x3B26 SWAP2 SWAP1 PUSH2 0x4F12 JUMP JUMPDEST PUSH2 0x3B30 SWAP2 SWAP1 PUSH2 0x517A JUMP JUMPDEST SWAP1 POP PUSH1 0x0 PUSH2 0x2710 PUSH1 0x15 SLOAD DUP8 PUSH1 0x40 ADD MLOAD PUSH2 0x3B49 SWAP2 SWAP1 PUSH2 0x4F12 JUMP JUMPDEST PUSH2 0x3B53 SWAP2 SWAP1 PUSH2 0x517A JUMP JUMPDEST SWAP1 POP PUSH1 0x0 DUP1 PUSH1 0x16 SLOAD SWAP1 POP DUP1 TIMESTAMP LT PUSH2 0x3B89 JUMPI PUSH1 0x14 SLOAD PUSH2 0x3B71 DUP3 TIMESTAMP PUSH2 0x5130 JUMP JUMPDEST PUSH2 0x3B7B SWAP2 SWAP1 PUSH2 0x517A JUMP JUMPDEST PUSH2 0x3B86 SWAP1 PUSH1 0x1 PUSH2 0x4FE2 JUMP JUMPDEST SWAP2 POP JUMPDEST DUP4 PUSH2 0x3B94 DUP5 DUP5 PUSH2 0x4F12 JUMP JUMPDEST PUSH2 0x3B9E SWAP2 SWAP1 PUSH2 0x4FE2 JUMP JUMPDEST SWAP5 POP DUP8 PUSH1 0x40 ADD MLOAD DUP6 GT ISZERO PUSH2 0x3BB4 JUMPI DUP8 PUSH1 0x40 ADD MLOAD SWAP5 POP JUMPDEST POP POP POP POP JUMPDEST PUSH1 0x20 DUP5 ADD MLOAD PUSH2 0x3BC8 SWAP1 DUP3 PUSH2 0x5130 JUMP JUMPDEST SWAP5 SWAP4 POP POP POP POP JUMP JUMPDEST PUSH1 0x40 MLOAD PUSH1 0x1 PUSH1 0x1 PUSH1 0xA0 SHL SUB DUP4 AND PUSH1 0x24 DUP3 ADD MSTORE PUSH1 0x44 DUP2 ADD DUP3 SWAP1 MSTORE PUSH2 0x18BA SWAP1 DUP5 SWAP1 PUSH4 0xA9059CBB PUSH1 0xE0 SHL SWAP1 PUSH1 0x64 ADD JUMPDEST PUSH1 0x40 DUP1 MLOAD PUSH1 0x1F NOT DUP2 DUP5 SUB ADD DUP2 MSTORE SWAP2 SWAP1 MSTORE PUSH1 0x20 DUP2 ADD DUP1 MLOAD PUSH1 0x1 PUSH1 0x1 PUSH1 0xE0 SHL SUB AND PUSH1 0x1 PUSH1 0x1 PUSH1 0xE0 SHL SUB NOT SWAP1 SWAP4 AND SWAP3 SWAP1 SWAP3 OR SWAP1 SWAP2 MSTORE PUSH2 0x4082 JUMP JUMPDEST PUSH1 0x0 PUSH2 0x2CF9 DUP4 PUSH1 0x1 PUSH1 0x1 PUSH1 0xA0 SHL SUB DUP5 AND PUSH2 0x4157 JUMP JUMPDEST PUSH1 0x0 DUP1 DUP4 DUP4 PUSH1 0x1 PUSH1 0x1 PUSH1 0xA0 SHL SUB DUP8 AND PUSH2 0x3D43 JUMPI DUP1 PUSH1 0x1 PUSH1 0x1 PUSH1 0xA0 SHL SUB AND PUSH4 0xE6A43905 DUP10 DUP5 PUSH1 0x1 PUSH1 0x1 PUSH1 0xA0 SHL SUB AND PUSH4 0xAD5C4648 PUSH1 0x40 MLOAD DUP2 PUSH4 0xFFFFFFFF AND PUSH1 0xE0 SHL DUP2 MSTORE PUSH1 0x4 ADD PUSH1 0x20 PUSH1 0x40 MLOAD DUP1 DUP4 SUB DUP2 DUP7 GAS STATICCALL ISZERO DUP1 ISZERO PUSH2 0x3CA9 JUMPI RETURNDATASIZE PUSH1 0x0 DUP1 RETURNDATACOPY RETURNDATASIZE PUSH1 0x0 REVERT JUMPDEST POP POP POP POP PUSH1 0x40 MLOAD RETURNDATASIZE PUSH1 0x1F NOT PUSH1 0x1F DUP3 ADD AND DUP3 ADD DUP1 PUSH1 0x40 MSTORE POP DUP2 ADD SWAP1 PUSH2 0x3CCD SWAP2 SWAP1 PUSH2 0x52FA JUMP JUMPDEST PUSH1 0x40 MLOAD PUSH1 0x1 PUSH1 0x1 PUSH1 0xE0 SHL SUB NOT PUSH1 0xE0 DUP6 SWAP1 SHL AND DUP2 MSTORE PUSH1 0x1 PUSH1 0x1 PUSH1 0xA0 SHL SUB SWAP3 DUP4 AND PUSH1 0x4 DUP3 ADD MSTORE SWAP2 AND PUSH1 0x24 DUP3 ADD MSTORE PUSH1 0x44 ADD PUSH1 0x20 PUSH1 0x40 MLOAD DUP1 DUP4 SUB DUP2 DUP7 GAS STATICCALL ISZERO DUP1 ISZERO PUSH2 0x3D18 JUMPI RETURNDATASIZE PUSH1 0x0 DUP1 RETURNDATACOPY RETURNDATASIZE PUSH1 0x0 REVERT JUMPDEST POP POP POP POP PUSH1 0x40 MLOAD RETURNDATASIZE PUSH1 0x1F NOT PUSH1 0x1F DUP3 ADD AND DUP3 ADD DUP1 PUSH1 0x40 MSTORE POP DUP2 ADD SWAP1 PUSH2 0x3D3C SWAP2 SWAP1 PUSH2 0x52FA JUMP JUMPDEST SWAP3 POP PUSH2 0x3DB8 JUMP JUMPDEST PUSH1 0x40 MLOAD PUSH4 0xE6A43905 PUSH1 0xE0 SHL DUP2 MSTORE PUSH1 0x1 PUSH1 0x1 PUSH1 0xA0 SHL SUB DUP10 DUP2 AND PUSH1 0x4 DUP4 ADD MSTORE DUP9 DUP2 AND PUSH1 0x24 DUP4 ADD MSTORE DUP3 AND SWAP1 PUSH4 0xE6A43905 SWAP1 PUSH1 0x44 ADD PUSH1 0x20 PUSH1 0x40 MLOAD DUP1 DUP4 SUB DUP2 DUP7 GAS STATICCALL ISZERO DUP1 ISZERO PUSH2 0x3D91 JUMPI RETURNDATASIZE PUSH1 0x0 DUP1 RETURNDATACOPY RETURNDATASIZE PUSH1 0x0 REVERT JUMPDEST POP POP POP POP PUSH1 0x40 MLOAD RETURNDATASIZE PUSH1 0x1F NOT PUSH1 0x1F DUP3 ADD AND DUP3 ADD DUP1 PUSH1 0x40 MSTORE POP DUP2 ADD SWAP1 PUSH2 0x3DB5 SWAP2 SWAP1 PUSH2 0x52FA JUMP JUMPDEST SWAP3 POP JUMPDEST PUSH1 0x1 PUSH1 0x1 PUSH1 0xA0 SHL SUB DUP4 AND PUSH2 0x3DD2 JUMPI PUSH1 0x1 SWAP4 POP POP POP POP PUSH2 0x3BC8 JUMP JUMPDEST DUP3 PUSH1 0x1 PUSH1 0x1 PUSH1 0xA0 SHL SUB AND PUSH4 0x18160DDD PUSH1 0x40 MLOAD DUP2 PUSH4 0xFFFFFFFF AND PUSH1 0xE0 SHL DUP2 MSTORE PUSH1 0x4 ADD PUSH1 0x20 PUSH1 0x40 MLOAD DUP1 DUP4 SUB DUP2 DUP7 GAS STATICCALL ISZERO DUP1 ISZERO PUSH2 0x3E10 JUMPI RETURNDATASIZE PUSH1 0x0 DUP1 RETURNDATACOPY RETURNDATASIZE PUSH1 0x0 REVERT JUMPDEST POP POP POP POP PUSH1 0x40 MLOAD RETURNDATASIZE PUSH1 0x1F NOT PUSH1 0x1F DUP3 ADD AND DUP3 ADD DUP1 PUSH1 0x40 MSTORE POP DUP2 ADD SWAP1 PUSH2 0x3E34 SWAP2 SWAP1 PUSH2 0x4F8F JUMP JUMPDEST ISZERO SWAP9 SWAP8 POP POP POP POP POP POP POP POP JUMP JUMPDEST PUSH2 0x3E49 PUSH2 0x3A53 JUMP JUMPDEST PUSH1 0x0 DUP1 SLOAD PUSH1 0xFF NOT AND PUSH1 0x1 OR SWAP1 SSTORE PUSH32 0x62E78CEA01BEE320CD4E420270B5EA74000D11B0C9F74754EBDBFC544B05A258 PUSH2 0x3A36 CALLER SWAP1 JUMP JUMPDEST PUSH1 0x0 PUSH2 0x397B DUP3 SLOAD SWAP1 JUMP JUMPDEST PUSH1 0x0 PUSH2 0x2CF9 DUP4 DUP4 PUSH2 0x41A6 JUMP JUMPDEST PUSH1 0x9 SLOAD PUSH1 0x0 SWAP1 PUSH1 0x12 SWAP1 PUSH1 0x1 PUSH1 0x1 PUSH1 0xA0 SHL SUB AND ISZERO PUSH2 0x3F28 JUMPI PUSH1 0x9 PUSH1 0x0 SWAP1 SLOAD SWAP1 PUSH2 0x100 EXP SWAP1 DIV PUSH1 0x1 PUSH1 0x1 PUSH1 0xA0 SHL SUB AND PUSH1 0x1 PUSH1 0x1 PUSH1 0xA0 SHL SUB AND PUSH4 0x313CE567 PUSH1 0x40 MLOAD DUP2 PUSH4 0xFFFFFFFF AND PUSH1 0xE0 SHL DUP2 MSTORE PUSH1 0x4 ADD PUSH1 0x20 PUSH1 0x40 MLOAD DUP1 DUP4 SUB DUP2 DUP7 GAS STATICCALL ISZERO DUP1 ISZERO PUSH2 0x3EFE JUMPI RETURNDATASIZE PUSH1 0x0 DUP1 RETURNDATACOPY RETURNDATASIZE PUSH1 0x0 REVERT JUMPDEST POP POP POP POP PUSH1 0x40 MLOAD RETURNDATASIZE PUSH1 0x1F NOT PUSH1 0x1F DUP3 ADD AND DUP3 ADD DUP1 PUSH1 0x40 MSTORE POP DUP2 ADD SWAP1 PUSH2 0x3F22 SWAP2 SWAP1 PUSH2 0x519C JUMP JUMPDEST PUSH1 0xFF AND SWAP1 POP JUMPDEST PUSH2 0x3F33 DUP2 PUSH1 0xA PUSH2 0x52A3 JUMP JUMPDEST PUSH1 0xC SLOAD PUSH2 0x3F40 SWAP1 DUP6 PUSH2 0x4F12 JUMP JUMPDEST PUSH2 0x2CF9 SWAP2 SWAP1 PUSH2 0x517A JUMP JUMPDEST PUSH1 0x40 MLOAD PUSH1 0x1 PUSH1 0x1 PUSH1 0xA0 SHL SUB DUP1 DUP6 AND PUSH1 0x24 DUP4 ADD MSTORE DUP4 AND PUSH1 0x44 DUP3 ADD MSTORE PUSH1 0x64 DUP2 ADD DUP3 SWAP1 MSTORE PUSH2 0x299A SWAP1 DUP6 SWAP1 PUSH4 0x23B872DD PUSH1 0xE0 SHL SWAP1 PUSH1 0x84 ADD PUSH2 0x3BFC JUMP JUMPDEST PUSH1 0x60 PUSH1 0x0 PUSH2 0x2CF9 DUP4 PUSH2 0x41D0 JUMP JUMPDEST PUSH1 0x0 DUP2 DUP2 MSTORE PUSH1 0x1 DUP4 ADD PUSH1 0x20 MSTORE PUSH1 0x40 DUP2 KECCAK256 SLOAD DUP1 ISZERO PUSH2 0x4078 JUMPI PUSH1 0x0 PUSH2 0x3FB3 PUSH1 0x1 DUP4 PUSH2 0x5130 JUMP JUMPDEST DUP6 SLOAD SWAP1 SWAP2 POP PUSH1 0x0 SWAP1 PUSH2 0x3FC7 SWAP1 PUSH1 0x1 SWAP1 PUSH2 0x5130 JUMP JUMPDEST SWAP1 POP DUP2 DUP2 EQ PUSH2 0x402C JUMPI PUSH1 0x0 DUP7 PUSH1 0x0 ADD DUP3 DUP2 SLOAD DUP2 LT PUSH2 0x3FE7 JUMPI PUSH2 0x3FE7 PUSH2 0x4F60 JUMP JUMPDEST SWAP1 PUSH1 0x0 MSTORE PUSH1 0x20 PUSH1 0x0 KECCAK256 ADD SLOAD SWAP1 POP DUP1 DUP8 PUSH1 0x0 ADD DUP5 DUP2 SLOAD DUP2 LT PUSH2 0x400A JUMPI PUSH2 0x400A PUSH2 0x4F60 JUMP JUMPDEST PUSH1 0x0 SWAP2 DUP3 MSTORE PUSH1 0x20 DUP1 DUP4 KECCAK256 SWAP1 SWAP2 ADD SWAP3 SWAP1 SWAP3 SSTORE SWAP2 DUP3 MSTORE PUSH1 0x1 DUP9 ADD SWAP1 MSTORE PUSH1 0x40 SWAP1 KECCAK256 DUP4 SWAP1 SSTORE JUMPDEST DUP6 SLOAD DUP7 SWAP1 DUP1 PUSH2 0x403D JUMPI PUSH2 0x403D PUSH2 0x5317 JUMP JUMPDEST PUSH1 0x1 SWAP1 SUB DUP2 DUP2 SWAP1 PUSH1 0x0 MSTORE PUSH1 0x20 PUSH1 0x0 KECCAK256 ADD PUSH1 0x0 SWAP1 SSTORE SWAP1 SSTORE DUP6 PUSH1 0x1 ADD PUSH1 0x0 DUP7 DUP2 MSTORE PUSH1 0x20 ADD SWAP1 DUP2 MSTORE PUSH1 0x20 ADD PUSH1 0x0 KECCAK256 PUSH1 0x0 SWAP1 SSTORE PUSH1 0x1 SWAP4 POP POP POP POP PUSH2 0x397B JUMP JUMPDEST PUSH1 0x0 SWAP2 POP POP PUSH2 0x397B JUMP JUMPDEST PUSH1 0x0 PUSH2 0x40D7 DUP3 PUSH1 0x40 MLOAD DUP1 PUSH1 0x40 ADD PUSH1 0x40 MSTORE DUP1 PUSH1 0x20 DUP2 MSTORE PUSH1 0x20 ADD PUSH32 0x5361666545524332303A206C6F772D6C6576656C2063616C6C206661696C6564 DUP2 MSTORE POP DUP6 PUSH1 0x1 PUSH1 0x1 PUSH1 0xA0 SHL SUB AND PUSH2 0x422C SWAP1 SWAP3 SWAP2 SWAP1 PUSH4 0xFFFFFFFF AND JUMP JUMPDEST SWAP1 POP DUP1 MLOAD PUSH1 0x0 EQ DUP1 PUSH2 0x40F8 JUMPI POP DUP1 DUP1 PUSH1 0x20 ADD SWAP1 MLOAD DUP2 ADD SWAP1 PUSH2 0x40F8 SWAP2 SWAP1 PUSH2 0x52AF JUMP JUMPDEST PUSH2 0x18BA JUMPI PUSH1 0x40 MLOAD PUSH3 0x461BCD PUSH1 0xE5 SHL DUP2 MSTORE PUSH1 0x20 PUSH1 0x4 DUP3 ADD MSTORE PUSH1 0x2A PUSH1 0x24 DUP3 ADD MSTORE PUSH32 0x5361666545524332303A204552433230206F7065726174696F6E20646964206E PUSH1 0x44 DUP3 ADD MSTORE PUSH10 0x1BDD081CDD58D8D95959 PUSH1 0xB2 SHL PUSH1 0x64 DUP3 ADD MSTORE PUSH1 0x84 ADD PUSH2 0xCBC JUMP JUMPDEST PUSH1 0x0 DUP2 DUP2 MSTORE PUSH1 0x1 DUP4 ADD PUSH1 0x20 MSTORE PUSH1 0x40 DUP2 KECCAK256 SLOAD PUSH2 0x419E JUMPI POP DUP2 SLOAD PUSH1 0x1 DUP2 DUP2 ADD DUP5 SSTORE PUSH1 0x0 DUP5 DUP2 MSTORE PUSH1 0x20 DUP1 DUP3 KECCAK256 SWAP1 SWAP4 ADD DUP5 SWAP1 SSTORE DUP5 SLOAD DUP5 DUP3 MSTORE DUP3 DUP7 ADD SWAP1 SWAP4 MSTORE PUSH1 0x40 SWAP1 KECCAK256 SWAP2 SWAP1 SWAP2 SSTORE PUSH2 0x397B JUMP JUMPDEST POP PUSH1 0x0 PUSH2 0x397B JUMP JUMPDEST PUSH1 0x0 DUP3 PUSH1 0x0 ADD DUP3 DUP2 SLOAD DUP2 LT PUSH2 0x41BD JUMPI PUSH2 0x41BD PUSH2 0x4F60 JUMP JUMPDEST SWAP1 PUSH1 0x0 MSTORE PUSH1 0x20 PUSH1 0x0 KECCAK256 ADD SLOAD SWAP1 POP SWAP3 SWAP2 POP POP JUMP JUMPDEST PUSH1 0x60 DUP2 PUSH1 0x0 ADD DUP1 SLOAD DUP1 PUSH1 0x20 MUL PUSH1 0x20 ADD PUSH1 0x40 MLOAD SWAP1 DUP2 ADD PUSH1 0x40 MSTORE DUP1 SWAP3 SWAP2 SWAP1 DUP2 DUP2 MSTORE PUSH1 0x20 ADD DUP3 DUP1 SLOAD DUP1 ISZERO PUSH2 0x4220 JUMPI PUSH1 0x20 MUL DUP3 ADD SWAP2 SWAP1 PUSH1 0x0 MSTORE PUSH1 0x20 PUSH1 0x0 KECCAK256 SWAP1 JUMPDEST DUP2 SLOAD DUP2 MSTORE PUSH1 0x20 ADD SWAP1 PUSH1 0x1 ADD SWAP1 DUP1 DUP4 GT PUSH2 0x420C JUMPI JUMPDEST POP POP POP POP POP SWAP1 POP SWAP2 SWAP1 POP JUMP JUMPDEST PUSH1 0x60 PUSH2 0x3BC8 DUP5 DUP5 PUSH1 0x0 DUP6 DUP6 PUSH1 0x0 DUP1 DUP7 PUSH1 0x1 PUSH1 0x1 PUSH1 0xA0 SHL SUB AND DUP6 DUP8 PUSH1 0x40 MLOAD PUSH2 0x4253 SWAP2 SWAP1 PUSH2 0x532D JUMP JUMPDEST PUSH1 0x0 PUSH1 0x40 MLOAD DUP1 DUP4 SUB DUP2 DUP6 DUP8 GAS CALL SWAP3 POP POP POP RETURNDATASIZE DUP1 PUSH1 0x0 DUP2 EQ PUSH2 0x4290 JUMPI PUSH1 0x40 MLOAD SWAP2 POP PUSH1 0x1F NOT PUSH1 0x3F RETURNDATASIZE ADD AND DUP3 ADD PUSH1 0x40 MSTORE RETURNDATASIZE DUP3 MSTORE RETURNDATASIZE PUSH1 0x0 PUSH1 0x20 DUP5 ADD RETURNDATACOPY PUSH2 0x4295 JUMP JUMPDEST PUSH1 0x60 SWAP2 POP JUMPDEST POP SWAP2 POP SWAP2 POP PUSH2 0x42A6 DUP8 DUP4 DUP4 DUP8 PUSH2 0x42B1 JUMP JUMPDEST SWAP8 SWAP7 POP POP POP POP POP POP POP JUMP JUMPDEST PUSH1 0x60 DUP4 ISZERO PUSH2 0x4320 JUMPI DUP3 MLOAD PUSH1 0x0 SUB PUSH2 0x4319 JUMPI PUSH1 0x1 PUSH1 0x1 PUSH1 0xA0 SHL SUB DUP6 AND EXTCODESIZE PUSH2 0x4319 JUMPI PUSH1 0x40 MLOAD PUSH3 0x461BCD PUSH1 0xE5 SHL DUP2 MSTORE PUSH1 0x20 PUSH1 0x4 DUP3 ADD MSTORE PUSH1 0x1D PUSH1 0x24 DUP3 ADD MSTORE PUSH32 0x416464726573733A2063616C6C20746F206E6F6E2D636F6E7472616374000000 PUSH1 0x44 DUP3 ADD MSTORE PUSH1 0x64 ADD PUSH2 0xCBC JUMP JUMPDEST POP DUP2 PUSH2 0x3BC8 JUMP JUMPDEST PUSH2 0x3BC8 DUP4 DUP4 DUP2 MLOAD ISZERO PUSH2 0x4335 JUMPI DUP2 MLOAD DUP1 DUP4 PUSH1 0x20 ADD REVERT JUMPDEST DUP1 PUSH1 0x40 MLOAD PUSH3 0x461BCD PUSH1 0xE5 SHL DUP2 MSTORE PUSH1 0x4 ADD PUSH2 0xCBC SWAP2 SWAP1 PUSH2 0x4898 JUMP JUMPDEST PUSH1 0x40 MLOAD DUP1 PUSH2 0x3E0 ADD PUSH1 0x40 MSTORE DUP1 PUSH1 0x0 DUP2 MSTORE PUSH1 0x20 ADD PUSH1 0x0 DUP2 MSTORE PUSH1 0x20 ADD PUSH1 0x0 DUP2 MSTORE PUSH1 0x20 ADD PUSH1 0x0 DUP2 MSTORE PUSH1 0x20 ADD PUSH1 0x0 DUP2 MSTORE PUSH1 0x20 ADD PUSH1 0x0 DUP2 MSTORE PUSH1 0x20 ADD PUSH1 0x0 DUP2 MSTORE PUSH1 0x20 ADD PUSH1 0x0 PUSH1 0x1 PUSH1 0x1 PUSH1 0xA0 SHL SUB AND DUP2 MSTORE PUSH1 0x20 ADD PUSH1 0x0 DUP2 MSTORE PUSH1 0x20 ADD PUSH1 0x0 DUP2 MSTORE PUSH1 0x20 ADD PUSH1 0x60 DUP2 MSTORE PUSH1 0x20 ADD PUSH1 0x60 DUP2 MSTORE PUSH1 0x20 ADD PUSH1 0x60 DUP2 MSTORE PUSH1 0x20 ADD PUSH1 0x60 DUP2 MSTORE PUSH1 0x20 ADD PUSH1 0x60 DUP2 MSTORE PUSH1 0x20 ADD PUSH1 0x60 DUP2 MSTORE PUSH1 0x20 ADD PUSH1 0x60 DUP2 MSTORE PUSH1 0x20 ADD PUSH1 0x60 DUP2 MSTORE PUSH1 0x20 ADD PUSH1 0x60 DUP2 MSTORE PUSH1 0x20 ADD PUSH1 0x60 DUP2 MSTORE PUSH1 0x20 ADD PUSH1 0x0 PUSH1 0x1 PUSH1 0x1 PUSH1 0xA0 SHL SUB AND DUP2 MSTORE PUSH1 0x20 ADD PUSH1 0x0 DUP2 MSTORE PUSH1 0x20 ADD PUSH1 0x0 DUP2 MSTORE PUSH1 0x20 ADD PUSH1 0x0 DUP2 MSTORE PUSH1 0x20 ADD PUSH1 0x0 DUP2 MSTORE PUSH1 0x20 ADD PUSH1 0x0 DUP2 MSTORE PUSH1 0x20 ADD PUSH1 0x0 DUP2 MSTORE PUSH1 0x20 ADD PUSH1 0x0 DUP2 MSTORE PUSH1 0x20 ADD PUSH1 0x0 DUP2 MSTORE PUSH1 0x20 ADD PUSH1 0x0 DUP2 MSTORE PUSH1 0x20 ADD PUSH1 0x0 ISZERO ISZERO DUP2 MSTORE POP SWAP1 JUMP JUMPDEST PUSH1 0x0 PUSH1 0x20 DUP3 DUP5 SUB SLT ISZERO PUSH2 0x445B JUMPI PUSH1 0x0 DUP1 REVERT JUMPDEST POP CALLDATALOAD SWAP2 SWAP1 POP JUMP JUMPDEST PUSH4 0x4E487B71 PUSH1 0xE0 SHL PUSH1 0x0 MSTORE PUSH1 0x41 PUSH1 0x4 MSTORE PUSH1 0x24 PUSH1 0x0 REVERT JUMPDEST PUSH1 0x40 MLOAD PUSH2 0x140 DUP2 ADD PUSH1 0x1 PUSH1 0x1 PUSH1 0x40 SHL SUB DUP2 GT DUP3 DUP3 LT OR ISZERO PUSH2 0x449B JUMPI PUSH2 0x449B PUSH2 0x4462 JUMP JUMPDEST PUSH1 0x40 MSTORE SWAP1 JUMP JUMPDEST PUSH1 0x40 MLOAD PUSH2 0x160 DUP2 ADD PUSH1 0x1 PUSH1 0x1 PUSH1 0x40 SHL SUB DUP2 GT DUP3 DUP3 LT OR ISZERO PUSH2 0x449B JUMPI PUSH2 0x449B PUSH2 0x4462 JUMP JUMPDEST PUSH1 0x40 MLOAD PUSH1 0x1F DUP3 ADD PUSH1 0x1F NOT AND DUP2 ADD PUSH1 0x1 PUSH1 0x1 PUSH1 0x40 SHL SUB DUP2 GT DUP3 DUP3 LT OR ISZERO PUSH2 0x44EC JUMPI PUSH2 0x44EC PUSH2 0x4462 JUMP JUMPDEST PUSH1 0x40 MSTORE SWAP2 SWAP1 POP JUMP JUMPDEST PUSH1 0x1 PUSH1 0x1 PUSH1 0xA0 SHL SUB DUP2 AND DUP2 EQ PUSH2 0x1F67 JUMPI PUSH1 0x0 DUP1 REVERT JUMPDEST DUP1 CALLDATALOAD PUSH2 0x4514 DUP2 PUSH2 0x44F4 JUMP JUMPDEST SWAP2 SWAP1 POP JUMP JUMPDEST PUSH1 0x0 PUSH1 0x20 DUP1 DUP4 DUP6 SUB SLT ISZERO PUSH2 0x452C JUMPI PUSH1 0x0 DUP1 REVERT JUMPDEST DUP3 CALLDATALOAD PUSH1 0x1 PUSH1 0x1 PUSH1 0x40 SHL SUB DUP1 DUP3 GT ISZERO PUSH2 0x4543 JUMPI PUSH1 0x0 DUP1 REVERT JUMPDEST DUP2 DUP6 ADD SWAP2 POP DUP6 PUSH1 0x1F DUP4 ADD SLT PUSH2 0x4557 JUMPI PUSH1 0x0 DUP1 REVERT JUMPDEST DUP2 CALLDATALOAD DUP2 DUP2 GT ISZERO PUSH2 0x4569 JUMPI PUSH2 0x4569 PUSH2 0x4462 JUMP JUMPDEST DUP1 PUSH1 0x5 SHL SWAP2 POP PUSH2 0x457A DUP5 DUP4 ADD PUSH2 0x44C4 JUMP JUMPDEST DUP2 DUP2 MSTORE SWAP2 DUP4 ADD DUP5 ADD SWAP2 DUP5 DUP2 ADD SWAP1 DUP9 DUP5 GT ISZERO PUSH2 0x4594 JUMPI PUSH1 0x0 DUP1 REVERT JUMPDEST SWAP4 DUP6 ADD SWAP4 JUMPDEST DUP4 DUP6 LT ISZERO PUSH2 0x45BE JUMPI DUP5 CALLDATALOAD SWAP3 POP PUSH2 0x45AE DUP4 PUSH2 0x44F4 JUMP JUMPDEST DUP3 DUP3 MSTORE SWAP4 DUP6 ADD SWAP4 SWAP1 DUP6 ADD SWAP1 PUSH2 0x4599 JUMP JUMPDEST SWAP9 SWAP8 POP POP POP POP POP POP POP POP JUMP JUMPDEST PUSH1 0x0 PUSH1 0x20 DUP3 DUP5 SUB SLT ISZERO PUSH2 0x45DC JUMPI PUSH1 0x0 DUP1 REVERT JUMPDEST DUP2 CALLDATALOAD PUSH2 0x2CF9 DUP2 PUSH2 0x44F4 JUMP JUMPDEST PUSH1 0x0 JUMPDEST DUP4 DUP2 LT ISZERO PUSH2 0x4602 JUMPI DUP2 DUP2 ADD MLOAD DUP4 DUP3 ADD MSTORE PUSH1 0x20 ADD PUSH2 0x45EA JUMP JUMPDEST POP POP PUSH1 0x0 SWAP2 ADD MSTORE JUMP JUMPDEST PUSH1 0x0 DUP2 MLOAD DUP1 DUP5 MSTORE PUSH2 0x4623 DUP2 PUSH1 0x20 DUP7 ADD PUSH1 0x20 DUP7 ADD PUSH2 0x45E7 JUMP JUMPDEST PUSH1 0x1F ADD PUSH1 0x1F NOT AND SWAP3 SWAP1 SWAP3 ADD PUSH1 0x20 ADD SWAP3 SWAP2 POP POP JUMP JUMPDEST PUSH1 0x20 DUP2 MSTORE DUP2 MLOAD PUSH1 0x20 DUP3 ADD MSTORE PUSH1 0x20 DUP3 ADD MLOAD PUSH1 0x40 DUP3 ADD MSTORE PUSH1 0x40 DUP3 ADD MLOAD PUSH1 0x60 DUP3 ADD MSTORE PUSH1 0x60 DUP3 ADD MLOAD PUSH1 0x80 DUP3 ADD MSTORE PUSH1 0x80 DUP3 ADD MLOAD PUSH1 0xA0 DUP3 ADD MSTORE PUSH1 0xA0 DUP3 ADD MLOAD PUSH1 0xC0 DUP3 ADD MSTORE PUSH1 0xC0 DUP3 ADD MLOAD PUSH1 0xE0 DUP3 ADD MSTORE PUSH1 0x0 PUSH1 0xE0 DUP4 ADD MLOAD PUSH2 0x100 PUSH2 0x469C DUP2 DUP6 ADD DUP4 PUSH1 0x1 PUSH1 0x1 PUSH1 0xA0 SHL SUB AND SWAP1 MSTORE JUMP JUMPDEST DUP5 ADD MLOAD PUSH2 0x120 DUP5 DUP2 ADD SWAP2 SWAP1 SWAP2 MSTORE DUP5 ADD MLOAD PUSH2 0x140 DUP1 DUP6 ADD SWAP2 SWAP1 SWAP2 MSTORE DUP5 ADD MLOAD PUSH2 0x3E0 PUSH2 0x160 DUP1 DUP7 ADD DUP3 SWAP1 MSTORE SWAP2 SWAP3 POP SWAP1 PUSH2 0x46D7 PUSH2 0x400 DUP7 ADD DUP5 PUSH2 0x460B JUMP JUMPDEST SWAP3 POP DUP1 DUP7 ADD MLOAD SWAP1 POP PUSH1 0x1F NOT PUSH2 0x180 DUP2 DUP8 DUP7 SUB ADD DUP2 DUP9 ADD MSTORE PUSH2 0x46F8 DUP6 DUP5 PUSH2 0x460B JUMP JUMPDEST SWAP5 POP DUP1 DUP9 ADD MLOAD SWAP3 POP POP PUSH2 0x1A0 DUP2 DUP8 DUP7 SUB ADD DUP2 DUP9 ADD MSTORE PUSH2 0x4717 DUP6 DUP5 PUSH2 0x460B JUMP JUMPDEST SWAP5 POP DUP1 DUP9 ADD MLOAD SWAP3 POP POP PUSH2 0x1C0 DUP2 DUP8 DUP7 SUB ADD DUP2 DUP9 ADD MSTORE PUSH2 0x4736 DUP6 DUP5 PUSH2 0x460B JUMP JUMPDEST SWAP5 POP DUP1 DUP9 ADD MLOAD SWAP3 POP POP PUSH2 0x1E0 DUP2 DUP8 DUP7 SUB ADD DUP2 DUP9 ADD MSTORE PUSH2 0x4755 DUP6 DUP5 PUSH2 0x460B JUMP JUMPDEST SWAP5 POP DUP1 DUP9 ADD MLOAD SWAP3 POP POP PUSH2 0x200 DUP2 DUP8 DUP7 SUB ADD DUP2 DUP9 ADD MSTORE PUSH2 0x4774 DUP6 DUP5 PUSH2 0x460B JUMP JUMPDEST SWAP5 POP DUP1 DUP9 ADD MLOAD SWAP3 POP POP PUSH2 0x220 DUP2 DUP8 DUP7 SUB ADD DUP2 DUP9 ADD MSTORE PUSH2 0x4793 DUP6 DUP5 PUSH2 0x460B JUMP JUMPDEST SWAP5 POP DUP1 DUP9 ADD MLOAD SWAP3 POP POP PUSH2 0x240 DUP2 DUP8 DUP7 SUB ADD DUP2 DUP9 ADD MSTORE PUSH2 0x47B2 DUP6 DUP5 PUSH2 0x460B JUMP JUMPDEST SWAP5 POP DUP1 DUP9 ADD MLOAD SWAP3 POP POP PUSH2 0x260 DUP2 DUP8 DUP7 SUB ADD DUP2 DUP9 ADD MSTORE PUSH2 0x47D1 DUP6 DUP5 PUSH2 0x460B JUMP JUMPDEST SWAP5 POP DUP1 DUP9 ADD MLOAD SWAP3 POP POP PUSH2 0x280 DUP2 DUP8 DUP7 SUB ADD DUP2 DUP9 ADD MSTORE PUSH2 0x47F0 DUP6 DUP5 PUSH2 0x460B JUMP JUMPDEST SWAP5 POP DUP1 DUP9 ADD MLOAD SWAP3 POP POP POP PUSH2 0x2A0 PUSH2 0x4811 DUP2 DUP8 ADD DUP4 PUSH1 0x1 PUSH1 0x1 PUSH1 0xA0 SHL SUB AND SWAP1 MSTORE JUMP JUMPDEST DUP7 ADD MLOAD PUSH2 0x2C0 DUP7 DUP2 ADD SWAP2 SWAP1 SWAP2 MSTORE DUP7 ADD MLOAD PUSH2 0x2E0 DUP1 DUP8 ADD SWAP2 SWAP1 SWAP2 MSTORE DUP7 ADD MLOAD PUSH2 0x300 DUP1 DUP8 ADD SWAP2 SWAP1 SWAP2 MSTORE DUP7 ADD MLOAD PUSH2 0x320 DUP1 DUP8 ADD SWAP2 SWAP1 SWAP2 MSTORE DUP7 ADD MLOAD PUSH2 0x340 DUP1 DUP8 ADD SWAP2 SWAP1 SWAP2 MSTORE DUP7 ADD MLOAD PUSH2 0x360 DUP1 DUP8 ADD SWAP2 SWAP1 SWAP2 MSTORE DUP7 ADD MLOAD PUSH2 0x380 DUP1 DUP8 ADD SWAP2 SWAP1 SWAP2 MSTORE DUP7 ADD MLOAD PUSH2 0x3A0 DUP1 DUP8 ADD SWAP2 SWAP1 SWAP2 MSTORE DUP7 ADD MLOAD PUSH2 0x3C0 DUP1 DUP8 ADD SWAP2 SWAP1 SWAP2 MSTORE SWAP1 SWAP6 ADD MLOAD ISZERO ISZERO SWAP4 ADD SWAP3 SWAP1 SWAP3 MSTORE POP SWAP2 SWAP1 POP JUMP JUMPDEST PUSH1 0x20 DUP2 MSTORE PUSH1 0x0 PUSH2 0x2CF9 PUSH1 0x20 DUP4 ADD DUP5 PUSH2 0x460B JUMP JUMPDEST PUSH1 0x0 PUSH1 0x60 DUP3 DUP5 SUB SLT ISZERO PUSH2 0x48BD JUMPI PUSH1 0x0 DUP1 REVERT JUMPDEST PUSH1 0x40 MLOAD PUSH1 0x60 DUP2 ADD DUP2 DUP2 LT PUSH1 0x1 PUSH1 0x1 PUSH1 0x40 SHL SUB DUP3 GT OR ISZERO PUSH2 0x48DF JUMPI PUSH2 0x48DF PUSH2 0x4462 JUMP JUMPDEST DUP1 PUSH1 0x40 MSTORE POP DUP1 SWAP2 POP DUP3 CALLDATALOAD DUP2 MSTORE PUSH1 0x20 DUP4 ADD CALLDATALOAD PUSH1 0x20 DUP3 ADD MSTORE PUSH1 0x40 DUP4 ADD CALLDATALOAD PUSH1 0x40 DUP3 ADD MSTORE POP SWAP3 SWAP2 POP POP JUMP JUMPDEST DUP1 ISZERO ISZERO DUP2 EQ PUSH2 0x1F67 JUMPI PUSH1 0x0 DUP1 REVERT JUMPDEST PUSH1 0x0 PUSH1 0xC0 DUP3 DUP5 SUB SLT ISZERO PUSH2 0x4926 JUMPI PUSH1 0x0 DUP1 REVERT JUMPDEST PUSH1 0x40 MLOAD PUSH1 0xC0 DUP2 ADD DUP2 DUP2 LT PUSH1 0x1 PUSH1 0x1 PUSH1 0x40 SHL SUB DUP3 GT OR ISZERO PUSH2 0x4948 JUMPI PUSH2 0x4948 PUSH2 0x4462 JUMP JUMPDEST PUSH1 0x40 MSTORE SWAP1 POP DUP1 DUP3 CALLDATALOAD PUSH2 0x4959 DUP2 PUSH2 0x4906 JUMP JUMPDEST DUP2 MSTORE PUSH1 0x20 DUP4 ADD CALLDATALOAD PUSH2 0x4969 DUP2 PUSH2 0x44F4 JUMP JUMPDEST PUSH1 0x20 DUP3 ADD MSTORE PUSH1 0x40 DUP4 ADD CALLDATALOAD PUSH2 0x497C DUP2 PUSH2 0x44F4 JUMP JUMPDEST DUP1 PUSH1 0x40 DUP4 ADD MSTORE POP PUSH1 0x60 DUP4 ADD CALLDATALOAD PUSH1 0x60 DUP3 ADD MSTORE PUSH1 0x80 DUP4 ADD CALLDATALOAD PUSH1 0x80 DUP3 ADD MSTORE PUSH1 0xA0 DUP4 ADD CALLDATALOAD PUSH1 0xA0 DUP3 ADD MSTORE POP SWAP3 SWAP2 POP POP JUMP JUMPDEST PUSH1 0x0 PUSH1 0x40 DUP3 DUP5 SUB SLT ISZERO PUSH2 0x49BA JUMPI PUSH1 0x0 DUP1 REVERT JUMPDEST PUSH1 0x40 MLOAD PUSH1 0x40 DUP2 ADD DUP2 DUP2 LT PUSH1 0x1 PUSH1 0x1 PUSH1 0x40 SHL SUB DUP3 GT OR ISZERO PUSH2 0x49DC JUMPI PUSH2 0x49DC PUSH2 0x4462 JUMP JUMPDEST PUSH1 0x40 MSTORE DUP3 CALLDATALOAD DUP2 MSTORE PUSH1 0x20 SWAP3 DUP4 ADD CALLDATALOAD SWAP3 DUP2 ADD SWAP3 SWAP1 SWAP3 MSTORE POP SWAP2 SWAP1 POP JUMP JUMPDEST PUSH1 0x0 PUSH1 0x80 DUP3 DUP5 SUB SLT ISZERO PUSH2 0x4A08 JUMPI PUSH1 0x0 DUP1 REVERT JUMPDEST PUSH1 0x40 MLOAD PUSH1 0x80 DUP2 ADD DUP2 DUP2 LT PUSH1 0x1 PUSH1 0x1 PUSH1 0x40 SHL SUB DUP3 GT OR ISZERO PUSH2 0x4A2A JUMPI PUSH2 0x4A2A PUSH2 0x4462 JUMP JUMPDEST PUSH1 0x40 MSTORE SWAP1 POP DUP1 DUP3 CALLDATALOAD PUSH2 0x4A3B DUP2 PUSH2 0x44F4 JUMP JUMPDEST DUP2 MSTORE PUSH1 0x20 DUP4 ADD CALLDATALOAD PUSH2 0x4A4B DUP2 PUSH2 0x44F4 JUMP JUMPDEST PUSH1 0x20 DUP3 ADD MSTORE PUSH1 0x40 DUP4 ADD CALLDATALOAD PUSH2 0x4A5E DUP2 PUSH2 0x44F4 JUMP JUMPDEST PUSH1 0x40 DUP3 ADD MSTORE PUSH1 0x60 DUP4 ADD CALLDATALOAD PUSH2 0x4A71 DUP2 PUSH2 0x44F4 JUMP JUMPDEST PUSH1 0x60 SWAP2 SWAP1 SWAP2 ADD MSTORE SWAP3 SWAP2 POP POP JUMP JUMPDEST PUSH1 0x0 DUP3 PUSH1 0x1F DUP4 ADD SLT PUSH2 0x4A8F JUMPI PUSH1 0x0 DUP1 REVERT JUMPDEST DUP2 CALLDATALOAD PUSH1 0x1 PUSH1 0x1 PUSH1 0x40 SHL SUB DUP2 GT ISZERO PUSH2 0x4AA8 JUMPI PUSH2 0x4AA8 PUSH2 0x4462 JUMP JUMPDEST PUSH2 0x4ABB PUSH1 0x1F DUP3 ADD PUSH1 0x1F NOT AND PUSH1 0x20 ADD PUSH2 0x44C4 JUMP JUMPDEST DUP2 DUP2 MSTORE DUP5 PUSH1 0x20 DUP4 DUP7 ADD ADD GT ISZERO PUSH2 0x4AD0 JUMPI PUSH1 0x0 DUP1 REVERT JUMPDEST DUP2 PUSH1 0x20 DUP6 ADD PUSH1 0x20 DUP4 ADD CALLDATACOPY PUSH1 0x0 SWAP2 DUP2 ADD PUSH1 0x20 ADD SWAP2 SWAP1 SWAP2 MSTORE SWAP4 SWAP3 POP POP POP JUMP JUMPDEST PUSH1 0x0 PUSH2 0x140 DUP3 DUP5 SUB SLT ISZERO PUSH2 0x4B00 JUMPI PUSH1 0x0 DUP1 REVERT JUMPDEST PUSH2 0x4B08 PUSH2 0x4478 JUMP JUMPDEST SWAP1 POP DUP2 CALLDATALOAD PUSH1 0x1 PUSH1 0x1 PUSH1 0x40 SHL SUB DUP1 DUP3 GT ISZERO PUSH2 0x4B21 JUMPI PUSH1 0x0 DUP1 REVERT JUMPDEST PUSH2 0x4B2D DUP6 DUP4 DUP7 ADD PUSH2 0x4A7E JUMP JUMPDEST DUP4 MSTORE PUSH1 0x20 DUP5 ADD CALLDATALOAD SWAP2 POP DUP1 DUP3 GT ISZERO PUSH2 0x4B43 JUMPI PUSH1 0x0 DUP1 REVERT JUMPDEST PUSH2 0x4B4F DUP6 DUP4 DUP7 ADD PUSH2 0x4A7E JUMP JUMPDEST PUSH1 0x20 DUP5 ADD MSTORE PUSH1 0x40 DUP5 ADD CALLDATALOAD SWAP2 POP DUP1 DUP3 GT ISZERO PUSH2 0x4B68 JUMPI PUSH1 0x0 DUP1 REVERT JUMPDEST PUSH2 0x4B74 DUP6 DUP4 DUP7 ADD PUSH2 0x4A7E JUMP JUMPDEST PUSH1 0x40 DUP5 ADD MSTORE PUSH1 0x60 DUP5 ADD CALLDATALOAD SWAP2 POP DUP1 DUP3 GT ISZERO PUSH2 0x4B8D JUMPI PUSH1 0x0 DUP1 REVERT JUMPDEST PUSH2 0x4B99 DUP6 DUP4 DUP7 ADD PUSH2 0x4A7E JUMP JUMPDEST PUSH1 0x60 DUP5 ADD MSTORE PUSH1 0x80 DUP5 ADD CALLDATALOAD SWAP2 POP DUP1 DUP3 GT ISZERO PUSH2 0x4BB2 JUMPI PUSH1 0x0 DUP1 REVERT JUMPDEST PUSH2 0x4BBE DUP6 DUP4 DUP7 ADD PUSH2 0x4A7E JUMP JUMPDEST PUSH1 0x80 DUP5 ADD MSTORE PUSH1 0xA0 DUP5 ADD CALLDATALOAD SWAP2 POP DUP1 DUP3 GT ISZERO PUSH2 0x4BD7 JUMPI PUSH1 0x0 DUP1 REVERT JUMPDEST PUSH2 0x4BE3 DUP6 DUP4 DUP7 ADD PUSH2 0x4A7E JUMP JUMPDEST PUSH1 0xA0 DUP5 ADD MSTORE PUSH1 0xC0 DUP5 ADD CALLDATALOAD SWAP2 POP DUP1 DUP3 GT ISZERO PUSH2 0x4BFC JUMPI PUSH1 0x0 DUP1 REVERT JUMPDEST PUSH2 0x4C08 DUP6 DUP4 DUP7 ADD PUSH2 0x4A7E JUMP JUMPDEST PUSH1 0xC0 DUP5 ADD MSTORE PUSH1 0xE0 DUP5 ADD CALLDATALOAD SWAP2 POP DUP1 DUP3 GT ISZERO PUSH2 0x4C21 JUMPI PUSH1 0x0 DUP1 REVERT JUMPDEST PUSH2 0x4C2D DUP6 DUP4 DUP7 ADD PUSH2 0x4A7E JUMP JUMPDEST PUSH1 0xE0 DUP5 ADD MSTORE PUSH2 0x100 SWAP2 POP DUP2 DUP5 ADD CALLDATALOAD DUP2 DUP2 GT ISZERO PUSH2 0x4C48 JUMPI PUSH1 0x0 DUP1 REVERT JUMPDEST PUSH2 0x4C54 DUP7 DUP3 DUP8 ADD PUSH2 0x4A7E JUMP JUMPDEST DUP4 DUP6 ADD MSTORE POP PUSH2 0x120 SWAP2 POP DUP2 DUP5 ADD CALLDATALOAD DUP2 DUP2 GT ISZERO PUSH2 0x4C6F JUMPI PUSH1 0x0 DUP1 REVERT JUMPDEST PUSH2 0x4C7B DUP7 DUP3 DUP8 ADD PUSH2 0x4A7E JUMP JUMPDEST DUP4 DUP6 ADD MSTORE POP POP POP SWAP3 SWAP2 POP POP JUMP JUMPDEST PUSH1 0x0 DUP1 PUSH1 0x0 DUP1 PUSH1 0x0 DUP1 PUSH1 0x0 DUP1 DUP9 DUP11 SUB PUSH2 0x3A0 DUP2 SLT ISZERO PUSH2 0x4CA6 JUMPI PUSH1 0x0 DUP1 REVERT JUMPDEST PUSH2 0x160 DUP1 DUP3 SLT ISZERO PUSH2 0x4CB6 JUMPI PUSH1 0x0 DUP1 REVERT JUMPDEST PUSH2 0x4CBE PUSH2 0x44A1 JUMP JUMPDEST SWAP2 POP PUSH2 0x4CC9 DUP12 PUSH2 0x4509 JUMP JUMPDEST DUP3 MSTORE PUSH2 0x4CD7 PUSH1 0x20 DUP13 ADD PUSH2 0x4509 JUMP JUMPDEST PUSH1 0x20 DUP4 ADD MSTORE PUSH1 0x40 DUP12 ADD CALLDATALOAD PUSH1 0x40 DUP4 ADD MSTORE PUSH1 0x60 DUP12 ADD CALLDATALOAD PUSH1 0x60 DUP4 ADD MSTORE PUSH1 0x80 DUP12 ADD CALLDATALOAD PUSH1 0x80 DUP4 ADD MSTORE PUSH1 0xA0 DUP12 ADD CALLDATALOAD PUSH1 0xA0 DUP4 ADD MSTORE PUSH1 0xC0 DUP12 ADD CALLDATALOAD PUSH1 0xC0 DUP4 ADD MSTORE PUSH1 0xE0 DUP12 ADD CALLDATALOAD PUSH1 0xE0 DUP4 ADD MSTORE PUSH2 0x100 DUP1 DUP13 ADD CALLDATALOAD DUP2 DUP5 ADD MSTORE POP PUSH2 0x120 DUP1 DUP13 ADD CALLDATALOAD DUP2 DUP5 ADD MSTORE POP PUSH2 0x140 DUP1 DUP13 ADD CALLDATALOAD DUP2 DUP5 ADD MSTORE POP DUP2 SWAP10 POP PUSH2 0x4D4B DUP13 DUP3 DUP14 ADD PUSH2 0x48AB JUMP JUMPDEST SWAP9 POP POP POP PUSH2 0x4D5D DUP11 PUSH2 0x1C0 DUP12 ADD PUSH2 0x4914 JUMP JUMPDEST SWAP6 POP PUSH2 0x4D6D DUP11 PUSH2 0x280 DUP12 ADD PUSH2 0x49A8 JUMP JUMPDEST SWAP5 POP PUSH2 0x4D7D DUP11 PUSH2 0x2C0 DUP12 ADD PUSH2 0x49F6 JUMP JUMPDEST SWAP4 POP PUSH2 0x340 DUP10 ADD CALLDATALOAD PUSH1 0x1 PUSH1 0x1 PUSH1 0x40 SHL SUB DUP2 GT ISZERO PUSH2 0x4D99 JUMPI PUSH1 0x0 DUP1 REVERT JUMPDEST PUSH2 0x4DA5 DUP12 DUP3 DUP13 ADD PUSH2 0x4AED JUMP JUMPDEST SWAP4 POP POP PUSH2 0x360 DUP10 ADD CALLDATALOAD SWAP2 POP PUSH2 0x380 DUP10 ADD CALLDATALOAD SWAP1 POP SWAP3 SWAP6 SWAP9 POP SWAP3 SWAP6 SWAP9 SWAP1 SWAP4 SWAP7 POP JUMP JUMPDEST PUSH1 0x0 DUP1 PUSH1 0x40 DUP4 DUP6 SUB SLT ISZERO PUSH2 0x4DD8 JUMPI PUSH1 0x0 DUP1 REVERT JUMPDEST DUP3 CALLDATALOAD PUSH2 0x4DE3 DUP2 PUSH2 0x44F4 JUMP JUMPDEST SWAP2 POP PUSH1 0x20 DUP4 ADD CALLDATALOAD PUSH2 0x4DF3 DUP2 PUSH2 0x44F4 JUMP JUMPDEST DUP1 SWAP2 POP POP SWAP3 POP SWAP3 SWAP1 POP JUMP JUMPDEST PUSH1 0x20 DUP1 DUP3 MSTORE DUP3 MLOAD DUP3 DUP3 ADD DUP2 SWAP1 MSTORE PUSH1 0x0 SWAP2 SWAP1 DUP5 DUP3 ADD SWAP1 PUSH1 0x40 DUP6 ADD SWAP1 DUP5 JUMPDEST DUP2 DUP2 LT ISZERO PUSH2 0x4E3F JUMPI DUP4 MLOAD PUSH1 0x1 PUSH1 0x1 PUSH1 0xA0 SHL SUB AND DUP4 MSTORE SWAP3 DUP5 ADD SWAP3 SWAP2 DUP5 ADD SWAP2 PUSH1 0x1 ADD PUSH2 0x4E1A JUMP JUMPDEST POP SWAP1 SWAP7 SWAP6 POP POP POP POP POP POP JUMP JUMPDEST PUSH1 0x0 PUSH1 0x20 DUP3 DUP5 SUB SLT ISZERO PUSH2 0x4E5D JUMPI PUSH1 0x0 DUP1 REVERT JUMPDEST DUP2 CALLDATALOAD PUSH1 0x1 PUSH1 0x1 PUSH1 0x40 SHL SUB DUP2 GT ISZERO PUSH2 0x4E73 JUMPI PUSH1 0x0 DUP1 REVERT JUMPDEST PUSH2 0x3BC8 DUP5 DUP3 DUP6 ADD PUSH2 0x4AED JUMP JUMPDEST PUSH1 0x0 DUP1 PUSH1 0x40 DUP4 DUP6 SUB SLT ISZERO PUSH2 0x4E92 JUMPI PUSH1 0x0 DUP1 REVERT JUMPDEST DUP3 CALLDATALOAD PUSH2 0x4E9D DUP2 PUSH2 0x44F4 JUMP JUMPDEST SWAP5 PUSH1 0x20 SWAP4 SWAP1 SWAP4 ADD CALLDATALOAD SWAP4 POP POP POP JUMP JUMPDEST PUSH1 0x0 DUP1 PUSH1 0x40 DUP4 DUP6 SUB SLT ISZERO PUSH2 0x4EBE JUMPI PUSH1 0x0 DUP1 REVERT JUMPDEST POP POP DUP1 CALLDATALOAD SWAP3 PUSH1 0x20 SWAP1 SWAP2 ADD CALLDATALOAD SWAP2 POP JUMP JUMPDEST PUSH1 0x20 DUP1 DUP3 MSTORE PUSH1 0x15 SWAP1 DUP3 ADD MSTORE PUSH21 0x3630BAB731B43830B21D1027B7363C9029BAB832B9 PUSH1 0x59 SHL PUSH1 0x40 DUP3 ADD MSTORE PUSH1 0x60 ADD SWAP1 JUMP JUMPDEST PUSH4 0x4E487B71 PUSH1 0xE0 SHL PUSH1 0x0 MSTORE PUSH1 0x11 PUSH1 0x4 MSTORE PUSH1 0x24 PUSH1 0x0 REVERT JUMPDEST DUP1 DUP3 MUL DUP2 ISZERO DUP3 DUP3 DIV DUP5 EQ OR PUSH2 0x397B JUMPI PUSH2 0x397B PUSH2 0x4EFC JUMP JUMPDEST PUSH1 0x20 DUP1 DUP3 MSTORE PUSH1 0x1E SWAP1 DUP3 ADD MSTORE PUSH32 0x6C61756E63687061643A204F6E6C792077686974654C69737455736572730000 PUSH1 0x40 DUP3 ADD MSTORE PUSH1 0x60 ADD SWAP1 JUMP JUMPDEST PUSH4 0x4E487B71 PUSH1 0xE0 SHL PUSH1 0x0 MSTORE PUSH1 0x32 PUSH1 0x4 MSTORE PUSH1 0x24 PUSH1 0x0 REVERT JUMPDEST PUSH1 0x0 PUSH1 0x1 DUP3 ADD PUSH2 0x4F88 JUMPI PUSH2 0x4F88 PUSH2 0x4EFC JUMP JUMPDEST POP PUSH1 0x1 ADD SWAP1 JUMP JUMPDEST PUSH1 0x0 PUSH1 0x20 DUP3 DUP5 SUB SLT ISZERO PUSH2 0x4FA1 JUMPI PUSH1 0x0 DUP1 REVERT JUMPDEST POP MLOAD SWAP2 SWAP1 POP JUMP JUMPDEST PUSH1 0x1 DUP2 DUP2 SHR SWAP1 DUP3 AND DUP1 PUSH2 0x4FBC JUMPI PUSH1 0x7F DUP3 AND SWAP2 POP JUMPDEST PUSH1 0x20 DUP3 LT DUP2 SUB PUSH2 0x4FDC JUMPI PUSH4 0x4E487B71 PUSH1 0xE0 SHL PUSH1 0x0 MSTORE PUSH1 0x22 PUSH1 0x4 MSTORE PUSH1 0x24 PUSH1 0x0 REVERT JUMPDEST POP SWAP2 SWAP1 POP JUMP JUMPDEST DUP1 DUP3 ADD DUP1 DUP3 GT ISZERO PUSH2 0x397B JUMPI PUSH2 0x397B PUSH2 0x4EFC JUMP JUMPDEST PUSH1 0x20 DUP1 DUP3 MSTORE PUSH1 0x14 SWAP1 DUP3 ADD MSTORE PUSH20 0x6C61756E63687061643A204C5020416464656421 PUSH1 0x60 SHL PUSH1 0x40 DUP3 ADD MSTORE PUSH1 0x60 ADD SWAP1 JUMP JUMPDEST PUSH1 0x1F DUP3 GT ISZERO PUSH2 0x18BA JUMPI PUSH1 0x0 DUP2 DUP2 MSTORE PUSH1 0x20 DUP2 KECCAK256 PUSH1 0x1F DUP6 ADD PUSH1 0x5 SHR DUP2 ADD PUSH1 0x20 DUP7 LT ISZERO PUSH2 0x504A JUMPI POP DUP1 JUMPDEST PUSH1 0x1F DUP6 ADD PUSH1 0x5 SHR DUP3 ADD SWAP2 POP JUMPDEST DUP2 DUP2 LT ISZERO PUSH2 0x5069 JUMPI DUP3 DUP2 SSTORE PUSH1 0x1 ADD PUSH2 0x5056 JUMP JUMPDEST POP POP POP POP POP POP JUMP JUMPDEST DUP2 MLOAD PUSH1 0x1 PUSH1 0x1 PUSH1 0x40 SHL SUB DUP2 GT ISZERO PUSH2 0x508A JUMPI PUSH2 0x508A PUSH2 0x4462 JUMP JUMPDEST PUSH2 0x509E DUP2 PUSH2 0x5098 DUP5 SLOAD PUSH2 0x4FA8 JUMP JUMPDEST DUP5 PUSH2 0x5023 JUMP JUMPDEST PUSH1 0x20 DUP1 PUSH1 0x1F DUP4 GT PUSH1 0x1 DUP2 EQ PUSH2 0x50D3 JUMPI PUSH1 0x0 DUP5 ISZERO PUSH2 0x50BB JUMPI POP DUP6 DUP4 ADD MLOAD JUMPDEST PUSH1 0x0 NOT PUSH1 0x3 DUP7 SWAP1 SHL SHR NOT AND PUSH1 0x1 DUP6 SWAP1 SHL OR DUP6 SSTORE PUSH2 0x5069 JUMP JUMPDEST PUSH1 0x0 DUP6 DUP2 MSTORE PUSH1 0x20 DUP2 KECCAK256 PUSH1 0x1F NOT DUP7 AND SWAP2 JUMPDEST DUP3 DUP2 LT ISZERO PUSH2 0x5102 JUMPI DUP9 DUP7 ADD MLOAD DUP3 SSTORE SWAP5 DUP5 ADD SWAP5 PUSH1 0x1 SWAP1 SWAP2 ADD SWAP1 DUP5 ADD PUSH2 0x50E3 JUMP JUMPDEST POP DUP6 DUP3 LT ISZERO PUSH2 0x5120 JUMPI DUP8 DUP6 ADD MLOAD PUSH1 0x0 NOT PUSH1 0x3 DUP9 SWAP1 SHL PUSH1 0xF8 AND SHR NOT AND DUP2 SSTORE JUMPDEST POP POP POP POP POP PUSH1 0x1 SWAP1 DUP2 SHL ADD SWAP1 SSTORE POP JUMP JUMPDEST DUP2 DUP2 SUB DUP2 DUP2 GT ISZERO PUSH2 0x397B JUMPI PUSH2 0x397B PUSH2 0x4EFC JUMP JUMPDEST PUSH1 0x20 DUP1 DUP3 MSTORE PUSH1 0x1D SWAP1 DUP3 ADD MSTORE PUSH32 0x6C61756E63687061643A204E6F7420617661696C61626C6520706F6F6C000000 PUSH1 0x40 DUP3 ADD MSTORE PUSH1 0x60 ADD SWAP1 JUMP JUMPDEST PUSH1 0x0 DUP3 PUSH2 0x5197 JUMPI PUSH4 0x4E487B71 PUSH1 0xE0 SHL PUSH1 0x0 MSTORE PUSH1 0x12 PUSH1 0x4 MSTORE PUSH1 0x24 PUSH1 0x0 REVERT JUMPDEST POP DIV SWAP1 JUMP JUMPDEST PUSH1 0x0 PUSH1 0x20 DUP3 DUP5 SUB SLT ISZERO PUSH2 0x51AE JUMPI PUSH1 0x0 DUP1 REVERT JUMPDEST DUP2 MLOAD PUSH1 0xFF DUP2 AND DUP2 EQ PUSH2 0x2CF9 JUMPI PUSH1 0x0 DUP1 REVERT JUMPDEST PUSH1 0x1 DUP2 DUP2 JUMPDEST DUP1 DUP6 GT ISZERO PUSH2 0x51FA JUMPI DUP2 PUSH1 0x0 NOT DIV DUP3 GT ISZERO PUSH2 0x51E0 JUMPI PUSH2 0x51E0 PUSH2 0x4EFC JUMP JUMPDEST DUP1 DUP6 AND ISZERO PUSH2 0x51ED JUMPI SWAP2 DUP2 MUL SWAP2 JUMPDEST SWAP4 DUP5 SHR SWAP4 SWAP1 DUP1 MUL SWAP1 PUSH2 0x51C4 JUMP JUMPDEST POP SWAP3 POP SWAP3 SWAP1 POP JUMP JUMPDEST PUSH1 0x0 DUP3 PUSH2 0x5211 JUMPI POP PUSH1 0x1 PUSH2 0x397B JUMP JUMPDEST DUP2 PUSH2 0x521E JUMPI POP PUSH1 0x0 PUSH2 0x397B JUMP JUMPDEST DUP2 PUSH1 0x1 DUP2 EQ PUSH2 0x5234 JUMPI PUSH1 0x2 DUP2 EQ PUSH2 0x523E JUMPI PUSH2 0x525A JUMP JUMPDEST PUSH1 0x1 SWAP2 POP POP PUSH2 0x397B JUMP JUMPDEST PUSH1 0xFF DUP5 GT ISZERO PUSH2 0x524F JUMPI PUSH2 0x524F PUSH2 0x4EFC JUMP JUMPDEST POP POP PUSH1 0x1 DUP3 SHL PUSH2 0x397B JUMP JUMPDEST POP PUSH1 0x20 DUP4 LT PUSH2 0x133 DUP4 LT AND PUSH1 0x4E DUP5 LT PUSH1 0xB DUP5 LT AND OR ISZERO PUSH2 0x527D JUMPI POP DUP2 DUP2 EXP PUSH2 0x397B JUMP JUMPDEST PUSH2 0x5287 DUP4 DUP4 PUSH2 0x51BF JUMP JUMPDEST DUP1 PUSH1 0x0 NOT DIV DUP3 GT ISZERO PUSH2 0x529B JUMPI PUSH2 0x529B PUSH2 0x4EFC JUMP JUMPDEST MUL SWAP4 SWAP3 POP POP POP JUMP JUMPDEST PUSH1 0x0 PUSH2 0x2CF9 DUP4 DUP4 PUSH2 0x5202 JUMP JUMPDEST PUSH1 0x0 PUSH1 0x20 DUP3 DUP5 SUB SLT ISZERO PUSH2 0x52C1 JUMPI PUSH1 0x0 DUP1 REVERT JUMPDEST DUP2 MLOAD PUSH2 0x2CF9 DUP2 PUSH2 0x4906 JUMP JUMPDEST PUSH1 0x0 DUP1 PUSH1 0x0 PUSH1 0x60 DUP5 DUP7 SUB SLT ISZERO PUSH2 0x52E1 JUMPI PUSH1 0x0 DUP1 REVERT JUMPDEST DUP4 MLOAD SWAP3 POP PUSH1 0x20 DUP5 ADD MLOAD SWAP2 POP PUSH1 0x40 DUP5 ADD MLOAD SWAP1 POP SWAP3 POP SWAP3 POP SWAP3 JUMP JUMPDEST PUSH1 0x0 PUSH1 0x20 DUP3 DUP5 SUB SLT ISZERO PUSH2 0x530C JUMPI PUSH1 0x0 DUP1 REVERT JUMPDEST DUP2 MLOAD PUSH2 0x2CF9 DUP2 PUSH2 0x44F4 JUMP JUMPDEST PUSH4 0x4E487B71 PUSH1 0xE0 SHL PUSH1 0x0 MSTORE PUSH1 0x31 PUSH1 0x4 MSTORE PUSH1 0x24 PUSH1 0x0 REVERT JUMPDEST PUSH1 0x0 DUP3 MLOAD PUSH2 0x533F DUP2 DUP5 PUSH1 0x20 DUP8 ADD PUSH2 0x45E7 JUMP JUMPDEST SWAP2 SWAP1 SWAP2 ADD SWAP3 SWAP2 POP POP JUMP INVALID LOG2 PUSH5 0x6970667358 0x22 SLT KECCAK256 SWAP12 PUSH17 0x4440FF1DF73C8E9A917D499A11BE351DB7 0xC4 LOG2 ADD CALLER AND DUP14 0xBC ORIGIN MULMOD 0xF8 ORIGIN DUP3 SWAP11 PUSH5 0x736F6C6343 STOP ADDMOD SLT STOP CALLER "
		},
		"gasEstimates": {
			"creation": {
				"codeDepositCost": "4275000",
				"executionCost": "56260",
				"totalCost": "4331260"
			},
			"external": {
				"ZOOM()": "296",
				"addWhiteListUsers(address[])": "infinite",
				"cancelLaunchpad()": "26753",
				"check()": "infinite",
				"claimCanceledTokens()": "infinite",
				"claimTokens()": "infinite",
				"contribute(uint256)": "infinite",
				"deadAddress()": "2494",
				"description()": "infinite",
				"discordURL()": "infinite",
				"editLaunchpad((string,string,string,string,string,string,string,string,string,string))": "infinite",
				"emergencyWithdrawContribute()": "infinite",
				"emergencyWithdrawPool(address,uint256)": "infinite",
				"endTime()": "2419",
				"facebookURL()": "infinite",
				"factoryAddress()": "2438",
				"feeToken()": "2427",
				"finalizeLaunchpad()": "infinite",
				"firstReleasePercent()": "2438",
				"fundAddress()": "2470",
				"getAllWhiteListBuyers(uint256,uint256)": "infinite",
				"getJoinedUsers()": "infinite",
				"getLaunchpadInfo()": "infinite",
				"getOwnerZoneInfo(address)": "19949",
				"getUserClaimAble(address)": "infinite",
				"getWhiteListBuyersCount()": "2448",
				"githubURL()": "infinite",
				"hardCap()": "2416",
				"icoToken()": "2450",
				"initialize((address,address,uint256,uint256,uint256,uint256,uint256,uint256,uint256,uint256,uint256),(uint256,uint256,uint256),(bool,address,address,uint256,uint256,uint256),(uint256,uint256),(address,address,address,address),(string,string,string,string,string,string,string,string,string,string),uint256,uint256)": "infinite",
				"instagramURL()": "infinite",
				"joinInfos(address)": "9037",
				"launchpadOwner()": "2470",
				"listOfWhiteListUsers()": "infinite",
				"listingPercent()": "2373",
				"listingPrice()": "2373",
				"listingTime()": "2374",
				"logoURL()": "infinite",
				"lpLockId()": "2372",
				"lpLockTime()": "2440",
				"manualListing()": "2421",
				"maxInvest()": "2397",
				"maxLiquidity()": "2396",
				"minInvest()": "2440",
				"pause()": "infinite",
				"paused()": "2427",
				"penaltyFee()": "2418",
				"poolType()": "2374",
				"presaleRate()": "2375",
				"raisedAmount()": "2418",
				"raisedFeePercent()": "2375",
				"raisedTokenFeePercent()": "2396",
				"redditURL()": "infinite",
				"removeWhiteListUsers(address[])": "infinite",
				"removeWhitelistBuyers(address[])": "infinite",
				"routerAddress()": "2494",
				"setClaimTime(uint256)": "26816",
				"setDex(address,address)": "infinite",
				"setFundAddress(address)": "infinite",
				"setPenaltyFeePercent(uint256)": "24756",
				"setWhitelistBuyers(address[])": "infinite",
				"setWhitelistPool(uint256)": "24711",
				"softCap()": "2397",
				"startTime()": "2373",
				"state()": "2352",
				"teamLockId()": "2375",
				"telegramURL()": "infinite",
				"tokenReleaseEachCycle()": "2398",
				"totalSoldTokens()": "2351",
				"twitterURL()": "infinite",
				"unpause()": "infinite",
				"vestingPeriodEachCycle()": "2420",
				"virtualLock()": "2405",
				"websiteURL()": "infinite",
				"whitelistPool()": "2351",
				"withdrawContribute()": "infinite"
			},
			"internal": {
				"_check(address,address,address,address)": "infinite",
				"_getUserClaimAble(struct Launchpad.JoinInfo memory)": "infinite",
				"calculateUserTotalTokens(uint256)": "infinite"
			}
		},
		"methodIdentifiers": {
			"ZOOM()": "58e5bc88",
			"addWhiteListUsers(address[])": "54533282",
			"cancelLaunchpad()": "ba6c0e1e",
			"check()": "919840ad",
			"claimCanceledTokens()": "584f4d41",
			"claimTokens()": "48c54b9d",
			"contribute(uint256)": "c1cbbca7",
			"deadAddress()": "27c8f835",
			"description()": "7284e416",
			"discordURL()": "343fe61b",
			"editLaunchpad((string,string,string,string,string,string,string,string,string,string))": "b7b7ff23",
			"emergencyWithdrawContribute()": "bf9c5d45",
			"emergencyWithdrawPool(address,uint256)": "bc4724e8",
			"endTime()": "3197cbb6",
			"facebookURL()": "9779c479",
			"factoryAddress()": "966dae0e",
			"feeToken()": "647846a5",
			"finalizeLaunchpad()": "ea623239",
			"firstReleasePercent()": "ff09a5b6",
			"fundAddress()": "e82bef29",
			"getAllWhiteListBuyers(uint256,uint256)": "eaf74ac5",
			"getJoinedUsers()": "ae959e71",
			"getLaunchpadInfo()": "27b12bb2",
			"getOwnerZoneInfo(address)": "26009dca",
			"getUserClaimAble(address)": "cf25a442",
			"getWhiteListBuyersCount()": "ba1f332a",
			"githubURL()": "7344070b",
			"hardCap()": "fb86a404",
			"icoToken()": "260c2cec",
			"initialize((address,address,uint256,uint256,uint256,uint256,uint256,uint256,uint256,uint256,uint256),(uint256,uint256,uint256),(bool,address,address,uint256,uint256,uint256),(uint256,uint256),(address,address,address,address),(string,string,string,string,string,string,string,string,string,string),uint256,uint256)": "57801e6f",
			"instagramURL()": "b37d7654",
			"joinInfos(address)": "fb2ceb18",
			"launchpadOwner()": "7f33395b",
			"listOfWhiteListUsers()": "d6b75a05",
			"listingPercent()": "e2d24fb7",
			"listingPrice()": "c78f19f9",
			"listingTime()": "33b14742",
			"logoURL()": "d2ce89e5",
			"lpLockId()": "f86aa92d",
			"lpLockTime()": "a7b12846",
			"manualListing()": "7d1477c6",
			"maxInvest()": "3110235a",
			"maxLiquidity()": "70c0345c",
			"minInvest()": "63fd9e38",
			"pause()": "8456cb59",
			"paused()": "5c975abb",
			"penaltyFee()": "3dc10ad4",
			"poolType()": "b1dd61b6",
			"presaleRate()": "42f39381",
			"raisedAmount()": "c59ee1dc",
			"raisedFeePercent()": "8e5e721f",
			"raisedTokenFeePercent()": "c34f6990",
			"redditURL()": "334b2022",
			"removeWhiteListUsers(address[])": "b96f2120",
			"removeWhitelistBuyers(address[])": "2347d754",
			"routerAddress()": "3268cc56",
			"setClaimTime(uint256)": "421cc337",
			"setDex(address,address)": "a5f8a665",
			"setFundAddress(address)": "85dc3004",
			"setPenaltyFeePercent(uint256)": "0782f8f0",
			"setWhitelistBuyers(address[])": "b773827c",
			"setWhitelistPool(uint256)": "1619c877",
			"softCap()": "906a26e0",
			"startTime()": "78e97925",
			"state()": "c19d93fb",
			"teamLockId()": "2ee88649",
			"telegramURL()": "2e6f130f",
			"tokenReleaseEachCycle()": "18a75e95",
			"totalSoldTokens()": "d7ca9949",
			"twitterURL()": "e7b2c08e",
			"unpause()": "3f4ba83a",
			"vestingPeriodEachCycle()": "1cafeecc",
			"virtualLock()": "640f82f3",
			"websiteURL()": "779f6350",
			"whitelistPool()": "c5b5c1e2",
			"withdrawContribute()": "90d1576d"
		}
	},
	"abi": [
		{
			"inputs": [],
			"stateMutability": "nonpayable",
			"type": "constructor"
		},
		{
			"anonymous": false,
			"inputs": [
				{
					"indexed": true,
					"internalType": "uint256",
					"name": "_saleId",
					"type": "uint256"
				},
				{
					"indexed": true,
					"internalType": "uint256",
					"name": "_quantity",
					"type": "uint256"
				},
				{
					"indexed": true,
					"internalType": "uint256",
					"name": "_price",
					"type": "uint256"
				},
				{
					"indexed": false,
					"internalType": "address",
					"name": "_buyer",
					"type": "address"
				},
				{
					"indexed": false,
					"internalType": "address",
					"name": "_seller",
					"type": "address"
				}
			],
			"name": "Buy",
			"type": "event"
		},
		{
			"anonymous": false,
			"inputs": [
				{
					"indexed": true,
					"internalType": "uint256",
					"name": "_saleId",
					"type": "uint256"
				},
				{
					"indexed": true,
					"internalType": "address",
					"name": "_receiver",
					"type": "address"
				}
			],
			"name": "CancelListed",
			"type": "event"
		},
		{
			"anonymous": false,
			"inputs": [
				{
					"indexed": false,
					"internalType": "address",
					"name": "investor",
					"type": "address"
				},
				{
					"indexed": false,
					"internalType": "uint256",
					"name": "value",
					"type": "uint256"
				},
				{
					"indexed": false,
					"internalType": "uint256",
					"name": "tokens",
					"type": "uint256"
				}
			],
			"name": "Invest",
			"type": "event"
		},
		{
			"anonymous": false,
			"inputs": [
				{
					"indexed": true,
					"internalType": "uint256",
					"name": "_saleId",
					"type": "uint256"
				},
				{
					"indexed": true,
					"internalType": "uint256",
					"name": "_price",
					"type": "uint256"
				},
				{
					"indexed": true,
					"internalType": "uint256",
					"name": "_quantity",
					"type": "uint256"
				},
				{
					"indexed": false,
					"internalType": "address",
					"name": "_owner",
					"type": "address"
				},
				{
					"indexed": false,
					"internalType": "uint256",
					"name": "_tokenId",
					"type": "uint256"
				},
				{
					"indexed": false,
					"internalType": "uint256",
					"name": "status",
					"type": "uint256"
				}
			],
			"name": "List",
			"type": "event"
		},
		{
			"anonymous": false,
			"inputs": [
				{
					"indexed": false,
					"internalType": "address",
					"name": "account",
					"type": "address"
				}
			],
			"name": "Paused",
			"type": "event"
		},
		{
			"anonymous": false,
			"inputs": [
				{
					"indexed": false,
					"internalType": "address",
					"name": "_address",
					"type": "address"
				},
				{
					"indexed": false,
					"internalType": "uint256",
					"name": "tokensClaimed",
					"type": "uint256"
				}
			],
			"name": "TokenClaimed",
			"type": "event"
		},
		{
			"anonymous": false,
			"inputs": [
				{
					"indexed": false,
					"internalType": "address",
					"name": "account",
					"type": "address"
				}
			],
			"name": "Unpaused",
			"type": "event"
		},
		{
			"anonymous": false,
			"inputs": [
				{
					"indexed": true,
					"internalType": "uint256",
					"name": "_saleId",
					"type": "uint256"
				},
				{
					"indexed": true,
					"internalType": "address",
					"name": "_seller",
					"type": "address"
				},
				{
					"indexed": true,
					"internalType": "uint256",
					"name": "_price",
					"type": "uint256"
				}
			],
			"name": "UpdateSalePrice",
			"type": "event"
		},
		{
			"anonymous": false,
			"inputs": [
				{
					"indexed": true,
					"internalType": "uint256",
					"name": "_saleId",
					"type": "uint256"
				},
				{
					"indexed": true,
					"internalType": "address",
					"name": "_seller",
					"type": "address"
				},
				{
					"indexed": true,
					"internalType": "uint256",
					"name": "_quantity",
					"type": "uint256"
				},
				{
					"indexed": false,
					"internalType": "uint256",
					"name": "_status",
					"type": "uint256"
				}
			],
			"name": "UpdateSaleQuantity",
			"type": "event"
		},
		{
			"inputs": [],
			"name": "ZOOM",
			"outputs": [
				{
					"internalType": "uint256",
					"name": "",
					"type": "uint256"
				}
			],
			"stateMutability": "view",
			"type": "function"
		},
		{
			"inputs": [
				{
					"internalType": "address[]",
					"name": "_user",
					"type": "address[]"
				}
			],
			"name": "addWhiteListUsers",
			"outputs": [],
			"stateMutability": "nonpayable",
			"type": "function"
		},
		{
			"inputs": [],
			"name": "cancelLaunchpad",
			"outputs": [],
			"stateMutability": "nonpayable",
			"type": "function"
		},
		{
			"inputs": [],
			"name": "check",
			"outputs": [
				{
					"internalType": "bool",
					"name": "",
					"type": "bool"
				}
			],
			"stateMutability": "view",
			"type": "function"
		},
		{
			"inputs": [],
			"name": "claimCanceledTokens",
			"outputs": [],
			"stateMutability": "nonpayable",
			"type": "function"
		},
		{
			"inputs": [],
			"name": "claimTokens",
			"outputs": [],
			"stateMutability": "nonpayable",
			"type": "function"
		},
		{
			"inputs": [
				{
					"internalType": "uint256",
					"name": "_amount",
					"type": "uint256"
				}
			],
			"name": "contribute",
			"outputs": [],
			"stateMutability": "payable",
			"type": "function"
		},
		{
			"inputs": [],
			"name": "deadAddress",
			"outputs": [
				{
					"internalType": "address",
					"name": "",
					"type": "address"
				}
			],
			"stateMutability": "view",
			"type": "function"
		},
		{
			"inputs": [],
			"name": "description",
			"outputs": [
				{
					"internalType": "string",
					"name": "",
					"type": "string"
				}
			],
			"stateMutability": "view",
			"type": "function"
		},
		{
			"inputs": [],
			"name": "discordURL",
			"outputs": [
				{
					"internalType": "string",
					"name": "",
					"type": "string"
				}
			],
			"stateMutability": "view",
			"type": "function"
		},
		{
			"inputs": [
				{
					"components": [
						{
							"internalType": "string",
							"name": "logoURL",
							"type": "string"
						},
						{
							"internalType": "string",
							"name": "description",
							"type": "string"
						},
						{
							"internalType": "string",
							"name": "websiteURL",
							"type": "string"
						},
						{
							"internalType": "string",
							"name": "facebookURL",
							"type": "string"
						},
						{
							"internalType": "string",
							"name": "twitterURL",
							"type": "string"
						},
						{
							"internalType": "string",
							"name": "githubURL",
							"type": "string"
						},
						{
							"internalType": "string",
							"name": "telegramURL",
							"type": "string"
						},
						{
							"internalType": "string",
							"name": "instagramURL",
							"type": "string"
						},
						{
							"internalType": "string",
							"name": "discordURL",
							"type": "string"
						},
						{
							"internalType": "string",
							"name": "redditURL",
							"type": "string"
						}
					],
					"internalType": "struct LaunchpadStructs.SocialLinks",
					"name": "socialLinks",
					"type": "tuple"
				}
			],
			"name": "editLaunchpad",
			"outputs": [],
			"stateMutability": "nonpayable",
			"type": "function"
		},
		{
			"inputs": [],
			"name": "emergencyWithdrawContribute",
			"outputs": [],
			"stateMutability": "nonpayable",
			"type": "function"
		},
		{
			"inputs": [
				{
					"internalType": "address",
					"name": "_token",
					"type": "address"
				},
				{
					"internalType": "uint256",
					"name": "_amount",
					"type": "uint256"
				}
			],
			"name": "emergencyWithdrawPool",
			"outputs": [],
			"stateMutability": "nonpayable",
			"type": "function"
		},
		{
			"inputs": [],
			"name": "endTime",
			"outputs": [
				{
					"internalType": "uint256",
					"name": "",
					"type": "uint256"
				}
			],
			"stateMutability": "view",
			"type": "function"
		},
		{
			"inputs": [],
			"name": "facebookURL",
			"outputs": [
				{
					"internalType": "string",
					"name": "",
					"type": "string"
				}
			],
			"stateMutability": "view",
			"type": "function"
		},
		{
			"inputs": [],
			"name": "factoryAddress",
			"outputs": [
				{
					"internalType": "address",
					"name": "",
					"type": "address"
				}
			],
			"stateMutability": "view",
			"type": "function"
		},
		{
			"inputs": [],
			"name": "feeToken",
			"outputs": [
				{
					"internalType": "address",
					"name": "",
					"type": "address"
				}
			],
			"stateMutability": "view",
			"type": "function"
		},
		{
			"inputs": [],
			"name": "finalizeLaunchpad",
			"outputs": [],
			"stateMutability": "nonpayable",
			"type": "function"
		},
		{
			"inputs": [],
			"name": "firstReleasePercent",
			"outputs": [
				{
					"internalType": "uint256",
					"name": "",
					"type": "uint256"
				}
			],
			"stateMutability": "view",
			"type": "function"
		},
		{
			"inputs": [],
			"name": "fundAddress",
			"outputs": [
				{
					"internalType": "address payable",
					"name": "",
					"type": "address"
				}
			],
			"stateMutability": "view",
			"type": "function"
		},
		{
			"inputs": [
				{
					"internalType": "uint256",
					"name": "start",
					"type": "uint256"
				},
				{
					"internalType": "uint256",
					"name": "end",
					"type": "uint256"
				}
			],
			"name": "getAllWhiteListBuyers",
			"outputs": [
				{
					"internalType": "address[]",
					"name": "",
					"type": "address[]"
				}
			],
			"stateMutability": "view",
			"type": "function"
		},
		{
			"inputs": [],
			"name": "getJoinedUsers",
			"outputs": [
				{
					"internalType": "address[]",
					"name": "",
					"type": "address[]"
				}
			],
			"stateMutability": "view",
			"type": "function"
		},
		{
			"inputs": [],
			"name": "getLaunchpadInfo",
			"outputs": [
				{
					"components": [
						{
							"internalType": "uint256",
							"name": "softCap",
							"type": "uint256"
						},
						{
							"internalType": "uint256",
							"name": "hardCap",
							"type": "uint256"
						},
						{
							"internalType": "uint256",
							"name": "startTime",
							"type": "uint256"
						},
						{
							"internalType": "uint256",
							"name": "endTime",
							"type": "uint256"
						},
						{
							"internalType": "uint256",
							"name": "state",
							"type": "uint256"
						},
						{
							"internalType": "uint256",
							"name": "raisedAmount",
							"type": "uint256"
						},
						{
							"internalType": "uint256",
							"name": "balance",
							"type": "uint256"
						},
						{
							"internalType": "address",
							"name": "feeToken",
							"type": "address"
						},
						{
							"internalType": "uint256",
							"name": "listingTime",
							"type": "uint256"
						},
						{
							"internalType": "uint256",
							"name": "whitelistPool",
							"type": "uint256"
						},
						{
							"internalType": "string",
							"name": "logoURL",
							"type": "string"
						},
						{
							"internalType": "string",
							"name": "description",
							"type": "string"
						},
						{
							"internalType": "string",
							"name": "websiteURL",
							"type": "string"
						},
						{
							"internalType": "string",
							"name": "facebookURL",
							"type": "string"
						},
						{
							"internalType": "string",
							"name": "twitterURL",
							"type": "string"
						},
						{
							"internalType": "string",
							"name": "githubURL",
							"type": "string"
						},
						{
							"internalType": "string",
							"name": "telegramURL",
							"type": "string"
						},
						{
							"internalType": "string",
							"name": "instagramURL",
							"type": "string"
						},
						{
							"internalType": "string",
							"name": "discordURL",
							"type": "string"
						},
						{
							"internalType": "string",
							"name": "redditURL",
							"type": "string"
						},
						{
							"internalType": "address",
							"name": "icoToken",
							"type": "address"
						},
						{
							"internalType": "uint256",
							"name": "firstReleasePercent",
							"type": "uint256"
						},
						{
							"internalType": "uint256",
							"name": "listingPercent",
							"type": "uint256"
						},
						{
							"internalType": "uint256",
							"name": "listingPrice",
							"type": "uint256"
						},
						{
							"internalType": "uint256",
							"name": "lpLockTime",
							"type": "uint256"
						},
						{
							"internalType": "uint256",
							"name": "maxInvest",
							"type": "uint256"
						},
						{
							"internalType": "uint256",
							"name": "minInvest",
							"type": "uint256"
						},
						{
							"internalType": "uint256",
							"name": "maxLiquidity",
							"type": "uint256"
						},
						{
							"internalType": "uint256",
							"name": "presaleRate",
							"type": "uint256"
						},
						{
							"internalType": "uint256",
							"name": "totalSoldTokens",
							"type": "uint256"
						},
						{
							"internalType": "bool",
							"name": "manualListing",
							"type": "bool"
						}
					],
					"internalType": "struct LaunchpadStructs.LaunchpadReturnInfo",
					"name": "",
					"type": "tuple"
				}
			],
			"stateMutability": "view",
			"type": "function"
		},
		{
			"inputs": [
				{
					"internalType": "address",
					"name": "_user",
					"type": "address"
				}
			],
			"name": "getOwnerZoneInfo",
			"outputs": [
				{
					"components": [
						{
							"internalType": "bool",
							"name": "isOwner",
							"type": "bool"
						},
						{
							"internalType": "uint256",
							"name": "whitelistPool",
							"type": "uint256"
						},
						{
							"internalType": "bool",
							"name": "canFinalize",
							"type": "bool"
						},
						{
							"internalType": "bool",
							"name": "canCancel",
							"type": "bool"
						}
					],
					"internalType": "struct LaunchpadStructs.OwnerZoneInfo",
					"name": "",
					"type": "tuple"
				}
			],
			"stateMutability": "view",
			"type": "function"
		},
		{
			"inputs": [
				{
					"internalType": "address",
					"name": "_sender",
					"type": "address"
				}
			],
			"name": "getUserClaimAble",
			"outputs": [
				{
					"internalType": "uint256",
					"name": "",
					"type": "uint256"
				}
			],
			"stateMutability": "view",
			"type": "function"
		},
		{
			"inputs": [],
			"name": "getWhiteListBuyersCount",
			"outputs": [
				{
					"internalType": "uint256",
					"name": "",
					"type": "uint256"
				}
			],
			"stateMutability": "view",
			"type": "function"
		},
		{
			"inputs": [],
			"name": "githubURL",
			"outputs": [
				{
					"internalType": "string",
					"name": "",
					"type": "string"
				}
			],
			"stateMutability": "view",
			"type": "function"
		},
		{
			"inputs": [],
			"name": "hardCap",
			"outputs": [
				{
					"internalType": "uint256",
					"name": "",
					"type": "uint256"
				}
			],
			"stateMutability": "view",
			"type": "function"
		},
		{
			"inputs": [],
			"name": "icoToken",
			"outputs": [
				{
					"internalType": "contract IVirtualERC20",
					"name": "",
					"type": "address"
				}
			],
			"stateMutability": "view",
			"type": "function"
		},
		{
			"inputs": [
				{
					"components": [
						{
							"internalType": "address",
							"name": "icoToken",
							"type": "address"
						},
						{
							"internalType": "address",
							"name": "feeToken",
							"type": "address"
						},
						{
							"internalType": "uint256",
							"name": "softCap",
							"type": "uint256"
						},
						{
							"internalType": "uint256",
							"name": "hardCap",
							"type": "uint256"
						},
						{
							"internalType": "uint256",
							"name": "presaleRate",
							"type": "uint256"
						},
						{
							"internalType": "uint256",
							"name": "minInvest",
							"type": "uint256"
						},
						{
							"internalType": "uint256",
							"name": "maxInvest",
							"type": "uint256"
						},
						{
							"internalType": "uint256",
							"name": "startTime",
							"type": "uint256"
						},
						{
							"internalType": "uint256",
							"name": "endTime",
							"type": "uint256"
						},
						{
							"internalType": "uint256",
							"name": "whitelistPool",
							"type": "uint256"
						},
						{
							"internalType": "uint256",
							"name": "poolType",
							"type": "uint256"
						}
					],
					"internalType": "struct LaunchpadStructs.LaunchpadInfo",
					"name": "info",
					"type": "tuple"
				},
				{
					"components": [
						{
							"internalType": "uint256",
							"name": "firstReleasePercent",
							"type": "uint256"
						},
						{
							"internalType": "uint256",
							"name": "vestingPeriodEachCycle",
							"type": "uint256"
						},
						{
							"internalType": "uint256",
							"name": "tokenReleaseEachCycle",
							"type": "uint256"
						}
					],
					"internalType": "struct LaunchpadStructs.ClaimInfo",
					"name": "userClaimInfo",
					"type": "tuple"
				},
				{
					"components": [
						{
							"internalType": "bool",
							"name": "manualListing",
							"type": "bool"
						},
						{
							"internalType": "address",
							"name": "routerAddress",
							"type": "address"
						},
						{
							"internalType": "address",
							"name": "factoryAddress",
							"type": "address"
						},
						{
							"internalType": "uint256",
							"name": "listingPrice",
							"type": "uint256"
						},
						{
							"internalType": "uint256",
							"name": "listingPercent",
							"type": "uint256"
						},
						{
							"internalType": "uint256",
							"name": "lpLockTime",
							"type": "uint256"
						}
					],
					"internalType": "struct LaunchpadStructs.DexInfo",
					"name": "dexInfo",
					"type": "tuple"
				},
				{
					"components": [
						{
							"internalType": "uint256",
							"name": "raisedFeePercent",
							"type": "uint256"
						},
						{
							"internalType": "uint256",
							"name": "raisedTokenFeePercent",
							"type": "uint256"
						}
					],
					"internalType": "struct LaunchpadStructs.FeeSystem",
					"name": "feeInfo",
					"type": "tuple"
				},
				{
					"components": [
						{
							"internalType": "address",
							"name": "deployer",
							"type": "address"
						},
						{
							"internalType": "address",
							"name": "superAccount",
							"type": "address"
						},
						{
							"internalType": "address payable",
							"name": "fundAddress",
							"type": "address"
						},
						{
							"internalType": "address",
							"name": "virtualLock",
							"type": "address"
						}
					],
					"internalType": "struct LaunchpadStructs.SettingAccount",
					"name": "settingAccount",
					"type": "tuple"
				},
				{
					"components": [
						{
							"internalType": "string",
							"name": "logoURL",
							"type": "string"
						},
						{
							"internalType": "string",
							"name": "description",
							"type": "string"
						},
						{
							"internalType": "string",
							"name": "websiteURL",
							"type": "string"
						},
						{
							"internalType": "string",
							"name": "facebookURL",
							"type": "string"
						},
						{
							"internalType": "string",
							"name": "twitterURL",
							"type": "string"
						},
						{
							"internalType": "string",
							"name": "githubURL",
							"type": "string"
						},
						{
							"internalType": "string",
							"name": "telegramURL",
							"type": "string"
						},
						{
							"internalType": "string",
							"name": "instagramURL",
							"type": "string"
						},
						{
							"internalType": "string",
							"name": "discordURL",
							"type": "string"
						},
						{
							"internalType": "string",
							"name": "redditURL",
							"type": "string"
						}
					],
					"internalType": "struct LaunchpadStructs.SocialLinks",
					"name": "socialLinks",
					"type": "tuple"
				},
				{
					"internalType": "uint256",
					"name": "_maxLP",
					"type": "uint256"
				},
				{
					"internalType": "uint256",
					"name": "_penaltyFeePercent",
					"type": "uint256"
				}
			],
			"name": "initialize",
			"outputs": [],
			"stateMutability": "nonpayable",
			"type": "function"
		},
		{
			"inputs": [],
			"name": "instagramURL",
			"outputs": [
				{
					"internalType": "string",
					"name": "",
					"type": "string"
				}
			],
			"stateMutability": "view",
			"type": "function"
		},
		{
			"inputs": [
				{
					"internalType": "address",
					"name": "",
					"type": "address"
				}
			],
			"name": "joinInfos",
			"outputs": [
				{
					"internalType": "uint256",
					"name": "totalInvestment",
					"type": "uint256"
				},
				{
					"internalType": "uint256",
					"name": "claimedTokens",
					"type": "uint256"
				},
				{
					"internalType": "uint256",
					"name": "totalTokens",
					"type": "uint256"
				},
				{
					"internalType": "bool",
					"name": "refund",
					"type": "bool"
				}
			],
			"stateMutability": "view",
			"type": "function"
		},
		{
			"inputs": [],
			"name": "launchpadOwner",
			"outputs": [
				{
					"internalType": "address",
					"name": "",
					"type": "address"
				}
			],
			"stateMutability": "view",
			"type": "function"
		},
		{
			"inputs": [],
			"name": "listOfWhiteListUsers",
			"outputs": [
				{
					"internalType": "address[]",
					"name": "",
					"type": "address[]"
				}
			],
			"stateMutability": "view",
			"type": "function"
		},
		{
			"inputs": [],
			"name": "listingPercent",
			"outputs": [
				{
					"internalType": "uint256",
					"name": "",
					"type": "uint256"
				}
			],
			"stateMutability": "view",
			"type": "function"
		},
		{
			"inputs": [],
			"name": "listingPrice",
			"outputs": [
				{
					"internalType": "uint256",
					"name": "",
					"type": "uint256"
				}
			],
			"stateMutability": "view",
			"type": "function"
		},
		{
			"inputs": [],
			"name": "listingTime",
			"outputs": [
				{
					"internalType": "uint256",
					"name": "",
					"type": "uint256"
				}
			],
			"stateMutability": "view",
			"type": "function"
		},
		{
			"inputs": [],
			"name": "logoURL",
			"outputs": [
				{
					"internalType": "string",
					"name": "",
					"type": "string"
				}
			],
			"stateMutability": "view",
			"type": "function"
		},
		{
			"inputs": [],
			"name": "lpLockId",
			"outputs": [
				{
					"internalType": "uint256",
					"name": "",
					"type": "uint256"
				}
			],
			"stateMutability": "view",
			"type": "function"
		},
		{
			"inputs": [],
			"name": "lpLockTime",
			"outputs": [
				{
					"internalType": "uint256",
					"name": "",
					"type": "uint256"
				}
			],
			"stateMutability": "view",
			"type": "function"
		},
		{
			"inputs": [],
			"name": "manualListing",
			"outputs": [
				{
					"internalType": "bool",
					"name": "",
					"type": "bool"
				}
			],
			"stateMutability": "view",
			"type": "function"
		},
		{
			"inputs": [],
			"name": "maxInvest",
			"outputs": [
				{
					"internalType": "uint256",
					"name": "",
					"type": "uint256"
				}
			],
			"stateMutability": "view",
			"type": "function"
		},
		{
			"inputs": [],
			"name": "maxLiquidity",
			"outputs": [
				{
					"internalType": "uint256",
					"name": "",
					"type": "uint256"
				}
			],
			"stateMutability": "view",
			"type": "function"
		},
		{
			"inputs": [],
			"name": "minInvest",
			"outputs": [
				{
					"internalType": "uint256",
					"name": "",
					"type": "uint256"
				}
			],
			"stateMutability": "view",
			"type": "function"
		},
		{
			"inputs": [],
			"name": "pause",
			"outputs": [],
			"stateMutability": "nonpayable",
			"type": "function"
		},
		{
			"inputs": [],
			"name": "paused",
			"outputs": [
				{
					"internalType": "bool",
					"name": "",
					"type": "bool"
				}
			],
			"stateMutability": "view",
			"type": "function"
		},
		{
			"inputs": [],
			"name": "penaltyFee",
			"outputs": [
				{
					"internalType": "uint256",
					"name": "",
					"type": "uint256"
				}
			],
			"stateMutability": "view",
			"type": "function"
		},
		{
			"inputs": [],
			"name": "poolType",
			"outputs": [
				{
					"internalType": "uint256",
					"name": "",
					"type": "uint256"
				}
			],
			"stateMutability": "view",
			"type": "function"
		},
		{
			"inputs": [],
			"name": "presaleRate",
			"outputs": [
				{
					"internalType": "uint256",
					"name": "",
					"type": "uint256"
				}
			],
			"stateMutability": "view",
			"type": "function"
		},
		{
			"inputs": [],
			"name": "raisedAmount",
			"outputs": [
				{
					"internalType": "uint256",
					"name": "",
					"type": "uint256"
				}
			],
			"stateMutability": "view",
			"type": "function"
		},
		{
			"inputs": [],
			"name": "raisedFeePercent",
			"outputs": [
				{
					"internalType": "uint256",
					"name": "",
					"type": "uint256"
				}
			],
			"stateMutability": "view",
			"type": "function"
		},
		{
			"inputs": [],
			"name": "raisedTokenFeePercent",
			"outputs": [
				{
					"internalType": "uint256",
					"name": "",
					"type": "uint256"
				}
			],
			"stateMutability": "view",
			"type": "function"
		},
		{
			"inputs": [],
			"name": "redditURL",
			"outputs": [
				{
					"internalType": "string",
					"name": "",
					"type": "string"
				}
			],
			"stateMutability": "view",
			"type": "function"
		},
		{
			"inputs": [
				{
					"internalType": "address[]",
					"name": "_user",
					"type": "address[]"
				}
			],
			"name": "removeWhiteListUsers",
			"outputs": [],
			"stateMutability": "nonpayable",
			"type": "function"
		},
		{
			"inputs": [
				{
					"internalType": "address[]",
					"name": "_buyers",
					"type": "address[]"
				}
			],
			"name": "removeWhitelistBuyers",
			"outputs": [],
			"stateMutability": "nonpayable",
			"type": "function"
		},
		{
			"inputs": [],
			"name": "routerAddress",
			"outputs": [
				{
					"internalType": "address",
					"name": "",
					"type": "address"
				}
			],
			"stateMutability": "view",
			"type": "function"
		},
		{
			"inputs": [
				{
					"internalType": "uint256",
					"name": "_listingTime",
					"type": "uint256"
				}
			],
			"name": "setClaimTime",
			"outputs": [],
			"stateMutability": "nonpayable",
			"type": "function"
		},
		{
			"inputs": [
				{
					"internalType": "address",
					"name": "_factory",
					"type": "address"
				},
				{
					"internalType": "address",
					"name": "_router",
					"type": "address"
				}
			],
			"name": "setDex",
			"outputs": [],
			"stateMutability": "nonpayable",
			"type": "function"
		},
		{
			"inputs": [
				{
					"internalType": "address payable",
					"name": "_fundAddress",
					"type": "address"
				}
			],
			"name": "setFundAddress",
			"outputs": [],
			"stateMutability": "nonpayable",
			"type": "function"
		},
		{
			"inputs": [
				{
					"internalType": "uint256",
					"name": "_penaltyFee",
					"type": "uint256"
				}
			],
			"name": "setPenaltyFeePercent",
			"outputs": [],
			"stateMutability": "nonpayable",
			"type": "function"
		},
		{
			"inputs": [
				{
					"internalType": "address[]",
					"name": "_buyers",
					"type": "address[]"
				}
			],
			"name": "setWhitelistBuyers",
			"outputs": [],
			"stateMutability": "nonpayable",
			"type": "function"
		},
		{
			"inputs": [
				{
					"internalType": "uint256",
					"name": "_wlPool",
					"type": "uint256"
				}
			],
			"name": "setWhitelistPool",
			"outputs": [],
			"stateMutability": "nonpayable",
			"type": "function"
		},
		{
			"inputs": [],
			"name": "softCap",
			"outputs": [
				{
					"internalType": "uint256",
					"name": "",
					"type": "uint256"
				}
			],
			"stateMutability": "view",
			"type": "function"
		},
		{
			"inputs": [],
			"name": "startTime",
			"outputs": [
				{
					"internalType": "uint256",
					"name": "",
					"type": "uint256"
				}
			],
			"stateMutability": "view",
			"type": "function"
		},
		{
			"inputs": [],
			"name": "state",
			"outputs": [
				{
					"internalType": "uint256",
					"name": "",
					"type": "uint256"
				}
			],
			"stateMutability": "view",
			"type": "function"
		},
		{
			"inputs": [],
			"name": "teamLockId",
			"outputs": [
				{
					"internalType": "uint256",
					"name": "",
					"type": "uint256"
				}
			],
			"stateMutability": "view",
			"type": "function"
		},
		{
			"inputs": [],
			"name": "telegramURL",
			"outputs": [
				{
					"internalType": "string",
					"name": "",
					"type": "string"
				}
			],
			"stateMutability": "view",
			"type": "function"
		},
		{
			"inputs": [],
			"name": "tokenReleaseEachCycle",
			"outputs": [
				{
					"internalType": "uint256",
					"name": "",
					"type": "uint256"
				}
			],
			"stateMutability": "view",
			"type": "function"
		},
		{
			"inputs": [],
			"name": "totalSoldTokens",
			"outputs": [
				{
					"internalType": "uint256",
					"name": "",
					"type": "uint256"
				}
			],
			"stateMutability": "view",
			"type": "function"
		},
		{
			"inputs": [],
			"name": "twitterURL",
			"outputs": [
				{
					"internalType": "string",
					"name": "",
					"type": "string"
				}
			],
			"stateMutability": "view",
			"type": "function"
		},
		{
			"inputs": [],
			"name": "unpause",
			"outputs": [],
			"stateMutability": "nonpayable",
			"type": "function"
		},
		{
			"inputs": [],
			"name": "vestingPeriodEachCycle",
			"outputs": [
				{
					"internalType": "uint256",
					"name": "",
					"type": "uint256"
				}
			],
			"stateMutability": "view",
			"type": "function"
		},
		{
			"inputs": [],
			"name": "virtualLock",
			"outputs": [
				{
					"internalType": "contract IVirtualLock",
					"name": "",
					"type": "address"
				}
			],
			"stateMutability": "view",
			"type": "function"
		},
		{
			"inputs": [],
			"name": "websiteURL",
			"outputs": [
				{
					"internalType": "string",
					"name": "",
					"type": "string"
				}
			],
			"stateMutability": "view",
			"type": "function"
		},
		{
			"inputs": [],
			"name": "whitelistPool",
			"outputs": [
				{
					"internalType": "uint256",
					"name": "",
					"type": "uint256"
				}
			],
			"stateMutability": "view",
			"type": "function"
		},
		{
			"inputs": [],
			"name": "withdrawContribute",
			"outputs": [],
			"stateMutability": "nonpayable",
			"type": "function"
		}
	]
}